{
  "contractName": "CurrencyTimer",
  "abi": [
    {
      "inputs": [
        {
          "internalType": "contract Policy",
          "name": "_policy",
          "type": "address"
        },
        {
          "internalType": "contract CurrencyGovernance",
          "name": "_borda",
          "type": "address"
        },
        {
          "internalType": "contract Inflation",
          "name": "_inflation",
          "type": "address"
        },
        {
          "internalType": "contract Lockup",
          "name": "_lockup",
          "type": "address"
        },
        {
          "internalType": "contract InflationRootHashProposal",
          "name": "_inflationRootHashProposal",
          "type": "address"
        },
        {
          "internalType": "contract ECO",
          "name": "_ecoAddr",
          "type": "address"
        }
      ],
      "stateMutability": "nonpayable",
      "type": "constructor"
    },
    {
      "anonymous": false,
      "inputs": [
        {
          "indexed": true,
          "internalType": "contract CurrencyGovernance",
          "name": "addr",
          "type": "address"
        }
      ],
      "name": "NewCurrencyGovernance",
      "type": "event"
    },
    {
      "anonymous": false,
      "inputs": [
        {
          "indexed": true,
          "internalType": "contract Inflation",
          "name": "addr",
          "type": "address"
        }
      ],
      "name": "NewInflation",
      "type": "event"
    },
    {
      "anonymous": false,
      "inputs": [
        {
          "indexed": true,
          "internalType": "contract InflationRootHashProposal",
          "name": "inflationRootHashProposalContract",
          "type": "address"
        },
        {
          "indexed": true,
          "internalType": "uint256",
          "name": "generation",
          "type": "uint256"
        }
      ],
      "name": "NewInflationRootHashProposal",
      "type": "event"
    },
    {
      "anonymous": false,
      "inputs": [
        {
          "indexed": true,
          "internalType": "contract Lockup",
          "name": "addr",
          "type": "address"
        }
      ],
      "name": "NewLockup",
      "type": "event"
    },
    {
      "inputs": [],
      "name": "bordaImpl",
      "outputs": [
        {
          "internalType": "contract CurrencyGovernance",
          "name": "",
          "type": "address"
        }
      ],
      "stateMutability": "view",
      "type": "function"
    },
    {
      "inputs": [
        {
          "internalType": "bytes32",
          "name": "",
          "type": "bytes32"
        },
        {
          "internalType": "address",
          "name": "_addr",
          "type": "address"
        }
      ],
      "name": "canImplementInterfaceForAddress",
      "outputs": [
        {
          "internalType": "bytes32",
          "name": "",
          "type": "bytes32"
        }
      ],
      "stateMutability": "view",
      "type": "function"
    },
    {
      "inputs": [],
      "name": "clone",
      "outputs": [
        {
          "internalType": "address",
          "name": "",
          "type": "address"
        }
      ],
      "stateMutability": "nonpayable",
      "type": "function"
    },
    {
      "inputs": [],
      "name": "currentGeneration",
      "outputs": [
        {
          "internalType": "uint256",
          "name": "",
          "type": "uint256"
        }
      ],
      "stateMutability": "view",
      "type": "function"
    },
    {
      "inputs": [],
      "name": "ecoToken",
      "outputs": [
        {
          "internalType": "contract ECO",
          "name": "",
          "type": "address"
        }
      ],
      "stateMutability": "view",
      "type": "function"
    },
    {
      "inputs": [],
      "name": "implementation",
      "outputs": [
        {
          "internalType": "address",
          "name": "_impl",
          "type": "address"
        }
      ],
      "stateMutability": "view",
      "type": "function"
    },
    {
      "inputs": [],
      "name": "inflationImpl",
      "outputs": [
        {
          "internalType": "contract Inflation",
          "name": "",
          "type": "address"
        }
      ],
      "stateMutability": "view",
      "type": "function"
    },
    {
      "inputs": [],
      "name": "inflationRootHashProposalImpl",
      "outputs": [
        {
          "internalType": "contract InflationRootHashProposal",
          "name": "",
          "type": "address"
        }
      ],
      "stateMutability": "view",
      "type": "function"
    },
    {
      "inputs": [
        {
          "internalType": "address",
          "name": "",
          "type": "address"
        }
      ],
      "name": "isLockup",
      "outputs": [
        {
          "internalType": "bool",
          "name": "",
          "type": "bool"
        }
      ],
      "stateMutability": "view",
      "type": "function"
    },
    {
      "inputs": [],
      "name": "lockupImpl",
      "outputs": [
        {
          "internalType": "contract Lockup",
          "name": "",
          "type": "address"
        }
      ],
      "stateMutability": "view",
      "type": "function"
    },
    {
      "inputs": [
        {
          "internalType": "uint256",
          "name": "",
          "type": "uint256"
        }
      ],
      "name": "lockups",
      "outputs": [
        {
          "internalType": "contract Lockup",
          "name": "",
          "type": "address"
        }
      ],
      "stateMutability": "view",
      "type": "function"
    },
    {
      "inputs": [],
      "name": "policy",
      "outputs": [
        {
          "internalType": "contract Policy",
          "name": "",
          "type": "address"
        }
      ],
      "stateMutability": "view",
      "type": "function"
    },
    {
      "inputs": [
        {
          "internalType": "address",
          "name": "_delegate",
          "type": "address"
        },
        {
          "internalType": "bytes",
          "name": "_data",
          "type": "bytes"
        }
      ],
      "name": "policyCommand",
      "outputs": [],
      "stateMutability": "nonpayable",
      "type": "function"
    },
    {
      "inputs": [
        {
          "internalType": "uint256",
          "name": "",
          "type": "uint256"
        }
      ],
      "name": "rootHashAddressPerGeneration",
      "outputs": [
        {
          "internalType": "contract InflationRootHashProposal",
          "name": "",
          "type": "address"
        }
      ],
      "stateMutability": "view",
      "type": "function"
    },
    {
      "inputs": [
        {
          "internalType": "address",
          "name": "_addr",
          "type": "address"
        }
      ],
      "name": "setExpectedInterfaceSet",
      "outputs": [],
      "stateMutability": "nonpayable",
      "type": "function"
    },
    {
      "inputs": [
        {
          "internalType": "address",
          "name": "_self",
          "type": "address"
        }
      ],
      "name": "initialize",
      "outputs": [],
      "stateMutability": "nonpayable",
      "type": "function"
    },
    {
      "inputs": [],
      "name": "notifyGenerationIncrease",
      "outputs": [],
      "stateMutability": "nonpayable",
      "type": "function"
    },
    {
      "inputs": [
        {
          "internalType": "address",
          "name": "_withdrawer",
          "type": "address"
        },
        {
          "internalType": "uint256",
          "name": "_amount",
          "type": "uint256"
        },
        {
          "internalType": "bool",
          "name": "_penalty",
          "type": "bool"
        }
      ],
      "name": "lockupWithdrawal",
      "outputs": [],
      "stateMutability": "nonpayable",
      "type": "function"
    }
  ],
  "bytecode": "0x60c06040523480156200001157600080fd5b5060405162001e9338038062001e938339810160408190526200003491620001c3565b8580620000413062000119565b6001600160a01b03908116608052604051635df8122f60e01b81523060048201529082166024820152731820a4b7618bde71dce8cdc73aab6c95905fad2490635df8122f90604401600060405180830381600087803b158015620000a457600080fd5b505af1158015620000b9573d6000803e3d6000fd5b5050600180546001600160a01b03199081166001600160a01b039a8b1617909155600280548216988a16989098179097555050600380548616948716949094179093556004805490941691851691909117909255501660a0525062000257565b6001600160a01b0381166200013b60008051602062001e738339815191525490565b6001600160a01b03161415620001975760405162461bcd60e51b815260206004820152601f60248201527f496d706c656d656e746174696f6e20616c7265616479206d61746368696e6700604482015260640160405180910390fd5b60008051602062001e7383398151915255565b6001600160a01b0381168114620001c057600080fd5b50565b60008060008060008060c08789031215620001dd57600080fd5b8651620001ea81620001aa565b6020880151909650620001fd81620001aa565b60408801519095506200021081620001aa565b60608801519094506200022381620001aa565b60808801519093506200023681620001aa565b60a08801519092506200024981620001aa565b809150509295509295509295565b60805160a051611bb7620002bc600039600081816101d201528181610cdc0152818161107e01526110fd015260008181610120015281816102ff015281816104a101528181610a7201528181610f410152818161148d01526115d60152611bb76000f3fe608060405234801561001057600080fd5b50600436106101165760003560e01c80638ddb428a116100a2578063a3ff3e7611610071578063a3ff3e761461025f578063b39572f014610288578063c4d66de81461029b578063d3565c4c146102ae578063fefa7d1c146102c157600080fd5b80638ddb428a146102075780638e6f4fb7146102105780639d6103e714610239578063a35b7c6a1461024c57600080fd5b806335bbc7fe116100e957806335bbc7fe1461019d57806339634e0c146101a55780635c60da1b146101b8578063705d5304146101cd5780638aae9c88146101f457600080fd5b80630505c8c91461011b57806309d7f23b1461015f57806309ed460714610174578063249cb3fa1461017c575b600080fd5b6101427f000000000000000000000000000000000000000000000000000000000000000081565b6040516001600160a01b0390911681526020015b60405180910390f35b61017261016d3660046118f3565b6102f4565b005b6101426103b2565b61018f61018a3660046119b7565b61049d565b604051908152602001610156565b6101726105a8565b6101726101b33660046119e7565b610f36565b600080516020611b6283398151915254610142565b6101427f000000000000000000000000000000000000000000000000000000000000000081565b600254610142906001600160a01b031681565b61018f60065481565b61014261021e366004611a0b565b6007602052600090815260409020546001600160a01b031681565b600454610142906001600160a01b031681565b600154610142906001600160a01b031681565b61014261026d366004611a0b565b6005602052600090815260409020546001600160a01b031681565b610172610296366004611a32565b610fe7565b6101726102a93660046119e7565b61112c565b600354610142906001600160a01b031681565b6102e46102cf3660046119e7565b60086020526000908152604090205460ff1681565b6040519015158152602001610156565b336001600160a01b037f000000000000000000000000000000000000000000000000000000000000000016146103885760405162461bcd60e51b815260206004820152602e60248201527f4f6e6c792074686520706f6c69637920636f6e7472616374206d61792063616c60448201526d36103a3434b99036b2ba3437b21760911b60648201526084015b60405180910390fd5b600080825160208401855af43d806000803e8180156103a657816000f35b816000fd5b5050505050565b6000306103cb600080516020611b628339815191525490565b6001600160a01b0316146104305760405162461bcd60e51b815260206004820152602660248201527f54686973206d6574686f642063616e6e6f742062652063616c6c6564206f6e20604482015265636c6f6e657360d01b606482015260840161037f565b600061043b3061140d565b60405163189acdbd60e31b81523060048201529091506001600160a01b0382169063c4d66de890602401600060405180830381600087803b15801561047f57600080fd5b505af1158015610493573d6000803e3d6000fd5b5092949350505050565b60007f00000000000000000000000000000000000000000000000000000000000000006001600160a01b0316826001600160a01b031614806104ec57506000546001600160a01b038381169116145b61055e5760405162461bcd60e51b815260206004820152603c60248201527f4f6e6c792074686520706f6c696379206f7220696e7465726661636520636f6e60448201527f74726163742063616e207365742074686520696e746572666163652e00000000606482015260840161037f565b6040517f455243313832305f4143434550545f4d41474943000000000000000000000000602082015260340160405160208183030381529060405280519060200120905092915050565b60065460006105d67fae30bfb87dec2bd0c16be9790f95842d84f58dc70b0a8f6ed22e9556176a7b19611476565b6001600160a01b031663172195226040518163ffffffff1660e01b815260040160206040518083038186803b15801561060e57600080fd5b505afa158015610622573d6000803e3d6000fd5b505050506040513d601f19601f820116820180604052508101906106469190611a74565b9050818114156106985760405162461bcd60e51b815260206004820152601c60248201527f47656e65726174696f6e20686173206e6f7420696e6372656173656400000000604482015260640161037f565b600681905560006106c87fe4ee44a5d338a8b2452cc9552ec014656668eaacb55683101b7e1c2b167e5225611476565b905060008080806001600160a01b038516156109ac576003856001600160a01b031663c040e6b86040518163ffffffff1660e01b815260040160206040518083038186803b15801561071957600080fd5b505afa15801561072d573d6000803e3d6000fd5b505050506040513d601f19601f820116820180604052508101906107519190611a8d565b600481111561076257610762611aae565b60ff1610156107bf57846001600160a01b031663c062f5786040518163ffffffff1660e01b8152600401600060405180830381600087803b1580156107a657600080fd5b505af11580156107ba573d6000803e3d6000fd5b505050505b846001600160a01b031663c040e6b86040518163ffffffff1660e01b815260040160206040518083038186803b1580156107f857600080fd5b505afa15801561080c573d6000803e3d6000fd5b505050506040513d601f19601f820116820180604052508101906108309190611a8d565b600481111561084157610841611aae565b60ff16600314156108a057846001600160a01b0316631a43c3386040518163ffffffff1660e01b8152600401600060405180830381600087803b15801561088757600080fd5b505af115801561089b573d6000803e3d6000fd5b505050505b6000856001600160a01b031663dfbf53ae6040518163ffffffff1660e01b815260040160206040518083038186803b1580156108db57600080fd5b505afa1580156108ef573d6000803e3d6000fd5b505050506040513d601f19601f820116820180604052508101906109139190611ac4565b90506001600160a01b038116156109aa57604051633341b44560e01b81526001600160a01b038281166004830152871690633341b4459060240160c06040518083038186803b15801561096557600080fd5b505afa158015610979573d6000803e3d6000fd5b505050506040513d601f19601f8201168201806040525081019061099d9190611ae1565b5092985090965094509250505b505b600154604080516309ed460760e01b815290516000926001600160a01b0316916309ed460791600480830192602092919082900301818787803b1580156109f257600080fd5b505af1158015610a06573d6000803e3d6000fd5b505050506040513d601f19601f82011682018060405250810190610a2a9190611ac4565b6040516343c8dfc160e11b81527fe4ee44a5d338a8b2452cc9552ec014656668eaacb55683101b7e1c2b167e522560048201526001600160a01b0380831660248301529192507f000000000000000000000000000000000000000000000000000000000000000090911690638791bf8290604401600060405180830381600087803b158015610ab857600080fd5b505af1158015610acc573d6000803e3d6000fd5b50506040516001600160a01b03841692507fc8eb0807f29c19b6e62a59d50366b51bb80db9e416bf2da72a9e2ba62ced5c539150600090a25060048054604080516309ed460760e01b815290516001600160a01b03909216926309ed46079282820192602092908290030181600087803b158015610b4957600080fd5b505af1158015610b5d573d6000803e3d6000fd5b505050506040513d601f19601f82011682018060405250810190610b819190611ac4565b6000888152600560205260409081902080546001600160a01b0319166001600160a01b0393909316928317905551630f592f0560e11b8152436004820152631eb25e0a90602401600060405180830381600087803b158015610be257600080fd5b505af1158015610bf6573d6000803e3d6000fd5b5050506000888152600560205260408082205490518a93506001600160a01b03909116917f0a3629586ef6a0798366c51fcd43da8ba2b23d884d78a61f1c69b48139c4e07c91a3600084118015610c4d5750600083115b15610e1957600254604080516309ed460760e01b815290516000926001600160a01b0316916309ed460791600480830192602092919082900301818787803b158015610c9857600080fd5b505af1158015610cac573d6000803e3d6000fd5b505050506040513d601f19601f82011682018060405250810190610cd09190611ac4565b90506001600160a01b037f0000000000000000000000000000000000000000000000000000000000000000166340c10f1982610d0c8789611b34565b6040517fffffffff0000000000000000000000000000000000000000000000000000000060e085901b1681526001600160a01b0390921660048301526024820152604401600060405180830381600087803b158015610d6a57600080fd5b505af1158015610d7e573d6000803e3d6000fd5b505060405163d7f5938f60e01b815260048101889052602481018790526001600160a01b038416925063d7f5938f9150604401600060405180830381600087803b158015610dcb57600080fd5b505af1158015610ddf573d6000803e3d6000fd5b50506040516001600160a01b03841692507fff48288c21e2e06ac506925900264a71dee49de84c7530e0b1a2d8770d967ddc9150600090a2505b600082118015610e295750600081115b15610f2d5760035460405163442dbdc360e01b815260048101849052602481018390526000916001600160a01b03169063442dbdc390604401602060405180830381600087803b158015610e7c57600080fd5b505af1158015610e90573d6000803e3d6000fd5b505050506040513d601f19601f82011682018060405250810190610eb49190611ac4565b6040519091506001600160a01b038216907fd1d86750540c7c58007ae3b2e9f614bb14361dbe04299875ebca9adc014841cf90600090a2600087815260076020908152604080832080546001600160a01b039095166001600160a01b0319909516851790559282526008905220805460ff191660011790555b50505050505050565b336001600160a01b037f00000000000000000000000000000000000000000000000000000000000000001614610fc55760405162461bcd60e51b815260206004820152602e60248201527f4f6e6c792074686520706f6c69637920636f6e7472616374206d61792063616c60448201526d36103a3434b99036b2ba3437b21760911b606482015260840161037f565b600080546001600160a01b0319166001600160a01b0392909216919091179055565b3360009081526008602052604090205460ff166110525760405162461bcd60e51b8152602060048201526024808201527f4e6f7420617574686f72697a656420746f2063616c6c20746869732066756e636044820152633a34b7b760e11b606482015260840161037f565b80156110d757604051632770a7eb60e21b81526001600160a01b038481166004830152602482018490527f00000000000000000000000000000000000000000000000000000000000000001690639dc29fac906044015b600060405180830381600087803b1580156110c357600080fd5b505af1158015610f2d573d6000803e3d6000fd5b6040516340c10f1960e01b81526001600160a01b038481166004830152602482018490527f000000000000000000000000000000000000000000000000000000000000000016906340c10f19906044016110a9565b6000611144600080516020611b628339815191525490565b6001600160a01b0316146111ab5760405162461bcd60e51b815260206004820152602860248201527f43616e206f6e6c792062652063616c6c656420647572696e6720696e697469616044820152673634bd30ba34b7b760c11b606482015260840161037f565b6111b481611531565b806001600160a01b031663a35b7c6a6040518163ffffffff1660e01b815260040160206040518083038186803b1580156111ed57600080fd5b505afa158015611201573d6000803e3d6000fd5b505050506040513d601f19601f820116820180604052508101906112259190611ac4565b600160006101000a8154816001600160a01b0302191690836001600160a01b03160217905550806001600160a01b0316638aae9c886040518163ffffffff1660e01b815260040160206040518083038186803b15801561128457600080fd5b505afa158015611298573d6000803e3d6000fd5b505050506040513d601f19601f820116820180604052508101906112bc9190611ac4565b600260006101000a8154816001600160a01b0302191690836001600160a01b03160217905550806001600160a01b031663d3565c4c6040518163ffffffff1660e01b815260040160206040518083038186803b15801561131b57600080fd5b505afa15801561132f573d6000803e3d6000fd5b505050506040513d601f19601f820116820180604052508101906113539190611ac4565b600360006101000a8154816001600160a01b0302191690836001600160a01b03160217905550806001600160a01b0316639d6103e76040518163ffffffff1660e01b815260040160206040518083038186803b1580156113b257600080fd5b505afa1580156113c6573d6000803e3d6000fd5b505050506040513d601f19601f820116820180604052508101906113ea9190611ac4565b600480546001600160a01b0319166001600160a01b039290921691909117905550565b6000808260601b90506040517f3d602d80600a3d3981f3363d3d373d3d3d363d7300000000000000000000000081528160148201527f5af43d82803e903d91602b57fd5bf3000000000000000000000000000000000060288201526037816000f0949350505050565b60405163555ddc6560e11b81526001600160a01b037f000000000000000000000000000000000000000000000000000000000000000016600482015260248101829052600090731820a4b7618bde71dce8cdc73aab6c95905fad249063aabbb8ca9060440160206040518083038186803b1580156114f357600080fd5b505afa158015611507573d6000803e3d6000fd5b505050506040513d601f19601f8201168201806040525081019061152b9190611ac4565b92915050565b6000611549600080516020611b628339815191525490565b6001600160a01b0316146115b05760405162461bcd60e51b815260206004820152602860248201527f43616e206f6e6c792062652063616c6c656420647572696e6720696e697469616044820152673634bd30ba34b7b760c11b606482015260840161037f565b6115b981611648565b604051635df8122f60e01b81523060048201526001600160a01b037f0000000000000000000000000000000000000000000000000000000000000000166024820152731820a4b7618bde71dce8cdc73aab6c95905fad2490635df8122f90604401600060405180830381600087803b15801561163457600080fd5b505af11580156103ab573d6000803e3d6000fd5b6000611660600080516020611b628339815191525490565b6001600160a01b0316146116c75760405162461bcd60e51b815260206004820152602860248201527f43616e206f6e6c792062652063616c6c656420647572696e6720696e697469616044820152673634bd30ba34b7b760c11b606482015260840161037f565b6116d0816116d3565b50565b60006116eb600080516020611b628339815191525490565b6001600160a01b0316146117525760405162461bcd60e51b815260206004820152602860248201527f43616e206f6e6c792062652063616c6c656420647572696e6720696e697469616044820152673634bd30ba34b7b760c11b606482015260840161037f565b6000816001600160a01b0316635c60da1b6040518163ffffffff1660e01b815260040160206040518083038186803b15801561178d57600080fd5b505afa1580156117a1573d6000803e3d6000fd5b505050506040513d601f19601f820116820180604052508101906117c59190611ac4565b90506001600160a01b0381166118325760405162461bcd60e51b815260206004820152602c60248201527f696e697469616c697a6174696f6e206661696c7572653a206e6f7468696e672060448201526b1d1bc81a5b5c1b195b595b9d60a21b606482015260840161037f565b61183b8161183f565b5050565b806001600160a01b031661185f600080516020611b628339815191525490565b6001600160a01b031614156118b65760405162461bcd60e51b815260206004820152601f60248201527f496d706c656d656e746174696f6e20616c7265616479206d61746368696e6700604482015260640161037f565b600080516020611b6283398151915255565b6001600160a01b03811681146116d057600080fd5b634e487b7160e01b600052604160045260246000fd5b6000806040838503121561190657600080fd5b8235611911816118c8565b9150602083013567ffffffffffffffff8082111561192e57600080fd5b818501915085601f83011261194257600080fd5b813581811115611954576119546118dd565b604051601f8201601f19908116603f0116810190838211818310171561197c5761197c6118dd565b8160405282815288602084870101111561199557600080fd5b8260208601602083013760006020848301015280955050505050509250929050565b600080604083850312156119ca57600080fd5b8235915060208301356119dc816118c8565b809150509250929050565b6000602082840312156119f957600080fd5b8135611a04816118c8565b9392505050565b600060208284031215611a1d57600080fd5b5035919050565b80151581146116d057600080fd5b600080600060608486031215611a4757600080fd5b8335611a52816118c8565b9250602084013591506040840135611a6981611a24565b809150509250925092565b600060208284031215611a8657600080fd5b5051919050565b600060208284031215611a9f57600080fd5b815160058110611a0457600080fd5b634e487b7160e01b600052602160045260246000fd5b600060208284031215611ad657600080fd5b8151611a04816118c8565b60008060008060008060c08789031215611afa57600080fd5b8651611b0581611a24565b6020880151604089015160608a015160808b015160a0909b0151939c929b509099909850965090945092505050565b6000816000190483118215151615611b5c57634e487b7160e01b600052601160045260246000fd5b50029056fef86c915dad5894faca0dfa067c58fdf4307406d255ed0a65db394f82b77f53d4a2646970667358221220faf8b11fcec92d70ffd99f4b4d161107d0d3e2d4600abd4efedff7f4e5432e0264736f6c63430008090033f86c915dad5894faca0dfa067c58fdf4307406d255ed0a65db394f82b77f53d4",
  "immutableReferences": {
    "7983": [
      {
        "length": 32,
        "start": 466
      },
      {
        "length": 32,
        "start": 3292
      },
      {
        "length": 32,
        "start": 4222
      },
      {
        "length": 32,
        "start": 4349
      }
    ],
    "12039": [
      {
        "length": 32,
        "start": 288
      },
      {
        "length": 32,
        "start": 767
      },
      {
        "length": 32,
        "start": 1185
      },
      {
        "length": 32,
        "start": 2674
      },
      {
        "length": 32,
        "start": 3905
      },
      {
        "length": 32,
        "start": 5261
      },
      {
        "length": 32,
        "start": 5590
      }
    ]
  },
  "source": "// SPDX-License-Identifier: MIT\npragma solidity ^0.8.0;\n\nimport \"../policy/PolicedUtils.sol\";\nimport \"../policy/Policy.sol\";\nimport \"./PolicyProposals.sol\";\nimport \"./CurrencyGovernance.sol\";\nimport \"../currency/InflationRootHashProposal.sol\";\nimport \"../utils/TimeUtils.sol\";\nimport \"./IGenerationIncrease.sol\";\nimport \"./IGeneration.sol\";\nimport \"./Lockup.sol\";\nimport \"./Inflation.sol\";\nimport \"./ILockups.sol\";\nimport \"../currency/ECO.sol\";\n\n/** @title TimedPolicies\n * Oversees the time-based recurring processes that allow governance of the\n * Eco currency.\n */\ncontract CurrencyTimer is PolicedUtils, IGenerationIncrease, ILockups {\n    /** The on-chain address for the currency voting contract. This contract is\n     * cloned for each new currency vote.\n     */\n    CurrencyGovernance public bordaImpl;\n\n    Inflation public inflationImpl;\n    Lockup public lockupImpl;\n\n    InflationRootHashProposal public inflationRootHashProposalImpl;\n\n    // the ECO contract address\n    ECO public immutable ecoToken;\n\n    mapping(uint256 => InflationRootHashProposal)\n        public rootHashAddressPerGeneration;\n\n    /* Current generation of the balance store. */\n    uint256 public currentGeneration;\n\n    mapping(uint256 => Lockup) public override lockups;\n    mapping(address => bool) public isLockup;\n\n    event NewInflation(Inflation indexed addr);\n    event NewLockup(Lockup indexed addr);\n    event NewCurrencyGovernance(CurrencyGovernance indexed addr);\n\n    /* Event to be emitted when InflationRootHashProposal contract spawned.\n     */\n    event NewInflationRootHashProposal(\n        InflationRootHashProposal indexed inflationRootHashProposalContract,\n        uint256 indexed generation\n    );\n\n    constructor(\n        Policy _policy,\n        CurrencyGovernance _borda,\n        Inflation _inflation,\n        Lockup _lockup,\n        InflationRootHashProposal _inflationRootHashProposal,\n        ECO _ecoAddr\n    ) PolicedUtils(_policy) {\n        bordaImpl = _borda;\n        inflationImpl = _inflation;\n        lockupImpl = _lockup;\n        inflationRootHashProposalImpl = _inflationRootHashProposal;\n        ecoToken = _ecoAddr;\n    }\n\n    function initialize(address _self) public override onlyConstruction {\n        super.initialize(_self);\n\n        // all of these values are better left mutable to allow for easier governance\n        bordaImpl = CurrencyTimer(_self).bordaImpl();\n        inflationImpl = CurrencyTimer(_self).inflationImpl();\n        lockupImpl = CurrencyTimer(_self).lockupImpl();\n        inflationRootHashProposalImpl = CurrencyTimer(_self)\n            .inflationRootHashProposalImpl();\n    }\n\n    function notifyGenerationIncrease() external override {\n        uint256 _old = currentGeneration;\n        uint256 _new = IGeneration(policyFor(ID_TIMED_POLICIES)).generation();\n        require(_new != _old, \"Generation has not increased\");\n\n        currentGeneration = _new;\n\n        CurrencyGovernance bg = CurrencyGovernance(\n            policyFor(ID_CURRENCY_GOVERNANCE)\n        );\n\n        uint256 _numberOfRecipients = 0;\n        uint256 _randomInflationReward = 0;\n        uint256 _lockupDuration = 0;\n        uint256 _lockupInterest = 0;\n\n        if (address(bg) != address(0)) {\n            if (uint8(bg.stage()) < 3) {\n                bg.updateStage();\n            }\n            if (uint8(bg.stage()) == 3) {\n                bg.compute();\n            }\n            address winner = bg.winner();\n            if (winner != address(0)) {\n                (\n                    ,\n                    _numberOfRecipients,\n                    _randomInflationReward,\n                    _lockupDuration,\n                    _lockupInterest,\n\n                ) = bg.proposals(winner);\n            }\n        }\n\n        {\n            CurrencyGovernance _clone = CurrencyGovernance(bordaImpl.clone());\n            policy.setPolicy(ID_CURRENCY_GOVERNANCE, address(_clone));\n            emit NewCurrencyGovernance(_clone);\n        }\n\n        // new root hash\n        // better tests could allow this to only need to be done in the next if statement\n        rootHashAddressPerGeneration[_old] = InflationRootHashProposal(\n            inflationRootHashProposalImpl.clone()\n        );\n        rootHashAddressPerGeneration[_old].configure(block.number);\n\n        emit NewInflationRootHashProposal(\n            rootHashAddressPerGeneration[_old],\n            _old\n        );\n\n        if (_numberOfRecipients > 0 && _randomInflationReward > 0) {\n            // new inflation contract\n            Inflation _clone = Inflation(inflationImpl.clone());\n            ecoToken.mint(\n                address(_clone),\n                _numberOfRecipients * _randomInflationReward\n            );\n            _clone.startInflation(_numberOfRecipients, _randomInflationReward);\n            emit NewInflation(_clone);\n        }\n\n        if (_lockupDuration > 0 && _lockupInterest > 0) {\n            Lockup lockup = Lockup(\n                lockupImpl.clone(_lockupDuration, _lockupInterest)\n            );\n            emit NewLockup(lockup);\n            lockups[_new] = lockup;\n            isLockup[address(lockup)] = true;\n        }\n    }\n\n    function lockupWithdrawal(\n        address _withdrawer,\n        uint256 _amount,\n        bool _penalty\n    ) external {\n        require(isLockup[msg.sender], \"Not authorized to call this function\");\n\n        if (_penalty) {\n            ecoToken.burn(_withdrawer, _amount);\n        } else {\n            ecoToken.mint(_withdrawer, _amount);\n        }\n    }\n}\n",
  "sourcePath": "/Users/dirksmac/dev/eco/currency/contracts/governance/CurrencyTimer.sol",
  "compiler": {
    "name": "solc",
    "version": "0.8.9+commit.e5eed63a.Emscripten.clang"
  },
  "schemaVersion": "3.4.3",
  "updatedAt": "2022-07-01T19:00:50.507Z",
  "devdoc": {
    "kind": "dev",
    "methods": {
      "canImplementInterfaceForAddress(bytes32,address)": {
        "params": {
          "_addr": "The address of the contract we might act on behalf of."
        }
      },
      "initialize(address)": {
        "params": {
          "_self": "The address of the original contract deployment (as opposed              to the address of the proxy contract, which takes the place              of `this`)."
        }
      },
      "policyCommand(address,bytes)": {
        "params": {
          "_data": "The call message/data to execute on.",
          "_delegate": "The address of the contract to delegate execution to."
        }
      }
    },
    "title": "TimedPolicies Oversees the time-based recurring processes that allow governance of the Eco currency.",
    "version": 1
  },
  "userdoc": {
    "kind": "user",
    "methods": {
      "bordaImpl()": {
        "notice": "The on-chain address for the currency voting contract. This contract is cloned for each new currency vote."
      },
      "canImplementInterfaceForAddress(bytes32,address)": {
        "notice": "ERC1820 permissioning interface"
      },
      "clone()": {
        "notice": "Create a clone of this contract Creates a clone of this contract by instantiating a proxy at a new address and initializing it based on the current contract. Uses optionality.io's CloneFactory functionality. This is used to save gas cost during deployments. Rather than including the full contract code in every contract that might instantiate it we can deploy it once and reference the location it was deployed to. Then calls to clone() can be used to create instances as needed without increasing the code size of the instantiating contract."
      },
      "implementation()": {
        "notice": "Get the address of the proxy target contract."
      },
      "initialize(address)": {
        "notice": "Initialize the contract (replaces constructor) See documentation for Policed for an explanation."
      },
      "policy()": {
        "notice": "The address of the root policy instance overseeing this instance. This address can be used for ERC1820 lookup of other components, ERC1820 lookup of role policies, and interaction with the policy hierarchy."
      },
      "policyCommand(address,bytes)": {
        "notice": "Execute code as indicated by the managing policy contract We allow the managing policy contract to execute arbitrary code in our context by allowing it to specify an implementation address and some message data, and then using delegatecall to execute the code at the implementation address, passing in the message data, all within our own address space."
      },
      "setExpectedInterfaceSet(address)": {
        "notice": "Set the expected interface set"
      }
    },
    "version": 1
  }
}