{
  "_format": "hh-sol-artifact-1",
  "contractName": "CurrencyGovernance",
  "sourceName": "contracts/governance/monetary/CurrencyGovernance.sol",
  "abi": [
    {
      "inputs": [
        {
          "internalType": "contract Policy",
          "name": "_policy",
          "type": "address"
        },
        {
          "internalType": "address",
          "name": "_initialPauser",
          "type": "address"
        }
      ],
      "stateMutability": "nonpayable",
      "type": "constructor"
    },
    {
      "anonymous": false,
      "inputs": [
        {
          "indexed": false,
          "internalType": "address",
          "name": "account",
          "type": "address"
        }
      ],
      "name": "Paused",
      "type": "event"
    },
    {
      "anonymous": false,
      "inputs": [
        {
          "indexed": true,
          "internalType": "address",
          "name": "pauser",
          "type": "address"
        }
      ],
      "name": "PauserAssignment",
      "type": "event"
    },
    {
      "anonymous": false,
      "inputs": [
        {
          "indexed": true,
          "internalType": "address",
          "name": "trusteeAddress",
          "type": "address"
        },
        {
          "indexed": false,
          "internalType": "uint256",
          "name": "_numberOfRecipients",
          "type": "uint256"
        },
        {
          "indexed": false,
          "internalType": "uint256",
          "name": "_randomInflationReward",
          "type": "uint256"
        },
        {
          "indexed": false,
          "internalType": "uint256",
          "name": "_lockupDuration",
          "type": "uint256"
        },
        {
          "indexed": false,
          "internalType": "uint256",
          "name": "_lockupInterest",
          "type": "uint256"
        },
        {
          "indexed": false,
          "internalType": "uint256",
          "name": "_inflationMultiplier",
          "type": "uint256"
        },
        {
          "indexed": false,
          "internalType": "string",
          "name": "_description",
          "type": "string"
        }
      ],
      "name": "ProposalCreation",
      "type": "event"
    },
    {
      "anonymous": false,
      "inputs": [
        {
          "indexed": true,
          "internalType": "address",
          "name": "trustee",
          "type": "address"
        }
      ],
      "name": "ProposalRetraction",
      "type": "event"
    },
    {
      "anonymous": false,
      "inputs": [],
      "name": "RevealStart",
      "type": "event"
    },
    {
      "anonymous": false,
      "inputs": [
        {
          "indexed": false,
          "internalType": "address",
          "name": "account",
          "type": "address"
        }
      ],
      "name": "Unpaused",
      "type": "event"
    },
    {
      "anonymous": false,
      "inputs": [
        {
          "indexed": true,
          "internalType": "address",
          "name": "trustee",
          "type": "address"
        }
      ],
      "name": "VoteCast",
      "type": "event"
    },
    {
      "anonymous": false,
      "inputs": [
        {
          "indexed": true,
          "internalType": "address",
          "name": "winner",
          "type": "address"
        }
      ],
      "name": "VoteResult",
      "type": "event"
    },
    {
      "anonymous": false,
      "inputs": [
        {
          "indexed": true,
          "internalType": "address",
          "name": "voter",
          "type": "address"
        },
        {
          "components": [
            {
              "internalType": "address",
              "name": "proposal",
              "type": "address"
            },
            {
              "internalType": "uint256",
              "name": "score",
              "type": "uint256"
            }
          ],
          "indexed": false,
          "internalType": "struct CurrencyGovernance.Vote[]",
          "name": "votes",
          "type": "tuple[]"
        }
      ],
      "name": "VoteReveal",
      "type": "event"
    },
    {
      "anonymous": false,
      "inputs": [],
      "name": "VoteStart",
      "type": "event"
    },
    {
      "inputs": [],
      "name": "GENERATION_START",
      "outputs": [
        {
          "internalType": "uint256",
          "name": "",
          "type": "uint256"
        }
      ],
      "stateMutability": "view",
      "type": "function"
    },
    {
      "inputs": [],
      "name": "IDEMPOTENT_INFLATION_MULTIPLIER",
      "outputs": [
        {
          "internalType": "uint256",
          "name": "",
          "type": "uint256"
        }
      ],
      "stateMutability": "view",
      "type": "function"
    },
    {
      "inputs": [],
      "name": "MAX_DATA",
      "outputs": [
        {
          "internalType": "uint256",
          "name": "",
          "type": "uint256"
        }
      ],
      "stateMutability": "view",
      "type": "function"
    },
    {
      "inputs": [],
      "name": "MIN_GENERATION_DURATION",
      "outputs": [
        {
          "internalType": "uint256",
          "name": "",
          "type": "uint256"
        }
      ],
      "stateMutability": "view",
      "type": "function"
    },
    {
      "inputs": [],
      "name": "PROPOSAL_TIME",
      "outputs": [
        {
          "internalType": "uint256",
          "name": "",
          "type": "uint256"
        }
      ],
      "stateMutability": "view",
      "type": "function"
    },
    {
      "inputs": [],
      "name": "REVEAL_TIME",
      "outputs": [
        {
          "internalType": "uint256",
          "name": "",
          "type": "uint256"
        }
      ],
      "stateMutability": "view",
      "type": "function"
    },
    {
      "inputs": [],
      "name": "VOTING_TIME",
      "outputs": [
        {
          "internalType": "uint256",
          "name": "",
          "type": "uint256"
        }
      ],
      "stateMutability": "view",
      "type": "function"
    },
    {
      "inputs": [
        {
          "internalType": "bytes32",
          "name": "",
          "type": "bytes32"
        },
        {
          "internalType": "address",
          "name": "_addr",
          "type": "address"
        }
      ],
      "name": "canImplementInterfaceForAddress",
      "outputs": [
        {
          "internalType": "bytes32",
          "name": "",
          "type": "bytes32"
        }
      ],
      "stateMutability": "view",
      "type": "function"
    },
    {
      "inputs": [],
      "name": "clone",
      "outputs": [
        {
          "internalType": "address",
          "name": "",
          "type": "address"
        }
      ],
      "stateMutability": "nonpayable",
      "type": "function"
    },
    {
      "inputs": [
        {
          "internalType": "bytes32",
          "name": "_commitment",
          "type": "bytes32"
        }
      ],
      "name": "commit",
      "outputs": [],
      "stateMutability": "nonpayable",
      "type": "function"
    },
    {
      "inputs": [
        {
          "internalType": "address",
          "name": "",
          "type": "address"
        }
      ],
      "name": "commitments",
      "outputs": [
        {
          "internalType": "bytes32",
          "name": "",
          "type": "bytes32"
        }
      ],
      "stateMutability": "view",
      "type": "function"
    },
    {
      "inputs": [],
      "name": "compute",
      "outputs": [],
      "stateMutability": "nonpayable",
      "type": "function"
    },
    {
      "inputs": [],
      "name": "currentStage",
      "outputs": [
        {
          "internalType": "enum CurrencyGovernance.Stage",
          "name": "",
          "type": "uint8"
        }
      ],
      "stateMutability": "view",
      "type": "function"
    },
    {
      "inputs": [],
      "name": "implementation",
      "outputs": [
        {
          "internalType": "address",
          "name": "_impl",
          "type": "address"
        }
      ],
      "stateMutability": "view",
      "type": "function"
    },
    {
      "inputs": [
        {
          "internalType": "address",
          "name": "_self",
          "type": "address"
        }
      ],
      "name": "initialize",
      "outputs": [],
      "stateMutability": "nonpayable",
      "type": "function"
    },
    {
      "inputs": [],
      "name": "leader",
      "outputs": [
        {
          "internalType": "address",
          "name": "",
          "type": "address"
        }
      ],
      "stateMutability": "view",
      "type": "function"
    },
    {
      "inputs": [],
      "name": "pause",
      "outputs": [],
      "stateMutability": "nonpayable",
      "type": "function"
    },
    {
      "inputs": [],
      "name": "paused",
      "outputs": [
        {
          "internalType": "bool",
          "name": "",
          "type": "bool"
        }
      ],
      "stateMutability": "view",
      "type": "function"
    },
    {
      "inputs": [],
      "name": "pauser",
      "outputs": [
        {
          "internalType": "address",
          "name": "",
          "type": "address"
        }
      ],
      "stateMutability": "view",
      "type": "function"
    },
    {
      "inputs": [],
      "name": "policy",
      "outputs": [
        {
          "internalType": "contract Policy",
          "name": "",
          "type": "address"
        }
      ],
      "stateMutability": "view",
      "type": "function"
    },
    {
      "inputs": [
        {
          "internalType": "address",
          "name": "_delegate",
          "type": "address"
        },
        {
          "internalType": "bytes",
          "name": "_data",
          "type": "bytes"
        }
      ],
      "name": "policyCommand",
      "outputs": [],
      "stateMutability": "nonpayable",
      "type": "function"
    },
    {
      "inputs": [],
      "name": "proposalEnds",
      "outputs": [
        {
          "internalType": "uint256",
          "name": "",
          "type": "uint256"
        }
      ],
      "stateMutability": "view",
      "type": "function"
    },
    {
      "inputs": [
        {
          "internalType": "address",
          "name": "",
          "type": "address"
        }
      ],
      "name": "proposals",
      "outputs": [
        {
          "internalType": "uint256",
          "name": "numberOfRecipients",
          "type": "uint256"
        },
        {
          "internalType": "uint256",
          "name": "randomInflationReward",
          "type": "uint256"
        },
        {
          "internalType": "uint256",
          "name": "lockupDuration",
          "type": "uint256"
        },
        {
          "internalType": "uint256",
          "name": "lockupInterest",
          "type": "uint256"
        },
        {
          "internalType": "uint256",
          "name": "inflationMultiplier",
          "type": "uint256"
        },
        {
          "internalType": "string",
          "name": "description",
          "type": "string"
        }
      ],
      "stateMutability": "view",
      "type": "function"
    },
    {
      "inputs": [
        {
          "internalType": "uint256",
          "name": "_numberOfRecipients",
          "type": "uint256"
        },
        {
          "internalType": "uint256",
          "name": "_randomInflationReward",
          "type": "uint256"
        },
        {
          "internalType": "uint256",
          "name": "_lockupDuration",
          "type": "uint256"
        },
        {
          "internalType": "uint256",
          "name": "_lockupInterest",
          "type": "uint256"
        },
        {
          "internalType": "uint256",
          "name": "_inflationMultiplier",
          "type": "uint256"
        },
        {
          "internalType": "string",
          "name": "_description",
          "type": "string"
        }
      ],
      "name": "propose",
      "outputs": [],
      "stateMutability": "nonpayable",
      "type": "function"
    },
    {
      "inputs": [
        {
          "internalType": "bytes32",
          "name": "_seed",
          "type": "bytes32"
        },
        {
          "components": [
            {
              "internalType": "address",
              "name": "proposal",
              "type": "address"
            },
            {
              "internalType": "uint256",
              "name": "score",
              "type": "uint256"
            }
          ],
          "internalType": "struct CurrencyGovernance.Vote[]",
          "name": "_votes",
          "type": "tuple[]"
        }
      ],
      "name": "reveal",
      "outputs": [],
      "stateMutability": "nonpayable",
      "type": "function"
    },
    {
      "inputs": [],
      "name": "revealEnds",
      "outputs": [
        {
          "internalType": "uint256",
          "name": "",
          "type": "uint256"
        }
      ],
      "stateMutability": "view",
      "type": "function"
    },
    {
      "inputs": [
        {
          "internalType": "address",
          "name": "",
          "type": "address"
        }
      ],
      "name": "score",
      "outputs": [
        {
          "internalType": "uint256",
          "name": "",
          "type": "uint256"
        }
      ],
      "stateMutability": "view",
      "type": "function"
    },
    {
      "inputs": [
        {
          "internalType": "address",
          "name": "_addr",
          "type": "address"
        }
      ],
      "name": "setExpectedInterfaceSet",
      "outputs": [],
      "stateMutability": "nonpayable",
      "type": "function"
    },
    {
      "inputs": [
        {
          "internalType": "address",
          "name": "_pauser",
          "type": "address"
        }
      ],
      "name": "setPauser",
      "outputs": [],
      "stateMutability": "nonpayable",
      "type": "function"
    },
    {
      "inputs": [],
      "name": "unpause",
      "outputs": [],
      "stateMutability": "nonpayable",
      "type": "function"
    },
    {
      "inputs": [],
      "name": "unpropose",
      "outputs": [],
      "stateMutability": "nonpayable",
      "type": "function"
    },
    {
      "inputs": [],
      "name": "updateStage",
      "outputs": [],
      "stateMutability": "nonpayable",
      "type": "function"
    },
    {
      "inputs": [],
      "name": "votingEnds",
      "outputs": [
        {
          "internalType": "uint256",
          "name": "",
          "type": "uint256"
        }
      ],
      "stateMutability": "view",
      "type": "function"
    },
    {
      "inputs": [],
      "name": "winner",
      "outputs": [
        {
          "internalType": "address",
          "name": "",
          "type": "address"
        }
      ],
      "stateMutability": "view",
      "type": "function"
    }
  ],
  "bytecode": "0x60a06040523480156200001157600080fd5b50604051620035f0380380620035f0833981016040819052620000349162000247565b81806200004130620001a0565b6001600160a01b038116620000c35760405162461bcd60e51b815260206004820152603860248201527f556e7265636f76657261626c653a20646f206e6f74207365742074686520706f60448201527f6c69637920617320746865207a65726f2061646472657373000000000000000060648201526084015b60405180910390fd5b6001600160a01b0381166080819052604051635df8122f60e01b81523060048201526024810191909152731820a4b7618bde71dce8cdc73aab6c95905fad2490635df8122f90604401600060405180830381600087803b1580156200012757600080fd5b505af11580156200013c573d6000803e3d6000fd5b50506000805460ff60a01b19168155600980546001600160a01b0319166001600160a01b0388169081179091556040519095507fc1c43aa8035756476ab2ca6cfd05434a7fd574b0f3b39c7174828b1fb82acd3e94509092509050a2505062000286565b6001600160a01b038116620001c2600080516020620035d08339815191525490565b6001600160a01b031614156200021b5760405162461bcd60e51b815260206004820152601f60248201527f496d706c656d656e746174696f6e20616c7265616479206d61746368696e67006044820152606401620000ba565b600080516020620035d083398151915255565b6001600160a01b03811681146200024457600080fd5b50565b600080604083850312156200025b57600080fd5b825162000268816200022e565b60208401519092506200027b816200022e565b809150509250929050565b608051613304620002cc60003960008181610230015281816105170152818161092001528181610a5e01528181610c56015281816125d8015261279001526133046000f3fe608060405234801561001057600080fd5b50600436106102265760003560e01c80635bf5d54c1161012a5780639fd0506d116100bd578063c4d66de81161008c578063e8fcf72311610071578063e8fcf723146104b9578063f14fcbc8146104d9578063f5274bd5146104ec57600080fd5b8063c4d66de814610486578063dfbf53ae1461049957600080fd5b80639fd0506d1461044d578063a0b0607f1461046d578063af12645a14610475578063c062f5781461047e57600080fd5b80637c33bd02116100f95780637c33bd02146104215780638456cb59146104295780638cb17056146104315780639ae8aa051461043a57600080fd5b80635bf5d54c146103795780635c60da1b146103ac5780635c975abb146103d3578063776f38431461040157600080fd5b80632d913bfb116101bd57806339634e0c1161018c57806340eedabb1161017157806340eedabb14610347578063495d18e214610367578063537299371461037057600080fd5b806339634e0c1461032c5780633f4ba83a1461033f57600080fd5b80632d913bfb146102ed57806332f0b8fa146102f55780633341b445146102fe578063376cf9bf1461032357600080fd5b80631a43c338116101f95780631a43c338146102b6578063249cb3fa146102be578063280ee4ee146102d15780632d88af4a146102da57600080fd5b80630505c8c91461022b57806309d7f23b1461027c57806309ed460714610291578063160cd17914610299575b600080fd5b6102527f000000000000000000000000000000000000000000000000000000000000000081565b60405173ffffffffffffffffffffffffffffffffffffffff90911681526020015b60405180910390f35b61028f61028a366004612ca5565b6104ff565b005b6102526105f3565b6102a8670de0b6b3a764000081565b604051908152602001610273565b61028f610754565b6102a86102cc366004612d6b565b61091c565b6102a860025481565b61028f6102e8366004612d9b565b610a46565b6102a8607881565b6102a861016881565b61031161030c366004612d9b565b610b7a565b60405161027396959493929190612dbf565b6102a860015481565b61028f61033a366004612d9b565b610c3e565b61028f610d4a565b6007546102529073ffffffffffffffffffffffffffffffffffffffff1681565b6102a860035481565b6102a86103e881565b60005461039f907501000000000000000000000000000000000000000000900460ff1681565b6040516102739190612e85565b7ff86c915dad5894faca0dfa067c58fdf4307406d255ed0a65db394f82b77f53d454610252565b60005474010000000000000000000000000000000000000000900460ff166040519015158152602001610273565b6102a861040f366004612d9b565b60066020526000908152604090205481565b61028f610dd5565b61028f610fbb565b6102a861069081565b61028f610448366004612ec6565b611044565b6009546102529073ffffffffffffffffffffffffffffffffffffffff1681565b6102a860a081565b6102a86104b081565b61028f611899565b61028f610494366004612d9b565b611a83565b6008546102529073ffffffffffffffffffffffffffffffffffffffff1681565b6102a86104c7366004612d9b565b60056020526000908152604090205481565b61028f6104e7366004612f45565b611d5a565b61028f6104fa366004612f5e565b611fa2565b3373ffffffffffffffffffffffffffffffffffffffff7f000000000000000000000000000000000000000000000000000000000000000016146105c9576040517f08c379a000000000000000000000000000000000000000000000000000000000815260206004820152602d60248201527f4f6e6c792074686520706f6c69637920636f6e7472616374206d61792063616c60448201527f6c2074686973206d6574686f640000000000000000000000000000000000000060648201526084015b60405180910390fd5b600080825160208401855af43d806000803e8180156105e757816000f35b816000fd5b5050505050565b60003061061e7ff86c915dad5894faca0dfa067c58fdf4307406d255ed0a65db394f82b77f53d45490565b73ffffffffffffffffffffffffffffffffffffffff16146106c1576040517f08c379a000000000000000000000000000000000000000000000000000000000815260206004820152602660248201527f54686973206d6574686f642063616e6e6f742062652063616c6c6564206f6e2060448201527f636c6f6e6573000000000000000000000000000000000000000000000000000060648201526084016105c0565b60006106cc3061233a565b6040517fc4d66de800000000000000000000000000000000000000000000000000000000815230600482015290915073ffffffffffffffffffffffffffffffffffffffff82169063c4d66de890602401600060405180830381600087803b15801561073657600080fd5b505af115801561074a573d6000803e3d6000fd5b5092949350505050565b600361075e611899565b80600481111561077057610770612e56565b6000547501000000000000000000000000000000000000000000900460ff1660048111156107a0576107a0612e56565b1461082d576040517f08c379a000000000000000000000000000000000000000000000000000000000815260206004820152602660248201527f546869732063616c6c206973206e6f7420616c6c6f776564206174207468697360448201527f207374616765000000000000000000000000000000000000000000000000000060648201526084016105c0565b60005474010000000000000000000000000000000000000000900460ff1661089757600754600880547fffffffffffffffffffffffff00000000000000000000000000000000000000001673ffffffffffffffffffffffffffffffffffffffff9092169190911790555b600080547fffffffffffffffffffff00ffffffffffffffffffffffffffffffffffffffffff16750400000000000000000000000000000000000000000017815560085460405173ffffffffffffffffffffffffffffffffffffffff909116917f90a00738854d4c5880219676e29735d3621c39e001de986d1225ce4ebb0ca17791a250565b60007f000000000000000000000000000000000000000000000000000000000000000073ffffffffffffffffffffffffffffffffffffffff168273ffffffffffffffffffffffffffffffffffffffff161480610992575060005473ffffffffffffffffffffffffffffffffffffffff8381169116145b610a1e576040517f08c379a000000000000000000000000000000000000000000000000000000000815260206004820152603b60248201527f4f6e6c792074686520706f6c696379206f7220696e7465726661636520636f6e60448201527f74726163742063616e207365742074686520696e74657266616365000000000060648201526084016105c0565b507fa2ef4600d742022d532d4747cb3547474667d6f13804902513b2ec01c848f4b492915050565b3373ffffffffffffffffffffffffffffffffffffffff7f00000000000000000000000000000000000000000000000000000000000000001614610b0b576040517f08c379a000000000000000000000000000000000000000000000000000000000815260206004820152602d60248201527f4f6e6c792074686520706f6c69637920636f6e7472616374206d61792063616c60448201527f6c2074686973206d6574686f640000000000000000000000000000000000000060648201526084016105c0565b600980547fffffffffffffffffffffffff00000000000000000000000000000000000000001673ffffffffffffffffffffffffffffffffffffffff83169081179091556040517fc1c43aa8035756476ab2ca6cfd05434a7fd574b0f3b39c7174828b1fb82acd3e90600090a250565b6004602052806000526040600020600091509050806000015490806001015490806002015490806003015490806004015490806005018054610bbb90613001565b80601f0160208091040260200160405190810160405280929190818152602001828054610be790613001565b8015610c345780601f10610c0957610100808354040283529160200191610c34565b820191906000526020600020905b815481529060010190602001808311610c1757829003601f168201915b5050505050905086565b3373ffffffffffffffffffffffffffffffffffffffff7f00000000000000000000000000000000000000000000000000000000000000001614610d03576040517f08c379a000000000000000000000000000000000000000000000000000000000815260206004820152602d60248201527f4f6e6c792074686520706f6c69637920636f6e7472616374206d61792063616c60448201527f6c2074686973206d6574686f640000000000000000000000000000000000000060648201526084016105c0565b600080547fffffffffffffffffffffffff00000000000000000000000000000000000000001673ffffffffffffffffffffffffffffffffffffffff92909216919091179055565b60095473ffffffffffffffffffffffffffffffffffffffff163314610dcb576040517f08c379a000000000000000000000000000000000000000000000000000000000815260206004820152601e60248201527f43757272656e6379476f7665726e616e63653a206e6f7420706175736572000060448201526064016105c0565b610dd36123a3565b565b6000610ddf611899565b806004811115610df157610df1612e56565b6000547501000000000000000000000000000000000000000000900460ff166004811115610e2157610e21612e56565b14610eae576040517f08c379a000000000000000000000000000000000000000000000000000000000815260206004820152602660248201527f546869732063616c6c206973206e6f7420616c6c6f776564206174207468697360448201527f207374616765000000000000000000000000000000000000000000000000000060648201526084016105c0565b3360009081526004602081905260409091200154610f4e576040517f08c379a000000000000000000000000000000000000000000000000000000000815260206004820152602560248201527f596f7520646f206e6f74206861766520612070726f706f73616c20746f20726560448201527f747261637400000000000000000000000000000000000000000000000000000060648201526084016105c0565b336000908152600460208190526040822082815560018101839055600281018390556003810183905590810182905590610f8b6005830182612b14565b505060405133907fa7168747510800c9ddf4d16852ceb46c013916bf25709d850c8bbb842db0c35990600090a250565b60095473ffffffffffffffffffffffffffffffffffffffff16331461103c576040517f08c379a000000000000000000000000000000000000000000000000000000000815260206004820152601e60248201527f43757272656e6379476f7665726e616e63653a206e6f7420706175736572000060448201526064016105c0565b610dd3612420565b600261104e611899565b80600481111561106057611060612e56565b6000547501000000000000000000000000000000000000000000900460ff16600481111561109057611090612e56565b1461111d576040517f08c379a000000000000000000000000000000000000000000000000000000000815260206004820152602660248201527f546869732063616c6c206973206e6f7420616c6c6f776564206174207468697360448201527f207374616765000000000000000000000000000000000000000000000000000060648201526084016105c0565b8180611185576040517f08c379a000000000000000000000000000000000000000000000000000000000815260206004820152601f60248201527f496e76616c696420766f74652c2063616e6e6f7420766f746520656d7074790060448201526064016105c0565b33600090815260056020526040902054611221576040517f08c379a000000000000000000000000000000000000000000000000000000000815260206004820152602d60248201527f496e76616c696420766f74652c206e6f20756e72657665616c656420636f6d6d60448201527f69746d656e74206578697374730000000000000000000000000000000000000060648201526084016105c0565b33600081815260056020908152604091829020549151919261124992899289918991016130b5565b60405160208183030381529060405280519060200120146112ec576040517f08c379a000000000000000000000000000000000000000000000000000000000815260206004820152602160248201527f496e76616c696420766f74652c20636f6d6d69746d656e74206d69736d61746360448201527f680000000000000000000000000000000000000000000000000000000000000060648201526084016105c0565b3360009081526005602090815260408220829055818052600690527f54cdd369e4e8a8515e52ca72ec816c2101831ad1f18bf44102ed171459c9b4f8805460019290611339908490613124565b909155505060075473ffffffffffffffffffffffffffffffffffffffff168060006001815b8581101561170557600089898381811061137a5761137a61313b565b905060400201803603810190611390919061316a565b805160208083015173ffffffffffffffffffffffffffffffffffffffff831660009081526004928390526040902090910154929350909161142d576040517f08c379a000000000000000000000000000000000000000000000000000000000815260206004820152601e60248201527f496e76616c696420766f74652c206d697373696e672070726f706f73616c000060448201526064016105c0565b831580611496575073ffffffffffffffffffffffffffffffffffffffff82168c8c611459600188613124565b8181106114685761146861313b565b61147e9260206040909202019081019150612d9b565b73ffffffffffffffffffffffffffffffffffffffff16105b611522576040517f08c379a000000000000000000000000000000000000000000000000000000000815260206004820152602f60248201527f496e76616c696420766f74652c2070726f706f73616c73206e6f7420696e206960448201527f6e6372656173696e67206f72646572000000000000000000000000000000000060648201526084016105c0565b888111156115b2576040517f08c379a000000000000000000000000000000000000000000000000000000000815260206004820152602a60248201527f496e76616c696420766f74652c2070726f706f73616c2073636f7265206f757460448201527f206f6620626f756e64730000000000000000000000000000000000000000000060648201526084016105c0565b6001811b85161561161f576040517f08c379a000000000000000000000000000000000000000000000000000000000815260206004820152601d60248201527f496e76616c696420766f74652c206475706c69636174652073636f726500000060448201526064016105c0565b61162c6001821b866131c2565b73ffffffffffffffffffffffffffffffffffffffff83166000908152600660205260408120805492975083929091906116669084906131c2565b909155505073ffffffffffffffffffffffffffffffffffffffff80881660009081526006602052604080822054928516825290205411156116ac578196508095506116f1565b73ffffffffffffffffffffffffffffffffffffffff80881660009081526006602052604080822054928516825290205414156116f157858111156116f1578196508095505b505050806116fe906131da565b905061135e565b508373ffffffffffffffffffffffffffffffffffffffff168373ffffffffffffffffffffffffffffffffffffffff161415801561176f575073ffffffffffffffffffffffffffffffffffffffff808516600090815260066020526040808220549286168252902054115b156117b557600780547fffffffffffffffffffffffff00000000000000000000000000000000000000001673ffffffffffffffffffffffffffffffffffffffff85161790555b6117bd61248f565b6040517f92c1ff4400000000000000000000000000000000000000000000000000000000815233600482015273ffffffffffffffffffffffffffffffffffffffff91909116906392c1ff4490602401600060405180830381600087803b15801561182657600080fd5b505af115801561183a573d6000803e3d6000fd5b505050503373ffffffffffffffffffffffffffffffffffffffff167f4f2465782e4e3927f06283aaf374455409e6d2044d2757871728a9fc8a0656e98989604051611886929190613213565b60405180910390a2505050505050505050565b6000429050600080547501000000000000000000000000000000000000000000900460ff1660048111156118cf576118cf612e56565b1480156118de57506001548110155b1561194b57600080547fffffffffffffffffffff00ffffffffffffffffffffffffffffffffffffffffff1675010000000000000000000000000000000000000000001781556040517f1e1404280fbb8e5a27fb6edb0e7962663c44e22452eaa16f6a25b4e892e0130d9190a15b60016000547501000000000000000000000000000000000000000000900460ff16600481111561197d5761197d612e56565b14801561198c57506002548110155b156119f957600080547fffffffffffffffffffff00ffffffffffffffffffffffffffffffffffffffffff1675020000000000000000000000000000000000000000001781556040517f63fc34cc2be0f643552b36cc8c5ecb01ab1021ce93dd86c01e798514acb982999190a15b60026000547501000000000000000000000000000000000000000000900460ff166004811115611a2b57611a2b612e56565b148015611a3a57506003548110155b15611a8057600080547fffffffffffffffffffff00ffffffffffffffffffffffffffffffffffffffffff1675030000000000000000000000000000000000000000001790555b50565b6000611aad7ff86c915dad5894faca0dfa067c58fdf4307406d255ed0a65db394f82b77f53d45490565b73ffffffffffffffffffffffffffffffffffffffff1614611b50576040517f08c379a000000000000000000000000000000000000000000000000000000000815260206004820152602860248201527f43616e206f6e6c792062652063616c6c656420647572696e6720696e6974696160448201527f6c697a6174696f6e00000000000000000000000000000000000000000000000060648201526084016105c0565b611b59816124bf565b611b656104b0426131c2565b6001819055611b7790610168906131c2565b6002819055611b88906078906131c2565b6003819055508073ffffffffffffffffffffffffffffffffffffffff16639fd0506d6040518163ffffffff1660e01b815260040160206040518083038186803b158015611bd457600080fd5b505afa158015611be8573d6000803e3d6000fd5b505050506040513d601f19601f82011682018060405250810190611c0c919061322f565b600980547fffffffffffffffffffffffff00000000000000000000000000000000000000001673ffffffffffffffffffffffffffffffffffffffff92909216919091179055600080526004602052670de0b6b3a76400007f17ef568e3e12ab5b9c7254a8d58478811de00f9e6eb34345acd53bf8fd09d3f0557f17ef568e3e12ab5b9c7254a8d58478811de00f9e6eb34345acd53bf8fd09d3ec611cae61248f565b73ffffffffffffffffffffffffffffffffffffffff16634baa69016040518163ffffffff1660e01b815260040160206040518083038186803b158015611cf357600080fd5b505afa158015611d07573d6000803e3d6000fd5b505050506040513d601f19601f82011682018060405250810190611d2b919061324c565b6000805260066020527f54cdd369e4e8a8515e52ca72ec816c2101831ad1f18bf44102ed171459c9b4f8555050565b611d6261248f565b6040517f96d6487900000000000000000000000000000000000000000000000000000000815233600482015273ffffffffffffffffffffffffffffffffffffffff91909116906396d648799060240160206040518083038186803b158015611dc957600080fd5b505afa158015611ddd573d6000803e3d6000fd5b505050506040513d601f19601f82011682018060405250810190611e019190613265565b611e8d576040517f08c379a000000000000000000000000000000000000000000000000000000000815260206004820152602760248201527f4f6e6c792074727573746564206e6f6465732063616e2063616c6c207468697360448201527f206d6574686f640000000000000000000000000000000000000000000000000060648201526084016105c0565b6001611e97611899565b806004811115611ea957611ea9612e56565b6000547501000000000000000000000000000000000000000000900460ff166004811115611ed957611ed9612e56565b14611f66576040517f08c379a000000000000000000000000000000000000000000000000000000000815260206004820152602660248201527f546869732063616c6c206973206e6f7420616c6c6f776564206174207468697360448201527f207374616765000000000000000000000000000000000000000000000000000060648201526084016105c0565b33600081815260056020526040808220859055517fb87a61d78bd15221c59b983f6ef032fbde0631e66bfe18d1421fe5a73c16741d9190a25050565b611faa61248f565b6040517f96d6487900000000000000000000000000000000000000000000000000000000815233600482015273ffffffffffffffffffffffffffffffffffffffff91909116906396d648799060240160206040518083038186803b15801561201157600080fd5b505afa158015612025573d6000803e3d6000fd5b505050506040513d601f19601f820116820180604052508101906120499190613265565b6120d5576040517f08c379a000000000000000000000000000000000000000000000000000000000815260206004820152602760248201527f4f6e6c792074727573746564206e6f6465732063616e2063616c6c207468697360448201527f206d6574686f640000000000000000000000000000000000000000000000000060648201526084016105c0565b60006120df611899565b8060048111156120f1576120f1612e56565b6000547501000000000000000000000000000000000000000000900460ff16600481111561212157612121612e56565b146121ae576040517f08c379a000000000000000000000000000000000000000000000000000000000815260206004820152602660248201527f546869732063616c6c206973206e6f7420616c6c6f776564206174207468697360448201527f207374616765000000000000000000000000000000000000000000000000000060648201526084016105c0565b6000841161223e576040517f08c379a000000000000000000000000000000000000000000000000000000000815260206004820152602360248201527f496e666c6174696f6e206d756c7469706c6965722063616e6e6f74206265207a60448201527f65726f000000000000000000000000000000000000000000000000000000000060648201526084016105c0565b60a08211156122a9576040517f08c379a000000000000000000000000000000000000000000000000000000000815260206004820152601760248201527f4465736372697074696f6e20697320746f6f206c6f6e6700000000000000000060448201526064016105c0565b3360009081526004602081905260409091208981556001810189905560028101889055600381018790559081018590556122e7600582018585612b4e565b503373ffffffffffffffffffffffffffffffffffffffff167f93a66d010ba63cd46779bb6c21359cacafda945e3b7cabf0259371b55cb8d1978a8a8a8a8a8a8a6040516118869796959493929190613287565b6000808260601b90506040517f3d602d80600a3d3981f3363d3d373d3d3d363d7300000000000000000000000081528160148201527f5af43d82803e903d91602b57fd5bf3000000000000000000000000000000000060288201526037816000f0949350505050565b6123ab61264a565b600080547fffffffffffffffffffffff00ffffffffffffffffffffffffffffffffffffffff1690557f5db9ee0a495bf2e6ff9c91a7834c1ba4fdd244a5e8aa4e537bd38aeae4b073aa335b60405173ffffffffffffffffffffffffffffffffffffffff909116815260200160405180910390a1565b6124286126ce565b600080547fffffffffffffffffffffff00ffffffffffffffffffffffffffffffffffffffff16740100000000000000000000000000000000000000001790557f62e78cea01bee320cd4e420270b5ea74000d11b0c9f74754ebdbfc544b05a2586123f63390565b60006124ba7f0e3d3f2b74f96e5fd24f23acf8b4b352d4e1d0d0ed45271f4e44aa64f98b2284612753565b905090565b60006124e97ff86c915dad5894faca0dfa067c58fdf4307406d255ed0a65db394f82b77f53d45490565b73ffffffffffffffffffffffffffffffffffffffff161461258c576040517f08c379a000000000000000000000000000000000000000000000000000000000815260206004820152602860248201527f43616e206f6e6c792062652063616c6c656420647572696e6720696e6974696160448201527f6c697a6174696f6e00000000000000000000000000000000000000000000000060648201526084016105c0565b61259581612834565b6040517f5df8122f00000000000000000000000000000000000000000000000000000000815230600482015273ffffffffffffffffffffffffffffffffffffffff7f0000000000000000000000000000000000000000000000000000000000000000166024820152731820a4b7618bde71dce8cdc73aab6c95905fad2490635df8122f90604401600060405180830381600087803b15801561263657600080fd5b505af11580156105ec573d6000803e3d6000fd5b60005474010000000000000000000000000000000000000000900460ff16610dd3576040517f08c379a000000000000000000000000000000000000000000000000000000000815260206004820152601460248201527f5061757361626c653a206e6f742070617573656400000000000000000000000060448201526064016105c0565b60005474010000000000000000000000000000000000000000900460ff1615610dd3576040517f08c379a000000000000000000000000000000000000000000000000000000000815260206004820152601060248201527f5061757361626c653a207061757365640000000000000000000000000000000060448201526064016105c0565b6040517faabbb8ca00000000000000000000000000000000000000000000000000000000815273ffffffffffffffffffffffffffffffffffffffff7f000000000000000000000000000000000000000000000000000000000000000016600482015260248101829052600090731820a4b7618bde71dce8cdc73aab6c95905fad249063aabbb8ca9060440160206040518083038186803b1580156127f657600080fd5b505afa15801561280a573d6000803e3d6000fd5b505050506040513d601f19601f8201168201806040525081019061282e919061322f565b92915050565b600061285e7ff86c915dad5894faca0dfa067c58fdf4307406d255ed0a65db394f82b77f53d45490565b73ffffffffffffffffffffffffffffffffffffffff1614612901576040517f08c379a000000000000000000000000000000000000000000000000000000000815260206004820152602860248201527f43616e206f6e6c792062652063616c6c656420647572696e6720696e6974696160448201527f6c697a6174696f6e00000000000000000000000000000000000000000000000060648201526084016105c0565b60008173ffffffffffffffffffffffffffffffffffffffff16635c60da1b6040518163ffffffff1660e01b815260040160206040518083038186803b15801561294957600080fd5b505afa15801561295d573d6000803e3d6000fd5b505050506040513d601f19601f82011682018060405250810190612981919061322f565b905073ffffffffffffffffffffffffffffffffffffffff8116612a26576040517f08c379a000000000000000000000000000000000000000000000000000000000815260206004820152602c60248201527f696e697469616c697a6174696f6e206661696c7572653a206e6f7468696e672060448201527f746f20696d706c656d656e74000000000000000000000000000000000000000060648201526084016105c0565b612a2f81612a33565b5050565b8073ffffffffffffffffffffffffffffffffffffffff16612a727ff86c915dad5894faca0dfa067c58fdf4307406d255ed0a65db394f82b77f53d45490565b73ffffffffffffffffffffffffffffffffffffffff161415612af0576040517f08c379a000000000000000000000000000000000000000000000000000000000815260206004820152601f60248201527f496d706c656d656e746174696f6e20616c7265616479206d61746368696e670060448201526064016105c0565b7ff86c915dad5894faca0dfa067c58fdf4307406d255ed0a65db394f82b77f53d455565b508054612b2090613001565b6000825580601f10612b30575050565b601f016020900490600052602060002090810190611a809190612bf0565b828054612b5a90613001565b90600052602060002090601f016020900481019282612b7c5760008555612be0565b82601f10612bb3578280017fffffffffffffffffffffffffffffffffffffffffffffffffffffffffffffff00823516178555612be0565b82800160010185558215612be0579182015b82811115612be0578235825591602001919060010190612bc5565b50612bec929150612bf0565b5090565b5b80821115612bec5760008155600101612bf1565b73ffffffffffffffffffffffffffffffffffffffff81168114611a8057600080fd5b7f4e487b7100000000000000000000000000000000000000000000000000000000600052604160045260246000fd5b604051601f82017fffffffffffffffffffffffffffffffffffffffffffffffffffffffffffffffe016810167ffffffffffffffff81118282101715612c9d57612c9d612c27565b604052919050565b60008060408385031215612cb857600080fd5b8235612cc381612c05565b915060208381013567ffffffffffffffff80821115612ce157600080fd5b818601915086601f830112612cf557600080fd5b813581811115612d0757612d07612c27565b612d37847fffffffffffffffffffffffffffffffffffffffffffffffffffffffffffffffe0601f84011601612c56565b91508082528784828501011115612d4d57600080fd5b80848401858401376000848284010152508093505050509250929050565b60008060408385031215612d7e57600080fd5b823591506020830135612d9081612c05565b809150509250929050565b600060208284031215612dad57600080fd5b8135612db881612c05565b9392505050565b86815260006020878184015286604084015285606084015284608084015260c060a084015283518060c085015260005b81811015612e0b5785810183015185820160e001528201612def565b81811115612e1d57600060e083870101525b50601f017fffffffffffffffffffffffffffffffffffffffffffffffffffffffffffffffe0169290920160e00198975050505050505050565b7f4e487b7100000000000000000000000000000000000000000000000000000000600052602160045260246000fd5b6020810160058310612ec0577f4e487b7100000000000000000000000000000000000000000000000000000000600052602160045260246000fd5b91905290565b600080600060408486031215612edb57600080fd5b83359250602084013567ffffffffffffffff80821115612efa57600080fd5b818601915086601f830112612f0e57600080fd5b813581811115612f1d57600080fd5b8760208260061b8501011115612f3257600080fd5b6020830194508093505050509250925092565b600060208284031215612f5757600080fd5b5035919050565b600080600080600080600060c0888a031215612f7957600080fd5b873596506020880135955060408801359450606088013593506080880135925060a088013567ffffffffffffffff80821115612fb457600080fd5b818a0191508a601f830112612fc857600080fd5b813581811115612fd757600080fd5b8b6020828501011115612fe957600080fd5b60208301945080935050505092959891949750929550565b600181811c9082168061301557607f821691505b6020821081141561304f577f4e487b7100000000000000000000000000000000000000000000000000000000600052602260045260246000fd5b50919050565b8183526000602080850194508260005b858110156130aa57813561307881612c05565b73ffffffffffffffffffffffffffffffffffffffff168752818301358388015260409687019690910190600101613065565b509495945050505050565b84815273ffffffffffffffffffffffffffffffffffffffff841660208201526060604082015260006130eb606083018486613055565b9695505050505050565b7f4e487b7100000000000000000000000000000000000000000000000000000000600052601160045260246000fd5b600082821015613136576131366130f5565b500390565b7f4e487b7100000000000000000000000000000000000000000000000000000000600052603260045260246000fd5b60006040828403121561317c57600080fd5b6040516040810181811067ffffffffffffffff8211171561319f5761319f612c27565b60405282356131ad81612c05565b81526020928301359281019290925250919050565b600082198211156131d5576131d56130f5565b500190565b60007fffffffffffffffffffffffffffffffffffffffffffffffffffffffffffffffff82141561320c5761320c6130f5565b5060010190565b602081526000613227602083018486613055565b949350505050565b60006020828403121561324157600080fd5b8151612db881612c05565b60006020828403121561325e57600080fd5b5051919050565b60006020828403121561327757600080fd5b81518015158114612db857600080fd5b87815286602082015285604082015284606082015283608082015260c060a08201528160c0820152818360e0830137600081830160e090810191909152601f9092017fffffffffffffffffffffffffffffffffffffffffffffffffffffffffffffffe0160101969550505050505056fea164736f6c6343000809000af86c915dad5894faca0dfa067c58fdf4307406d255ed0a65db394f82b77f53d4",
  "linkReferences": {},
  "deployedLinkReferences": {}
}