{
  "_format": "hh-sol-artifact-1",
  "contractName": "CurrencyGovernance",
  "sourceName": "contracts/governance/monetary/CurrencyGovernance.sol",
  "abi": [
    {
      "inputs": [
        {
          "internalType": "contract Policy",
          "name": "_policy",
          "type": "address"
        },
        {
          "internalType": "address",
          "name": "_initialPauser",
          "type": "address"
        }
      ],
      "stateMutability": "nonpayable",
      "type": "constructor"
    },
    {
      "anonymous": false,
      "inputs": [
        {
          "indexed": false,
          "internalType": "address",
          "name": "account",
          "type": "address"
        }
      ],
      "name": "Paused",
      "type": "event"
    },
    {
      "anonymous": false,
      "inputs": [
        {
          "indexed": true,
          "internalType": "address",
          "name": "pauser",
          "type": "address"
        }
      ],
      "name": "PauserAssignment",
      "type": "event"
    },
    {
      "anonymous": false,
      "inputs": [
        {
          "indexed": true,
          "internalType": "address",
          "name": "trusteeAddress",
          "type": "address"
        },
        {
          "indexed": false,
          "internalType": "uint256",
          "name": "_numberOfRecipients",
          "type": "uint256"
        },
        {
          "indexed": false,
          "internalType": "uint256",
          "name": "_randomInflationReward",
          "type": "uint256"
        },
        {
          "indexed": false,
          "internalType": "uint256",
          "name": "_lockupDuration",
          "type": "uint256"
        },
        {
          "indexed": false,
          "internalType": "uint256",
          "name": "_lockupInterest",
          "type": "uint256"
        },
        {
          "indexed": false,
          "internalType": "uint256",
          "name": "_inflationMultiplier",
          "type": "uint256"
        },
        {
          "indexed": false,
          "internalType": "string",
          "name": "_description",
          "type": "string"
        }
      ],
      "name": "ProposalCreation",
      "type": "event"
    },
    {
      "anonymous": false,
      "inputs": [
        {
          "indexed": true,
          "internalType": "address",
          "name": "trustee",
          "type": "address"
        }
      ],
      "name": "ProposalRetraction",
      "type": "event"
    },
    {
      "anonymous": false,
      "inputs": [],
      "name": "RevealStart",
      "type": "event"
    },
    {
      "anonymous": false,
      "inputs": [
        {
          "indexed": false,
          "internalType": "address",
          "name": "account",
          "type": "address"
        }
      ],
      "name": "Unpaused",
      "type": "event"
    },
    {
      "anonymous": false,
      "inputs": [
        {
          "indexed": true,
          "internalType": "address",
          "name": "trustee",
          "type": "address"
        }
      ],
      "name": "VoteCast",
      "type": "event"
    },
    {
      "anonymous": false,
      "inputs": [
        {
          "indexed": true,
          "internalType": "address",
          "name": "winner",
          "type": "address"
        }
      ],
      "name": "VoteResult",
      "type": "event"
    },
    {
      "anonymous": false,
      "inputs": [
        {
          "indexed": true,
          "internalType": "address",
          "name": "voter",
          "type": "address"
        },
        {
          "components": [
            {
              "internalType": "address",
              "name": "proposal",
              "type": "address"
            },
            {
              "internalType": "uint256",
              "name": "score",
              "type": "uint256"
            }
          ],
          "indexed": false,
          "internalType": "struct CurrencyGovernance.Vote[]",
          "name": "votes",
          "type": "tuple[]"
        }
      ],
      "name": "VoteReveal",
      "type": "event"
    },
    {
      "anonymous": false,
      "inputs": [],
      "name": "VoteStart",
      "type": "event"
    },
    {
      "inputs": [],
      "name": "GENERATION_START",
      "outputs": [
        {
          "internalType": "uint256",
          "name": "",
          "type": "uint256"
        }
      ],
      "stateMutability": "view",
      "type": "function"
    },
    {
      "inputs": [],
      "name": "IDEMPOTENT_INFLATION_MULTIPLIER",
      "outputs": [
        {
          "internalType": "uint256",
          "name": "",
          "type": "uint256"
        }
      ],
      "stateMutability": "view",
      "type": "function"
    },
    {
      "inputs": [],
      "name": "MAX_DATA",
      "outputs": [
        {
          "internalType": "uint256",
          "name": "",
          "type": "uint256"
        }
      ],
      "stateMutability": "view",
      "type": "function"
    },
    {
      "inputs": [],
      "name": "MIN_GENERATION_DURATION",
      "outputs": [
        {
          "internalType": "uint256",
          "name": "",
          "type": "uint256"
        }
      ],
      "stateMutability": "view",
      "type": "function"
    },
    {
      "inputs": [],
      "name": "PROPOSAL_TIME",
      "outputs": [
        {
          "internalType": "uint256",
          "name": "",
          "type": "uint256"
        }
      ],
      "stateMutability": "view",
      "type": "function"
    },
    {
      "inputs": [],
      "name": "REVEAL_TIME",
      "outputs": [
        {
          "internalType": "uint256",
          "name": "",
          "type": "uint256"
        }
      ],
      "stateMutability": "view",
      "type": "function"
    },
    {
      "inputs": [],
      "name": "VOTING_TIME",
      "outputs": [
        {
          "internalType": "uint256",
          "name": "",
          "type": "uint256"
        }
      ],
      "stateMutability": "view",
      "type": "function"
    },
    {
      "inputs": [
        {
          "internalType": "bytes32",
          "name": "",
          "type": "bytes32"
        },
        {
          "internalType": "address",
          "name": "_addr",
          "type": "address"
        }
      ],
      "name": "canImplementInterfaceForAddress",
      "outputs": [
        {
          "internalType": "bytes32",
          "name": "",
          "type": "bytes32"
        }
      ],
      "stateMutability": "view",
      "type": "function"
    },
    {
      "inputs": [],
      "name": "clone",
      "outputs": [
        {
          "internalType": "address",
          "name": "",
          "type": "address"
        }
      ],
      "stateMutability": "nonpayable",
      "type": "function"
    },
    {
      "inputs": [
        {
          "internalType": "bytes32",
          "name": "_commitment",
          "type": "bytes32"
        }
      ],
      "name": "commit",
      "outputs": [],
      "stateMutability": "nonpayable",
      "type": "function"
    },
    {
      "inputs": [
        {
          "internalType": "address",
          "name": "",
          "type": "address"
        }
      ],
      "name": "commitments",
      "outputs": [
        {
          "internalType": "bytes32",
          "name": "",
          "type": "bytes32"
        }
      ],
      "stateMutability": "view",
      "type": "function"
    },
    {
      "inputs": [],
      "name": "compute",
      "outputs": [],
      "stateMutability": "nonpayable",
      "type": "function"
    },
    {
      "inputs": [],
      "name": "currentStage",
      "outputs": [
        {
          "internalType": "enum CurrencyGovernance.Stage",
          "name": "",
          "type": "uint8"
        }
      ],
      "stateMutability": "view",
      "type": "function"
    },
    {
      "inputs": [],
      "name": "implementation",
      "outputs": [
        {
          "internalType": "address",
          "name": "_impl",
          "type": "address"
        }
      ],
      "stateMutability": "view",
      "type": "function"
    },
    {
      "inputs": [
        {
          "internalType": "address",
          "name": "_self",
          "type": "address"
        }
      ],
      "name": "initialize",
      "outputs": [],
      "stateMutability": "nonpayable",
      "type": "function"
    },
    {
      "inputs": [],
      "name": "leader",
      "outputs": [
        {
          "internalType": "address",
          "name": "",
          "type": "address"
        }
      ],
      "stateMutability": "view",
      "type": "function"
    },
    {
      "inputs": [],
      "name": "pause",
      "outputs": [],
      "stateMutability": "nonpayable",
      "type": "function"
    },
    {
      "inputs": [],
      "name": "paused",
      "outputs": [
        {
          "internalType": "bool",
          "name": "",
          "type": "bool"
        }
      ],
      "stateMutability": "view",
      "type": "function"
    },
    {
      "inputs": [],
      "name": "pauser",
      "outputs": [
        {
          "internalType": "address",
          "name": "",
          "type": "address"
        }
      ],
      "stateMutability": "view",
      "type": "function"
    },
    {
      "inputs": [],
      "name": "policy",
      "outputs": [
        {
          "internalType": "contract Policy",
          "name": "",
          "type": "address"
        }
      ],
      "stateMutability": "view",
      "type": "function"
    },
    {
      "inputs": [
        {
          "internalType": "address",
          "name": "_delegate",
          "type": "address"
        },
        {
          "internalType": "bytes",
          "name": "_data",
          "type": "bytes"
        }
      ],
      "name": "policyCommand",
      "outputs": [],
      "stateMutability": "nonpayable",
      "type": "function"
    },
    {
      "inputs": [],
      "name": "proposalEnds",
      "outputs": [
        {
          "internalType": "uint256",
          "name": "",
          "type": "uint256"
        }
      ],
      "stateMutability": "view",
      "type": "function"
    },
    {
      "inputs": [
        {
          "internalType": "address",
          "name": "",
          "type": "address"
        }
      ],
      "name": "proposals",
      "outputs": [
        {
          "internalType": "uint256",
          "name": "numberOfRecipients",
          "type": "uint256"
        },
        {
          "internalType": "uint256",
          "name": "randomInflationReward",
          "type": "uint256"
        },
        {
          "internalType": "uint256",
          "name": "lockupDuration",
          "type": "uint256"
        },
        {
          "internalType": "uint256",
          "name": "lockupInterest",
          "type": "uint256"
        },
        {
          "internalType": "uint256",
          "name": "inflationMultiplier",
          "type": "uint256"
        },
        {
          "internalType": "string",
          "name": "description",
          "type": "string"
        }
      ],
      "stateMutability": "view",
      "type": "function"
    },
    {
      "inputs": [
        {
          "internalType": "uint256",
          "name": "_numberOfRecipients",
          "type": "uint256"
        },
        {
          "internalType": "uint256",
          "name": "_randomInflationReward",
          "type": "uint256"
        },
        {
          "internalType": "uint256",
          "name": "_lockupDuration",
          "type": "uint256"
        },
        {
          "internalType": "uint256",
          "name": "_lockupInterest",
          "type": "uint256"
        },
        {
          "internalType": "uint256",
          "name": "_inflationMultiplier",
          "type": "uint256"
        },
        {
          "internalType": "string",
          "name": "_description",
          "type": "string"
        }
      ],
      "name": "propose",
      "outputs": [],
      "stateMutability": "nonpayable",
      "type": "function"
    },
    {
      "inputs": [
        {
          "internalType": "bytes32",
          "name": "_seed",
          "type": "bytes32"
        },
        {
          "components": [
            {
              "internalType": "address",
              "name": "proposal",
              "type": "address"
            },
            {
              "internalType": "uint256",
              "name": "score",
              "type": "uint256"
            }
          ],
          "internalType": "struct CurrencyGovernance.Vote[]",
          "name": "_votes",
          "type": "tuple[]"
        }
      ],
      "name": "reveal",
      "outputs": [],
      "stateMutability": "nonpayable",
      "type": "function"
    },
    {
      "inputs": [],
      "name": "revealEnds",
      "outputs": [
        {
          "internalType": "uint256",
          "name": "",
          "type": "uint256"
        }
      ],
      "stateMutability": "view",
      "type": "function"
    },
    {
      "inputs": [
        {
          "internalType": "address",
          "name": "",
          "type": "address"
        }
      ],
      "name": "score",
      "outputs": [
        {
          "internalType": "uint256",
          "name": "",
          "type": "uint256"
        }
      ],
      "stateMutability": "view",
      "type": "function"
    },
    {
      "inputs": [
        {
          "internalType": "address",
          "name": "_addr",
          "type": "address"
        }
      ],
      "name": "setExpectedInterfaceSet",
      "outputs": [],
      "stateMutability": "nonpayable",
      "type": "function"
    },
    {
      "inputs": [
        {
          "internalType": "address",
          "name": "_pauser",
          "type": "address"
        }
      ],
      "name": "setPauser",
      "outputs": [],
      "stateMutability": "nonpayable",
      "type": "function"
    },
    {
      "inputs": [],
      "name": "unpause",
      "outputs": [],
      "stateMutability": "nonpayable",
      "type": "function"
    },
    {
      "inputs": [],
      "name": "unpropose",
      "outputs": [],
      "stateMutability": "nonpayable",
      "type": "function"
    },
    {
      "inputs": [],
      "name": "updateStage",
      "outputs": [],
      "stateMutability": "nonpayable",
      "type": "function"
    },
    {
      "inputs": [],
      "name": "votingEnds",
      "outputs": [
        {
          "internalType": "uint256",
          "name": "",
          "type": "uint256"
        }
      ],
      "stateMutability": "view",
      "type": "function"
    },
    {
      "inputs": [],
      "name": "winner",
      "outputs": [
        {
          "internalType": "address",
          "name": "",
          "type": "address"
        }
      ],
      "stateMutability": "view",
      "type": "function"
    }
  ],
  "bytecode": "0x60a06040523480156200001157600080fd5b50604051620035f9380380620035f9833981016040819052620000349162000247565b81806200004130620001a0565b6001600160a01b038116620000c35760405162461bcd60e51b815260206004820152603860248201527f556e7265636f76657261626c653a20646f206e6f74207365742074686520706f60448201527f6c69637920617320746865207a65726f2061646472657373000000000000000060648201526084015b60405180910390fd5b6001600160a01b0381166080819052604051635df8122f60e01b81523060048201526024810191909152731820a4b7618bde71dce8cdc73aab6c95905fad2490635df8122f90604401600060405180830381600087803b1580156200012757600080fd5b505af11580156200013c573d6000803e3d6000fd5b50506000805460ff60a01b19168155600980546001600160a01b0319166001600160a01b0388169081179091556040519095507fc1c43aa8035756476ab2ca6cfd05434a7fd574b0f3b39c7174828b1fb82acd3e94509092509050a2505062000286565b6001600160a01b038116620001c2600080516020620035d98339815191525490565b6001600160a01b031614156200021b5760405162461bcd60e51b815260206004820152601f60248201527f496d706c656d656e746174696f6e20616c7265616479206d61746368696e67006044820152606401620000ba565b600080516020620035d983398151915255565b6001600160a01b03811681146200024457600080fd5b50565b600080604083850312156200025b57600080fd5b825162000268816200022e565b60208401519092506200027b816200022e565b809150509250929050565b60805161330d620002cc600039600081816102300152818161051c0152818161092501528181610a6301528181610c5b015281816125e10152612799015261330d6000f3fe608060405234801561001057600080fd5b50600436106102265760003560e01c80635bf5d54c1161012a5780639fd0506d116100bd578063c4d66de81161008c578063e8fcf72311610071578063e8fcf723146104be578063f14fcbc8146104de578063f5274bd5146104f157600080fd5b8063c4d66de81461048b578063dfbf53ae1461049e57600080fd5b80639fd0506d14610451578063a0b0607f14610471578063af12645a14610479578063c062f5781461048357600080fd5b80637c33bd02116100f95780637c33bd02146104245780638456cb591461042c5780638cb17056146104345780639ae8aa051461043e57600080fd5b80635bf5d54c1461037c5780635c60da1b146103af5780635c975abb146103d6578063776f38431461040457600080fd5b80632d913bfb116101bd57806339634e0c1161018c57806340eedabb1161017157806340eedabb1461034a578063495d18e21461036a578063537299371461037357600080fd5b806339634e0c1461032f5780633f4ba83a1461034257600080fd5b80632d913bfb146102ed57806332f0b8fa146102f75780633341b44514610301578063376cf9bf1461032657600080fd5b80631a43c338116101f95780631a43c338146102b6578063249cb3fa146102be578063280ee4ee146102d15780632d88af4a146102da57600080fd5b80630505c8c91461022b57806309d7f23b1461027c57806309ed460714610291578063160cd17914610299575b600080fd5b6102527f000000000000000000000000000000000000000000000000000000000000000081565b60405173ffffffffffffffffffffffffffffffffffffffff90911681526020015b60405180910390f35b61028f61028a366004612cae565b610504565b005b6102526105f8565b6102a8670de0b6b3a764000081565b604051908152602001610273565b61028f610759565b6102a86102cc366004612d74565b610921565b6102a860025481565b61028f6102e8366004612da4565b610a4b565b6102a86201518081565b6102a86203f48081565b61031461030f366004612da4565b610b7f565b60405161027396959493929190612dc8565b6102a860015481565b61028f61033d366004612da4565b610c43565b61028f610d4f565b6007546102529073ffffffffffffffffffffffffffffffffffffffff1681565b6102a860035481565b6102a86103e881565b6000546103a2907501000000000000000000000000000000000000000000900460ff1681565b6040516102739190612e8e565b7ff86c915dad5894faca0dfa067c58fdf4307406d255ed0a65db394f82b77f53d454610252565b60005474010000000000000000000000000000000000000000900460ff166040519015158152602001610273565b6102a8610412366004612da4565b60066020526000908152604090205481565b61028f610dda565b61028f610fc0565b6102a86212750081565b61028f61044c366004612ecf565b611049565b6009546102529073ffffffffffffffffffffffffffffffffffffffff1681565b6102a860a081565b6102a8620d2f0081565b61028f61189e565b61028f610499366004612da4565b611a88565b6008546102529073ffffffffffffffffffffffffffffffffffffffff1681565b6102a86104cc366004612da4565b60056020526000908152604090205481565b61028f6104ec366004612f4e565b611d63565b61028f6104ff366004612f67565b611fab565b3373ffffffffffffffffffffffffffffffffffffffff7f000000000000000000000000000000000000000000000000000000000000000016146105ce576040517f08c379a000000000000000000000000000000000000000000000000000000000815260206004820152602d60248201527f4f6e6c792074686520706f6c69637920636f6e7472616374206d61792063616c60448201527f6c2074686973206d6574686f640000000000000000000000000000000000000060648201526084015b60405180910390fd5b600080825160208401855af43d806000803e8180156105ec57816000f35b816000fd5b5050505050565b6000306106237ff86c915dad5894faca0dfa067c58fdf4307406d255ed0a65db394f82b77f53d45490565b73ffffffffffffffffffffffffffffffffffffffff16146106c6576040517f08c379a000000000000000000000000000000000000000000000000000000000815260206004820152602660248201527f54686973206d6574686f642063616e6e6f742062652063616c6c6564206f6e2060448201527f636c6f6e6573000000000000000000000000000000000000000000000000000060648201526084016105c5565b60006106d130612343565b6040517fc4d66de800000000000000000000000000000000000000000000000000000000815230600482015290915073ffffffffffffffffffffffffffffffffffffffff82169063c4d66de890602401600060405180830381600087803b15801561073b57600080fd5b505af115801561074f573d6000803e3d6000fd5b5092949350505050565b600361076361189e565b80600481111561077557610775612e5f565b6000547501000000000000000000000000000000000000000000900460ff1660048111156107a5576107a5612e5f565b14610832576040517f08c379a000000000000000000000000000000000000000000000000000000000815260206004820152602660248201527f546869732063616c6c206973206e6f7420616c6c6f776564206174207468697360448201527f207374616765000000000000000000000000000000000000000000000000000060648201526084016105c5565b60005474010000000000000000000000000000000000000000900460ff1661089c57600754600880547fffffffffffffffffffffffff00000000000000000000000000000000000000001673ffffffffffffffffffffffffffffffffffffffff9092169190911790555b600080547fffffffffffffffffffff00ffffffffffffffffffffffffffffffffffffffffff16750400000000000000000000000000000000000000000017815560085460405173ffffffffffffffffffffffffffffffffffffffff909116917f90a00738854d4c5880219676e29735d3621c39e001de986d1225ce4ebb0ca17791a250565b60007f000000000000000000000000000000000000000000000000000000000000000073ffffffffffffffffffffffffffffffffffffffff168273ffffffffffffffffffffffffffffffffffffffff161480610997575060005473ffffffffffffffffffffffffffffffffffffffff8381169116145b610a23576040517f08c379a000000000000000000000000000000000000000000000000000000000815260206004820152603b60248201527f4f6e6c792074686520706f6c696379206f7220696e7465726661636520636f6e60448201527f74726163742063616e207365742074686520696e74657266616365000000000060648201526084016105c5565b507fa2ef4600d742022d532d4747cb3547474667d6f13804902513b2ec01c848f4b492915050565b3373ffffffffffffffffffffffffffffffffffffffff7f00000000000000000000000000000000000000000000000000000000000000001614610b10576040517f08c379a000000000000000000000000000000000000000000000000000000000815260206004820152602d60248201527f4f6e6c792074686520706f6c69637920636f6e7472616374206d61792063616c60448201527f6c2074686973206d6574686f640000000000000000000000000000000000000060648201526084016105c5565b600980547fffffffffffffffffffffffff00000000000000000000000000000000000000001673ffffffffffffffffffffffffffffffffffffffff83169081179091556040517fc1c43aa8035756476ab2ca6cfd05434a7fd574b0f3b39c7174828b1fb82acd3e90600090a250565b6004602052806000526040600020600091509050806000015490806001015490806002015490806003015490806004015490806005018054610bc09061300a565b80601f0160208091040260200160405190810160405280929190818152602001828054610bec9061300a565b8015610c395780601f10610c0e57610100808354040283529160200191610c39565b820191906000526020600020905b815481529060010190602001808311610c1c57829003601f168201915b5050505050905086565b3373ffffffffffffffffffffffffffffffffffffffff7f00000000000000000000000000000000000000000000000000000000000000001614610d08576040517f08c379a000000000000000000000000000000000000000000000000000000000815260206004820152602d60248201527f4f6e6c792074686520706f6c69637920636f6e7472616374206d61792063616c60448201527f6c2074686973206d6574686f640000000000000000000000000000000000000060648201526084016105c5565b600080547fffffffffffffffffffffffff00000000000000000000000000000000000000001673ffffffffffffffffffffffffffffffffffffffff92909216919091179055565b60095473ffffffffffffffffffffffffffffffffffffffff163314610dd0576040517f08c379a000000000000000000000000000000000000000000000000000000000815260206004820152601e60248201527f43757272656e6379476f7665726e616e63653a206e6f7420706175736572000060448201526064016105c5565b610dd86123ac565b565b6000610de461189e565b806004811115610df657610df6612e5f565b6000547501000000000000000000000000000000000000000000900460ff166004811115610e2657610e26612e5f565b14610eb3576040517f08c379a000000000000000000000000000000000000000000000000000000000815260206004820152602660248201527f546869732063616c6c206973206e6f7420616c6c6f776564206174207468697360448201527f207374616765000000000000000000000000000000000000000000000000000060648201526084016105c5565b3360009081526004602081905260409091200154610f53576040517f08c379a000000000000000000000000000000000000000000000000000000000815260206004820152602560248201527f596f7520646f206e6f74206861766520612070726f706f73616c20746f20726560448201527f747261637400000000000000000000000000000000000000000000000000000060648201526084016105c5565b336000908152600460208190526040822082815560018101839055600281018390556003810183905590810182905590610f906005830182612b1d565b505060405133907fa7168747510800c9ddf4d16852ceb46c013916bf25709d850c8bbb842db0c35990600090a250565b60095473ffffffffffffffffffffffffffffffffffffffff163314611041576040517f08c379a000000000000000000000000000000000000000000000000000000000815260206004820152601e60248201527f43757272656e6379476f7665726e616e63653a206e6f7420706175736572000060448201526064016105c5565b610dd8612429565b600261105361189e565b80600481111561106557611065612e5f565b6000547501000000000000000000000000000000000000000000900460ff16600481111561109557611095612e5f565b14611122576040517f08c379a000000000000000000000000000000000000000000000000000000000815260206004820152602660248201527f546869732063616c6c206973206e6f7420616c6c6f776564206174207468697360448201527f207374616765000000000000000000000000000000000000000000000000000060648201526084016105c5565b818061118a576040517f08c379a000000000000000000000000000000000000000000000000000000000815260206004820152601f60248201527f496e76616c696420766f74652c2063616e6e6f7420766f746520656d7074790060448201526064016105c5565b33600090815260056020526040902054611226576040517f08c379a000000000000000000000000000000000000000000000000000000000815260206004820152602d60248201527f496e76616c696420766f74652c206e6f20756e72657665616c656420636f6d6d60448201527f69746d656e74206578697374730000000000000000000000000000000000000060648201526084016105c5565b33600081815260056020908152604091829020549151919261124e92899289918991016130be565b60405160208183030381529060405280519060200120146112f1576040517f08c379a000000000000000000000000000000000000000000000000000000000815260206004820152602160248201527f496e76616c696420766f74652c20636f6d6d69746d656e74206d69736d61746360448201527f680000000000000000000000000000000000000000000000000000000000000060648201526084016105c5565b3360009081526005602090815260408220829055818052600690527f54cdd369e4e8a8515e52ca72ec816c2101831ad1f18bf44102ed171459c9b4f880546001929061133e90849061312d565b909155505060075473ffffffffffffffffffffffffffffffffffffffff168060006001815b8581101561170a57600089898381811061137f5761137f613144565b9050604002018036038101906113959190613173565b805160208083015173ffffffffffffffffffffffffffffffffffffffff8316600090815260049283905260409020909101549293509091611432576040517f08c379a000000000000000000000000000000000000000000000000000000000815260206004820152601e60248201527f496e76616c696420766f74652c206d697373696e672070726f706f73616c000060448201526064016105c5565b83158061149b575073ffffffffffffffffffffffffffffffffffffffff82168c8c61145e60018861312d565b81811061146d5761146d613144565b6114839260206040909202019081019150612da4565b73ffffffffffffffffffffffffffffffffffffffff16105b611527576040517f08c379a000000000000000000000000000000000000000000000000000000000815260206004820152602f60248201527f496e76616c696420766f74652c2070726f706f73616c73206e6f7420696e206960448201527f6e6372656173696e67206f72646572000000000000000000000000000000000060648201526084016105c5565b888111156115b7576040517f08c379a000000000000000000000000000000000000000000000000000000000815260206004820152602a60248201527f496e76616c696420766f74652c2070726f706f73616c2073636f7265206f757460448201527f206f6620626f756e64730000000000000000000000000000000000000000000060648201526084016105c5565b6001811b851615611624576040517f08c379a000000000000000000000000000000000000000000000000000000000815260206004820152601d60248201527f496e76616c696420766f74652c206475706c69636174652073636f726500000060448201526064016105c5565b6116316001821b866131cb565b73ffffffffffffffffffffffffffffffffffffffff831660009081526006602052604081208054929750839290919061166b9084906131cb565b909155505073ffffffffffffffffffffffffffffffffffffffff80881660009081526006602052604080822054928516825290205411156116b1578196508095506116f6565b73ffffffffffffffffffffffffffffffffffffffff80881660009081526006602052604080822054928516825290205414156116f657858111156116f6578196508095505b50505080611703906131e3565b9050611363565b508373ffffffffffffffffffffffffffffffffffffffff168373ffffffffffffffffffffffffffffffffffffffff1614158015611774575073ffffffffffffffffffffffffffffffffffffffff808516600090815260066020526040808220549286168252902054115b156117ba57600780547fffffffffffffffffffffffff00000000000000000000000000000000000000001673ffffffffffffffffffffffffffffffffffffffff85161790555b6117c2612498565b6040517f92c1ff4400000000000000000000000000000000000000000000000000000000815233600482015273ffffffffffffffffffffffffffffffffffffffff91909116906392c1ff4490602401600060405180830381600087803b15801561182b57600080fd5b505af115801561183f573d6000803e3d6000fd5b505050503373ffffffffffffffffffffffffffffffffffffffff167f4f2465782e4e3927f06283aaf374455409e6d2044d2757871728a9fc8a0656e9898960405161188b92919061321c565b60405180910390a2505050505050505050565b6000429050600080547501000000000000000000000000000000000000000000900460ff1660048111156118d4576118d4612e5f565b1480156118e357506001548110155b1561195057600080547fffffffffffffffffffff00ffffffffffffffffffffffffffffffffffffffffff1675010000000000000000000000000000000000000000001781556040517f1e1404280fbb8e5a27fb6edb0e7962663c44e22452eaa16f6a25b4e892e0130d9190a15b60016000547501000000000000000000000000000000000000000000900460ff16600481111561198257611982612e5f565b14801561199157506002548110155b156119fe57600080547fffffffffffffffffffff00ffffffffffffffffffffffffffffffffffffffffff1675020000000000000000000000000000000000000000001781556040517f63fc34cc2be0f643552b36cc8c5ecb01ab1021ce93dd86c01e798514acb982999190a15b60026000547501000000000000000000000000000000000000000000900460ff166004811115611a3057611a30612e5f565b148015611a3f57506003548110155b15611a8557600080547fffffffffffffffffffff00ffffffffffffffffffffffffffffffffffffffffff1675030000000000000000000000000000000000000000001790555b50565b6000611ab27ff86c915dad5894faca0dfa067c58fdf4307406d255ed0a65db394f82b77f53d45490565b73ffffffffffffffffffffffffffffffffffffffff1614611b55576040517f08c379a000000000000000000000000000000000000000000000000000000000815260206004820152602860248201527f43616e206f6e6c792062652063616c6c656420647572696e6720696e6974696160448201527f6c697a6174696f6e00000000000000000000000000000000000000000000000060648201526084016105c5565b611b5e816124c8565b611b6b620d2f00426131cb565b6001819055611b7e906203f480906131cb565b6002819055611b919062015180906131cb565b6003819055508073ffffffffffffffffffffffffffffffffffffffff16639fd0506d6040518163ffffffff1660e01b815260040160206040518083038186803b158015611bdd57600080fd5b505afa158015611bf1573d6000803e3d6000fd5b505050506040513d601f19601f82011682018060405250810190611c159190613238565b600980547fffffffffffffffffffffffff00000000000000000000000000000000000000001673ffffffffffffffffffffffffffffffffffffffff92909216919091179055600080526004602052670de0b6b3a76400007f17ef568e3e12ab5b9c7254a8d58478811de00f9e6eb34345acd53bf8fd09d3f0557f17ef568e3e12ab5b9c7254a8d58478811de00f9e6eb34345acd53bf8fd09d3ec611cb7612498565b73ffffffffffffffffffffffffffffffffffffffff16634baa69016040518163ffffffff1660e01b815260040160206040518083038186803b158015611cfc57600080fd5b505afa158015611d10573d6000803e3d6000fd5b505050506040513d601f19601f82011682018060405250810190611d349190613255565b6000805260066020527f54cdd369e4e8a8515e52ca72ec816c2101831ad1f18bf44102ed171459c9b4f8555050565b611d6b612498565b6040517f96d6487900000000000000000000000000000000000000000000000000000000815233600482015273ffffffffffffffffffffffffffffffffffffffff91909116906396d648799060240160206040518083038186803b158015611dd257600080fd5b505afa158015611de6573d6000803e3d6000fd5b505050506040513d601f19601f82011682018060405250810190611e0a919061326e565b611e96576040517f08c379a000000000000000000000000000000000000000000000000000000000815260206004820152602760248201527f4f6e6c792074727573746564206e6f6465732063616e2063616c6c207468697360448201527f206d6574686f640000000000000000000000000000000000000000000000000060648201526084016105c5565b6001611ea061189e565b806004811115611eb257611eb2612e5f565b6000547501000000000000000000000000000000000000000000900460ff166004811115611ee257611ee2612e5f565b14611f6f576040517f08c379a000000000000000000000000000000000000000000000000000000000815260206004820152602660248201527f546869732063616c6c206973206e6f7420616c6c6f776564206174207468697360448201527f207374616765000000000000000000000000000000000000000000000000000060648201526084016105c5565b33600081815260056020526040808220859055517fb87a61d78bd15221c59b983f6ef032fbde0631e66bfe18d1421fe5a73c16741d9190a25050565b611fb3612498565b6040517f96d6487900000000000000000000000000000000000000000000000000000000815233600482015273ffffffffffffffffffffffffffffffffffffffff91909116906396d648799060240160206040518083038186803b15801561201a57600080fd5b505afa15801561202e573d6000803e3d6000fd5b505050506040513d601f19601f82011682018060405250810190612052919061326e565b6120de576040517f08c379a000000000000000000000000000000000000000000000000000000000815260206004820152602760248201527f4f6e6c792074727573746564206e6f6465732063616e2063616c6c207468697360448201527f206d6574686f640000000000000000000000000000000000000000000000000060648201526084016105c5565b60006120e861189e565b8060048111156120fa576120fa612e5f565b6000547501000000000000000000000000000000000000000000900460ff16600481111561212a5761212a612e5f565b146121b7576040517f08c379a000000000000000000000000000000000000000000000000000000000815260206004820152602660248201527f546869732063616c6c206973206e6f7420616c6c6f776564206174207468697360448201527f207374616765000000000000000000000000000000000000000000000000000060648201526084016105c5565b60008411612247576040517f08c379a000000000000000000000000000000000000000000000000000000000815260206004820152602360248201527f496e666c6174696f6e206d756c7469706c6965722063616e6e6f74206265207a60448201527f65726f000000000000000000000000000000000000000000000000000000000060648201526084016105c5565b60a08211156122b2576040517f08c379a000000000000000000000000000000000000000000000000000000000815260206004820152601760248201527f4465736372697074696f6e20697320746f6f206c6f6e6700000000000000000060448201526064016105c5565b3360009081526004602081905260409091208981556001810189905560028101889055600381018790559081018590556122f0600582018585612b57565b503373ffffffffffffffffffffffffffffffffffffffff167f93a66d010ba63cd46779bb6c21359cacafda945e3b7cabf0259371b55cb8d1978a8a8a8a8a8a8a60405161188b9796959493929190613290565b6000808260601b90506040517f3d602d80600a3d3981f3363d3d373d3d3d363d7300000000000000000000000081528160148201527f5af43d82803e903d91602b57fd5bf3000000000000000000000000000000000060288201526037816000f0949350505050565b6123b4612653565b600080547fffffffffffffffffffffff00ffffffffffffffffffffffffffffffffffffffff1690557f5db9ee0a495bf2e6ff9c91a7834c1ba4fdd244a5e8aa4e537bd38aeae4b073aa335b60405173ffffffffffffffffffffffffffffffffffffffff909116815260200160405180910390a1565b6124316126d7565b600080547fffffffffffffffffffffff00ffffffffffffffffffffffffffffffffffffffff16740100000000000000000000000000000000000000001790557f62e78cea01bee320cd4e420270b5ea74000d11b0c9f74754ebdbfc544b05a2586123ff3390565b60006124c37f0e3d3f2b74f96e5fd24f23acf8b4b352d4e1d0d0ed45271f4e44aa64f98b228461275c565b905090565b60006124f27ff86c915dad5894faca0dfa067c58fdf4307406d255ed0a65db394f82b77f53d45490565b73ffffffffffffffffffffffffffffffffffffffff1614612595576040517f08c379a000000000000000000000000000000000000000000000000000000000815260206004820152602860248201527f43616e206f6e6c792062652063616c6c656420647572696e6720696e6974696160448201527f6c697a6174696f6e00000000000000000000000000000000000000000000000060648201526084016105c5565b61259e8161283d565b6040517f5df8122f00000000000000000000000000000000000000000000000000000000815230600482015273ffffffffffffffffffffffffffffffffffffffff7f0000000000000000000000000000000000000000000000000000000000000000166024820152731820a4b7618bde71dce8cdc73aab6c95905fad2490635df8122f90604401600060405180830381600087803b15801561263f57600080fd5b505af11580156105f1573d6000803e3d6000fd5b60005474010000000000000000000000000000000000000000900460ff16610dd8576040517f08c379a000000000000000000000000000000000000000000000000000000000815260206004820152601460248201527f5061757361626c653a206e6f742070617573656400000000000000000000000060448201526064016105c5565b60005474010000000000000000000000000000000000000000900460ff1615610dd8576040517f08c379a000000000000000000000000000000000000000000000000000000000815260206004820152601060248201527f5061757361626c653a207061757365640000000000000000000000000000000060448201526064016105c5565b6040517faabbb8ca00000000000000000000000000000000000000000000000000000000815273ffffffffffffffffffffffffffffffffffffffff7f000000000000000000000000000000000000000000000000000000000000000016600482015260248101829052600090731820a4b7618bde71dce8cdc73aab6c95905fad249063aabbb8ca9060440160206040518083038186803b1580156127ff57600080fd5b505afa158015612813573d6000803e3d6000fd5b505050506040513d601f19601f820116820180604052508101906128379190613238565b92915050565b60006128677ff86c915dad5894faca0dfa067c58fdf4307406d255ed0a65db394f82b77f53d45490565b73ffffffffffffffffffffffffffffffffffffffff161461290a576040517f08c379a000000000000000000000000000000000000000000000000000000000815260206004820152602860248201527f43616e206f6e6c792062652063616c6c656420647572696e6720696e6974696160448201527f6c697a6174696f6e00000000000000000000000000000000000000000000000060648201526084016105c5565b60008173ffffffffffffffffffffffffffffffffffffffff16635c60da1b6040518163ffffffff1660e01b815260040160206040518083038186803b15801561295257600080fd5b505afa158015612966573d6000803e3d6000fd5b505050506040513d601f19601f8201168201806040525081019061298a9190613238565b905073ffffffffffffffffffffffffffffffffffffffff8116612a2f576040517f08c379a000000000000000000000000000000000000000000000000000000000815260206004820152602c60248201527f696e697469616c697a6174696f6e206661696c7572653a206e6f7468696e672060448201527f746f20696d706c656d656e74000000000000000000000000000000000000000060648201526084016105c5565b612a3881612a3c565b5050565b8073ffffffffffffffffffffffffffffffffffffffff16612a7b7ff86c915dad5894faca0dfa067c58fdf4307406d255ed0a65db394f82b77f53d45490565b73ffffffffffffffffffffffffffffffffffffffff161415612af9576040517f08c379a000000000000000000000000000000000000000000000000000000000815260206004820152601f60248201527f496d706c656d656e746174696f6e20616c7265616479206d61746368696e670060448201526064016105c5565b7ff86c915dad5894faca0dfa067c58fdf4307406d255ed0a65db394f82b77f53d455565b508054612b299061300a565b6000825580601f10612b39575050565b601f016020900490600052602060002090810190611a859190612bf9565b828054612b639061300a565b90600052602060002090601f016020900481019282612b855760008555612be9565b82601f10612bbc578280017fffffffffffffffffffffffffffffffffffffffffffffffffffffffffffffff00823516178555612be9565b82800160010185558215612be9579182015b82811115612be9578235825591602001919060010190612bce565b50612bf5929150612bf9565b5090565b5b80821115612bf55760008155600101612bfa565b73ffffffffffffffffffffffffffffffffffffffff81168114611a8557600080fd5b7f4e487b7100000000000000000000000000000000000000000000000000000000600052604160045260246000fd5b604051601f82017fffffffffffffffffffffffffffffffffffffffffffffffffffffffffffffffe016810167ffffffffffffffff81118282101715612ca657612ca6612c30565b604052919050565b60008060408385031215612cc157600080fd5b8235612ccc81612c0e565b915060208381013567ffffffffffffffff80821115612cea57600080fd5b818601915086601f830112612cfe57600080fd5b813581811115612d1057612d10612c30565b612d40847fffffffffffffffffffffffffffffffffffffffffffffffffffffffffffffffe0601f84011601612c5f565b91508082528784828501011115612d5657600080fd5b80848401858401376000848284010152508093505050509250929050565b60008060408385031215612d8757600080fd5b823591506020830135612d9981612c0e565b809150509250929050565b600060208284031215612db657600080fd5b8135612dc181612c0e565b9392505050565b86815260006020878184015286604084015285606084015284608084015260c060a084015283518060c085015260005b81811015612e145785810183015185820160e001528201612df8565b81811115612e2657600060e083870101525b50601f017fffffffffffffffffffffffffffffffffffffffffffffffffffffffffffffffe0169290920160e00198975050505050505050565b7f4e487b7100000000000000000000000000000000000000000000000000000000600052602160045260246000fd5b6020810160058310612ec9577f4e487b7100000000000000000000000000000000000000000000000000000000600052602160045260246000fd5b91905290565b600080600060408486031215612ee457600080fd5b83359250602084013567ffffffffffffffff80821115612f0357600080fd5b818601915086601f830112612f1757600080fd5b813581811115612f2657600080fd5b8760208260061b8501011115612f3b57600080fd5b6020830194508093505050509250925092565b600060208284031215612f6057600080fd5b5035919050565b600080600080600080600060c0888a031215612f8257600080fd5b873596506020880135955060408801359450606088013593506080880135925060a088013567ffffffffffffffff80821115612fbd57600080fd5b818a0191508a601f830112612fd157600080fd5b813581811115612fe057600080fd5b8b6020828501011115612ff257600080fd5b60208301945080935050505092959891949750929550565b600181811c9082168061301e57607f821691505b60208210811415613058577f4e487b7100000000000000000000000000000000000000000000000000000000600052602260045260246000fd5b50919050565b8183526000602080850194508260005b858110156130b357813561308181612c0e565b73ffffffffffffffffffffffffffffffffffffffff16875281830135838801526040968701969091019060010161306e565b509495945050505050565b84815273ffffffffffffffffffffffffffffffffffffffff841660208201526060604082015260006130f460608301848661305e565b9695505050505050565b7f4e487b7100000000000000000000000000000000000000000000000000000000600052601160045260246000fd5b60008282101561313f5761313f6130fe565b500390565b7f4e487b7100000000000000000000000000000000000000000000000000000000600052603260045260246000fd5b60006040828403121561318557600080fd5b6040516040810181811067ffffffffffffffff821117156131a8576131a8612c30565b60405282356131b681612c0e565b81526020928301359281019290925250919050565b600082198211156131de576131de6130fe565b500190565b60007fffffffffffffffffffffffffffffffffffffffffffffffffffffffffffffffff821415613215576132156130fe565b5060010190565b60208152600061323060208301848661305e565b949350505050565b60006020828403121561324a57600080fd5b8151612dc181612c0e565b60006020828403121561326757600080fd5b5051919050565b60006020828403121561328057600080fd5b81518015158114612dc157600080fd5b87815286602082015285604082015284606082015283608082015260c060a08201528160c0820152818360e0830137600081830160e090810191909152601f9092017fffffffffffffffffffffffffffffffffffffffffffffffffffffffffffffffe0160101969550505050505056fea164736f6c6343000809000af86c915dad5894faca0dfa067c58fdf4307406d255ed0a65db394f82b77f53d4",
  "linkReferences": {},
  "deployedLinkReferences": {}
}