{
  "contractName": "CurrencyGovernance",
  "abi": [
    {
      "inputs": [
        {
          "internalType": "contract Policy",
          "name": "_policy",
          "type": "address"
        }
      ],
      "stateMutability": "nonpayable",
      "type": "constructor"
    },
    {
      "anonymous": false,
      "inputs": [
        {
          "indexed": false,
          "internalType": "address",
          "name": "trusteeAddress",
          "type": "address"
        },
        {
          "indexed": false,
          "internalType": "uint256",
          "name": "_numberOfRecipients",
          "type": "uint256"
        },
        {
          "indexed": false,
          "internalType": "uint256",
          "name": "_randomInflationReward",
          "type": "uint256"
        },
        {
          "indexed": false,
          "internalType": "uint256",
          "name": "_lockupDuration",
          "type": "uint256"
        },
        {
          "indexed": false,
          "internalType": "uint256",
          "name": "_lockupInterest",
          "type": "uint256"
        },
        {
          "indexed": false,
          "internalType": "uint256",
          "name": "_inflationMultiplier",
          "type": "uint256"
        }
      ],
      "name": "ProposalCreated",
      "type": "event"
    },
    {
      "anonymous": false,
      "inputs": [
        {
          "indexed": false,
          "internalType": "address",
          "name": "trusteeAddress",
          "type": "address"
        }
      ],
      "name": "ProposalDeleted",
      "type": "event"
    },
    {
      "anonymous": false,
      "inputs": [],
      "name": "RevealStarted",
      "type": "event"
    },
    {
      "anonymous": false,
      "inputs": [
        {
          "indexed": false,
          "internalType": "address",
          "name": "trustee",
          "type": "address"
        }
      ],
      "name": "VoteCast",
      "type": "event"
    },
    {
      "anonymous": false,
      "inputs": [
        {
          "indexed": false,
          "internalType": "address",
          "name": "winner",
          "type": "address"
        }
      ],
      "name": "VoteResults",
      "type": "event"
    },
    {
      "anonymous": false,
      "inputs": [
        {
          "indexed": true,
          "internalType": "address",
          "name": "voter",
          "type": "address"
        },
        {
          "indexed": false,
          "internalType": "address[]",
          "name": "votes",
          "type": "address[]"
        }
      ],
      "name": "VoteRevealed",
      "type": "event"
    },
    {
      "anonymous": false,
      "inputs": [],
      "name": "VoteStart",
      "type": "event"
    },
    {
      "inputs": [],
      "name": "PROPOSAL_TIME",
      "outputs": [
        {
          "internalType": "uint256",
          "name": "",
          "type": "uint256"
        }
      ],
      "stateMutability": "view",
      "type": "function"
    },
    {
      "inputs": [],
      "name": "REVEAL_TIME",
      "outputs": [
        {
          "internalType": "uint256",
          "name": "",
          "type": "uint256"
        }
      ],
      "stateMutability": "view",
      "type": "function"
    },
    {
      "inputs": [],
      "name": "VOTING_TIME",
      "outputs": [
        {
          "internalType": "uint256",
          "name": "",
          "type": "uint256"
        }
      ],
      "stateMutability": "view",
      "type": "function"
    },
    {
      "inputs": [
        {
          "internalType": "bytes32",
          "name": "",
          "type": "bytes32"
        },
        {
          "internalType": "address",
          "name": "_addr",
          "type": "address"
        }
      ],
      "name": "canImplementInterfaceForAddress",
      "outputs": [
        {
          "internalType": "bytes32",
          "name": "",
          "type": "bytes32"
        }
      ],
      "stateMutability": "view",
      "type": "function"
    },
    {
      "inputs": [],
      "name": "clone",
      "outputs": [
        {
          "internalType": "address",
          "name": "",
          "type": "address"
        }
      ],
      "stateMutability": "nonpayable",
      "type": "function"
    },
    {
      "inputs": [
        {
          "internalType": "address",
          "name": "",
          "type": "address"
        }
      ],
      "name": "commitments",
      "outputs": [
        {
          "internalType": "bytes32",
          "name": "",
          "type": "bytes32"
        }
      ],
      "stateMutability": "view",
      "type": "function"
    },
    {
      "inputs": [],
      "name": "implementation",
      "outputs": [
        {
          "internalType": "address",
          "name": "_impl",
          "type": "address"
        }
      ],
      "stateMutability": "view",
      "type": "function"
    },
    {
      "inputs": [],
      "name": "leader",
      "outputs": [
        {
          "internalType": "address",
          "name": "",
          "type": "address"
        }
      ],
      "stateMutability": "view",
      "type": "function"
    },
    {
      "inputs": [],
      "name": "policy",
      "outputs": [
        {
          "internalType": "contract Policy",
          "name": "",
          "type": "address"
        }
      ],
      "stateMutability": "view",
      "type": "function"
    },
    {
      "inputs": [
        {
          "internalType": "address",
          "name": "_delegate",
          "type": "address"
        },
        {
          "internalType": "bytes",
          "name": "_data",
          "type": "bytes"
        }
      ],
      "name": "policyCommand",
      "outputs": [],
      "stateMutability": "nonpayable",
      "type": "function"
    },
    {
      "inputs": [],
      "name": "proposalEnds",
      "outputs": [
        {
          "internalType": "uint256",
          "name": "",
          "type": "uint256"
        }
      ],
      "stateMutability": "view",
      "type": "function"
    },
    {
      "inputs": [
        {
          "internalType": "address",
          "name": "",
          "type": "address"
        }
      ],
      "name": "proposals",
      "outputs": [
        {
          "internalType": "bool",
          "name": "valid",
          "type": "bool"
        },
        {
          "internalType": "uint256",
          "name": "numberOfRecipients",
          "type": "uint256"
        },
        {
          "internalType": "uint256",
          "name": "randomInflationReward",
          "type": "uint256"
        },
        {
          "internalType": "uint256",
          "name": "lockupDuration",
          "type": "uint256"
        },
        {
          "internalType": "uint256",
          "name": "lockupInterest",
          "type": "uint256"
        },
        {
          "internalType": "uint256",
          "name": "inflationMultiplier",
          "type": "uint256"
        }
      ],
      "stateMutability": "view",
      "type": "function"
    },
    {
      "inputs": [],
      "name": "revealEnds",
      "outputs": [
        {
          "internalType": "uint256",
          "name": "",
          "type": "uint256"
        }
      ],
      "stateMutability": "view",
      "type": "function"
    },
    {
      "inputs": [
        {
          "internalType": "address",
          "name": "",
          "type": "address"
        }
      ],
      "name": "score",
      "outputs": [
        {
          "internalType": "uint256",
          "name": "",
          "type": "uint256"
        }
      ],
      "stateMutability": "view",
      "type": "function"
    },
    {
      "inputs": [
        {
          "internalType": "address",
          "name": "_addr",
          "type": "address"
        }
      ],
      "name": "setExpectedInterfaceSet",
      "outputs": [],
      "stateMutability": "nonpayable",
      "type": "function"
    },
    {
      "inputs": [],
      "name": "stage",
      "outputs": [
        {
          "internalType": "enum CurrencyGovernance.Stages",
          "name": "",
          "type": "uint8"
        }
      ],
      "stateMutability": "view",
      "type": "function"
    },
    {
      "inputs": [],
      "name": "votingEnds",
      "outputs": [
        {
          "internalType": "uint256",
          "name": "",
          "type": "uint256"
        }
      ],
      "stateMutability": "view",
      "type": "function"
    },
    {
      "inputs": [],
      "name": "winner",
      "outputs": [
        {
          "internalType": "address",
          "name": "",
          "type": "address"
        }
      ],
      "stateMutability": "view",
      "type": "function"
    },
    {
      "inputs": [],
      "name": "updateStage",
      "outputs": [],
      "stateMutability": "nonpayable",
      "type": "function"
    },
    {
      "inputs": [
        {
          "internalType": "uint256",
          "name": "_numberOfRecipients",
          "type": "uint256"
        },
        {
          "internalType": "uint256",
          "name": "_randomInflationReward",
          "type": "uint256"
        },
        {
          "internalType": "uint256",
          "name": "_lockupDuration",
          "type": "uint256"
        },
        {
          "internalType": "uint256",
          "name": "_lockupInterest",
          "type": "uint256"
        },
        {
          "internalType": "uint256",
          "name": "_inflationMultiplier",
          "type": "uint256"
        }
      ],
      "name": "propose",
      "outputs": [],
      "stateMutability": "nonpayable",
      "type": "function"
    },
    {
      "inputs": [],
      "name": "unpropose",
      "outputs": [],
      "stateMutability": "nonpayable",
      "type": "function"
    },
    {
      "inputs": [
        {
          "internalType": "bytes32",
          "name": "_commitment",
          "type": "bytes32"
        }
      ],
      "name": "commit",
      "outputs": [],
      "stateMutability": "nonpayable",
      "type": "function"
    },
    {
      "inputs": [
        {
          "internalType": "bytes32",
          "name": "_seed",
          "type": "bytes32"
        },
        {
          "internalType": "address[]",
          "name": "_votes",
          "type": "address[]"
        }
      ],
      "name": "reveal",
      "outputs": [],
      "stateMutability": "nonpayable",
      "type": "function"
    },
    {
      "inputs": [],
      "name": "compute",
      "outputs": [],
      "stateMutability": "nonpayable",
      "type": "function"
    },
    {
      "inputs": [
        {
          "internalType": "address",
          "name": "_self",
          "type": "address"
        }
      ],
      "name": "initialize",
      "outputs": [],
      "stateMutability": "nonpayable",
      "type": "function"
    }
  ],
  "bytecode": "0x60a06040523480156200001157600080fd5b5060405162001f2b38038062001f2b833981016040819052620000349162000156565b80806200004130620000c5565b6001600160a01b03908116608052604051635df8122f60e01b81523060048201529082166024820152731820a4b7618bde71dce8cdc73aab6c95905fad2490635df8122f90604401600060405180830381600087803b158015620000a457600080fd5b505af1158015620000b9573d6000803e3d6000fd5b50505050505062000188565b6001600160a01b038116620000e760008051602062001f0b8339815191525490565b6001600160a01b03161415620001435760405162461bcd60e51b815260206004820152601f60248201527f496d706c656d656e746174696f6e20616c7265616479206d61746368696e6700604482015260640160405180910390fd5b60008051602062001f0b83398151915255565b6000602082840312156200016957600080fd5b81516001600160a01b03811681146200018157600080fd5b9392505050565b608051611d44620001c7600039600081816101ad015281816103f501528181610cb801528181610dca0152818161153001526115b90152611d446000f3fe608060405234801561001057600080fd5b50600436106101a35760003560e01c806339634e0c116100ee578063af12645a11610097578063c4d66de811610071578063c4d66de814610391578063dfbf53ae146103a4578063e8fcf723146103b7578063f14fcbc8146103d757600080fd5b8063af12645a1461035f578063c040e6b814610368578063c062f5781461038957600080fd5b80635c60da1b116100c85780635c60da1b14610322578063776f3843146103375780637c33bd021461035757600080fd5b806339634e0c146102f357806340eedabb14610306578063495d18e21461031957600080fd5b8063249cb3fa1161015057806332f0b8fa1161012a57806332f0b8fa146102695780633341b44514610271578063376cf9bf146102ea57600080fd5b8063249cb3fa14610237578063280ee4ee146102585780632d913bfb1461026157600080fd5b806315f4eaa51161018157806315f4eaa5146102095780631a43c3381461021c57806322dae7ea1461022457600080fd5b80630505c8c9146101a857806309d7f23b146101ec57806309ed460714610201575b600080fd5b6101cf7f000000000000000000000000000000000000000000000000000000000000000081565b6040516001600160a01b0390911681526020015b60405180910390f35b6101ff6101fa366004611900565b6103ea565b005b6101cf6104a8565b6101ff6102173660046119c4565b610593565b6101ff610a23565b6101ff610232366004611a43565b610ae5565b61024a610245366004611a7e565b610cb4565b6040519081526020016101e3565b61024a60085481565b61024a607881565b61024a60b481565b6102bb61027f366004611aae565b600160208190526000918252604090912080549181015460028201546003830154600484015460059094015460ff909516949293919290919086565b6040805196151587526020870195909552938501929092526060840152608083015260a082015260c0016101e3565b61024a60075481565b6101ff610301366004611aae565b610dbf565b6005546101cf906001600160a01b031681565b61024a60095481565b600080516020611cef833981519152546101cf565b61024a610345366004611aae565b60036020526000908152604090205481565b6101ff610e70565b61024a61025881565b60005461037c90600160a01b900460ff1681565b6040516101e39190611ae8565b6101ff610fa0565b6101ff61039f366004611aae565b6110cd565b6006546101cf906001600160a01b031681565b61024a6103c5366004611aae565b60026020526000908152604090205481565b6101ff6103e5366004611b10565b611274565b336001600160a01b037f0000000000000000000000000000000000000000000000000000000000000000161461047e5760405162461bcd60e51b815260206004820152602e60248201527f4f6e6c792074686520706f6c69637920636f6e7472616374206d61792063616c60448201526d36103a3434b99036b2ba3437b21760911b60648201526084015b60405180910390fd5b600080825160208401855af43d806000803e81801561049c57816000f35b816000fd5b5050505050565b6000306104c1600080516020611cef8339815191525490565b6001600160a01b0316146105265760405162461bcd60e51b815260206004820152602660248201527f54686973206d6574686f642063616e6e6f742062652063616c6c6564206f6e20604482015265636c6f6e657360d01b6064820152608401610475565b6000610531306113f2565b60405163189acdbd60e31b81523060048201529091506001600160a01b0382169063c4d66de890602401600060405180830381600087803b15801561057557600080fd5b505af1158015610589573d6000803e3d6000fd5b5092949350505050565b600261059d610fa0565b8060048111156105af576105af611ad2565b600054600160a01b900460ff1660048111156105cd576105cd611ad2565b146105ea5760405162461bcd60e51b815260040161047590611b29565b336000908152600260205260409020546106465760405162461bcd60e51b815260206004820152601f60248201527f4e6f20756e72657665616c656420636f6d6d69746d656e7420657869737473006044820152606401610475565b816106935760405162461bcd60e51b815260206004820152601160248201527f43616e6e6f7420766f746520656d7074790000000000000000000000000000006044820152606401610475565b3360008181526002602090815260409182902054915191926106bb9288928891889101611b70565b604051602081830303815290604052805190602001201461071e5760405162461bcd60e51b815260206004820152601360248201527f436f6d6d69746d656e74206d69736d61746368000000000000000000000000006044820152606401610475565b600080805260036020527f3617319a054d772f909f7c479a2cebe5066e836a939412e32403c99029b92eff80546001929061075a908490611be8565b90915550600090505b828110156108fa57600084848381811061077f5761077f611bff565b90506020020160208101906107949190611aae565b6001600160a01b03811660009081526004602052604090205490915060ff16156107f05760405162461bcd60e51b815260206004820152600d60248201526c526570656174656420766f746560981b6044820152606401610475565b6001600160a01b03811660009081526001602052604090205460ff166108475760405162461bcd60e51b815260206004820152600c60248201526b496e76616c696420766f746560a01b6044820152606401610475565b6001600160a01b0381166000908152600460205260409020805460ff191660011790556108748285611be8565b6001600160a01b0382166000908152600360205260408120805490919061089c908490611c15565b90915550506005546001600160a01b0390811660009081526003602052604080822054928416825290205411156108e957600580546001600160a01b0319166001600160a01b0383161790555b506108f381611c2d565b9050610763565b5060005b8281101561096b5760006004600086868581811061091e5761091e611bff565b90506020020160208101906109339190611aae565b6001600160a01b031681526020810191909152604001600020805460ff191691151591909117905561096481611c2d565b90506108fe565b5061097461145b565b6040516324b07fd160e21b81523360048201526001600160a01b0391909116906392c1ff4490602401600060405180830381600087803b1580156109b757600080fd5b505af11580156109cb573d6000803e3d6000fd5b50503360008181526002602052604080822091909155519092507f271a27e8db358d2610c202bb3f6c8533e83fcfc3a0004228d4f0c7ca9cb646579150610a159086908690611c48565b60405180910390a250505050565b6003610a2d610fa0565b806004811115610a3f57610a3f611ad2565b600054600160a01b900460ff166004811115610a5d57610a5d611ad2565b14610a7a5760405162461bcd60e51b815260040161047590611b29565b600554600680546001600160a01b0319166001600160a01b0390921691821790556000805460ff60a01b1916600160a21b1790556040519081527f73fbb39fdc7a139b720135fc564b99589cf310badbc9f664472f9daef58df44c906020015b60405180910390a150565b610aed61145b565b6040516396d6487960e01b81523360048201526001600160a01b0391909116906396d648799060240160206040518083038186803b158015610b2e57600080fd5b505afa158015610b42573d6000803e3d6000fd5b505050506040513d601f19601f82011682018060405250810190610b669190611c96565b610bc25760405162461bcd60e51b815260206004820152602760248201527f4f6e6c792074727573746564206e6f6465732063616e2063616c6c2074686973604482015266081b595d1a1bd960ca1b6064820152608401610475565b6000610bcc610fa0565b806004811115610bde57610bde611ad2565b600054600160a01b900460ff166004811115610bfc57610bfc611ad2565b14610c195760405162461bcd60e51b815260040161047590611b29565b33600081815260016020818152604092839020805460ff1916831781559182018a90556002820189905560038201889055600482018790556005820186905582519384528301899052908201879052606082018690526080820185905260a08201849052907fa4422eac718f4b895d5ba5790c410e149e5d9990e5c0dccd6e3f5fee6a9f4fbd9060c00160405180910390a150505050505050565b60007f00000000000000000000000000000000000000000000000000000000000000006001600160a01b0316826001600160a01b03161480610d0357506000546001600160a01b038381169116145b610d755760405162461bcd60e51b815260206004820152603c60248201527f4f6e6c792074686520706f6c696379206f7220696e7465726661636520636f6e60448201527f74726163742063616e207365742074686520696e746572666163652e000000006064820152608401610475565b6040517f455243313832305f4143434550545f4d41474943000000000000000000000000602082015260340160405160208183030381529060405280519060200120905092915050565b336001600160a01b037f00000000000000000000000000000000000000000000000000000000000000001614610e4e5760405162461bcd60e51b815260206004820152602e60248201527f4f6e6c792074686520706f6c69637920636f6e7472616374206d61792063616c60448201526d36103a3434b99036b2ba3437b21760911b6064820152608401610475565b600080546001600160a01b0319166001600160a01b0392909216919091179055565b6000610e7a610fa0565b806004811115610e8c57610e8c611ad2565b600054600160a01b900460ff166004811115610eaa57610eaa611ad2565b14610ec75760405162461bcd60e51b815260040161047590611b29565b3360009081526001602052604090205460ff16610f365760405162461bcd60e51b815260206004820152602760248201527f596f7520646f206e6f74206861766520612070726f706f73616c20746f20756e60448201526670726f706f736560c81b6064820152608401610475565b336000818152600160208181526040808420805460ff19168155928301849055600283018490556003830184905560048301849055600590920192909255519182527f674e899ee205d534284d74d6670126f9c7a3a6f7de8f5e9c8fa67ca3d1088cdc9101610ada565b600042905060008054600160a01b900460ff166004811115610fc457610fc4611ad2565b148015610fd357506007548110155b15611013576000805460ff60a01b1916600160a01b1781556040517f1e1404280fbb8e5a27fb6edb0e7962663c44e22452eaa16f6a25b4e892e0130d9190a15b6001600054600160a01b900460ff16600481111561103357611033611ad2565b14801561104257506008548110155b15611082576000805460ff60a01b1916600160a11b1781556040517f3bcc93d35219aa0512d7c0d1ca10b0231f473e3d5f9396877d1b7215ee0ab3d59190a15b6002600054600160a01b900460ff1660048111156110a2576110a2611ad2565b1480156110b157506009548110155b156110ca576000805460ff60a01b1916600360a01b1790555b50565b60006110e5600080516020611cef8339815191525490565b6001600160a01b03161461114c5760405162461bcd60e51b815260206004820152602860248201527f43616e206f6e6c792062652063616c6c656420647572696e6720696e697469616044820152673634bd30ba34b7b760c11b6064820152608401610475565b6111558161148b565b61116161025842611c15565b60078190556111729060b490611c15565b600881905561118390607890611c15565b60095560008052600160208190527fa6eef7e35abe7026729641147f7915573c7e97b47efa546f5f6e3230263bcb49805460ff191690911781556111c561145b565b6001600160a01b0316634baa69016040518163ffffffff1660e01b815260040160206040518083038186803b1580156111fd57600080fd5b505afa158015611211573d6000803e3d6000fd5b505050506040513d601f19601f820116820180604052508101906112359190611cb8565b6000805260036020527f3617319a054d772f909f7c479a2cebe5066e836a939412e32403c99029b92eff555050600580546001600160a01b0319169055565b61127c61145b565b6040516396d6487960e01b81523360048201526001600160a01b0391909116906396d648799060240160206040518083038186803b1580156112bd57600080fd5b505afa1580156112d1573d6000803e3d6000fd5b505050506040513d601f19601f820116820180604052508101906112f59190611c96565b6113515760405162461bcd60e51b815260206004820152602760248201527f4f6e6c792074727573746564206e6f6465732063616e2063616c6c2074686973604482015266081b595d1a1bd960ca1b6064820152608401610475565b600161135b610fa0565b80600481111561136d5761136d611ad2565b600054600160a01b900460ff16600481111561138b5761138b611ad2565b146113a85760405162461bcd60e51b815260040161047590611b29565b3360008181526002602090815260409182902085905590519182527fb87a61d78bd15221c59b983f6ef032fbde0631e66bfe18d1421fe5a73c16741d910160405180910390a15050565b6000808260601b90506040517f3d602d80600a3d3981f3363d3d373d3d3d363d7300000000000000000000000081528160148201527f5af43d82803e903d91602b57fd5bf3000000000000000000000000000000000060288201526037816000f0949350505050565b60006114867f0e3d3f2b74f96e5fd24f23acf8b4b352d4e1d0d0ed45271f4e44aa64f98b22846115a2565b905090565b60006114a3600080516020611cef8339815191525490565b6001600160a01b03161461150a5760405162461bcd60e51b815260206004820152602860248201527f43616e206f6e6c792062652063616c6c656420647572696e6720696e697469616044820152673634bd30ba34b7b760c11b6064820152608401610475565b6115138161165d565b604051635df8122f60e01b81523060048201526001600160a01b037f0000000000000000000000000000000000000000000000000000000000000000166024820152731820a4b7618bde71dce8cdc73aab6c95905fad2490635df8122f90604401600060405180830381600087803b15801561158e57600080fd5b505af11580156104a1573d6000803e3d6000fd5b60405163555ddc6560e11b81526001600160a01b037f000000000000000000000000000000000000000000000000000000000000000016600482015260248101829052600090731820a4b7618bde71dce8cdc73aab6c95905fad249063aabbb8ca9060440160206040518083038186803b15801561161f57600080fd5b505afa158015611633573d6000803e3d6000fd5b505050506040513d601f19601f820116820180604052508101906116579190611cd1565b92915050565b6000611675600080516020611cef8339815191525490565b6001600160a01b0316146116dc5760405162461bcd60e51b815260206004820152602860248201527f43616e206f6e6c792062652063616c6c656420647572696e6720696e697469616044820152673634bd30ba34b7b760c11b6064820152608401610475565b6110ca8160006116f8600080516020611cef8339815191525490565b6001600160a01b03161461175f5760405162461bcd60e51b815260206004820152602860248201527f43616e206f6e6c792062652063616c6c656420647572696e6720696e697469616044820152673634bd30ba34b7b760c11b6064820152608401610475565b6000816001600160a01b0316635c60da1b6040518163ffffffff1660e01b815260040160206040518083038186803b15801561179a57600080fd5b505afa1580156117ae573d6000803e3d6000fd5b505050506040513d601f19601f820116820180604052508101906117d29190611cd1565b90506001600160a01b03811661183f5760405162461bcd60e51b815260206004820152602c60248201527f696e697469616c697a6174696f6e206661696c7572653a206e6f7468696e672060448201526b1d1bc81a5b5c1b195b595b9d60a21b6064820152608401610475565b6118488161184c565b5050565b806001600160a01b031661186c600080516020611cef8339815191525490565b6001600160a01b031614156118c35760405162461bcd60e51b815260206004820152601f60248201527f496d706c656d656e746174696f6e20616c7265616479206d61746368696e67006044820152606401610475565b600080516020611cef83398151915255565b6001600160a01b03811681146110ca57600080fd5b634e487b7160e01b600052604160045260246000fd5b6000806040838503121561191357600080fd5b823561191e816118d5565b9150602083013567ffffffffffffffff8082111561193b57600080fd5b818501915085601f83011261194f57600080fd5b813581811115611961576119616118ea565b604051601f8201601f19908116603f01168101908382118183101715611989576119896118ea565b816040528281528860208487010111156119a257600080fd5b8260208601602083013760006020848301015280955050505050509250929050565b6000806000604084860312156119d957600080fd5b83359250602084013567ffffffffffffffff808211156119f857600080fd5b818601915086601f830112611a0c57600080fd5b813581811115611a1b57600080fd5b8760208260051b8501011115611a3057600080fd5b6020830194508093505050509250925092565b600080600080600060a08688031215611a5b57600080fd5b505083359560208501359550604085013594606081013594506080013592509050565b60008060408385031215611a9157600080fd5b823591506020830135611aa3816118d5565b809150509250929050565b600060208284031215611ac057600080fd5b8135611acb816118d5565b9392505050565b634e487b7160e01b600052602160045260246000fd5b6020810160058310611b0a57634e487b7160e01b600052602160045260246000fd5b91905290565b600060208284031215611b2257600080fd5b5035919050565b60208082526027908201527f546869732063616c6c206973206e6f7420616c6c6f77656420617420746869736040820152661039ba30b3b29760c91b606082015260800190565b848152600060206bffffffffffffffffffffffff198660601b1681840152603483018560005b86811015611bc4578135611ba9816118d5565b6001600160a01b031683529183019190830190600101611b96565b509098975050505050505050565b634e487b7160e01b600052601160045260246000fd5b600082821015611bfa57611bfa611bd2565b500390565b634e487b7160e01b600052603260045260246000fd5b60008219821115611c2857611c28611bd2565b500190565b6000600019821415611c4157611c41611bd2565b5060010190565b60208082528181018390526000908460408401835b86811015611c8b578235611c70816118d5565b6001600160a01b031682529183019190830190600101611c5d565b509695505050505050565b600060208284031215611ca857600080fd5b81518015158114611acb57600080fd5b600060208284031215611cca57600080fd5b5051919050565b600060208284031215611ce357600080fd5b8151611acb816118d556fef86c915dad5894faca0dfa067c58fdf4307406d255ed0a65db394f82b77f53d4a26469706673582212206c20b0678db2ddbe6a5eba62e2e6e1ccd91ad9a8e21d4c287576bb4eb08cf78164736f6c63430008090033f86c915dad5894faca0dfa067c58fdf4307406d255ed0a65db394f82b77f53d4",
  "immutableReferences": {
    "12039": [
      {
        "length": 32,
        "start": 429
      },
      {
        "length": 32,
        "start": 1013
      },
      {
        "length": 32,
        "start": 3256
      },
      {
        "length": 32,
        "start": 3530
      },
      {
        "length": 32,
        "start": 5424
      },
      {
        "length": 32,
        "start": 5561
      }
    ]
  },
  "source": "// SPDX-License-Identifier: MIT\npragma solidity ^0.8.0;\n\nimport \"./TrustedNodes.sol\";\nimport \"../policy/Policy.sol\";\nimport \"../policy/PolicedUtils.sol\";\nimport \"../currency/IECO.sol\";\nimport \"./Inflation.sol\";\nimport \"../utils/TimeUtils.sol\";\nimport \"../VDF/VDFVerifier.sol\";\n\n/** @title Inflation/Deflation Process\n *\n * This contract oversees the voting on the currency inflation/deflation process.\n * Trusted nodes vote on a policy that is implemented the following generation\n * to manage the relative price of Eco tokens.\n */\ncontract CurrencyGovernance is PolicedUtils, TimeUtils {\n    enum Stages {\n        Propose,\n        Commit,\n        Reveal,\n        Compute,\n        Finished\n    }\n\n    Stages public stage;\n\n    struct GovernanceProposal {\n        bool valid;\n        uint256 numberOfRecipients;\n        uint256 randomInflationReward;\n        uint256 lockupDuration;\n        uint256 lockupInterest;\n        uint256 inflationMultiplier;\n    }\n\n    uint256 public constant PROPOSAL_TIME = 10 minutes;\n    uint256 public constant VOTING_TIME = 3 minutes;\n    uint256 public constant REVEAL_TIME = 2 minutes;\n\n    mapping(address => GovernanceProposal) public proposals;\n    mapping(address => bytes32) public commitments;\n    mapping(address => uint256) public score;\n\n    mapping(address => bool) internal voteCheck;\n\n    address public leader;\n    address public winner;\n\n    uint256 public proposalEnds;\n    uint256 public votingEnds;\n    uint256 public revealEnds;\n\n    event ProposalCreated(\n        address trusteeAddress,\n        uint256 _numberOfRecipients,\n        uint256 _randomInflationReward,\n        uint256 _lockupDuration,\n        uint256 _lockupInterest,\n        uint256 _inflationMultiplier\n    );\n\n    event ProposalDeleted(address trusteeAddress);\n\n    /** Fired when the voting stage begins.\n     * Triggered by updateStage().\n     */\n    event VoteStart();\n\n    /** Fired when a trustee casts a vote.\n     */\n    event VoteCast(address trustee);\n\n    /** Fired when the reveal stage begins.\n     * Triggered by updateStage().\n     */\n    event RevealStarted();\n\n    /** Fired when a vote is revealed, to create a voting history for all\n     * participants. Records the voter, as well as all of the parameters of\n     * the vote cast.\n     */\n    event VoteRevealed(address indexed voter, address[] votes);\n\n    /** Fired when vote results are computed, creating a permanent record of\n     * vote outcomes.\n     */\n    event VoteResults(address winner);\n\n    modifier atStage(Stages _stage) {\n        updateStage();\n        require(stage == _stage, \"This call is not allowed at this stage.\");\n        _;\n    }\n\n    function updateStage() public {\n        uint256 time = getTime();\n        if (stage == Stages.Propose && time >= proposalEnds) {\n            stage = Stages.Commit;\n            emit VoteStart();\n        }\n        if (stage == Stages.Commit && time >= votingEnds) {\n            stage = Stages.Reveal;\n            emit RevealStarted();\n        }\n        if (stage == Stages.Reveal && time >= revealEnds) {\n            stage = Stages.Compute;\n        }\n    }\n\n    constructor(Policy _policy) PolicedUtils(_policy) {}\n\n    /** Restrict access to trusted nodes only.\n     */\n    modifier onlyTrusted() {\n        require(\n            getTrustedNodes().isTrusted(msg.sender),\n            \"Only trusted nodes can call this method\"\n        );\n        _;\n    }\n\n    function propose(\n        uint256 _numberOfRecipients,\n        uint256 _randomInflationReward,\n        uint256 _lockupDuration,\n        uint256 _lockupInterest,\n        uint256 _inflationMultiplier\n    ) external onlyTrusted atStage(Stages.Propose) {\n        GovernanceProposal storage p = proposals[msg.sender];\n        p.valid = true;\n        p.numberOfRecipients = _numberOfRecipients;\n        p.randomInflationReward = _randomInflationReward;\n        p.lockupDuration = _lockupDuration;\n        p.lockupInterest = _lockupInterest;\n        p.inflationMultiplier = _inflationMultiplier;\n\n        emit ProposalCreated(\n            msg.sender,\n            _numberOfRecipients,\n            _randomInflationReward,\n            _lockupDuration,\n            _lockupInterest,\n            _inflationMultiplier\n        );\n    }\n\n    function unpropose() external atStage(Stages.Propose) {\n        require(\n            proposals[msg.sender].valid,\n            \"You do not have a proposal to unpropose\"\n        );\n\n        delete proposals[msg.sender];\n        emit ProposalDeleted(msg.sender);\n    }\n\n    function commit(bytes32 _commitment)\n        external\n        onlyTrusted\n        atStage(Stages.Commit)\n    {\n        commitments[msg.sender] = _commitment;\n        emit VoteCast(msg.sender);\n    }\n\n    function reveal(bytes32 _seed, address[] calldata _votes)\n        external\n        atStage(Stages.Reveal)\n    {\n        require(\n            commitments[msg.sender] != bytes32(0),\n            \"No unrevealed commitment exists\"\n        );\n        require(_votes.length > 0, \"Cannot vote empty\");\n        require(\n            keccak256(abi.encodePacked(_seed, msg.sender, _votes)) ==\n                commitments[msg.sender],\n            \"Commitment mismatch\"\n        );\n\n        // remove the trustee's default vote\n        score[address(0)] -= 1;\n\n        for (uint256 i = 0; i < _votes.length; ++i) {\n            address v = _votes[i];\n            require(!voteCheck[v], \"Repeated vote\");\n            require(proposals[v].valid, \"Invalid vote\");\n\n            voteCheck[v] = true;\n            score[v] += _votes.length - i;\n\n            if (score[v] > score[leader]) {\n                leader = v;\n            }\n        }\n\n        for (uint256 i = 0; i < _votes.length; ++i) {\n            voteCheck[_votes[i]] = false;\n        }\n\n        // record the trustee's vote\n        getTrustedNodes().recordVote(msg.sender);\n\n        delete commitments[msg.sender];\n        emit VoteRevealed(msg.sender, _votes);\n    }\n\n    function compute() external atStage(Stages.Compute) {\n        winner = leader;\n        stage = Stages.Finished;\n\n        emit VoteResults(winner);\n    }\n\n    /** Initialize the storage context using parameters copied from the\n     * original contract (provided as _self).\n     *\n     * Can only be called once, during proxy initialization.\n     *\n     * @param _self The original contract address.\n     */\n    function initialize(address _self) public override onlyConstruction {\n        super.initialize(_self);\n        proposalEnds = getTime() + PROPOSAL_TIME;\n        votingEnds = proposalEnds + VOTING_TIME;\n        revealEnds = votingEnds + REVEAL_TIME;\n\n        GovernanceProposal storage p = proposals[address(0)];\n        p.valid = true;\n        // the default values for everything are currently 0\n\n        // sets the default votes for the default proposal\n        score[address(0)] = getTrustedNodes().numTrustees();\n        leader = address(0);\n    }\n\n    function getTrustedNodes() private view returns (TrustedNodes) {\n        return TrustedNodes(policyFor(ID_TRUSTED_NODES));\n    }\n}\n",
  "sourcePath": "/Users/dirksmac/dev/eco/currency/contracts/governance/CurrencyGovernance.sol",
  "compiler": {
    "name": "solc",
    "version": "0.8.9+commit.e5eed63a.Emscripten.clang"
  },
  "schemaVersion": "3.4.3",
  "updatedAt": "2022-07-01T19:00:50.492Z",
  "devdoc": {
    "kind": "dev",
    "methods": {
      "canImplementInterfaceForAddress(bytes32,address)": {
        "params": {
          "_addr": "The address of the contract we might act on behalf of."
        }
      },
      "initialize(address)": {
        "params": {
          "_self": "The original contract address."
        }
      },
      "policyCommand(address,bytes)": {
        "params": {
          "_data": "The call message/data to execute on.",
          "_delegate": "The address of the contract to delegate execution to."
        }
      }
    },
    "title": "Inflation/Deflation Process This contract oversees the voting on the currency inflation/deflation process. Trusted nodes vote on a policy that is implemented the following generation to manage the relative price of Eco tokens.",
    "version": 1
  },
  "userdoc": {
    "events": {
      "RevealStarted()": {
        "notice": "Fired when the reveal stage begins. Triggered by updateStage()."
      },
      "VoteCast(address)": {
        "notice": "Fired when a trustee casts a vote."
      },
      "VoteResults(address)": {
        "notice": "Fired when vote results are computed, creating a permanent record of vote outcomes."
      },
      "VoteRevealed(address,address[])": {
        "notice": "Fired when a vote is revealed, to create a voting history for all participants. Records the voter, as well as all of the parameters of the vote cast."
      },
      "VoteStart()": {
        "notice": "Fired when the voting stage begins. Triggered by updateStage()."
      }
    },
    "kind": "user",
    "methods": {
      "canImplementInterfaceForAddress(bytes32,address)": {
        "notice": "ERC1820 permissioning interface"
      },
      "clone()": {
        "notice": "Create a clone of this contract Creates a clone of this contract by instantiating a proxy at a new address and initializing it based on the current contract. Uses optionality.io's CloneFactory functionality. This is used to save gas cost during deployments. Rather than including the full contract code in every contract that might instantiate it we can deploy it once and reference the location it was deployed to. Then calls to clone() can be used to create instances as needed without increasing the code size of the instantiating contract."
      },
      "implementation()": {
        "notice": "Get the address of the proxy target contract."
      },
      "initialize(address)": {
        "notice": "Initialize the storage context using parameters copied from the original contract (provided as _self). Can only be called once, during proxy initialization."
      },
      "policy()": {
        "notice": "The address of the root policy instance overseeing this instance. This address can be used for ERC1820 lookup of other components, ERC1820 lookup of role policies, and interaction with the policy hierarchy."
      },
      "policyCommand(address,bytes)": {
        "notice": "Execute code as indicated by the managing policy contract We allow the managing policy contract to execute arbitrary code in our context by allowing it to specify an implementation address and some message data, and then using delegatecall to execute the code at the implementation address, passing in the message data, all within our own address space."
      },
      "setExpectedInterfaceSet(address)": {
        "notice": "Set the expected interface set"
      }
    },
    "version": 1
  }
}