{
  "_format": "hh-sol-artifact-1",
  "contractName": "CurrencyTimer",
  "sourceName": "contracts/governance/CurrencyTimer.sol",
  "abi": [
    {
      "inputs": [
        {
          "internalType": "contract Policy",
          "name": "_policy",
          "type": "address"
        },
        {
          "internalType": "contract CurrencyGovernance",
          "name": "_borda",
          "type": "address"
        },
        {
          "internalType": "contract RandomInflation",
          "name": "_inflation",
          "type": "address"
        },
        {
          "internalType": "contract Lockup",
          "name": "_lockup",
          "type": "address"
        },
        {
          "internalType": "contract InflationRootHashProposal",
          "name": "_inflationRootHashProposal",
          "type": "address"
        },
        {
          "internalType": "contract ECO",
          "name": "_ecoAddr",
          "type": "address"
        }
      ],
      "stateMutability": "nonpayable",
      "type": "constructor"
    },
    {
      "anonymous": false,
      "inputs": [
        {
          "indexed": true,
          "internalType": "contract CurrencyGovernance",
          "name": "addr",
          "type": "address"
        }
      ],
      "name": "NewCurrencyGovernance",
      "type": "event"
    },
    {
      "anonymous": false,
      "inputs": [
        {
          "indexed": true,
          "internalType": "contract RandomInflation",
          "name": "addr",
          "type": "address"
        }
      ],
      "name": "NewInflation",
      "type": "event"
    },
    {
      "anonymous": false,
      "inputs": [
        {
          "indexed": true,
          "internalType": "contract InflationRootHashProposal",
          "name": "inflationRootHashProposalContract",
          "type": "address"
        },
        {
          "indexed": true,
          "internalType": "uint256",
          "name": "generation",
          "type": "uint256"
        }
      ],
      "name": "NewInflationRootHashProposal",
      "type": "event"
    },
    {
      "anonymous": false,
      "inputs": [
        {
          "indexed": true,
          "internalType": "contract Lockup",
          "name": "addr",
          "type": "address"
        }
      ],
      "name": "NewLockup",
      "type": "event"
    },
    {
      "inputs": [],
      "name": "bordaImpl",
      "outputs": [
        {
          "internalType": "contract CurrencyGovernance",
          "name": "",
          "type": "address"
        }
      ],
      "stateMutability": "view",
      "type": "function"
    },
    {
      "inputs": [
        {
          "internalType": "bytes32",
          "name": "",
          "type": "bytes32"
        },
        {
          "internalType": "address",
          "name": "_addr",
          "type": "address"
        }
      ],
      "name": "canImplementInterfaceForAddress",
      "outputs": [
        {
          "internalType": "bytes32",
          "name": "",
          "type": "bytes32"
        }
      ],
      "stateMutability": "view",
      "type": "function"
    },
    {
      "inputs": [],
      "name": "clone",
      "outputs": [
        {
          "internalType": "address",
          "name": "",
          "type": "address"
        }
      ],
      "stateMutability": "nonpayable",
      "type": "function"
    },
    {
      "inputs": [],
      "name": "currentGeneration",
      "outputs": [
        {
          "internalType": "uint256",
          "name": "",
          "type": "uint256"
        }
      ],
      "stateMutability": "view",
      "type": "function"
    },
    {
      "inputs": [],
      "name": "ecoToken",
      "outputs": [
        {
          "internalType": "contract ECO",
          "name": "",
          "type": "address"
        }
      ],
      "stateMutability": "view",
      "type": "function"
    },
    {
      "inputs": [],
      "name": "implementation",
      "outputs": [
        {
          "internalType": "address",
          "name": "_impl",
          "type": "address"
        }
      ],
      "stateMutability": "view",
      "type": "function"
    },
    {
      "inputs": [],
      "name": "inflationImpl",
      "outputs": [
        {
          "internalType": "contract RandomInflation",
          "name": "",
          "type": "address"
        }
      ],
      "stateMutability": "view",
      "type": "function"
    },
    {
      "inputs": [],
      "name": "inflationRootHashProposalImpl",
      "outputs": [
        {
          "internalType": "contract InflationRootHashProposal",
          "name": "",
          "type": "address"
        }
      ],
      "stateMutability": "view",
      "type": "function"
    },
    {
      "inputs": [
        {
          "internalType": "address",
          "name": "_self",
          "type": "address"
        }
      ],
      "name": "initialize",
      "outputs": [],
      "stateMutability": "nonpayable",
      "type": "function"
    },
    {
      "inputs": [
        {
          "internalType": "address",
          "name": "",
          "type": "address"
        }
      ],
      "name": "isLockup",
      "outputs": [
        {
          "internalType": "bool",
          "name": "",
          "type": "bool"
        }
      ],
      "stateMutability": "view",
      "type": "function"
    },
    {
      "inputs": [],
      "name": "lockupImpl",
      "outputs": [
        {
          "internalType": "contract Lockup",
          "name": "",
          "type": "address"
        }
      ],
      "stateMutability": "view",
      "type": "function"
    },
    {
      "inputs": [
        {
          "internalType": "address",
          "name": "_withdrawer",
          "type": "address"
        },
        {
          "internalType": "uint256",
          "name": "_amount",
          "type": "uint256"
        },
        {
          "internalType": "bool",
          "name": "_penalty",
          "type": "bool"
        }
      ],
      "name": "lockupWithdrawal",
      "outputs": [],
      "stateMutability": "nonpayable",
      "type": "function"
    },
    {
      "inputs": [
        {
          "internalType": "uint256",
          "name": "",
          "type": "uint256"
        }
      ],
      "name": "lockups",
      "outputs": [
        {
          "internalType": "contract Lockup",
          "name": "",
          "type": "address"
        }
      ],
      "stateMutability": "view",
      "type": "function"
    },
    {
      "inputs": [],
      "name": "notifyGenerationIncrease",
      "outputs": [],
      "stateMutability": "nonpayable",
      "type": "function"
    },
    {
      "inputs": [],
      "name": "policy",
      "outputs": [
        {
          "internalType": "contract Policy",
          "name": "",
          "type": "address"
        }
      ],
      "stateMutability": "view",
      "type": "function"
    },
    {
      "inputs": [
        {
          "internalType": "address",
          "name": "_delegate",
          "type": "address"
        },
        {
          "internalType": "bytes",
          "name": "_data",
          "type": "bytes"
        }
      ],
      "name": "policyCommand",
      "outputs": [],
      "stateMutability": "nonpayable",
      "type": "function"
    },
    {
      "inputs": [
        {
          "internalType": "uint256",
          "name": "",
          "type": "uint256"
        }
      ],
      "name": "rootHashAddressPerGeneration",
      "outputs": [
        {
          "internalType": "contract InflationRootHashProposal",
          "name": "",
          "type": "address"
        }
      ],
      "stateMutability": "view",
      "type": "function"
    },
    {
      "inputs": [
        {
          "internalType": "address",
          "name": "_addr",
          "type": "address"
        }
      ],
      "name": "setExpectedInterfaceSet",
      "outputs": [],
      "stateMutability": "nonpayable",
      "type": "function"
    }
  ],
  "bytecode": "0x60c06040523480156200001157600080fd5b5060405162002638380380620026388339810160408190526200003491620001c3565b8580620000413062000119565b6001600160a01b03908116608052604051635df8122f60e01b81523060048201529082166024820152731820a4b7618bde71dce8cdc73aab6c95905fad2490635df8122f90604401600060405180830381600087803b158015620000a457600080fd5b505af1158015620000b9573d6000803e3d6000fd5b5050600180546001600160a01b03199081166001600160a01b039a8b1617909155600280548216988a16989098179097555050600380548616948716949094179093556004805490941691851691909117909255501660a0525062000257565b6001600160a01b0381166200013b600080516020620026188339815191525490565b6001600160a01b03161415620001975760405162461bcd60e51b815260206004820152601f60248201527f496d706c656d656e746174696f6e20616c7265616479206d61746368696e6700604482015260640160405180910390fd5b6000805160206200261883398151915255565b6001600160a01b0381168114620001c057600080fd5b50565b60008060008060008060c08789031215620001dd57600080fd5b8651620001ea81620001aa565b6020880151909650620001fd81620001aa565b60408801519095506200021081620001aa565b60608801519094506200022381620001aa565b60808801519093506200023681620001aa565b60a08801519092506200024981620001aa565b809150509295509295509295565b60805160a05161235c620002bc6000396000818161021101528181610ffa0152818161150601526115ab01526000818161014001528181610399015281816105da01528181610cdf0152818161132201528181611a560152611c13015261235c6000f3fe608060405234801561001057600080fd5b50600436106101365760003560e01c80638ddb428a116100b2578063a3ff3e7611610081578063c4d66de811610066578063c4d66de81461031b578063d3565c4c1461032e578063fefa7d1c1461034e57600080fd5b8063a3ff3e76146102d2578063b39572f01461030857600080fd5b80638ddb428a146102535780638e6f4fb71461025c5780639d6103e714610292578063a35b7c6a146102b257600080fd5b806335bbc7fe116101095780635c60da1b116100ee5780635c60da1b146101e5578063705d53041461020c5780638aae9c881461023357600080fd5b806335bbc7fe146101ca57806339634e0c146101d257600080fd5b80630505c8c91461013b57806309d7f23b1461018c57806309ed4607146101a1578063249cb3fa146101a9575b600080fd5b6101627f000000000000000000000000000000000000000000000000000000000000000081565b60405173ffffffffffffffffffffffffffffffffffffffff90911681526020015b60405180910390f35b61019f61019a36600461208f565b610381565b005b610162610475565b6101bc6101b7366004612171565b6105d6565b604051908152602001610183565b61019f610722565b61019f6101e03660046121a1565b61130a565b7ff86c915dad5894faca0dfa067c58fdf4307406d255ed0a65db394f82b77f53d454610162565b6101627f000000000000000000000000000000000000000000000000000000000000000081565b6002546101629073ffffffffffffffffffffffffffffffffffffffff1681565b6101bc60065481565b61016261026a3660046121c5565b60076020526000908152604090205473ffffffffffffffffffffffffffffffffffffffff1681565b6004546101629073ffffffffffffffffffffffffffffffffffffffff1681565b6001546101629073ffffffffffffffffffffffffffffffffffffffff1681565b6101626102e03660046121c5565b60056020526000908152604090205473ffffffffffffffffffffffffffffffffffffffff1681565b61019f6103163660046121de565b611416565b61019f6103293660046121a1565b6115da565b6003546101629073ffffffffffffffffffffffffffffffffffffffff1681565b61037161035c3660046121a1565b60086020526000908152604090205460ff1681565b6040519015158152602001610183565b3373ffffffffffffffffffffffffffffffffffffffff7f0000000000000000000000000000000000000000000000000000000000000000161461044b576040517f08c379a000000000000000000000000000000000000000000000000000000000815260206004820152602e60248201527f4f6e6c792074686520706f6c69637920636f6e7472616374206d61792063616c60448201527f6c2074686973206d6574686f642e00000000000000000000000000000000000060648201526084015b60405180910390fd5b600080825160208401855af43d806000803e81801561046957816000f35b816000fd5b5050505050565b6000306104a07ff86c915dad5894faca0dfa067c58fdf4307406d255ed0a65db394f82b77f53d45490565b73ffffffffffffffffffffffffffffffffffffffff1614610543576040517f08c379a000000000000000000000000000000000000000000000000000000000815260206004820152602660248201527f54686973206d6574686f642063616e6e6f742062652063616c6c6564206f6e2060448201527f636c6f6e657300000000000000000000000000000000000000000000000000006064820152608401610442565b600061054e306119b0565b6040517fc4d66de800000000000000000000000000000000000000000000000000000000815230600482015290915073ffffffffffffffffffffffffffffffffffffffff82169063c4d66de890602401600060405180830381600087803b1580156105b857600080fd5b505af11580156105cc573d6000803e3d6000fd5b5092949350505050565b60007f000000000000000000000000000000000000000000000000000000000000000073ffffffffffffffffffffffffffffffffffffffff168273ffffffffffffffffffffffffffffffffffffffff16148061064c575060005473ffffffffffffffffffffffffffffffffffffffff8381169116145b6106d8576040517f08c379a000000000000000000000000000000000000000000000000000000000815260206004820152603c60248201527f4f6e6c792074686520706f6c696379206f7220696e7465726661636520636f6e60448201527f74726163742063616e207365742074686520696e746572666163652e000000006064820152608401610442565b6040517f455243313832305f4143434550545f4d41474943000000000000000000000000602082015260340160405160208183030381529060405280519060200120905092915050565b60065460006107507fae30bfb87dec2bd0c16be9790f95842d84f58dc70b0a8f6ed22e9556176a7b19611a19565b73ffffffffffffffffffffffffffffffffffffffff1663172195226040518163ffffffff1660e01b815260040160206040518083038186803b15801561079557600080fd5b505afa1580156107a9573d6000803e3d6000fd5b505050506040513d601f19601f820116820180604052508101906107cd9190612225565b905081811415610839576040517f08c379a000000000000000000000000000000000000000000000000000000000815260206004820152601c60248201527f47656e65726174696f6e20686173206e6f7420696e63726561736564000000006044820152606401610442565b600681905560006108697fe4ee44a5d338a8b2452cc9552ec014656668eaacb55683101b7e1c2b167e5225611a19565b9050600080808073ffffffffffffffffffffffffffffffffffffffff851615610bcd5760038573ffffffffffffffffffffffffffffffffffffffff16635bf5d54c6040518163ffffffff1660e01b815260040160206040518083038186803b1580156108d457600080fd5b505afa1580156108e8573d6000803e3d6000fd5b505050506040513d601f19601f8201168201806040525081019061090c919061223e565b600481111561091d5761091d61225f565b60ff161015610987578473ffffffffffffffffffffffffffffffffffffffff1663c062f5786040518163ffffffff1660e01b8152600401600060405180830381600087803b15801561096e57600080fd5b505af1158015610982573d6000803e3d6000fd5b505050505b8473ffffffffffffffffffffffffffffffffffffffff16635bf5d54c6040518163ffffffff1660e01b815260040160206040518083038186803b1580156109cd57600080fd5b505afa1580156109e1573d6000803e3d6000fd5b505050506040513d601f19601f82011682018060405250810190610a05919061223e565b6004811115610a1657610a1661225f565b60ff1660031415610a82578473ffffffffffffffffffffffffffffffffffffffff16631a43c3386040518163ffffffff1660e01b8152600401600060405180830381600087803b158015610a6957600080fd5b505af1158015610a7d573d6000803e3d6000fd5b505050505b60008573ffffffffffffffffffffffffffffffffffffffff1663dfbf53ae6040518163ffffffff1660e01b815260040160206040518083038186803b158015610aca57600080fd5b505afa158015610ade573d6000803e3d6000fd5b505050506040513d601f19601f82011682018060405250810190610b02919061228e565b905073ffffffffffffffffffffffffffffffffffffffff811615610bcb576040517f3341b44500000000000000000000000000000000000000000000000000000000815273ffffffffffffffffffffffffffffffffffffffff8281166004830152871690633341b4459060240160a06040518083038186803b158015610b8757600080fd5b505afa158015610b9b573d6000803e3d6000fd5b505050506040513d601f19601f82011682018060405250810190610bbf91906122ab565b50929750909550935091505b505b600154604080517f09ed4607000000000000000000000000000000000000000000000000000000008152905160009273ffffffffffffffffffffffffffffffffffffffff16916309ed460791600480830192602092919082900301818787803b158015610c3957600080fd5b505af1158015610c4d573d6000803e3d6000fd5b505050506040513d601f19601f82011682018060405250810190610c71919061228e565b6040517f8791bf820000000000000000000000000000000000000000000000000000000081527fe4ee44a5d338a8b2452cc9552ec014656668eaacb55683101b7e1c2b167e5225600482015273ffffffffffffffffffffffffffffffffffffffff80831660248301529192507f000000000000000000000000000000000000000000000000000000000000000090911690638791bf8290604401600060405180830381600087803b158015610d2557600080fd5b505af1158015610d39573d6000803e3d6000fd5b505060405173ffffffffffffffffffffffffffffffffffffffff841692507fc8eb0807f29c19b6e62a59d50366b51bb80db9e416bf2da72a9e2ba62ced5c539150600090a25060048054604080517f09ed4607000000000000000000000000000000000000000000000000000000008152905173ffffffffffffffffffffffffffffffffffffffff909216926309ed46079282820192602092908290030181600087803b158015610de957600080fd5b505af1158015610dfd573d6000803e3d6000fd5b505050506040513d601f19601f82011682018060405250810190610e21919061228e565b6000888152600560205260409081902080547fffffffffffffffffffffffff00000000000000000000000000000000000000001673ffffffffffffffffffffffffffffffffffffffff939093169283179055517f1eb25e0a000000000000000000000000000000000000000000000000000000008152436004820152631eb25e0a90602401600060405180830381600087803b158015610ec057600080fd5b505af1158015610ed4573d6000803e3d6000fd5b5050506000888152600560205260408082205490518a935073ffffffffffffffffffffffffffffffffffffffff909116917f0a3629586ef6a0798366c51fcd43da8ba2b23d884d78a61f1c69b48139c4e07c91a3600084118015610f385750600083115b1561117757600254604080517f09ed4607000000000000000000000000000000000000000000000000000000008152905160009273ffffffffffffffffffffffffffffffffffffffff16916309ed460791600480830192602092919082900301818787803b158015610fa957600080fd5b505af1158015610fbd573d6000803e3d6000fd5b505050506040513d601f19601f82011682018060405250810190610fe1919061228e565b905073ffffffffffffffffffffffffffffffffffffffff7f0000000000000000000000000000000000000000000000000000000000000000166340c10f198261102a87896122eb565b6040517fffffffff0000000000000000000000000000000000000000000000000000000060e085901b16815273ffffffffffffffffffffffffffffffffffffffff90921660048301526024820152604401600060405180830381600087803b15801561109557600080fd5b505af11580156110a9573d6000803e3d6000fd5b50506040517fd7f5938f000000000000000000000000000000000000000000000000000000008152600481018890526024810187905273ffffffffffffffffffffffffffffffffffffffff8416925063d7f5938f9150604401600060405180830381600087803b15801561111c57600080fd5b505af1158015611130573d6000803e3d6000fd5b505060405173ffffffffffffffffffffffffffffffffffffffff841692507fff48288c21e2e06ac506925900264a71dee49de84c7530e0b1a2d8770d967ddc9150600090a2505b6000821180156111875750600081115b15611301576003546040517f442dbdc3000000000000000000000000000000000000000000000000000000008152600481018490526024810183905260009173ffffffffffffffffffffffffffffffffffffffff169063442dbdc390604401602060405180830381600087803b15801561120057600080fd5b505af1158015611214573d6000803e3d6000fd5b505050506040513d601f19601f82011682018060405250810190611238919061228e565b60405190915073ffffffffffffffffffffffffffffffffffffffff8216907fd1d86750540c7c58007ae3b2e9f614bb14361dbe04299875ebca9adc014841cf90600090a26000878152600760209081526040808320805473ffffffffffffffffffffffffffffffffffffffff9095167fffffffffffffffffffffffff000000000000000000000000000000000000000090951685179055928252600890522080547fffffffffffffffffffffffffffffffffffffffffffffffffffffffffffffff001660011790555b50505050505050565b3373ffffffffffffffffffffffffffffffffffffffff7f000000000000000000000000000000000000000000000000000000000000000016146113cf576040517f08c379a000000000000000000000000000000000000000000000000000000000815260206004820152602e60248201527f4f6e6c792074686520706f6c69637920636f6e7472616374206d61792063616c60448201527f6c2074686973206d6574686f642e0000000000000000000000000000000000006064820152608401610442565b600080547fffffffffffffffffffffffff00000000000000000000000000000000000000001673ffffffffffffffffffffffffffffffffffffffff92909216919091179055565b3360009081526008602052604090205460ff166114b4576040517f08c379a0000000000000000000000000000000000000000000000000000000008152602060048201526024808201527f4e6f7420617574686f72697a656420746f2063616c6c20746869732066756e6360448201527f74696f6e000000000000000000000000000000000000000000000000000000006064820152608401610442565b801561155f576040517f9dc29fac00000000000000000000000000000000000000000000000000000000815273ffffffffffffffffffffffffffffffffffffffff8481166004830152602482018490527f00000000000000000000000000000000000000000000000000000000000000001690639dc29fac906044015b600060405180830381600087803b15801561154b57600080fd5b505af1158015611301573d6000803e3d6000fd5b6040517f40c10f1900000000000000000000000000000000000000000000000000000000815273ffffffffffffffffffffffffffffffffffffffff8481166004830152602482018490527f000000000000000000000000000000000000000000000000000000000000000016906340c10f1990604401611531565b60006116047ff86c915dad5894faca0dfa067c58fdf4307406d255ed0a65db394f82b77f53d45490565b73ffffffffffffffffffffffffffffffffffffffff16146116a7576040517f08c379a000000000000000000000000000000000000000000000000000000000815260206004820152602860248201527f43616e206f6e6c792062652063616c6c656420647572696e6720696e6974696160448201527f6c697a6174696f6e0000000000000000000000000000000000000000000000006064820152608401610442565b6116b081611afa565b8073ffffffffffffffffffffffffffffffffffffffff1663a35b7c6a6040518163ffffffff1660e01b815260040160206040518083038186803b1580156116f657600080fd5b505afa15801561170a573d6000803e3d6000fd5b505050506040513d601f19601f8201168201806040525081019061172e919061228e565b600160006101000a81548173ffffffffffffffffffffffffffffffffffffffff021916908373ffffffffffffffffffffffffffffffffffffffff1602179055508073ffffffffffffffffffffffffffffffffffffffff16638aae9c886040518163ffffffff1660e01b815260040160206040518083038186803b1580156117b457600080fd5b505afa1580156117c8573d6000803e3d6000fd5b505050506040513d601f19601f820116820180604052508101906117ec919061228e565b600260006101000a81548173ffffffffffffffffffffffffffffffffffffffff021916908373ffffffffffffffffffffffffffffffffffffffff1602179055508073ffffffffffffffffffffffffffffffffffffffff1663d3565c4c6040518163ffffffff1660e01b815260040160206040518083038186803b15801561187257600080fd5b505afa158015611886573d6000803e3d6000fd5b505050506040513d601f19601f820116820180604052508101906118aa919061228e565b600360006101000a81548173ffffffffffffffffffffffffffffffffffffffff021916908373ffffffffffffffffffffffffffffffffffffffff1602179055508073ffffffffffffffffffffffffffffffffffffffff16639d6103e76040518163ffffffff1660e01b815260040160206040518083038186803b15801561193057600080fd5b505afa158015611944573d6000803e3d6000fd5b505050506040513d601f19601f82011682018060405250810190611968919061228e565b600480547fffffffffffffffffffffffff00000000000000000000000000000000000000001673ffffffffffffffffffffffffffffffffffffffff9290921691909117905550565b6000808260601b90506040517f3d602d80600a3d3981f3363d3d373d3d3d363d7300000000000000000000000081528160148201527f5af43d82803e903d91602b57fd5bf3000000000000000000000000000000000060288201526037816000f0949350505050565b6040517faabbb8ca00000000000000000000000000000000000000000000000000000000815273ffffffffffffffffffffffffffffffffffffffff7f000000000000000000000000000000000000000000000000000000000000000016600482015260248101829052600090731820a4b7618bde71dce8cdc73aab6c95905fad249063aabbb8ca9060440160206040518083038186803b158015611abc57600080fd5b505afa158015611ad0573d6000803e3d6000fd5b505050506040513d601f19601f82011682018060405250810190611af4919061228e565b92915050565b6000611b247ff86c915dad5894faca0dfa067c58fdf4307406d255ed0a65db394f82b77f53d45490565b73ffffffffffffffffffffffffffffffffffffffff1614611bc7576040517f08c379a000000000000000000000000000000000000000000000000000000000815260206004820152602860248201527f43616e206f6e6c792062652063616c6c656420647572696e6720696e6974696160448201527f6c697a6174696f6e0000000000000000000000000000000000000000000000006064820152608401610442565b611bd081611c85565b6040517f5df8122f00000000000000000000000000000000000000000000000000000000815230600482015273ffffffffffffffffffffffffffffffffffffffff7f0000000000000000000000000000000000000000000000000000000000000000166024820152731820a4b7618bde71dce8cdc73aab6c95905fad2490635df8122f90604401600060405180830381600087803b158015611c7157600080fd5b505af115801561046e573d6000803e3d6000fd5b6000611caf7ff86c915dad5894faca0dfa067c58fdf4307406d255ed0a65db394f82b77f53d45490565b73ffffffffffffffffffffffffffffffffffffffff1614611d52576040517f08c379a000000000000000000000000000000000000000000000000000000000815260206004820152602860248201527f43616e206f6e6c792062652063616c6c656420647572696e6720696e6974696160448201527f6c697a6174696f6e0000000000000000000000000000000000000000000000006064820152608401610442565b611d5b81611d5e565b50565b6000611d887ff86c915dad5894faca0dfa067c58fdf4307406d255ed0a65db394f82b77f53d45490565b73ffffffffffffffffffffffffffffffffffffffff1614611e2b576040517f08c379a000000000000000000000000000000000000000000000000000000000815260206004820152602860248201527f43616e206f6e6c792062652063616c6c656420647572696e6720696e6974696160448201527f6c697a6174696f6e0000000000000000000000000000000000000000000000006064820152608401610442565b60008173ffffffffffffffffffffffffffffffffffffffff16635c60da1b6040518163ffffffff1660e01b815260040160206040518083038186803b158015611e7357600080fd5b505afa158015611e87573d6000803e3d6000fd5b505050506040513d601f19601f82011682018060405250810190611eab919061228e565b905073ffffffffffffffffffffffffffffffffffffffff8116611f50576040517f08c379a000000000000000000000000000000000000000000000000000000000815260206004820152602c60248201527f696e697469616c697a6174696f6e206661696c7572653a206e6f7468696e672060448201527f746f20696d706c656d656e7400000000000000000000000000000000000000006064820152608401610442565b611f5981611f5d565b5050565b8073ffffffffffffffffffffffffffffffffffffffff16611f9c7ff86c915dad5894faca0dfa067c58fdf4307406d255ed0a65db394f82b77f53d45490565b73ffffffffffffffffffffffffffffffffffffffff16141561201a576040517f08c379a000000000000000000000000000000000000000000000000000000000815260206004820152601f60248201527f496d706c656d656e746174696f6e20616c7265616479206d61746368696e67006044820152606401610442565b7ff86c915dad5894faca0dfa067c58fdf4307406d255ed0a65db394f82b77f53d455565b73ffffffffffffffffffffffffffffffffffffffff81168114611d5b57600080fd5b7f4e487b7100000000000000000000000000000000000000000000000000000000600052604160045260246000fd5b600080604083850312156120a257600080fd5b82356120ad8161203e565b9150602083013567ffffffffffffffff808211156120ca57600080fd5b818501915085601f8301126120de57600080fd5b8135818111156120f0576120f0612060565b604051601f82017fffffffffffffffffffffffffffffffffffffffffffffffffffffffffffffffe0908116603f0116810190838211818310171561213657612136612060565b8160405282815288602084870101111561214f57600080fd5b8260208601602083013760006020848301015280955050505050509250929050565b6000806040838503121561218457600080fd5b8235915060208301356121968161203e565b809150509250929050565b6000602082840312156121b357600080fd5b81356121be8161203e565b9392505050565b6000602082840312156121d757600080fd5b5035919050565b6000806000606084860312156121f357600080fd5b83356121fe8161203e565b9250602084013591506040840135801515811461221a57600080fd5b809150509250925092565b60006020828403121561223757600080fd5b5051919050565b60006020828403121561225057600080fd5b8151600581106121be57600080fd5b7f4e487b7100000000000000000000000000000000000000000000000000000000600052602160045260246000fd5b6000602082840312156122a057600080fd5b81516121be8161203e565b600080600080600060a086880312156122c357600080fd5b5050835160208501516040860151606087015160809097015192989197509594509092509050565b6000817fffffffffffffffffffffffffffffffffffffffffffffffffffffffffffffffff048311821515161561234a577f4e487b7100000000000000000000000000000000000000000000000000000000600052601160045260246000fd5b50029056fea164736f6c6343000809000af86c915dad5894faca0dfa067c58fdf4307406d255ed0a65db394f82b77f53d4",
  "linkReferences": {},
  "deployedLinkReferences": {}
}