{
  "_format": "hh-sol-artifact-1",
  "contractName": "CurrencyGovernance",
  "sourceName": "contracts/governance/monetary/CurrencyGovernance.sol",
  "abi": [
    {
      "inputs": [
        {
          "internalType": "contract Policy",
          "name": "_policy",
          "type": "address"
        }
      ],
      "stateMutability": "nonpayable",
      "type": "constructor"
    },
    {
      "anonymous": false,
      "inputs": [
        {
          "indexed": false,
          "internalType": "address",
          "name": "account",
          "type": "address"
        }
      ],
      "name": "Paused",
      "type": "event"
    },
    {
      "anonymous": false,
      "inputs": [
        {
          "indexed": true,
          "internalType": "address",
          "name": "pauser",
          "type": "address"
        }
      ],
      "name": "PauserAssignment",
      "type": "event"
    },
    {
      "anonymous": false,
      "inputs": [
        {
          "indexed": true,
          "internalType": "address",
          "name": "trusteeAddress",
          "type": "address"
        },
        {
          "indexed": false,
          "internalType": "uint256",
          "name": "_numberOfRecipients",
          "type": "uint256"
        },
        {
          "indexed": false,
          "internalType": "uint256",
          "name": "_randomInflationReward",
          "type": "uint256"
        },
        {
          "indexed": false,
          "internalType": "uint256",
          "name": "_lockupDuration",
          "type": "uint256"
        },
        {
          "indexed": false,
          "internalType": "uint256",
          "name": "_lockupInterest",
          "type": "uint256"
        },
        {
          "indexed": false,
          "internalType": "uint256",
          "name": "_inflationMultiplier",
          "type": "uint256"
        },
        {
          "indexed": false,
          "internalType": "string",
          "name": "_description",
          "type": "string"
        }
      ],
      "name": "ProposalCreation",
      "type": "event"
    },
    {
      "anonymous": false,
      "inputs": [
        {
          "indexed": true,
          "internalType": "address",
          "name": "trustee",
          "type": "address"
        }
      ],
      "name": "ProposalRetraction",
      "type": "event"
    },
    {
      "anonymous": false,
      "inputs": [],
      "name": "RevealStart",
      "type": "event"
    },
    {
      "anonymous": false,
      "inputs": [
        {
          "indexed": false,
          "internalType": "address",
          "name": "account",
          "type": "address"
        }
      ],
      "name": "Unpaused",
      "type": "event"
    },
    {
      "anonymous": false,
      "inputs": [
        {
          "indexed": true,
          "internalType": "address",
          "name": "trustee",
          "type": "address"
        }
      ],
      "name": "VoteCast",
      "type": "event"
    },
    {
      "anonymous": false,
      "inputs": [
        {
          "indexed": true,
          "internalType": "address",
          "name": "winner",
          "type": "address"
        }
      ],
      "name": "VoteResult",
      "type": "event"
    },
    {
      "anonymous": false,
      "inputs": [
        {
          "indexed": true,
          "internalType": "address",
          "name": "voter",
          "type": "address"
        },
        {
          "indexed": false,
          "internalType": "address[]",
          "name": "votes",
          "type": "address[]"
        }
      ],
      "name": "VoteReveal",
      "type": "event"
    },
    {
      "anonymous": false,
      "inputs": [],
      "name": "VoteStart",
      "type": "event"
    },
    {
      "inputs": [],
      "name": "IDEMPOTENT_INFLATION_MULTIPLIER",
      "outputs": [
        {
          "internalType": "uint256",
          "name": "",
          "type": "uint256"
        }
      ],
      "stateMutability": "view",
      "type": "function"
    },
    {
      "inputs": [],
      "name": "MAX_DATA",
      "outputs": [
        {
          "internalType": "uint256",
          "name": "",
          "type": "uint256"
        }
      ],
      "stateMutability": "view",
      "type": "function"
    },
    {
      "inputs": [],
      "name": "PROPOSAL_TIME",
      "outputs": [
        {
          "internalType": "uint256",
          "name": "",
          "type": "uint256"
        }
      ],
      "stateMutability": "view",
      "type": "function"
    },
    {
      "inputs": [],
      "name": "REVEAL_TIME",
      "outputs": [
        {
          "internalType": "uint256",
          "name": "",
          "type": "uint256"
        }
      ],
      "stateMutability": "view",
      "type": "function"
    },
    {
      "inputs": [],
      "name": "VOTING_TIME",
      "outputs": [
        {
          "internalType": "uint256",
          "name": "",
          "type": "uint256"
        }
      ],
      "stateMutability": "view",
      "type": "function"
    },
    {
      "inputs": [
        {
          "internalType": "bytes32",
          "name": "",
          "type": "bytes32"
        },
        {
          "internalType": "address",
          "name": "_addr",
          "type": "address"
        }
      ],
      "name": "canImplementInterfaceForAddress",
      "outputs": [
        {
          "internalType": "bytes32",
          "name": "",
          "type": "bytes32"
        }
      ],
      "stateMutability": "view",
      "type": "function"
    },
    {
      "inputs": [],
      "name": "clone",
      "outputs": [
        {
          "internalType": "address",
          "name": "",
          "type": "address"
        }
      ],
      "stateMutability": "nonpayable",
      "type": "function"
    },
    {
      "inputs": [
        {
          "internalType": "bytes32",
          "name": "_commitment",
          "type": "bytes32"
        }
      ],
      "name": "commit",
      "outputs": [],
      "stateMutability": "nonpayable",
      "type": "function"
    },
    {
      "inputs": [
        {
          "internalType": "address",
          "name": "",
          "type": "address"
        }
      ],
      "name": "commitments",
      "outputs": [
        {
          "internalType": "bytes32",
          "name": "",
          "type": "bytes32"
        }
      ],
      "stateMutability": "view",
      "type": "function"
    },
    {
      "inputs": [],
      "name": "compute",
      "outputs": [],
      "stateMutability": "nonpayable",
      "type": "function"
    },
    {
      "inputs": [],
      "name": "currentStage",
      "outputs": [
        {
          "internalType": "enum CurrencyGovernance.Stage",
          "name": "",
          "type": "uint8"
        }
      ],
      "stateMutability": "view",
      "type": "function"
    },
    {
      "inputs": [],
      "name": "implementation",
      "outputs": [
        {
          "internalType": "address",
          "name": "_impl",
          "type": "address"
        }
      ],
      "stateMutability": "view",
      "type": "function"
    },
    {
      "inputs": [
        {
          "internalType": "address",
          "name": "_self",
          "type": "address"
        }
      ],
      "name": "initialize",
      "outputs": [],
      "stateMutability": "nonpayable",
      "type": "function"
    },
    {
      "inputs": [],
      "name": "leader",
      "outputs": [
        {
          "internalType": "address",
          "name": "",
          "type": "address"
        }
      ],
      "stateMutability": "view",
      "type": "function"
    },
    {
      "inputs": [],
      "name": "pause",
      "outputs": [],
      "stateMutability": "nonpayable",
      "type": "function"
    },
    {
      "inputs": [],
      "name": "paused",
      "outputs": [
        {
          "internalType": "bool",
          "name": "",
          "type": "bool"
        }
      ],
      "stateMutability": "view",
      "type": "function"
    },
    {
      "inputs": [],
      "name": "pauser",
      "outputs": [
        {
          "internalType": "address",
          "name": "",
          "type": "address"
        }
      ],
      "stateMutability": "view",
      "type": "function"
    },
    {
      "inputs": [],
      "name": "policy",
      "outputs": [
        {
          "internalType": "contract Policy",
          "name": "",
          "type": "address"
        }
      ],
      "stateMutability": "view",
      "type": "function"
    },
    {
      "inputs": [
        {
          "internalType": "address",
          "name": "_delegate",
          "type": "address"
        },
        {
          "internalType": "bytes",
          "name": "_data",
          "type": "bytes"
        }
      ],
      "name": "policyCommand",
      "outputs": [],
      "stateMutability": "nonpayable",
      "type": "function"
    },
    {
      "inputs": [],
      "name": "proposalEnds",
      "outputs": [
        {
          "internalType": "uint256",
          "name": "",
          "type": "uint256"
        }
      ],
      "stateMutability": "view",
      "type": "function"
    },
    {
      "inputs": [
        {
          "internalType": "address",
          "name": "",
          "type": "address"
        }
      ],
      "name": "proposals",
      "outputs": [
        {
          "internalType": "uint256",
          "name": "numberOfRecipients",
          "type": "uint256"
        },
        {
          "internalType": "uint256",
          "name": "randomInflationReward",
          "type": "uint256"
        },
        {
          "internalType": "uint256",
          "name": "lockupDuration",
          "type": "uint256"
        },
        {
          "internalType": "uint256",
          "name": "lockupInterest",
          "type": "uint256"
        },
        {
          "internalType": "uint256",
          "name": "inflationMultiplier",
          "type": "uint256"
        },
        {
          "internalType": "string",
          "name": "description",
          "type": "string"
        }
      ],
      "stateMutability": "view",
      "type": "function"
    },
    {
      "inputs": [
        {
          "internalType": "uint256",
          "name": "_numberOfRecipients",
          "type": "uint256"
        },
        {
          "internalType": "uint256",
          "name": "_randomInflationReward",
          "type": "uint256"
        },
        {
          "internalType": "uint256",
          "name": "_lockupDuration",
          "type": "uint256"
        },
        {
          "internalType": "uint256",
          "name": "_lockupInterest",
          "type": "uint256"
        },
        {
          "internalType": "uint256",
          "name": "_inflationMultiplier",
          "type": "uint256"
        },
        {
          "internalType": "string",
          "name": "_description",
          "type": "string"
        }
      ],
      "name": "propose",
      "outputs": [],
      "stateMutability": "nonpayable",
      "type": "function"
    },
    {
      "inputs": [
        {
          "internalType": "bytes32",
          "name": "_seed",
          "type": "bytes32"
        },
        {
          "internalType": "address[]",
          "name": "_votes",
          "type": "address[]"
        }
      ],
      "name": "reveal",
      "outputs": [],
      "stateMutability": "nonpayable",
      "type": "function"
    },
    {
      "inputs": [],
      "name": "revealEnds",
      "outputs": [
        {
          "internalType": "uint256",
          "name": "",
          "type": "uint256"
        }
      ],
      "stateMutability": "view",
      "type": "function"
    },
    {
      "inputs": [
        {
          "internalType": "address",
          "name": "",
          "type": "address"
        }
      ],
      "name": "score",
      "outputs": [
        {
          "internalType": "uint256",
          "name": "",
          "type": "uint256"
        }
      ],
      "stateMutability": "view",
      "type": "function"
    },
    {
      "inputs": [
        {
          "internalType": "address",
          "name": "_addr",
          "type": "address"
        }
      ],
      "name": "setExpectedInterfaceSet",
      "outputs": [],
      "stateMutability": "nonpayable",
      "type": "function"
    },
    {
      "inputs": [
        {
          "internalType": "address",
          "name": "_pauser",
          "type": "address"
        }
      ],
      "name": "setPauser",
      "outputs": [],
      "stateMutability": "nonpayable",
      "type": "function"
    },
    {
      "inputs": [],
      "name": "unpause",
      "outputs": [],
      "stateMutability": "nonpayable",
      "type": "function"
    },
    {
      "inputs": [],
      "name": "unpropose",
      "outputs": [],
      "stateMutability": "nonpayable",
      "type": "function"
    },
    {
      "inputs": [],
      "name": "updateStage",
      "outputs": [],
      "stateMutability": "nonpayable",
      "type": "function"
    },
    {
      "inputs": [],
      "name": "votingEnds",
      "outputs": [
        {
          "internalType": "uint256",
          "name": "",
          "type": "uint256"
        }
      ],
      "stateMutability": "view",
      "type": "function"
    },
    {
      "inputs": [],
      "name": "winner",
      "outputs": [
        {
          "internalType": "address",
          "name": "",
          "type": "address"
        }
      ],
      "stateMutability": "view",
      "type": "function"
    }
  ],
  "bytecode": "0x60a06040523480156200001157600080fd5b50604051620032eb380380620032eb833981016040819052620000349162000166565b80806200004130620000d5565b6001600160a01b0381166080819052604051635df8122f60e01b81523060048201526024810191909152731820a4b7618bde71dce8cdc73aab6c95905fad2490635df8122f90604401600060405180830381600087803b158015620000a557600080fd5b505af1158015620000ba573d6000803e3d6000fd5b50506000805460ff60a01b1916905550620001989350505050565b6001600160a01b038116620000f7600080516020620032cb8339815191525490565b6001600160a01b03161415620001535760405162461bcd60e51b815260206004820152601f60248201527f496d706c656d656e746174696f6e20616c7265616479206d61746368696e6700604482015260640160405180910390fd5b600080516020620032cb83398151915255565b6000602082840312156200017957600080fd5b81516001600160a01b03811681146200019157600080fd5b9392505050565b6080516130ed620001de600039600081816101fa015281816104ce01528181611026015281816111860152818161137e015281816123f601526124a501526130ed6000f3fe608060405234801561001057600080fd5b50600436106101f05760003560e01c8063495d18e21161010f578063a0b0607f116100a2578063dfbf53ae11610071578063dfbf53ae14610450578063e8fcf72314610470578063f14fcbc814610490578063f5274bd5146104a357600080fd5b8063a0b0607f14610424578063af12645a1461042c578063c062f57814610435578063c4d66de81461043d57600080fd5b8063776f3843116100de578063776f3843146103d45780637c33bd02146103f45780638456cb59146103fc5780639fd0506d1461040457600080fd5b8063495d18e2146103435780635bf5d54c1461034c5780635c60da1b1461037f5780635c975abb146103a657600080fd5b80632d88af4a11610187578063376cf9bf11610156578063376cf9bf146102ff57806339634e0c146103085780633f4ba83a1461031b57806340eedabb1461032357600080fd5b80632d88af4a146102b75780632d913bfb146102ca57806332f0b8fa146102d25780633341b445146102da57600080fd5b8063160cd179116101c3578063160cd179146102765780631a43c33814610293578063249cb3fa1461029b578063280ee4ee146102ae57600080fd5b80630505c8c9146101f557806309d7f23b1461024657806309ed46071461025b57806315f4eaa514610263575b600080fd5b61021c7f000000000000000000000000000000000000000000000000000000000000000081565b60405173ffffffffffffffffffffffffffffffffffffffff90911681526020015b60405180910390f35b610259610254366004612a74565b6104b6565b005b61021c6105aa565b610259610271366004612b56565b61070b565b610285670de0b6b3a764000081565b60405190815260200161023d565b610259610e5a565b6102856102a9366004612bd5565b611022565b61028560025481565b6102596102c5366004612c05565b61116e565b610285607881565b61028560b481565b6102ed6102e8366004612c05565b6112a2565b60405161023d96959493929190612c29565b61028560015481565b610259610316366004612c05565b611366565b610259611472565b60075461021c9073ffffffffffffffffffffffffffffffffffffffff1681565b61028560035481565b600054610372907501000000000000000000000000000000000000000000900460ff1681565b60405161023d9190612cef565b7ff86c915dad5894faca0dfa067c58fdf4307406d255ed0a65db394f82b77f53d45461021c565b60005474010000000000000000000000000000000000000000900460ff16604051901515815260200161023d565b6102856103e2366004612c05565b60066020526000908152604090205481565b6102596114fd565b6102596116e3565b60095461021c9073ffffffffffffffffffffffffffffffffffffffff1681565b61028560a081565b61028561025881565b61025961176c565b61025961044b366004612c05565b611956565b60085461021c9073ffffffffffffffffffffffffffffffffffffffff1681565b61028561047e366004612c05565b60056020526000908152604090205481565b61025961049e366004612d30565b611b66565b6102596104b1366004612d49565b611dae565b3373ffffffffffffffffffffffffffffffffffffffff7f00000000000000000000000000000000000000000000000000000000000000001614610580576040517f08c379a000000000000000000000000000000000000000000000000000000000815260206004820152602e60248201527f4f6e6c792074686520706f6c69637920636f6e7472616374206d61792063616c60448201527f6c2074686973206d6574686f642e00000000000000000000000000000000000060648201526084015b60405180910390fd5b600080825160208401855af43d806000803e81801561059e57816000f35b816000fd5b5050505050565b6000306105d57ff86c915dad5894faca0dfa067c58fdf4307406d255ed0a65db394f82b77f53d45490565b73ffffffffffffffffffffffffffffffffffffffff1614610678576040517f08c379a000000000000000000000000000000000000000000000000000000000815260206004820152602660248201527f54686973206d6574686f642063616e6e6f742062652063616c6c6564206f6e2060448201527f636c6f6e657300000000000000000000000000000000000000000000000000006064820152608401610577565b600061068330612158565b6040517fc4d66de800000000000000000000000000000000000000000000000000000000815230600482015290915073ffffffffffffffffffffffffffffffffffffffff82169063c4d66de890602401600060405180830381600087803b1580156106ed57600080fd5b505af1158015610701573d6000803e3d6000fd5b5092949350505050565b600261071561176c565b80600481111561072757610727612cc0565b6000547501000000000000000000000000000000000000000000900460ff16600481111561075757610757612cc0565b146107e4576040517f08c379a000000000000000000000000000000000000000000000000000000000815260206004820152602760248201527f546869732063616c6c206973206e6f7420616c6c6f776564206174207468697360448201527f2073746167652e000000000000000000000000000000000000000000000000006064820152608401610577565b818061084c576040517f08c379a000000000000000000000000000000000000000000000000000000000815260206004820152601160248201527f43616e6e6f7420766f746520656d7074790000000000000000000000000000006044820152606401610577565b336000908152600560205260409020546108c2576040517f08c379a000000000000000000000000000000000000000000000000000000000815260206004820152601f60248201527f4e6f20756e72657665616c656420636f6d6d69746d656e7420657869737473006044820152606401610577565b3360008181526005602090815260409182902054915191926108ea9289928991899101612dec565b6040516020818303038152906040528051906020012014610967576040517f08c379a000000000000000000000000000000000000000000000000000000000815260206004820152601360248201527f436f6d6d69746d656e74206d69736d61746368000000000000000000000000006044820152606401610577565b6000848480806020026020016040519081016040528093929190818152602001838360200280828437600092019190915250929350505060018311159050610b8f5760015b82811015610b8d57805b8015610b7c5760008382815181106109d0576109d0612e6e565b602002602001015190506000846001846109ea9190612ecc565b815181106109fa576109fa612e6e565b602002602001015190508073ffffffffffffffffffffffffffffffffffffffff168273ffffffffffffffffffffffffffffffffffffffff161415610a9a576040517f08c379a000000000000000000000000000000000000000000000000000000000815260206004820152601e60248201527f496e76616c696420766f74652c207265706561746564206164647265737300006044820152606401610577565b8073ffffffffffffffffffffffffffffffffffffffff168273ffffffffffffffffffffffffffffffffffffffff161015610b625780858481518110610ae157610ae1612e6e565b73ffffffffffffffffffffffffffffffffffffffff909216602092830291909101909101528185610b13600186612ecc565b81518110610b2357610b23612e6e565b602002602001019073ffffffffffffffffffffffffffffffffffffffff16908173ffffffffffffffffffffffffffffffffffffffff1681525050610b69565b5050610b7c565b505080610b7590612ee3565b90506109b6565b50610b8681612f18565b90506109ac565b505b3360009081526005602090815260408220829055818052600690527f54cdd369e4e8a8515e52ca72ec816c2101831ad1f18bf44102ed171459c9b4f8805460019290610bdc908490612ecc565b90915550600090505b82811015610d78576000868683818110610c0157610c01612e6e565b9050602002016020810190610c169190612c05565b73ffffffffffffffffffffffffffffffffffffffff811660009081526004602081905260409091200154909150610ca9576040517f08c379a000000000000000000000000000000000000000000000000000000000815260206004820152601e60248201527f496e76616c696420766f74652c206d697373696e672070726f706f73616c00006044820152606401610577565b610cb38285612ecc565b73ffffffffffffffffffffffffffffffffffffffff821660009081526006602052604081208054909190610ce8908490612f51565b909155505060075473ffffffffffffffffffffffffffffffffffffffff9081166000908152600660205260408082205492841682529020541115610d6757600780547fffffffffffffffffffffffff00000000000000000000000000000000000000001673ffffffffffffffffffffffffffffffffffffffff83161790555b50610d7181612f18565b9050610be5565b50610d816121c1565b6040517f92c1ff4400000000000000000000000000000000000000000000000000000000815233600482015273ffffffffffffffffffffffffffffffffffffffff91909116906392c1ff4490602401600060405180830381600087803b158015610dea57600080fd5b505af1158015610dfe573d6000803e3d6000fd5b505050503373ffffffffffffffffffffffffffffffffffffffff167f6e74ae2a1ff01920ec4c82ff1f3abe271492c566d046d93fcb7c35fb320974e08686604051610e4a929190612f69565b60405180910390a2505050505050565b6003610e6461176c565b806004811115610e7657610e76612cc0565b6000547501000000000000000000000000000000000000000000900460ff166004811115610ea657610ea6612cc0565b14610f33576040517f08c379a000000000000000000000000000000000000000000000000000000000815260206004820152602760248201527f546869732063616c6c206973206e6f7420616c6c6f776564206174207468697360448201527f2073746167652e000000000000000000000000000000000000000000000000006064820152608401610577565b60005474010000000000000000000000000000000000000000900460ff16610f9d57600754600880547fffffffffffffffffffffffff00000000000000000000000000000000000000001673ffffffffffffffffffffffffffffffffffffffff9092169190911790555b600080547fffffffffffffffffffff00ffffffffffffffffffffffffffffffffffffffffff16750400000000000000000000000000000000000000000017815560085460405173ffffffffffffffffffffffffffffffffffffffff909116917f90a00738854d4c5880219676e29735d3621c39e001de986d1225ce4ebb0ca17791a250565b60007f000000000000000000000000000000000000000000000000000000000000000073ffffffffffffffffffffffffffffffffffffffff168273ffffffffffffffffffffffffffffffffffffffff161480611098575060005473ffffffffffffffffffffffffffffffffffffffff8381169116145b611124576040517f08c379a000000000000000000000000000000000000000000000000000000000815260206004820152603c60248201527f4f6e6c792074686520706f6c696379206f7220696e7465726661636520636f6e60448201527f74726163742063616e207365742074686520696e746572666163652e000000006064820152608401610577565b6040517f455243313832305f4143434550545f4d41474943000000000000000000000000602082015260340160405160208183030381529060405280519060200120905092915050565b3373ffffffffffffffffffffffffffffffffffffffff7f00000000000000000000000000000000000000000000000000000000000000001614611233576040517f08c379a000000000000000000000000000000000000000000000000000000000815260206004820152602e60248201527f4f6e6c792074686520706f6c69637920636f6e7472616374206d61792063616c60448201527f6c2074686973206d6574686f642e0000000000000000000000000000000000006064820152608401610577565b600980547fffffffffffffffffffffffff00000000000000000000000000000000000000001673ffffffffffffffffffffffffffffffffffffffff83169081179091556040517fc1c43aa8035756476ab2ca6cfd05434a7fd574b0f3b39c7174828b1fb82acd3e90600090a250565b60046020528060005260406000206000915090508060000154908060010154908060020154908060030154908060040154908060050180546112e390612fc4565b80601f016020809104026020016040519081016040528092919081815260200182805461130f90612fc4565b801561135c5780601f106113315761010080835404028352916020019161135c565b820191906000526020600020905b81548152906001019060200180831161133f57829003601f168201915b5050505050905086565b3373ffffffffffffffffffffffffffffffffffffffff7f0000000000000000000000000000000000000000000000000000000000000000161461142b576040517f08c379a000000000000000000000000000000000000000000000000000000000815260206004820152602e60248201527f4f6e6c792074686520706f6c69637920636f6e7472616374206d61792063616c60448201527f6c2074686973206d6574686f642e0000000000000000000000000000000000006064820152608401610577565b600080547fffffffffffffffffffffffff00000000000000000000000000000000000000001673ffffffffffffffffffffffffffffffffffffffff92909216919091179055565b60095473ffffffffffffffffffffffffffffffffffffffff1633146114f3576040517f08c379a000000000000000000000000000000000000000000000000000000000815260206004820152601e60248201527f43757272656e6379476f7665726e616e63653a206e6f742070617573657200006044820152606401610577565b6114fb6121f1565b565b600061150761176c565b80600481111561151957611519612cc0565b6000547501000000000000000000000000000000000000000000900460ff16600481111561154957611549612cc0565b146115d6576040517f08c379a000000000000000000000000000000000000000000000000000000000815260206004820152602760248201527f546869732063616c6c206973206e6f7420616c6c6f776564206174207468697360448201527f2073746167652e000000000000000000000000000000000000000000000000006064820152608401610577565b3360009081526004602081905260409091200154611676576040517f08c379a000000000000000000000000000000000000000000000000000000000815260206004820152602560248201527f596f7520646f206e6f74206861766520612070726f706f73616c20746f20726560448201527f74726163740000000000000000000000000000000000000000000000000000006064820152608401610577565b3360009081526004602081905260408220828155600181018390556002810183905560038101839055908101829055906116b36005830182612932565b505060405133907fa7168747510800c9ddf4d16852ceb46c013916bf25709d850c8bbb842db0c35990600090a250565b60095473ffffffffffffffffffffffffffffffffffffffff163314611764576040517f08c379a000000000000000000000000000000000000000000000000000000000815260206004820152601e60248201527f43757272656e6379476f7665726e616e63653a206e6f742070617573657200006044820152606401610577565b6114fb61226e565b6000429050600080547501000000000000000000000000000000000000000000900460ff1660048111156117a2576117a2612cc0565b1480156117b157506001548110155b1561181e57600080547fffffffffffffffffffff00ffffffffffffffffffffffffffffffffffffffffff1675010000000000000000000000000000000000000000001781556040517f1e1404280fbb8e5a27fb6edb0e7962663c44e22452eaa16f6a25b4e892e0130d9190a15b60016000547501000000000000000000000000000000000000000000900460ff16600481111561185057611850612cc0565b14801561185f57506002548110155b156118cc57600080547fffffffffffffffffffff00ffffffffffffffffffffffffffffffffffffffffff1675020000000000000000000000000000000000000000001781556040517f63fc34cc2be0f643552b36cc8c5ecb01ab1021ce93dd86c01e798514acb982999190a15b60026000547501000000000000000000000000000000000000000000900460ff1660048111156118fe576118fe612cc0565b14801561190d57506003548110155b1561195357600080547fffffffffffffffffffff00ffffffffffffffffffffffffffffffffffffffffff1675030000000000000000000000000000000000000000001790555b50565b60006119807ff86c915dad5894faca0dfa067c58fdf4307406d255ed0a65db394f82b77f53d45490565b73ffffffffffffffffffffffffffffffffffffffff1614611a23576040517f08c379a000000000000000000000000000000000000000000000000000000000815260206004820152602860248201527f43616e206f6e6c792062652063616c6c656420647572696e6720696e6974696160448201527f6c697a6174696f6e0000000000000000000000000000000000000000000000006064820152608401610577565b611a2c816122dd565b611a3861025842612f51565b6001819055611a499060b490612f51565b6002819055611a5a90607890612f51565b600355600080526004602052670de0b6b3a76400007f17ef568e3e12ab5b9c7254a8d58478811de00f9e6eb34345acd53bf8fd09d3f0557f17ef568e3e12ab5b9c7254a8d58478811de00f9e6eb34345acd53bf8fd09d3ec611aba6121c1565b73ffffffffffffffffffffffffffffffffffffffff16634baa69016040518163ffffffff1660e01b815260040160206040518083038186803b158015611aff57600080fd5b505afa158015611b13573d6000803e3d6000fd5b505050506040513d601f19601f82011682018060405250810190611b379190613018565b6000805260066020527f54cdd369e4e8a8515e52ca72ec816c2101831ad1f18bf44102ed171459c9b4f8555050565b611b6e6121c1565b6040517f96d6487900000000000000000000000000000000000000000000000000000000815233600482015273ffffffffffffffffffffffffffffffffffffffff91909116906396d648799060240160206040518083038186803b158015611bd557600080fd5b505afa158015611be9573d6000803e3d6000fd5b505050506040513d601f19601f82011682018060405250810190611c0d9190613031565b611c99576040517f08c379a000000000000000000000000000000000000000000000000000000000815260206004820152602760248201527f4f6e6c792074727573746564206e6f6465732063616e2063616c6c207468697360448201527f206d6574686f64000000000000000000000000000000000000000000000000006064820152608401610577565b6001611ca361176c565b806004811115611cb557611cb5612cc0565b6000547501000000000000000000000000000000000000000000900460ff166004811115611ce557611ce5612cc0565b14611d72576040517f08c379a000000000000000000000000000000000000000000000000000000000815260206004820152602760248201527f546869732063616c6c206973206e6f7420616c6c6f776564206174207468697360448201527f2073746167652e000000000000000000000000000000000000000000000000006064820152608401610577565b33600081815260056020526040808220859055517fb87a61d78bd15221c59b983f6ef032fbde0631e66bfe18d1421fe5a73c16741d9190a25050565b611db66121c1565b6040517f96d6487900000000000000000000000000000000000000000000000000000000815233600482015273ffffffffffffffffffffffffffffffffffffffff91909116906396d648799060240160206040518083038186803b158015611e1d57600080fd5b505afa158015611e31573d6000803e3d6000fd5b505050506040513d601f19601f82011682018060405250810190611e559190613031565b611ee1576040517f08c379a000000000000000000000000000000000000000000000000000000000815260206004820152602760248201527f4f6e6c792074727573746564206e6f6465732063616e2063616c6c207468697360448201527f206d6574686f64000000000000000000000000000000000000000000000000006064820152608401610577565b6000611eeb61176c565b806004811115611efd57611efd612cc0565b6000547501000000000000000000000000000000000000000000900460ff166004811115611f2d57611f2d612cc0565b14611fba576040517f08c379a000000000000000000000000000000000000000000000000000000000815260206004820152602760248201527f546869732063616c6c206973206e6f7420616c6c6f776564206174207468697360448201527f2073746167652e000000000000000000000000000000000000000000000000006064820152608401610577565b60008411612049576040517f08c379a0000000000000000000000000000000000000000000000000000000008152602060048201526024808201527f496e666c6174696f6e206d756c7469706c6965722063616e6e6f74206265207a60448201527f65726f2e000000000000000000000000000000000000000000000000000000006064820152608401610577565b60a08211156120b4576040517f08c379a000000000000000000000000000000000000000000000000000000000815260206004820152601860248201527f4465736372697074696f6e20697320746f6f206c6f6e672e00000000000000006044820152606401610577565b3360009081526004602081905260409091208981556001810189905560028101889055600381018790559081018590556120f260058201858561296c565b503373ffffffffffffffffffffffffffffffffffffffff167f93a66d010ba63cd46779bb6c21359cacafda945e3b7cabf0259371b55cb8d1978a8a8a8a8a8a8a6040516121459796959493929190613053565b60405180910390a2505050505050505050565b6000808260601b90506040517f3d602d80600a3d3981f3363d3d373d3d3d363d7300000000000000000000000081528160148201527f5af43d82803e903d91602b57fd5bf3000000000000000000000000000000000060288201526037816000f0949350505050565b60006121ec7f0e3d3f2b74f96e5fd24f23acf8b4b352d4e1d0d0ed45271f4e44aa64f98b2284612468565b905090565b6121f9612549565b600080547fffffffffffffffffffffff00ffffffffffffffffffffffffffffffffffffffff1690557f5db9ee0a495bf2e6ff9c91a7834c1ba4fdd244a5e8aa4e537bd38aeae4b073aa335b60405173ffffffffffffffffffffffffffffffffffffffff909116815260200160405180910390a1565b6122766125cd565b600080547fffffffffffffffffffffff00ffffffffffffffffffffffffffffffffffffffff16740100000000000000000000000000000000000000001790557f62e78cea01bee320cd4e420270b5ea74000d11b0c9f74754ebdbfc544b05a2586122443390565b60006123077ff86c915dad5894faca0dfa067c58fdf4307406d255ed0a65db394f82b77f53d45490565b73ffffffffffffffffffffffffffffffffffffffff16146123aa576040517f08c379a000000000000000000000000000000000000000000000000000000000815260206004820152602860248201527f43616e206f6e6c792062652063616c6c656420647572696e6720696e6974696160448201527f6c697a6174696f6e0000000000000000000000000000000000000000000000006064820152608401610577565b6123b381612652565b6040517f5df8122f00000000000000000000000000000000000000000000000000000000815230600482015273ffffffffffffffffffffffffffffffffffffffff7f0000000000000000000000000000000000000000000000000000000000000000166024820152731820a4b7618bde71dce8cdc73aab6c95905fad2490635df8122f90604401600060405180830381600087803b15801561245457600080fd5b505af11580156105a3573d6000803e3d6000fd5b6040517faabbb8ca00000000000000000000000000000000000000000000000000000000815273ffffffffffffffffffffffffffffffffffffffff7f000000000000000000000000000000000000000000000000000000000000000016600482015260248101829052600090731820a4b7618bde71dce8cdc73aab6c95905fad249063aabbb8ca9060440160206040518083038186803b15801561250b57600080fd5b505afa15801561251f573d6000803e3d6000fd5b505050506040513d601f19601f8201168201806040525081019061254391906130c3565b92915050565b60005474010000000000000000000000000000000000000000900460ff166114fb576040517f08c379a000000000000000000000000000000000000000000000000000000000815260206004820152601460248201527f5061757361626c653a206e6f74207061757365640000000000000000000000006044820152606401610577565b60005474010000000000000000000000000000000000000000900460ff16156114fb576040517f08c379a000000000000000000000000000000000000000000000000000000000815260206004820152601060248201527f5061757361626c653a20706175736564000000000000000000000000000000006044820152606401610577565b600061267c7ff86c915dad5894faca0dfa067c58fdf4307406d255ed0a65db394f82b77f53d45490565b73ffffffffffffffffffffffffffffffffffffffff161461271f576040517f08c379a000000000000000000000000000000000000000000000000000000000815260206004820152602860248201527f43616e206f6e6c792062652063616c6c656420647572696e6720696e6974696160448201527f6c697a6174696f6e0000000000000000000000000000000000000000000000006064820152608401610577565b60008173ffffffffffffffffffffffffffffffffffffffff16635c60da1b6040518163ffffffff1660e01b815260040160206040518083038186803b15801561276757600080fd5b505afa15801561277b573d6000803e3d6000fd5b505050506040513d601f19601f8201168201806040525081019061279f91906130c3565b905073ffffffffffffffffffffffffffffffffffffffff8116612844576040517f08c379a000000000000000000000000000000000000000000000000000000000815260206004820152602c60248201527f696e697469616c697a6174696f6e206661696c7572653a206e6f7468696e672060448201527f746f20696d706c656d656e7400000000000000000000000000000000000000006064820152608401610577565b61284d81612851565b5050565b8073ffffffffffffffffffffffffffffffffffffffff166128907ff86c915dad5894faca0dfa067c58fdf4307406d255ed0a65db394f82b77f53d45490565b73ffffffffffffffffffffffffffffffffffffffff16141561290e576040517f08c379a000000000000000000000000000000000000000000000000000000000815260206004820152601f60248201527f496d706c656d656e746174696f6e20616c7265616479206d61746368696e67006044820152606401610577565b7ff86c915dad5894faca0dfa067c58fdf4307406d255ed0a65db394f82b77f53d455565b50805461293e90612fc4565b6000825580601f1061294e575050565b601f0160209004906000526020600020908101906119539190612a0e565b82805461297890612fc4565b90600052602060002090601f01602090048101928261299a57600085556129fe565b82601f106129d1578280017fffffffffffffffffffffffffffffffffffffffffffffffffffffffffffffff008235161785556129fe565b828001600101855582156129fe579182015b828111156129fe5782358255916020019190600101906129e3565b50612a0a929150612a0e565b5090565b5b80821115612a0a5760008155600101612a0f565b73ffffffffffffffffffffffffffffffffffffffff8116811461195357600080fd5b7f4e487b7100000000000000000000000000000000000000000000000000000000600052604160045260246000fd5b60008060408385031215612a8757600080fd5b8235612a9281612a23565b9150602083013567ffffffffffffffff80821115612aaf57600080fd5b818501915085601f830112612ac357600080fd5b813581811115612ad557612ad5612a45565b604051601f82017fffffffffffffffffffffffffffffffffffffffffffffffffffffffffffffffe0908116603f01168101908382118183101715612b1b57612b1b612a45565b81604052828152886020848701011115612b3457600080fd5b8260208601602083013760006020848301015280955050505050509250929050565b600080600060408486031215612b6b57600080fd5b83359250602084013567ffffffffffffffff80821115612b8a57600080fd5b818601915086601f830112612b9e57600080fd5b813581811115612bad57600080fd5b8760208260051b8501011115612bc257600080fd5b6020830194508093505050509250925092565b60008060408385031215612be857600080fd5b823591506020830135612bfa81612a23565b809150509250929050565b600060208284031215612c1757600080fd5b8135612c2281612a23565b9392505050565b86815260006020878184015286604084015285606084015284608084015260c060a084015283518060c085015260005b81811015612c755785810183015185820160e001528201612c59565b81811115612c8757600060e083870101525b50601f017fffffffffffffffffffffffffffffffffffffffffffffffffffffffffffffffe0169290920160e00198975050505050505050565b7f4e487b7100000000000000000000000000000000000000000000000000000000600052602160045260246000fd5b6020810160058310612d2a577f4e487b7100000000000000000000000000000000000000000000000000000000600052602160045260246000fd5b91905290565b600060208284031215612d4257600080fd5b5035919050565b600080600080600080600060c0888a031215612d6457600080fd5b873596506020880135955060408801359450606088013593506080880135925060a088013567ffffffffffffffff80821115612d9f57600080fd5b818a0191508a601f830112612db357600080fd5b813581811115612dc257600080fd5b8b6020828501011115612dd457600080fd5b60208301945080935050505092959891949750929550565b848152600060207fffffffffffffffffffffffffffffffffffffffff0000000000000000000000008660601b1681840152603483018560005b86811015612e60578135612e3881612a23565b73ffffffffffffffffffffffffffffffffffffffff1683529183019190830190600101612e25565b509098975050505050505050565b7f4e487b7100000000000000000000000000000000000000000000000000000000600052603260045260246000fd5b7f4e487b7100000000000000000000000000000000000000000000000000000000600052601160045260246000fd5b600082821015612ede57612ede612e9d565b500390565b600081612ef257612ef2612e9d565b507fffffffffffffffffffffffffffffffffffffffffffffffffffffffffffffffff0190565b60007fffffffffffffffffffffffffffffffffffffffffffffffffffffffffffffffff821415612f4a57612f4a612e9d565b5060010190565b60008219821115612f6457612f64612e9d565b500190565b60208082528181018390526000908460408401835b86811015612fb9578235612f9181612a23565b73ffffffffffffffffffffffffffffffffffffffff1682529183019190830190600101612f7e565b509695505050505050565b600181811c90821680612fd857607f821691505b60208210811415613012577f4e487b7100000000000000000000000000000000000000000000000000000000600052602260045260246000fd5b50919050565b60006020828403121561302a57600080fd5b5051919050565b60006020828403121561304357600080fd5b81518015158114612c2257600080fd5b87815286602082015285604082015284606082015283608082015260c060a08201528160c0820152818360e0830137600081830160e090810191909152601f9092017fffffffffffffffffffffffffffffffffffffffffffffffffffffffffffffffe01601019695505050505050565b6000602082840312156130d557600080fd5b8151612c2281612a2356fea164736f6c6343000809000af86c915dad5894faca0dfa067c58fdf4307406d255ed0a65db394f82b77f53d4",
  "linkReferences": {},
  "deployedLinkReferences": {}
}