{
  "_format": "hh-sol-artifact-1",
  "contractName": "CurrencyTimer",
  "sourceName": "contracts/governance/CurrencyTimer.sol",
  "abi": [
    {
      "inputs": [
        {
          "internalType": "contract Policy",
          "name": "_policy",
          "type": "address"
        },
        {
          "internalType": "contract CurrencyGovernance",
          "name": "_borda",
          "type": "address"
        },
        {
          "internalType": "contract RandomInflation",
          "name": "_inflation",
          "type": "address"
        },
        {
          "internalType": "contract Lockup",
          "name": "_lockup",
          "type": "address"
        },
        {
          "internalType": "contract ECO",
          "name": "_ecoAddr",
          "type": "address"
        }
      ],
      "stateMutability": "nonpayable",
      "type": "constructor"
    },
    {
      "anonymous": false,
      "inputs": [
        {
          "indexed": true,
          "internalType": "contract CurrencyGovernance",
          "name": "addr",
          "type": "address"
        },
        {
          "indexed": true,
          "internalType": "uint256",
          "name": "generation",
          "type": "uint256"
        }
      ],
      "name": "NewCurrencyGovernance",
      "type": "event"
    },
    {
      "anonymous": false,
      "inputs": [
        {
          "indexed": true,
          "internalType": "contract RandomInflation",
          "name": "addr",
          "type": "address"
        },
        {
          "indexed": true,
          "internalType": "uint256",
          "name": "generation",
          "type": "uint256"
        }
      ],
      "name": "NewInflation",
      "type": "event"
    },
    {
      "anonymous": false,
      "inputs": [
        {
          "indexed": true,
          "internalType": "contract Lockup",
          "name": "addr",
          "type": "address"
        },
        {
          "indexed": true,
          "internalType": "uint256",
          "name": "generation",
          "type": "uint256"
        }
      ],
      "name": "NewLockup",
      "type": "event"
    },
    {
      "inputs": [],
      "name": "GENERATION_START",
      "outputs": [
        {
          "internalType": "uint256",
          "name": "",
          "type": "uint256"
        }
      ],
      "stateMutability": "view",
      "type": "function"
    },
    {
      "inputs": [],
      "name": "MIN_GENERATION_DURATION",
      "outputs": [
        {
          "internalType": "uint256",
          "name": "",
          "type": "uint256"
        }
      ],
      "stateMutability": "view",
      "type": "function"
    },
    {
      "inputs": [],
      "name": "bordaImpl",
      "outputs": [
        {
          "internalType": "contract CurrencyGovernance",
          "name": "",
          "type": "address"
        }
      ],
      "stateMutability": "view",
      "type": "function"
    },
    {
      "inputs": [
        {
          "internalType": "bytes32",
          "name": "",
          "type": "bytes32"
        },
        {
          "internalType": "address",
          "name": "_addr",
          "type": "address"
        }
      ],
      "name": "canImplementInterfaceForAddress",
      "outputs": [
        {
          "internalType": "bytes32",
          "name": "",
          "type": "bytes32"
        }
      ],
      "stateMutability": "view",
      "type": "function"
    },
    {
      "inputs": [],
      "name": "clone",
      "outputs": [
        {
          "internalType": "address",
          "name": "",
          "type": "address"
        }
      ],
      "stateMutability": "nonpayable",
      "type": "function"
    },
    {
      "inputs": [],
      "name": "currentGeneration",
      "outputs": [
        {
          "internalType": "uint256",
          "name": "",
          "type": "uint256"
        }
      ],
      "stateMutability": "view",
      "type": "function"
    },
    {
      "inputs": [],
      "name": "ecoToken",
      "outputs": [
        {
          "internalType": "contract ECO",
          "name": "",
          "type": "address"
        }
      ],
      "stateMutability": "view",
      "type": "function"
    },
    {
      "inputs": [],
      "name": "implementation",
      "outputs": [
        {
          "internalType": "address",
          "name": "_impl",
          "type": "address"
        }
      ],
      "stateMutability": "view",
      "type": "function"
    },
    {
      "inputs": [],
      "name": "inflationImpl",
      "outputs": [
        {
          "internalType": "contract RandomInflation",
          "name": "",
          "type": "address"
        }
      ],
      "stateMutability": "view",
      "type": "function"
    },
    {
      "inputs": [
        {
          "internalType": "address",
          "name": "_self",
          "type": "address"
        }
      ],
      "name": "initialize",
      "outputs": [],
      "stateMutability": "nonpayable",
      "type": "function"
    },
    {
      "inputs": [
        {
          "internalType": "address",
          "name": "",
          "type": "address"
        }
      ],
      "name": "isLockup",
      "outputs": [
        {
          "internalType": "bool",
          "name": "",
          "type": "bool"
        }
      ],
      "stateMutability": "view",
      "type": "function"
    },
    {
      "inputs": [],
      "name": "lockupImpl",
      "outputs": [
        {
          "internalType": "contract Lockup",
          "name": "",
          "type": "address"
        }
      ],
      "stateMutability": "view",
      "type": "function"
    },
    {
      "inputs": [
        {
          "internalType": "address",
          "name": "_withdrawer",
          "type": "address"
        },
        {
          "internalType": "uint256",
          "name": "_amount",
          "type": "uint256"
        },
        {
          "internalType": "bool",
          "name": "_penalty",
          "type": "bool"
        }
      ],
      "name": "lockupWithdrawal",
      "outputs": [],
      "stateMutability": "nonpayable",
      "type": "function"
    },
    {
      "inputs": [
        {
          "internalType": "uint256",
          "name": "",
          "type": "uint256"
        }
      ],
      "name": "lockups",
      "outputs": [
        {
          "internalType": "contract Lockup",
          "name": "",
          "type": "address"
        }
      ],
      "stateMutability": "view",
      "type": "function"
    },
    {
      "inputs": [],
      "name": "notifyGenerationIncrease",
      "outputs": [],
      "stateMutability": "nonpayable",
      "type": "function"
    },
    {
      "inputs": [],
      "name": "policy",
      "outputs": [
        {
          "internalType": "contract Policy",
          "name": "",
          "type": "address"
        }
      ],
      "stateMutability": "view",
      "type": "function"
    },
    {
      "inputs": [
        {
          "internalType": "address",
          "name": "_delegate",
          "type": "address"
        },
        {
          "internalType": "bytes",
          "name": "_data",
          "type": "bytes"
        }
      ],
      "name": "policyCommand",
      "outputs": [],
      "stateMutability": "nonpayable",
      "type": "function"
    },
    {
      "inputs": [
        {
          "internalType": "uint256",
          "name": "",
          "type": "uint256"
        }
      ],
      "name": "randomInflations",
      "outputs": [
        {
          "internalType": "contract RandomInflation",
          "name": "",
          "type": "address"
        }
      ],
      "stateMutability": "view",
      "type": "function"
    },
    {
      "inputs": [
        {
          "internalType": "address",
          "name": "_addr",
          "type": "address"
        }
      ],
      "name": "setExpectedInterfaceSet",
      "outputs": [],
      "stateMutability": "nonpayable",
      "type": "function"
    }
  ],
  "bytecode": "0x60c06040523480156200001157600080fd5b50604051620026ab380380620026ab83398101604081905262000034916200042f565b8480620000413062000388565b6001600160a01b038116620000c35760405162461bcd60e51b815260206004820152603860248201527f556e7265636f76657261626c653a20646f206e6f74207365742074686520706f60448201527f6c69637920617320746865207a65726f2061646472657373000000000000000060648201526084015b60405180910390fd5b6001600160a01b0381166080819052604051635df8122f60e01b81523060048201526024810191909152731820a4b7618bde71dce8cdc73aab6c95905fad2490635df8122f90604401600060405180830381600087803b1580156200012757600080fd5b505af11580156200013c573d6000803e3d6000fd5b50505050506001600160a01b03851615159050620001c35760405162461bcd60e51b815260206004820152603360248201527f437269746963616c3a20646f206e6f742073657420746865205f626f7264612060448201527f617320746865207a65726f2061646472657373000000000000000000000000006064820152608401620000ba565b6001600160a01b038316620002415760405162461bcd60e51b815260206004820152603760248201527f437269746963616c3a20646f206e6f742073657420746865205f696e666c617460448201527f696f6e20617320746865207a65726f20616464726573730000000000000000006064820152608401620000ba565b6001600160a01b038216620002bf5760405162461bcd60e51b815260206004820152603460248201527f437269746963616c3a20646f206e6f742073657420746865205f6c6f636b757060448201527f20617320746865207a65726f20616464726573730000000000000000000000006064820152608401620000ba565b6001600160a01b0381166200033d5760405162461bcd60e51b815260206004820152603560248201527f437269746963616c3a20646f206e6f742073657420746865205f65636f41646460448201527f7220617320746865207a65726f206164647265737300000000000000000000006064820152608401620000ba565b600180546001600160a01b03199081166001600160a01b03968716179091556002805482169486169490941790935560038054909316918416919091179091551660a05250620004af565b6001600160a01b038116620003aa6000805160206200268b8339815191525490565b6001600160a01b03161415620004035760405162461bcd60e51b815260206004820152601f60248201527f496d706c656d656e746174696f6e20616c7265616479206d61746368696e67006044820152606401620000ba565b6000805160206200268b83398151915255565b6001600160a01b03811681146200042c57600080fd5b50565b600080600080600060a086880312156200044857600080fd5b8551620004558162000416565b6020870151909550620004688162000416565b60408701519094506200047b8162000416565b60608701519093506200048e8162000416565b6080870151909250620004a18162000416565b809150509295509295909350565b60805160a051612177620005146000396000818161023501528181610e87015281816113e7015261148c01526000818161015b015281816103a6015281816105e701528181610d1301528181611203015281816118790152611a3601526121776000f3fe608060405234801561001057600080fd5b50600436106101515760003560e01c80638aae9c88116100cd578063b39572f011610081578063ca0c864b11610066578063ca0c864b14610305578063d3565c4c1461033b578063fefa7d1c1461035b57600080fd5b8063b39572f0146102df578063c4d66de8146102f257600080fd5b80638ddb428a116100b25780638ddb428a146102805780638e6f4fb714610289578063a35b7c6a146102bf57600080fd5b80638aae9c88146102575780638cb170561461027757600080fd5b806335bbc7fe11610124578063537299371161010957806353729937146102005780635c60da1b14610209578063705d53041461023057600080fd5b806335bbc7fe146101e557806339634e0c146101ed57600080fd5b80630505c8c91461015657806309d7f23b146101a757806309ed4607146101bc578063249cb3fa146101c4575b600080fd5b61017d7f000000000000000000000000000000000000000000000000000000000000000081565b60405173ffffffffffffffffffffffffffffffffffffffff90911681526020015b60405180910390f35b6101ba6101b5366004611e71565b61038e565b005b61017d610482565b6101d76101d2366004611f04565b6105e3565b60405190815260200161019e565b6101ba61070d565b6101ba6101fb366004611f34565b6111eb565b6101d76103e881565b7ff86c915dad5894faca0dfa067c58fdf4307406d255ed0a65db394f82b77f53d45461017d565b61017d7f000000000000000000000000000000000000000000000000000000000000000081565b60025461017d9073ffffffffffffffffffffffffffffffffffffffff1681565b6101d761069081565b6101d760045481565b61017d610297366004611f58565b60056020526000908152604090205473ffffffffffffffffffffffffffffffffffffffff1681565b60015461017d9073ffffffffffffffffffffffffffffffffffffffff1681565b6101ba6102ed366004611f71565b6112f7565b6101ba610300366004611f34565b6114bb565b61017d610313366004611f58565b60076020526000908152604090205473ffffffffffffffffffffffffffffffffffffffff1681565b60035461017d9073ffffffffffffffffffffffffffffffffffffffff1681565b61037e610369366004611f34565b60066020526000908152604090205460ff1681565b604051901515815260200161019e565b3373ffffffffffffffffffffffffffffffffffffffff7f00000000000000000000000000000000000000000000000000000000000000001614610458576040517f08c379a000000000000000000000000000000000000000000000000000000000815260206004820152602d60248201527f4f6e6c792074686520706f6c69637920636f6e7472616374206d61792063616c60448201527f6c2074686973206d6574686f640000000000000000000000000000000000000060648201526084015b60405180910390fd5b600080825160208401855af43d806000803e81801561047657816000f35b816000fd5b5050505050565b6000306104ad7ff86c915dad5894faca0dfa067c58fdf4307406d255ed0a65db394f82b77f53d45490565b73ffffffffffffffffffffffffffffffffffffffff1614610550576040517f08c379a000000000000000000000000000000000000000000000000000000000815260206004820152602660248201527f54686973206d6574686f642063616e6e6f742062652063616c6c6564206f6e2060448201527f636c6f6e65730000000000000000000000000000000000000000000000000000606482015260840161044f565b600061055b306117d3565b6040517fc4d66de800000000000000000000000000000000000000000000000000000000815230600482015290915073ffffffffffffffffffffffffffffffffffffffff82169063c4d66de890602401600060405180830381600087803b1580156105c557600080fd5b505af11580156105d9573d6000803e3d6000fd5b5092949350505050565b60007f000000000000000000000000000000000000000000000000000000000000000073ffffffffffffffffffffffffffffffffffffffff168273ffffffffffffffffffffffffffffffffffffffff161480610659575060005473ffffffffffffffffffffffffffffffffffffffff8381169116145b6106e5576040517f08c379a000000000000000000000000000000000000000000000000000000000815260206004820152603b60248201527f4f6e6c792074686520706f6c696379206f7220696e7465726661636520636f6e60448201527f74726163742063616e207365742074686520696e746572666163650000000000606482015260840161044f565b507fa2ef4600d742022d532d4747cb3547474667d6f13804902513b2ec01c848f4b492915050565b600454600061073b7fae30bfb87dec2bd0c16be9790f95842d84f58dc70b0a8f6ed22e9556176a7b1961183c565b73ffffffffffffffffffffffffffffffffffffffff1663172195226040518163ffffffff1660e01b815260040160206040518083038186803b15801561078057600080fd5b505afa158015610794573d6000803e3d6000fd5b505050506040513d601f19601f820116820180604052508101906107b89190611fb8565b905081811415610824576040517f08c379a000000000000000000000000000000000000000000000000000000000815260206004820152601c60248201527f47656e65726174696f6e20686173206e6f7420696e6372656173656400000000604482015260640161044f565b600481905560006108547fe4ee44a5d338a8b2452cc9552ec014656668eaacb55683101b7e1c2b167e522561183c565b9050600080808073ffffffffffffffffffffffffffffffffffffffff851615610bdb5760038573ffffffffffffffffffffffffffffffffffffffff16635bf5d54c6040518163ffffffff1660e01b815260040160206040518083038186803b1580156108bf57600080fd5b505afa1580156108d3573d6000803e3d6000fd5b505050506040513d601f19601f820116820180604052508101906108f79190611fd1565b600481111561090857610908611ff2565b60ff161015610972578473ffffffffffffffffffffffffffffffffffffffff1663c062f5786040518163ffffffff1660e01b8152600401600060405180830381600087803b15801561095957600080fd5b505af115801561096d573d6000803e3d6000fd5b505050505b8473ffffffffffffffffffffffffffffffffffffffff16635bf5d54c6040518163ffffffff1660e01b815260040160206040518083038186803b1580156109b857600080fd5b505afa1580156109cc573d6000803e3d6000fd5b505050506040513d601f19601f820116820180604052508101906109f09190611fd1565b6004811115610a0157610a01611ff2565b60ff1660031415610a6d578473ffffffffffffffffffffffffffffffffffffffff16631a43c3386040518163ffffffff1660e01b8152600401600060405180830381600087803b158015610a5457600080fd5b505af1158015610a68573d6000803e3d6000fd5b505050505b60008573ffffffffffffffffffffffffffffffffffffffff1663dfbf53ae6040518163ffffffff1660e01b815260040160206040518083038186803b158015610ab557600080fd5b505afa158015610ac9573d6000803e3d6000fd5b505050506040513d601f19601f82011682018060405250810190610aed9190612021565b905073ffffffffffffffffffffffffffffffffffffffff811615610bd9576040517f3341b44500000000000000000000000000000000000000000000000000000000815273ffffffffffffffffffffffffffffffffffffffff8281166004830152871690633341b4459060240160006040518083038186803b158015610b7257600080fd5b505afa158015610b86573d6000803e3d6000fd5b505050506040513d6000823e601f3d9081017fffffffffffffffffffffffffffffffffffffffffffffffffffffffffffffffe0168201604052610bcc919081019061203e565b5093985091965094509250505b505b600154604080517f09ed4607000000000000000000000000000000000000000000000000000000008152905160009273ffffffffffffffffffffffffffffffffffffffff16916309ed460791600480830192602092919082900301818787803b158015610c4757600080fd5b505af1158015610c5b573d6000803e3d6000fd5b505050506040513d601f19601f82011682018060405250810190610c7f9190612021565b6040517f7b12b4550000000000000000000000000000000000000000000000000000000081527fe4ee44a5d338a8b2452cc9552ec014656668eaacb55683101b7e1c2b167e5225600482015273ffffffffffffffffffffffffffffffffffffffff80831660248301527fe01e721169f17f30d0c130781195719ceba11f26f44578668ffd8462c7c1ebe960448301529192507f000000000000000000000000000000000000000000000000000000000000000090911690637b12b45590606401600060405180830381600087803b158015610d5957600080fd5b505af1158015610d6d573d6000803e3d6000fd5b505060405189925073ffffffffffffffffffffffffffffffffffffffff841691507fa1772130dc3e205851a783a8e20ab4e34edde2522219411c659800b058ed442d90600090a350600084118015610dc55750600083115b1561105657600254604080517f09ed4607000000000000000000000000000000000000000000000000000000008152905160009273ffffffffffffffffffffffffffffffffffffffff16916309ed460791600480830192602092919082900301818787803b158015610e3657600080fd5b505af1158015610e4a573d6000803e3d6000fd5b505050506040513d601f19601f82011682018060405250810190610e6e9190612021565b905073ffffffffffffffffffffffffffffffffffffffff7f0000000000000000000000000000000000000000000000000000000000000000166340c10f1982610eb78789612106565b6040517fffffffff0000000000000000000000000000000000000000000000000000000060e085901b16815273ffffffffffffffffffffffffffffffffffffffff90921660048301526024820152604401600060405180830381600087803b158015610f2257600080fd5b505af1158015610f36573d6000803e3d6000fd5b50506040517fd7f5938f000000000000000000000000000000000000000000000000000000008152600481018890526024810187905273ffffffffffffffffffffffffffffffffffffffff8416925063d7f5938f9150604401600060405180830381600087803b158015610fa957600080fd5b505af1158015610fbd573d6000803e3d6000fd5b50506040518a925073ffffffffffffffffffffffffffffffffffffffff841691507f6fe320cace13ec48362e4a648ca03849107649419f0af3dcacd116c99c9fd0f290600090a3600088815260076020526040902080547fffffffffffffffffffffffff00000000000000000000000000000000000000001673ffffffffffffffffffffffffffffffffffffffff929092169190911790555b6000821180156110665750600081115b156111e2576003546040517f442dbdc3000000000000000000000000000000000000000000000000000000008152600481018490526024810183905260009173ffffffffffffffffffffffffffffffffffffffff169063442dbdc390604401602060405180830381600087803b1580156110df57600080fd5b505af11580156110f3573d6000803e3d6000fd5b505050506040513d601f19601f820116820180604052508101906111179190612021565b9050878173ffffffffffffffffffffffffffffffffffffffff167f737fabc26fafc74f523485e7fe4e50fc50cf8e93822e60768c66970d8a19a53460405160405180910390a36000888152600560209081526040808320805473ffffffffffffffffffffffffffffffffffffffff9095167fffffffffffffffffffffffff000000000000000000000000000000000000000090951685179055928252600690522080547fffffffffffffffffffffffffffffffffffffffffffffffffffffffffffffff001660011790555b50505050505050565b3373ffffffffffffffffffffffffffffffffffffffff7f000000000000000000000000000000000000000000000000000000000000000016146112b0576040517f08c379a000000000000000000000000000000000000000000000000000000000815260206004820152602d60248201527f4f6e6c792074686520706f6c69637920636f6e7472616374206d61792063616c60448201527f6c2074686973206d6574686f6400000000000000000000000000000000000000606482015260840161044f565b600080547fffffffffffffffffffffffff00000000000000000000000000000000000000001673ffffffffffffffffffffffffffffffffffffffff92909216919091179055565b3360009081526006602052604090205460ff16611395576040517f08c379a0000000000000000000000000000000000000000000000000000000008152602060048201526024808201527f4e6f7420617574686f72697a656420746f2063616c6c20746869732066756e6360448201527f74696f6e00000000000000000000000000000000000000000000000000000000606482015260840161044f565b8015611440576040517f9dc29fac00000000000000000000000000000000000000000000000000000000815273ffffffffffffffffffffffffffffffffffffffff8481166004830152602482018490527f00000000000000000000000000000000000000000000000000000000000000001690639dc29fac906044015b600060405180830381600087803b15801561142c57600080fd5b505af11580156111e2573d6000803e3d6000fd5b6040517f40c10f1900000000000000000000000000000000000000000000000000000000815273ffffffffffffffffffffffffffffffffffffffff8481166004830152602482018490527f000000000000000000000000000000000000000000000000000000000000000016906340c10f1990604401611412565b60006114e57ff86c915dad5894faca0dfa067c58fdf4307406d255ed0a65db394f82b77f53d45490565b73ffffffffffffffffffffffffffffffffffffffff1614611588576040517f08c379a000000000000000000000000000000000000000000000000000000000815260206004820152602860248201527f43616e206f6e6c792062652063616c6c656420647572696e6720696e6974696160448201527f6c697a6174696f6e000000000000000000000000000000000000000000000000606482015260840161044f565b6115918161191d565b8073ffffffffffffffffffffffffffffffffffffffff1663a35b7c6a6040518163ffffffff1660e01b815260040160206040518083038186803b1580156115d757600080fd5b505afa1580156115eb573d6000803e3d6000fd5b505050506040513d601f19601f8201168201806040525081019061160f9190612021565b600160006101000a81548173ffffffffffffffffffffffffffffffffffffffff021916908373ffffffffffffffffffffffffffffffffffffffff1602179055508073ffffffffffffffffffffffffffffffffffffffff16638aae9c886040518163ffffffff1660e01b815260040160206040518083038186803b15801561169557600080fd5b505afa1580156116a9573d6000803e3d6000fd5b505050506040513d601f19601f820116820180604052508101906116cd9190612021565b600260006101000a81548173ffffffffffffffffffffffffffffffffffffffff021916908373ffffffffffffffffffffffffffffffffffffffff1602179055508073ffffffffffffffffffffffffffffffffffffffff1663d3565c4c6040518163ffffffff1660e01b815260040160206040518083038186803b15801561175357600080fd5b505afa158015611767573d6000803e3d6000fd5b505050506040513d601f19601f8201168201806040525081019061178b9190612021565b600380547fffffffffffffffffffffffff00000000000000000000000000000000000000001673ffffffffffffffffffffffffffffffffffffffff9290921691909117905550565b6000808260601b90506040517f3d602d80600a3d3981f3363d3d373d3d3d363d7300000000000000000000000081528160148201527f5af43d82803e903d91602b57fd5bf3000000000000000000000000000000000060288201526037816000f0949350505050565b6040517faabbb8ca00000000000000000000000000000000000000000000000000000000815273ffffffffffffffffffffffffffffffffffffffff7f000000000000000000000000000000000000000000000000000000000000000016600482015260248101829052600090731820a4b7618bde71dce8cdc73aab6c95905fad249063aabbb8ca9060440160206040518083038186803b1580156118df57600080fd5b505afa1580156118f3573d6000803e3d6000fd5b505050506040513d601f19601f820116820180604052508101906119179190612021565b92915050565b60006119477ff86c915dad5894faca0dfa067c58fdf4307406d255ed0a65db394f82b77f53d45490565b73ffffffffffffffffffffffffffffffffffffffff16146119ea576040517f08c379a000000000000000000000000000000000000000000000000000000000815260206004820152602860248201527f43616e206f6e6c792062652063616c6c656420647572696e6720696e6974696160448201527f6c697a6174696f6e000000000000000000000000000000000000000000000000606482015260840161044f565b6119f381611aa8565b6040517f5df8122f00000000000000000000000000000000000000000000000000000000815230600482015273ffffffffffffffffffffffffffffffffffffffff7f0000000000000000000000000000000000000000000000000000000000000000166024820152731820a4b7618bde71dce8cdc73aab6c95905fad2490635df8122f90604401600060405180830381600087803b158015611a9457600080fd5b505af115801561047b573d6000803e3d6000fd5b6000611ad27ff86c915dad5894faca0dfa067c58fdf4307406d255ed0a65db394f82b77f53d45490565b73ffffffffffffffffffffffffffffffffffffffff1614611b75576040517f08c379a000000000000000000000000000000000000000000000000000000000815260206004820152602860248201527f43616e206f6e6c792062652063616c6c656420647572696e6720696e6974696160448201527f6c697a6174696f6e000000000000000000000000000000000000000000000000606482015260840161044f565b60008173ffffffffffffffffffffffffffffffffffffffff16635c60da1b6040518163ffffffff1660e01b815260040160206040518083038186803b158015611bbd57600080fd5b505afa158015611bd1573d6000803e3d6000fd5b505050506040513d601f19601f82011682018060405250810190611bf59190612021565b905073ffffffffffffffffffffffffffffffffffffffff8116611c9a576040517f08c379a000000000000000000000000000000000000000000000000000000000815260206004820152602c60248201527f696e697469616c697a6174696f6e206661696c7572653a206e6f7468696e672060448201527f746f20696d706c656d656e740000000000000000000000000000000000000000606482015260840161044f565b611ca381611ca7565b5050565b8073ffffffffffffffffffffffffffffffffffffffff16611ce67ff86c915dad5894faca0dfa067c58fdf4307406d255ed0a65db394f82b77f53d45490565b73ffffffffffffffffffffffffffffffffffffffff161415611d64576040517f08c379a000000000000000000000000000000000000000000000000000000000815260206004820152601f60248201527f496d706c656d656e746174696f6e20616c7265616479206d61746368696e6700604482015260640161044f565b7ff86c915dad5894faca0dfa067c58fdf4307406d255ed0a65db394f82b77f53d455565b73ffffffffffffffffffffffffffffffffffffffff81168114611daa57600080fd5b50565b7f4e487b7100000000000000000000000000000000000000000000000000000000600052604160045260246000fd5b604051601f82017fffffffffffffffffffffffffffffffffffffffffffffffffffffffffffffffe016810167ffffffffffffffff81118282101715611e2357611e23611dad565b604052919050565b600067ffffffffffffffff821115611e4557611e45611dad565b50601f017fffffffffffffffffffffffffffffffffffffffffffffffffffffffffffffffe01660200190565b60008060408385031215611e8457600080fd5b8235611e8f81611d88565b9150602083013567ffffffffffffffff811115611eab57600080fd5b8301601f81018513611ebc57600080fd5b8035611ecf611eca82611e2b565b611ddc565b818152866020838501011115611ee457600080fd5b816020840160208301376000602083830101528093505050509250929050565b60008060408385031215611f1757600080fd5b823591506020830135611f2981611d88565b809150509250929050565b600060208284031215611f4657600080fd5b8135611f5181611d88565b9392505050565b600060208284031215611f6a57600080fd5b5035919050565b600080600060608486031215611f8657600080fd5b8335611f9181611d88565b92506020840135915060408401358015158114611fad57600080fd5b809150509250925092565b600060208284031215611fca57600080fd5b5051919050565b600060208284031215611fe357600080fd5b815160058110611f5157600080fd5b7f4e487b7100000000000000000000000000000000000000000000000000000000600052602160045260246000fd5b60006020828403121561203357600080fd5b8151611f5181611d88565b60008060008060008060c0878903121561205757600080fd5b86519550602080880151955060408801519450606088015193506080880151925060a088015167ffffffffffffffff81111561209257600080fd5b8801601f81018a136120a357600080fd5b80516120b1611eca82611e2b565b8181528b848385010111156120c557600080fd5b60005b828110156120e35783810185015182820186015284016120c8565b828111156120f45760008584840101525b50809450505050509295509295509295565b6000817fffffffffffffffffffffffffffffffffffffffffffffffffffffffffffffffff0483118215151615612165577f4e487b7100000000000000000000000000000000000000000000000000000000600052601160045260246000fd5b50029056fea164736f6c6343000809000af86c915dad5894faca0dfa067c58fdf4307406d255ed0a65db394f82b77f53d4",
  "linkReferences": {},
  "deployedLinkReferences": {}
}