{
  "_format": "hh-sol-artifact-1",
  "contractName": "CurrencyGovernance",
  "sourceName": "contracts/governance/monetary/CurrencyGovernance.sol",
  "abi": [
    {
      "inputs": [
        {
          "internalType": "contract Policy",
          "name": "_policy",
          "type": "address"
        }
      ],
      "stateMutability": "nonpayable",
      "type": "constructor"
    },
    {
      "anonymous": false,
      "inputs": [
        {
          "indexed": true,
          "internalType": "address",
          "name": "trusteeAddress",
          "type": "address"
        },
        {
          "indexed": false,
          "internalType": "uint256",
          "name": "_numberOfRecipients",
          "type": "uint256"
        },
        {
          "indexed": false,
          "internalType": "uint256",
          "name": "_randomInflationReward",
          "type": "uint256"
        },
        {
          "indexed": false,
          "internalType": "uint256",
          "name": "_lockupDuration",
          "type": "uint256"
        },
        {
          "indexed": false,
          "internalType": "uint256",
          "name": "_lockupInterest",
          "type": "uint256"
        },
        {
          "indexed": false,
          "internalType": "uint256",
          "name": "_inflationMultiplier",
          "type": "uint256"
        }
      ],
      "name": "ProposalCreation",
      "type": "event"
    },
    {
      "anonymous": false,
      "inputs": [
        {
          "indexed": true,
          "internalType": "address",
          "name": "trustee",
          "type": "address"
        }
      ],
      "name": "ProposalRetraction",
      "type": "event"
    },
    {
      "anonymous": false,
      "inputs": [],
      "name": "RevealStart",
      "type": "event"
    },
    {
      "anonymous": false,
      "inputs": [
        {
          "indexed": true,
          "internalType": "address",
          "name": "trustee",
          "type": "address"
        }
      ],
      "name": "VoteCast",
      "type": "event"
    },
    {
      "anonymous": false,
      "inputs": [
        {
          "indexed": true,
          "internalType": "address",
          "name": "winner",
          "type": "address"
        }
      ],
      "name": "VoteResult",
      "type": "event"
    },
    {
      "anonymous": false,
      "inputs": [
        {
          "indexed": true,
          "internalType": "address",
          "name": "voter",
          "type": "address"
        },
        {
          "indexed": false,
          "internalType": "address[]",
          "name": "votes",
          "type": "address[]"
        }
      ],
      "name": "VoteReveal",
      "type": "event"
    },
    {
      "anonymous": false,
      "inputs": [],
      "name": "VoteStart",
      "type": "event"
    },
    {
      "inputs": [],
      "name": "IDEMPOTENT_INFLATION_MULTIPLIER",
      "outputs": [
        {
          "internalType": "uint256",
          "name": "",
          "type": "uint256"
        }
      ],
      "stateMutability": "view",
      "type": "function"
    },
    {
      "inputs": [],
      "name": "PROPOSAL_TIME",
      "outputs": [
        {
          "internalType": "uint256",
          "name": "",
          "type": "uint256"
        }
      ],
      "stateMutability": "view",
      "type": "function"
    },
    {
      "inputs": [],
      "name": "REVEAL_TIME",
      "outputs": [
        {
          "internalType": "uint256",
          "name": "",
          "type": "uint256"
        }
      ],
      "stateMutability": "view",
      "type": "function"
    },
    {
      "inputs": [],
      "name": "VOTING_TIME",
      "outputs": [
        {
          "internalType": "uint256",
          "name": "",
          "type": "uint256"
        }
      ],
      "stateMutability": "view",
      "type": "function"
    },
    {
      "inputs": [
        {
          "internalType": "bytes32",
          "name": "",
          "type": "bytes32"
        },
        {
          "internalType": "address",
          "name": "_addr",
          "type": "address"
        }
      ],
      "name": "canImplementInterfaceForAddress",
      "outputs": [
        {
          "internalType": "bytes32",
          "name": "",
          "type": "bytes32"
        }
      ],
      "stateMutability": "view",
      "type": "function"
    },
    {
      "inputs": [],
      "name": "clone",
      "outputs": [
        {
          "internalType": "address",
          "name": "",
          "type": "address"
        }
      ],
      "stateMutability": "nonpayable",
      "type": "function"
    },
    {
      "inputs": [
        {
          "internalType": "bytes32",
          "name": "_commitment",
          "type": "bytes32"
        }
      ],
      "name": "commit",
      "outputs": [],
      "stateMutability": "nonpayable",
      "type": "function"
    },
    {
      "inputs": [
        {
          "internalType": "address",
          "name": "",
          "type": "address"
        }
      ],
      "name": "commitments",
      "outputs": [
        {
          "internalType": "bytes32",
          "name": "",
          "type": "bytes32"
        }
      ],
      "stateMutability": "view",
      "type": "function"
    },
    {
      "inputs": [],
      "name": "compute",
      "outputs": [],
      "stateMutability": "nonpayable",
      "type": "function"
    },
    {
      "inputs": [],
      "name": "currentStage",
      "outputs": [
        {
          "internalType": "enum CurrencyGovernance.Stage",
          "name": "",
          "type": "uint8"
        }
      ],
      "stateMutability": "view",
      "type": "function"
    },
    {
      "inputs": [],
      "name": "implementation",
      "outputs": [
        {
          "internalType": "address",
          "name": "_impl",
          "type": "address"
        }
      ],
      "stateMutability": "view",
      "type": "function"
    },
    {
      "inputs": [
        {
          "internalType": "address",
          "name": "_self",
          "type": "address"
        }
      ],
      "name": "initialize",
      "outputs": [],
      "stateMutability": "nonpayable",
      "type": "function"
    },
    {
      "inputs": [],
      "name": "leader",
      "outputs": [
        {
          "internalType": "address",
          "name": "",
          "type": "address"
        }
      ],
      "stateMutability": "view",
      "type": "function"
    },
    {
      "inputs": [],
      "name": "policy",
      "outputs": [
        {
          "internalType": "contract Policy",
          "name": "",
          "type": "address"
        }
      ],
      "stateMutability": "view",
      "type": "function"
    },
    {
      "inputs": [
        {
          "internalType": "address",
          "name": "_delegate",
          "type": "address"
        },
        {
          "internalType": "bytes",
          "name": "_data",
          "type": "bytes"
        }
      ],
      "name": "policyCommand",
      "outputs": [],
      "stateMutability": "nonpayable",
      "type": "function"
    },
    {
      "inputs": [],
      "name": "proposalEnds",
      "outputs": [
        {
          "internalType": "uint256",
          "name": "",
          "type": "uint256"
        }
      ],
      "stateMutability": "view",
      "type": "function"
    },
    {
      "inputs": [
        {
          "internalType": "address",
          "name": "",
          "type": "address"
        }
      ],
      "name": "proposals",
      "outputs": [
        {
          "internalType": "uint256",
          "name": "numberOfRecipients",
          "type": "uint256"
        },
        {
          "internalType": "uint256",
          "name": "randomInflationReward",
          "type": "uint256"
        },
        {
          "internalType": "uint256",
          "name": "lockupDuration",
          "type": "uint256"
        },
        {
          "internalType": "uint256",
          "name": "lockupInterest",
          "type": "uint256"
        },
        {
          "internalType": "uint256",
          "name": "inflationMultiplier",
          "type": "uint256"
        }
      ],
      "stateMutability": "view",
      "type": "function"
    },
    {
      "inputs": [
        {
          "internalType": "uint256",
          "name": "_numberOfRecipients",
          "type": "uint256"
        },
        {
          "internalType": "uint256",
          "name": "_randomInflationReward",
          "type": "uint256"
        },
        {
          "internalType": "uint256",
          "name": "_lockupDuration",
          "type": "uint256"
        },
        {
          "internalType": "uint256",
          "name": "_lockupInterest",
          "type": "uint256"
        },
        {
          "internalType": "uint256",
          "name": "_inflationMultiplier",
          "type": "uint256"
        }
      ],
      "name": "propose",
      "outputs": [],
      "stateMutability": "nonpayable",
      "type": "function"
    },
    {
      "inputs": [
        {
          "internalType": "bytes32",
          "name": "_seed",
          "type": "bytes32"
        },
        {
          "internalType": "address[]",
          "name": "_votes",
          "type": "address[]"
        }
      ],
      "name": "reveal",
      "outputs": [],
      "stateMutability": "nonpayable",
      "type": "function"
    },
    {
      "inputs": [],
      "name": "revealEnds",
      "outputs": [
        {
          "internalType": "uint256",
          "name": "",
          "type": "uint256"
        }
      ],
      "stateMutability": "view",
      "type": "function"
    },
    {
      "inputs": [
        {
          "internalType": "address",
          "name": "",
          "type": "address"
        }
      ],
      "name": "score",
      "outputs": [
        {
          "internalType": "uint256",
          "name": "",
          "type": "uint256"
        }
      ],
      "stateMutability": "view",
      "type": "function"
    },
    {
      "inputs": [
        {
          "internalType": "address",
          "name": "_addr",
          "type": "address"
        }
      ],
      "name": "setExpectedInterfaceSet",
      "outputs": [],
      "stateMutability": "nonpayable",
      "type": "function"
    },
    {
      "inputs": [],
      "name": "unpropose",
      "outputs": [],
      "stateMutability": "nonpayable",
      "type": "function"
    },
    {
      "inputs": [],
      "name": "updateStage",
      "outputs": [],
      "stateMutability": "nonpayable",
      "type": "function"
    },
    {
      "inputs": [],
      "name": "votingEnds",
      "outputs": [
        {
          "internalType": "uint256",
          "name": "",
          "type": "uint256"
        }
      ],
      "stateMutability": "view",
      "type": "function"
    },
    {
      "inputs": [],
      "name": "winner",
      "outputs": [
        {
          "internalType": "address",
          "name": "",
          "type": "address"
        }
      ],
      "stateMutability": "view",
      "type": "function"
    }
  ],
  "bytecode": "0x60a06040523480156200001157600080fd5b5060405162002a8e38038062002a8e833981016040819052620000349162000156565b80806200004130620000c5565b6001600160a01b03908116608052604051635df8122f60e01b81523060048201529082166024820152731820a4b7618bde71dce8cdc73aab6c95905fad2490635df8122f90604401600060405180830381600087803b158015620000a457600080fd5b505af1158015620000b9573d6000803e3d6000fd5b50505050505062000188565b6001600160a01b038116620000e760008051602062002a6e8339815191525490565b6001600160a01b03161415620001435760405162461bcd60e51b815260206004820152601f60248201527f496d706c656d656e746174696f6e20616c7265616479206d61746368696e6700604482015260640160405180910390fd5b60008051602062002a6e83398151915255565b6000602082840312156200016957600080fd5b81516001600160a01b03811681146200018157600080fd5b9392505050565b6080516128a7620001c7600039600081816101b8015281816104530152818161128b015281816113eb01528181611e9c0152611f4b01526128a76000f3fe608060405234801561001057600080fd5b50600436106101ae5760003560e01c806339634e0c116100ee5780637c33bd0211610097578063c4d66de811610071578063c4d66de8146103d5578063dfbf53ae146103e8578063e8fcf72314610408578063f14fcbc81461042857600080fd5b80637c33bd02146103bc578063af12645a146103c4578063c062f578146103cd57600080fd5b80635bf5d54c116100c85780635bf5d54c146103435780635c60da1b14610375578063776f38431461039c57600080fd5b806339634e0c1461030757806340eedabb1461031a578063495d18e21461033a57600080fd5b806322dae7ea1161015b5780632d913bfb116101355780632d913bfb1461028857806332f0b8fa146102905780633341b44514610298578063376cf9bf146102fe57600080fd5b806322dae7ea14610259578063249cb3fa1461026c578063280ee4ee1461027f57600080fd5b806315f4eaa51161018c57806315f4eaa514610221578063160cd179146102345780631a43c3381461025157600080fd5b80630505c8c9146101b357806309d7f23b1461020457806309ed460714610219575b600080fd5b6101da7f000000000000000000000000000000000000000000000000000000000000000081565b60405173ffffffffffffffffffffffffffffffffffffffff90911681526020015b60405180910390f35b6102176102123660046123f1565b61043b565b005b6101da61052f565b61021761022f3660046124d3565b610690565b610243670de0b6b3a764000081565b6040519081526020016101fb565b610217610dde565b610217610267366004612552565b610f65565b61024361027a36600461258d565b611287565b61024360025481565b610243607881565b61024360b481565b6102d66102a63660046125bd565b60046020819052600091825260409091208054600182015460028301546003840154939094015491939092909185565b604080519586526020860194909452928401919091526060830152608082015260a0016101fb565b61024360015481565b6102176103153660046125bd565b6113d3565b6007546101da9073ffffffffffffffffffffffffffffffffffffffff1681565b61024360035481565b6000546103689074010000000000000000000000000000000000000000900460ff1681565b6040516101fb9190612610565b7ff86c915dad5894faca0dfa067c58fdf4307406d255ed0a65db394f82b77f53d4546101da565b6102436103aa3660046125bd565b60066020526000908152604090205481565b6102176114df565b61024361025881565b6102176116af565b6102176103e33660046125bd565b611893565b6008546101da9073ffffffffffffffffffffffffffffffffffffffff1681565b6102436104163660046125bd565b60056020526000908152604090205481565b610217610436366004612651565b611aa3565b3373ffffffffffffffffffffffffffffffffffffffff7f00000000000000000000000000000000000000000000000000000000000000001614610505576040517f08c379a000000000000000000000000000000000000000000000000000000000815260206004820152602e60248201527f4f6e6c792074686520706f6c69637920636f6e7472616374206d61792063616c60448201527f6c2074686973206d6574686f642e00000000000000000000000000000000000060648201526084015b60405180910390fd5b600080825160208401855af43d806000803e81801561052357816000f35b816000fd5b5050505050565b60003061055a7ff86c915dad5894faca0dfa067c58fdf4307406d255ed0a65db394f82b77f53d45490565b73ffffffffffffffffffffffffffffffffffffffff16146105fd576040517f08c379a000000000000000000000000000000000000000000000000000000000815260206004820152602660248201527f54686973206d6574686f642063616e6e6f742062652063616c6c6564206f6e2060448201527f636c6f6e6573000000000000000000000000000000000000000000000000000060648201526084016104fc565b600061060830611cea565b6040517fc4d66de800000000000000000000000000000000000000000000000000000000815230600482015290915073ffffffffffffffffffffffffffffffffffffffff82169063c4d66de890602401600060405180830381600087803b15801561067257600080fd5b505af1158015610686573d6000803e3d6000fd5b5092949350505050565b600261069a6116af565b8060048111156106ac576106ac6125e1565b60005474010000000000000000000000000000000000000000900460ff1660048111156106db576106db6125e1565b14610768576040517f08c379a000000000000000000000000000000000000000000000000000000000815260206004820152602760248201527f546869732063616c6c206973206e6f7420616c6c6f776564206174207468697360448201527f2073746167652e0000000000000000000000000000000000000000000000000060648201526084016104fc565b81806107d0576040517f08c379a000000000000000000000000000000000000000000000000000000000815260206004820152601160248201527f43616e6e6f7420766f746520656d70747900000000000000000000000000000060448201526064016104fc565b33600090815260056020526040902054610846576040517f08c379a000000000000000000000000000000000000000000000000000000000815260206004820152601f60248201527f4e6f20756e72657665616c656420636f6d6d69746d656e74206578697374730060448201526064016104fc565b33600081815260056020908152604091829020549151919261086e928992899189910161266a565b60405160208183030381529060405280519060200120146108eb576040517f08c379a000000000000000000000000000000000000000000000000000000000815260206004820152601360248201527f436f6d6d69746d656e74206d69736d617463680000000000000000000000000060448201526064016104fc565b6000848480806020026020016040519081016040528093929190818152602001838360200280828437600092019190915250929350505060018311159050610b135760015b82811015610b1157805b8015610b00576000838281518110610954576109546126ec565b6020026020010151905060008460018461096e919061274a565b8151811061097e5761097e6126ec565b602002602001015190508073ffffffffffffffffffffffffffffffffffffffff168273ffffffffffffffffffffffffffffffffffffffff161415610a1e576040517f08c379a000000000000000000000000000000000000000000000000000000000815260206004820152601e60248201527f496e76616c696420766f74652c2072657065617465642061646472657373000060448201526064016104fc565b8073ffffffffffffffffffffffffffffffffffffffff168273ffffffffffffffffffffffffffffffffffffffff161015610ae65780858481518110610a6557610a656126ec565b73ffffffffffffffffffffffffffffffffffffffff909216602092830291909101909101528185610a9760018661274a565b81518110610aa757610aa76126ec565b602002602001019073ffffffffffffffffffffffffffffffffffffffff16908173ffffffffffffffffffffffffffffffffffffffff1681525050610aed565b5050610b00565b505080610af990612761565b905061093a565b50610b0a81612796565b9050610930565b505b3360009081526005602090815260408220829055818052600690527f54cdd369e4e8a8515e52ca72ec816c2101831ad1f18bf44102ed171459c9b4f8805460019290610b6090849061274a565b90915550600090505b82811015610cfc576000868683818110610b8557610b856126ec565b9050602002016020810190610b9a91906125bd565b73ffffffffffffffffffffffffffffffffffffffff811660009081526004602081905260409091200154909150610c2d576040517f08c379a000000000000000000000000000000000000000000000000000000000815260206004820152601e60248201527f496e76616c696420766f74652c206d697373696e672070726f706f73616c000060448201526064016104fc565b610c37828561274a565b73ffffffffffffffffffffffffffffffffffffffff821660009081526006602052604081208054909190610c6c9084906127cf565b909155505060075473ffffffffffffffffffffffffffffffffffffffff9081166000908152600660205260408082205492841682529020541115610ceb57600780547fffffffffffffffffffffffff00000000000000000000000000000000000000001673ffffffffffffffffffffffffffffffffffffffff83161790555b50610cf581612796565b9050610b69565b50610d05611d53565b6040517f92c1ff4400000000000000000000000000000000000000000000000000000000815233600482015273ffffffffffffffffffffffffffffffffffffffff91909116906392c1ff4490602401600060405180830381600087803b158015610d6e57600080fd5b505af1158015610d82573d6000803e3d6000fd5b505050503373ffffffffffffffffffffffffffffffffffffffff167f6e74ae2a1ff01920ec4c82ff1f3abe271492c566d046d93fcb7c35fb320974e08686604051610dce9291906127e7565b60405180910390a2505050505050565b6003610de86116af565b806004811115610dfa57610dfa6125e1565b60005474010000000000000000000000000000000000000000900460ff166004811115610e2957610e296125e1565b14610eb6576040517f08c379a000000000000000000000000000000000000000000000000000000000815260206004820152602760248201527f546869732063616c6c206973206e6f7420616c6c6f776564206174207468697360448201527f2073746167652e0000000000000000000000000000000000000000000000000060648201526084016104fc565b600754600880547fffffffffffffffffffffffff00000000000000000000000000000000000000001673ffffffffffffffffffffffffffffffffffffffff9092169182179055600080547fffffffffffffffffffffff00ffffffffffffffffffffffffffffffffffffffff16740400000000000000000000000000000000000000001781556040517f90a00738854d4c5880219676e29735d3621c39e001de986d1225ce4ebb0ca1779190a250565b610f6d611d53565b6040517f96d6487900000000000000000000000000000000000000000000000000000000815233600482015273ffffffffffffffffffffffffffffffffffffffff91909116906396d648799060240160206040518083038186803b158015610fd457600080fd5b505afa158015610fe8573d6000803e3d6000fd5b505050506040513d601f19601f8201168201806040525081019061100c9190612842565b611098576040517f08c379a000000000000000000000000000000000000000000000000000000000815260206004820152602760248201527f4f6e6c792074727573746564206e6f6465732063616e2063616c6c207468697360448201527f206d6574686f640000000000000000000000000000000000000000000000000060648201526084016104fc565b60006110a26116af565b8060048111156110b4576110b46125e1565b60005474010000000000000000000000000000000000000000900460ff1660048111156110e3576110e36125e1565b14611170576040517f08c379a000000000000000000000000000000000000000000000000000000000815260206004820152602760248201527f546869732063616c6c206973206e6f7420616c6c6f776564206174207468697360448201527f2073746167652e0000000000000000000000000000000000000000000000000060648201526084016104fc565b600082116111ff576040517f08c379a0000000000000000000000000000000000000000000000000000000008152602060048201526024808201527f496e666c6174696f6e206d756c7469706c6965722063616e6e6f74206265207a60448201527f65726f2e0000000000000000000000000000000000000000000000000000000060648201526084016104fc565b336000818152600460208181526040928390208a8155600181018a9055600281018990556003810188905591820186905582518a8152908101899052918201879052606082018690526080820185905291907f1f2ae379bcbc7836e7cc834d4b7c75ba4f8e59050251fff897b871f27874a2e79060a00160405180910390a250505050505050565b60007f000000000000000000000000000000000000000000000000000000000000000073ffffffffffffffffffffffffffffffffffffffff168273ffffffffffffffffffffffffffffffffffffffff1614806112fd575060005473ffffffffffffffffffffffffffffffffffffffff8381169116145b611389576040517f08c379a000000000000000000000000000000000000000000000000000000000815260206004820152603c60248201527f4f6e6c792074686520706f6c696379206f7220696e7465726661636520636f6e60448201527f74726163742063616e207365742074686520696e746572666163652e0000000060648201526084016104fc565b6040517f455243313832305f4143434550545f4d41474943000000000000000000000000602082015260340160405160208183030381529060405280519060200120905092915050565b3373ffffffffffffffffffffffffffffffffffffffff7f00000000000000000000000000000000000000000000000000000000000000001614611498576040517f08c379a000000000000000000000000000000000000000000000000000000000815260206004820152602e60248201527f4f6e6c792074686520706f6c69637920636f6e7472616374206d61792063616c60448201527f6c2074686973206d6574686f642e00000000000000000000000000000000000060648201526084016104fc565b600080547fffffffffffffffffffffffff00000000000000000000000000000000000000001673ffffffffffffffffffffffffffffffffffffffff92909216919091179055565b60006114e96116af565b8060048111156114fb576114fb6125e1565b60005474010000000000000000000000000000000000000000900460ff16600481111561152a5761152a6125e1565b146115b7576040517f08c379a000000000000000000000000000000000000000000000000000000000815260206004820152602760248201527f546869732063616c6c206973206e6f7420616c6c6f776564206174207468697360448201527f2073746167652e0000000000000000000000000000000000000000000000000060648201526084016104fc565b3360009081526004602081905260409091200154611657576040517f08c379a000000000000000000000000000000000000000000000000000000000815260206004820152602560248201527f596f7520646f206e6f74206861766520612070726f706f73616c20746f20726560448201527f747261637400000000000000000000000000000000000000000000000000000060648201526084016104fc565b336000818152600460208190526040808320838155600181018490556002810184905560038101849055909101829055517fa7168747510800c9ddf4d16852ceb46c013916bf25709d850c8bbb842db0c3599190a250565b60004290506000805474010000000000000000000000000000000000000000900460ff1660048111156116e4576116e46125e1565b1480156116f357506001548110155b1561175f57600080547fffffffffffffffffffffff00ffffffffffffffffffffffffffffffffffffffff16740100000000000000000000000000000000000000001781556040517f1e1404280fbb8e5a27fb6edb0e7962663c44e22452eaa16f6a25b4e892e0130d9190a15b600160005474010000000000000000000000000000000000000000900460ff166004811115611790576117906125e1565b14801561179f57506002548110155b1561180b57600080547fffffffffffffffffffffff00ffffffffffffffffffffffffffffffffffffffff16740200000000000000000000000000000000000000001781556040517f63fc34cc2be0f643552b36cc8c5ecb01ab1021ce93dd86c01e798514acb982999190a15b600260005474010000000000000000000000000000000000000000900460ff16600481111561183c5761183c6125e1565b14801561184b57506003548110155b1561189057600080547fffffffffffffffffffffff00ffffffffffffffffffffffffffffffffffffffff16740300000000000000000000000000000000000000001790555b50565b60006118bd7ff86c915dad5894faca0dfa067c58fdf4307406d255ed0a65db394f82b77f53d45490565b73ffffffffffffffffffffffffffffffffffffffff1614611960576040517f08c379a000000000000000000000000000000000000000000000000000000000815260206004820152602860248201527f43616e206f6e6c792062652063616c6c656420647572696e6720696e6974696160448201527f6c697a6174696f6e00000000000000000000000000000000000000000000000060648201526084016104fc565b61196981611d83565b611975610258426127cf565b60018190556119869060b4906127cf565b6002819055611997906078906127cf565b600355600080526004602052670de0b6b3a76400007f17ef568e3e12ab5b9c7254a8d58478811de00f9e6eb34345acd53bf8fd09d3f0557f17ef568e3e12ab5b9c7254a8d58478811de00f9e6eb34345acd53bf8fd09d3ec6119f7611d53565b73ffffffffffffffffffffffffffffffffffffffff16634baa69016040518163ffffffff1660e01b815260040160206040518083038186803b158015611a3c57600080fd5b505afa158015611a50573d6000803e3d6000fd5b505050506040513d601f19601f82011682018060405250810190611a749190612864565b6000805260066020527f54cdd369e4e8a8515e52ca72ec816c2101831ad1f18bf44102ed171459c9b4f8555050565b611aab611d53565b6040517f96d6487900000000000000000000000000000000000000000000000000000000815233600482015273ffffffffffffffffffffffffffffffffffffffff91909116906396d648799060240160206040518083038186803b158015611b1257600080fd5b505afa158015611b26573d6000803e3d6000fd5b505050506040513d601f19601f82011682018060405250810190611b4a9190612842565b611bd6576040517f08c379a000000000000000000000000000000000000000000000000000000000815260206004820152602760248201527f4f6e6c792074727573746564206e6f6465732063616e2063616c6c207468697360448201527f206d6574686f640000000000000000000000000000000000000000000000000060648201526084016104fc565b6001611be06116af565b806004811115611bf257611bf26125e1565b60005474010000000000000000000000000000000000000000900460ff166004811115611c2157611c216125e1565b14611cae576040517f08c379a000000000000000000000000000000000000000000000000000000000815260206004820152602760248201527f546869732063616c6c206973206e6f7420616c6c6f776564206174207468697360448201527f2073746167652e0000000000000000000000000000000000000000000000000060648201526084016104fc565b33600081815260056020526040808220859055517fb87a61d78bd15221c59b983f6ef032fbde0631e66bfe18d1421fe5a73c16741d9190a25050565b6000808260601b90506040517f3d602d80600a3d3981f3363d3d373d3d3d363d7300000000000000000000000081528160148201527f5af43d82803e903d91602b57fd5bf3000000000000000000000000000000000060288201526037816000f0949350505050565b6000611d7e7f0e3d3f2b74f96e5fd24f23acf8b4b352d4e1d0d0ed45271f4e44aa64f98b2284611f0e565b905090565b6000611dad7ff86c915dad5894faca0dfa067c58fdf4307406d255ed0a65db394f82b77f53d45490565b73ffffffffffffffffffffffffffffffffffffffff1614611e50576040517f08c379a000000000000000000000000000000000000000000000000000000000815260206004820152602860248201527f43616e206f6e6c792062652063616c6c656420647572696e6720696e6974696160448201527f6c697a6174696f6e00000000000000000000000000000000000000000000000060648201526084016104fc565b611e5981611fef565b6040517f5df8122f00000000000000000000000000000000000000000000000000000000815230600482015273ffffffffffffffffffffffffffffffffffffffff7f0000000000000000000000000000000000000000000000000000000000000000166024820152731820a4b7618bde71dce8cdc73aab6c95905fad2490635df8122f90604401600060405180830381600087803b158015611efa57600080fd5b505af1158015610528573d6000803e3d6000fd5b6040517faabbb8ca00000000000000000000000000000000000000000000000000000000815273ffffffffffffffffffffffffffffffffffffffff7f000000000000000000000000000000000000000000000000000000000000000016600482015260248101829052600090731820a4b7618bde71dce8cdc73aab6c95905fad249063aabbb8ca9060440160206040518083038186803b158015611fb157600080fd5b505afa158015611fc5573d6000803e3d6000fd5b505050506040513d601f19601f82011682018060405250810190611fe9919061287d565b92915050565b60006120197ff86c915dad5894faca0dfa067c58fdf4307406d255ed0a65db394f82b77f53d45490565b73ffffffffffffffffffffffffffffffffffffffff16146120bc576040517f08c379a000000000000000000000000000000000000000000000000000000000815260206004820152602860248201527f43616e206f6e6c792062652063616c6c656420647572696e6720696e6974696160448201527f6c697a6174696f6e00000000000000000000000000000000000000000000000060648201526084016104fc565b6118908160006120ea7ff86c915dad5894faca0dfa067c58fdf4307406d255ed0a65db394f82b77f53d45490565b73ffffffffffffffffffffffffffffffffffffffff161461218d576040517f08c379a000000000000000000000000000000000000000000000000000000000815260206004820152602860248201527f43616e206f6e6c792062652063616c6c656420647572696e6720696e6974696160448201527f6c697a6174696f6e00000000000000000000000000000000000000000000000060648201526084016104fc565b60008173ffffffffffffffffffffffffffffffffffffffff16635c60da1b6040518163ffffffff1660e01b815260040160206040518083038186803b1580156121d557600080fd5b505afa1580156121e9573d6000803e3d6000fd5b505050506040513d601f19601f8201168201806040525081019061220d919061287d565b905073ffffffffffffffffffffffffffffffffffffffff81166122b2576040517f08c379a000000000000000000000000000000000000000000000000000000000815260206004820152602c60248201527f696e697469616c697a6174696f6e206661696c7572653a206e6f7468696e672060448201527f746f20696d706c656d656e74000000000000000000000000000000000000000060648201526084016104fc565b6122bb816122bf565b5050565b8073ffffffffffffffffffffffffffffffffffffffff166122fe7ff86c915dad5894faca0dfa067c58fdf4307406d255ed0a65db394f82b77f53d45490565b73ffffffffffffffffffffffffffffffffffffffff16141561237c576040517f08c379a000000000000000000000000000000000000000000000000000000000815260206004820152601f60248201527f496d706c656d656e746174696f6e20616c7265616479206d61746368696e670060448201526064016104fc565b7ff86c915dad5894faca0dfa067c58fdf4307406d255ed0a65db394f82b77f53d455565b73ffffffffffffffffffffffffffffffffffffffff8116811461189057600080fd5b7f4e487b7100000000000000000000000000000000000000000000000000000000600052604160045260246000fd5b6000806040838503121561240457600080fd5b823561240f816123a0565b9150602083013567ffffffffffffffff8082111561242c57600080fd5b818501915085601f83011261244057600080fd5b813581811115612452576124526123c2565b604051601f82017fffffffffffffffffffffffffffffffffffffffffffffffffffffffffffffffe0908116603f01168101908382118183101715612498576124986123c2565b816040528281528860208487010111156124b157600080fd5b8260208601602083013760006020848301015280955050505050509250929050565b6000806000604084860312156124e857600080fd5b83359250602084013567ffffffffffffffff8082111561250757600080fd5b818601915086601f83011261251b57600080fd5b81358181111561252a57600080fd5b8760208260051b850101111561253f57600080fd5b6020830194508093505050509250925092565b600080600080600060a0868803121561256a57600080fd5b505083359560208501359550604085013594606081013594506080013592509050565b600080604083850312156125a057600080fd5b8235915060208301356125b2816123a0565b809150509250929050565b6000602082840312156125cf57600080fd5b81356125da816123a0565b9392505050565b7f4e487b7100000000000000000000000000000000000000000000000000000000600052602160045260246000fd5b602081016005831061264b577f4e487b7100000000000000000000000000000000000000000000000000000000600052602160045260246000fd5b91905290565b60006020828403121561266357600080fd5b5035919050565b848152600060207fffffffffffffffffffffffffffffffffffffffff0000000000000000000000008660601b1681840152603483018560005b868110156126de5781356126b6816123a0565b73ffffffffffffffffffffffffffffffffffffffff16835291830191908301906001016126a3565b509098975050505050505050565b7f4e487b7100000000000000000000000000000000000000000000000000000000600052603260045260246000fd5b7f4e487b7100000000000000000000000000000000000000000000000000000000600052601160045260246000fd5b60008282101561275c5761275c61271b565b500390565b6000816127705761277061271b565b507fffffffffffffffffffffffffffffffffffffffffffffffffffffffffffffffff0190565b60007fffffffffffffffffffffffffffffffffffffffffffffffffffffffffffffffff8214156127c8576127c861271b565b5060010190565b600082198211156127e2576127e261271b565b500190565b60208082528181018390526000908460408401835b8681101561283757823561280f816123a0565b73ffffffffffffffffffffffffffffffffffffffff16825291830191908301906001016127fc565b509695505050505050565b60006020828403121561285457600080fd5b815180151581146125da57600080fd5b60006020828403121561287657600080fd5b5051919050565b60006020828403121561288f57600080fd5b81516125da816123a056fea164736f6c6343000809000af86c915dad5894faca0dfa067c58fdf4307406d255ed0a65db394f82b77f53d4",
  "linkReferences": {},
  "deployedLinkReferences": {}
}