{
  "_format": "hh-sol-artifact-1",
  "contractName": "ECO",
  "sourceName": "contracts/currency/ECO.sol",
  "abi": [
    {
      "inputs": [
        {
          "internalType": "contract Policy",
          "name": "_policy",
          "type": "address"
        },
        {
          "internalType": "address",
          "name": "_distributor",
          "type": "address"
        },
        {
          "internalType": "uint256",
          "name": "_initialSupply",
          "type": "uint256"
        }
      ],
      "stateMutability": "nonpayable",
      "type": "constructor"
    },
    {
      "anonymous": false,
      "inputs": [
        {
          "indexed": true,
          "internalType": "address",
          "name": "owner",
          "type": "address"
        },
        {
          "indexed": true,
          "internalType": "address",
          "name": "spender",
          "type": "address"
        },
        {
          "indexed": false,
          "internalType": "uint256",
          "name": "value",
          "type": "uint256"
        }
      ],
      "name": "Approval",
      "type": "event"
    },
    {
      "anonymous": false,
      "inputs": [
        {
          "indexed": true,
          "internalType": "address",
          "name": "from",
          "type": "address"
        },
        {
          "indexed": true,
          "internalType": "address",
          "name": "to",
          "type": "address"
        },
        {
          "indexed": false,
          "internalType": "uint256",
          "name": "value",
          "type": "uint256"
        }
      ],
      "name": "BaseValueTransfer",
      "type": "event"
    },
    {
      "anonymous": false,
      "inputs": [
        {
          "indexed": true,
          "internalType": "address",
          "name": "delegator",
          "type": "address"
        },
        {
          "indexed": true,
          "internalType": "address",
          "name": "delegatee",
          "type": "address"
        },
        {
          "indexed": false,
          "internalType": "uint256",
          "name": "amount",
          "type": "uint256"
        }
      ],
      "name": "DelegatedVotes",
      "type": "event"
    },
    {
      "anonymous": false,
      "inputs": [
        {
          "indexed": false,
          "internalType": "uint256",
          "name": "inflationMultiplier",
          "type": "uint256"
        }
      ],
      "name": "NewInflationMultiplier",
      "type": "event"
    },
    {
      "anonymous": false,
      "inputs": [
        {
          "indexed": true,
          "internalType": "address",
          "name": "delegator",
          "type": "address"
        },
        {
          "indexed": true,
          "internalType": "address",
          "name": "primaryDelegate",
          "type": "address"
        }
      ],
      "name": "NewPrimaryDelegate",
      "type": "event"
    },
    {
      "anonymous": false,
      "inputs": [
        {
          "indexed": true,
          "internalType": "address",
          "name": "from",
          "type": "address"
        },
        {
          "indexed": true,
          "internalType": "address",
          "name": "to",
          "type": "address"
        },
        {
          "indexed": false,
          "internalType": "uint256",
          "name": "value",
          "type": "uint256"
        }
      ],
      "name": "Transfer",
      "type": "event"
    },
    {
      "anonymous": false,
      "inputs": [
        {
          "indexed": true,
          "internalType": "address",
          "name": "voter",
          "type": "address"
        },
        {
          "indexed": false,
          "internalType": "uint256",
          "name": "newVotes",
          "type": "uint256"
        }
      ],
      "name": "UpdatedVotes",
      "type": "event"
    },
    {
      "inputs": [],
      "name": "DOMAIN_SEPARATOR",
      "outputs": [
        {
          "internalType": "bytes32",
          "name": "",
          "type": "bytes32"
        }
      ],
      "stateMutability": "view",
      "type": "function"
    },
    {
      "inputs": [],
      "name": "INITIAL_INFLATION_MULTIPLIER",
      "outputs": [
        {
          "internalType": "uint256",
          "name": "",
          "type": "uint256"
        }
      ],
      "stateMutability": "view",
      "type": "function"
    },
    {
      "inputs": [
        {
          "internalType": "address",
          "name": "owner",
          "type": "address"
        },
        {
          "internalType": "address",
          "name": "spender",
          "type": "address"
        }
      ],
      "name": "allowance",
      "outputs": [
        {
          "internalType": "uint256",
          "name": "",
          "type": "uint256"
        }
      ],
      "stateMutability": "view",
      "type": "function"
    },
    {
      "inputs": [
        {
          "internalType": "address",
          "name": "spender",
          "type": "address"
        },
        {
          "internalType": "uint256",
          "name": "amount",
          "type": "uint256"
        }
      ],
      "name": "approve",
      "outputs": [
        {
          "internalType": "bool",
          "name": "",
          "type": "bool"
        }
      ],
      "stateMutability": "nonpayable",
      "type": "function"
    },
    {
      "inputs": [
        {
          "internalType": "address",
          "name": "_owner",
          "type": "address"
        }
      ],
      "name": "balanceOf",
      "outputs": [
        {
          "internalType": "uint256",
          "name": "",
          "type": "uint256"
        }
      ],
      "stateMutability": "view",
      "type": "function"
    },
    {
      "inputs": [
        {
          "internalType": "address",
          "name": "_from",
          "type": "address"
        },
        {
          "internalType": "uint256",
          "name": "_value",
          "type": "uint256"
        }
      ],
      "name": "burn",
      "outputs": [],
      "stateMutability": "nonpayable",
      "type": "function"
    },
    {
      "inputs": [
        {
          "internalType": "bytes32",
          "name": "",
          "type": "bytes32"
        },
        {
          "internalType": "address",
          "name": "_addr",
          "type": "address"
        }
      ],
      "name": "canImplementInterfaceForAddress",
      "outputs": [
        {
          "internalType": "bytes32",
          "name": "",
          "type": "bytes32"
        }
      ],
      "stateMutability": "view",
      "type": "function"
    },
    {
      "inputs": [
        {
          "internalType": "address",
          "name": "",
          "type": "address"
        },
        {
          "internalType": "uint256",
          "name": "",
          "type": "uint256"
        }
      ],
      "name": "checkpoints",
      "outputs": [
        {
          "internalType": "uint32",
          "name": "fromBlock",
          "type": "uint32"
        },
        {
          "internalType": "uint224",
          "name": "value",
          "type": "uint224"
        }
      ],
      "stateMutability": "view",
      "type": "function"
    },
    {
      "inputs": [],
      "name": "clone",
      "outputs": [
        {
          "internalType": "address",
          "name": "",
          "type": "address"
        }
      ],
      "stateMutability": "nonpayable",
      "type": "function"
    },
    {
      "inputs": [],
      "name": "currentGeneration",
      "outputs": [
        {
          "internalType": "uint256",
          "name": "",
          "type": "uint256"
        }
      ],
      "stateMutability": "view",
      "type": "function"
    },
    {
      "inputs": [],
      "name": "decimals",
      "outputs": [
        {
          "internalType": "uint8",
          "name": "",
          "type": "uint8"
        }
      ],
      "stateMutability": "view",
      "type": "function"
    },
    {
      "inputs": [
        {
          "internalType": "address",
          "name": "spender",
          "type": "address"
        },
        {
          "internalType": "uint256",
          "name": "subtractedValue",
          "type": "uint256"
        }
      ],
      "name": "decreaseAllowance",
      "outputs": [
        {
          "internalType": "bool",
          "name": "",
          "type": "bool"
        }
      ],
      "stateMutability": "nonpayable",
      "type": "function"
    },
    {
      "inputs": [
        {
          "internalType": "address",
          "name": "delegatee",
          "type": "address"
        }
      ],
      "name": "delegate",
      "outputs": [],
      "stateMutability": "nonpayable",
      "type": "function"
    },
    {
      "inputs": [
        {
          "internalType": "address",
          "name": "delegatee",
          "type": "address"
        },
        {
          "internalType": "uint256",
          "name": "amount",
          "type": "uint256"
        }
      ],
      "name": "delegateAmount",
      "outputs": [],
      "stateMutability": "nonpayable",
      "type": "function"
    },
    {
      "inputs": [
        {
          "internalType": "address",
          "name": "delegator",
          "type": "address"
        },
        {
          "internalType": "address",
          "name": "delegatee",
          "type": "address"
        },
        {
          "internalType": "uint256",
          "name": "deadline",
          "type": "uint256"
        },
        {
          "internalType": "uint8",
          "name": "v",
          "type": "uint8"
        },
        {
          "internalType": "bytes32",
          "name": "r",
          "type": "bytes32"
        },
        {
          "internalType": "bytes32",
          "name": "s",
          "type": "bytes32"
        }
      ],
      "name": "delegateBySig",
      "outputs": [],
      "stateMutability": "nonpayable",
      "type": "function"
    },
    {
      "inputs": [
        {
          "internalType": "address",
          "name": "",
          "type": "address"
        }
      ],
      "name": "delegationEnabled",
      "outputs": [
        {
          "internalType": "bool",
          "name": "",
          "type": "bool"
        }
      ],
      "stateMutability": "view",
      "type": "function"
    },
    {
      "inputs": [
        {
          "internalType": "address",
          "name": "owner",
          "type": "address"
        }
      ],
      "name": "delegationNonces",
      "outputs": [
        {
          "internalType": "uint256",
          "name": "",
          "type": "uint256"
        }
      ],
      "stateMutability": "view",
      "type": "function"
    },
    {
      "inputs": [],
      "name": "disableDelegation",
      "outputs": [],
      "stateMutability": "nonpayable",
      "type": "function"
    },
    {
      "inputs": [],
      "name": "distributor",
      "outputs": [
        {
          "internalType": "address",
          "name": "",
          "type": "address"
        }
      ],
      "stateMutability": "view",
      "type": "function"
    },
    {
      "inputs": [],
      "name": "enableDelegation",
      "outputs": [],
      "stateMutability": "nonpayable",
      "type": "function"
    },
    {
      "inputs": [
        {
          "internalType": "uint256",
          "name": "blockNumber",
          "type": "uint256"
        }
      ],
      "name": "getPastLinearInflation",
      "outputs": [
        {
          "internalType": "uint256",
          "name": "",
          "type": "uint256"
        }
      ],
      "stateMutability": "view",
      "type": "function"
    },
    {
      "inputs": [
        {
          "internalType": "uint256",
          "name": "blockNumber",
          "type": "uint256"
        }
      ],
      "name": "getPastTotalSupply",
      "outputs": [
        {
          "internalType": "uint256",
          "name": "",
          "type": "uint256"
        }
      ],
      "stateMutability": "view",
      "type": "function"
    },
    {
      "inputs": [
        {
          "internalType": "address",
          "name": "_owner",
          "type": "address"
        },
        {
          "internalType": "uint256",
          "name": "_blockNumber",
          "type": "uint256"
        }
      ],
      "name": "getPastVotes",
      "outputs": [
        {
          "internalType": "uint256",
          "name": "",
          "type": "uint256"
        }
      ],
      "stateMutability": "view",
      "type": "function"
    },
    {
      "inputs": [
        {
          "internalType": "address",
          "name": "account",
          "type": "address"
        },
        {
          "internalType": "uint256",
          "name": "blockNumber",
          "type": "uint256"
        }
      ],
      "name": "getPastVotingGons",
      "outputs": [
        {
          "internalType": "uint256",
          "name": "",
          "type": "uint256"
        }
      ],
      "stateMutability": "view",
      "type": "function"
    },
    {
      "inputs": [
        {
          "internalType": "address",
          "name": "account",
          "type": "address"
        }
      ],
      "name": "getPrimaryDelegate",
      "outputs": [
        {
          "internalType": "address",
          "name": "",
          "type": "address"
        }
      ],
      "stateMutability": "view",
      "type": "function"
    },
    {
      "inputs": [
        {
          "internalType": "address",
          "name": "account",
          "type": "address"
        }
      ],
      "name": "getVotingGons",
      "outputs": [
        {
          "internalType": "uint256",
          "name": "",
          "type": "uint256"
        }
      ],
      "stateMutability": "view",
      "type": "function"
    },
    {
      "inputs": [],
      "name": "implementation",
      "outputs": [
        {
          "internalType": "address",
          "name": "_impl",
          "type": "address"
        }
      ],
      "stateMutability": "view",
      "type": "function"
    },
    {
      "inputs": [
        {
          "internalType": "address",
          "name": "spender",
          "type": "address"
        },
        {
          "internalType": "uint256",
          "name": "addedValue",
          "type": "uint256"
        }
      ],
      "name": "increaseAllowance",
      "outputs": [
        {
          "internalType": "bool",
          "name": "",
          "type": "bool"
        }
      ],
      "stateMutability": "nonpayable",
      "type": "function"
    },
    {
      "inputs": [],
      "name": "initialSupply",
      "outputs": [
        {
          "internalType": "uint256",
          "name": "",
          "type": "uint256"
        }
      ],
      "stateMutability": "view",
      "type": "function"
    },
    {
      "inputs": [
        {
          "internalType": "address",
          "name": "_self",
          "type": "address"
        }
      ],
      "name": "initialize",
      "outputs": [],
      "stateMutability": "nonpayable",
      "type": "function"
    },
    {
      "inputs": [
        {
          "internalType": "address",
          "name": "account",
          "type": "address"
        }
      ],
      "name": "isOwnDelegate",
      "outputs": [
        {
          "internalType": "bool",
          "name": "",
          "type": "bool"
        }
      ],
      "stateMutability": "view",
      "type": "function"
    },
    {
      "inputs": [
        {
          "internalType": "address",
          "name": "_to",
          "type": "address"
        },
        {
          "internalType": "uint256",
          "name": "_value",
          "type": "uint256"
        }
      ],
      "name": "mint",
      "outputs": [],
      "stateMutability": "nonpayable",
      "type": "function"
    },
    {
      "inputs": [],
      "name": "name",
      "outputs": [
        {
          "internalType": "string",
          "name": "",
          "type": "string"
        }
      ],
      "stateMutability": "view",
      "type": "function"
    },
    {
      "inputs": [
        {
          "internalType": "address",
          "name": "owner",
          "type": "address"
        }
      ],
      "name": "nonces",
      "outputs": [
        {
          "internalType": "uint256",
          "name": "",
          "type": "uint256"
        }
      ],
      "stateMutability": "view",
      "type": "function"
    },
    {
      "inputs": [],
      "name": "notifyGenerationIncrease",
      "outputs": [],
      "stateMutability": "nonpayable",
      "type": "function"
    },
    {
      "inputs": [
        {
          "internalType": "address",
          "name": "account",
          "type": "address"
        }
      ],
      "name": "numCheckpoints",
      "outputs": [
        {
          "internalType": "uint32",
          "name": "",
          "type": "uint32"
        }
      ],
      "stateMutability": "view",
      "type": "function"
    },
    {
      "inputs": [
        {
          "internalType": "address",
          "name": "owner",
          "type": "address"
        },
        {
          "internalType": "address",
          "name": "spender",
          "type": "address"
        },
        {
          "internalType": "uint256",
          "name": "value",
          "type": "uint256"
        },
        {
          "internalType": "uint256",
          "name": "deadline",
          "type": "uint256"
        },
        {
          "internalType": "uint8",
          "name": "v",
          "type": "uint8"
        },
        {
          "internalType": "bytes32",
          "name": "r",
          "type": "bytes32"
        },
        {
          "internalType": "bytes32",
          "name": "s",
          "type": "bytes32"
        }
      ],
      "name": "permit",
      "outputs": [],
      "stateMutability": "nonpayable",
      "type": "function"
    },
    {
      "inputs": [],
      "name": "policy",
      "outputs": [
        {
          "internalType": "contract Policy",
          "name": "",
          "type": "address"
        }
      ],
      "stateMutability": "view",
      "type": "function"
    },
    {
      "inputs": [
        {
          "internalType": "address",
          "name": "_delegate",
          "type": "address"
        },
        {
          "internalType": "bytes",
          "name": "_data",
          "type": "bytes"
        }
      ],
      "name": "policyCommand",
      "outputs": [],
      "stateMutability": "nonpayable",
      "type": "function"
    },
    {
      "inputs": [
        {
          "internalType": "address",
          "name": "_addr",
          "type": "address"
        }
      ],
      "name": "setExpectedInterfaceSet",
      "outputs": [],
      "stateMutability": "nonpayable",
      "type": "function"
    },
    {
      "inputs": [],
      "name": "symbol",
      "outputs": [
        {
          "internalType": "string",
          "name": "",
          "type": "string"
        }
      ],
      "stateMutability": "view",
      "type": "function"
    },
    {
      "inputs": [],
      "name": "totalSupply",
      "outputs": [
        {
          "internalType": "uint256",
          "name": "",
          "type": "uint256"
        }
      ],
      "stateMutability": "view",
      "type": "function"
    },
    {
      "inputs": [
        {
          "internalType": "uint256",
          "name": "_blockNumber",
          "type": "uint256"
        }
      ],
      "name": "totalSupplyAt",
      "outputs": [
        {
          "internalType": "uint256",
          "name": "",
          "type": "uint256"
        }
      ],
      "stateMutability": "view",
      "type": "function"
    },
    {
      "inputs": [
        {
          "internalType": "address",
          "name": "recipient",
          "type": "address"
        },
        {
          "internalType": "uint256",
          "name": "amount",
          "type": "uint256"
        }
      ],
      "name": "transfer",
      "outputs": [
        {
          "internalType": "bool",
          "name": "",
          "type": "bool"
        }
      ],
      "stateMutability": "nonpayable",
      "type": "function"
    },
    {
      "inputs": [
        {
          "internalType": "address",
          "name": "sender",
          "type": "address"
        },
        {
          "internalType": "address",
          "name": "recipient",
          "type": "address"
        },
        {
          "internalType": "uint256",
          "name": "amount",
          "type": "uint256"
        }
      ],
      "name": "transferFrom",
      "outputs": [
        {
          "internalType": "bool",
          "name": "",
          "type": "bool"
        }
      ],
      "stateMutability": "nonpayable",
      "type": "function"
    },
    {
      "inputs": [],
      "name": "undelegate",
      "outputs": [],
      "stateMutability": "nonpayable",
      "type": "function"
    },
    {
      "inputs": [
        {
          "internalType": "address",
          "name": "delegatee",
          "type": "address"
        }
      ],
      "name": "undelegateFromAddress",
      "outputs": [],
      "stateMutability": "nonpayable",
      "type": "function"
    }
  ],
  "bytecode": "0x6102006040527f6e71edae12b1b97f4d1f60370fef10105fa2faae0126114a169c64845d6126c9610140523480156200003757600080fd5b5060405162005622380380620056228339810160408190526200005a9162000596565b60408051808201825260038082526245636f60e81b6020808401918252845180860186529283526245434f60e81b83820152845180860190955260018552603160f81b908501528251902060e08190527fc89efdaa54c0f20c7adf612882df0950f5a951637e0307cdcb4c672f298b8bc66101008190524660a0528794859283928692869284928492849283927f8b73c3c69bb8fe3d512ecc4cf759cc79239f7b179b0ffacaa9a75d522b39400f6200011581848462000235565b6080523060c05261012052506200013e935085925050506200027f602090811b620023b817901c565b61016081815250506200015c816200027f60201b620023b81760201c565b61018052506200017192503091505062000298565b6001600160a01b039081166101a052604051635df8122f60e01b81523060048201529082166024820152731820a4b7618bde71dce8cdc73aab6c95905fad2490635df8122f90604401600060405180830381600087803b158015620001d557600080fd5b505af1158015620001ea573d6000803e3d6000fd5b505050505062000216600c6200032a60201b620023d017670de0b6b3a76400006200032f60201b60201c565b5050506001600160a01b039092166101c0526101e052506200061a9050565b6040805160208101859052908101839052606081018290524660808201523060a082015260009060c0016040516020818303038152906040528051906020012090505b9392505050565b600060208251106200029057600080fd5b50601f015190565b6001600160a01b038116620002ba600080516020620056028339815191525490565b6001600160a01b03161415620003175760405162461bcd60e51b815260206004820152601f60248201527f496d706c656d656e746174696f6e20616c7265616479206d61746368696e670060448201526064015b60405180910390fd5b6000805160206200560283398151915255565b919050565b60006001600160e01b03821115620003835760405162461bcd60e51b81526020600482015260216024820152600080516020620055e28339815191526044820152607960f81b60648201526084016200030e565b63ffffffff431115620003e55760405162461bcd60e51b8152602060048201526024808201527f626c6f636b206e756d6265722063616e6e6f742062652063617374656420736160448201526366656c7960e01b60648201526084016200030e565b835480620004455750506040805180820190915263ffffffff43811682526001600160e01b038084166020808501918252875460018101895560008981529190912094519151909216640100000000029216919091179101558062000278565b60008562000455600184620005de565b8154811062000468576200046862000604565b6000918252602080832090910180549093506001600160e01b036401000000009091041691906200049c90839088908a901c565b90506001600160e01b03811115620004f05760405162461bcd60e51b81526020600482015260216024820152600080516020620055e28339815191526044820152607960f81b60648201526084016200030e565b825463ffffffff164314156200052257825463ffffffff166401000000006001600160e01b0383160217835562000572565b6040805180820190915263ffffffff43811682526001600160e01b0380841660208085019182528c54600181018e5560008e81529190912094519151909216640100000000029216919091179101555b979650505050505050565b6001600160a01b03811681146200059357600080fd5b50565b600080600060608486031215620005ac57600080fd5b8351620005b9816200057d565b6020850151909350620005cc816200057d565b80925050604084015190509250925092565b600082821015620005ff57634e487b7160e01b600052601160045260246000fd5b500390565b634e487b7160e01b600052603260045260246000fd5b60805160a05160c05160e05161010051610120516101405161016051610180516101a0516101c0516101e051614f05620006dd600039600081816104b601526120230152600081816106b701526120020152600081816103450152818161080901528181610bb2015281816112d4015281816129c00152613f5401526000611b1f015260006107b2015260006120b501526000612e6e01526000612ebd01526000612e9801526000612df101526000612e1b01526000612e450152614f056000f3fe608060405234801561001057600080fd5b50600436106103155760003560e01c80636fcfff45116101a75780639a032e98116100ee578063c4d66de811610097578063e189cba611610071578063e189cba614610745578063fc08456a14610758578063fd11b4d31461076b57600080fd5b8063c4d66de8146106d9578063d505accf146106ec578063dd62ed3e146106ff57600080fd5b8063a9059cbb116100c8578063a9059cbb1461068c578063b20d7fa91461069f578063bfe10928146106b257600080fd5b80639a032e98146106435780639dc29fac14610666578063a457c2d71461067957600080fd5b80638d57d7481161015057806392ab89bb1161012a57806392ab89bb1461062057806395d89b4114610628578063981b24d01461063057600080fd5b80638d57d748146105f15780638ddb428a146106045780638e539e8c1461060d57600080fd5b80637ecebe00116101815780637ecebe00146105ce57806388b00fd0146105e15780638d176ba5146105e957600080fd5b80636fcfff451461058457806370a08231146105ac578063795d82f5146105bf57600080fd5b8063313ce5671161026b5780633a46b1a8116102145780635c19a95c116101ee5780635c19a95c146105375780635c60da1b1461054a5780636e684b9a1461057157600080fd5b80633a46b1a8146104fe5780633edb7f831461051157806340c10f191461052457600080fd5b8063378dc3dc11610245578063378dc3dc146104b157806339509351146104d857806339634e0c146104eb57600080fd5b8063313ce5671461049257806335bbc7fe146104a15780633644e515146104a957600080fd5b806309d7f23b116102cd57806318160ddd116102a757806318160ddd1461046457806323b872dd1461046c578063249cb3fa1461047f57600080fd5b806309d7f23b146103fb57806309ed4607146104105780630cdfebfa1461041857600080fd5b806306fdde03116102fe57806306fdde031461038c578063094bc063146103a1578063095ea7b3146103e857600080fd5b806303c8a3c61461031a5780630505c8c914610340575b600080fd5b61032d6103283660046149a4565b61077e565b6040519081526020015b60405180910390f35b6103677f000000000000000000000000000000000000000000000000000000000000000081565b60405173ffffffffffffffffffffffffffffffffffffffff9091168152602001610337565b6103946107ab565b60405161033791906149c1565b6103d86103af3660046149a4565b73ffffffffffffffffffffffffffffffffffffffff166000908152600660205260409020541590565b6040519015158152602001610337565b6103d86103f6366004614a34565b6107db565b61040e610409366004614a8f565b6107f1565b005b6103676108e5565b61042b610426366004614a34565b610a46565b6040805163ffffffff90931683527bffffffffffffffffffffffffffffffffffffffffffffffffffffffff909116602083015201610337565b61032d610aa2565b6103d861047a366004614b71565b610ac6565b61032d61048d366004614bb2565b610bae565b60405160128152602001610337565b61040e610cfb565b61032d611269565b61032d7f000000000000000000000000000000000000000000000000000000000000000081565b6103d86104e6366004614a34565b611273565b61040e6104f93660046149a4565b6112bc565b61032d61050c366004614a34565b6113c8565b61040e61051f366004614a34565b6113f3565b61040e610532366004614a34565b611482565b61040e6105453660046149a4565b61148c565b7ff86c915dad5894faca0dfa067c58fdf4307406d255ed0a65db394f82b77f53d454610367565b61032d61057f366004614a34565b61162e565b6105976105923660046149a4565b6116ee565b60405163ffffffff9091168152602001610337565b61032d6105ba3660046149a4565b6117d0565b61032d670de0b6b3a764000081565b61032d6105dc3660046149a4565b611812565b61040e61183d565b61040e61195a565b6103676105ff3660046149a4565b611a31565b61032d600d5481565b61032d61061b366004614be2565b611a6e565b61040e611b0a565b610394611b18565b61032d61063e366004614be2565b611b43565b6103d86106513660046149a4565b60086020526000908152604090205460ff1681565b61040e610674366004614a34565b611b65565b6103d8610687366004614a34565b611c71565b6103d861069a366004614a34565b611d49565b61040e6106ad366004614c0c565b611d56565b6103677f000000000000000000000000000000000000000000000000000000000000000081565b61040e6106e73660046149a4565b611f27565b61040e6106fa366004614c6f565b612047565b61032d61070d366004614cdd565b73ffffffffffffffffffffffffffffffffffffffff918216600090815260026020908152604080832093909416825291909152205490565b61032d6107533660046149a4565b612206565b61040e6107663660046149a4565b61230e565b61032d610779366004614be2565b61231b565b73ffffffffffffffffffffffffffffffffffffffff81166000908152600460205260408120545b92915050565b60606107d67f00000000000000000000000000000000000000000000000000000000000000006123d5565b905090565b60006107e833848461243b565b50600192915050565b3373ffffffffffffffffffffffffffffffffffffffff7f000000000000000000000000000000000000000000000000000000000000000016146108bb576040517f08c379a000000000000000000000000000000000000000000000000000000000815260206004820152602e60248201527f4f6e6c792074686520706f6c69637920636f6e7472616374206d61792063616c60448201527f6c2074686973206d6574686f642e00000000000000000000000000000000000060648201526084015b60405180910390fd5b600080825160208401855af43d806000803e8180156108d957816000f35b816000fd5b5050505050565b6000306109107ff86c915dad5894faca0dfa067c58fdf4307406d255ed0a65db394f82b77f53d45490565b73ffffffffffffffffffffffffffffffffffffffff16146109b3576040517f08c379a000000000000000000000000000000000000000000000000000000000815260206004820152602660248201527f54686973206d6574686f642063616e6e6f742062652063616c6c6564206f6e2060448201527f636c6f6e6573000000000000000000000000000000000000000000000000000060648201526084016108b2565b60006109be3061254c565b6040517fc4d66de800000000000000000000000000000000000000000000000000000000815230600482015290915073ffffffffffffffffffffffffffffffffffffffff82169063c4d66de890602401600060405180830381600087803b158015610a2857600080fd5b505af1158015610a3c573d6000803e3d6000fd5b5092949350505050565b60096020528160005260406000208181548110610a6257600080fd5b60009182526020909120015463ffffffff8116925064010000000090047bffffffffffffffffffffffffffffffffffffffffffffffffffffffff16905082565b600080610ab0600c436125b5565b905080600354610ac09190614d3a565b91505090565b6000610ad384848461275d565b73ffffffffffffffffffffffffffffffffffffffff8416600090815260026020908152604080832033845290915290205482811015610b94576040517f08c379a000000000000000000000000000000000000000000000000000000000815260206004820152602860248201527f45524332303a207472616e7366657220616d6f756e742065786365656473206160448201527f6c6c6f77616e636500000000000000000000000000000000000000000000000060648201526084016108b2565b610ba1853385840361243b565b60019150505b9392505050565b60007f000000000000000000000000000000000000000000000000000000000000000073ffffffffffffffffffffffffffffffffffffffff168273ffffffffffffffffffffffffffffffffffffffff161480610c245750600b5473ffffffffffffffffffffffffffffffffffffffff8381169116145b610cb0576040517f08c379a000000000000000000000000000000000000000000000000000000000815260206004820152603c60248201527f4f6e6c792074686520706f6c696379206f7220696e7465726661636520636f6e60448201527f74726163742063616e207365742074686520696e746572666163652e0000000060648201526084016108b2565b6040517f455243313832305f4143434550545f4d4147494300000000000000000000000060208201526034015b60405160208183030381529060405280519060200120905092915050565b600d546000610d297fae30bfb87dec2bd0c16be9790f95842d84f58dc70b0a8f6ed22e9556176a7b19612983565b73ffffffffffffffffffffffffffffffffffffffff1663172195226040518163ffffffff1660e01b815260040160206040518083038186803b158015610d6e57600080fd5b505afa158015610d82573d6000803e3d6000fd5b505050506040513d601f19601f82011682018060405250810190610da69190614d75565b905081811415610e12576040517f08c379a000000000000000000000000000000000000000000000000000000000815260206004820152601c60248201527f47656e65726174696f6e20686173206e6f7420696e637265617365640000000060448201526064016108b2565b600d8190556000610e427fe4ee44a5d338a8b2452cc9552ec014656668eaacb55683101b7e1c2b167e5225612983565b905073ffffffffffffffffffffffffffffffffffffffff8116156112645760038173ffffffffffffffffffffffffffffffffffffffff16635bf5d54c6040518163ffffffff1660e01b815260040160206040518083038186803b158015610ea857600080fd5b505afa158015610ebc573d6000803e3d6000fd5b505050506040513d601f19601f82011682018060405250810190610ee09190614d8e565b6004811115610ef157610ef1614daf565b60ff161015610f5b578073ffffffffffffffffffffffffffffffffffffffff1663c062f5786040518163ffffffff1660e01b8152600401600060405180830381600087803b158015610f4257600080fd5b505af1158015610f56573d6000803e3d6000fd5b505050505b8073ffffffffffffffffffffffffffffffffffffffff16635bf5d54c6040518163ffffffff1660e01b815260040160206040518083038186803b158015610fa157600080fd5b505afa158015610fb5573d6000803e3d6000fd5b505050506040513d601f19601f82011682018060405250810190610fd99190614d8e565b6004811115610fea57610fea614daf565b60ff1660031415611056578073ffffffffffffffffffffffffffffffffffffffff16631a43c3386040518163ffffffff1660e01b8152600401600060405180830381600087803b15801561103d57600080fd5b505af1158015611051573d6000803e3d6000fd5b505050505b60008173ffffffffffffffffffffffffffffffffffffffff1663dfbf53ae6040518163ffffffff1660e01b815260040160206040518083038186803b15801561109e57600080fd5b505afa1580156110b2573d6000803e3d6000fd5b505050506040513d601f19601f820116820180604052508101906110d69190614dde565b905073ffffffffffffffffffffffffffffffffffffffff811615611262576040517f3341b44500000000000000000000000000000000000000000000000000000000815273ffffffffffffffffffffffffffffffffffffffff828116600483015260009190841690633341b4459060240160a06040518083038186803b15801561115f57600080fd5b505afa158015611173573d6000803e3d6000fd5b505050506040513d601f19601f820116820180604052508101906111979190614dfb565b6040518181529095507fb91f92f869a4caa45d223bc27bba633a4d27e87e75c3d48e3a8628ccea054824945060200192506111d0915050565b60405180910390a16000670de0b6b3a764000082600c6001600c805490506111f89190614e3b565b8154811061120857611208614e52565b600091825260209091200154611244919064010000000090047bffffffffffffffffffffffffffffffffffffffffffffffffffffffff16614e81565b61124e9190614d3a565b905061125e600c6123d083612a5e565b5050505b505b505050565b60006107d6612dd7565b33600081815260026020908152604080832073ffffffffffffffffffffffffffffffffffffffff8716845290915281205490916107e89185906112b7908690614ebe565b61243b565b3373ffffffffffffffffffffffffffffffffffffffff7f00000000000000000000000000000000000000000000000000000000000000001614611381576040517f08c379a000000000000000000000000000000000000000000000000000000000815260206004820152602e60248201527f4f6e6c792074686520706f6c69637920636f6e7472616374206d61792063616c60448201527f6c2074686973206d6574686f642e00000000000000000000000000000000000060648201526084016108b2565b600b80547fffffffffffffffffffffffff00000000000000000000000000000000000000001673ffffffffffffffffffffffffffffffffffffffff92909216919091179055565b6000806113d48361231b565b9050806113e1858561162e565b6113eb9190614d3a565b949350505050565b73ffffffffffffffffffffffffffffffffffffffff8216331415611473576040517f08c379a000000000000000000000000000000000000000000000000000000000815260206004820152601b60248201527f446f206e6f742064656c656761746520746f20796f757273656c66000000000060448201526064016108b2565b61147e338383612f0b565b5050565b61126482826131a8565b73ffffffffffffffffffffffffffffffffffffffff8116331415611532576040517f08c379a000000000000000000000000000000000000000000000000000000000815260206004820152603060248201527f55736520756e64656c656761746520696e7374656164206f662064656c65676160448201527f74696e6720746f20796f757273656c660000000000000000000000000000000060648201526084016108b2565b73ffffffffffffffffffffffffffffffffffffffff811660009081526008602052604090205460ff166115e7576040517f08c379a000000000000000000000000000000000000000000000000000000000815260206004820152602860248201527f5072696d6172792064656c656761746573206d75737420656e61626c6520646560448201527f6c65676174696f6e00000000000000000000000000000000000000000000000060648201526084016108b2565b33600090815260066020526040902054156116085761160861076633611a31565b3360008181526001602052604090205490611624908383612f0b565b61147e338361327f565b6000438211156116bf576040517f08c379a0000000000000000000000000000000000000000000000000000000008152602060048201526024808201527f566f7465436865636b706f696e74733a20626c6f636b206e6f7420796574206d60448201527f696e65640000000000000000000000000000000000000000000000000000000060648201526084016108b2565b73ffffffffffffffffffffffffffffffffffffffff83166000908152600960205260409020610ba790836125b5565b73ffffffffffffffffffffffffffffffffffffffff811660009081526009602052604081205463ffffffff10156117a7576040517f08c379a000000000000000000000000000000000000000000000000000000000815260206004820152602d60248201527f6e756d626572206f6620636865636b706f696e74732063616e6e6f742062652060448201527f63617374656420736166656c790000000000000000000000000000000000000060648201526084016108b2565b5073ffffffffffffffffffffffffffffffffffffffff1660009081526009602052604090205490565b6000806117de600c436125b5565b73ffffffffffffffffffffffffffffffffffffffff8416600090815260016020526040902054909150610ba7908290614d3a565b73ffffffffffffffffffffffffffffffffffffffff81166000908152602081905260408120546107a5565b61184633612206565b33600090815260016020526040902054148015611870575033600090815260066020526040902054155b611923576040517f08c379a0000000000000000000000000000000000000000000000000000000008152602060048201526044602482018190527f43616e6e6f742064697361626c652064656c65676174696f6e20696620796f75908201527f2068617665206f75747374616e64696e672064656c65676174696f6e7320746f60648201527f20796f7500000000000000000000000000000000000000000000000000000000608482015260a4016108b2565b33600090815260086020526040902080547fffffffffffffffffffffffffffffffffffffffffffffffffffffffffffffff00169055565b33600090815260066020526040902054156119f7576040517f08c379a000000000000000000000000000000000000000000000000000000000815260206004820152603b60248201527f43616e6e6f7420656e61626c652064656c65676174696f6e20696620796f752060448201527f68617665206f75747374616e64696e672064656c65676174696f6e000000000060648201526084016108b2565b33600090815260086020526040902080547fffffffffffffffffffffffffffffffffffffffffffffffffffffffffffffff00166001179055565b73ffffffffffffffffffffffffffffffffffffffff8082166000908152600760205260408120549091168015611a675780610ba7565b5090919050565b600043821115611aff576040517f08c379a0000000000000000000000000000000000000000000000000000000008152602060048201526024808201527f566f7465436865636b706f696e74733a20626c6f636b206e6f7420796574206d60448201527f696e65640000000000000000000000000000000000000000000000000000000060648201526084016108b2565b6107a5600a836125b5565b611b1661076633611a31565b565b60606107d67f00000000000000000000000000000000000000000000000000000000000000006123d5565b600080611b4f8361231b565b905080611b5b84611a6e565b610ba79190614d3a565b3373ffffffffffffffffffffffffffffffffffffffff83161480611bdc5750611bad7fe01e721169f17f30d0c130781195719ceba11f26f44578668ffd8462c7c1ebe9612983565b73ffffffffffffffffffffffffffffffffffffffff163373ffffffffffffffffffffffffffffffffffffffff16145b611c67576040517f08c379a0000000000000000000000000000000000000000000000000000000008152602060048201526024808201527f43616c6c6572206e6f7420617574686f72697a656420746f206275726e20746f60448201527f6b656e730000000000000000000000000000000000000000000000000000000060648201526084016108b2565b611264828261333b565b33600090815260026020908152604080832073ffffffffffffffffffffffffffffffffffffffff8616845290915281205482811015611d32576040517f08c379a000000000000000000000000000000000000000000000000000000000815260206004820152602560248201527f45524332303a2064656372656173656420616c6c6f77616e63652062656c6f7760448201527f207a65726f00000000000000000000000000000000000000000000000000000060648201526084016108b2565b611d3f338585840361243b565b5060019392505050565b60006107e833848461275d565b8473ffffffffffffffffffffffffffffffffffffffff168673ffffffffffffffffffffffffffffffffffffffff161415611dec576040517f08c379a000000000000000000000000000000000000000000000000000000000815260206004820152601b60248201527f446f206e6f742064656c656761746520746f20796f757273656c66000000000060448201526064016108b2565b73ffffffffffffffffffffffffffffffffffffffff851660009081526008602052604090205460ff16611ea1576040517f08c379a000000000000000000000000000000000000000000000000000000000815260206004820152602860248201527f5072696d6172792064656c656761746573206d75737420656e61626c6520646560448201527f6c65676174696f6e00000000000000000000000000000000000000000000000060648201526084016108b2565b73ffffffffffffffffffffffffffffffffffffffff861660009081526006602052604090205415611ede57611ede86611ed988611a31565b613357565b611eec8686868686866133dc565b73ffffffffffffffffffffffffffffffffffffffff8616600090815260016020526040902054611f1d878783612f0b565b61125e878761327f565b6000611f517ff86c915dad5894faca0dfa067c58fdf4307406d255ed0a65db394f82b77f53d45490565b73ffffffffffffffffffffffffffffffffffffffff1614611ff4576040517f08c379a000000000000000000000000000000000000000000000000000000000815260206004820152602860248201527f43616e206f6e6c792062652063616c6c656420647572696e6720696e6974696160448201527f6c697a6174696f6e00000000000000000000000000000000000000000000000060648201526084016108b2565b611ffd816135ad565b61147e7f00000000000000000000000000000000000000000000000000000000000000007f00000000000000000000000000000000000000000000000000000000000000006131a8565b834211156120b1576040517f08c379a000000000000000000000000000000000000000000000000000000000815260206004820152601d60248201527f45524332305065726d69743a206578706972656420646561646c696e6500000060448201526064016108b2565b60007f00000000000000000000000000000000000000000000000000000000000000008888886120e08c613699565b60408051602081019690965273ffffffffffffffffffffffffffffffffffffffff94851690860152929091166060840152608083015260a082015260c0810186905260e0016040516020818303038152906040528051906020012090506000612148826136cf565b90506000612158828787876136e2565b90508973ffffffffffffffffffffffffffffffffffffffff168173ffffffffffffffffffffffffffffffffffffffff16146121ef576040517f08c379a000000000000000000000000000000000000000000000000000000000815260206004820152601e60248201527f45524332305065726d69743a20696e76616c6964207369676e6174757265000060448201526064016108b2565b6121fa8a8a8a61243b565b50505050505050505050565b73ffffffffffffffffffffffffffffffffffffffff8116600090815260096020908152604080832080548251818502810185019093528083528493849084015b828210156122a8576000848152602090819020604080518082019091529084015463ffffffff8116825264010000000090047bffffffffffffffffffffffffffffffffffffffffffffffffffffffff1681830152825260019092019101612246565b5050825192935050811590506122e557816122c4600183614e3b565b815181106122d4576122d4614e52565b6020026020010151602001516122e8565b60005b7bffffffffffffffffffffffffffffffffffffffffffffffffffffffff16949350505050565b6123183382613357565b50565b6000438211156123ad576040517f08c379a000000000000000000000000000000000000000000000000000000000815260206004820152602960248201527f496e666c6174696f6e436865636b706f696e74733a20626c6f636b206e6f742060448201527f796574206d696e6564000000000000000000000000000000000000000000000060648201526084016108b2565b6107a5600c836125b5565b600060208251106123c857600080fd5b50601f015190565b919050565b606060f882901c602081106123e957600080fd5b8067ffffffffffffffff81111561240257612402614a60565b6040519080825280601f01601f19166020018201604052801561242c576020820181803683370190505b50915082601f83015250919050565b73ffffffffffffffffffffffffffffffffffffffff82166124de576040517f08c379a000000000000000000000000000000000000000000000000000000000815260206004820152602260248201527f45524332303a20617070726f766520746f20746865207a65726f20616464726560448201527f737300000000000000000000000000000000000000000000000000000000000060648201526084016108b2565b73ffffffffffffffffffffffffffffffffffffffff83811660008181526002602090815260408083209487168084529482529182902085905590518481527f8c5be1e5ebec7d5bd14f71427d1e84f3dd0314c0f7b2291e5b200ac8c7c3b925910160405180910390a3505050565b6000808260601b90506040517f3d602d80600a3d3981f3363d3d373d3d3d363d7300000000000000000000000081528160148201527f5af43d82803e903d91602b57fd5bf3000000000000000000000000000000000060288201526037816000f0949350505050565b8154600090806125c95760009150506107a5565b6000846125d7600184614e3b565b815481106125e7576125e7614e52565b60009182526020918290206040805180820190915291015463ffffffff81168083526401000000009091047bffffffffffffffffffffffffffffffffffffffffffffffffffffffff16928201929092529150841061266a57602001517bffffffffffffffffffffffffffffffffffffffffffffffffffffffff1691506107a59050565b8160005b818110156126d857600060016126848385614e3b565b61268f911c83614ebe565b9050868882815481106126a4576126a4614e52565b60009182526020909120015463ffffffff1611156126c4578092506126d2565b6126cf816001614ebe565b91505b5061266e565b811561273157866126ea600184614e3b565b815481106126fa576126fa614e52565b60009182526020909120015464010000000090047bffffffffffffffffffffffffffffffffffffffffffffffffffffffff16612734565b60005b7bffffffffffffffffffffffffffffffffffffffffffffffffffffffff16979650505050505050565b73ffffffffffffffffffffffffffffffffffffffff8216612800576040517f08c379a000000000000000000000000000000000000000000000000000000000815260206004820152602360248201527f45524332303a207472616e7366657220746f20746865207a65726f206164647260448201527f657373000000000000000000000000000000000000000000000000000000000060648201526084016108b2565b600061280d84848461370a565b73ffffffffffffffffffffffffffffffffffffffff8516600090815260016020526040902054909150818110156128c6576040517f08c379a000000000000000000000000000000000000000000000000000000000815260206004820152602660248201527f45524332303a207472616e7366657220616d6f756e742065786365656473206260448201527f616c616e6365000000000000000000000000000000000000000000000000000060648201526084016108b2565b73ffffffffffffffffffffffffffffffffffffffff80861660009081526001602052604080822085850390559186168152908120805484929061290a908490614ebe565b925050819055508373ffffffffffffffffffffffffffffffffffffffff168573ffffffffffffffffffffffffffffffffffffffff167fddf252ad1be2c89b69c2b068fc378daa952ba7f163c4a11628f55a4df523b3ef8560405161297091815260200190565b60405180910390a36108de858584613793565b6040517faabbb8ca00000000000000000000000000000000000000000000000000000000815273ffffffffffffffffffffffffffffffffffffffff7f000000000000000000000000000000000000000000000000000000000000000016600482015260248101829052600090731820a4b7618bde71dce8cdc73aab6c95905fad249063aabbb8ca9060440160206040518083038186803b158015612a2657600080fd5b505afa158015612a3a573d6000803e3d6000fd5b505050506040513d601f19601f820116820180604052508101906107a59190614dde565b60007bffffffffffffffffffffffffffffffffffffffffffffffffffffffff821115612b0c576040517f08c379a000000000000000000000000000000000000000000000000000000000815260206004820152602160248201527f6e65775765696768742063616e6e6f742062652063617374656420736166656c60448201527f790000000000000000000000000000000000000000000000000000000000000060648201526084016108b2565b63ffffffff431115612b9f576040517f08c379a0000000000000000000000000000000000000000000000000000000008152602060048201526024808201527f626c6f636b206e756d6265722063616e6e6f742062652063617374656420736160448201527f66656c790000000000000000000000000000000000000000000000000000000060648201526084016108b2565b835480612c125750506040805180820190915263ffffffff43811682527bffffffffffffffffffffffffffffffffffffffffffffffffffffffff80841660208085019182528754600181018955600089815291909120945191519092166401000000000292169190911791015580610ba7565b600085612c20600184614e3b565b81548110612c3057612c30614e52565b60009182526020822001805490925064010000000090047bffffffffffffffffffffffffffffffffffffffffffffffffffffffff1690612c74828763ffffffff8a16565b90507bffffffffffffffffffffffffffffffffffffffffffffffffffffffff811115612d22576040517f08c379a000000000000000000000000000000000000000000000000000000000815260206004820152602160248201527f6e65775765696768742063616e6e6f742062652063617374656420736166656c60448201527f790000000000000000000000000000000000000000000000000000000000000060648201526084016108b2565b825463ffffffff16431415612d6757825463ffffffff166401000000007bffffffffffffffffffffffffffffffffffffffffffffffffffffffff831602178355612dcc565b6040805180820190915263ffffffff43811682527bffffffffffffffffffffffffffffffffffffffffffffffffffffffff80841660208085019182528c54600181018e5560008e81529190912094519151909216640100000000029216919091179101555b979650505050505050565b60003073ffffffffffffffffffffffffffffffffffffffff7f000000000000000000000000000000000000000000000000000000000000000016148015612e3d57507f000000000000000000000000000000000000000000000000000000000000000046145b15612e6757507f000000000000000000000000000000000000000000000000000000000000000090565b50604080517f00000000000000000000000000000000000000000000000000000000000000006020808301919091527f0000000000000000000000000000000000000000000000000000000000000000828401527f000000000000000000000000000000000000000000000000000000000000000060608301524660808301523060a0808401919091528351808403909101815260c0909201909252805191012090565b73ffffffffffffffffffffffffffffffffffffffff8316600090815260066020908152604080832054600190925290912054612f479190614e3b565b811115612fd6576040517f08c379a000000000000000000000000000000000000000000000000000000000815260206004820152603d60248201527f4d757374206861766520616e20756e64656c65676174656420616d6f756e742060448201527f617661696c61626c6520746f20636f7665722064656c65676174696f6e00000060648201526084016108b2565b73ffffffffffffffffffffffffffffffffffffffff831660009081526008602052604090205460ff16156130b2576040517f08c379a000000000000000000000000000000000000000000000000000000000815260206004820152604260248201527f43616e6e6f742064656c656761746520696620796f75206861766520656e616260448201527f6c6564207072696d6172792064656c65676174696f6e20746f20796f7572736560648201527f6c66000000000000000000000000000000000000000000000000000000000000608482015260a4016108b2565b8173ffffffffffffffffffffffffffffffffffffffff168373ffffffffffffffffffffffffffffffffffffffff167f98dafce09283426336da94838681d1fe723dcd8d49f67902076eebf3e2d1ddd68360405161311191815260200190565b60405180910390a373ffffffffffffffffffffffffffffffffffffffff80841660009081526005602090815260408083209386168352929052908120805483929061315d908490614ebe565b909155505073ffffffffffffffffffffffffffffffffffffffff831660009081526006602052604081208054839290613197908490614ebe565b90915550611264905083838361393a565b60006131b48383613ac3565b91507bffffffffffffffffffffffffffffffffffffffffffffffffffffffff6131db610aa2565b1115613269576040517f08c379a000000000000000000000000000000000000000000000000000000000815260206004820152603560248201527f566f7465436865636b706f696e74733a20746f74616c20737570706c7920726960448201527f736b73206f766572666c6f77696e6720766f746573000000000000000000000060648201526084016108b2565b613277600a613bfd84612a5e565b509092915050565b73ffffffffffffffffffffffffffffffffffffffff828116600090815260076020526040902080547fffffffffffffffffffffffff0000000000000000000000000000000000000000169183169182179055156132dc57806132de565b815b73ffffffffffffffffffffffffffffffffffffffff168273ffffffffffffffffffffffffffffffffffffffff167f88a6f95a94556f83d3752aaa691040ea5c04d9db823566be9f2f325eb866c9ae60405160405180910390a35050565b60006133478383613c09565b9150613277600a613d7484612a5e565b73ffffffffffffffffffffffffffffffffffffffff808316600090815260056020908152604080832093851683529290522054613395838383613d80565b61339e83611a31565b73ffffffffffffffffffffffffffffffffffffffff168273ffffffffffffffffffffffffffffffffffffffff1614156112645761126483600061327f565b83421115613446576040517f08c379a000000000000000000000000000000000000000000000000000000000815260206004820181905260248201527f44656c65676174655065726d69743a206578706972656420646561646c696e6560448201526064016108b2565b60007fd46e8b93b5190df6403875402a5c13897b72d2a576da5d1bfea20a63638d216e87876134748a613e0f565b60408051602081019590955273ffffffffffffffffffffffffffffffffffffffff9384169085015291166060830152608082015260a0810186905260c00160405160208183030381529060405280519060200120905060006134d5826136cf565b905060006134e5828787876136e2565b90508873ffffffffffffffffffffffffffffffffffffffff168173ffffffffffffffffffffffffffffffffffffffff16146135a2576040517f08c379a000000000000000000000000000000000000000000000000000000000815260206004820152602160248201527f44656c65676174655065726d69743a20696e76616c6964207369676e6174757260448201527f650000000000000000000000000000000000000000000000000000000000000060648201526084016108b2565b505050505050505050565b60006135d77ff86c915dad5894faca0dfa067c58fdf4307406d255ed0a65db394f82b77f53d45490565b73ffffffffffffffffffffffffffffffffffffffff161461367a576040517f08c379a000000000000000000000000000000000000000000000000000000000815260206004820152602860248201527f43616e206f6e6c792062652063616c6c656420647572696e6720696e6974696160448201527f6c697a6174696f6e00000000000000000000000000000000000000000000000060648201526084016108b2565b61368381613e3b565b61147e600c6123d0670de0b6b3a7640000612a5e565b73ffffffffffffffffffffffffffffffffffffffff8116600090815260208190526040812080545b815460010190915592915050565b60006107a56136dc612dd7565b83613fc6565b60008060006136f387878787614008565b9150915061370081614120565b5095945050505050565b600080613718600c436125b5565b6137229084614e81565b90508373ffffffffffffffffffffffffffffffffffffffff168573ffffffffffffffffffffffffffffffffffffffff167fd62d118ec9618b21ba50e6814f78a20bf1e5b6fa0206ffe661a0ca53ce22874f8360405161378391815260200190565b60405180910390a3949350505050565b60006137be7fe01e721169f17f30d0c130781195719ceba11f26f44578668ffd8462c7c1ebe9612983565b905073ffffffffffffffffffffffffffffffffffffffff81161580159061392457506040517ffefa7d1c00000000000000000000000000000000000000000000000000000000815273ffffffffffffffffffffffffffffffffffffffff858116600483015282169063fefa7d1c9060240160206040518083038186803b15801561384757600080fd5b505afa15801561385b573d6000803e3d6000fd5b505050506040513d601f19601f8201168201806040525081019061387f9190614ed6565b8061392457506040517ffefa7d1c00000000000000000000000000000000000000000000000000000000815273ffffffffffffffffffffffffffffffffffffffff848116600483015282169063fefa7d1c9060240160206040518083038186803b1580156138ec57600080fd5b505afa158015613900573d6000803e3d6000fd5b505050506040513d601f19601f820116820180604052508101906139249190614ed6565b1561392f5750505050565b611262848484614379565b8173ffffffffffffffffffffffffffffffffffffffff168373ffffffffffffffffffffffffffffffffffffffff16141580156139765750600081115b156112645773ffffffffffffffffffffffffffffffffffffffff831615613a1d5773ffffffffffffffffffffffffffffffffffffffff831660009081526009602052604081206139c990613d7484612a5e565b90508373ffffffffffffffffffffffffffffffffffffffff167fd1b0c5e03e405cea97403894c17af4610d6d851ffe4baa03de1ca5e7c700cd7582604051613a1391815260200190565b60405180910390a2505b73ffffffffffffffffffffffffffffffffffffffff8216156112645773ffffffffffffffffffffffffffffffffffffffff82166000908152600960205260408120613a6b90613bfd84612a5e565b90508273ffffffffffffffffffffffffffffffffffffffff167fd1b0c5e03e405cea97403894c17af4610d6d851ffe4baa03de1ca5e7c700cd7582604051613ab591815260200190565b60405180910390a250505050565b600073ffffffffffffffffffffffffffffffffffffffff8316613b42576040517f08c379a000000000000000000000000000000000000000000000000000000000815260206004820152601f60248201527f45524332303a206d696e7420746f20746865207a65726f20616464726573730060448201526064016108b2565b6000613b506000858561370a565b90508060036000828254613b649190614ebe565b909155505073ffffffffffffffffffffffffffffffffffffffff841660009081526001602052604081208054839290613b9e908490614ebe565b909155505060405183815273ffffffffffffffffffffffffffffffffffffffff8516906000907fddf252ad1be2c89b69c2b068fc378daa952ba7f163c4a11628f55a4df523b3ef9060200160405180910390a3610ba760008583613793565b6000610ba78284614ebe565b600080613c188460008561370a565b73ffffffffffffffffffffffffffffffffffffffff851660009081526001602052604090205490915081811015613cd1576040517f08c379a000000000000000000000000000000000000000000000000000000000815260206004820152602260248201527f45524332303a206275726e20616d6f756e7420657863656564732062616c616e60448201527f636500000000000000000000000000000000000000000000000000000000000060648201526084016108b2565b73ffffffffffffffffffffffffffffffffffffffff85166000908152600160205260408120838303905560038054849290613d0d908490614e3b565b909155505060405184815260009073ffffffffffffffffffffffffffffffffffffffff8716907fddf252ad1be2c89b69c2b068fc378daa952ba7f163c4a11628f55a4df523b3ef9060200160405180910390a3613d6c85600084613793565b509392505050565b6000610ba78284614e3b565b73ffffffffffffffffffffffffffffffffffffffff831660009081526006602052604081208054839290613db5908490614e3b565b909155505073ffffffffffffffffffffffffffffffffffffffff808416600090815260056020908152604080832093861683529290529081208054839290613dfe908490614e3b565b90915550611264905082848361393a565b73ffffffffffffffffffffffffffffffffffffffff8116600090815260046020526040812080546136c1565b6000613e657ff86c915dad5894faca0dfa067c58fdf4307406d255ed0a65db394f82b77f53d45490565b73ffffffffffffffffffffffffffffffffffffffff1614613f08576040517f08c379a000000000000000000000000000000000000000000000000000000000815260206004820152602860248201527f43616e206f6e6c792062652063616c6c656420647572696e6720696e6974696160448201527f6c697a6174696f6e00000000000000000000000000000000000000000000000060648201526084016108b2565b613f11816145da565b6040517f5df8122f00000000000000000000000000000000000000000000000000000000815230600482015273ffffffffffffffffffffffffffffffffffffffff7f0000000000000000000000000000000000000000000000000000000000000000166024820152731820a4b7618bde71dce8cdc73aab6c95905fad2490635df8122f90604401600060405180830381600087803b158015613fb257600080fd5b505af11580156108de573d6000803e3d6000fd5b6040517f190100000000000000000000000000000000000000000000000000000000000060208201526022810183905260428101829052600090606201610cdd565b6000807f7fffffffffffffffffffffffffffffff5d576e7357a4501ddfe92f46681b20a083111561403f5750600090506003614117565b8460ff16601b1415801561405757508460ff16601c14155b156140685750600090506004614117565b6040805160008082526020820180845289905260ff881692820192909252606081018690526080810185905260019060a0016020604051602081039080840390855afa1580156140bc573d6000803e3d6000fd5b50506040517fffffffffffffffffffffffffffffffffffffffffffffffffffffffffffffffe0015191505073ffffffffffffffffffffffffffffffffffffffff811661411057600060019250925050614117565b9150600090505b94509492505050565b600081600481111561413457614134614daf565b141561413d5750565b600181600481111561415157614151614daf565b14156141b9576040517f08c379a000000000000000000000000000000000000000000000000000000000815260206004820152601860248201527f45434453413a20696e76616c6964207369676e6174757265000000000000000060448201526064016108b2565b60028160048111156141cd576141cd614daf565b1415614235576040517f08c379a000000000000000000000000000000000000000000000000000000000815260206004820152601f60248201527f45434453413a20696e76616c6964207369676e6174757265206c656e6774680060448201526064016108b2565b600381600481111561424957614249614daf565b14156142d7576040517f08c379a000000000000000000000000000000000000000000000000000000000815260206004820152602260248201527f45434453413a20696e76616c6964207369676e6174757265202773272076616c60448201527f756500000000000000000000000000000000000000000000000000000000000060648201526084016108b2565b60048160048111156142eb576142eb614daf565b1415612318576040517f08c379a000000000000000000000000000000000000000000000000000000000815260206004820152602260248201527f45434453413a20696e76616c6964207369676e6174757265202776272076616c60448201527f756500000000000000000000000000000000000000000000000000000000000060648201526084016108b2565b73ffffffffffffffffffffffffffffffffffffffff83166000908152600660205260409020541561450d5773ffffffffffffffffffffffffffffffffffffffff831660009081526006602090815260408083205460019092528220546143e0908490614ebe565b6143ea9190614e3b565b90508181101561450b5760006143ff85611a31565b73ffffffffffffffffffffffffffffffffffffffff80871660009081526005602090815260408083209385168352929052205490915061443f8184614ebe565b8411156144f4576040517f08c379a000000000000000000000000000000000000000000000000000000000815260206004820152605360248201527f44656c65676174696f6e20746f6f20636f6d706c69636174656420746f20747260448201527f616e736665722e20556e64656c656761746520616e642073696d706c6966792060648201527f6265666f726520747279696e6720616761696e00000000000000000000000000608482015260a4016108b2565b61450886836145038688614e3b565b613d80565b50505b505b73ffffffffffffffffffffffffffffffffffffffff8083166000908152600760205260409020541680156145cf5773ffffffffffffffffffffffffffffffffffffffff80841660009081526005602090815260408083209385168352929052908120805484929061457f908490614ebe565b909155505073ffffffffffffffffffffffffffffffffffffffff8316600090815260066020526040812080548492906145b9908490614ebe565b909155506145ca905084828461393a565b611262565b61126284848461393a565b60006146047ff86c915dad5894faca0dfa067c58fdf4307406d255ed0a65db394f82b77f53d45490565b73ffffffffffffffffffffffffffffffffffffffff16146146a7576040517f08c379a000000000000000000000000000000000000000000000000000000000815260206004820152602860248201527f43616e206f6e6c792062652063616c6c656420647572696e6720696e6974696160448201527f6c697a6174696f6e00000000000000000000000000000000000000000000000060648201526084016108b2565b6123188160006146d57ff86c915dad5894faca0dfa067c58fdf4307406d255ed0a65db394f82b77f53d45490565b73ffffffffffffffffffffffffffffffffffffffff1614614778576040517f08c379a000000000000000000000000000000000000000000000000000000000815260206004820152602860248201527f43616e206f6e6c792062652063616c6c656420647572696e6720696e6974696160448201527f6c697a6174696f6e00000000000000000000000000000000000000000000000060648201526084016108b2565b60008173ffffffffffffffffffffffffffffffffffffffff16635c60da1b6040518163ffffffff1660e01b815260040160206040518083038186803b1580156147c057600080fd5b505afa1580156147d4573d6000803e3d6000fd5b505050506040513d601f19601f820116820180604052508101906147f89190614dde565b905073ffffffffffffffffffffffffffffffffffffffff811661489d576040517f08c379a000000000000000000000000000000000000000000000000000000000815260206004820152602c60248201527f696e697469616c697a6174696f6e206661696c7572653a206e6f7468696e672060448201527f746f20696d706c656d656e74000000000000000000000000000000000000000060648201526084016108b2565b61147e818073ffffffffffffffffffffffffffffffffffffffff166148e07ff86c915dad5894faca0dfa067c58fdf4307406d255ed0a65db394f82b77f53d45490565b73ffffffffffffffffffffffffffffffffffffffff16141561495e576040517f08c379a000000000000000000000000000000000000000000000000000000000815260206004820152601f60248201527f496d706c656d656e746174696f6e20616c7265616479206d61746368696e670060448201526064016108b2565b7ff86c915dad5894faca0dfa067c58fdf4307406d255ed0a65db394f82b77f53d455565b73ffffffffffffffffffffffffffffffffffffffff8116811461231857600080fd5b6000602082840312156149b657600080fd5b8135610ba781614982565b600060208083528351808285015260005b818110156149ee578581018301518582016040015282016149d2565b81811115614a00576000604083870101525b50601f017fffffffffffffffffffffffffffffffffffffffffffffffffffffffffffffffe016929092016040019392505050565b60008060408385031215614a4757600080fd5b8235614a5281614982565b946020939093013593505050565b7f4e487b7100000000000000000000000000000000000000000000000000000000600052604160045260246000fd5b60008060408385031215614aa257600080fd5b8235614aad81614982565b9150602083013567ffffffffffffffff80821115614aca57600080fd5b818501915085601f830112614ade57600080fd5b813581811115614af057614af0614a60565b604051601f82017fffffffffffffffffffffffffffffffffffffffffffffffffffffffffffffffe0908116603f01168101908382118183101715614b3657614b36614a60565b81604052828152886020848701011115614b4f57600080fd5b8260208601602083013760006020848301015280955050505050509250929050565b600080600060608486031215614b8657600080fd5b8335614b9181614982565b92506020840135614ba181614982565b929592945050506040919091013590565b60008060408385031215614bc557600080fd5b823591506020830135614bd781614982565b809150509250929050565b600060208284031215614bf457600080fd5b5035919050565b803560ff811681146123d057600080fd5b60008060008060008060c08789031215614c2557600080fd5b8635614c3081614982565b95506020870135614c4081614982565b945060408701359350614c5560608801614bfb565b92506080870135915060a087013590509295509295509295565b600080600080600080600060e0888a031215614c8a57600080fd5b8735614c9581614982565b96506020880135614ca581614982565b95506040880135945060608801359350614cc160808901614bfb565b925060a0880135915060c0880135905092959891949750929550565b60008060408385031215614cf057600080fd5b8235614cfb81614982565b91506020830135614bd781614982565b7f4e487b7100000000000000000000000000000000000000000000000000000000600052601160045260246000fd5b600082614d70577f4e487b7100000000000000000000000000000000000000000000000000000000600052601260045260246000fd5b500490565b600060208284031215614d8757600080fd5b5051919050565b600060208284031215614da057600080fd5b815160058110610ba757600080fd5b7f4e487b7100000000000000000000000000000000000000000000000000000000600052602160045260246000fd5b600060208284031215614df057600080fd5b8151610ba781614982565b600080600080600060a08688031215614e1357600080fd5b5050835160208501516040860151606087015160809097015192989197509594509092509050565b600082821015614e4d57614e4d614d0b565b500390565b7f4e487b7100000000000000000000000000000000000000000000000000000000600052603260045260246000fd5b6000817fffffffffffffffffffffffffffffffffffffffffffffffffffffffffffffffff0483118215151615614eb957614eb9614d0b565b500290565b60008219821115614ed157614ed1614d0b565b500190565b600060208284031215614ee857600080fd5b81518015158114610ba757600080fdfea164736f6c6343000809000a6e65775765696768742063616e6e6f742062652063617374656420736166656cf86c915dad5894faca0dfa067c58fdf4307406d255ed0a65db394f82b77f53d4",
  "linkReferences": {},
  "deployedLinkReferences": {}
}