{
  "contractName": "ECO",
  "abi": [
    {
      "inputs": [
        {
          "internalType": "contract Policy",
          "name": "_policy",
          "type": "address"
        },
        {
          "internalType": "address",
          "name": "_distributor",
          "type": "address"
        },
        {
          "internalType": "uint256",
          "name": "_initialSupply",
          "type": "uint256"
        }
      ],
      "stateMutability": "nonpayable",
      "type": "constructor"
    },
    {
      "anonymous": false,
      "inputs": [
        {
          "indexed": true,
          "internalType": "address",
          "name": "owner",
          "type": "address"
        },
        {
          "indexed": true,
          "internalType": "address",
          "name": "spender",
          "type": "address"
        },
        {
          "indexed": false,
          "internalType": "uint256",
          "name": "value",
          "type": "uint256"
        }
      ],
      "name": "Approval",
      "type": "event"
    },
    {
      "anonymous": false,
      "inputs": [
        {
          "indexed": true,
          "internalType": "address",
          "name": "from",
          "type": "address"
        },
        {
          "indexed": true,
          "internalType": "address",
          "name": "to",
          "type": "address"
        },
        {
          "indexed": false,
          "internalType": "uint256",
          "name": "value",
          "type": "uint256"
        }
      ],
      "name": "BaseValueTransfer",
      "type": "event"
    },
    {
      "anonymous": false,
      "inputs": [
        {
          "indexed": true,
          "internalType": "address",
          "name": "delegator",
          "type": "address"
        },
        {
          "indexed": true,
          "internalType": "address",
          "name": "delegatee",
          "type": "address"
        },
        {
          "indexed": false,
          "internalType": "uint256",
          "name": "amount",
          "type": "uint256"
        }
      ],
      "name": "DelegatedVotes",
      "type": "event"
    },
    {
      "anonymous": false,
      "inputs": [
        {
          "indexed": false,
          "internalType": "uint256",
          "name": "inflationMultiplier",
          "type": "uint256"
        }
      ],
      "name": "NewInflationMultiplier",
      "type": "event"
    },
    {
      "anonymous": false,
      "inputs": [
        {
          "indexed": true,
          "internalType": "address",
          "name": "delegator",
          "type": "address"
        },
        {
          "indexed": true,
          "internalType": "address",
          "name": "primaryDelegate",
          "type": "address"
        }
      ],
      "name": "NewPrimaryDelegate",
      "type": "event"
    },
    {
      "anonymous": false,
      "inputs": [
        {
          "indexed": true,
          "internalType": "address",
          "name": "from",
          "type": "address"
        },
        {
          "indexed": true,
          "internalType": "address",
          "name": "to",
          "type": "address"
        },
        {
          "indexed": false,
          "internalType": "uint256",
          "name": "value",
          "type": "uint256"
        }
      ],
      "name": "Transfer",
      "type": "event"
    },
    {
      "anonymous": false,
      "inputs": [
        {
          "indexed": true,
          "internalType": "address",
          "name": "voter",
          "type": "address"
        },
        {
          "indexed": false,
          "internalType": "uint256",
          "name": "newVotes",
          "type": "uint256"
        }
      ],
      "name": "UpdatedVotes",
      "type": "event"
    },
    {
      "inputs": [],
      "name": "INITIAL_INFLATION_MULTIPLIER",
      "outputs": [
        {
          "internalType": "uint256",
          "name": "",
          "type": "uint256"
        }
      ],
      "stateMutability": "view",
      "type": "function"
    },
    {
      "inputs": [
        {
          "internalType": "address",
          "name": "owner",
          "type": "address"
        },
        {
          "internalType": "address",
          "name": "spender",
          "type": "address"
        }
      ],
      "name": "allowance",
      "outputs": [
        {
          "internalType": "uint256",
          "name": "",
          "type": "uint256"
        }
      ],
      "stateMutability": "view",
      "type": "function"
    },
    {
      "inputs": [
        {
          "internalType": "address",
          "name": "spender",
          "type": "address"
        },
        {
          "internalType": "uint256",
          "name": "amount",
          "type": "uint256"
        }
      ],
      "name": "approve",
      "outputs": [
        {
          "internalType": "bool",
          "name": "",
          "type": "bool"
        }
      ],
      "stateMutability": "nonpayable",
      "type": "function"
    },
    {
      "inputs": [
        {
          "internalType": "address",
          "name": "_owner",
          "type": "address"
        }
      ],
      "name": "balanceOf",
      "outputs": [
        {
          "internalType": "uint256",
          "name": "",
          "type": "uint256"
        }
      ],
      "stateMutability": "view",
      "type": "function"
    },
    {
      "inputs": [
        {
          "internalType": "bytes32",
          "name": "",
          "type": "bytes32"
        },
        {
          "internalType": "address",
          "name": "_addr",
          "type": "address"
        }
      ],
      "name": "canImplementInterfaceForAddress",
      "outputs": [
        {
          "internalType": "bytes32",
          "name": "",
          "type": "bytes32"
        }
      ],
      "stateMutability": "view",
      "type": "function"
    },
    {
      "inputs": [
        {
          "internalType": "address",
          "name": "",
          "type": "address"
        },
        {
          "internalType": "uint256",
          "name": "",
          "type": "uint256"
        }
      ],
      "name": "checkpoints",
      "outputs": [
        {
          "internalType": "uint32",
          "name": "fromBlock",
          "type": "uint32"
        },
        {
          "internalType": "uint224",
          "name": "value",
          "type": "uint224"
        }
      ],
      "stateMutability": "view",
      "type": "function"
    },
    {
      "inputs": [],
      "name": "clone",
      "outputs": [
        {
          "internalType": "address",
          "name": "",
          "type": "address"
        }
      ],
      "stateMutability": "nonpayable",
      "type": "function"
    },
    {
      "inputs": [],
      "name": "currentGeneration",
      "outputs": [
        {
          "internalType": "uint256",
          "name": "",
          "type": "uint256"
        }
      ],
      "stateMutability": "view",
      "type": "function"
    },
    {
      "inputs": [],
      "name": "decimals",
      "outputs": [
        {
          "internalType": "uint8",
          "name": "",
          "type": "uint8"
        }
      ],
      "stateMutability": "view",
      "type": "function"
    },
    {
      "inputs": [
        {
          "internalType": "address",
          "name": "spender",
          "type": "address"
        },
        {
          "internalType": "uint256",
          "name": "subtractedValue",
          "type": "uint256"
        }
      ],
      "name": "decreaseAllowance",
      "outputs": [
        {
          "internalType": "bool",
          "name": "",
          "type": "bool"
        }
      ],
      "stateMutability": "nonpayable",
      "type": "function"
    },
    {
      "inputs": [
        {
          "internalType": "address",
          "name": "delegatee",
          "type": "address"
        }
      ],
      "name": "delegate",
      "outputs": [],
      "stateMutability": "nonpayable",
      "type": "function"
    },
    {
      "inputs": [
        {
          "internalType": "address",
          "name": "delegatee",
          "type": "address"
        },
        {
          "internalType": "uint256",
          "name": "amount",
          "type": "uint256"
        }
      ],
      "name": "delegateAmount",
      "outputs": [],
      "stateMutability": "nonpayable",
      "type": "function"
    },
    {
      "inputs": [
        {
          "internalType": "address",
          "name": "",
          "type": "address"
        }
      ],
      "name": "delegationEnabled",
      "outputs": [
        {
          "internalType": "bool",
          "name": "",
          "type": "bool"
        }
      ],
      "stateMutability": "view",
      "type": "function"
    },
    {
      "inputs": [],
      "name": "disableDelegation",
      "outputs": [],
      "stateMutability": "nonpayable",
      "type": "function"
    },
    {
      "inputs": [],
      "name": "distributor",
      "outputs": [
        {
          "internalType": "address",
          "name": "",
          "type": "address"
        }
      ],
      "stateMutability": "view",
      "type": "function"
    },
    {
      "inputs": [],
      "name": "enableDelegation",
      "outputs": [],
      "stateMutability": "nonpayable",
      "type": "function"
    },
    {
      "inputs": [
        {
          "internalType": "uint256",
          "name": "blockNumber",
          "type": "uint256"
        }
      ],
      "name": "getPastLinearInflation",
      "outputs": [
        {
          "internalType": "uint256",
          "name": "",
          "type": "uint256"
        }
      ],
      "stateMutability": "view",
      "type": "function"
    },
    {
      "inputs": [
        {
          "internalType": "uint256",
          "name": "blockNumber",
          "type": "uint256"
        }
      ],
      "name": "getPastTotalSupply",
      "outputs": [
        {
          "internalType": "uint256",
          "name": "",
          "type": "uint256"
        }
      ],
      "stateMutability": "view",
      "type": "function"
    },
    {
      "inputs": [
        {
          "internalType": "address",
          "name": "_owner",
          "type": "address"
        },
        {
          "internalType": "uint256",
          "name": "_blockNumber",
          "type": "uint256"
        }
      ],
      "name": "getPastVotes",
      "outputs": [
        {
          "internalType": "uint256",
          "name": "",
          "type": "uint256"
        }
      ],
      "stateMutability": "view",
      "type": "function"
    },
    {
      "inputs": [
        {
          "internalType": "address",
          "name": "account",
          "type": "address"
        },
        {
          "internalType": "uint256",
          "name": "blockNumber",
          "type": "uint256"
        }
      ],
      "name": "getPastVotingGons",
      "outputs": [
        {
          "internalType": "uint256",
          "name": "",
          "type": "uint256"
        }
      ],
      "stateMutability": "view",
      "type": "function"
    },
    {
      "inputs": [
        {
          "internalType": "address",
          "name": "account",
          "type": "address"
        }
      ],
      "name": "getPrimaryDelegate",
      "outputs": [
        {
          "internalType": "address",
          "name": "",
          "type": "address"
        }
      ],
      "stateMutability": "view",
      "type": "function"
    },
    {
      "inputs": [
        {
          "internalType": "address",
          "name": "account",
          "type": "address"
        }
      ],
      "name": "getVotingGons",
      "outputs": [
        {
          "internalType": "uint256",
          "name": "",
          "type": "uint256"
        }
      ],
      "stateMutability": "view",
      "type": "function"
    },
    {
      "inputs": [],
      "name": "implementation",
      "outputs": [
        {
          "internalType": "address",
          "name": "_impl",
          "type": "address"
        }
      ],
      "stateMutability": "view",
      "type": "function"
    },
    {
      "inputs": [
        {
          "internalType": "address",
          "name": "spender",
          "type": "address"
        },
        {
          "internalType": "uint256",
          "name": "addedValue",
          "type": "uint256"
        }
      ],
      "name": "increaseAllowance",
      "outputs": [
        {
          "internalType": "bool",
          "name": "",
          "type": "bool"
        }
      ],
      "stateMutability": "nonpayable",
      "type": "function"
    },
    {
      "inputs": [],
      "name": "initialSupply",
      "outputs": [
        {
          "internalType": "uint256",
          "name": "",
          "type": "uint256"
        }
      ],
      "stateMutability": "view",
      "type": "function"
    },
    {
      "inputs": [
        {
          "internalType": "address",
          "name": "account",
          "type": "address"
        }
      ],
      "name": "isOwnDelegate",
      "outputs": [
        {
          "internalType": "bool",
          "name": "",
          "type": "bool"
        }
      ],
      "stateMutability": "view",
      "type": "function"
    },
    {
      "inputs": [],
      "name": "name",
      "outputs": [
        {
          "internalType": "string",
          "name": "",
          "type": "string"
        }
      ],
      "stateMutability": "view",
      "type": "function"
    },
    {
      "inputs": [
        {
          "internalType": "address",
          "name": "account",
          "type": "address"
        }
      ],
      "name": "numCheckpoints",
      "outputs": [
        {
          "internalType": "uint32",
          "name": "",
          "type": "uint32"
        }
      ],
      "stateMutability": "view",
      "type": "function"
    },
    {
      "inputs": [],
      "name": "policy",
      "outputs": [
        {
          "internalType": "contract Policy",
          "name": "",
          "type": "address"
        }
      ],
      "stateMutability": "view",
      "type": "function"
    },
    {
      "inputs": [
        {
          "internalType": "address",
          "name": "_delegate",
          "type": "address"
        },
        {
          "internalType": "bytes",
          "name": "_data",
          "type": "bytes"
        }
      ],
      "name": "policyCommand",
      "outputs": [],
      "stateMutability": "nonpayable",
      "type": "function"
    },
    {
      "inputs": [
        {
          "internalType": "address",
          "name": "_addr",
          "type": "address"
        }
      ],
      "name": "setExpectedInterfaceSet",
      "outputs": [],
      "stateMutability": "nonpayable",
      "type": "function"
    },
    {
      "inputs": [],
      "name": "symbol",
      "outputs": [
        {
          "internalType": "string",
          "name": "",
          "type": "string"
        }
      ],
      "stateMutability": "view",
      "type": "function"
    },
    {
      "inputs": [],
      "name": "totalSupply",
      "outputs": [
        {
          "internalType": "uint256",
          "name": "",
          "type": "uint256"
        }
      ],
      "stateMutability": "view",
      "type": "function"
    },
    {
      "inputs": [
        {
          "internalType": "uint256",
          "name": "_blockNumber",
          "type": "uint256"
        }
      ],
      "name": "totalSupplyAt",
      "outputs": [
        {
          "internalType": "uint256",
          "name": "",
          "type": "uint256"
        }
      ],
      "stateMutability": "view",
      "type": "function"
    },
    {
      "inputs": [
        {
          "internalType": "address",
          "name": "recipient",
          "type": "address"
        },
        {
          "internalType": "uint256",
          "name": "amount",
          "type": "uint256"
        }
      ],
      "name": "transfer",
      "outputs": [
        {
          "internalType": "bool",
          "name": "",
          "type": "bool"
        }
      ],
      "stateMutability": "nonpayable",
      "type": "function"
    },
    {
      "inputs": [
        {
          "internalType": "address",
          "name": "sender",
          "type": "address"
        },
        {
          "internalType": "address",
          "name": "recipient",
          "type": "address"
        },
        {
          "internalType": "uint256",
          "name": "amount",
          "type": "uint256"
        }
      ],
      "name": "transferFrom",
      "outputs": [
        {
          "internalType": "bool",
          "name": "",
          "type": "bool"
        }
      ],
      "stateMutability": "nonpayable",
      "type": "function"
    },
    {
      "inputs": [],
      "name": "undelegate",
      "outputs": [],
      "stateMutability": "nonpayable",
      "type": "function"
    },
    {
      "inputs": [
        {
          "internalType": "address",
          "name": "delegatee",
          "type": "address"
        }
      ],
      "name": "undelegateFromAddress",
      "outputs": [],
      "stateMutability": "nonpayable",
      "type": "function"
    },
    {
      "inputs": [
        {
          "internalType": "address",
          "name": "_self",
          "type": "address"
        }
      ],
      "name": "initialize",
      "outputs": [],
      "stateMutability": "nonpayable",
      "type": "function"
    },
    {
      "inputs": [
        {
          "internalType": "address",
          "name": "_to",
          "type": "address"
        },
        {
          "internalType": "uint256",
          "name": "_value",
          "type": "uint256"
        }
      ],
      "name": "mint",
      "outputs": [],
      "stateMutability": "nonpayable",
      "type": "function"
    },
    {
      "inputs": [
        {
          "internalType": "address",
          "name": "_from",
          "type": "address"
        },
        {
          "internalType": "uint256",
          "name": "_value",
          "type": "uint256"
        }
      ],
      "name": "burn",
      "outputs": [],
      "stateMutability": "nonpayable",
      "type": "function"
    },
    {
      "inputs": [],
      "name": "notifyGenerationIncrease",
      "outputs": [],
      "stateMutability": "nonpayable",
      "type": "function"
    }
  ],
  "bytecode": "0x6101206040523480156200001257600080fd5b50604051620038cb380380620038cb833981016040819052620000359162000496565b826040518060400160405280600381526020016245636f60e81b8152506040518060400160405280600381526020016245434f60e81b8152508280838381816200008a826200017d60201b620019171760201c565b60808181525050620000a7816200017d60201b620019171760201c565b60a05250620000bb92503091505062000196565b6001600160a01b0390811660c052604051635df8122f60e01b81523060048201529082166024820152731820a4b7618bde71dce8cdc73aab6c95905fad2490635df8122f90604401600060405180830381600087803b1580156200011e57600080fd5b505af115801562000133573d6000803e3d6000fd5b50505050506200015f600a6200022860201b6200192f17670de0b6b3a76400006200022d60201b60201c565b5050506001600160a01b0390921660e05261010052506200051a9050565b600060208251106200018e57600080fd5b50601f015190565b6001600160a01b038116620001b8600080516020620038ab8339815191525490565b6001600160a01b03161415620002155760405162461bcd60e51b815260206004820152601f60248201527f496d706c656d656e746174696f6e20616c7265616479206d61746368696e670060448201526064015b60405180910390fd5b600080516020620038ab83398151915255565b919050565b60006001600160e01b03821115620002815760405162461bcd60e51b815260206004820152602160248201526000805160206200388b8339815191526044820152607960f81b60648201526084016200020c565b63ffffffff431115620002e35760405162461bcd60e51b8152602060048201526024808201527f626c6f636b206e756d6265722063616e6e6f742062652063617374656420736160448201526366656c7960e01b60648201526084016200020c565b835480620003435750506040805180820190915263ffffffff43811682526001600160e01b038084166020808501918252875460018101895560008981529190912094519151909216640100000000029216919091179101558062000476565b60008562000353600184620004de565b8154811062000366576200036662000504565b6000918252602080832090910180549093506001600160e01b036401000000009091041691906200039a90839088908a901c565b90506001600160e01b03811115620003ee5760405162461bcd60e51b815260206004820152602160248201526000805160206200388b8339815191526044820152607960f81b60648201526084016200020c565b825463ffffffff164314156200042057825463ffffffff166401000000006001600160e01b0383160217835562000470565b6040805180820190915263ffffffff43811682526001600160e01b0380841660208085019182528c54600181018e5560008e81529190912094519151909216640100000000029216919091179101555b93505050505b9392505050565b6001600160a01b03811681146200049357600080fd5b50565b600080600060608486031215620004ac57600080fd5b8351620004b9816200047d565b6020850151909350620004cc816200047d565b80925050604084015190509250925092565b600082821015620004ff57634e487b7160e01b600052601160045260246000fd5b500390565b634e487b7160e01b600052603260045260246000fd5b60805160a05160c05160e051610100516132fb62000590600039600081816103d5015261175601526000818161059e0152611735015260008181610288015281816106970152818161095001528181610f5001528181611db00152612a2b0152600061154b0152600061064c01526132fb6000f3fe608060405234801561001057600080fd5b506004361061027e5760003560e01c80636fcfff4511610156578063981b24d0116100d3578063bfe1092811610097578063e189cba611610071578063e189cba61461060c578063fc08456a1461061f578063fd11b4d31461063257600080fd5b8063bfe1092814610599578063c4d66de8146105c0578063dd62ed3e146105d357600080fd5b8063981b24d01461052a5780639a032e981461053d5780639dc29fac14610560578063a457c2d714610573578063a9059cbb1461058657600080fd5b80638d57d7481161011a5780638d57d748146104eb5780638ddb428a146104fe5780638e539e8c1461050757806392ab89bb1461051a57806395d89b411461052257600080fd5b80636fcfff451461049157806370a08231146104b9578063795d82f5146104cc57806388b00fd0146104db5780638d176ba5146104e357600080fd5b8063313ce567116101ff5780633a46b1a8116101c35780635c19a95c1161019d5780635c19a95c146104565780635c60da1b146104695780636e684b9a1461047e57600080fd5b80633a46b1a81461041d5780633edb7f831461043057806340c10f191461044357600080fd5b8063313ce567146103b957806335bbc7fe146103c8578063378dc3dc146103d057806339509351146103f757806339634e0c1461040a57600080fd5b806309ed46071161024657806309ed46071461033e5780630cdfebfa1461034657806318160ddd1461037d57806323b872dd14610393578063249cb3fa146103a657600080fd5b80630505c8c91461028357806306fdde03146102c7578063094bc063146102dc578063095ea7b31461031657806309d7f23b14610329575b600080fd5b6102aa7f000000000000000000000000000000000000000000000000000000000000000081565b6040516001600160a01b0390911681526020015b60405180910390f35b6102cf610645565b6040516102be9190612e8a565b6103066102ea366004612ef4565b6001600160a01b03166000908152600460205260409020541590565b60405190151581526020016102be565b610306610324366004612f11565b610675565b61033c610337366004612f53565b61068c565b005b6102aa61074a565b610359610354366004612f11565b610835565b6040805163ffffffff90931683526001600160e01b039091166020830152016102be565b61038561087c565b6040519081526020016102be565b6103066103a1366004613020565b6108a0565b6103856103b4366004613061565b61094c565b604051601281526020016102be565b61033c610a57565b6103857f000000000000000000000000000000000000000000000000000000000000000081565b610306610405366004612f11565b610f09565b61033c610418366004612ef4565b610f45565b61038561042b366004612f11565b611003565b61033c61043e366004612f11565b61102e565b61033c610451366004612f11565b611096565b61033c610464366004612ef4565b6110a0565b6000805160206132a6833981519152546102aa565b61038561048c366004612f11565b6111df565b6104a461049f366004612ef4565b61125f565b60405163ffffffff90911681526020016102be565b6103856104c7366004612ef4565b6112fd565b610385670de0b6b3a764000081565b61033c611332565b61033c6113fe565b6102aa6104f9366004612ef4565b61149d565b610385600b5481565b610385610515366004613091565b6114cd565b61033c611536565b6102cf611544565b610385610538366004613091565b61156f565b61030661054b366004612ef4565b60066020526000908152604090205460ff1681565b61033c61056e366004612f11565b611591565b610306610581366004612f11565b611643565b610306610594366004612f11565b6116dc565b6102aa7f000000000000000000000000000000000000000000000000000000000000000081565b61033c6105ce366004612ef4565b6116e9565b6103856105e13660046130aa565b6001600160a01b03918216600090815260016020908152604080832093909416825291909152205490565b61038561061a366004612ef4565b61177a565b61033c61062d366004612ef4565b61184b565b610385610640366004613091565b6118a8565b60606106707f0000000000000000000000000000000000000000000000000000000000000000611934565b905090565b600061068233848461199a565b5060015b92915050565b336001600160a01b037f000000000000000000000000000000000000000000000000000000000000000016146107205760405162461bcd60e51b815260206004820152602e60248201527f4f6e6c792074686520706f6c69637920636f6e7472616374206d61792063616c60448201526d36103a3434b99036b2ba3437b21760911b60648201526084015b60405180910390fd5b600080825160208401855af43d806000803e81801561073e57816000f35b816000fd5b5050505050565b6000306107636000805160206132a68339815191525490565b6001600160a01b0316146107c85760405162461bcd60e51b815260206004820152602660248201527f54686973206d6574686f642063616e6e6f742062652063616c6c6564206f6e20604482015265636c6f6e657360d01b6064820152608401610717565b60006107d330611a5c565b60405163189acdbd60e31b81523060048201529091506001600160a01b0382169063c4d66de890602401600060405180830381600087803b15801561081757600080fd5b505af115801561082b573d6000803e3d6000fd5b5092949350505050565b6007602052816000526040600020818154811061085157600080fd5b60009182526020909120015463ffffffff8116925064010000000090046001600160e01b0316905082565b60008061088a600a43611ac5565b90508060025461089a91906130ee565b91505090565b60006108ad848484611c19565b6001600160a01b0384166000908152600160209081526040808320338452909152902054828110156109325760405162461bcd60e51b815260206004820152602860248201527f45524332303a207472616e7366657220616d6f756e74206578636565647320616044820152676c6c6f77616e636560c01b6064820152608401610717565b61093f853385840361199a565b60019150505b9392505050565b60007f00000000000000000000000000000000000000000000000000000000000000006001600160a01b0316826001600160a01b0316148061099b57506009546001600160a01b038381169116145b610a0d5760405162461bcd60e51b815260206004820152603c60248201527f4f6e6c792074686520706f6c696379206f7220696e7465726661636520636f6e60448201527f74726163742063616e207365742074686520696e746572666163652e000000006064820152608401610717565b6040517f455243313832305f4143434550545f4d41474943000000000000000000000000602082015260340160405160208183030381529060405280519060200120905092915050565b600b546000610a857fae30bfb87dec2bd0c16be9790f95842d84f58dc70b0a8f6ed22e9556176a7b19611d99565b6001600160a01b031663172195226040518163ffffffff1660e01b815260040160206040518083038186803b158015610abd57600080fd5b505afa158015610ad1573d6000803e3d6000fd5b505050506040513d601f19601f82011682018060405250810190610af59190613110565b905081811415610b475760405162461bcd60e51b815260206004820152601c60248201527f47656e65726174696f6e20686173206e6f7420696e63726561736564000000006044820152606401610717565b600b8190556000610b777fe4ee44a5d338a8b2452cc9552ec014656668eaacb55683101b7e1c2b167e5225611d99565b90506001600160a01b03811615610f04576003816001600160a01b031663c040e6b86040518163ffffffff1660e01b815260040160206040518083038186803b158015610bc357600080fd5b505afa158015610bd7573d6000803e3d6000fd5b505050506040513d601f19601f82011682018060405250810190610bfb9190613129565b6004811115610c0c57610c0c61314a565b60ff161015610c6957806001600160a01b031663c062f5786040518163ffffffff1660e01b8152600401600060405180830381600087803b158015610c5057600080fd5b505af1158015610c64573d6000803e3d6000fd5b505050505b806001600160a01b031663c040e6b86040518163ffffffff1660e01b815260040160206040518083038186803b158015610ca257600080fd5b505afa158015610cb6573d6000803e3d6000fd5b505050506040513d601f19601f82011682018060405250810190610cda9190613129565b6004811115610ceb57610ceb61314a565b60ff1660031415610d4a57806001600160a01b0316631a43c3386040518163ffffffff1660e01b8152600401600060405180830381600087803b158015610d3157600080fd5b505af1158015610d45573d6000803e3d6000fd5b505050505b6000816001600160a01b031663dfbf53ae6040518163ffffffff1660e01b815260040160206040518083038186803b158015610d8557600080fd5b505afa158015610d99573d6000803e3d6000fd5b505050506040513d601f19601f82011682018060405250810190610dbd9190613160565b90506001600160a01b03811615610f0257604051633341b44560e01b81526001600160a01b03828116600483015260009190841690633341b4459060240160c06040518083038186803b158015610e1357600080fd5b505afa158015610e27573d6000803e3d6000fd5b505050506040513d601f19601f82011682018060405250810190610e4b919061318d565b6040519096507fb91f92f869a4caa45d223bc27bba633a4d27e87e75c3d48e3a8628ccea0548249550610e85945086935091506130179050565b60405180910390a16000670de0b6b3a764000082600a6001600a80549050610ead91906131de565b81548110610ebd57610ebd6131f5565b600091825260209091200154610ee4919064010000000090046001600160e01b031661320b565b610eee91906130ee565b9050610efe600a61192f83611e4e565b5050505b505b505050565b3360008181526001602090815260408083206001600160a01b03871684529091528120549091610682918590610f4090869061322a565b61199a565b336001600160a01b037f00000000000000000000000000000000000000000000000000000000000000001614610fd45760405162461bcd60e51b815260206004820152602e60248201527f4f6e6c792074686520706f6c69637920636f6e7472616374206d61792063616c60448201526d36103a3434b99036b2ba3437b21760911b6064820152608401610717565b6009805473ffffffffffffffffffffffffffffffffffffffff19166001600160a01b0392909216919091179055565b60008061100f836118a8565b90508061101c85856111df565b61102691906130ee565b949350505050565b6001600160a01b0382163314156110875760405162461bcd60e51b815260206004820152601b60248201527f446f206e6f742064656c656761746520746f20796f757273656c6600000000006044820152606401610717565b6110923383836120aa565b5050565b610f0482826122a9565b6001600160a01b03811633141561111f5760405162461bcd60e51b815260206004820152603060248201527f55736520756e64656c656761746520696e7374656164206f662064656c65676160448201527f74696e6720746f20796f757273656c66000000000000000000000000000000006064820152608401610717565b6001600160a01b03811660009081526006602052604090205460ff166111985760405162461bcd60e51b815260206004820152602860248201527f5072696d6172792064656c656761746573206d75737420656e61626c652064656044820152673632b3b0ba34b7b760c11b6064820152608401610717565b33600090815260046020526040902054156111b9576111b961062d3361149d565b33600081815260208190526040902054906111d59083836120aa565b6110923383612351565b60004382111561123d5760405162461bcd60e51b8152602060048201526024808201527f566f7465436865636b706f696e74733a20626c6f636b206e6f7420796574206d6044820152631a5b995960e21b6064820152608401610717565b6001600160a01b03831660009081526007602052604090206109459083611ac5565b6001600160a01b03811660009081526007602052604081205463ffffffff10156112e15760405162461bcd60e51b815260206004820152602d60248201527f6e756d626572206f6620636865636b706f696e74732063616e6e6f742062652060448201526c63617374656420736166656c7960981b6064820152608401610717565b506001600160a01b031660009081526007602052604090205490565b60008061130b600a43611ac5565b6001600160a01b0384166000908152602081905260409020549091506109459082906130ee565b61133b3361177a565b33600090815260208190526040902054148015611365575033600090815260046020526040902054155b6113e55760405162461bcd60e51b8152602060048201526044602482018190527f43616e6e6f742064697361626c652064656c65676174696f6e20696620796f75908201527f2068617665206f75747374616e64696e672064656c65676174696f6e7320746f60648201526320796f7560e01b608482015260a401610717565b336000908152600660205260409020805460ff19169055565b33600090815260046020526040902054156114815760405162461bcd60e51b815260206004820152603b60248201527f43616e6e6f7420656e61626c652064656c65676174696f6e20696620796f752060448201527f68617665206f75747374616e64696e672064656c65676174696f6e00000000006064820152608401610717565b336000908152600660205260409020805460ff19166001179055565b6001600160a01b0380821660009081526005602052604081205490911680156114c65780610945565b5090919050565b60004382111561152b5760405162461bcd60e51b8152602060048201526024808201527f566f7465436865636b706f696e74733a20626c6f636b206e6f7420796574206d6044820152631a5b995960e21b6064820152608401610717565b610686600883611ac5565b61154261062d3361149d565b565b60606106707f0000000000000000000000000000000000000000000000000000000000000000611934565b60008061157b836118a8565b905080611587846114cd565b61094591906130ee565b336001600160a01b03831614806115e157506115cc7fe01e721169f17f30d0c130781195719ceba11f26f44578668ffd8462c7c1ebe9611d99565b6001600160a01b0316336001600160a01b0316145b6116395760405162461bcd60e51b8152602060048201526024808201527f43616c6c6572206e6f7420617574686f72697a656420746f206275726e20746f6044820152636b656e7360e01b6064820152608401610717565b610f0482826123db565b3360009081526001602090815260408083206001600160a01b0386168452909152812054828110156116c55760405162461bcd60e51b815260206004820152602560248201527f45524332303a2064656372656173656420616c6c6f77616e63652062656c6f77604482015264207a65726f60d81b6064820152608401610717565b6116d2338585840361199a565b5060019392505050565b6000610682338484611c19565b60006117016000805160206132a68339815191525490565b6001600160a01b0316146117275760405162461bcd60e51b815260040161071790613242565b611730816123f7565b6110927f00000000000000000000000000000000000000000000000000000000000000007f00000000000000000000000000000000000000000000000000000000000000006122a9565b6001600160a01b038116600090815260076020908152604080832080548251818502810185019093528083528493849084015b828210156117fa576000848152602090819020604080518082019091529084015463ffffffff8116825264010000000090046001600160e01b0316818301528252600190920191016117ad565b50508251929350508115905061183757816118166001836131de565b81518110611826576118266131f5565b60200260200101516020015161183a565b60005b6001600160e01b0316949350505050565b3360008181526003602090815260408083206001600160a01b03861684529091529020549061187b908383612454565b6118843361149d565b6001600160a01b0316826001600160a01b0316141561109257611092336000612351565b60004382111561190c5760405162461bcd60e51b815260206004820152602960248201527f496e666c6174696f6e436865636b706f696e74733a20626c6f636b206e6f74206044820152681e595d081b5a5b995960ba1b6064820152608401610717565b610686600a83611ac5565b6000602082511061192757600080fd5b50601f015190565b919050565b606060f882901c6020811061194857600080fd5b8067ffffffffffffffff81111561196157611961612f3d565b6040519080825280601f01601f19166020018201604052801561198b576020820181803683370190505b50915082601f83015250919050565b6001600160a01b0382166119fb5760405162461bcd60e51b815260206004820152602260248201527f45524332303a20617070726f766520746f20746865207a65726f206164647265604482015261737360f01b6064820152608401610717565b6001600160a01b0383811660008181526001602090815260408083209487168084529482529182902085905590518481527f8c5be1e5ebec7d5bd14f71427d1e84f3dd0314c0f7b2291e5b200ac8c7c3b925910160405180910390a3505050565b6000808260601b90506040517f3d602d80600a3d3981f3363d3d373d3d3d363d7300000000000000000000000081528160148201527f5af43d82803e903d91602b57fd5bf3000000000000000000000000000000000060288201526037816000f0949350505050565b815460009080611ad9576000915050610686565b600084611ae76001846131de565b81548110611af757611af76131f5565b60009182526020918290206040805180820190915291015463ffffffff81168083526401000000009091046001600160e01b03169282019290925291508410611b5057602001516001600160e01b031691506106869050565b8160005b81811015611bbe5760006001611b6a83856131de565b611b75911c8361322a565b905086888281548110611b8a57611b8a6131f5565b60009182526020909120015463ffffffff161115611baa57809250611bb8565b611bb581600161322a565b91505b50611b54565b8115611c025786611bd06001846131de565b81548110611be057611be06131f5565b60009182526020909120015464010000000090046001600160e01b0316611c05565b60005b6001600160e01b0316979650505050505050565b6001600160a01b038216611c7b5760405162461bcd60e51b815260206004820152602360248201527f45524332303a207472616e7366657220746f20746865207a65726f206164647260448201526265737360e81b6064820152608401610717565b6000611c888484846124c9565b6001600160a01b03851660009081526020819052604090205490915081811015611d035760405162461bcd60e51b815260206004820152602660248201527f45524332303a207472616e7366657220616d6f756e7420657863656564732062604482015265616c616e636560d01b6064820152608401610717565b6001600160a01b03808616600090815260208190526040808220858503905591861681529081208054849290611d3a90849061322a565b92505081905550836001600160a01b0316856001600160a01b03167fddf252ad1be2c89b69c2b068fc378daa952ba7f163c4a11628f55a4df523b3ef85604051611d8691815260200190565b60405180910390a3610743858584612538565b60405163555ddc6560e11b81526001600160a01b037f000000000000000000000000000000000000000000000000000000000000000016600482015260248101829052600090731820a4b7618bde71dce8cdc73aab6c95905fad249063aabbb8ca9060440160206040518083038186803b158015611e1657600080fd5b505afa158015611e2a573d6000803e3d6000fd5b505050506040513d601f19601f820116820180604052508101906106869190613160565b60006001600160e01b03821115611eb15760405162461bcd60e51b815260206004820152602160248201527f6e65775765696768742063616e6e6f742062652063617374656420736166656c6044820152607960f81b6064820152608401610717565b63ffffffff431115611f115760405162461bcd60e51b8152602060048201526024808201527f626c6f636b206e756d6265722063616e6e6f742062652063617374656420736160448201526366656c7960e01b6064820152608401610717565b835480611f6f5750506040805180820190915263ffffffff43811682526001600160e01b0380841660208085019182528754600181018955600089815291909120945191519092166401000000000292169190911791015580610945565b600085611f7d6001846131de565b81548110611f8d57611f8d6131f5565b60009182526020822001805490925064010000000090046001600160e01b031690611fbc828763ffffffff8a16565b90506001600160e01b0381111561201f5760405162461bcd60e51b815260206004820152602160248201527f6e65775765696768742063616e6e6f742062652063617374656420736166656c6044820152607960f81b6064820152608401610717565b825463ffffffff1643141561204f57825463ffffffff166401000000006001600160e01b0383160217835561209f565b6040805180820190915263ffffffff43811682526001600160e01b0380841660208085019182528c54600181018e5560008e81529190912094519151909216640100000000029216919091179101555b979650505050505050565b6001600160a01b03831660009081526004602090815260408083205491839052909120546120d891906131de565b81111561214d5760405162461bcd60e51b815260206004820152603d60248201527f4d757374206861766520616e20756e64656c65676174656420616d6f756e742060448201527f617661696c61626c6520746f20636f7665722064656c65676174696f6e0000006064820152608401610717565b6001600160a01b03831660009081526006602052604090205460ff16156121e75760405162461bcd60e51b815260206004820152604260248201527f43616e6e6f742064656c656761746520696620796f75206861766520656e616260448201527f6c6564207072696d6172792064656c65676174696f6e20746f20796f75727365606482015261363360f11b608482015260a401610717565b816001600160a01b0316836001600160a01b03167f98dafce09283426336da94838681d1fe723dcd8d49f67902076eebf3e2d1ddd68360405161222c91815260200190565b60405180910390a36001600160a01b0380841660009081526003602090815260408083209386168352929052908120805483929061226b90849061322a565b90915550506001600160a01b0383166000908152600460205260408120805483929061229890849061322a565b90915550610f049050838383612686565b60006122b583836127a7565b91506001600160e01b036122c761087c565b111561233b5760405162461bcd60e51b815260206004820152603560248201527f566f7465436865636b706f696e74733a20746f74616c20737570706c7920726960448201527f736b73206f766572666c6f77696e6720766f74657300000000000000000000006064820152608401610717565b61234960086128a084611e4e565b509092915050565b6001600160a01b038281166000908152600560205260409020805473ffffffffffffffffffffffffffffffffffffffff19169183169182179055156123965780612398565b815b6001600160a01b0316826001600160a01b03167f88a6f95a94556f83d3752aaa691040ea5c04d9db823566be9f2f325eb866c9ae60405160405180910390a35050565b60006123e783836128ac565b915061234960086129bb84611e4e565b600061240f6000805160206132a68339815191525490565b6001600160a01b0316146124355760405162461bcd60e51b815260040161071790613242565b61243e816129c7565b611092600a61192f670de0b6b3a7640000611e4e565b6001600160a01b0383166000908152600460205260408120805483929061247c9084906131de565b90915550506001600160a01b038084166000908152600360209081526040808320938616835292905290812080548392906124b89084906131de565b90915550610f049050828483612686565b6000806124d7600a43611ac5565b6124e1908461320b565b9050836001600160a01b0316856001600160a01b03167fd62d118ec9618b21ba50e6814f78a20bf1e5b6fa0206ffe661a0ca53ce22874f8360405161252891815260200190565b60405180910390a3949350505050565b60006125637fe01e721169f17f30d0c130781195719ceba11f26f44578668ffd8462c7c1ebe9611d99565b90506001600160a01b038116158015906126705750604051633fbe9f4760e21b81526001600160a01b03858116600483015282169063fefa7d1c9060240160206040518083038186803b1580156125b957600080fd5b505afa1580156125cd573d6000803e3d6000fd5b505050506040513d601f19601f820116820180604052508101906125f1919061328a565b806126705750604051633fbe9f4760e21b81526001600160a01b03848116600483015282169063fefa7d1c9060240160206040518083038186803b15801561263857600080fd5b505afa15801561264c573d6000803e3d6000fd5b505050506040513d601f19601f82011682018060405250810190612670919061328a565b1561267b5750505050565b610f02848484612a9d565b816001600160a01b0316836001600160a01b0316141580156126a85750600081115b15610f04576001600160a01b03831615612728576001600160a01b03831660009081526007602052604081206126e1906129bb84611e4e565b9050836001600160a01b03167fd1b0c5e03e405cea97403894c17af4610d6d851ffe4baa03de1ca5e7c700cd758260405161271e91815260200190565b60405180910390a2505b6001600160a01b03821615610f04576001600160a01b038216600090815260076020526040812061275c906128a084611e4e565b9050826001600160a01b03167fd1b0c5e03e405cea97403894c17af4610d6d851ffe4baa03de1ca5e7c700cd758260405161279991815260200190565b60405180910390a250505050565b60006001600160a01b0383166127ff5760405162461bcd60e51b815260206004820152601f60248201527f45524332303a206d696e7420746f20746865207a65726f2061646472657373006044820152606401610717565b600061280d600085856124c9565b90508060026000828254612821919061322a565b90915550506001600160a01b0384166000908152602081905260408120805483929061284e90849061322a565b90915550506040518381526001600160a01b038516906000907fddf252ad1be2c89b69c2b068fc378daa952ba7f163c4a11628f55a4df523b3ef9060200160405180910390a361094560008583612538565b6000610945828461322a565b6000806128bb846000856124c9565b6001600160a01b038516600090815260208190526040902054909150818110156129325760405162461bcd60e51b815260206004820152602260248201527f45524332303a206275726e20616d6f756e7420657863656564732062616c616e604482015261636560f01b6064820152608401610717565b6001600160a01b03851660009081526020819052604081208383039055600280548492906129619084906131de565b90915550506040518481526000906001600160a01b038716907fddf252ad1be2c89b69c2b068fc378daa952ba7f163c4a11628f55a4df523b3ef9060200160405180910390a36129b385600084612538565b509392505050565b600061094582846131de565b60006129df6000805160206132a68339815191525490565b6001600160a01b031614612a055760405162461bcd60e51b815260040161071790613242565b612a0e81612c95565b604051635df8122f60e01b81523060048201526001600160a01b037f0000000000000000000000000000000000000000000000000000000000000000166024820152731820a4b7618bde71dce8cdc73aab6c95905fad2490635df8122f90604401600060405180830381600087803b158015612a8957600080fd5b505af1158015610743573d6000803e3d6000fd5b6001600160a01b03831660009081526004602052604090205415612bef576001600160a01b03831660009081526004602090815260408083205491839052822054612ae990849061322a565b612af391906131de565b905081811015612bed576000612b088561149d565b6001600160a01b03808716600090815260036020908152604080832093851683529290522054909150612b3b818461322a565b841115612bd65760405162461bcd60e51b815260206004820152605360248201527f44656c65676174696f6e20746f6f20636f6d706c69636174656420746f20747260448201527f616e736665722e20556e64656c656761746520616e642073696d706c6966792060648201527f6265666f726520747279696e6720616761696e00000000000000000000000000608482015260a401610717565b612bea8683612be586886131de565b612454565b50505b505b6001600160a01b03808316600090815260056020526040902054168015612c8a576001600160a01b03808416600090815260036020908152604080832093851683529290529081208054849290612c4790849061322a565b90915550506001600160a01b03831660009081526004602052604081208054849290612c7490849061322a565b90915550612c859050848284612686565b610f02565b610f02848484612686565b6000612cad6000805160206132a68339815191525490565b6001600160a01b031614612cd35760405162461bcd60e51b815260040161071790613242565b612cdc81612cdf565b50565b6000612cf76000805160206132a68339815191525490565b6001600160a01b031614612d1d5760405162461bcd60e51b815260040161071790613242565b6000816001600160a01b0316635c60da1b6040518163ffffffff1660e01b815260040160206040518083038186803b158015612d5857600080fd5b505afa158015612d6c573d6000803e3d6000fd5b505050506040513d601f19601f82011682018060405250810190612d909190613160565b90506001600160a01b038116612dfd5760405162461bcd60e51b815260206004820152602c60248201527f696e697469616c697a6174696f6e206661696c7572653a206e6f7468696e672060448201526b1d1bc81a5b5c1b195b595b9d60a21b6064820152608401610717565b61109281806001600160a01b0316612e216000805160206132a68339815191525490565b6001600160a01b03161415612e785760405162461bcd60e51b815260206004820152601f60248201527f496d706c656d656e746174696f6e20616c7265616479206d61746368696e67006044820152606401610717565b6000805160206132a683398151915255565b600060208083528351808285015260005b81811015612eb757858101830151858201604001528201612e9b565b81811115612ec9576000604083870101525b50601f01601f1916929092016040019392505050565b6001600160a01b0381168114612cdc57600080fd5b600060208284031215612f0657600080fd5b813561094581612edf565b60008060408385031215612f2457600080fd5b8235612f2f81612edf565b946020939093013593505050565b634e487b7160e01b600052604160045260246000fd5b60008060408385031215612f6657600080fd5b8235612f7181612edf565b9150602083013567ffffffffffffffff80821115612f8e57600080fd5b818501915085601f830112612fa257600080fd5b813581811115612fb457612fb4612f3d565b604051601f8201601f19908116603f01168101908382118183101715612fdc57612fdc612f3d565b81604052828152886020848701011115612ff557600080fd5b8260208601602083013760006020848301015280955050505050509250929050565b90815260200190565b60008060006060848603121561303557600080fd5b833561304081612edf565b9250602084013561305081612edf565b929592945050506040919091013590565b6000806040838503121561307457600080fd5b82359150602083013561308681612edf565b809150509250929050565b6000602082840312156130a357600080fd5b5035919050565b600080604083850312156130bd57600080fd5b82356130c881612edf565b9150602083013561308681612edf565b634e487b7160e01b600052601160045260246000fd5b60008261310b57634e487b7160e01b600052601260045260246000fd5b500490565b60006020828403121561312257600080fd5b5051919050565b60006020828403121561313b57600080fd5b81516005811061094557600080fd5b634e487b7160e01b600052602160045260246000fd5b60006020828403121561317257600080fd5b815161094581612edf565b8051801515811461192f57600080fd5b60008060008060008060c087890312156131a657600080fd5b6131af8761317d565b95506020870151945060408701519350606087015192506080870151915060a087015190509295509295509295565b6000828210156131f0576131f06130d8565b500390565b634e487b7160e01b600052603260045260246000fd5b6000816000190483118215151615613225576132256130d8565b500290565b6000821982111561323d5761323d6130d8565b500190565b60208082526028908201527f43616e206f6e6c792062652063616c6c656420647572696e6720696e697469616040820152673634bd30ba34b7b760c11b606082015260800190565b60006020828403121561329c57600080fd5b6109458261317d56fef86c915dad5894faca0dfa067c58fdf4307406d255ed0a65db394f82b77f53d4a2646970667358221220e043c0995a7f9c0f232c1c0a12ffa674f6e2483bf9da4699d4ec7a26b6d91dd764736f6c634300080900336e65775765696768742063616e6e6f742062652063617374656420736166656cf86c915dad5894faca0dfa067c58fdf4307406d255ed0a65db394f82b77f53d4",
  "immutableReferences": {
    "2229": [
      {
        "length": 32,
        "start": 1438
      },
      {
        "length": 32,
        "start": 5941
      }
    ],
    "2231": [
      {
        "length": 32,
        "start": 981
      },
      {
        "length": 32,
        "start": 5974
      }
    ],
    "3256": [
      {
        "length": 32,
        "start": 1612
      }
    ],
    "3258": [
      {
        "length": 32,
        "start": 5451
      }
    ],
    "12039": [
      {
        "length": 32,
        "start": 648
      },
      {
        "length": 32,
        "start": 1687
      },
      {
        "length": 32,
        "start": 2384
      },
      {
        "length": 32,
        "start": 3920
      },
      {
        "length": 32,
        "start": 7600
      },
      {
        "length": 32,
        "start": 10795
      }
    ]
  },
  "source": "/* -*- c-basic-offset: 4 -*- */\n// SPDX-License-Identifier: MIT\npragma solidity ^0.8.0;\n\nimport \"./InflationCheckpoints.sol\";\nimport \"../policy/PolicedUtils.sol\";\nimport \"../utils/TimeUtils.sol\";\n// import \"../currency/InflationRootHashProposal.sol\";\nimport \"../governance/CurrencyTimer.sol\";\nimport \"../governance/CurrencyGovernance.sol\";\nimport \"../governance/IGeneration.sol\";\n\n/** @title An ERC20 token interface to the Eco currency system.\n */\ncontract ECO is InflationCheckpoints, TimeUtils {\n    /** Fired when a proposal with a new inflation multiplier is selected and passed.\n     * Used to calculate new values for the rebased token.\n     */\n    event NewInflationMultiplier(uint256 inflationMultiplier);\n\n    /* Current generation of the balance store. */\n    // need to set a default here\n    uint256 public currentGeneration;\n\n    // the address of the contract for initial distribution\n    address public immutable distributor;\n\n    uint256 public immutable initialSupply;\n\n    constructor(\n        Policy _policy,\n        address _distributor,\n        uint256 _initialSupply\n    ) InflationCheckpoints(_policy, \"Eco\", \"ECO\") {\n        distributor = _distributor;\n        initialSupply = _initialSupply;\n    }\n\n    function initialize(address _self)\n        public\n        virtual\n        override\n        onlyConstruction\n    {\n        super.initialize(_self);\n        _mint(distributor, initialSupply);\n    }\n\n    function mint(address _to, uint256 _value) external {\n        /*\n        require(\n            msg.sender == policyFor(ID_CURRENCY_TIMER) ||\n                msg.sender == policyFor(ID_ECOX) ||\n                msg.sender == policyFor(ID_ECO_LABS) ||\n                msg.sender == policyFor(ID_FAUCET),\n            \"Caller not authorized to mint tokens\"\n        );\n        */\n\n        _mint(_to, _value);\n    }\n\n    function burn(address _from, uint256 _value) external {\n        require(\n            msg.sender == _from || msg.sender == policyFor(ID_CURRENCY_TIMER),\n            \"Caller not authorized to burn tokens\"\n        );\n\n        _burn(_from, _value);\n    }\n\n    function _afterTokenTransfer(\n        address from,\n        address to,\n        uint256 amount\n    ) internal virtual override {\n        // If to or from is a lockup early return so voting power and delegation remain\n        CurrencyTimer _currencyTimer = CurrencyTimer(\n            policyFor(ID_CURRENCY_TIMER)\n        );\n        if (\n            address(_currencyTimer) != address(0) &&\n            (_currencyTimer.isLockup(from) || _currencyTimer.isLockup(to))\n        ) return;\n\n        super._afterTokenTransfer(from, to, amount);\n    }\n\n    function notifyGenerationIncrease() public virtual override {\n        uint256 _old = currentGeneration;\n        uint256 _new = IGeneration(policyFor(ID_TIMED_POLICIES)).generation();\n        require(_new != _old, \"Generation has not increased\");\n\n        // update currentGeneration\n        currentGeneration = _new;\n\n        CurrencyGovernance bg = CurrencyGovernance(\n            policyFor(ID_CURRENCY_GOVERNANCE)\n        );\n\n        if (address(bg) != address(0)) {\n            if (uint8(bg.stage()) < 3) {\n                bg.updateStage();\n            }\n            if (uint8(bg.stage()) == 3) {\n                bg.compute();\n            }\n            address winner = bg.winner();\n            if (winner != address(0)) {\n                uint256 _inflationMultiplier;\n                (, , , , , _inflationMultiplier) = bg.proposals(winner);\n                emit NewInflationMultiplier(_inflationMultiplier);\n\n                // updates the inflation value\n                uint256 _newInflationMultiplier = (_linearInflationCheckpoints[\n                    _linearInflationCheckpoints.length - 1\n                ].value * _inflationMultiplier) / INITIAL_INFLATION_MULTIPLIER;\n                _writeCheckpoint(\n                    _linearInflationCheckpoints,\n                    _replace,\n                    _newInflationMultiplier\n                );\n            }\n        }\n    }\n}\n",
  "sourcePath": "/Users/dirksmac/dev/eco/currency/contracts/currency/ECO.sol",
  "compiler": {
    "name": "solc",
    "version": "0.8.9+commit.e5eed63a.Emscripten.clang"
  },
  "schemaVersion": "3.4.3",
  "updatedAt": "2022-07-01T19:00:50.376Z",
  "devdoc": {
    "kind": "dev",
    "methods": {
      "allowance(address,address)": {
        "details": "See {IERC20-allowance}."
      },
      "approve(address,uint256)": {
        "details": "See {IERC20-approve}. Requirements: - `spender` cannot be the zero address."
      },
      "canImplementInterfaceForAddress(bytes32,address)": {
        "params": {
          "_addr": "The address of the contract we might act on behalf of."
        }
      },
      "decimals()": {
        "details": "Returns the number of decimals used to get its user representation. For example, if `decimals` equals `2`, a balance of `505` tokens should be displayed to a user as `5.05` (`505 / 10 ** 2`). Tokens usually opt for a value of 18, imitating the relationship between Ether and Wei. This is the value {ERC20} uses, unless this function is overridden; NOTE: This information is only used for _display_ purposes: it in no way affects any of the arithmetic of the contract, including {IERC20-balanceOf} and {IERC20-transfer}."
      },
      "decreaseAllowance(address,uint256)": {
        "details": "Atomically decreases the allowance granted to `spender` by the caller. This is an alternative to {approve} that can be used as a mitigation for problems described in {IERC20-approve}. Emits an {Approval} event indicating the updated allowance. Requirements: - `spender` cannot be the zero address. - `spender` must have allowance for the caller of at least `subtractedValue`."
      },
      "delegate(address)": {
        "details": "Delegate all votes from the sender to `delegatee`."
      },
      "delegateAmount(address,uint256)": {
        "details": "Delegate an `amount` of votes from the sender to `delegatee`."
      },
      "disableDelegation()": {
        "details": "Set yourself as no longer recieving delegates. NOTE: the condition for this is not easy and cannot be unilaterally achieved"
      },
      "enableDelegation()": {
        "details": "Set yourself as willing to recieve delegates."
      },
      "getPastTotalSupply(uint256)": {
        "details": "Retrieve the `totalSupply` at the end of `blockNumber`. Note, this value is the sum of all balances. It is NOT the sum of all the delegated votes! Requirements: - `blockNumber` must have been already mined"
      },
      "getPastVotes(address,uint256)": {
        "params": {
          "_blockNumber": "The block number to check the balance at the start                        of. Must be less than or equal to the present                        block number.",
          "_owner": "The account to check the balance of."
        }
      },
      "getPastVotingGons(address,uint256)": {
        "details": "Retrieve the number of votes in gons for `account` at the end of `blockNumber`. Requirements: - `blockNumber` must have been already mined"
      },
      "getPrimaryDelegate(address)": {
        "details": "Get the primary address `account` is currently delegating to. Defaults to the account address itself if none specified. The primary delegate is the one that is delegated any new funds the address recieves."
      },
      "getVotingGons(address)": {
        "details": "Gets the current votes balance in gons for `account`"
      },
      "increaseAllowance(address,uint256)": {
        "details": "Atomically increases the allowance granted to `spender` by the caller. This is an alternative to {approve} that can be used as a mitigation for problems described in {IERC20-approve}. Emits an {Approval} event indicating the updated allowance. Requirements: - `spender` cannot be the zero address."
      },
      "initialize(address)": {
        "params": {
          "_self": "The address of the original contract deployment (as opposed              to the address of the proxy contract, which takes the place              of `this`)."
        }
      },
      "isOwnDelegate(address)": {
        "details": "Returns true if the user has no amount of their balance delegated, otherwise false."
      },
      "name()": {
        "details": "Returns the name of the token."
      },
      "numCheckpoints(address)": {
        "details": "Get number of checkpoints for `account`."
      },
      "policyCommand(address,bytes)": {
        "params": {
          "_data": "The call message/data to execute on.",
          "_delegate": "The address of the contract to delegate execution to."
        }
      },
      "symbol()": {
        "details": "Returns the symbol of the token, usually a shorter version of the name."
      },
      "transfer(address,uint256)": {
        "details": "See {IERC20-transfer}. Requirements: - `recipient` cannot be the zero address. - the caller must have a balance of at least `amount`."
      },
      "transferFrom(address,address,uint256)": {
        "details": "See {IERC20-transferFrom}. Emits an {Approval} event indicating the updated allowance. This is not required by the EIP. See the note at the beginning of {ERC20}. Requirements: - `sender` and `recipient` cannot be the zero address. - `sender` must have a balance of at least `amount`. - the caller must have allowance for ``sender``'s tokens of at least `amount`."
      },
      "undelegate()": {
        "details": "Undelegate all votes from the sender's primary delegate."
      },
      "undelegateFromAddress(address)": {
        "details": "Undelegate votes from the `delegatee` back to the sender."
      }
    },
    "title": "An ERC20 token interface to the Eco currency system.",
    "version": 1
  },
  "userdoc": {
    "events": {
      "NewInflationMultiplier(uint256)": {
        "notice": "Fired when a proposal with a new inflation multiplier is selected and passed. Used to calculate new values for the rebased token."
      }
    },
    "kind": "user",
    "methods": {
      "balanceOf(address)": {
        "notice": "Access function to determine the token balance held by some address."
      },
      "canImplementInterfaceForAddress(bytes32,address)": {
        "notice": "ERC1820 permissioning interface"
      },
      "clone()": {
        "notice": "Create a clone of this contract Creates a clone of this contract by instantiating a proxy at a new address and initializing it based on the current contract. Uses optionality.io's CloneFactory functionality. This is used to save gas cost during deployments. Rather than including the full contract code in every contract that might instantiate it we can deploy it once and reference the location it was deployed to. Then calls to clone() can be used to create instances as needed without increasing the code size of the instantiating contract."
      },
      "getPastVotes(address,uint256)": {
        "notice": "Return historical voting balance (includes delegation) at given block number. If the latest block number for the account is before the requested block then the most recent known balance is returned. Otherwise the exact block number requested is returned."
      },
      "implementation()": {
        "notice": "Get the address of the proxy target contract."
      },
      "initialize(address)": {
        "notice": "Initialize the contract (replaces constructor) See documentation for Policed for an explanation."
      },
      "policy()": {
        "notice": "The address of the root policy instance overseeing this instance. This address can be used for ERC1820 lookup of other components, ERC1820 lookup of role policies, and interaction with the policy hierarchy."
      },
      "policyCommand(address,bytes)": {
        "notice": "Execute code as indicated by the managing policy contract We allow the managing policy contract to execute arbitrary code in our context by allowing it to specify an implementation address and some message data, and then using delegatecall to execute the code at the implementation address, passing in the message data, all within our own address space."
      },
      "setExpectedInterfaceSet(address)": {
        "notice": "Set the expected interface set"
      },
      "totalSupply()": {
        "notice": "Returns the total (inflation corrected) token supply"
      },
      "totalSupplyAt(uint256)": {
        "notice": "Returns the total (inflation corrected) token supply at a specified block number"
      }
    },
    "version": 1
  }
}