{
  "contractName": "ECO",
  "abi": [
    {
      "inputs": [
        {
          "internalType": "address",
          "name": "_policy",
          "type": "address"
        },
        {
          "internalType": "address",
          "name": "_distributor",
          "type": "address"
        },
        {
          "internalType": "uint256",
          "name": "_initialSupply",
          "type": "uint256"
        }
      ],
      "stateMutability": "nonpayable",
      "type": "constructor"
    },
    {
      "anonymous": false,
      "inputs": [
        {
          "indexed": true,
          "internalType": "address",
          "name": "owner",
          "type": "address"
        },
        {
          "indexed": true,
          "internalType": "address",
          "name": "spender",
          "type": "address"
        },
        {
          "indexed": false,
          "internalType": "uint256",
          "name": "value",
          "type": "uint256"
        }
      ],
      "name": "Approval",
      "type": "event"
    },
    {
      "anonymous": false,
      "inputs": [
        {
          "indexed": true,
          "internalType": "address",
          "name": "from",
          "type": "address"
        },
        {
          "indexed": true,
          "internalType": "address",
          "name": "to",
          "type": "address"
        },
        {
          "indexed": false,
          "internalType": "uint256",
          "name": "value",
          "type": "uint256"
        }
      ],
      "name": "BaseValueTransfer",
      "type": "event"
    },
    {
      "anonymous": false,
      "inputs": [
        {
          "indexed": true,
          "internalType": "address",
          "name": "delegator",
          "type": "address"
        },
        {
          "indexed": true,
          "internalType": "address",
          "name": "toDelegate",
          "type": "address"
        }
      ],
      "name": "ChangeDelegate",
      "type": "event"
    },
    {
      "anonymous": false,
      "inputs": [
        {
          "indexed": true,
          "internalType": "address",
          "name": "delegate",
          "type": "address"
        },
        {
          "indexed": false,
          "internalType": "uint256",
          "name": "newBalance",
          "type": "uint256"
        }
      ],
      "name": "ChangeDelegateVotes",
      "type": "event"
    },
    {
      "anonymous": false,
      "inputs": [
        {
          "indexed": false,
          "internalType": "uint256",
          "name": "inflationMultiplier",
          "type": "uint256"
        }
      ],
      "name": "NewInflationMultiplier",
      "type": "event"
    },
    {
      "anonymous": false,
      "inputs": [
        {
          "indexed": true,
          "internalType": "address",
          "name": "from",
          "type": "address"
        },
        {
          "indexed": true,
          "internalType": "address",
          "name": "to",
          "type": "address"
        },
        {
          "indexed": false,
          "internalType": "uint256",
          "name": "value",
          "type": "uint256"
        }
      ],
      "name": "Transfer",
      "type": "event"
    },
    {
      "inputs": [],
      "name": "INITIAL_INFLATION_MULTIPLIER",
      "outputs": [
        {
          "internalType": "uint256",
          "name": "",
          "type": "uint256"
        }
      ],
      "stateMutability": "view",
      "type": "function"
    },
    {
      "inputs": [
        {
          "internalType": "address",
          "name": "owner",
          "type": "address"
        },
        {
          "internalType": "address",
          "name": "spender",
          "type": "address"
        }
      ],
      "name": "allowance",
      "outputs": [
        {
          "internalType": "uint256",
          "name": "",
          "type": "uint256"
        }
      ],
      "stateMutability": "view",
      "type": "function"
    },
    {
      "inputs": [
        {
          "internalType": "address",
          "name": "spender",
          "type": "address"
        },
        {
          "internalType": "uint256",
          "name": "amount",
          "type": "uint256"
        }
      ],
      "name": "approve",
      "outputs": [
        {
          "internalType": "bool",
          "name": "",
          "type": "bool"
        }
      ],
      "stateMutability": "nonpayable",
      "type": "function"
    },
    {
      "inputs": [
        {
          "internalType": "address",
          "name": "_owner",
          "type": "address"
        }
      ],
      "name": "balanceOf",
      "outputs": [
        {
          "internalType": "uint256",
          "name": "",
          "type": "uint256"
        }
      ],
      "stateMutability": "view",
      "type": "function"
    },
    {
      "inputs": [
        {
          "internalType": "bytes32",
          "name": "",
          "type": "bytes32"
        },
        {
          "internalType": "address",
          "name": "_addr",
          "type": "address"
        }
      ],
      "name": "canImplementInterfaceForAddress",
      "outputs": [
        {
          "internalType": "bytes32",
          "name": "",
          "type": "bytes32"
        }
      ],
      "stateMutability": "view",
      "type": "function"
    },
    {
      "inputs": [
        {
          "internalType": "address",
          "name": "",
          "type": "address"
        },
        {
          "internalType": "uint256",
          "name": "",
          "type": "uint256"
        }
      ],
      "name": "checkpoints",
      "outputs": [
        {
          "internalType": "uint32",
          "name": "fromBlock",
          "type": "uint32"
        },
        {
          "internalType": "uint224",
          "name": "value",
          "type": "uint224"
        }
      ],
      "stateMutability": "view",
      "type": "function"
    },
    {
      "inputs": [],
      "name": "clone",
      "outputs": [
        {
          "internalType": "address",
          "name": "",
          "type": "address"
        }
      ],
      "stateMutability": "nonpayable",
      "type": "function"
    },
    {
      "inputs": [],
      "name": "currentGeneration",
      "outputs": [
        {
          "internalType": "uint256",
          "name": "",
          "type": "uint256"
        }
      ],
      "stateMutability": "view",
      "type": "function"
    },
    {
      "inputs": [],
      "name": "decimals",
      "outputs": [
        {
          "internalType": "uint8",
          "name": "",
          "type": "uint8"
        }
      ],
      "stateMutability": "view",
      "type": "function"
    },
    {
      "inputs": [
        {
          "internalType": "address",
          "name": "spender",
          "type": "address"
        },
        {
          "internalType": "uint256",
          "name": "subtractedValue",
          "type": "uint256"
        }
      ],
      "name": "decreaseAllowance",
      "outputs": [
        {
          "internalType": "bool",
          "name": "",
          "type": "bool"
        }
      ],
      "stateMutability": "nonpayable",
      "type": "function"
    },
    {
      "inputs": [
        {
          "internalType": "address",
          "name": "delegatee",
          "type": "address"
        }
      ],
      "name": "delegate",
      "outputs": [],
      "stateMutability": "nonpayable",
      "type": "function"
    },
    {
      "inputs": [],
      "name": "distributor",
      "outputs": [
        {
          "internalType": "address",
          "name": "",
          "type": "address"
        }
      ],
      "stateMutability": "view",
      "type": "function"
    },
    {
      "inputs": [
        {
          "internalType": "address",
          "name": "account",
          "type": "address"
        }
      ],
      "name": "getDelegate",
      "outputs": [
        {
          "internalType": "address",
          "name": "",
          "type": "address"
        }
      ],
      "stateMutability": "view",
      "type": "function"
    },
    {
      "inputs": [
        {
          "internalType": "uint256",
          "name": "blockNumber",
          "type": "uint256"
        }
      ],
      "name": "getPastLinearInflation",
      "outputs": [
        {
          "internalType": "uint256",
          "name": "",
          "type": "uint256"
        }
      ],
      "stateMutability": "view",
      "type": "function"
    },
    {
      "inputs": [
        {
          "internalType": "uint256",
          "name": "blockNumber",
          "type": "uint256"
        }
      ],
      "name": "getPastTotalSupply",
      "outputs": [
        {
          "internalType": "uint256",
          "name": "",
          "type": "uint256"
        }
      ],
      "stateMutability": "view",
      "type": "function"
    },
    {
      "inputs": [
        {
          "internalType": "address",
          "name": "_owner",
          "type": "address"
        },
        {
          "internalType": "uint256",
          "name": "_blockNumber",
          "type": "uint256"
        }
      ],
      "name": "getPastVotes",
      "outputs": [
        {
          "internalType": "uint256",
          "name": "",
          "type": "uint256"
        }
      ],
      "stateMutability": "view",
      "type": "function"
    },
    {
      "inputs": [
        {
          "internalType": "address",
          "name": "account",
          "type": "address"
        },
        {
          "internalType": "uint256",
          "name": "blockNumber",
          "type": "uint256"
        }
      ],
      "name": "getPastVotingGons",
      "outputs": [
        {
          "internalType": "uint256",
          "name": "",
          "type": "uint256"
        }
      ],
      "stateMutability": "view",
      "type": "function"
    },
    {
      "inputs": [
        {
          "internalType": "address",
          "name": "account",
          "type": "address"
        }
      ],
      "name": "getVotingGons",
      "outputs": [
        {
          "internalType": "uint256",
          "name": "",
          "type": "uint256"
        }
      ],
      "stateMutability": "view",
      "type": "function"
    },
    {
      "inputs": [],
      "name": "implementation",
      "outputs": [
        {
          "internalType": "address",
          "name": "_impl",
          "type": "address"
        }
      ],
      "stateMutability": "view",
      "type": "function"
    },
    {
      "inputs": [
        {
          "internalType": "address",
          "name": "spender",
          "type": "address"
        },
        {
          "internalType": "uint256",
          "name": "addedValue",
          "type": "uint256"
        }
      ],
      "name": "increaseAllowance",
      "outputs": [
        {
          "internalType": "bool",
          "name": "",
          "type": "bool"
        }
      ],
      "stateMutability": "nonpayable",
      "type": "function"
    },
    {
      "inputs": [],
      "name": "initialSupply",
      "outputs": [
        {
          "internalType": "uint256",
          "name": "",
          "type": "uint256"
        }
      ],
      "stateMutability": "view",
      "type": "function"
    },
    {
      "inputs": [],
      "name": "name",
      "outputs": [
        {
          "internalType": "string",
          "name": "",
          "type": "string"
        }
      ],
      "stateMutability": "view",
      "type": "function"
    },
    {
      "inputs": [
        {
          "internalType": "address",
          "name": "account",
          "type": "address"
        }
      ],
      "name": "numCheckpoints",
      "outputs": [
        {
          "internalType": "uint32",
          "name": "",
          "type": "uint32"
        }
      ],
      "stateMutability": "view",
      "type": "function"
    },
    {
      "inputs": [],
      "name": "policy",
      "outputs": [
        {
          "internalType": "address",
          "name": "",
          "type": "address"
        }
      ],
      "stateMutability": "view",
      "type": "function"
    },
    {
      "inputs": [
        {
          "internalType": "address",
          "name": "_delegate",
          "type": "address"
        },
        {
          "internalType": "bytes",
          "name": "_data",
          "type": "bytes"
        }
      ],
      "name": "policyCommand",
      "outputs": [],
      "stateMutability": "nonpayable",
      "type": "function"
    },
    {
      "inputs": [
        {
          "internalType": "address",
          "name": "_addr",
          "type": "address"
        }
      ],
      "name": "setExpectedInterfaceSet",
      "outputs": [],
      "stateMutability": "nonpayable",
      "type": "function"
    },
    {
      "inputs": [],
      "name": "symbol",
      "outputs": [
        {
          "internalType": "string",
          "name": "",
          "type": "string"
        }
      ],
      "stateMutability": "view",
      "type": "function"
    },
    {
      "inputs": [],
      "name": "totalSupply",
      "outputs": [
        {
          "internalType": "uint256",
          "name": "",
          "type": "uint256"
        }
      ],
      "stateMutability": "view",
      "type": "function"
    },
    {
      "inputs": [
        {
          "internalType": "uint256",
          "name": "_blockNumber",
          "type": "uint256"
        }
      ],
      "name": "totalSupplyAt",
      "outputs": [
        {
          "internalType": "uint256",
          "name": "",
          "type": "uint256"
        }
      ],
      "stateMutability": "view",
      "type": "function"
    },
    {
      "inputs": [
        {
          "internalType": "address",
          "name": "recipient",
          "type": "address"
        },
        {
          "internalType": "uint256",
          "name": "amount",
          "type": "uint256"
        }
      ],
      "name": "transfer",
      "outputs": [
        {
          "internalType": "bool",
          "name": "",
          "type": "bool"
        }
      ],
      "stateMutability": "nonpayable",
      "type": "function"
    },
    {
      "inputs": [
        {
          "internalType": "address",
          "name": "sender",
          "type": "address"
        },
        {
          "internalType": "address",
          "name": "recipient",
          "type": "address"
        },
        {
          "internalType": "uint256",
          "name": "amount",
          "type": "uint256"
        }
      ],
      "name": "transferFrom",
      "outputs": [
        {
          "internalType": "bool",
          "name": "",
          "type": "bool"
        }
      ],
      "stateMutability": "nonpayable",
      "type": "function"
    },
    {
      "inputs": [
        {
          "internalType": "address",
          "name": "_self",
          "type": "address"
        }
      ],
      "name": "initialize",
      "outputs": [],
      "stateMutability": "nonpayable",
      "type": "function"
    },
    {
      "inputs": [
        {
          "internalType": "address",
          "name": "_to",
          "type": "address"
        },
        {
          "internalType": "uint256",
          "name": "_value",
          "type": "uint256"
        }
      ],
      "name": "mint",
      "outputs": [],
      "stateMutability": "nonpayable",
      "type": "function"
    },
    {
      "inputs": [
        {
          "internalType": "address",
          "name": "_from",
          "type": "address"
        },
        {
          "internalType": "uint256",
          "name": "_value",
          "type": "uint256"
        }
      ],
      "name": "burn",
      "outputs": [],
      "stateMutability": "nonpayable",
      "type": "function"
    },
    {
      "inputs": [],
      "name": "notifyGenerationIncrease",
      "outputs": [],
      "stateMutability": "nonpayable",
      "type": "function"
    }
  ],
  "bytecode": "0x6101206040523480156200001257600080fd5b5060405162002dbc38038062002dbc833981016040819052620000359162000495565b826040518060400160405280600381526020016245636f60e81b8152506040518060400160405280600381526020016245434f60e81b8152508280838381816200008a826200017d60201b620012a71760201c565b60808181525050620000a7816200017d60201b620012a71760201c565b60a05250620000bb92503091505062000196565b6001600160a01b0390811660c052604051635df8122f60e01b81523060048201529082166024820152731820a4b7618bde71dce8cdc73aab6c95905fad2490635df8122f90604401600060405180830381600087803b1580156200011e57600080fd5b505af115801562000133573d6000803e3d6000fd5b50505050506200015f60076200022860201b620012bf17670de0b6b3a76400006200022d60201b60201c565b5050506001600160a01b0390921660e0526101005250620005129050565b600060208251106200018e57600080fd5b50601f015190565b6001600160a01b038116620001b860008051602062002d9c8339815191525490565b6001600160a01b03161415620002155760405162461bcd60e51b815260206004820152601f60248201527f496d706c656d656e746174696f6e20616c7265616479206d61746368696e670060448201526064015b60405180910390fd5b60008051602062002d9c83398151915255565b919050565b60006001600160e01b03821115620002815760405162461bcd60e51b8152602060048201526021602482015260008051602062002d7c8339815191526044820152607960f81b60648201526084016200020c565b63ffffffff431115620002e35760405162461bcd60e51b8152602060048201526024808201527f626c6f636b206e756d6265722063616e6e6f742062652063617374656420736160448201526366656c7960e01b60648201526084016200020c565b835480620003435750506040805180820190915263ffffffff43811682526001600160e01b038084166020808501918252875460018101895560008981529190912094519151909216640100000000029216919091179101558062000476565b60008562000353600184620004d6565b81548110620003665762000366620004fc565b6000918252602080832090910180549093506001600160e01b036401000000009091041691906200039a90839088908a901c565b90506001600160e01b03811115620003ee5760405162461bcd60e51b8152602060048201526021602482015260008051602062002d7c8339815191526044820152607960f81b60648201526084016200020c565b825463ffffffff164314156200042057825463ffffffff166401000000006001600160e01b0383160217835562000470565b6040805180820190915263ffffffff43811682526001600160e01b0380841660208085019182528c54600181018e5560008e81529190912094519151909216640100000000029216919091179101555b93505050505b9392505050565b80516001600160a01b03811681146200022857600080fd5b600080600060608486031215620004ab57600080fd5b620004b6846200047d565b9250620004c6602085016200047d565b9150604084015190509250925092565b600082821015620004f757634e487b7160e01b600052601160045260246000fd5b500390565b634e487b7160e01b600052603260045260246000fd5b60805160a05160c05160e051610100516127f4620005886000396000818161033e01526111890152600081816104b9015261116801526000818161021b0152818161059f0152818161085801528181610c9601528181611740015261214001526000610f7e0152600061055401526127f46000f3fe608060405234801561001057600080fd5b50600436106102115760003560e01c80635c19a95c11610125578063981b24d0116100ad578063bfe109281161007c578063bfe10928146104b4578063c4d66de8146104db578063dd62ed3e146104ee578063e189cba614610527578063fd11b4d31461053a57600080fd5b8063981b24d0146104685780639dc29fac1461047b578063a457c2d71461048e578063a9059cbb146104a157600080fd5b806370a08231116100f457806370a0823114610422578063795d82f5146104355780638ddb428a146104445780638e539e8c1461044d57806395d89b411461046057600080fd5b80635c19a95c146103bf5780635c60da1b146103d25780636e684b9a146103e75780636fcfff45146103fa57600080fd5b8063249cb3fa116101a85780633950935111610177578063395093511461036057806339634e0c146103735780633a46b1a81461038657806340c10f1914610399578063544d8564146103ac57600080fd5b8063249cb3fa1461030f578063313ce5671461032257806335bbc7fe14610331578063378dc3dc1461033957600080fd5b806309ed4607116101e457806309ed4607146102a75780630cdfebfa146102af57806318160ddd146102e657806323b872dd146102fc57600080fd5b80630505c8c91461021657806306fdde031461025a578063095ea7b31461026f57806309d7f23b14610292575b600080fd5b61023d7f000000000000000000000000000000000000000000000000000000000000000081565b6040516001600160a01b0390911681526020015b60405180910390f35b61026261054d565b60405161025191906123ba565b61028261027d366004612424565b61057d565b6040519015158152602001610251565b6102a56102a0366004612466565b610594565b005b61023d610652565b6102c26102bd366004612424565b61073d565b6040805163ffffffff90931683526001600160e01b03909116602083015201610251565b6102ee610784565b604051908152602001610251565b61028261030a366004612533565b6107a8565b6102ee61031d366004612574565b610854565b60405160128152602001610251565b6102a561095f565b6102ee7f000000000000000000000000000000000000000000000000000000000000000081565b61028261036e366004612424565b610c4f565b6102a56103813660046125a4565b610c8b565b6102ee610394366004612424565b610d49565b6102a56103a7366004612424565b610d74565b61023d6103ba3660046125a4565b610d7e565b6102a56103cd3660046125a4565b610dae565b60008051602061279f8339815191525461023d565b6102ee6103f5366004612424565b610dbb565b61040d6104083660046125a4565b610e3b565b60405163ffffffff9091168152602001610251565b6102ee6104303660046125a4565b610ed9565b6102ee670de0b6b3a764000081565b6102ee60085481565b6102ee61045b3660046125c1565b610f0e565b610262610f77565b6102ee6104763660046125c1565b610fa2565b6102a5610489366004612424565b610fc4565b61028261049c366004612424565b611076565b6102826104af366004612424565b61110f565b61023d7f000000000000000000000000000000000000000000000000000000000000000081565b6102a56104e93660046125a4565b61111c565b6102ee6104fc3660046125da565b6001600160a01b03918216600090815260016020908152604080832093909416825291909152205490565b6102ee6105353660046125a4565b6111b1565b6102ee6105483660046125c1565b611238565b60606105787f00000000000000000000000000000000000000000000000000000000000000006112c4565b905090565b600061058a33848461132a565b5060015b92915050565b336001600160a01b037f000000000000000000000000000000000000000000000000000000000000000016146106285760405162461bcd60e51b815260206004820152602e60248201527f4f6e6c792074686520706f6c69637920636f6e7472616374206d61792063616c60448201526d36103a3434b99036b2ba3437b21760911b60648201526084015b60405180910390fd5b600080825160208401855af43d806000803e81801561064657816000f35b816000fd5b5050505050565b60003061066b60008051602061279f8339815191525490565b6001600160a01b0316146106d05760405162461bcd60e51b815260206004820152602660248201527f54686973206d6574686f642063616e6e6f742062652063616c6c6564206f6e20604482015265636c6f6e657360d01b606482015260840161061f565b60006106db306113ec565b60405163189acdbd60e31b81523060048201529091506001600160a01b0382169063c4d66de890602401600060405180830381600087803b15801561071f57600080fd5b505af1158015610733573d6000803e3d6000fd5b5092949350505050565b6004602052816000526040600020818154811061075957600080fd5b60009182526020909120015463ffffffff8116925064010000000090046001600160e01b0316905082565b600080610792600743611455565b9050806002546107a2919061261e565b91505090565b60006107b58484846115a9565b6001600160a01b03841660009081526001602090815260408083203384529091529020548281101561083a5760405162461bcd60e51b815260206004820152602860248201527f45524332303a207472616e7366657220616d6f756e74206578636565647320616044820152676c6c6f77616e636560c01b606482015260840161061f565b610847853385840361132a565b60019150505b9392505050565b60007f00000000000000000000000000000000000000000000000000000000000000006001600160a01b0316826001600160a01b031614806108a357506006546001600160a01b038381169116145b6109155760405162461bcd60e51b815260206004820152603c60248201527f4f6e6c792074686520706f6c696379206f7220696e7465726661636520636f6e60448201527f74726163742063616e207365742074686520696e746572666163652e00000000606482015260840161061f565b6040517f455243313832305f4143434550545f4d41474943000000000000000000000000602082015260340160405160208183030381529060405280519060200120905092915050565b600854600061098d7fae30bfb87dec2bd0c16be9790f95842d84f58dc70b0a8f6ed22e9556176a7b19611729565b6001600160a01b031663172195226040518163ffffffff1660e01b815260040160206040518083038186803b1580156109c557600080fd5b505afa1580156109d9573d6000803e3d6000fd5b505050506040513d601f19601f820116820180604052508101906109fd9190612640565b905081811415610a4f5760405162461bcd60e51b815260206004820152601c60248201527f47656e65726174696f6e20686173206e6f7420696e6372656173656400000000604482015260640161061f565b60088190556000610a7f7fe4ee44a5d338a8b2452cc9552ec014656668eaacb55683101b7e1c2b167e5225611729565b90506001600160a01b03811615610c4a576000816001600160a01b031663dfbf53ae6040518163ffffffff1660e01b815260040160206040518083038186803b158015610acb57600080fd5b505afa158015610adf573d6000803e3d6000fd5b505050506040513d601f19601f82011682018060405250810190610b039190612659565b90506001600160a01b03811615610c4857604051633341b44560e01b81526001600160a01b03828116600483015260009190841690633341b4459060240160c06040518083038186803b158015610b5957600080fd5b505afa158015610b6d573d6000803e3d6000fd5b505050506040513d601f19601f82011682018060405250810190610b919190612686565b6040519096507fb91f92f869a4caa45d223bc27bba633a4d27e87e75c3d48e3a8628ccea0548249550610bcb9450869350915061252a9050565b60405180910390a16000670de0b6b3a76400008260076001600780549050610bf391906126d7565b81548110610c0357610c036126ee565b600091825260209091200154610c2a919064010000000090046001600160e01b0316612704565b610c34919061261e565b9050610c4460076112bf836117de565b5050505b505b505050565b3360008181526001602090815260408083206001600160a01b0387168452909152812054909161058a918590610c86908690612723565b61132a565b336001600160a01b037f00000000000000000000000000000000000000000000000000000000000000001614610d1a5760405162461bcd60e51b815260206004820152602e60248201527f4f6e6c792074686520706f6c69637920636f6e7472616374206d61792063616c60448201526d36103a3434b99036b2ba3437b21760911b606482015260840161061f565b6006805473ffffffffffffffffffffffffffffffffffffffff19166001600160a01b0392909216919091179055565b600080610d5583611238565b905080610d628585610dbb565b610d6c919061261e565b949350505050565b610c4a8282611a3a565b6001600160a01b038082166000908152600360205260408120549091168015610da7578061084d565b5090919050565b610db83382611ae2565b50565b600043821115610e195760405162461bcd60e51b8152602060048201526024808201527f566f7465436865636b706f696e74733a20626c6f636b206e6f7420796574206d6044820152631a5b995960e21b606482015260840161061f565b6001600160a01b038316600090815260046020526040902061084d9083611455565b6001600160a01b03811660009081526004602052604081205463ffffffff1015610ebd5760405162461bcd60e51b815260206004820152602d60248201527f6e756d626572206f6620636865636b706f696e74732063616e6e6f742062652060448201526c63617374656420736166656c7960981b606482015260840161061f565b506001600160a01b031660009081526004602052604090205490565b600080610ee7600743611455565b6001600160a01b03841660009081526020819052604090205490915061084d90829061261e565b600043821115610f6c5760405162461bcd60e51b8152602060048201526024808201527f566f7465436865636b706f696e74733a20626c6f636b206e6f7420796574206d6044820152631a5b995960e21b606482015260840161061f565b61058e600583611455565b60606105787f00000000000000000000000000000000000000000000000000000000000000006112c4565b600080610fae83611238565b905080610fba84610f0e565b61084d919061261e565b336001600160a01b03831614806110145750610fff7fe01e721169f17f30d0c130781195719ceba11f26f44578668ffd8462c7c1ebe9611729565b6001600160a01b0316336001600160a01b0316145b61106c5760405162461bcd60e51b8152602060048201526024808201527f43616c6c6572206e6f7420617574686f72697a656420746f206275726e20746f6044820152636b656e7360e01b606482015260840161061f565b610c4a8282611b65565b3360009081526001602090815260408083206001600160a01b0386168452909152812054828110156110f85760405162461bcd60e51b815260206004820152602560248201527f45524332303a2064656372656173656420616c6c6f77616e63652062656c6f77604482015264207a65726f60d81b606482015260840161061f565b611105338585840361132a565b5060019392505050565b600061058a3384846115a9565b600061113460008051602061279f8339815191525490565b6001600160a01b03161461115a5760405162461bcd60e51b815260040161061f9061273b565b61116381611b81565b6111ad7f00000000000000000000000000000000000000000000000000000000000000007f0000000000000000000000000000000000000000000000000000000000000000611a3a565b5050565b6001600160a01b0381166000908152600460205260408120548015611225576001600160a01b03831660009081526004602052604090206111f36001836126d7565b81548110611203576112036126ee565b60009182526020909120015464010000000090046001600160e01b0316611228565b60005b6001600160e01b03169392505050565b60004382111561129c5760405162461bcd60e51b815260206004820152602960248201527f496e666c6174696f6e436865636b706f696e74733a20626c6f636b206e6f74206044820152681e595d081b5a5b995960ba1b606482015260840161061f565b61058e600783611455565b600060208251106112b757600080fd5b50601f015190565b919050565b606060f882901c602081106112d857600080fd5b8067ffffffffffffffff8111156112f1576112f1612450565b6040519080825280601f01601f19166020018201604052801561131b576020820181803683370190505b50915082601f83015250919050565b6001600160a01b03821661138b5760405162461bcd60e51b815260206004820152602260248201527f45524332303a20617070726f766520746f20746865207a65726f206164647265604482015261737360f01b606482015260840161061f565b6001600160a01b0383811660008181526001602090815260408083209487168084529482529182902085905590518481527f8c5be1e5ebec7d5bd14f71427d1e84f3dd0314c0f7b2291e5b200ac8c7c3b925910160405180910390a3505050565b6000808260601b90506040517f3d602d80600a3d3981f3363d3d373d3d3d363d7300000000000000000000000081528160148201527f5af43d82803e903d91602b57fd5bf3000000000000000000000000000000000060288201526037816000f0949350505050565b81546000908061146957600091505061058e565b6000846114776001846126d7565b81548110611487576114876126ee565b60009182526020918290206040805180820190915291015463ffffffff81168083526401000000009091046001600160e01b031692820192909252915084106114e057602001516001600160e01b0316915061058e9050565b8160005b8181101561154e57600060016114fa83856126d7565b611505911c83612723565b90508688828154811061151a5761151a6126ee565b60009182526020909120015463ffffffff16111561153a57809250611548565b611545816001612723565b91505b506114e4565b811561159257866115606001846126d7565b81548110611570576115706126ee565b60009182526020909120015464010000000090046001600160e01b0316611595565b60005b6001600160e01b0316979650505050505050565b6001600160a01b03821661160b5760405162461bcd60e51b815260206004820152602360248201527f45524332303a207472616e7366657220746f20746865207a65726f206164647260448201526265737360e81b606482015260840161061f565b6000611618848484611bde565b6001600160a01b038516600090815260208190526040902054909150818110156116935760405162461bcd60e51b815260206004820152602660248201527f45524332303a207472616e7366657220616d6f756e7420657863656564732062604482015265616c616e636560d01b606482015260840161061f565b6001600160a01b038086166000908152602081905260408082208585039055918616815290812080548492906116ca908490612723565b92505081905550836001600160a01b0316856001600160a01b03167fddf252ad1be2c89b69c2b068fc378daa952ba7f163c4a11628f55a4df523b3ef8560405161171691815260200190565b60405180910390a361064b858584611c4d565b60405163555ddc6560e11b81526001600160a01b037f000000000000000000000000000000000000000000000000000000000000000016600482015260248101829052600090731820a4b7618bde71dce8cdc73aab6c95905fad249063aabbb8ca9060440160206040518083038186803b1580156117a657600080fd5b505afa1580156117ba573d6000803e3d6000fd5b505050506040513d601f19601f8201168201806040525081019061058e9190612659565b60006001600160e01b038211156118415760405162461bcd60e51b815260206004820152602160248201527f6e65775765696768742063616e6e6f742062652063617374656420736166656c6044820152607960f81b606482015260840161061f565b63ffffffff4311156118a15760405162461bcd60e51b8152602060048201526024808201527f626c6f636b206e756d6265722063616e6e6f742062652063617374656420736160448201526366656c7960e01b606482015260840161061f565b8354806118ff5750506040805180820190915263ffffffff43811682526001600160e01b038084166020808501918252875460018101895560008981529190912094519151909216640100000000029216919091179101558061084d565b60008561190d6001846126d7565b8154811061191d5761191d6126ee565b60009182526020822001805490925064010000000090046001600160e01b03169061194c828763ffffffff8a16565b90506001600160e01b038111156119af5760405162461bcd60e51b815260206004820152602160248201527f6e65775765696768742063616e6e6f742062652063617374656420736166656c6044820152607960f81b606482015260840161061f565b825463ffffffff164314156119df57825463ffffffff166401000000006001600160e01b03831602178355611a2f565b6040805180820190915263ffffffff43811682526001600160e01b0380841660208085019182528c54600181018e5560008e81529190912094519151909216640100000000029216919091179101555b979650505050505050565b6000611a468383611d9b565b91506001600160e01b03611a58610784565b1115611acc5760405162461bcd60e51b815260206004820152603560248201527f566f7465436865636b706f696e74733a20746f74616c20737570706c7920726960448201527f736b73206f766572666c6f77696e6720766f7465730000000000000000000000606482015260840161061f565b611ada6005611e94846117de565b509092915050565b6000611aed83610d7e565b6001600160a01b03848116600081815260208181526040808320546003909252808320805473ffffffffffffffffffffffffffffffffffffffff1916958916958617905551949550937f203990235367b1c7cb4ad749a6c1bcf1b793c8824cdb000bfcf53817afb8a7ac9190a3610c48828483611ea0565b6000611b718383611fc1565b9150611ada60056120d0846117de565b6000611b9960008051602061279f8339815191525490565b6001600160a01b031614611bbf5760405162461bcd60e51b815260040161061f9061273b565b611bc8816120dc565b6111ad60076112bf670de0b6b3a76400006117de565b600080611bec600743611455565b611bf69084612704565b9050836001600160a01b0316856001600160a01b03167fd62d118ec9618b21ba50e6814f78a20bf1e5b6fa0206ffe661a0ca53ce22874f83604051611c3d91815260200190565b60405180910390a3949350505050565b6000611c787fe01e721169f17f30d0c130781195719ceba11f26f44578668ffd8462c7c1ebe9611729565b90506001600160a01b03811615801590611d855750604051633fbe9f4760e21b81526001600160a01b03858116600483015282169063fefa7d1c9060240160206040518083038186803b158015611cce57600080fd5b505afa158015611ce2573d6000803e3d6000fd5b505050506040513d601f19601f82011682018060405250810190611d069190612783565b80611d855750604051633fbe9f4760e21b81526001600160a01b03848116600483015282169063fefa7d1c9060240160206040518083038186803b158015611d4d57600080fd5b505afa158015611d61573d6000803e3d6000fd5b505050506040513d601f19601f82011682018060405250810190611d859190612783565b15611d905750505050565b610c488484846121b2565b60006001600160a01b038316611df35760405162461bcd60e51b815260206004820152601f60248201527f45524332303a206d696e7420746f20746865207a65726f206164647265737300604482015260640161061f565b6000611e0160008585611bde565b90508060026000828254611e159190612723565b90915550506001600160a01b03841660009081526020819052604081208054839290611e42908490612723565b90915550506040518381526001600160a01b038516906000907fddf252ad1be2c89b69c2b068fc378daa952ba7f163c4a11628f55a4df523b3ef9060200160405180910390a361084d60008583611c4d565b600061084d8284612723565b816001600160a01b0316836001600160a01b031614158015611ec25750600081115b15610c4a576001600160a01b03831615611f42576001600160a01b0383166000908152600460205260408120611efb906120d0846117de565b9050836001600160a01b03167f9e51f7a75849faf72867a9564c5b53a48e2f09829ff4133d76292dd8e3445f3182604051611f3891815260200190565b60405180910390a2505b6001600160a01b03821615610c4a576001600160a01b0382166000908152600460205260408120611f7690611e94846117de565b9050826001600160a01b03167f9e51f7a75849faf72867a9564c5b53a48e2f09829ff4133d76292dd8e3445f3182604051611fb391815260200190565b60405180910390a250505050565b600080611fd084600085611bde565b6001600160a01b038516600090815260208190526040902054909150818110156120475760405162461bcd60e51b815260206004820152602260248201527f45524332303a206275726e20616d6f756e7420657863656564732062616c616e604482015261636560f01b606482015260840161061f565b6001600160a01b03851660009081526020819052604081208383039055600280548492906120769084906126d7565b90915550506040518481526000906001600160a01b038716907fddf252ad1be2c89b69c2b068fc378daa952ba7f163c4a11628f55a4df523b3ef9060200160405180910390a36120c885600084611c4d565b509392505050565b600061084d82846126d7565b60006120f460008051602061279f8339815191525490565b6001600160a01b03161461211a5760405162461bcd60e51b815260040161061f9061273b565b612123816121cd565b604051635df8122f60e01b81523060048201526001600160a01b037f0000000000000000000000000000000000000000000000000000000000000000166024820152731820a4b7618bde71dce8cdc73aab6c95905fad2490635df8122f90604401600060405180830381600087803b15801561219e57600080fd5b505af115801561064b573d6000803e3d6000fd5b610c4a6121be84610d7e565b6121c784610d7e565b83611ea0565b60006121e560008051602061279f8339815191525490565b6001600160a01b03161461220b5760405162461bcd60e51b815260040161061f9061273b565b610db881600061222760008051602061279f8339815191525490565b6001600160a01b03161461224d5760405162461bcd60e51b815260040161061f9061273b565b6000816001600160a01b0316635c60da1b6040518163ffffffff1660e01b815260040160206040518083038186803b15801561228857600080fd5b505afa15801561229c573d6000803e3d6000fd5b505050506040513d601f19601f820116820180604052508101906122c09190612659565b90506001600160a01b03811661232d5760405162461bcd60e51b815260206004820152602c60248201527f696e697469616c697a6174696f6e206661696c7572653a206e6f7468696e672060448201526b1d1bc81a5b5c1b195b595b9d60a21b606482015260840161061f565b6111ad81806001600160a01b031661235160008051602061279f8339815191525490565b6001600160a01b031614156123a85760405162461bcd60e51b815260206004820152601f60248201527f496d706c656d656e746174696f6e20616c7265616479206d61746368696e6700604482015260640161061f565b60008051602061279f83398151915255565b600060208083528351808285015260005b818110156123e7578581018301518582016040015282016123cb565b818111156123f9576000604083870101525b50601f01601f1916929092016040019392505050565b6001600160a01b0381168114610db857600080fd5b6000806040838503121561243757600080fd5b82356124428161240f565b946020939093013593505050565b634e487b7160e01b600052604160045260246000fd5b6000806040838503121561247957600080fd5b82356124848161240f565b9150602083013567ffffffffffffffff808211156124a157600080fd5b818501915085601f8301126124b557600080fd5b8135818111156124c7576124c7612450565b604051601f8201601f19908116603f011681019083821181831017156124ef576124ef612450565b8160405282815288602084870101111561250857600080fd5b8260208601602083013760006020848301015280955050505050509250929050565b90815260200190565b60008060006060848603121561254857600080fd5b83356125538161240f565b925060208401356125638161240f565b929592945050506040919091013590565b6000806040838503121561258757600080fd5b8235915060208301356125998161240f565b809150509250929050565b6000602082840312156125b657600080fd5b813561084d8161240f565b6000602082840312156125d357600080fd5b5035919050565b600080604083850312156125ed57600080fd5b82356125f88161240f565b915060208301356125998161240f565b634e487b7160e01b600052601160045260246000fd5b60008261263b57634e487b7160e01b600052601260045260246000fd5b500490565b60006020828403121561265257600080fd5b5051919050565b60006020828403121561266b57600080fd5b815161084d8161240f565b805180151581146112bf57600080fd5b60008060008060008060c0878903121561269f57600080fd5b6126a887612676565b95506020870151945060408701519350606087015192506080870151915060a087015190509295509295509295565b6000828210156126e9576126e9612608565b500390565b634e487b7160e01b600052603260045260246000fd5b600081600019048311821515161561271e5761271e612608565b500290565b6000821982111561273657612736612608565b500190565b60208082526028908201527f43616e206f6e6c792062652063616c6c656420647572696e6720696e697469616040820152673634bd30ba34b7b760c11b606082015260800190565b60006020828403121561279557600080fd5b61084d8261267656fef86c915dad5894faca0dfa067c58fdf4307406d255ed0a65db394f82b77f53d4a26469706673582212202c02f7a87495754701d3633fde8b5e797e1658744fcf593144b329671dc9d16564736f6c634300080900336e65775765696768742063616e6e6f742062652063617374656420736166656cf86c915dad5894faca0dfa067c58fdf4307406d255ed0a65db394f82b77f53d4",
  "immutableReferences": {
    "2227": [
      {
        "length": 32,
        "start": 1209
      },
      {
        "length": 32,
        "start": 4456
      }
    ],
    "2229": [
      {
        "length": 32,
        "start": 830
      },
      {
        "length": 32,
        "start": 4489
      }
    ],
    "3222": [
      {
        "length": 32,
        "start": 1364
      }
    ],
    "3224": [
      {
        "length": 32,
        "start": 3966
      }
    ],
    "11314": [
      {
        "length": 32,
        "start": 539
      },
      {
        "length": 32,
        "start": 1439
      },
      {
        "length": 32,
        "start": 2136
      },
      {
        "length": 32,
        "start": 3222
      },
      {
        "length": 32,
        "start": 5952
      },
      {
        "length": 32,
        "start": 8512
      }
    ]
  },
  "source": "/* -*- c-basic-offset: 4 -*- */\n// SPDX-License-Identifier: MIT\npragma solidity ^0.8.0;\n\nimport \"./InflationCheckpoints.sol\";\nimport \"../policy/PolicedUtils.sol\";\nimport \"../utils/TimeUtils.sol\";\nimport \"../currency/InflationRootHashProposal.sol\";\nimport \"../governance/CurrencyTimer.sol\";\n\n/** @title An ERC20 token interface to the Eco currency system.\n */\ncontract ECO is InflationCheckpoints, TimeUtils {\n    /** Fired when a proposal with a new inflation multiplier is selected and passed.\n     * Used to calculate new values for the rebased token.\n     */\n    event NewInflationMultiplier(uint256 inflationMultiplier);\n\n    /* Current generation of the balance store. */\n    // need to set a default here\n    uint256 public currentGeneration;\n\n    // the address of the contract for initial distribution\n    address public immutable distributor;\n\n    uint256 public immutable initialSupply;\n\n    constructor(\n        address _policy,\n        address _distributor,\n        uint256 _initialSupply\n    ) InflationCheckpoints(_policy, \"Eco\", \"ECO\") {\n        distributor = _distributor;\n        initialSupply = _initialSupply;\n    }\n\n    function initialize(address _self)\n        public\n        virtual\n        override\n        onlyConstruction\n    {\n        super.initialize(_self);\n        _mint(distributor, initialSupply);\n    }\n\n    function mint(address _to, uint256 _value) external {\n        /*\n        require(\n            msg.sender == policyFor(ID_CURRENCY_TIMER) ||\n                msg.sender == policyFor(ID_ECOX) ||\n                msg.sender == policyFor(ID_ECO_LABS) ||\n                msg.sender == policyFor(ID_FAUCET),\n            \"Caller not authorized to mint tokens\"\n        );\n        */\n\n        _mint(_to, _value);\n    }\n\n    function burn(address _from, uint256 _value) external {\n        require(\n            msg.sender == _from || msg.sender == policyFor(ID_CURRENCY_TIMER),\n            \"Caller not authorized to burn tokens\"\n        );\n\n        _burn(_from, _value);\n    }\n\n    function _afterTokenTransfer(\n        address from,\n        address to,\n        uint256 amount\n    ) internal virtual override {\n        // If to or from is a lockup early return so voting power and delegation remain\n        CurrencyTimer _currencyTimer = CurrencyTimer(\n            policyFor(ID_CURRENCY_TIMER)\n        );\n        if (\n            address(_currencyTimer) != address(0) &&\n            (_currencyTimer.isLockup(from) || _currencyTimer.isLockup(to))\n        ) return;\n\n        super._afterTokenTransfer(from, to, amount);\n    }\n\n    function notifyGenerationIncrease() public virtual override {\n        uint256 _old = currentGeneration;\n        uint256 _new = IGeneration(policyFor(ID_TIMED_POLICIES)).generation();\n        require(_new != _old, \"Generation has not increased\");\n\n        // update currentGeneration\n        currentGeneration = _new;\n\n        CurrencyGovernance bg = CurrencyGovernance(\n            policyFor(ID_CURRENCY_GOVERNANCE)\n        );\n\n        if (address(bg) != address(0)) {\n            address winner = bg.winner();\n            if (winner != address(0)) {\n                uint256 _inflationMultiplier;\n                (, , , , , _inflationMultiplier) = bg.proposals(winner);\n                emit NewInflationMultiplier(_inflationMultiplier);\n\n                // updates the inflation value\n                uint256 _newInflationMultiplier = (_linearInflationCheckpoints[\n                    _linearInflationCheckpoints.length - 1\n                ].value * _inflationMultiplier) / INITIAL_INFLATION_MULTIPLIER;\n                _writeCheckpoint(\n                    _linearInflationCheckpoints,\n                    _replace,\n                    _newInflationMultiplier\n                );\n            }\n        }\n    }\n}\n",
  "sourcePath": "/Users/dirksmac/dev/eco/currency/contracts/currency/ECO.sol",
  "compiler": {
    "name": "solc",
    "version": "0.8.9+commit.e5eed63a.Emscripten.clang"
  },
  "schemaVersion": "3.4.3",
  "updatedAt": "2022-06-27T16:52:12.072Z",
  "devdoc": {
    "kind": "dev",
    "methods": {
      "allowance(address,address)": {
        "details": "See {IERC20-allowance}."
      },
      "approve(address,uint256)": {
        "details": "See {IERC20-approve}. Requirements: - `spender` cannot be the zero address."
      },
      "canImplementInterfaceForAddress(bytes32,address)": {
        "params": {
          "_addr": "The address of the contract we might act on behalf of."
        }
      },
      "decimals()": {
        "details": "Returns the number of decimals used to get its user representation. For example, if `decimals` equals `2`, a balance of `505` tokens should be displayed to a user as `5.05` (`505 / 10 ** 2`). Tokens usually opt for a value of 18, imitating the relationship between Ether and Wei. This is the value {ERC20} uses, unless this function is overridden; NOTE: This information is only used for _display_ purposes: it in no way affects any of the arithmetic of the contract, including {IERC20-balanceOf} and {IERC20-transfer}."
      },
      "decreaseAllowance(address,uint256)": {
        "details": "Atomically decreases the allowance granted to `spender` by the caller. This is an alternative to {approve} that can be used as a mitigation for problems described in {IERC20-approve}. Emits an {Approval} event indicating the updated allowance. Requirements: - `spender` cannot be the zero address. - `spender` must have allowance for the caller of at least `subtractedValue`."
      },
      "delegate(address)": {
        "details": "Delegate votes from the sender to `delegatee`."
      },
      "getDelegate(address)": {
        "details": "Get the address `account` is currently delegating to. Defaults to the account address itself if none specified"
      },
      "getPastTotalSupply(uint256)": {
        "details": "Retrieve the `totalSupply` at the end of `blockNumber`. Note, this value is the sum of all balances. It is NOT the sum of all the delegated votes! Requirements: - `blockNumber` must have been already mined"
      },
      "getPastVotes(address,uint256)": {
        "params": {
          "_blockNumber": "The block number to check the balance at the start                        of. Must be less than or equal to the present                        block number.",
          "_owner": "The account to check the balance of."
        }
      },
      "getPastVotingGons(address,uint256)": {
        "details": "Retrieve the number of votes in gons for `account` at the end of `blockNumber`. Requirements: - `blockNumber` must have been already mined"
      },
      "getVotingGons(address)": {
        "details": "Gets the current votes balance in gons for `account`"
      },
      "increaseAllowance(address,uint256)": {
        "details": "Atomically increases the allowance granted to `spender` by the caller. This is an alternative to {approve} that can be used as a mitigation for problems described in {IERC20-approve}. Emits an {Approval} event indicating the updated allowance. Requirements: - `spender` cannot be the zero address."
      },
      "initialize(address)": {
        "params": {
          "_self": "The address of the original contract deployment (as opposed              to the address of the proxy contract, which takes the place              of `this`)."
        }
      },
      "name()": {
        "details": "Returns the name of the token."
      },
      "numCheckpoints(address)": {
        "details": "Get number of checkpoints for `account`."
      },
      "policyCommand(address,bytes)": {
        "params": {
          "_data": "The call message/data to execute on.",
          "_delegate": "The address of the contract to delegate execution to."
        }
      },
      "symbol()": {
        "details": "Returns the symbol of the token, usually a shorter version of the name."
      },
      "transfer(address,uint256)": {
        "details": "See {IERC20-transfer}. Requirements: - `recipient` cannot be the zero address. - the caller must have a balance of at least `amount`."
      },
      "transferFrom(address,address,uint256)": {
        "details": "See {IERC20-transferFrom}. Emits an {Approval} event indicating the updated allowance. This is not required by the EIP. See the note at the beginning of {ERC20}. Requirements: - `sender` and `recipient` cannot be the zero address. - `sender` must have a balance of at least `amount`. - the caller must have allowance for ``sender``'s tokens of at least `amount`."
      }
    },
    "title": "An ERC20 token interface to the Eco currency system.",
    "version": 1
  },
  "userdoc": {
    "events": {
      "NewInflationMultiplier(uint256)": {
        "notice": "Fired when a proposal with a new inflation multiplier is selected and passed. Used to calculate new values for the rebased token."
      }
    },
    "kind": "user",
    "methods": {
      "balanceOf(address)": {
        "notice": "Access function to determine the token balance held by some address."
      },
      "canImplementInterfaceForAddress(bytes32,address)": {
        "notice": "ERC1820 permissioning interface"
      },
      "clone()": {
        "notice": "Create a clone of this contract Creates a clone of this contract by instantiating a proxy at a new address and initializing it based on the current contract. Uses optionality.io's CloneFactory functionality. This is used to save gas cost during deployments. Rather than including the full contract code in every contract that might instantiate it we can deploy it once and reference the location it was deployed to. Then calls to clone() can be used to create instances as needed without increasing the code size of the instantiating contract."
      },
      "getPastVotes(address,uint256)": {
        "notice": "Return historical voting balance (includes delegation) at given block number. If the latest block number for the account is before the requested block then the most recent known balance is returned. Otherwise the exact block number requested is returned."
      },
      "implementation()": {
        "notice": "Get the address of the proxy target contract."
      },
      "initialize(address)": {
        "notice": "Initialize the contract (replaces constructor) See documentation for Policed for an explanation."
      },
      "policy()": {
        "notice": "The address of the root policy instance overseeing this instance. This address can be used for ERC1820 lookup of other components, ERC1820 lookup of role policies, and interaction with the policy hierarchy."
      },
      "policyCommand(address,bytes)": {
        "notice": "Execute code as indicated by the managing policy contract We allow the managing policy contract to execute arbitrary code in our context by allowing it to specify an implementation address and some message data, and then using delegatecall to execute the code at the implementation address, passing in the message data, all within our own address space."
      },
      "setExpectedInterfaceSet(address)": {
        "notice": "Set the expected interface set"
      },
      "totalSupply()": {
        "notice": "Returns the total (inflation corrected) token supply"
      },
      "totalSupplyAt(uint256)": {
        "notice": "Returns the total (inflation corrected) token supply at a specified block number"
      }
    },
    "version": 1
  }
}