{
  "_format": "hh-sol-artifact-1",
  "contractName": "ECO",
  "sourceName": "contracts/currency/ECO.sol",
  "abi": [
    {
      "inputs": [
        {
          "internalType": "contract Policy",
          "name": "_policy",
          "type": "address"
        },
        {
          "internalType": "address",
          "name": "_distributor",
          "type": "address"
        },
        {
          "internalType": "uint256",
          "name": "_initialSupply",
          "type": "uint256"
        }
      ],
      "stateMutability": "nonpayable",
      "type": "constructor"
    },
    {
      "anonymous": false,
      "inputs": [
        {
          "indexed": true,
          "internalType": "address",
          "name": "owner",
          "type": "address"
        },
        {
          "indexed": true,
          "internalType": "address",
          "name": "spender",
          "type": "address"
        },
        {
          "indexed": false,
          "internalType": "uint256",
          "name": "value",
          "type": "uint256"
        }
      ],
      "name": "Approval",
      "type": "event"
    },
    {
      "anonymous": false,
      "inputs": [
        {
          "indexed": true,
          "internalType": "address",
          "name": "from",
          "type": "address"
        },
        {
          "indexed": true,
          "internalType": "address",
          "name": "to",
          "type": "address"
        },
        {
          "indexed": false,
          "internalType": "uint256",
          "name": "value",
          "type": "uint256"
        }
      ],
      "name": "BaseValueTransfer",
      "type": "event"
    },
    {
      "anonymous": false,
      "inputs": [
        {
          "indexed": true,
          "internalType": "address",
          "name": "delegator",
          "type": "address"
        },
        {
          "indexed": true,
          "internalType": "address",
          "name": "delegatee",
          "type": "address"
        },
        {
          "indexed": false,
          "internalType": "uint256",
          "name": "amount",
          "type": "uint256"
        }
      ],
      "name": "DelegatedVotes",
      "type": "event"
    },
    {
      "anonymous": false,
      "inputs": [
        {
          "indexed": false,
          "internalType": "uint256",
          "name": "inflationMultiplier",
          "type": "uint256"
        }
      ],
      "name": "NewInflationMultiplier",
      "type": "event"
    },
    {
      "anonymous": false,
      "inputs": [
        {
          "indexed": true,
          "internalType": "address",
          "name": "delegator",
          "type": "address"
        },
        {
          "indexed": true,
          "internalType": "address",
          "name": "primaryDelegate",
          "type": "address"
        }
      ],
      "name": "NewPrimaryDelegate",
      "type": "event"
    },
    {
      "anonymous": false,
      "inputs": [
        {
          "indexed": true,
          "internalType": "address",
          "name": "from",
          "type": "address"
        },
        {
          "indexed": true,
          "internalType": "address",
          "name": "to",
          "type": "address"
        },
        {
          "indexed": false,
          "internalType": "uint256",
          "name": "value",
          "type": "uint256"
        }
      ],
      "name": "Transfer",
      "type": "event"
    },
    {
      "anonymous": false,
      "inputs": [
        {
          "indexed": true,
          "internalType": "address",
          "name": "voter",
          "type": "address"
        },
        {
          "indexed": false,
          "internalType": "uint256",
          "name": "newVotes",
          "type": "uint256"
        }
      ],
      "name": "UpdatedVotes",
      "type": "event"
    },
    {
      "inputs": [],
      "name": "INITIAL_INFLATION_MULTIPLIER",
      "outputs": [
        {
          "internalType": "uint256",
          "name": "",
          "type": "uint256"
        }
      ],
      "stateMutability": "view",
      "type": "function"
    },
    {
      "inputs": [
        {
          "internalType": "address",
          "name": "owner",
          "type": "address"
        },
        {
          "internalType": "address",
          "name": "spender",
          "type": "address"
        }
      ],
      "name": "allowance",
      "outputs": [
        {
          "internalType": "uint256",
          "name": "",
          "type": "uint256"
        }
      ],
      "stateMutability": "view",
      "type": "function"
    },
    {
      "inputs": [
        {
          "internalType": "address",
          "name": "spender",
          "type": "address"
        },
        {
          "internalType": "uint256",
          "name": "amount",
          "type": "uint256"
        }
      ],
      "name": "approve",
      "outputs": [
        {
          "internalType": "bool",
          "name": "",
          "type": "bool"
        }
      ],
      "stateMutability": "nonpayable",
      "type": "function"
    },
    {
      "inputs": [
        {
          "internalType": "address",
          "name": "_owner",
          "type": "address"
        }
      ],
      "name": "balanceOf",
      "outputs": [
        {
          "internalType": "uint256",
          "name": "",
          "type": "uint256"
        }
      ],
      "stateMutability": "view",
      "type": "function"
    },
    {
      "inputs": [
        {
          "internalType": "address",
          "name": "_from",
          "type": "address"
        },
        {
          "internalType": "uint256",
          "name": "_value",
          "type": "uint256"
        }
      ],
      "name": "burn",
      "outputs": [],
      "stateMutability": "nonpayable",
      "type": "function"
    },
    {
      "inputs": [
        {
          "internalType": "bytes32",
          "name": "",
          "type": "bytes32"
        },
        {
          "internalType": "address",
          "name": "_addr",
          "type": "address"
        }
      ],
      "name": "canImplementInterfaceForAddress",
      "outputs": [
        {
          "internalType": "bytes32",
          "name": "",
          "type": "bytes32"
        }
      ],
      "stateMutability": "view",
      "type": "function"
    },
    {
      "inputs": [
        {
          "internalType": "address",
          "name": "",
          "type": "address"
        },
        {
          "internalType": "uint256",
          "name": "",
          "type": "uint256"
        }
      ],
      "name": "checkpoints",
      "outputs": [
        {
          "internalType": "uint32",
          "name": "fromBlock",
          "type": "uint32"
        },
        {
          "internalType": "uint224",
          "name": "value",
          "type": "uint224"
        }
      ],
      "stateMutability": "view",
      "type": "function"
    },
    {
      "inputs": [],
      "name": "clone",
      "outputs": [
        {
          "internalType": "address",
          "name": "",
          "type": "address"
        }
      ],
      "stateMutability": "nonpayable",
      "type": "function"
    },
    {
      "inputs": [],
      "name": "currentGeneration",
      "outputs": [
        {
          "internalType": "uint256",
          "name": "",
          "type": "uint256"
        }
      ],
      "stateMutability": "view",
      "type": "function"
    },
    {
      "inputs": [],
      "name": "decimals",
      "outputs": [
        {
          "internalType": "uint8",
          "name": "",
          "type": "uint8"
        }
      ],
      "stateMutability": "view",
      "type": "function"
    },
    {
      "inputs": [
        {
          "internalType": "address",
          "name": "spender",
          "type": "address"
        },
        {
          "internalType": "uint256",
          "name": "subtractedValue",
          "type": "uint256"
        }
      ],
      "name": "decreaseAllowance",
      "outputs": [
        {
          "internalType": "bool",
          "name": "",
          "type": "bool"
        }
      ],
      "stateMutability": "nonpayable",
      "type": "function"
    },
    {
      "inputs": [
        {
          "internalType": "address",
          "name": "delegatee",
          "type": "address"
        }
      ],
      "name": "delegate",
      "outputs": [],
      "stateMutability": "nonpayable",
      "type": "function"
    },
    {
      "inputs": [
        {
          "internalType": "address",
          "name": "delegatee",
          "type": "address"
        },
        {
          "internalType": "uint256",
          "name": "amount",
          "type": "uint256"
        }
      ],
      "name": "delegateAmount",
      "outputs": [],
      "stateMutability": "nonpayable",
      "type": "function"
    },
    {
      "inputs": [
        {
          "internalType": "address",
          "name": "",
          "type": "address"
        }
      ],
      "name": "delegationEnabled",
      "outputs": [
        {
          "internalType": "bool",
          "name": "",
          "type": "bool"
        }
      ],
      "stateMutability": "view",
      "type": "function"
    },
    {
      "inputs": [],
      "name": "disableDelegation",
      "outputs": [],
      "stateMutability": "nonpayable",
      "type": "function"
    },
    {
      "inputs": [],
      "name": "distributor",
      "outputs": [
        {
          "internalType": "address",
          "name": "",
          "type": "address"
        }
      ],
      "stateMutability": "view",
      "type": "function"
    },
    {
      "inputs": [],
      "name": "enableDelegation",
      "outputs": [],
      "stateMutability": "nonpayable",
      "type": "function"
    },
    {
      "inputs": [
        {
          "internalType": "uint256",
          "name": "blockNumber",
          "type": "uint256"
        }
      ],
      "name": "getPastLinearInflation",
      "outputs": [
        {
          "internalType": "uint256",
          "name": "",
          "type": "uint256"
        }
      ],
      "stateMutability": "view",
      "type": "function"
    },
    {
      "inputs": [
        {
          "internalType": "uint256",
          "name": "blockNumber",
          "type": "uint256"
        }
      ],
      "name": "getPastTotalSupply",
      "outputs": [
        {
          "internalType": "uint256",
          "name": "",
          "type": "uint256"
        }
      ],
      "stateMutability": "view",
      "type": "function"
    },
    {
      "inputs": [
        {
          "internalType": "address",
          "name": "_owner",
          "type": "address"
        },
        {
          "internalType": "uint256",
          "name": "_blockNumber",
          "type": "uint256"
        }
      ],
      "name": "getPastVotes",
      "outputs": [
        {
          "internalType": "uint256",
          "name": "",
          "type": "uint256"
        }
      ],
      "stateMutability": "view",
      "type": "function"
    },
    {
      "inputs": [
        {
          "internalType": "address",
          "name": "account",
          "type": "address"
        },
        {
          "internalType": "uint256",
          "name": "blockNumber",
          "type": "uint256"
        }
      ],
      "name": "getPastVotingGons",
      "outputs": [
        {
          "internalType": "uint256",
          "name": "",
          "type": "uint256"
        }
      ],
      "stateMutability": "view",
      "type": "function"
    },
    {
      "inputs": [
        {
          "internalType": "address",
          "name": "account",
          "type": "address"
        }
      ],
      "name": "getPrimaryDelegate",
      "outputs": [
        {
          "internalType": "address",
          "name": "",
          "type": "address"
        }
      ],
      "stateMutability": "view",
      "type": "function"
    },
    {
      "inputs": [
        {
          "internalType": "address",
          "name": "account",
          "type": "address"
        }
      ],
      "name": "getVotingGons",
      "outputs": [
        {
          "internalType": "uint256",
          "name": "",
          "type": "uint256"
        }
      ],
      "stateMutability": "view",
      "type": "function"
    },
    {
      "inputs": [],
      "name": "implementation",
      "outputs": [
        {
          "internalType": "address",
          "name": "_impl",
          "type": "address"
        }
      ],
      "stateMutability": "view",
      "type": "function"
    },
    {
      "inputs": [
        {
          "internalType": "address",
          "name": "spender",
          "type": "address"
        },
        {
          "internalType": "uint256",
          "name": "addedValue",
          "type": "uint256"
        }
      ],
      "name": "increaseAllowance",
      "outputs": [
        {
          "internalType": "bool",
          "name": "",
          "type": "bool"
        }
      ],
      "stateMutability": "nonpayable",
      "type": "function"
    },
    {
      "inputs": [],
      "name": "initialSupply",
      "outputs": [
        {
          "internalType": "uint256",
          "name": "",
          "type": "uint256"
        }
      ],
      "stateMutability": "view",
      "type": "function"
    },
    {
      "inputs": [
        {
          "internalType": "address",
          "name": "_self",
          "type": "address"
        }
      ],
      "name": "initialize",
      "outputs": [],
      "stateMutability": "nonpayable",
      "type": "function"
    },
    {
      "inputs": [
        {
          "internalType": "address",
          "name": "account",
          "type": "address"
        }
      ],
      "name": "isOwnDelegate",
      "outputs": [
        {
          "internalType": "bool",
          "name": "",
          "type": "bool"
        }
      ],
      "stateMutability": "view",
      "type": "function"
    },
    {
      "inputs": [
        {
          "internalType": "address",
          "name": "_to",
          "type": "address"
        },
        {
          "internalType": "uint256",
          "name": "_value",
          "type": "uint256"
        }
      ],
      "name": "mint",
      "outputs": [],
      "stateMutability": "nonpayable",
      "type": "function"
    },
    {
      "inputs": [],
      "name": "name",
      "outputs": [
        {
          "internalType": "string",
          "name": "",
          "type": "string"
        }
      ],
      "stateMutability": "view",
      "type": "function"
    },
    {
      "inputs": [],
      "name": "notifyGenerationIncrease",
      "outputs": [],
      "stateMutability": "nonpayable",
      "type": "function"
    },
    {
      "inputs": [
        {
          "internalType": "address",
          "name": "account",
          "type": "address"
        }
      ],
      "name": "numCheckpoints",
      "outputs": [
        {
          "internalType": "uint32",
          "name": "",
          "type": "uint32"
        }
      ],
      "stateMutability": "view",
      "type": "function"
    },
    {
      "inputs": [],
      "name": "policy",
      "outputs": [
        {
          "internalType": "contract Policy",
          "name": "",
          "type": "address"
        }
      ],
      "stateMutability": "view",
      "type": "function"
    },
    {
      "inputs": [
        {
          "internalType": "address",
          "name": "_delegate",
          "type": "address"
        },
        {
          "internalType": "bytes",
          "name": "_data",
          "type": "bytes"
        }
      ],
      "name": "policyCommand",
      "outputs": [],
      "stateMutability": "nonpayable",
      "type": "function"
    },
    {
      "inputs": [
        {
          "internalType": "address",
          "name": "_addr",
          "type": "address"
        }
      ],
      "name": "setExpectedInterfaceSet",
      "outputs": [],
      "stateMutability": "nonpayable",
      "type": "function"
    },
    {
      "inputs": [],
      "name": "symbol",
      "outputs": [
        {
          "internalType": "string",
          "name": "",
          "type": "string"
        }
      ],
      "stateMutability": "view",
      "type": "function"
    },
    {
      "inputs": [],
      "name": "totalSupply",
      "outputs": [
        {
          "internalType": "uint256",
          "name": "",
          "type": "uint256"
        }
      ],
      "stateMutability": "view",
      "type": "function"
    },
    {
      "inputs": [
        {
          "internalType": "uint256",
          "name": "_blockNumber",
          "type": "uint256"
        }
      ],
      "name": "totalSupplyAt",
      "outputs": [
        {
          "internalType": "uint256",
          "name": "",
          "type": "uint256"
        }
      ],
      "stateMutability": "view",
      "type": "function"
    },
    {
      "inputs": [
        {
          "internalType": "address",
          "name": "recipient",
          "type": "address"
        },
        {
          "internalType": "uint256",
          "name": "amount",
          "type": "uint256"
        }
      ],
      "name": "transfer",
      "outputs": [
        {
          "internalType": "bool",
          "name": "",
          "type": "bool"
        }
      ],
      "stateMutability": "nonpayable",
      "type": "function"
    },
    {
      "inputs": [
        {
          "internalType": "address",
          "name": "sender",
          "type": "address"
        },
        {
          "internalType": "address",
          "name": "recipient",
          "type": "address"
        },
        {
          "internalType": "uint256",
          "name": "amount",
          "type": "uint256"
        }
      ],
      "name": "transferFrom",
      "outputs": [
        {
          "internalType": "bool",
          "name": "",
          "type": "bool"
        }
      ],
      "stateMutability": "nonpayable",
      "type": "function"
    },
    {
      "inputs": [],
      "name": "undelegate",
      "outputs": [],
      "stateMutability": "nonpayable",
      "type": "function"
    },
    {
      "inputs": [
        {
          "internalType": "address",
          "name": "delegatee",
          "type": "address"
        }
      ],
      "name": "undelegateFromAddress",
      "outputs": [],
      "stateMutability": "nonpayable",
      "type": "function"
    }
  ],
  "bytecode": "0x6101206040523480156200001257600080fd5b506040516200481b3803806200481b833981016040819052620000359162000498565b826040518060400160405280600481526020016348656c6960e01b8152506040518060400160405280600481526020016348454c4960e01b8152508280838381816200008c826200017f60201b62001fb21760201c565b60808181525050620000a9816200017f60201b62001fb21760201c565b60a05250620000bd92503091505062000198565b6001600160a01b0390811660c052604051635df8122f60e01b81523060048201529082166024820152731820a4b7618bde71dce8cdc73aab6c95905fad2490635df8122f90604401600060405180830381600087803b1580156200012057600080fd5b505af115801562000135573d6000803e3d6000fd5b505050505062000161600a6200022a60201b62001fca17670de0b6b3a76400006200022f60201b60201c565b5050506001600160a01b0390921660e05261010052506200051c9050565b600060208251106200019057600080fd5b50601f015190565b6001600160a01b038116620001ba600080516020620047fb8339815191525490565b6001600160a01b03161415620002175760405162461bcd60e51b815260206004820152601f60248201527f496d706c656d656e746174696f6e20616c7265616479206d61746368696e670060448201526064015b60405180910390fd5b600080516020620047fb83398151915255565b919050565b60006001600160e01b03821115620002835760405162461bcd60e51b81526020600482015260216024820152600080516020620047db8339815191526044820152607960f81b60648201526084016200020e565b63ffffffff431115620002e55760405162461bcd60e51b8152602060048201526024808201527f626c6f636b206e756d6265722063616e6e6f742062652063617374656420736160448201526366656c7960e01b60648201526084016200020e565b835480620003455750506040805180820190915263ffffffff43811682526001600160e01b038084166020808501918252875460018101895560008981529190912094519151909216640100000000029216919091179101558062000478565b60008562000355600184620004e0565b8154811062000368576200036862000506565b6000918252602080832090910180549093506001600160e01b036401000000009091041691906200039c90839088908a901c565b90506001600160e01b03811115620003f05760405162461bcd60e51b81526020600482015260216024820152600080516020620047db8339815191526044820152607960f81b60648201526084016200020e565b825463ffffffff164314156200042257825463ffffffff166401000000006001600160e01b0383160217835562000472565b6040805180820190915263ffffffff43811682526001600160e01b0380841660208085019182528c54600181018e5560008e81529190912094519151909216640100000000029216919091179101555b93505050505b9392505050565b6001600160a01b03811681146200049557600080fd5b50565b600080600060608486031215620004ae57600080fd5b8351620004bb816200047f565b6020850151909350620004ce816200047f565b80925050604084015190509250925092565b6000828210156200050157634e487b7160e01b600052601160045260246000fd5b500390565b634e487b7160e01b600052603260045260246000fd5b60805160a05160c05160e0516101005161424962000592600039600081816104640152611d6501526000818161063f0152611d440152600081816102e80152818161075201528181610afb01528181611212015281816125ba015261372601526000611a32015260006106fa01526142496000f3fe608060405234801561001057600080fd5b50600436106102de5760003560e01c80636fcfff4511610186578063981b24d0116100e3578063bfe1092811610097578063e189cba611610071578063e189cba6146106ba578063fc08456a146106cd578063fd11b4d3146106e057600080fd5b8063bfe109281461063a578063c4d66de814610661578063dd62ed3e1461067457600080fd5b80639dc29fac116100c85780639dc29fac14610601578063a457c2d714610614578063a9059cbb1461062757600080fd5b8063981b24d0146105cb5780639a032e98146105de57600080fd5b80638d57d7481161013a5780638e539e8c1161011f5780638e539e8c146105a857806392ab89bb146105bb57806395d89b41146105c357600080fd5b80638d57d7481461058c5780638ddb428a1461059f57600080fd5b8063795d82f51161016b578063795d82f51461056d57806388b00fd01461057c5780638d176ba51461058457600080fd5b80636fcfff451461053257806370a082311461055a57600080fd5b8063313ce5671161023f5780633a46b1a8116101f35780635c19a95c116101cd5780635c19a95c146104e55780635c60da1b146104f85780636e684b9a1461051f57600080fd5b80633a46b1a8146104ac5780633edb7f83146104bf57806340c10f19146104d257600080fd5b8063378dc3dc11610224578063378dc3dc1461045f578063395093511461048657806339634e0c1461049957600080fd5b8063313ce5671461044857806335bbc7fe1461045757600080fd5b806309ed46071161029657806318160ddd1161027b57806318160ddd1461040c57806323b872dd14610422578063249cb3fa1461043557600080fd5b806309ed4607146103b85780630cdfebfa146103c057600080fd5b8063094bc063116102c7578063094bc06314610349578063095ea7b31461039057806309d7f23b146103a357600080fd5b80630505c8c9146102e357806306fdde0314610334575b600080fd5b61030a7f000000000000000000000000000000000000000000000000000000000000000081565b60405173ffffffffffffffffffffffffffffffffffffffff90911681526020015b60405180910390f35b61033c6106f3565b60405161032b9190613da8565b610380610357366004613e3d565b73ffffffffffffffffffffffffffffffffffffffff166000908152600460205260409020541590565b604051901515815260200161032b565b61038061039e366004613e5a565b610723565b6103b66103b1366004613eb5565b61073a565b005b61030a61082e565b6103d36103ce366004613e5a565b61098f565b6040805163ffffffff90931683527bffffffffffffffffffffffffffffffffffffffffffffffffffffffff90911660208301520161032b565b6104146109eb565b60405190815260200161032b565b610380610430366004613f97565b610a0f565b610414610443366004613fd8565b610af7565b6040516012815260200161032b565b6103b6610c43565b6104147f000000000000000000000000000000000000000000000000000000000000000081565b610380610494366004613e5a565b6111b1565b6103b66104a7366004613e3d565b6111fa565b6104146104ba366004613e5a565b611306565b6103b66104cd366004613e5a565b611331565b6103b66104e0366004613e5a565b6113c0565b6103b66104f3366004613e3d565b6113ca565b7ff86c915dad5894faca0dfa067c58fdf4307406d255ed0a65db394f82b77f53d45461030a565b61041461052d366004613e5a565b61156c565b610545610540366004613e3d565b61162c565b60405163ffffffff909116815260200161032b565b610414610568366004613e3d565b61170e565b610414670de0b6b3a764000081565b6103b6611750565b6103b661186d565b61030a61059a366004613e3d565b611944565b610414600b5481565b6104146105b6366004614008565b611981565b6103b6611a1d565b61033c611a2b565b6104146105d9366004614008565b611a56565b6103806105ec366004613e3d565b60066020526000908152604090205460ff1681565b6103b661060f366004613e5a565b611a78565b610380610622366004613e5a565b611b84565b610380610635366004613e5a565b611c5c565b61030a7f000000000000000000000000000000000000000000000000000000000000000081565b6103b661066f366004613e3d565b611c69565b610414610682366004614021565b73ffffffffffffffffffffffffffffffffffffffff918216600090815260016020908152604080832093909416825291909152205490565b6104146106c8366004613e3d565b611d89565b6103b66106db366004613e3d565b611e91565b6104146106ee366004614008565b611f15565b606061071e7f0000000000000000000000000000000000000000000000000000000000000000611fcf565b905090565b6000610730338484612035565b5060015b92915050565b3373ffffffffffffffffffffffffffffffffffffffff7f00000000000000000000000000000000000000000000000000000000000000001614610804576040517f08c379a000000000000000000000000000000000000000000000000000000000815260206004820152602e60248201527f4f6e6c792074686520706f6c69637920636f6e7472616374206d61792063616c60448201527f6c2074686973206d6574686f642e00000000000000000000000000000000000060648201526084015b60405180910390fd5b600080825160208401855af43d806000803e81801561082257816000f35b816000fd5b5050505050565b6000306108597ff86c915dad5894faca0dfa067c58fdf4307406d255ed0a65db394f82b77f53d45490565b73ffffffffffffffffffffffffffffffffffffffff16146108fc576040517f08c379a000000000000000000000000000000000000000000000000000000000815260206004820152602660248201527f54686973206d6574686f642063616e6e6f742062652063616c6c6564206f6e2060448201527f636c6f6e6573000000000000000000000000000000000000000000000000000060648201526084016107fb565b600061090730612146565b6040517fc4d66de800000000000000000000000000000000000000000000000000000000815230600482015290915073ffffffffffffffffffffffffffffffffffffffff82169063c4d66de890602401600060405180830381600087803b15801561097157600080fd5b505af1158015610985573d6000803e3d6000fd5b5092949350505050565b600760205281600052604060002081815481106109ab57600080fd5b60009182526020909120015463ffffffff8116925064010000000090047bffffffffffffffffffffffffffffffffffffffffffffffffffffffff16905082565b6000806109f9600a436121af565b905080600254610a09919061407e565b91505090565b6000610a1c848484612357565b73ffffffffffffffffffffffffffffffffffffffff8416600090815260016020908152604080832033845290915290205482811015610add576040517f08c379a000000000000000000000000000000000000000000000000000000000815260206004820152602860248201527f45524332303a207472616e7366657220616d6f756e742065786365656473206160448201527f6c6c6f77616e636500000000000000000000000000000000000000000000000060648201526084016107fb565b610aea8533858403612035565b60019150505b9392505050565b60007f000000000000000000000000000000000000000000000000000000000000000073ffffffffffffffffffffffffffffffffffffffff168273ffffffffffffffffffffffffffffffffffffffff161480610b6d575060095473ffffffffffffffffffffffffffffffffffffffff8381169116145b610bf9576040517f08c379a000000000000000000000000000000000000000000000000000000000815260206004820152603c60248201527f4f6e6c792074686520706f6c696379206f7220696e7465726661636520636f6e60448201527f74726163742063616e207365742074686520696e746572666163652e0000000060648201526084016107fb565b6040517f455243313832305f4143434550545f4d41474943000000000000000000000000602082015260340160405160208183030381529060405280519060200120905092915050565b600b546000610c717fae30bfb87dec2bd0c16be9790f95842d84f58dc70b0a8f6ed22e9556176a7b1961257d565b73ffffffffffffffffffffffffffffffffffffffff1663172195226040518163ffffffff1660e01b815260040160206040518083038186803b158015610cb657600080fd5b505afa158015610cca573d6000803e3d6000fd5b505050506040513d601f19601f82011682018060405250810190610cee91906140b9565b905081811415610d5a576040517f08c379a000000000000000000000000000000000000000000000000000000000815260206004820152601c60248201527f47656e65726174696f6e20686173206e6f7420696e637265617365640000000060448201526064016107fb565b600b8190556000610d8a7fe4ee44a5d338a8b2452cc9552ec014656668eaacb55683101b7e1c2b167e522561257d565b905073ffffffffffffffffffffffffffffffffffffffff8116156111ac5760038173ffffffffffffffffffffffffffffffffffffffff16635bf5d54c6040518163ffffffff1660e01b815260040160206040518083038186803b158015610df057600080fd5b505afa158015610e04573d6000803e3d6000fd5b505050506040513d601f19601f82011682018060405250810190610e2891906140d2565b6004811115610e3957610e396140f3565b60ff161015610ea3578073ffffffffffffffffffffffffffffffffffffffff1663c062f5786040518163ffffffff1660e01b8152600401600060405180830381600087803b158015610e8a57600080fd5b505af1158015610e9e573d6000803e3d6000fd5b505050505b8073ffffffffffffffffffffffffffffffffffffffff16635bf5d54c6040518163ffffffff1660e01b815260040160206040518083038186803b158015610ee957600080fd5b505afa158015610efd573d6000803e3d6000fd5b505050506040513d601f19601f82011682018060405250810190610f2191906140d2565b6004811115610f3257610f326140f3565b60ff1660031415610f9e578073ffffffffffffffffffffffffffffffffffffffff16631a43c3386040518163ffffffff1660e01b8152600401600060405180830381600087803b158015610f8557600080fd5b505af1158015610f99573d6000803e3d6000fd5b505050505b60008173ffffffffffffffffffffffffffffffffffffffff1663dfbf53ae6040518163ffffffff1660e01b815260040160206040518083038186803b158015610fe657600080fd5b505afa158015610ffa573d6000803e3d6000fd5b505050506040513d601f19601f8201168201806040525081019061101e9190614122565b905073ffffffffffffffffffffffffffffffffffffffff8116156111aa576040517f3341b44500000000000000000000000000000000000000000000000000000000815273ffffffffffffffffffffffffffffffffffffffff828116600483015260009190841690633341b4459060240160a06040518083038186803b1580156110a757600080fd5b505afa1580156110bb573d6000803e3d6000fd5b505050506040513d601f19601f820116820180604052508101906110df919061413f565b6040518181529095507fb91f92f869a4caa45d223bc27bba633a4d27e87e75c3d48e3a8628ccea05482494506020019250611118915050565b60405180910390a16000670de0b6b3a764000082600a6001600a80549050611140919061417f565b8154811061115057611150614196565b60009182526020909120015461118c919064010000000090047bffffffffffffffffffffffffffffffffffffffffffffffffffffffff166141c5565b611196919061407e565b90506111a6600a611fca83612658565b5050505b505b505050565b33600081815260016020908152604080832073ffffffffffffffffffffffffffffffffffffffff8716845290915281205490916107309185906111f5908690614202565b612035565b3373ffffffffffffffffffffffffffffffffffffffff7f000000000000000000000000000000000000000000000000000000000000000016146112bf576040517f08c379a000000000000000000000000000000000000000000000000000000000815260206004820152602e60248201527f4f6e6c792074686520706f6c69637920636f6e7472616374206d61792063616c60448201527f6c2074686973206d6574686f642e00000000000000000000000000000000000060648201526084016107fb565b600980547fffffffffffffffffffffffff00000000000000000000000000000000000000001673ffffffffffffffffffffffffffffffffffffffff92909216919091179055565b60008061131283611f15565b90508061131f858561156c565b611329919061407e565b949350505050565b73ffffffffffffffffffffffffffffffffffffffff82163314156113b1576040517f08c379a000000000000000000000000000000000000000000000000000000000815260206004820152601b60248201527f446f206e6f742064656c656761746520746f20796f757273656c66000000000060448201526064016107fb565b6113bc3383836129d1565b5050565b6111ac8282612c6d565b73ffffffffffffffffffffffffffffffffffffffff8116331415611470576040517f08c379a000000000000000000000000000000000000000000000000000000000815260206004820152603060248201527f55736520756e64656c656761746520696e7374656164206f662064656c65676160448201527f74696e6720746f20796f757273656c660000000000000000000000000000000060648201526084016107fb565b73ffffffffffffffffffffffffffffffffffffffff811660009081526006602052604090205460ff16611525576040517f08c379a000000000000000000000000000000000000000000000000000000000815260206004820152602860248201527f5072696d6172792064656c656761746573206d75737420656e61626c6520646560448201527f6c65676174696f6e00000000000000000000000000000000000000000000000060648201526084016107fb565b3360009081526004602052604090205415611546576115466106db33611944565b33600081815260208190526040902054906115629083836129d1565b6113bc3383612d44565b6000438211156115fd576040517f08c379a0000000000000000000000000000000000000000000000000000000008152602060048201526024808201527f566f7465436865636b706f696e74733a20626c6f636b206e6f7420796574206d60448201527f696e65640000000000000000000000000000000000000000000000000000000060648201526084016107fb565b73ffffffffffffffffffffffffffffffffffffffff83166000908152600760205260409020610af090836121af565b73ffffffffffffffffffffffffffffffffffffffff811660009081526007602052604081205463ffffffff10156116e5576040517f08c379a000000000000000000000000000000000000000000000000000000000815260206004820152602d60248201527f6e756d626572206f6620636865636b706f696e74732063616e6e6f742062652060448201527f63617374656420736166656c790000000000000000000000000000000000000060648201526084016107fb565b5073ffffffffffffffffffffffffffffffffffffffff1660009081526007602052604090205490565b60008061171c600a436121af565b73ffffffffffffffffffffffffffffffffffffffff8416600090815260208190526040902054909150610af090829061407e565b61175933611d89565b33600090815260208190526040902054148015611783575033600090815260046020526040902054155b611836576040517f08c379a0000000000000000000000000000000000000000000000000000000008152602060048201526044602482018190527f43616e6e6f742064697361626c652064656c65676174696f6e20696620796f75908201527f2068617665206f75747374616e64696e672064656c65676174696f6e7320746f60648201527f20796f7500000000000000000000000000000000000000000000000000000000608482015260a4016107fb565b33600090815260066020526040902080547fffffffffffffffffffffffffffffffffffffffffffffffffffffffffffffff00169055565b336000908152600460205260409020541561190a576040517f08c379a000000000000000000000000000000000000000000000000000000000815260206004820152603b60248201527f43616e6e6f7420656e61626c652064656c65676174696f6e20696620796f752060448201527f68617665206f75747374616e64696e672064656c65676174696f6e000000000060648201526084016107fb565b33600090815260066020526040902080547fffffffffffffffffffffffffffffffffffffffffffffffffffffffffffffff00166001179055565b73ffffffffffffffffffffffffffffffffffffffff808216600090815260056020526040812054909116801561197a5780610af0565b5090919050565b600043821115611a12576040517f08c379a0000000000000000000000000000000000000000000000000000000008152602060048201526024808201527f566f7465436865636b706f696e74733a20626c6f636b206e6f7420796574206d60448201527f696e65640000000000000000000000000000000000000000000000000000000060648201526084016107fb565b6107346008836121af565b611a296106db33611944565b565b606061071e7f0000000000000000000000000000000000000000000000000000000000000000611fcf565b600080611a6283611f15565b905080611a6e84611981565b610af0919061407e565b3373ffffffffffffffffffffffffffffffffffffffff83161480611aef5750611ac07fe01e721169f17f30d0c130781195719ceba11f26f44578668ffd8462c7c1ebe961257d565b73ffffffffffffffffffffffffffffffffffffffff163373ffffffffffffffffffffffffffffffffffffffff16145b611b7a576040517f08c379a0000000000000000000000000000000000000000000000000000000008152602060048201526024808201527f43616c6c6572206e6f7420617574686f72697a656420746f206275726e20746f60448201527f6b656e730000000000000000000000000000000000000000000000000000000060648201526084016107fb565b6111ac8282612e00565b33600090815260016020908152604080832073ffffffffffffffffffffffffffffffffffffffff8616845290915281205482811015611c45576040517f08c379a000000000000000000000000000000000000000000000000000000000815260206004820152602560248201527f45524332303a2064656372656173656420616c6c6f77616e63652062656c6f7760448201527f207a65726f00000000000000000000000000000000000000000000000000000060648201526084016107fb565b611c523385858403612035565b5060019392505050565b6000610730338484612357565b6000611c937ff86c915dad5894faca0dfa067c58fdf4307406d255ed0a65db394f82b77f53d45490565b73ffffffffffffffffffffffffffffffffffffffff1614611d36576040517f08c379a000000000000000000000000000000000000000000000000000000000815260206004820152602860248201527f43616e206f6e6c792062652063616c6c656420647572696e6720696e6974696160448201527f6c697a6174696f6e00000000000000000000000000000000000000000000000060648201526084016107fb565b611d3f81612e1c565b6113bc7f00000000000000000000000000000000000000000000000000000000000000007f0000000000000000000000000000000000000000000000000000000000000000612c6d565b73ffffffffffffffffffffffffffffffffffffffff8116600090815260076020908152604080832080548251818502810185019093528083528493849084015b82821015611e2b576000848152602090819020604080518082019091529084015463ffffffff8116825264010000000090047bffffffffffffffffffffffffffffffffffffffffffffffffffffffff1681830152825260019092019101611dc9565b505082519293505081159050611e685781611e4760018361417f565b81518110611e5757611e57614196565b602002602001015160200151611e6b565b60005b7bffffffffffffffffffffffffffffffffffffffffffffffffffffffff16949350505050565b33600081815260036020908152604080832073ffffffffffffffffffffffffffffffffffffffff8616845290915290205490611ece908383612f08565b611ed733611944565b73ffffffffffffffffffffffffffffffffffffffff168273ffffffffffffffffffffffffffffffffffffffff1614156113bc576113bc336000612d44565b600043821115611fa7576040517f08c379a000000000000000000000000000000000000000000000000000000000815260206004820152602960248201527f496e666c6174696f6e436865636b706f696e74733a20626c6f636b206e6f742060448201527f796574206d696e6564000000000000000000000000000000000000000000000060648201526084016107fb565b610734600a836121af565b60006020825110611fc257600080fd5b50601f015190565b919050565b606060f882901c60208110611fe357600080fd5b8067ffffffffffffffff811115611ffc57611ffc613e86565b6040519080825280601f01601f191660200182016040528015612026576020820181803683370190505b50915082601f83015250919050565b73ffffffffffffffffffffffffffffffffffffffff82166120d8576040517f08c379a000000000000000000000000000000000000000000000000000000000815260206004820152602260248201527f45524332303a20617070726f766520746f20746865207a65726f20616464726560448201527f737300000000000000000000000000000000000000000000000000000000000060648201526084016107fb565b73ffffffffffffffffffffffffffffffffffffffff83811660008181526001602090815260408083209487168084529482529182902085905590518481527f8c5be1e5ebec7d5bd14f71427d1e84f3dd0314c0f7b2291e5b200ac8c7c3b925910160405180910390a3505050565b6000808260601b90506040517f3d602d80600a3d3981f3363d3d373d3d3d363d7300000000000000000000000081528160148201527f5af43d82803e903d91602b57fd5bf3000000000000000000000000000000000060288201526037816000f0949350505050565b8154600090806121c3576000915050610734565b6000846121d160018461417f565b815481106121e1576121e1614196565b60009182526020918290206040805180820190915291015463ffffffff81168083526401000000009091047bffffffffffffffffffffffffffffffffffffffffffffffffffffffff16928201929092529150841061226457602001517bffffffffffffffffffffffffffffffffffffffffffffffffffffffff1691506107349050565b8160005b818110156122d2576000600161227e838561417f565b612289911c83614202565b90508688828154811061229e5761229e614196565b60009182526020909120015463ffffffff1611156122be578092506122cc565b6122c9816001614202565b91505b50612268565b811561232b57866122e460018461417f565b815481106122f4576122f4614196565b60009182526020909120015464010000000090047bffffffffffffffffffffffffffffffffffffffffffffffffffffffff1661232e565b60005b7bffffffffffffffffffffffffffffffffffffffffffffffffffffffff16979650505050505050565b73ffffffffffffffffffffffffffffffffffffffff82166123fa576040517f08c379a000000000000000000000000000000000000000000000000000000000815260206004820152602360248201527f45524332303a207472616e7366657220746f20746865207a65726f206164647260448201527f657373000000000000000000000000000000000000000000000000000000000060648201526084016107fb565b6000612407848484612f97565b73ffffffffffffffffffffffffffffffffffffffff8516600090815260208190526040902054909150818110156124c0576040517f08c379a000000000000000000000000000000000000000000000000000000000815260206004820152602660248201527f45524332303a207472616e7366657220616d6f756e742065786365656473206260448201527f616c616e6365000000000000000000000000000000000000000000000000000060648201526084016107fb565b73ffffffffffffffffffffffffffffffffffffffff808616600090815260208190526040808220858503905591861681529081208054849290612504908490614202565b925050819055508373ffffffffffffffffffffffffffffffffffffffff168573ffffffffffffffffffffffffffffffffffffffff167fddf252ad1be2c89b69c2b068fc378daa952ba7f163c4a11628f55a4df523b3ef8560405161256a91815260200190565b60405180910390a3610827858584613020565b6040517faabbb8ca00000000000000000000000000000000000000000000000000000000815273ffffffffffffffffffffffffffffffffffffffff7f000000000000000000000000000000000000000000000000000000000000000016600482015260248101829052600090731820a4b7618bde71dce8cdc73aab6c95905fad249063aabbb8ca9060440160206040518083038186803b15801561262057600080fd5b505afa158015612634573d6000803e3d6000fd5b505050506040513d601f19601f820116820180604052508101906107349190614122565b60007bffffffffffffffffffffffffffffffffffffffffffffffffffffffff821115612706576040517f08c379a000000000000000000000000000000000000000000000000000000000815260206004820152602160248201527f6e65775765696768742063616e6e6f742062652063617374656420736166656c60448201527f790000000000000000000000000000000000000000000000000000000000000060648201526084016107fb565b63ffffffff431115612799576040517f08c379a0000000000000000000000000000000000000000000000000000000008152602060048201526024808201527f626c6f636b206e756d6265722063616e6e6f742062652063617374656420736160448201527f66656c790000000000000000000000000000000000000000000000000000000060648201526084016107fb565b83548061280c5750506040805180820190915263ffffffff43811682527bffffffffffffffffffffffffffffffffffffffffffffffffffffffff80841660208085019182528754600181018955600089815291909120945191519092166401000000000292169190911791015580610af0565b60008561281a60018461417f565b8154811061282a5761282a614196565b60009182526020822001805490925064010000000090047bffffffffffffffffffffffffffffffffffffffffffffffffffffffff169061286e828763ffffffff8a16565b90507bffffffffffffffffffffffffffffffffffffffffffffffffffffffff81111561291c576040517f08c379a000000000000000000000000000000000000000000000000000000000815260206004820152602160248201527f6e65775765696768742063616e6e6f742062652063617374656420736166656c60448201527f790000000000000000000000000000000000000000000000000000000000000060648201526084016107fb565b825463ffffffff1643141561296157825463ffffffff166401000000007bffffffffffffffffffffffffffffffffffffffffffffffffffffffff8316021783556129c6565b6040805180820190915263ffffffff43811682527bffffffffffffffffffffffffffffffffffffffffffffffffffffffff80841660208085019182528c54600181018e5560008e81529190912094519151909216640100000000029216919091179101555b979650505050505050565b73ffffffffffffffffffffffffffffffffffffffff83166000908152600460209081526040808320549183905290912054612a0c919061417f565b811115612a9b576040517f08c379a000000000000000000000000000000000000000000000000000000000815260206004820152603d60248201527f4d757374206861766520616e20756e64656c65676174656420616d6f756e742060448201527f617661696c61626c6520746f20636f7665722064656c65676174696f6e00000060648201526084016107fb565b73ffffffffffffffffffffffffffffffffffffffff831660009081526006602052604090205460ff1615612b77576040517f08c379a000000000000000000000000000000000000000000000000000000000815260206004820152604260248201527f43616e6e6f742064656c656761746520696620796f75206861766520656e616260448201527f6c6564207072696d6172792064656c65676174696f6e20746f20796f7572736560648201527f6c66000000000000000000000000000000000000000000000000000000000000608482015260a4016107fb565b8173ffffffffffffffffffffffffffffffffffffffff168373ffffffffffffffffffffffffffffffffffffffff167f98dafce09283426336da94838681d1fe723dcd8d49f67902076eebf3e2d1ddd683604051612bd691815260200190565b60405180910390a373ffffffffffffffffffffffffffffffffffffffff808416600090815260036020908152604080832093861683529290529081208054839290612c22908490614202565b909155505073ffffffffffffffffffffffffffffffffffffffff831660009081526004602052604081208054839290612c5c908490614202565b909155506111ac90508383836131c7565b6000612c798383613350565b91507bffffffffffffffffffffffffffffffffffffffffffffffffffffffff612ca06109eb565b1115612d2e576040517f08c379a000000000000000000000000000000000000000000000000000000000815260206004820152603560248201527f566f7465436865636b706f696e74733a20746f74616c20737570706c7920726960448201527f736b73206f766572666c6f77696e6720766f746573000000000000000000000060648201526084016107fb565b612d3c600861348a84612658565b509092915050565b73ffffffffffffffffffffffffffffffffffffffff828116600090815260056020526040902080547fffffffffffffffffffffffff000000000000000000000000000000000000000016918316918217905515612da15780612da3565b815b73ffffffffffffffffffffffffffffffffffffffff168273ffffffffffffffffffffffffffffffffffffffff167f88a6f95a94556f83d3752aaa691040ea5c04d9db823566be9f2f325eb866c9ae60405160405180910390a35050565b6000612e0c8383613496565b9150612d3c600861360184612658565b6000612e467ff86c915dad5894faca0dfa067c58fdf4307406d255ed0a65db394f82b77f53d45490565b73ffffffffffffffffffffffffffffffffffffffff1614612ee9576040517f08c379a000000000000000000000000000000000000000000000000000000000815260206004820152602860248201527f43616e206f6e6c792062652063616c6c656420647572696e6720696e6974696160448201527f6c697a6174696f6e00000000000000000000000000000000000000000000000060648201526084016107fb565b612ef28161360d565b6113bc600a611fca670de0b6b3a7640000612658565b73ffffffffffffffffffffffffffffffffffffffff831660009081526004602052604081208054839290612f3d90849061417f565b909155505073ffffffffffffffffffffffffffffffffffffffff808416600090815260036020908152604080832093861683529290529081208054839290612f8690849061417f565b909155506111ac90508284836131c7565b600080612fa5600a436121af565b612faf90846141c5565b90508373ffffffffffffffffffffffffffffffffffffffff168573ffffffffffffffffffffffffffffffffffffffff167fd62d118ec9618b21ba50e6814f78a20bf1e5b6fa0206ffe661a0ca53ce22874f8360405161301091815260200190565b60405180910390a3949350505050565b600061304b7fe01e721169f17f30d0c130781195719ceba11f26f44578668ffd8462c7c1ebe961257d565b905073ffffffffffffffffffffffffffffffffffffffff8116158015906131b157506040517ffefa7d1c00000000000000000000000000000000000000000000000000000000815273ffffffffffffffffffffffffffffffffffffffff858116600483015282169063fefa7d1c9060240160206040518083038186803b1580156130d457600080fd5b505afa1580156130e8573d6000803e3d6000fd5b505050506040513d601f19601f8201168201806040525081019061310c919061421a565b806131b157506040517ffefa7d1c00000000000000000000000000000000000000000000000000000000815273ffffffffffffffffffffffffffffffffffffffff848116600483015282169063fefa7d1c9060240160206040518083038186803b15801561317957600080fd5b505afa15801561318d573d6000803e3d6000fd5b505050506040513d601f19601f820116820180604052508101906131b1919061421a565b156131bc5750505050565b6111aa848484613798565b8173ffffffffffffffffffffffffffffffffffffffff168373ffffffffffffffffffffffffffffffffffffffff16141580156132035750600081115b156111ac5773ffffffffffffffffffffffffffffffffffffffff8316156132aa5773ffffffffffffffffffffffffffffffffffffffff831660009081526007602052604081206132569061360184612658565b90508373ffffffffffffffffffffffffffffffffffffffff167fd1b0c5e03e405cea97403894c17af4610d6d851ffe4baa03de1ca5e7c700cd75826040516132a091815260200190565b60405180910390a2505b73ffffffffffffffffffffffffffffffffffffffff8216156111ac5773ffffffffffffffffffffffffffffffffffffffff821660009081526007602052604081206132f89061348a84612658565b90508273ffffffffffffffffffffffffffffffffffffffff167fd1b0c5e03e405cea97403894c17af4610d6d851ffe4baa03de1ca5e7c700cd758260405161334291815260200190565b60405180910390a250505050565b600073ffffffffffffffffffffffffffffffffffffffff83166133cf576040517f08c379a000000000000000000000000000000000000000000000000000000000815260206004820152601f60248201527f45524332303a206d696e7420746f20746865207a65726f20616464726573730060448201526064016107fb565b60006133dd60008585612f97565b905080600260008282546133f19190614202565b909155505073ffffffffffffffffffffffffffffffffffffffff84166000908152602081905260408120805483929061342b908490614202565b909155505060405183815273ffffffffffffffffffffffffffffffffffffffff8516906000907fddf252ad1be2c89b69c2b068fc378daa952ba7f163c4a11628f55a4df523b3ef9060200160405180910390a3610af060008583613020565b6000610af08284614202565b6000806134a584600085612f97565b73ffffffffffffffffffffffffffffffffffffffff85166000908152602081905260409020549091508181101561355e576040517f08c379a000000000000000000000000000000000000000000000000000000000815260206004820152602260248201527f45524332303a206275726e20616d6f756e7420657863656564732062616c616e60448201527f636500000000000000000000000000000000000000000000000000000000000060648201526084016107fb565b73ffffffffffffffffffffffffffffffffffffffff8516600090815260208190526040812083830390556002805484929061359a90849061417f565b909155505060405184815260009073ffffffffffffffffffffffffffffffffffffffff8716907fddf252ad1be2c89b69c2b068fc378daa952ba7f163c4a11628f55a4df523b3ef9060200160405180910390a36135f985600084613020565b509392505050565b6000610af0828461417f565b60006136377ff86c915dad5894faca0dfa067c58fdf4307406d255ed0a65db394f82b77f53d45490565b73ffffffffffffffffffffffffffffffffffffffff16146136da576040517f08c379a000000000000000000000000000000000000000000000000000000000815260206004820152602860248201527f43616e206f6e6c792062652063616c6c656420647572696e6720696e6974696160448201527f6c697a6174696f6e00000000000000000000000000000000000000000000000060648201526084016107fb565b6136e3816139f8565b6040517f5df8122f00000000000000000000000000000000000000000000000000000000815230600482015273ffffffffffffffffffffffffffffffffffffffff7f0000000000000000000000000000000000000000000000000000000000000000166024820152731820a4b7618bde71dce8cdc73aab6c95905fad2490635df8122f90604401600060405180830381600087803b15801561378457600080fd5b505af1158015610827573d6000803e3d6000fd5b73ffffffffffffffffffffffffffffffffffffffff83166000908152600460205260409020541561392b5773ffffffffffffffffffffffffffffffffffffffff8316600090815260046020908152604080832054918390528220546137fe908490614202565b613808919061417f565b90508181101561392957600061381d85611944565b73ffffffffffffffffffffffffffffffffffffffff80871660009081526003602090815260408083209385168352929052205490915061385d8184614202565b841115613912576040517f08c379a000000000000000000000000000000000000000000000000000000000815260206004820152605360248201527f44656c65676174696f6e20746f6f20636f6d706c69636174656420746f20747260448201527f616e736665722e20556e64656c656761746520616e642073696d706c6966792060648201527f6265666f726520747279696e6720616761696e00000000000000000000000000608482015260a4016107fb565b6139268683613921868861417f565b612f08565b50505b505b73ffffffffffffffffffffffffffffffffffffffff8083166000908152600560205260409020541680156139ed5773ffffffffffffffffffffffffffffffffffffffff80841660009081526003602090815260408083209385168352929052908120805484929061399d908490614202565b909155505073ffffffffffffffffffffffffffffffffffffffff8316600090815260046020526040812080548492906139d7908490614202565b909155506139e890508482846131c7565b6111aa565b6111aa8484846131c7565b6000613a227ff86c915dad5894faca0dfa067c58fdf4307406d255ed0a65db394f82b77f53d45490565b73ffffffffffffffffffffffffffffffffffffffff1614613ac5576040517f08c379a000000000000000000000000000000000000000000000000000000000815260206004820152602860248201527f43616e206f6e6c792062652063616c6c656420647572696e6720696e6974696160448201527f6c697a6174696f6e00000000000000000000000000000000000000000000000060648201526084016107fb565b613ace81613ad1565b50565b6000613afb7ff86c915dad5894faca0dfa067c58fdf4307406d255ed0a65db394f82b77f53d45490565b73ffffffffffffffffffffffffffffffffffffffff1614613b9e576040517f08c379a000000000000000000000000000000000000000000000000000000000815260206004820152602860248201527f43616e206f6e6c792062652063616c6c656420647572696e6720696e6974696160448201527f6c697a6174696f6e00000000000000000000000000000000000000000000000060648201526084016107fb565b60008173ffffffffffffffffffffffffffffffffffffffff16635c60da1b6040518163ffffffff1660e01b815260040160206040518083038186803b158015613be657600080fd5b505afa158015613bfa573d6000803e3d6000fd5b505050506040513d601f19601f82011682018060405250810190613c1e9190614122565b905073ffffffffffffffffffffffffffffffffffffffff8116613cc3576040517f08c379a000000000000000000000000000000000000000000000000000000000815260206004820152602c60248201527f696e697469616c697a6174696f6e206661696c7572653a206e6f7468696e672060448201527f746f20696d706c656d656e74000000000000000000000000000000000000000060648201526084016107fb565b6113bc818073ffffffffffffffffffffffffffffffffffffffff16613d067ff86c915dad5894faca0dfa067c58fdf4307406d255ed0a65db394f82b77f53d45490565b73ffffffffffffffffffffffffffffffffffffffff161415613d84576040517f08c379a000000000000000000000000000000000000000000000000000000000815260206004820152601f60248201527f496d706c656d656e746174696f6e20616c7265616479206d61746368696e670060448201526064016107fb565b7ff86c915dad5894faca0dfa067c58fdf4307406d255ed0a65db394f82b77f53d455565b600060208083528351808285015260005b81811015613dd557858101830151858201604001528201613db9565b81811115613de7576000604083870101525b50601f017fffffffffffffffffffffffffffffffffffffffffffffffffffffffffffffffe016929092016040019392505050565b73ffffffffffffffffffffffffffffffffffffffff81168114613ace57600080fd5b600060208284031215613e4f57600080fd5b8135610af081613e1b565b60008060408385031215613e6d57600080fd5b8235613e7881613e1b565b946020939093013593505050565b7f4e487b7100000000000000000000000000000000000000000000000000000000600052604160045260246000fd5b60008060408385031215613ec857600080fd5b8235613ed381613e1b565b9150602083013567ffffffffffffffff80821115613ef057600080fd5b818501915085601f830112613f0457600080fd5b813581811115613f1657613f16613e86565b604051601f82017fffffffffffffffffffffffffffffffffffffffffffffffffffffffffffffffe0908116603f01168101908382118183101715613f5c57613f5c613e86565b81604052828152886020848701011115613f7557600080fd5b8260208601602083013760006020848301015280955050505050509250929050565b600080600060608486031215613fac57600080fd5b8335613fb781613e1b565b92506020840135613fc781613e1b565b929592945050506040919091013590565b60008060408385031215613feb57600080fd5b823591506020830135613ffd81613e1b565b809150509250929050565b60006020828403121561401a57600080fd5b5035919050565b6000806040838503121561403457600080fd5b823561403f81613e1b565b91506020830135613ffd81613e1b565b7f4e487b7100000000000000000000000000000000000000000000000000000000600052601160045260246000fd5b6000826140b4577f4e487b7100000000000000000000000000000000000000000000000000000000600052601260045260246000fd5b500490565b6000602082840312156140cb57600080fd5b5051919050565b6000602082840312156140e457600080fd5b815160058110610af057600080fd5b7f4e487b7100000000000000000000000000000000000000000000000000000000600052602160045260246000fd5b60006020828403121561413457600080fd5b8151610af081613e1b565b600080600080600060a0868803121561415757600080fd5b5050835160208501516040860151606087015160809097015192989197509594509092509050565b6000828210156141915761419161404f565b500390565b7f4e487b7100000000000000000000000000000000000000000000000000000000600052603260045260246000fd5b6000817fffffffffffffffffffffffffffffffffffffffffffffffffffffffffffffffff04831182151516156141fd576141fd61404f565b500290565b600082198211156142155761421561404f565b500190565b60006020828403121561422c57600080fd5b81518015158114610af057600080fdfea164736f6c6343000809000a6e65775765696768742063616e6e6f742062652063617374656420736166656cf86c915dad5894faca0dfa067c58fdf4307406d255ed0a65db394f82b77f53d4",
  "linkReferences": {},
  "deployedLinkReferences": {}
}