{
  "_format": "hh-sol-artifact-1",
  "contractName": "ECOx",
  "sourceName": "contracts/currency/ECOx.sol",
  "abi": [
    {
      "inputs": [
        {
          "internalType": "contract Policy",
          "name": "_policy",
          "type": "address"
        },
        {
          "internalType": "address",
          "name": "_distributor",
          "type": "address"
        },
        {
          "internalType": "uint256",
          "name": "_initialSupply",
          "type": "uint256"
        },
        {
          "internalType": "contract IECO",
          "name": "_ecoAddr",
          "type": "address"
        },
        {
          "internalType": "address",
          "name": "_initialPauser",
          "type": "address"
        }
      ],
      "stateMutability": "nonpayable",
      "type": "constructor"
    },
    {
      "anonymous": false,
      "inputs": [
        {
          "indexed": true,
          "internalType": "address",
          "name": "owner",
          "type": "address"
        },
        {
          "indexed": true,
          "internalType": "address",
          "name": "spender",
          "type": "address"
        },
        {
          "indexed": false,
          "internalType": "uint256",
          "name": "value",
          "type": "uint256"
        }
      ],
      "name": "Approval",
      "type": "event"
    },
    {
      "anonymous": false,
      "inputs": [
        {
          "indexed": false,
          "internalType": "address",
          "name": "account",
          "type": "address"
        }
      ],
      "name": "Paused",
      "type": "event"
    },
    {
      "anonymous": false,
      "inputs": [
        {
          "indexed": true,
          "internalType": "address",
          "name": "pauser",
          "type": "address"
        }
      ],
      "name": "PauserAssignment",
      "type": "event"
    },
    {
      "anonymous": false,
      "inputs": [
        {
          "indexed": true,
          "internalType": "address",
          "name": "from",
          "type": "address"
        },
        {
          "indexed": true,
          "internalType": "address",
          "name": "to",
          "type": "address"
        },
        {
          "indexed": false,
          "internalType": "uint256",
          "name": "value",
          "type": "uint256"
        }
      ],
      "name": "Transfer",
      "type": "event"
    },
    {
      "anonymous": false,
      "inputs": [
        {
          "indexed": false,
          "internalType": "address",
          "name": "account",
          "type": "address"
        }
      ],
      "name": "Unpaused",
      "type": "event"
    },
    {
      "inputs": [],
      "name": "DOMAIN_SEPARATOR",
      "outputs": [
        {
          "internalType": "bytes32",
          "name": "",
          "type": "bytes32"
        }
      ],
      "stateMutability": "view",
      "type": "function"
    },
    {
      "inputs": [],
      "name": "GENERATION_START",
      "outputs": [
        {
          "internalType": "uint256",
          "name": "",
          "type": "uint256"
        }
      ],
      "stateMutability": "view",
      "type": "function"
    },
    {
      "inputs": [],
      "name": "MIN_GENERATION_DURATION",
      "outputs": [
        {
          "internalType": "uint256",
          "name": "",
          "type": "uint256"
        }
      ],
      "stateMutability": "view",
      "type": "function"
    },
    {
      "inputs": [],
      "name": "PRECISION_BITS",
      "outputs": [
        {
          "internalType": "uint8",
          "name": "",
          "type": "uint8"
        }
      ],
      "stateMutability": "view",
      "type": "function"
    },
    {
      "inputs": [
        {
          "internalType": "address",
          "name": "owner",
          "type": "address"
        },
        {
          "internalType": "address",
          "name": "spender",
          "type": "address"
        }
      ],
      "name": "allowance",
      "outputs": [
        {
          "internalType": "uint256",
          "name": "",
          "type": "uint256"
        }
      ],
      "stateMutability": "view",
      "type": "function"
    },
    {
      "inputs": [
        {
          "internalType": "address",
          "name": "spender",
          "type": "address"
        },
        {
          "internalType": "uint256",
          "name": "amount",
          "type": "uint256"
        }
      ],
      "name": "approve",
      "outputs": [
        {
          "internalType": "bool",
          "name": "",
          "type": "bool"
        }
      ],
      "stateMutability": "nonpayable",
      "type": "function"
    },
    {
      "inputs": [
        {
          "internalType": "address",
          "name": "account",
          "type": "address"
        }
      ],
      "name": "balanceOf",
      "outputs": [
        {
          "internalType": "uint256",
          "name": "",
          "type": "uint256"
        }
      ],
      "stateMutability": "view",
      "type": "function"
    },
    {
      "inputs": [
        {
          "internalType": "bytes32",
          "name": "",
          "type": "bytes32"
        },
        {
          "internalType": "address",
          "name": "_addr",
          "type": "address"
        }
      ],
      "name": "canImplementInterfaceForAddress",
      "outputs": [
        {
          "internalType": "bytes32",
          "name": "",
          "type": "bytes32"
        }
      ],
      "stateMutability": "view",
      "type": "function"
    },
    {
      "inputs": [],
      "name": "clone",
      "outputs": [
        {
          "internalType": "address",
          "name": "",
          "type": "address"
        }
      ],
      "stateMutability": "nonpayable",
      "type": "function"
    },
    {
      "inputs": [],
      "name": "decimals",
      "outputs": [
        {
          "internalType": "uint8",
          "name": "",
          "type": "uint8"
        }
      ],
      "stateMutability": "view",
      "type": "function"
    },
    {
      "inputs": [
        {
          "internalType": "address",
          "name": "spender",
          "type": "address"
        },
        {
          "internalType": "uint256",
          "name": "subtractedValue",
          "type": "uint256"
        }
      ],
      "name": "decreaseAllowance",
      "outputs": [
        {
          "internalType": "bool",
          "name": "",
          "type": "bool"
        }
      ],
      "stateMutability": "nonpayable",
      "type": "function"
    },
    {
      "inputs": [],
      "name": "distributor",
      "outputs": [
        {
          "internalType": "address",
          "name": "",
          "type": "address"
        }
      ],
      "stateMutability": "view",
      "type": "function"
    },
    {
      "inputs": [],
      "name": "ecoToken",
      "outputs": [
        {
          "internalType": "contract IECO",
          "name": "",
          "type": "address"
        }
      ],
      "stateMutability": "view",
      "type": "function"
    },
    {
      "inputs": [
        {
          "internalType": "uint256",
          "name": "_ecoXValue",
          "type": "uint256"
        }
      ],
      "name": "exchange",
      "outputs": [],
      "stateMutability": "nonpayable",
      "type": "function"
    },
    {
      "inputs": [
        {
          "internalType": "uint256",
          "name": "_ecoXValue",
          "type": "uint256"
        }
      ],
      "name": "heliValueOf",
      "outputs": [
        {
          "internalType": "uint256",
          "name": "",
          "type": "uint256"
        }
      ],
      "stateMutability": "view",
      "type": "function"
    },
    {
      "inputs": [],
      "name": "implementation",
      "outputs": [
        {
          "internalType": "address",
          "name": "_impl",
          "type": "address"
        }
      ],
      "stateMutability": "view",
      "type": "function"
    },
    {
      "inputs": [
        {
          "internalType": "address",
          "name": "spender",
          "type": "address"
        },
        {
          "internalType": "uint256",
          "name": "addedValue",
          "type": "uint256"
        }
      ],
      "name": "increaseAllowance",
      "outputs": [
        {
          "internalType": "bool",
          "name": "",
          "type": "bool"
        }
      ],
      "stateMutability": "nonpayable",
      "type": "function"
    },
    {
      "inputs": [],
      "name": "initialSupply",
      "outputs": [
        {
          "internalType": "uint256",
          "name": "",
          "type": "uint256"
        }
      ],
      "stateMutability": "view",
      "type": "function"
    },
    {
      "inputs": [
        {
          "internalType": "address",
          "name": "_self",
          "type": "address"
        }
      ],
      "name": "initialize",
      "outputs": [],
      "stateMutability": "nonpayable",
      "type": "function"
    },
    {
      "inputs": [
        {
          "internalType": "address",
          "name": "_to",
          "type": "address"
        },
        {
          "internalType": "uint256",
          "name": "_value",
          "type": "uint256"
        }
      ],
      "name": "mint",
      "outputs": [],
      "stateMutability": "nonpayable",
      "type": "function"
    },
    {
      "inputs": [],
      "name": "name",
      "outputs": [
        {
          "internalType": "string",
          "name": "",
          "type": "string"
        }
      ],
      "stateMutability": "view",
      "type": "function"
    },
    {
      "inputs": [
        {
          "internalType": "address",
          "name": "owner",
          "type": "address"
        }
      ],
      "name": "nonces",
      "outputs": [
        {
          "internalType": "uint256",
          "name": "",
          "type": "uint256"
        }
      ],
      "stateMutability": "view",
      "type": "function"
    },
    {
      "inputs": [],
      "name": "pause",
      "outputs": [],
      "stateMutability": "nonpayable",
      "type": "function"
    },
    {
      "inputs": [],
      "name": "paused",
      "outputs": [
        {
          "internalType": "bool",
          "name": "",
          "type": "bool"
        }
      ],
      "stateMutability": "view",
      "type": "function"
    },
    {
      "inputs": [],
      "name": "pauser",
      "outputs": [
        {
          "internalType": "address",
          "name": "",
          "type": "address"
        }
      ],
      "stateMutability": "view",
      "type": "function"
    },
    {
      "inputs": [
        {
          "internalType": "address",
          "name": "owner",
          "type": "address"
        },
        {
          "internalType": "address",
          "name": "spender",
          "type": "address"
        },
        {
          "internalType": "uint256",
          "name": "value",
          "type": "uint256"
        },
        {
          "internalType": "uint256",
          "name": "deadline",
          "type": "uint256"
        },
        {
          "internalType": "uint8",
          "name": "v",
          "type": "uint8"
        },
        {
          "internalType": "bytes32",
          "name": "r",
          "type": "bytes32"
        },
        {
          "internalType": "bytes32",
          "name": "s",
          "type": "bytes32"
        }
      ],
      "name": "permit",
      "outputs": [],
      "stateMutability": "nonpayable",
      "type": "function"
    },
    {
      "inputs": [],
      "name": "policy",
      "outputs": [
        {
          "internalType": "contract Policy",
          "name": "",
          "type": "address"
        }
      ],
      "stateMutability": "view",
      "type": "function"
    },
    {
      "inputs": [
        {
          "internalType": "address",
          "name": "_delegate",
          "type": "address"
        },
        {
          "internalType": "bytes",
          "name": "_data",
          "type": "bytes"
        }
      ],
      "name": "policyCommand",
      "outputs": [],
      "stateMutability": "nonpayable",
      "type": "function"
    },
    {
      "inputs": [],
      "name": "roleAdmin",
      "outputs": [
        {
          "internalType": "address",
          "name": "",
          "type": "address"
        }
      ],
      "stateMutability": "view",
      "type": "function"
    },
    {
      "inputs": [
        {
          "internalType": "address",
          "name": "_addr",
          "type": "address"
        }
      ],
      "name": "setExpectedInterfaceSet",
      "outputs": [],
      "stateMutability": "nonpayable",
      "type": "function"
    },
    {
      "inputs": [
        {
          "internalType": "address",
          "name": "_pauser",
          "type": "address"
        }
      ],
      "name": "setPauser",
      "outputs": [],
      "stateMutability": "nonpayable",
      "type": "function"
    },
    {
      "inputs": [],
      "name": "symbol",
      "outputs": [
        {
          "internalType": "string",
          "name": "",
          "type": "string"
        }
      ],
      "stateMutability": "view",
      "type": "function"
    },
    {
      "inputs": [],
      "name": "totalSupply",
      "outputs": [
        {
          "internalType": "uint256",
          "name": "",
          "type": "uint256"
        }
      ],
      "stateMutability": "view",
      "type": "function"
    },
    {
      "inputs": [
        {
          "internalType": "address",
          "name": "recipient",
          "type": "address"
        },
        {
          "internalType": "uint256",
          "name": "amount",
          "type": "uint256"
        }
      ],
      "name": "transfer",
      "outputs": [
        {
          "internalType": "bool",
          "name": "",
          "type": "bool"
        }
      ],
      "stateMutability": "nonpayable",
      "type": "function"
    },
    {
      "inputs": [
        {
          "internalType": "address",
          "name": "sender",
          "type": "address"
        },
        {
          "internalType": "address",
          "name": "recipient",
          "type": "address"
        },
        {
          "internalType": "uint256",
          "name": "amount",
          "type": "uint256"
        }
      ],
      "name": "transferFrom",
      "outputs": [
        {
          "internalType": "bool",
          "name": "",
          "type": "bool"
        }
      ],
      "stateMutability": "nonpayable",
      "type": "function"
    },
    {
      "inputs": [],
      "name": "unpause",
      "outputs": [],
      "stateMutability": "nonpayable",
      "type": "function"
    },
    {
      "inputs": [
        {
          "internalType": "uint256",
          "name": "_ecoXValue",
          "type": "uint256"
        },
        {
          "internalType": "uint256",
          "name": "_blockNumber",
          "type": "uint256"
        }
      ],
      "name": "valueAt",
      "outputs": [
        {
          "internalType": "uint256",
          "name": "",
          "type": "uint256"
        }
      ],
      "stateMutability": "view",
      "type": "function"
    }
  ],
  "bytecode": "0x6102406040527f6e71edae12b1b97f4d1f60370fef10105fa2faae0126114a169c64845d6126c9610140523480156200003757600080fd5b5060405162003ca638038062003ca68339810160408190526200005a9162000525565b6040805180820182526006815265090cad8d25ab60d31b602080830191825283518085018552600381526209892b60eb1b818301528451808601865260018152603160f81b90830152835190922060e08190527fc89efdaa54c0f20c7adf612882df0950f5a951637e0307cdcb4c672f298b8bc66101008190524660a081815287517f8b73c3c69bb8fe3d512ecc4cf759cc79239f7b179b0ffacaa9a75d522b39400f818701819052818a01959095526060810193909352608080840192909252308382018190528851808503909201825260c09384019098528051908501209052949094526101209390935287928392919083908690849084906200016b9083906200173462000465821b17901c565b610160818152505062000189816200046560201b620017341760201c565b6101805250506004805460ff191690556001600160a01b0382166200021b5760405162461bcd60e51b815260206004820152603c60248201527f556e7265636f76657261626c653a20646f206e6f742073657420746865205f7260448201527f6f6c6541646d696e20617320746865207a65726f20616464726573730000000060648201526084015b60405180910390fd5b6001600160a01b038281166101a05260048054610100600160a81b0319166101009284169283021790556040517fc1c43aa8035756476ab2ca6cfd05434a7fd574b0f3b39c7174828b1fb82acd3e90600090a25050505062000283306200047e60201b60201c565b6001600160a01b038116620003015760405162461bcd60e51b815260206004820152603860248201527f556e7265636f76657261626c653a20646f206e6f74207365742074686520706f60448201527f6c69637920617320746865207a65726f20616464726573730000000000000000606482015260840162000212565b6001600160a01b0381166101c0819052604051635df8122f60e01b81523060048201526024810191909152731820a4b7618bde71dce8cdc73aab6c95905fad2490635df8122f90604401600060405180830381600087803b1580156200036657600080fd5b505af11580156200037b573d6000803e3d6000fd5b50505050505060008311620003d35760405162461bcd60e51b815260206004820152601f60248201527f696e697469616c20737570706c79206e6f742070726f7065726c792073657400604482015260640162000212565b6001600160a01b038216620004425760405162461bcd60e51b815260206004820152602e60248201527f446f206e6f7420736574207468652045434f206164647265737320617320746860448201526d65207a65726f206164647265737360901b606482015260840162000212565b506101e0919091526001600160a01b039182166102005216610220525062000599565b600060208251106200047657600080fd5b50601f015190565b6001600160a01b038116620004a060008051602062003c868339815191525490565b6001600160a01b03161415620004f95760405162461bcd60e51b815260206004820152601f60248201527f496d706c656d656e746174696f6e20616c7265616479206d61746368696e6700604482015260640162000212565b60008051602062003c8683398151915255565b6001600160a01b03811681146200052257600080fd5b50565b600080600080600060a086880312156200053e57600080fd5b85516200054b816200050c565b60208701519095506200055e816200050c565b60408701516060880151919550935062000578816200050c565b60808701519092506200058b816200050c565b809150509295509295909350565b60805160a05160c05160e05161010051610120516101405161016051610180516101a0516101c0516101e05161020051610220516135f16200069560003960008181610477015281816108a001528181610d6d015261112801526000818161057201526115010152600081816103b90152818161152201526119310152600081816102810152818161065e01528181610a3901528181610e6601528181611d96015261223c0152600081816104f80152610b770152600061125f01526000610607015260006115b801526000611c3f01526000611c8e01526000611c6901526000611bc201526000611bec01526000611c1601526135f16000f3fe608060405234801561001057600080fd5b50600436106102775760003560e01c806340c10f19116101605780638cb17056116100d8578063a9059cbb1161008c578063c4d66de811610071578063c4d66de814610594578063d505accf146105a7578063dd62ed3e146105ba57600080fd5b8063a9059cbb1461055a578063bfe109281461056d57600080fd5b806395d89b41116100bd57806395d89b411461051a5780639fd0506d14610522578063a457c2d71461054757600080fd5b80638cb17056146104ea57806393867fb5146104f357600080fd5b80635c975abb1161012f57806370a082311161011457806370a08231146104995780637ecebe00146104cf5780638456cb59146104e257600080fd5b80635c975abb14610467578063705d53041461047257600080fd5b806340c10f1914610411578063535565591461042457806353729937146104375780635c60da1b1461044057600080fd5b80632d88af4a116101f3578063378dc3dc116101c257806339634e0c116101a757806339634e0c146103ee5780633f4ba83a1461040157806340b4ff871461040957600080fd5b8063378dc3dc146103b457806339509351146103db57600080fd5b80632d88af4a14610371578063313ce56714610384578063329c53f7146103995780633644e515146103ac57600080fd5b806309ed46071161024a57806318160ddd1161022f57806318160ddd1461034357806323b872dd1461034b578063249cb3fa1461035e57600080fd5b806309ed46071461031a57806313c18a061461032257600080fd5b80630505c8c91461027c57806306fdde03146102cd578063095ea7b3146102e257806309d7f23b14610305575b600080fd5b6102a37f000000000000000000000000000000000000000000000000000000000000000081565b60405173ffffffffffffffffffffffffffffffffffffffff90911681526020015b60405180910390f35b6102d5610600565b6040516102c49190613169565b6102f56102f03660046131fe565b610630565b60405190151581526020016102c4565b610318610313366004613259565b610646565b005b6102a361073a565b61033561033036600461333b565b61089b565b6040519081526020016102c4565b600354610335565b6102f5610359366004613354565b61094f565b61033561036c366004613395565b610a35565b61031861037f3660046133c5565b610b5f565b60125b60405160ff90911681526020016102c4565b6103356103a73660046133e2565b610d24565b610335610dfb565b6103357f000000000000000000000000000000000000000000000000000000000000000081565b6102f56103e93660046131fe565b610e05565b6103186103fc3660046133c5565b610e4e565b610318610f5a565b610387606481565b61031861041f3660046131fe565b610fea565b61031861043236600461333b565b6110db565b6103356103e881565b7ff86c915dad5894faca0dfa067c58fdf4307406d255ed0a65db394f82b77f53d4546102a3565b60045460ff166102f5565b6102a37f000000000000000000000000000000000000000000000000000000000000000081565b6103356104a73660046133c5565b73ffffffffffffffffffffffffffffffffffffffff1660009081526001602052604090205490565b6103356104dd3660046133c5565b61119d565b6103186111ca565b61033561069081565b6102a37f000000000000000000000000000000000000000000000000000000000000000081565b6102d5611258565b6004546102a390610100900473ffffffffffffffffffffffffffffffffffffffff1681565b6102f56105553660046131fe565b611283565b6102f56105683660046131fe565b61135b565b6102a37f000000000000000000000000000000000000000000000000000000000000000081565b6103186105a23660046133c5565b611368565b6103186105b5366004613404565b61154a565b6103356105c836600461347b565b73ffffffffffffffffffffffffffffffffffffffff918216600090815260026020908152604080832093909416825291909152205490565b606061062b7f000000000000000000000000000000000000000000000000000000000000000061174c565b905090565b600061063d3384846117b2565b50600192915050565b3373ffffffffffffffffffffffffffffffffffffffff7f00000000000000000000000000000000000000000000000000000000000000001614610710576040517f08c379a000000000000000000000000000000000000000000000000000000000815260206004820152602d60248201527f4f6e6c792074686520706f6c69637920636f6e7472616374206d61792063616c60448201527f6c2074686973206d6574686f640000000000000000000000000000000000000060648201526084015b60405180910390fd5b600080825160208401855af43d806000803e81801561072e57816000f35b816000fd5b5050505050565b6000306107657ff86c915dad5894faca0dfa067c58fdf4307406d255ed0a65db394f82b77f53d45490565b73ffffffffffffffffffffffffffffffffffffffff1614610808576040517f08c379a000000000000000000000000000000000000000000000000000000000815260206004820152602660248201527f54686973206d6574686f642063616e6e6f742062652063616c6c6564206f6e2060448201527f636c6f6e657300000000000000000000000000000000000000000000000000006064820152608401610707565b6000610813306118c3565b6040517fc4d66de800000000000000000000000000000000000000000000000000000000815230600482015290915073ffffffffffffffffffffffffffffffffffffffff82169063c4d66de890602401600060405180830381600087803b15801561087d57600080fd5b505af1158015610891573d6000803e3d6000fd5b5092949350505050565b6000807f000000000000000000000000000000000000000000000000000000000000000073ffffffffffffffffffffffffffffffffffffffff166318160ddd6040518163ffffffff1660e01b815260040160206040518083038186803b15801561090457600080fd5b505afa158015610918573d6000803e3d6000fd5b505050506040513d601f19601f8201168201806040525081019061093c91906134a9565b9050610948838261192c565b9392505050565b600061095c848484611988565b73ffffffffffffffffffffffffffffffffffffffff8416600090815260026020908152604080832033845290915290205482811015610a1d576040517f08c379a000000000000000000000000000000000000000000000000000000000815260206004820152602860248201527f45524332303a207472616e7366657220616d6f756e742065786365656473206160448201527f6c6c6f77616e63650000000000000000000000000000000000000000000000006064820152608401610707565b610a2a85338584036117b2565b506001949350505050565b60007f000000000000000000000000000000000000000000000000000000000000000073ffffffffffffffffffffffffffffffffffffffff168273ffffffffffffffffffffffffffffffffffffffff161480610aab575060055473ffffffffffffffffffffffffffffffffffffffff8381169116145b610b37576040517f08c379a000000000000000000000000000000000000000000000000000000000815260206004820152603b60248201527f4f6e6c792074686520706f6c696379206f7220696e7465726661636520636f6e60448201527f74726163742063616e207365742074686520696e7465726661636500000000006064820152608401610707565b507fa2ef4600d742022d532d4747cb3547474667d6f13804902513b2ec01c848f4b492915050565b3373ffffffffffffffffffffffffffffffffffffffff7f00000000000000000000000000000000000000000000000000000000000000001614610bfe576040517f08c379a000000000000000000000000000000000000000000000000000000000815260206004820152601860248201527f45524332305061757361626c653a206e6f742061646d696e00000000000000006044820152606401610707565b60045473ffffffffffffffffffffffffffffffffffffffff828116610100909204161415610cae576040517f08c379a000000000000000000000000000000000000000000000000000000000815260206004820152602160248201527f45524332305061757361626c653a206d757374206368616e676520706175736560448201527f72000000000000000000000000000000000000000000000000000000000000006064820152608401610707565b600480547fffffffffffffffffffffff0000000000000000000000000000000000000000ff1661010073ffffffffffffffffffffffffffffffffffffffff8416908102919091179091556040517fc1c43aa8035756476ab2ca6cfd05434a7fd574b0f3b39c7174828b1fb82acd3e90600090a250565b6040517f981b24d000000000000000000000000000000000000000000000000000000000815260048101829052600090819073ffffffffffffffffffffffffffffffffffffffff7f0000000000000000000000000000000000000000000000000000000000000000169063981b24d09060240160206040518083038186803b158015610daf57600080fd5b505afa158015610dc3573d6000803e3d6000fd5b505050506040513d601f19601f82011682018060405250810190610de791906134a9565b9050610df3848261192c565b949350505050565b600061062b611ba8565b33600081815260026020908152604080832073ffffffffffffffffffffffffffffffffffffffff87168452909152812054909161063d918590610e499086906134f1565b6117b2565b3373ffffffffffffffffffffffffffffffffffffffff7f00000000000000000000000000000000000000000000000000000000000000001614610f13576040517f08c379a000000000000000000000000000000000000000000000000000000000815260206004820152602d60248201527f4f6e6c792074686520706f6c69637920636f6e7472616374206d61792063616c60448201527f6c2074686973206d6574686f64000000000000000000000000000000000000006064820152608401610707565b600580547fffffffffffffffffffffffff00000000000000000000000000000000000000001673ffffffffffffffffffffffffffffffffffffffff92909216919091179055565b600454610100900473ffffffffffffffffffffffffffffffffffffffff163314610fe0576040517f08c379a000000000000000000000000000000000000000000000000000000000815260206004820152601960248201527f45524332305061757361626c653a206e6f7420706175736572000000000000006044820152606401610707565b610fe8611cdc565b565b6110137f93824b3fb91a9a455e79c6bb5ad7a2acaedbf7fea80464761d7d892aa7853d5e611d59565b73ffffffffffffffffffffffffffffffffffffffff163373ffffffffffffffffffffffffffffffffffffffff16146110cc576040517f08c379a0000000000000000000000000000000000000000000000000000000008152602060048201526024808201527f43616c6c6572206e6f7420617574686f72697a656420746f206d696e7420746f60448201527f6b656e73000000000000000000000000000000000000000000000000000000006064820152608401610707565b6110d68282611e34565b505050565b60006110e68261089b565b90506110f23383611f69565b506040517f40c10f19000000000000000000000000000000000000000000000000000000008152336004820152602481018290527f000000000000000000000000000000000000000000000000000000000000000073ffffffffffffffffffffffffffffffffffffffff16906340c10f1990604401600060405180830381600087803b15801561118157600080fd5b505af1158015611195573d6000803e3d6000fd5b505050505050565b73ffffffffffffffffffffffffffffffffffffffff81166000908152602081905260408120545b92915050565b600454610100900473ffffffffffffffffffffffffffffffffffffffff163314611250576040517f08c379a000000000000000000000000000000000000000000000000000000000815260206004820152601960248201527f45524332305061757361626c653a206e6f7420706175736572000000000000006044820152606401610707565b610fe86120c8565b606061062b7f000000000000000000000000000000000000000000000000000000000000000061174c565b33600090815260026020908152604080832073ffffffffffffffffffffffffffffffffffffffff8616845290915281205482811015611344576040517f08c379a000000000000000000000000000000000000000000000000000000000815260206004820152602560248201527f45524332303a2064656372656173656420616c6c6f77616e63652062656c6f7760448201527f207a65726f0000000000000000000000000000000000000000000000000000006064820152608401610707565b61135133858584036117b2565b5060019392505050565b600061063d338484611988565b60006113927ff86c915dad5894faca0dfa067c58fdf4307406d255ed0a65db394f82b77f53d45490565b73ffffffffffffffffffffffffffffffffffffffff1614611435576040517f08c379a000000000000000000000000000000000000000000000000000000000815260206004820152602860248201527f43616e206f6e6c792062652063616c6c656420647572696e6720696e6974696160448201527f6c697a6174696f6e0000000000000000000000000000000000000000000000006064820152608401610707565b61143e81612123565b8073ffffffffffffffffffffffffffffffffffffffff16639fd0506d6040518163ffffffff1660e01b815260040160206040518083038186803b15801561148457600080fd5b505afa158015611498573d6000803e3d6000fd5b505050506040513d601f19601f820116820180604052508101906114bc9190613509565b600460016101000a81548173ffffffffffffffffffffffffffffffffffffffff021916908373ffffffffffffffffffffffffffffffffffffffff1602179055506115467f00000000000000000000000000000000000000000000000000000000000000007f0000000000000000000000000000000000000000000000000000000000000000611e34565b5050565b834211156115b4576040517f08c379a000000000000000000000000000000000000000000000000000000000815260206004820152601d60248201527f45524332305065726d69743a206578706972656420646561646c696e650000006044820152606401610707565b60007f000000000000000000000000000000000000000000000000000000000000000088888861160e8c73ffffffffffffffffffffffffffffffffffffffff16600090815260208190526040902080546001810190915590565b60408051602081019690965273ffffffffffffffffffffffffffffffffffffffff94851690860152929091166060840152608083015260a082015260c0810186905260e0016040516020818303038152906040528051906020012090506000611676826122ae565b9050600061168682878787612317565b90508973ffffffffffffffffffffffffffffffffffffffff168173ffffffffffffffffffffffffffffffffffffffff161461171d576040517f08c379a000000000000000000000000000000000000000000000000000000000815260206004820152601e60248201527f45524332305065726d69743a20696e76616c6964207369676e617475726500006044820152606401610707565b6117288a8a8a6117b2565b50505050505050505050565b6000602082511061174457600080fd5b50601f015190565b606060f882901c6020811061176057600080fd5b8067ffffffffffffffff8111156117795761177961322a565b6040519080825280601f01601f1916602001820160405280156117a3576020820181803683370190505b50915082601f83015250919050565b73ffffffffffffffffffffffffffffffffffffffff8216611855576040517f08c379a000000000000000000000000000000000000000000000000000000000815260206004820152602260248201527f45524332303a20617070726f766520746f20746865207a65726f20616464726560448201527f73730000000000000000000000000000000000000000000000000000000000006064820152608401610707565b73ffffffffffffffffffffffffffffffffffffffff83811660008181526002602090815260408083209487168084529482529182902085905590518481527f8c5be1e5ebec7d5bd14f71427d1e84f3dd0314c0f7b2291e5b200ac8c7c3b925910160405180910390a3505050565b6000808260601b90506040517f3d602d80600a3d3981f3363d3d373d3d3d363d7300000000000000000000000081528160148201527f5af43d82803e903d91602b57fd5bf3000000000000000000000000000000000060288201526037816000f0949350505050565b6000807f000000000000000000000000000000000000000000000000000000000000000061195b85606461233f565b6119659190613526565b905060648361197483836123d9565b61197e9190613561565b901c949350505050565b73ffffffffffffffffffffffffffffffffffffffff8216611a2b576040517f08c379a000000000000000000000000000000000000000000000000000000000815260206004820152602360248201527f45524332303a207472616e7366657220746f20746865207a65726f206164647260448201527f65737300000000000000000000000000000000000000000000000000000000006064820152608401610707565b6000611a38848484612a2f565b73ffffffffffffffffffffffffffffffffffffffff851660009081526001602052604090205490915081811015611af1576040517f08c379a000000000000000000000000000000000000000000000000000000000815260206004820152602660248201527f45524332303a207472616e7366657220616d6f756e742065786365656473206260448201527f616c616e636500000000000000000000000000000000000000000000000000006064820152608401610707565b73ffffffffffffffffffffffffffffffffffffffff808616600090815260016020526040808220858503905591861681529081208054849290611b359084906134f1565b925050819055508373ffffffffffffffffffffffffffffffffffffffff168573ffffffffffffffffffffffffffffffffffffffff167fddf252ad1be2c89b69c2b068fc378daa952ba7f163c4a11628f55a4df523b3ef85604051611b9b91815260200190565b60405180910390a3610733565b60003073ffffffffffffffffffffffffffffffffffffffff7f000000000000000000000000000000000000000000000000000000000000000016148015611c0e57507f000000000000000000000000000000000000000000000000000000000000000046145b15611c3857507f000000000000000000000000000000000000000000000000000000000000000090565b50604080517f00000000000000000000000000000000000000000000000000000000000000006020808301919091527f0000000000000000000000000000000000000000000000000000000000000000828401527f000000000000000000000000000000000000000000000000000000000000000060608301524660808301523060a0808401919091528351808403909101815260c0909201909252805191012090565b611ce4612a40565b600480547fffffffffffffffffffffffffffffffffffffffffffffffffffffffffffffff001690557f5db9ee0a495bf2e6ff9c91a7834c1ba4fdd244a5e8aa4e537bd38aeae4b073aa335b60405173ffffffffffffffffffffffffffffffffffffffff909116815260200160405180910390a1565b6040517faabbb8ca00000000000000000000000000000000000000000000000000000000815273ffffffffffffffffffffffffffffffffffffffff7f000000000000000000000000000000000000000000000000000000000000000016600482015260248101829052600090731820a4b7618bde71dce8cdc73aab6c95905fad249063aabbb8ca9060440160206040518083038186803b158015611dfc57600080fd5b505afa158015611e10573d6000803e3d6000fd5b505050506040513d601f19601f820116820180604052508101906111c49190613509565b600073ffffffffffffffffffffffffffffffffffffffff8316611eb3576040517f08c379a000000000000000000000000000000000000000000000000000000000815260206004820152601f60248201527f45524332303a206d696e7420746f20746865207a65726f2061646472657373006044820152606401610707565b6000611ec160008585612a2f565b90508060036000828254611ed591906134f1565b909155505073ffffffffffffffffffffffffffffffffffffffff841660009081526001602052604081208054839290611f0f9084906134f1565b909155505060405183815273ffffffffffffffffffffffffffffffffffffffff8516906000907fddf252ad1be2c89b69c2b068fc378daa952ba7f163c4a11628f55a4df523b3ef9060200160405180910390a39392505050565b600080611f7884600085612a2f565b73ffffffffffffffffffffffffffffffffffffffff851660009081526001602052604090205490915081811015612031576040517f08c379a000000000000000000000000000000000000000000000000000000000815260206004820152602260248201527f45524332303a206275726e20616d6f756e7420657863656564732062616c616e60448201527f63650000000000000000000000000000000000000000000000000000000000006064820152608401610707565b73ffffffffffffffffffffffffffffffffffffffff8516600090815260016020526040812083830390556003805484929061206d90849061359e565b909155505060405184815260009073ffffffffffffffffffffffffffffffffffffffff8716907fddf252ad1be2c89b69c2b068fc378daa952ba7f163c4a11628f55a4df523b3ef9060200160405180910390a3509392505050565b6120d0612aac565b600480547fffffffffffffffffffffffffffffffffffffffffffffffffffffffffffffff001660011790557f62e78cea01bee320cd4e420270b5ea74000d11b0c9f74754ebdbfc544b05a258611d2f3390565b600061214d7ff86c915dad5894faca0dfa067c58fdf4307406d255ed0a65db394f82b77f53d45490565b73ffffffffffffffffffffffffffffffffffffffff16146121f0576040517f08c379a000000000000000000000000000000000000000000000000000000000815260206004820152602860248201527f43616e206f6e6c792062652063616c6c656420647572696e6720696e6974696160448201527f6c697a6174696f6e0000000000000000000000000000000000000000000000006064820152608401610707565b6121f981612b19565b6040517f5df8122f00000000000000000000000000000000000000000000000000000000815230600482015273ffffffffffffffffffffffffffffffffffffffff7f0000000000000000000000000000000000000000000000000000000000000000166024820152731820a4b7618bde71dce8cdc73aab6c95905fad2490635df8122f90604401600060405180830381600087803b15801561229a57600080fd5b505af1158015610733573d6000803e3d6000fd5b60006111c46122bb611ba8565b836040517f19010000000000000000000000000000000000000000000000000000000000006020820152602281018390526042810182905260009060620160405160208183030381529060405280519060200120905092915050565b600080600061232887878787612d14565b9150915061233581612e2c565b5095945050505050565b600060ff821683811b9081901c8414610948576040517f08c379a0000000000000000000000000000000000000000000000000000000008152602060048201526024808201527f76616c756520746f6f206c617267652c207368696674206f7574206f6620626f60448201527f756e6473000000000000000000000000000000000000000000000000000000006064820152608401610707565b6000828160ff84166123eb8380613561565b901c9150612409826f03442c4e6074a82f1797f72ac0000000613561565b61241390826134f1565b905060ff84166124238684613561565b901c9150612441826f0116b96f757c380fb287fd0e40000000613561565b61244b90826134f1565b905060ff841661245b8684613561565b901c9150612478826e45ae5bdd5f0e03eca1ff4390000000613561565b61248290826134f1565b905060ff84166124928684613561565b901c91506124af826e0defabf91302cd95b9ffda50000000613561565b6124b990826134f1565b905060ff84166124c98684613561565b901c91506124e6826e02529ca9832b22439efff9b8000000613561565b6124f090826134f1565b905060ff84166125008684613561565b901c915061251c826d54f1cf12bd04e516b6da88000000613561565b61252690826134f1565b905060ff84166125368684613561565b901c9150612552826d0a9e39e257a09ca2d6db51000000613561565b61255c90826134f1565b905060ff841661256c8684613561565b901c9150612588826d012e066e7b839fa050c309000000613561565b61259290826134f1565b905060ff84166125a28684613561565b901c91506125bd826c1e33d7d926c329a1ad1a800000613561565b6125c790826134f1565b905060ff84166125d78684613561565b901c91506125f2826c02bee513bdb4a6b19b5f800000613561565b6125fc90826134f1565b905060ff841661260c8684613561565b901c9150612626826b3a9316fa79b88eccf2a00000613561565b61263090826134f1565b905060ff84166126408684613561565b901c915061265a826b048177ebe1fa812375200000613561565b61266490826134f1565b905060ff84166126748684613561565b901c915061268d826a5263fe90242dcbacf00000613561565b61269790826134f1565b905060ff84166126a78684613561565b901c91506126c0826a057e22099c030d94100000613561565b6126ca90826134f1565b905060ff84166126da8684613561565b901c91506126f2826957e22099c030d9410000613561565b6126fc90826134f1565b905060ff841661270c8684613561565b901c91506127248269052b6b54569976310000613561565b61272e90826134f1565b905060ff841661273e8684613561565b901c915061275582684985f67696bf748000613561565b61275f90826134f1565b905060ff841661276f8684613561565b901c9150612786826803dea12ea99e498000613561565b61279090826134f1565b905060ff84166127a08684613561565b901c91506127b6826731880f2214b6e000613561565b6127c090826134f1565b905060ff84166127d08684613561565b901c91506127e68267025bcff56eb36000613561565b6127f090826134f1565b905060ff84166128008684613561565b901c915061281582661b722e10ab1000613561565b61281f90826134f1565b905060ff841661282f8684613561565b901c9150612844826601317c70077000613561565b61284e90826134f1565b905060ff841661285e8684613561565b901c915061287282650cba84aafa00613561565b61287c90826134f1565b905060ff841661288c8684613561565b901c915061289f826482573a0a00613561565b6128a990826134f1565b905060ff84166128b98684613561565b901c91506128cc826405035ad900613561565b6128d690826134f1565b905060ff84166128e68684613561565b901c91506128f882632f881b00613561565b61290290826134f1565b905060ff84166129128684613561565b901c9150612924826301b29340613561565b61292e90826134f1565b905060ff841661293e8684613561565b901c915061294f82620efc40613561565b61295990826134f1565b905060ff84166129698684613561565b901c915061297982617fe0613561565b61298390826134f1565b905060ff84166129938684613561565b901c91506129a382610420613561565b6129ad90826134f1565b905060ff84166129bd8684613561565b901c91506129cc826021613561565b6129d690826134f1565b905060ff84166129e68684613561565b901c91506129f5826001613561565b6129ff90826134f1565b905084612a1c6f0688589cc0e9505e2f2fee558000000083613526565b612a2691906134f1565b95945050505050565b6000612a39612aac565b5092915050565b60045460ff16610fe8576040517f08c379a000000000000000000000000000000000000000000000000000000000815260206004820152601460248201527f5061757361626c653a206e6f74207061757365640000000000000000000000006044820152606401610707565b60045460ff1615610fe8576040517f08c379a000000000000000000000000000000000000000000000000000000000815260206004820152601060248201527f5061757361626c653a20706175736564000000000000000000000000000000006044820152606401610707565b6000612b437ff86c915dad5894faca0dfa067c58fdf4307406d255ed0a65db394f82b77f53d45490565b73ffffffffffffffffffffffffffffffffffffffff1614612be6576040517f08c379a000000000000000000000000000000000000000000000000000000000815260206004820152602860248201527f43616e206f6e6c792062652063616c6c656420647572696e6720696e6974696160448201527f6c697a6174696f6e0000000000000000000000000000000000000000000000006064820152608401610707565b60008173ffffffffffffffffffffffffffffffffffffffff16635c60da1b6040518163ffffffff1660e01b815260040160206040518083038186803b158015612c2e57600080fd5b505afa158015612c42573d6000803e3d6000fd5b505050506040513d601f19601f82011682018060405250810190612c669190613509565b905073ffffffffffffffffffffffffffffffffffffffff8116612d0b576040517f08c379a000000000000000000000000000000000000000000000000000000000815260206004820152602c60248201527f696e697469616c697a6174696f6e206661696c7572653a206e6f7468696e672060448201527f746f20696d706c656d656e7400000000000000000000000000000000000000006064820152608401610707565b61154681613088565b6000807f7fffffffffffffffffffffffffffffff5d576e7357a4501ddfe92f46681b20a0831115612d4b5750600090506003612e23565b8460ff16601b14158015612d6357508460ff16601c14155b15612d745750600090506004612e23565b6040805160008082526020820180845289905260ff881692820192909252606081018690526080810185905260019060a0016020604051602081039080840390855afa158015612dc8573d6000803e3d6000fd5b50506040517fffffffffffffffffffffffffffffffffffffffffffffffffffffffffffffffe0015191505073ffffffffffffffffffffffffffffffffffffffff8116612e1c57600060019250925050612e23565b9150600090505b94509492505050565b6000816004811115612e4057612e406135b5565b1415612e495750565b6001816004811115612e5d57612e5d6135b5565b1415612ec5576040517f08c379a000000000000000000000000000000000000000000000000000000000815260206004820152601860248201527f45434453413a20696e76616c6964207369676e617475726500000000000000006044820152606401610707565b6002816004811115612ed957612ed96135b5565b1415612f41576040517f08c379a000000000000000000000000000000000000000000000000000000000815260206004820152601f60248201527f45434453413a20696e76616c6964207369676e6174757265206c656e677468006044820152606401610707565b6003816004811115612f5557612f556135b5565b1415612fe3576040517f08c379a000000000000000000000000000000000000000000000000000000000815260206004820152602260248201527f45434453413a20696e76616c6964207369676e6174757265202773272076616c60448201527f75650000000000000000000000000000000000000000000000000000000000006064820152608401610707565b6004816004811115612ff757612ff76135b5565b1415613085576040517f08c379a000000000000000000000000000000000000000000000000000000000815260206004820152602260248201527f45434453413a20696e76616c6964207369676e6174757265202776272076616c60448201527f75650000000000000000000000000000000000000000000000000000000000006064820152608401610707565b50565b8073ffffffffffffffffffffffffffffffffffffffff166130c77ff86c915dad5894faca0dfa067c58fdf4307406d255ed0a65db394f82b77f53d45490565b73ffffffffffffffffffffffffffffffffffffffff161415613145576040517f08c379a000000000000000000000000000000000000000000000000000000000815260206004820152601f60248201527f496d706c656d656e746174696f6e20616c7265616479206d61746368696e67006044820152606401610707565b7ff86c915dad5894faca0dfa067c58fdf4307406d255ed0a65db394f82b77f53d455565b600060208083528351808285015260005b818110156131965785810183015185820160400152820161317a565b818111156131a8576000604083870101525b50601f017fffffffffffffffffffffffffffffffffffffffffffffffffffffffffffffffe016929092016040019392505050565b73ffffffffffffffffffffffffffffffffffffffff8116811461308557600080fd5b6000806040838503121561321157600080fd5b823561321c816131dc565b946020939093013593505050565b7f4e487b7100000000000000000000000000000000000000000000000000000000600052604160045260246000fd5b6000806040838503121561326c57600080fd5b8235613277816131dc565b9150602083013567ffffffffffffffff8082111561329457600080fd5b818501915085601f8301126132a857600080fd5b8135818111156132ba576132ba61322a565b604051601f82017fffffffffffffffffffffffffffffffffffffffffffffffffffffffffffffffe0908116603f011681019083821181831017156133005761330061322a565b8160405282815288602084870101111561331957600080fd5b8260208601602083013760006020848301015280955050505050509250929050565b60006020828403121561334d57600080fd5b5035919050565b60008060006060848603121561336957600080fd5b8335613374816131dc565b92506020840135613384816131dc565b929592945050506040919091013590565b600080604083850312156133a857600080fd5b8235915060208301356133ba816131dc565b809150509250929050565b6000602082840312156133d757600080fd5b8135610948816131dc565b600080604083850312156133f557600080fd5b50508035926020909101359150565b600080600080600080600060e0888a03121561341f57600080fd5b873561342a816131dc565b9650602088013561343a816131dc565b95506040880135945060608801359350608088013560ff8116811461345e57600080fd5b9699959850939692959460a0840135945060c09093013592915050565b6000806040838503121561348e57600080fd5b8235613499816131dc565b915060208301356133ba816131dc565b6000602082840312156134bb57600080fd5b5051919050565b7f4e487b7100000000000000000000000000000000000000000000000000000000600052601160045260246000fd5b60008219821115613504576135046134c2565b500190565b60006020828403121561351b57600080fd5b8151610948816131dc565b60008261355c577f4e487b7100000000000000000000000000000000000000000000000000000000600052601260045260246000fd5b500490565b6000817fffffffffffffffffffffffffffffffffffffffffffffffffffffffffffffffff0483118215151615613599576135996134c2565b500290565b6000828210156135b0576135b06134c2565b500390565b7f4e487b7100000000000000000000000000000000000000000000000000000000600052602160045260246000fdfea164736f6c6343000809000af86c915dad5894faca0dfa067c58fdf4307406d255ed0a65db394f82b77f53d4",
  "linkReferences": {},
  "deployedLinkReferences": {}
}