{
  "_format": "hh-sol-artifact-1",
  "contractName": "ECOx",
  "sourceName": "contracts/currency/ECOx.sol",
  "abi": [
    {
      "inputs": [
        {
          "internalType": "contract Policy",
          "name": "_policy",
          "type": "address"
        },
        {
          "internalType": "address",
          "name": "_distributor",
          "type": "address"
        },
        {
          "internalType": "uint256",
          "name": "_initialSupply",
          "type": "uint256"
        },
        {
          "internalType": "address",
          "name": "_ecoAddr",
          "type": "address"
        }
      ],
      "stateMutability": "nonpayable",
      "type": "constructor"
    },
    {
      "anonymous": false,
      "inputs": [
        {
          "indexed": true,
          "internalType": "address",
          "name": "owner",
          "type": "address"
        },
        {
          "indexed": true,
          "internalType": "address",
          "name": "spender",
          "type": "address"
        },
        {
          "indexed": false,
          "internalType": "uint256",
          "name": "value",
          "type": "uint256"
        }
      ],
      "name": "Approval",
      "type": "event"
    },
    {
      "anonymous": false,
      "inputs": [
        {
          "indexed": true,
          "internalType": "address",
          "name": "from",
          "type": "address"
        },
        {
          "indexed": true,
          "internalType": "address",
          "name": "to",
          "type": "address"
        },
        {
          "indexed": false,
          "internalType": "uint256",
          "name": "value",
          "type": "uint256"
        }
      ],
      "name": "Transfer",
      "type": "event"
    },
    {
      "inputs": [],
      "name": "PRECISION",
      "outputs": [
        {
          "internalType": "uint8",
          "name": "",
          "type": "uint8"
        }
      ],
      "stateMutability": "view",
      "type": "function"
    },
    {
      "inputs": [
        {
          "internalType": "address",
          "name": "owner",
          "type": "address"
        },
        {
          "internalType": "address",
          "name": "spender",
          "type": "address"
        }
      ],
      "name": "allowance",
      "outputs": [
        {
          "internalType": "uint256",
          "name": "",
          "type": "uint256"
        }
      ],
      "stateMutability": "view",
      "type": "function"
    },
    {
      "inputs": [
        {
          "internalType": "address",
          "name": "spender",
          "type": "address"
        },
        {
          "internalType": "uint256",
          "name": "amount",
          "type": "uint256"
        }
      ],
      "name": "approve",
      "outputs": [
        {
          "internalType": "bool",
          "name": "",
          "type": "bool"
        }
      ],
      "stateMutability": "nonpayable",
      "type": "function"
    },
    {
      "inputs": [
        {
          "internalType": "address",
          "name": "account",
          "type": "address"
        }
      ],
      "name": "balanceOf",
      "outputs": [
        {
          "internalType": "uint256",
          "name": "",
          "type": "uint256"
        }
      ],
      "stateMutability": "view",
      "type": "function"
    },
    {
      "inputs": [
        {
          "internalType": "bytes32",
          "name": "",
          "type": "bytes32"
        },
        {
          "internalType": "address",
          "name": "_addr",
          "type": "address"
        }
      ],
      "name": "canImplementInterfaceForAddress",
      "outputs": [
        {
          "internalType": "bytes32",
          "name": "",
          "type": "bytes32"
        }
      ],
      "stateMutability": "view",
      "type": "function"
    },
    {
      "inputs": [],
      "name": "clone",
      "outputs": [
        {
          "internalType": "address",
          "name": "",
          "type": "address"
        }
      ],
      "stateMutability": "nonpayable",
      "type": "function"
    },
    {
      "inputs": [],
      "name": "decimals",
      "outputs": [
        {
          "internalType": "uint8",
          "name": "",
          "type": "uint8"
        }
      ],
      "stateMutability": "view",
      "type": "function"
    },
    {
      "inputs": [
        {
          "internalType": "address",
          "name": "spender",
          "type": "address"
        },
        {
          "internalType": "uint256",
          "name": "subtractedValue",
          "type": "uint256"
        }
      ],
      "name": "decreaseAllowance",
      "outputs": [
        {
          "internalType": "bool",
          "name": "",
          "type": "bool"
        }
      ],
      "stateMutability": "nonpayable",
      "type": "function"
    },
    {
      "inputs": [],
      "name": "distributor",
      "outputs": [
        {
          "internalType": "address",
          "name": "",
          "type": "address"
        }
      ],
      "stateMutability": "view",
      "type": "function"
    },
    {
      "inputs": [],
      "name": "ecoToken",
      "outputs": [
        {
          "internalType": "contract IECO",
          "name": "",
          "type": "address"
        }
      ],
      "stateMutability": "view",
      "type": "function"
    },
    {
      "inputs": [
        {
          "internalType": "uint256",
          "name": "_ecoXValue",
          "type": "uint256"
        }
      ],
      "name": "ecoValueOf",
      "outputs": [
        {
          "internalType": "uint256",
          "name": "",
          "type": "uint256"
        }
      ],
      "stateMutability": "view",
      "type": "function"
    },
    {
      "inputs": [
        {
          "internalType": "uint256",
          "name": "_ecoXValue",
          "type": "uint256"
        }
      ],
      "name": "exchange",
      "outputs": [],
      "stateMutability": "nonpayable",
      "type": "function"
    },
    {
      "inputs": [],
      "name": "implementation",
      "outputs": [
        {
          "internalType": "address",
          "name": "_impl",
          "type": "address"
        }
      ],
      "stateMutability": "view",
      "type": "function"
    },
    {
      "inputs": [
        {
          "internalType": "address",
          "name": "spender",
          "type": "address"
        },
        {
          "internalType": "uint256",
          "name": "addedValue",
          "type": "uint256"
        }
      ],
      "name": "increaseAllowance",
      "outputs": [
        {
          "internalType": "bool",
          "name": "",
          "type": "bool"
        }
      ],
      "stateMutability": "nonpayable",
      "type": "function"
    },
    {
      "inputs": [],
      "name": "initialSupply",
      "outputs": [
        {
          "internalType": "uint256",
          "name": "",
          "type": "uint256"
        }
      ],
      "stateMutability": "view",
      "type": "function"
    },
    {
      "inputs": [
        {
          "internalType": "address",
          "name": "_self",
          "type": "address"
        }
      ],
      "name": "initialize",
      "outputs": [],
      "stateMutability": "nonpayable",
      "type": "function"
    },
    {
      "inputs": [
        {
          "internalType": "address",
          "name": "_to",
          "type": "address"
        },
        {
          "internalType": "uint256",
          "name": "_value",
          "type": "uint256"
        }
      ],
      "name": "mint",
      "outputs": [],
      "stateMutability": "nonpayable",
      "type": "function"
    },
    {
      "inputs": [],
      "name": "name",
      "outputs": [
        {
          "internalType": "string",
          "name": "",
          "type": "string"
        }
      ],
      "stateMutability": "view",
      "type": "function"
    },
    {
      "inputs": [],
      "name": "policy",
      "outputs": [
        {
          "internalType": "contract Policy",
          "name": "",
          "type": "address"
        }
      ],
      "stateMutability": "view",
      "type": "function"
    },
    {
      "inputs": [
        {
          "internalType": "address",
          "name": "_delegate",
          "type": "address"
        },
        {
          "internalType": "bytes",
          "name": "_data",
          "type": "bytes"
        }
      ],
      "name": "policyCommand",
      "outputs": [],
      "stateMutability": "nonpayable",
      "type": "function"
    },
    {
      "inputs": [
        {
          "internalType": "address",
          "name": "_addr",
          "type": "address"
        }
      ],
      "name": "setExpectedInterfaceSet",
      "outputs": [],
      "stateMutability": "nonpayable",
      "type": "function"
    },
    {
      "inputs": [],
      "name": "symbol",
      "outputs": [
        {
          "internalType": "string",
          "name": "",
          "type": "string"
        }
      ],
      "stateMutability": "view",
      "type": "function"
    },
    {
      "inputs": [],
      "name": "totalSupply",
      "outputs": [
        {
          "internalType": "uint256",
          "name": "",
          "type": "uint256"
        }
      ],
      "stateMutability": "view",
      "type": "function"
    },
    {
      "inputs": [
        {
          "internalType": "address",
          "name": "recipient",
          "type": "address"
        },
        {
          "internalType": "uint256",
          "name": "amount",
          "type": "uint256"
        }
      ],
      "name": "transfer",
      "outputs": [
        {
          "internalType": "bool",
          "name": "",
          "type": "bool"
        }
      ],
      "stateMutability": "nonpayable",
      "type": "function"
    },
    {
      "inputs": [
        {
          "internalType": "address",
          "name": "sender",
          "type": "address"
        },
        {
          "internalType": "address",
          "name": "recipient",
          "type": "address"
        },
        {
          "internalType": "uint256",
          "name": "amount",
          "type": "uint256"
        }
      ],
      "name": "transferFrom",
      "outputs": [
        {
          "internalType": "bool",
          "name": "",
          "type": "bool"
        }
      ],
      "stateMutability": "nonpayable",
      "type": "function"
    },
    {
      "inputs": [
        {
          "internalType": "uint256",
          "name": "_ecoXValue",
          "type": "uint256"
        },
        {
          "internalType": "uint256",
          "name": "_blockNumber",
          "type": "uint256"
        }
      ],
      "name": "valueAt",
      "outputs": [
        {
          "internalType": "uint256",
          "name": "",
          "type": "uint256"
        }
      ],
      "stateMutability": "view",
      "type": "function"
    }
  ],
  "bytecode": "0x6101406040523480156200001257600080fd5b5060405162002a0c38038062002a0c833981016040819052620000359162000275565b838060405180604001604052806006815260200165090cad8d25ab60d31b8152506040518060400160405280600381526020016209892b60eb1b8152506200008882620001b560201b62000f2b1760201c565b60808181525050620000a581620001b560201b62000f2b1760201c565b60a05250620000b6905030620001ce565b6001600160a01b0390811660c052604051635df8122f60e01b81523060048201529082166024820152731820a4b7618bde71dce8cdc73aab6c95905fad2490635df8122f90604401600060405180830381600087803b1580156200011957600080fd5b505af11580156200012e573d6000803e3d6000fd5b505050505060008211801562000142575060015b620001945760405162461bcd60e51b815260206004820152601f60248201527f696e697469616c20737570706c79206e6f742070726f7065726c79207365740060448201526064015b60405180910390fd5b60e0919091526001600160a01b0391821661010052166101205250620002d1565b60006020825110620001c657600080fd5b50601f015190565b6001600160a01b038116620001f0600080516020620029ec8339815191525490565b6001600160a01b03161415620002495760405162461bcd60e51b815260206004820152601f60248201527f496d706c656d656e746174696f6e20616c7265616479206d61746368696e670060448201526064016200018b565b600080516020620029ec83398151915255565b6001600160a01b03811681146200027257600080fd5b50565b600080600080608085870312156200028c57600080fd5b845162000299816200025c565b6020860151909450620002ac816200025c565b604086015160608701519194509250620002c6816200025c565b939692955090935050565b60805160a05160c05160e051610100516101205161268562000367600039600081816103580152818161098f01528181610bce0152610c480152600081816103fe0152610ee20152600081816102be01528181610f03015261133a0152600081816101b8015281816104d7015281816107fe01528181610a7e015261172301526000610cfe0152600061048001526126856000f3fe608060405234801561001057600080fd5b50600436106101ae5760003560e01c806340c10f19116100ee57806395d89b4111610097578063aaf5eb6811610071578063aaf5eb68146103f1578063bfe10928146103f9578063c4d66de814610420578063dd62ed3e1461043357600080fd5b806395d89b41146103c3578063a457c2d7146103cb578063a9059cbb146103de57600080fd5b8063705d5304116100c8578063705d53041461035357806370a082311461037a57806373b46d5c146103b057600080fd5b806340c10f191461030657806353556559146103195780635c60da1b1461032c57600080fd5b806323b872dd1161015b578063329c53f711610135578063329c53f7146102a6578063378dc3dc146102b957806339509351146102e057806339634e0c146102f357600080fd5b806323b872dd1461026b578063249cb3fa1461027e578063313ce5671461029157600080fd5b806309d7f23b1161018c57806309d7f23b1461023c57806309ed46071461025157806318160ddd1461025957600080fd5b80630505c8c9146101b357806306fdde0314610204578063095ea7b314610219575b600080fd5b6101da7f000000000000000000000000000000000000000000000000000000000000000081565b60405173ffffffffffffffffffffffffffffffffffffffff90911681526020015b60405180910390f35b61020c610479565b6040516101fb91906122a3565b61022c610227366004612338565b6104a9565b60405190151581526020016101fb565b61024f61024a366004612393565b6104bf565b005b6101da6105b3565b6002545b6040519081526020016101fb565b61022c610279366004612475565b610714565b61025d61028c3660046124b6565b6107fa565b60125b60405160ff90911681526020016101fb565b61025d6102b43660046124e6565b610946565b61025d7f000000000000000000000000000000000000000000000000000000000000000081565b61022c6102ee366004612338565b610a1d565b61024f610301366004612508565b610a66565b61024f610314366004612338565b610b72565b61024f610327366004612525565b610b81565b7ff86c915dad5894faca0dfa067c58fdf4307406d255ed0a65db394f82b77f53d4546101da565b6101da7f000000000000000000000000000000000000000000000000000000000000000081565b61025d610388366004612508565b73ffffffffffffffffffffffffffffffffffffffff1660009081526020819052604090205490565b61025d6103be366004612525565b610c43565b61020c610cf7565b61022c6103d9366004612338565b610d22565b61022c6103ec366004612338565b610dfa565b610294606481565b6101da7f000000000000000000000000000000000000000000000000000000000000000081565b61024f61042e366004612508565b610e07565b61025d61044136600461253e565b73ffffffffffffffffffffffffffffffffffffffff918216600090815260016020908152604080832093909416825291909152205490565b60606104a47f0000000000000000000000000000000000000000000000000000000000000000610f43565b905090565b60006104b6338484610fa9565b50600192915050565b3373ffffffffffffffffffffffffffffffffffffffff7f00000000000000000000000000000000000000000000000000000000000000001614610589576040517f08c379a000000000000000000000000000000000000000000000000000000000815260206004820152602e60248201527f4f6e6c792074686520706f6c69637920636f6e7472616374206d61792063616c60448201527f6c2074686973206d6574686f642e00000000000000000000000000000000000060648201526084015b60405180910390fd5b600080825160208401855af43d806000803e8180156105a757816000f35b816000fd5b5050505050565b6000306105de7ff86c915dad5894faca0dfa067c58fdf4307406d255ed0a65db394f82b77f53d45490565b73ffffffffffffffffffffffffffffffffffffffff1614610681576040517f08c379a000000000000000000000000000000000000000000000000000000000815260206004820152602660248201527f54686973206d6574686f642063616e6e6f742062652063616c6c6564206f6e2060448201527f636c6f6e657300000000000000000000000000000000000000000000000000006064820152608401610580565b600061068c306110ba565b6040517fc4d66de800000000000000000000000000000000000000000000000000000000815230600482015290915073ffffffffffffffffffffffffffffffffffffffff82169063c4d66de890602401600060405180830381600087803b1580156106f657600080fd5b505af115801561070a573d6000803e3d6000fd5b5092949350505050565b6000610721848484611123565b73ffffffffffffffffffffffffffffffffffffffff84166000908152600160209081526040808320338452909152902054828110156107e2576040517f08c379a000000000000000000000000000000000000000000000000000000000815260206004820152602860248201527f45524332303a207472616e7366657220616d6f756e742065786365656473206160448201527f6c6c6f77616e63650000000000000000000000000000000000000000000000006064820152608401610580565b6107ef8533858403610fa9565b506001949350505050565b60007f000000000000000000000000000000000000000000000000000000000000000073ffffffffffffffffffffffffffffffffffffffff168273ffffffffffffffffffffffffffffffffffffffff161480610870575060035473ffffffffffffffffffffffffffffffffffffffff8381169116145b6108fc576040517f08c379a000000000000000000000000000000000000000000000000000000000815260206004820152603c60248201527f4f6e6c792074686520706f6c696379206f7220696e7465726661636520636f6e60448201527f74726163742063616e207365742074686520696e746572666163652e000000006064820152608401610580565b6040517f455243313832305f4143434550545f4d41474943000000000000000000000000602082015260340160405160208183030381529060405280519060200120905092915050565b6040517f981b24d000000000000000000000000000000000000000000000000000000000815260048101829052600090819073ffffffffffffffffffffffffffffffffffffffff7f0000000000000000000000000000000000000000000000000000000000000000169063981b24d09060240160206040518083038186803b1580156109d157600080fd5b505afa1580156109e5573d6000803e3d6000fd5b505050506040513d601f19601f82011682018060405250810190610a09919061256c565b9050610a158482611335565b949350505050565b33600081815260016020908152604080832073ffffffffffffffffffffffffffffffffffffffff8716845290915281205490916104b6918590610a619086906125b4565b610fa9565b3373ffffffffffffffffffffffffffffffffffffffff7f00000000000000000000000000000000000000000000000000000000000000001614610b2b576040517f08c379a000000000000000000000000000000000000000000000000000000000815260206004820152602e60248201527f4f6e6c792074686520706f6c69637920636f6e7472616374206d61792063616c60448201527f6c2074686973206d6574686f642e0000000000000000000000000000000000006064820152608401610580565b600380547fffffffffffffffffffffffff00000000000000000000000000000000000000001673ffffffffffffffffffffffffffffffffffffffff92909216919091179055565b610b7c8282611391565b505050565b6000610b8c82610c43565b9050610b9833836114bb565b506040517f40c10f19000000000000000000000000000000000000000000000000000000008152336004820152602481018290527f000000000000000000000000000000000000000000000000000000000000000073ffffffffffffffffffffffffffffffffffffffff16906340c10f1990604401600060405180830381600087803b158015610c2757600080fd5b505af1158015610c3b573d6000803e3d6000fd5b505050505050565b6000807f000000000000000000000000000000000000000000000000000000000000000073ffffffffffffffffffffffffffffffffffffffff166318160ddd6040518163ffffffff1660e01b815260040160206040518083038186803b158015610cac57600080fd5b505afa158015610cc0573d6000803e3d6000fd5b505050506040513d601f19601f82011682018060405250810190610ce4919061256c565b9050610cf08382611335565b9392505050565b60606104a47f0000000000000000000000000000000000000000000000000000000000000000610f43565b33600090815260016020908152604080832073ffffffffffffffffffffffffffffffffffffffff8616845290915281205482811015610de3576040517f08c379a000000000000000000000000000000000000000000000000000000000815260206004820152602560248201527f45524332303a2064656372656173656420616c6c6f77616e63652062656c6f7760448201527f207a65726f0000000000000000000000000000000000000000000000000000006064820152608401610580565b610df03385858403610fa9565b5060019392505050565b60006104b6338484611123565b6000610e317ff86c915dad5894faca0dfa067c58fdf4307406d255ed0a65db394f82b77f53d45490565b73ffffffffffffffffffffffffffffffffffffffff1614610ed4576040517f08c379a000000000000000000000000000000000000000000000000000000000815260206004820152602860248201527f43616e206f6e6c792062652063616c6c656420647572696e6720696e6974696160448201527f6c697a6174696f6e0000000000000000000000000000000000000000000000006064820152608401610580565b610edd8161160a565b610f277f00000000000000000000000000000000000000000000000000000000000000007f0000000000000000000000000000000000000000000000000000000000000000611391565b5050565b60006020825110610f3b57600080fd5b50601f015190565b606060f882901c60208110610f5757600080fd5b8067ffffffffffffffff811115610f7057610f70612364565b6040519080825280601f01601f191660200182016040528015610f9a576020820181803683370190505b50915082601f83015250919050565b73ffffffffffffffffffffffffffffffffffffffff821661104c576040517f08c379a000000000000000000000000000000000000000000000000000000000815260206004820152602260248201527f45524332303a20617070726f766520746f20746865207a65726f20616464726560448201527f73730000000000000000000000000000000000000000000000000000000000006064820152608401610580565b73ffffffffffffffffffffffffffffffffffffffff83811660008181526001602090815260408083209487168084529482529182902085905590518481527f8c5be1e5ebec7d5bd14f71427d1e84f3dd0314c0f7b2291e5b200ac8c7c3b925910160405180910390a3505050565b6000808260601b90506040517f3d602d80600a3d3981f3363d3d373d3d3d363d7300000000000000000000000081528160148201527f5af43d82803e903d91602b57fd5bf3000000000000000000000000000000000060288201526037816000f0949350505050565b73ffffffffffffffffffffffffffffffffffffffff82166111c6576040517f08c379a000000000000000000000000000000000000000000000000000000000815260206004820152602360248201527f45524332303a207472616e7366657220746f20746865207a65726f206164647260448201527f65737300000000000000000000000000000000000000000000000000000000006064820152608401610580565b73ffffffffffffffffffffffffffffffffffffffff831660009081526020819052604090205481908181101561127e576040517f08c379a000000000000000000000000000000000000000000000000000000000815260206004820152602660248201527f45524332303a207472616e7366657220616d6f756e742065786365656473206260448201527f616c616e636500000000000000000000000000000000000000000000000000006064820152608401610580565b73ffffffffffffffffffffffffffffffffffffffff8086166000908152602081905260408082208585039055918616815290812080548492906112c29084906125b4565b925050819055508373ffffffffffffffffffffffffffffffffffffffff168573ffffffffffffffffffffffffffffffffffffffff167fddf252ad1be2c89b69c2b068fc378daa952ba7f163c4a11628f55a4df523b3ef8560405161132891815260200190565b60405180910390a36105ac565b6000807f0000000000000000000000000000000000000000000000000000000000000000611364856064611795565b61136e91906125cc565b905060648361137d838361189d565b6113879190612607565b901c949350505050565b600073ffffffffffffffffffffffffffffffffffffffff8316611410576040517f08c379a000000000000000000000000000000000000000000000000000000000815260206004820152601f60248201527f45524332303a206d696e7420746f20746865207a65726f2061646472657373006044820152606401610580565b6000829050806002600082825461142791906125b4565b909155505073ffffffffffffffffffffffffffffffffffffffff8416600090815260208190526040812080548392906114619084906125b4565b909155505060405183815273ffffffffffffffffffffffffffffffffffffffff8516906000907fddf252ad1be2c89b69c2b068fc378daa952ba7f163c4a11628f55a4df523b3ef9060200160405180910390a39392505050565b73ffffffffffffffffffffffffffffffffffffffff8216600090815260208190526040812054829081811015611573576040517f08c379a000000000000000000000000000000000000000000000000000000000815260206004820152602260248201527f45524332303a206275726e20616d6f756e7420657863656564732062616c616e60448201527f63650000000000000000000000000000000000000000000000000000000000006064820152608401610580565b73ffffffffffffffffffffffffffffffffffffffff851660009081526020819052604081208383039055600280548492906115af908490612644565b909155505060405184815260009073ffffffffffffffffffffffffffffffffffffffff8716907fddf252ad1be2c89b69c2b068fc378daa952ba7f163c4a11628f55a4df523b3ef9060200160405180910390a3509392505050565b60006116347ff86c915dad5894faca0dfa067c58fdf4307406d255ed0a65db394f82b77f53d45490565b73ffffffffffffffffffffffffffffffffffffffff16146116d7576040517f08c379a000000000000000000000000000000000000000000000000000000000815260206004820152602860248201527f43616e206f6e6c792062652063616c6c656420647572696e6720696e6974696160448201527f6c697a6174696f6e0000000000000000000000000000000000000000000000006064820152608401610580565b6116e081611ef3565b6040517f5df8122f00000000000000000000000000000000000000000000000000000000815230600482015273ffffffffffffffffffffffffffffffffffffffff7f0000000000000000000000000000000000000000000000000000000000000000166024820152731820a4b7618bde71dce8cdc73aab6c95905fad2490635df8122f90604401600060405180830381600087803b15801561178157600080fd5b505af11580156105ac573d6000803e3d6000fd5b60006101008260ff1610611805576040517f08c379a000000000000000000000000000000000000000000000000000000000815260206004820152601660248201527f736869667420616d6f756e7420746f6f206c61726765000000000000000000006044820152606401610580565b60ff821683811b9081901c8414610cf0576040517f08c379a0000000000000000000000000000000000000000000000000000000008152602060048201526024808201527f76616c756520746f6f206c617267652c207368696674206f7574206f6620626f60448201527f756e6473000000000000000000000000000000000000000000000000000000006064820152608401610580565b6000828160ff84166118af8380612607565b901c91506118cd826f03442c4e6074a82f1797f72ac0000000612607565b6118d790826125b4565b905060ff84166118e78684612607565b901c9150611905826f0116b96f757c380fb287fd0e40000000612607565b61190f90826125b4565b905060ff841661191f8684612607565b901c915061193c826e45ae5bdd5f0e03eca1ff4390000000612607565b61194690826125b4565b905060ff84166119568684612607565b901c9150611973826e0defabf91302cd95b9ffda50000000612607565b61197d90826125b4565b905060ff841661198d8684612607565b901c91506119aa826e02529ca9832b22439efff9b8000000612607565b6119b490826125b4565b905060ff84166119c48684612607565b901c91506119e0826d54f1cf12bd04e516b6da88000000612607565b6119ea90826125b4565b905060ff84166119fa8684612607565b901c9150611a16826d0a9e39e257a09ca2d6db51000000612607565b611a2090826125b4565b905060ff8416611a308684612607565b901c9150611a4c826d012e066e7b839fa050c309000000612607565b611a5690826125b4565b905060ff8416611a668684612607565b901c9150611a81826c1e33d7d926c329a1ad1a800000612607565b611a8b90826125b4565b905060ff8416611a9b8684612607565b901c9150611ab6826c02bee513bdb4a6b19b5f800000612607565b611ac090826125b4565b905060ff8416611ad08684612607565b901c9150611aea826b3a9316fa79b88eccf2a00000612607565b611af490826125b4565b905060ff8416611b048684612607565b901c9150611b1e826b048177ebe1fa812375200000612607565b611b2890826125b4565b905060ff8416611b388684612607565b901c9150611b51826a5263fe90242dcbacf00000612607565b611b5b90826125b4565b905060ff8416611b6b8684612607565b901c9150611b84826a057e22099c030d94100000612607565b611b8e90826125b4565b905060ff8416611b9e8684612607565b901c9150611bb6826957e22099c030d9410000612607565b611bc090826125b4565b905060ff8416611bd08684612607565b901c9150611be88269052b6b54569976310000612607565b611bf290826125b4565b905060ff8416611c028684612607565b901c9150611c1982684985f67696bf748000612607565b611c2390826125b4565b905060ff8416611c338684612607565b901c9150611c4a826803dea12ea99e498000612607565b611c5490826125b4565b905060ff8416611c648684612607565b901c9150611c7a826731880f2214b6e000612607565b611c8490826125b4565b905060ff8416611c948684612607565b901c9150611caa8267025bcff56eb36000612607565b611cb490826125b4565b905060ff8416611cc48684612607565b901c9150611cd982661b722e10ab1000612607565b611ce390826125b4565b905060ff8416611cf38684612607565b901c9150611d08826601317c70077000612607565b611d1290826125b4565b905060ff8416611d228684612607565b901c9150611d3682650cba84aafa00612607565b611d4090826125b4565b905060ff8416611d508684612607565b901c9150611d63826482573a0a00612607565b611d6d90826125b4565b905060ff8416611d7d8684612607565b901c9150611d90826405035ad900612607565b611d9a90826125b4565b905060ff8416611daa8684612607565b901c9150611dbc82632f881b00612607565b611dc690826125b4565b905060ff8416611dd68684612607565b901c9150611de8826301b29340612607565b611df290826125b4565b905060ff8416611e028684612607565b901c9150611e1382620efc40612607565b611e1d90826125b4565b905060ff8416611e2d8684612607565b901c9150611e3d82617fe0612607565b611e4790826125b4565b905060ff8416611e578684612607565b901c9150611e6782610420612607565b611e7190826125b4565b905060ff8416611e818684612607565b901c9150611e90826021612607565b611e9a90826125b4565b905060ff8416611eaa8684612607565b901c9150611eb9826001612607565b611ec390826125b4565b905084611ee06f0688589cc0e9505e2f2fee5580000000836125cc565b611eea91906125b4565b95945050505050565b6000611f1d7ff86c915dad5894faca0dfa067c58fdf4307406d255ed0a65db394f82b77f53d45490565b73ffffffffffffffffffffffffffffffffffffffff1614611fc0576040517f08c379a000000000000000000000000000000000000000000000000000000000815260206004820152602860248201527f43616e206f6e6c792062652063616c6c656420647572696e6720696e6974696160448201527f6c697a6174696f6e0000000000000000000000000000000000000000000000006064820152608401610580565b611fc981611fcc565b50565b6000611ff67ff86c915dad5894faca0dfa067c58fdf4307406d255ed0a65db394f82b77f53d45490565b73ffffffffffffffffffffffffffffffffffffffff1614612099576040517f08c379a000000000000000000000000000000000000000000000000000000000815260206004820152602860248201527f43616e206f6e6c792062652063616c6c656420647572696e6720696e6974696160448201527f6c697a6174696f6e0000000000000000000000000000000000000000000000006064820152608401610580565b60008173ffffffffffffffffffffffffffffffffffffffff16635c60da1b6040518163ffffffff1660e01b815260040160206040518083038186803b1580156120e157600080fd5b505afa1580156120f5573d6000803e3d6000fd5b505050506040513d601f19601f82011682018060405250810190612119919061265b565b905073ffffffffffffffffffffffffffffffffffffffff81166121be576040517f08c379a000000000000000000000000000000000000000000000000000000000815260206004820152602c60248201527f696e697469616c697a6174696f6e206661696c7572653a206e6f7468696e672060448201527f746f20696d706c656d656e7400000000000000000000000000000000000000006064820152608401610580565b610f27818073ffffffffffffffffffffffffffffffffffffffff166122017ff86c915dad5894faca0dfa067c58fdf4307406d255ed0a65db394f82b77f53d45490565b73ffffffffffffffffffffffffffffffffffffffff16141561227f576040517f08c379a000000000000000000000000000000000000000000000000000000000815260206004820152601f60248201527f496d706c656d656e746174696f6e20616c7265616479206d61746368696e67006044820152606401610580565b7ff86c915dad5894faca0dfa067c58fdf4307406d255ed0a65db394f82b77f53d455565b600060208083528351808285015260005b818110156122d0578581018301518582016040015282016122b4565b818111156122e2576000604083870101525b50601f017fffffffffffffffffffffffffffffffffffffffffffffffffffffffffffffffe016929092016040019392505050565b73ffffffffffffffffffffffffffffffffffffffff81168114611fc957600080fd5b6000806040838503121561234b57600080fd5b823561235681612316565b946020939093013593505050565b7f4e487b7100000000000000000000000000000000000000000000000000000000600052604160045260246000fd5b600080604083850312156123a657600080fd5b82356123b181612316565b9150602083013567ffffffffffffffff808211156123ce57600080fd5b818501915085601f8301126123e257600080fd5b8135818111156123f4576123f4612364565b604051601f82017fffffffffffffffffffffffffffffffffffffffffffffffffffffffffffffffe0908116603f0116810190838211818310171561243a5761243a612364565b8160405282815288602084870101111561245357600080fd5b8260208601602083013760006020848301015280955050505050509250929050565b60008060006060848603121561248a57600080fd5b833561249581612316565b925060208401356124a581612316565b929592945050506040919091013590565b600080604083850312156124c957600080fd5b8235915060208301356124db81612316565b809150509250929050565b600080604083850312156124f957600080fd5b50508035926020909101359150565b60006020828403121561251a57600080fd5b8135610cf081612316565b60006020828403121561253757600080fd5b5035919050565b6000806040838503121561255157600080fd5b823561255c81612316565b915060208301356124db81612316565b60006020828403121561257e57600080fd5b5051919050565b7f4e487b7100000000000000000000000000000000000000000000000000000000600052601160045260246000fd5b600082198211156125c7576125c7612585565b500190565b600082612602577f4e487b7100000000000000000000000000000000000000000000000000000000600052601260045260246000fd5b500490565b6000817fffffffffffffffffffffffffffffffffffffffffffffffffffffffffffffffff048311821515161561263f5761263f612585565b500290565b60008282101561265657612656612585565b500390565b60006020828403121561266d57600080fd5b8151610cf08161231656fea164736f6c6343000809000af86c915dad5894faca0dfa067c58fdf4307406d255ed0a65db394f82b77f53d4",
  "linkReferences": {},
  "deployedLinkReferences": {}
}