{
  "_format": "hh-sol-artifact-1",
  "contractName": "ECOx",
  "sourceName": "contracts/currency/ECOx.sol",
  "abi": [
    {
      "inputs": [
        {
          "internalType": "contract Policy",
          "name": "_policy",
          "type": "address"
        },
        {
          "internalType": "address",
          "name": "_distributor",
          "type": "address"
        },
        {
          "internalType": "uint256",
          "name": "_initialSupply",
          "type": "uint256"
        },
        {
          "internalType": "address",
          "name": "_ecoAddr",
          "type": "address"
        }
      ],
      "stateMutability": "nonpayable",
      "type": "constructor"
    },
    {
      "anonymous": false,
      "inputs": [
        {
          "indexed": true,
          "internalType": "address",
          "name": "owner",
          "type": "address"
        },
        {
          "indexed": true,
          "internalType": "address",
          "name": "spender",
          "type": "address"
        },
        {
          "indexed": false,
          "internalType": "uint256",
          "name": "value",
          "type": "uint256"
        }
      ],
      "name": "Approval",
      "type": "event"
    },
    {
      "anonymous": false,
      "inputs": [
        {
          "indexed": true,
          "internalType": "address",
          "name": "from",
          "type": "address"
        },
        {
          "indexed": true,
          "internalType": "address",
          "name": "to",
          "type": "address"
        },
        {
          "indexed": false,
          "internalType": "uint256",
          "name": "value",
          "type": "uint256"
        }
      ],
      "name": "Transfer",
      "type": "event"
    },
    {
      "inputs": [],
      "name": "DOMAIN_SEPARATOR",
      "outputs": [
        {
          "internalType": "bytes32",
          "name": "",
          "type": "bytes32"
        }
      ],
      "stateMutability": "view",
      "type": "function"
    },
    {
      "inputs": [],
      "name": "PRECISION",
      "outputs": [
        {
          "internalType": "uint8",
          "name": "",
          "type": "uint8"
        }
      ],
      "stateMutability": "view",
      "type": "function"
    },
    {
      "inputs": [
        {
          "internalType": "address",
          "name": "owner",
          "type": "address"
        },
        {
          "internalType": "address",
          "name": "spender",
          "type": "address"
        }
      ],
      "name": "allowance",
      "outputs": [
        {
          "internalType": "uint256",
          "name": "",
          "type": "uint256"
        }
      ],
      "stateMutability": "view",
      "type": "function"
    },
    {
      "inputs": [
        {
          "internalType": "address",
          "name": "spender",
          "type": "address"
        },
        {
          "internalType": "uint256",
          "name": "amount",
          "type": "uint256"
        }
      ],
      "name": "approve",
      "outputs": [
        {
          "internalType": "bool",
          "name": "",
          "type": "bool"
        }
      ],
      "stateMutability": "nonpayable",
      "type": "function"
    },
    {
      "inputs": [
        {
          "internalType": "address",
          "name": "account",
          "type": "address"
        }
      ],
      "name": "balanceOf",
      "outputs": [
        {
          "internalType": "uint256",
          "name": "",
          "type": "uint256"
        }
      ],
      "stateMutability": "view",
      "type": "function"
    },
    {
      "inputs": [
        {
          "internalType": "bytes32",
          "name": "",
          "type": "bytes32"
        },
        {
          "internalType": "address",
          "name": "_addr",
          "type": "address"
        }
      ],
      "name": "canImplementInterfaceForAddress",
      "outputs": [
        {
          "internalType": "bytes32",
          "name": "",
          "type": "bytes32"
        }
      ],
      "stateMutability": "view",
      "type": "function"
    },
    {
      "inputs": [],
      "name": "clone",
      "outputs": [
        {
          "internalType": "address",
          "name": "",
          "type": "address"
        }
      ],
      "stateMutability": "nonpayable",
      "type": "function"
    },
    {
      "inputs": [],
      "name": "decimals",
      "outputs": [
        {
          "internalType": "uint8",
          "name": "",
          "type": "uint8"
        }
      ],
      "stateMutability": "view",
      "type": "function"
    },
    {
      "inputs": [
        {
          "internalType": "address",
          "name": "spender",
          "type": "address"
        },
        {
          "internalType": "uint256",
          "name": "subtractedValue",
          "type": "uint256"
        }
      ],
      "name": "decreaseAllowance",
      "outputs": [
        {
          "internalType": "bool",
          "name": "",
          "type": "bool"
        }
      ],
      "stateMutability": "nonpayable",
      "type": "function"
    },
    {
      "inputs": [],
      "name": "distributor",
      "outputs": [
        {
          "internalType": "address",
          "name": "",
          "type": "address"
        }
      ],
      "stateMutability": "view",
      "type": "function"
    },
    {
      "inputs": [],
      "name": "ecoToken",
      "outputs": [
        {
          "internalType": "contract IECO",
          "name": "",
          "type": "address"
        }
      ],
      "stateMutability": "view",
      "type": "function"
    },
    {
      "inputs": [
        {
          "internalType": "uint256",
          "name": "_ecoXValue",
          "type": "uint256"
        }
      ],
      "name": "ecoValueOf",
      "outputs": [
        {
          "internalType": "uint256",
          "name": "",
          "type": "uint256"
        }
      ],
      "stateMutability": "view",
      "type": "function"
    },
    {
      "inputs": [
        {
          "internalType": "uint256",
          "name": "_ecoXValue",
          "type": "uint256"
        }
      ],
      "name": "exchange",
      "outputs": [],
      "stateMutability": "nonpayable",
      "type": "function"
    },
    {
      "inputs": [],
      "name": "implementation",
      "outputs": [
        {
          "internalType": "address",
          "name": "_impl",
          "type": "address"
        }
      ],
      "stateMutability": "view",
      "type": "function"
    },
    {
      "inputs": [
        {
          "internalType": "address",
          "name": "spender",
          "type": "address"
        },
        {
          "internalType": "uint256",
          "name": "addedValue",
          "type": "uint256"
        }
      ],
      "name": "increaseAllowance",
      "outputs": [
        {
          "internalType": "bool",
          "name": "",
          "type": "bool"
        }
      ],
      "stateMutability": "nonpayable",
      "type": "function"
    },
    {
      "inputs": [],
      "name": "initialSupply",
      "outputs": [
        {
          "internalType": "uint256",
          "name": "",
          "type": "uint256"
        }
      ],
      "stateMutability": "view",
      "type": "function"
    },
    {
      "inputs": [
        {
          "internalType": "address",
          "name": "_self",
          "type": "address"
        }
      ],
      "name": "initialize",
      "outputs": [],
      "stateMutability": "nonpayable",
      "type": "function"
    },
    {
      "inputs": [
        {
          "internalType": "address",
          "name": "_to",
          "type": "address"
        },
        {
          "internalType": "uint256",
          "name": "_value",
          "type": "uint256"
        }
      ],
      "name": "mint",
      "outputs": [],
      "stateMutability": "nonpayable",
      "type": "function"
    },
    {
      "inputs": [],
      "name": "name",
      "outputs": [
        {
          "internalType": "string",
          "name": "",
          "type": "string"
        }
      ],
      "stateMutability": "view",
      "type": "function"
    },
    {
      "inputs": [
        {
          "internalType": "address",
          "name": "owner",
          "type": "address"
        }
      ],
      "name": "nonces",
      "outputs": [
        {
          "internalType": "uint256",
          "name": "",
          "type": "uint256"
        }
      ],
      "stateMutability": "view",
      "type": "function"
    },
    {
      "inputs": [
        {
          "internalType": "address",
          "name": "owner",
          "type": "address"
        },
        {
          "internalType": "address",
          "name": "spender",
          "type": "address"
        },
        {
          "internalType": "uint256",
          "name": "value",
          "type": "uint256"
        },
        {
          "internalType": "uint256",
          "name": "deadline",
          "type": "uint256"
        },
        {
          "internalType": "uint8",
          "name": "v",
          "type": "uint8"
        },
        {
          "internalType": "bytes32",
          "name": "r",
          "type": "bytes32"
        },
        {
          "internalType": "bytes32",
          "name": "s",
          "type": "bytes32"
        }
      ],
      "name": "permit",
      "outputs": [],
      "stateMutability": "nonpayable",
      "type": "function"
    },
    {
      "inputs": [],
      "name": "policy",
      "outputs": [
        {
          "internalType": "contract Policy",
          "name": "",
          "type": "address"
        }
      ],
      "stateMutability": "view",
      "type": "function"
    },
    {
      "inputs": [
        {
          "internalType": "address",
          "name": "_delegate",
          "type": "address"
        },
        {
          "internalType": "bytes",
          "name": "_data",
          "type": "bytes"
        }
      ],
      "name": "policyCommand",
      "outputs": [],
      "stateMutability": "nonpayable",
      "type": "function"
    },
    {
      "inputs": [
        {
          "internalType": "address",
          "name": "_addr",
          "type": "address"
        }
      ],
      "name": "setExpectedInterfaceSet",
      "outputs": [],
      "stateMutability": "nonpayable",
      "type": "function"
    },
    {
      "inputs": [],
      "name": "symbol",
      "outputs": [
        {
          "internalType": "string",
          "name": "",
          "type": "string"
        }
      ],
      "stateMutability": "view",
      "type": "function"
    },
    {
      "inputs": [],
      "name": "totalSupply",
      "outputs": [
        {
          "internalType": "uint256",
          "name": "",
          "type": "uint256"
        }
      ],
      "stateMutability": "view",
      "type": "function"
    },
    {
      "inputs": [
        {
          "internalType": "address",
          "name": "recipient",
          "type": "address"
        },
        {
          "internalType": "uint256",
          "name": "amount",
          "type": "uint256"
        }
      ],
      "name": "transfer",
      "outputs": [
        {
          "internalType": "bool",
          "name": "",
          "type": "bool"
        }
      ],
      "stateMutability": "nonpayable",
      "type": "function"
    },
    {
      "inputs": [
        {
          "internalType": "address",
          "name": "sender",
          "type": "address"
        },
        {
          "internalType": "address",
          "name": "recipient",
          "type": "address"
        },
        {
          "internalType": "uint256",
          "name": "amount",
          "type": "uint256"
        }
      ],
      "name": "transferFrom",
      "outputs": [
        {
          "internalType": "bool",
          "name": "",
          "type": "bool"
        }
      ],
      "stateMutability": "nonpayable",
      "type": "function"
    },
    {
      "inputs": [
        {
          "internalType": "uint256",
          "name": "_ecoXValue",
          "type": "uint256"
        },
        {
          "internalType": "uint256",
          "name": "_blockNumber",
          "type": "uint256"
        }
      ],
      "name": "valueAt",
      "outputs": [
        {
          "internalType": "uint256",
          "name": "",
          "type": "uint256"
        }
      ],
      "stateMutability": "view",
      "type": "function"
    }
  ],
  "bytecode": "0x6102206040527f6e71edae12b1b97f4d1f60370fef10105fa2faae0126114a169c64845d6126c9610140523480156200003757600080fd5b5060405162003371380380620033718339810160408190526200005a9162000354565b604080518082018252600581526408ac6de5ab60db1b602080830191825283518085018552600481526308a869ef60e31b818301528451808601865260018152603160f81b90830152835190922060e08190527fc89efdaa54c0f20c7adf612882df0950f5a951637e0307cdcb4c672f298b8bc66101008190524660a081815287517f8b73c3c69bb8fe3d512ecc4cf759cc79239f7b179b0ffacaa9a75d522b39400f818701819052818a01959095526060810193909352608080840192909252308382018190528851808503909201825260c093840190985280519085012090529490945261012093909352869283929190620001639083906200119c62000294821b17901c565b610160818152505062000181816200029460201b6200119c1760201c565b610180525062000193905030620002ad565b6001600160a01b039081166101a052604051635df8122f60e01b81523060048201529082166024820152731820a4b7618bde71dce8cdc73aab6c95905fad2490635df8122f90604401600060405180830381600087803b158015620001f757600080fd5b505af11580156200020c573d6000803e3d6000fd5b505050505060008211801562000220575060015b620002725760405162461bcd60e51b815260206004820152601f60248201527f696e697469616c20737570706c79206e6f742070726f7065726c79207365740060448201526064015b60405180910390fd5b6101c0919091526001600160a01b039182166101e052166102005250620003b0565b60006020825110620002a557600080fd5b50601f015190565b6001600160a01b038116620002cf600080516020620033518339815191525490565b6001600160a01b03161415620003285760405162461bcd60e51b815260206004820152601f60248201527f496d706c656d656e746174696f6e20616c7265616479206d61746368696e6700604482015260640162000269565b6000805160206200335183398151915255565b6001600160a01b03811681146200035157600080fd5b50565b600080600080608085870312156200036b57600080fd5b845162000378816200033b565b60208601519094506200038b816200033b565b604086015160608701519194509250620003a5816200033b565b939692955090935050565b60805160a05160c05160e05161010051610120516101405161016051610180516101a0516101c0516101e05161020051612ebe6200049360003960008181610381015281816109df01528181610c280152610ca201526000818161043a0152610f690152600081816102e701528181610f8a01526115ab0152600081816101d9015281816105260152818161084d01528181610ad80152611ac801526000610d85015260006104cf0152600061102001526000611699015260006116e8015260006116c30152600061161c01526000611646015260006116700152612ebe6000f3fe608060405234801561001057600080fd5b50600436106101cf5760003560e01c806340c10f191161010457806395d89b41116100a2578063bfe1092811610071578063bfe1092814610435578063c4d66de81461045c578063d505accf1461046f578063dd62ed3e1461048257600080fd5b806395d89b41146103ff578063a457c2d714610407578063a9059cbb1461041a578063aaf5eb681461042d57600080fd5b8063705d5304116100de578063705d53041461037c57806370a08231146103a357806373b46d5c146103d95780637ecebe00146103ec57600080fd5b806340c10f191461032f57806353556559146103425780635c60da1b1461035557600080fd5b8063249cb3fa116101715780633644e5151161014b5780633644e515146102da578063378dc3dc146102e2578063395093511461030957806339634e0c1461031c57600080fd5b8063249cb3fa1461029f578063313ce567146102b2578063329c53f7146102c757600080fd5b806309d7f23b116101ad57806309d7f23b1461025d57806309ed46071461027257806318160ddd1461027a57806323b872dd1461028c57600080fd5b80630505c8c9146101d457806306fdde0314610225578063095ea7b31461023a575b600080fd5b6101fb7f000000000000000000000000000000000000000000000000000000000000000081565b60405173ffffffffffffffffffffffffffffffffffffffff90911681526020015b60405180910390f35b61022d6104c8565b60405161021c9190612a36565b61024d610248366004612acb565b6104f8565b604051901515815260200161021c565b61027061026b366004612b26565b61050e565b005b6101fb610602565b6003545b60405190815260200161021c565b61024d61029a366004612c08565b610763565b61027e6102ad366004612c49565b610849565b60125b60405160ff909116815260200161021c565b61027e6102d5366004612c79565b610996565b61027e610a6d565b61027e7f000000000000000000000000000000000000000000000000000000000000000081565b61024d610317366004612acb565b610a77565b61027061032a366004612c9b565b610ac0565b61027061033d366004612acb565b610bcc565b610270610350366004612cb8565b610bdb565b7ff86c915dad5894faca0dfa067c58fdf4307406d255ed0a65db394f82b77f53d4546101fb565b6101fb7f000000000000000000000000000000000000000000000000000000000000000081565b61027e6103b1366004612c9b565b73ffffffffffffffffffffffffffffffffffffffff1660009081526001602052604090205490565b61027e6103e7366004612cb8565b610c9d565b61027e6103fa366004612c9b565b610d51565b61022d610d7e565b61024d610415366004612acb565b610da9565b61024d610428366004612acb565b610e81565b6102b5606481565b6101fb7f000000000000000000000000000000000000000000000000000000000000000081565b61027061046a366004612c9b565b610e8e565b61027061047d366004612cd1565b610fb2565b61027e610490366004612d48565b73ffffffffffffffffffffffffffffffffffffffff918216600090815260026020908152604080832093909416825291909152205490565b60606104f37f00000000000000000000000000000000000000000000000000000000000000006111b4565b905090565b600061050533848461121a565b50600192915050565b3373ffffffffffffffffffffffffffffffffffffffff7f000000000000000000000000000000000000000000000000000000000000000016146105d8576040517f08c379a000000000000000000000000000000000000000000000000000000000815260206004820152602e60248201527f4f6e6c792074686520706f6c69637920636f6e7472616374206d61792063616c60448201527f6c2074686973206d6574686f642e00000000000000000000000000000000000060648201526084015b60405180910390fd5b600080825160208401855af43d806000803e8180156105f657816000f35b816000fd5b5050505050565b60003061062d7ff86c915dad5894faca0dfa067c58fdf4307406d255ed0a65db394f82b77f53d45490565b73ffffffffffffffffffffffffffffffffffffffff16146106d0576040517f08c379a000000000000000000000000000000000000000000000000000000000815260206004820152602660248201527f54686973206d6574686f642063616e6e6f742062652063616c6c6564206f6e2060448201527f636c6f6e6573000000000000000000000000000000000000000000000000000060648201526084016105cf565b60006106db3061132b565b6040517fc4d66de800000000000000000000000000000000000000000000000000000000815230600482015290915073ffffffffffffffffffffffffffffffffffffffff82169063c4d66de890602401600060405180830381600087803b15801561074557600080fd5b505af1158015610759573d6000803e3d6000fd5b5092949350505050565b6000610770848484611394565b73ffffffffffffffffffffffffffffffffffffffff8416600090815260026020908152604080832033845290915290205482811015610831576040517f08c379a000000000000000000000000000000000000000000000000000000000815260206004820152602860248201527f45524332303a207472616e7366657220616d6f756e742065786365656473206160448201527f6c6c6f77616e636500000000000000000000000000000000000000000000000060648201526084016105cf565b61083e853385840361121a565b506001949350505050565b60007f000000000000000000000000000000000000000000000000000000000000000073ffffffffffffffffffffffffffffffffffffffff168273ffffffffffffffffffffffffffffffffffffffff1614806108bf575060045473ffffffffffffffffffffffffffffffffffffffff8381169116145b61094b576040517f08c379a000000000000000000000000000000000000000000000000000000000815260206004820152603c60248201527f4f6e6c792074686520706f6c696379206f7220696e7465726661636520636f6e60448201527f74726163742063616e207365742074686520696e746572666163652e0000000060648201526084016105cf565b6040517f455243313832305f4143434550545f4d4147494300000000000000000000000060208201526034015b60405160208183030381529060405280519060200120905092915050565b6040517f981b24d000000000000000000000000000000000000000000000000000000000815260048101829052600090819073ffffffffffffffffffffffffffffffffffffffff7f0000000000000000000000000000000000000000000000000000000000000000169063981b24d09060240160206040518083038186803b158015610a2157600080fd5b505afa158015610a35573d6000803e3d6000fd5b505050506040513d601f19601f82011682018060405250810190610a599190612d76565b9050610a6584826115a6565b949350505050565b60006104f3611602565b33600081815260026020908152604080832073ffffffffffffffffffffffffffffffffffffffff871684529091528120549091610505918590610abb908690612dbe565b61121a565b3373ffffffffffffffffffffffffffffffffffffffff7f00000000000000000000000000000000000000000000000000000000000000001614610b85576040517f08c379a000000000000000000000000000000000000000000000000000000000815260206004820152602e60248201527f4f6e6c792074686520706f6c69637920636f6e7472616374206d61792063616c60448201527f6c2074686973206d6574686f642e00000000000000000000000000000000000060648201526084016105cf565b600480547fffffffffffffffffffffffff00000000000000000000000000000000000000001673ffffffffffffffffffffffffffffffffffffffff92909216919091179055565b610bd68282611736565b505050565b6000610be682610c9d565b9050610bf23383611860565b506040517f40c10f19000000000000000000000000000000000000000000000000000000008152336004820152602481018290527f000000000000000000000000000000000000000000000000000000000000000073ffffffffffffffffffffffffffffffffffffffff16906340c10f1990604401600060405180830381600087803b158015610c8157600080fd5b505af1158015610c95573d6000803e3d6000fd5b505050505050565b6000807f000000000000000000000000000000000000000000000000000000000000000073ffffffffffffffffffffffffffffffffffffffff166318160ddd6040518163ffffffff1660e01b815260040160206040518083038186803b158015610d0657600080fd5b505afa158015610d1a573d6000803e3d6000fd5b505050506040513d601f19601f82011682018060405250810190610d3e9190612d76565b9050610d4a83826115a6565b9392505050565b73ffffffffffffffffffffffffffffffffffffffff81166000908152602081905260408120545b92915050565b60606104f37f00000000000000000000000000000000000000000000000000000000000000006111b4565b33600090815260026020908152604080832073ffffffffffffffffffffffffffffffffffffffff8616845290915281205482811015610e6a576040517f08c379a000000000000000000000000000000000000000000000000000000000815260206004820152602560248201527f45524332303a2064656372656173656420616c6c6f77616e63652062656c6f7760448201527f207a65726f00000000000000000000000000000000000000000000000000000060648201526084016105cf565b610e77338585840361121a565b5060019392505050565b6000610505338484611394565b6000610eb87ff86c915dad5894faca0dfa067c58fdf4307406d255ed0a65db394f82b77f53d45490565b73ffffffffffffffffffffffffffffffffffffffff1614610f5b576040517f08c379a000000000000000000000000000000000000000000000000000000000815260206004820152602860248201527f43616e206f6e6c792062652063616c6c656420647572696e6720696e6974696160448201527f6c697a6174696f6e00000000000000000000000000000000000000000000000060648201526084016105cf565b610f64816119af565b610fae7f00000000000000000000000000000000000000000000000000000000000000007f0000000000000000000000000000000000000000000000000000000000000000611736565b5050565b8342111561101c576040517f08c379a000000000000000000000000000000000000000000000000000000000815260206004820152601d60248201527f45524332305065726d69743a206578706972656420646561646c696e6500000060448201526064016105cf565b60007f00000000000000000000000000000000000000000000000000000000000000008888886110768c73ffffffffffffffffffffffffffffffffffffffff16600090815260208190526040902080546001810190915590565b60408051602081019690965273ffffffffffffffffffffffffffffffffffffffff94851690860152929091166060840152608083015260a082015260c0810186905260e00160405160208183030381529060405280519060200120905060006110de82611b3a565b905060006110ee82878787611b4d565b90508973ffffffffffffffffffffffffffffffffffffffff168173ffffffffffffffffffffffffffffffffffffffff1614611185576040517f08c379a000000000000000000000000000000000000000000000000000000000815260206004820152601e60248201527f45524332305065726d69743a20696e76616c6964207369676e6174757265000060448201526064016105cf565b6111908a8a8a61121a565b50505050505050505050565b600060208251106111ac57600080fd5b50601f015190565b606060f882901c602081106111c857600080fd5b8067ffffffffffffffff8111156111e1576111e1612af7565b6040519080825280601f01601f19166020018201604052801561120b576020820181803683370190505b50915082601f83015250919050565b73ffffffffffffffffffffffffffffffffffffffff82166112bd576040517f08c379a000000000000000000000000000000000000000000000000000000000815260206004820152602260248201527f45524332303a20617070726f766520746f20746865207a65726f20616464726560448201527f737300000000000000000000000000000000000000000000000000000000000060648201526084016105cf565b73ffffffffffffffffffffffffffffffffffffffff83811660008181526002602090815260408083209487168084529482529182902085905590518481527f8c5be1e5ebec7d5bd14f71427d1e84f3dd0314c0f7b2291e5b200ac8c7c3b925910160405180910390a3505050565b6000808260601b90506040517f3d602d80600a3d3981f3363d3d373d3d3d363d7300000000000000000000000081528160148201527f5af43d82803e903d91602b57fd5bf3000000000000000000000000000000000060288201526037816000f0949350505050565b73ffffffffffffffffffffffffffffffffffffffff8216611437576040517f08c379a000000000000000000000000000000000000000000000000000000000815260206004820152602360248201527f45524332303a207472616e7366657220746f20746865207a65726f206164647260448201527f657373000000000000000000000000000000000000000000000000000000000060648201526084016105cf565b73ffffffffffffffffffffffffffffffffffffffff83166000908152600160205260409020548190818110156114ef576040517f08c379a000000000000000000000000000000000000000000000000000000000815260206004820152602660248201527f45524332303a207472616e7366657220616d6f756e742065786365656473206260448201527f616c616e6365000000000000000000000000000000000000000000000000000060648201526084016105cf565b73ffffffffffffffffffffffffffffffffffffffff808616600090815260016020526040808220858503905591861681529081208054849290611533908490612dbe565b925050819055508373ffffffffffffffffffffffffffffffffffffffff168573ffffffffffffffffffffffffffffffffffffffff167fddf252ad1be2c89b69c2b068fc378daa952ba7f163c4a11628f55a4df523b3ef8560405161159991815260200190565b60405180910390a36105fb565b6000807f00000000000000000000000000000000000000000000000000000000000000006115d5856064611b75565b6115df9190612dd6565b90506064836115ee8383611c7d565b6115f89190612e11565b901c949350505050565b60003073ffffffffffffffffffffffffffffffffffffffff7f00000000000000000000000000000000000000000000000000000000000000001614801561166857507f000000000000000000000000000000000000000000000000000000000000000046145b1561169257507f000000000000000000000000000000000000000000000000000000000000000090565b50604080517f00000000000000000000000000000000000000000000000000000000000000006020808301919091527f0000000000000000000000000000000000000000000000000000000000000000828401527f000000000000000000000000000000000000000000000000000000000000000060608301524660808301523060a0808401919091528351808403909101815260c0909201909252805191012090565b600073ffffffffffffffffffffffffffffffffffffffff83166117b5576040517f08c379a000000000000000000000000000000000000000000000000000000000815260206004820152601f60248201527f45524332303a206d696e7420746f20746865207a65726f20616464726573730060448201526064016105cf565b600082905080600360008282546117cc9190612dbe565b909155505073ffffffffffffffffffffffffffffffffffffffff841660009081526001602052604081208054839290611806908490612dbe565b909155505060405183815273ffffffffffffffffffffffffffffffffffffffff8516906000907fddf252ad1be2c89b69c2b068fc378daa952ba7f163c4a11628f55a4df523b3ef9060200160405180910390a39392505050565b73ffffffffffffffffffffffffffffffffffffffff8216600090815260016020526040812054829081811015611918576040517f08c379a000000000000000000000000000000000000000000000000000000000815260206004820152602260248201527f45524332303a206275726e20616d6f756e7420657863656564732062616c616e60448201527f636500000000000000000000000000000000000000000000000000000000000060648201526084016105cf565b73ffffffffffffffffffffffffffffffffffffffff85166000908152600160205260408120838303905560038054849290611954908490612e4e565b909155505060405184815260009073ffffffffffffffffffffffffffffffffffffffff8716907fddf252ad1be2c89b69c2b068fc378daa952ba7f163c4a11628f55a4df523b3ef9060200160405180910390a3509392505050565b60006119d97ff86c915dad5894faca0dfa067c58fdf4307406d255ed0a65db394f82b77f53d45490565b73ffffffffffffffffffffffffffffffffffffffff1614611a7c576040517f08c379a000000000000000000000000000000000000000000000000000000000815260206004820152602860248201527f43616e206f6e6c792062652063616c6c656420647572696e6720696e6974696160448201527f6c697a6174696f6e00000000000000000000000000000000000000000000000060648201526084016105cf565b611a85816122d3565b6040517f5df8122f00000000000000000000000000000000000000000000000000000000815230600482015273ffffffffffffffffffffffffffffffffffffffff7f0000000000000000000000000000000000000000000000000000000000000000166024820152731820a4b7618bde71dce8cdc73aab6c95905fad2490635df8122f90604401600060405180830381600087803b158015611b2657600080fd5b505af11580156105fb573d6000803e3d6000fd5b6000610d78611b47611602565b836123ac565b6000806000611b5e878787876123ee565b91509150611b6b81612506565b5095945050505050565b60006101008260ff1610611be5576040517f08c379a000000000000000000000000000000000000000000000000000000000815260206004820152601660248201527f736869667420616d6f756e7420746f6f206c617267650000000000000000000060448201526064016105cf565b60ff821683811b9081901c8414610d4a576040517f08c379a0000000000000000000000000000000000000000000000000000000008152602060048201526024808201527f76616c756520746f6f206c617267652c207368696674206f7574206f6620626f60448201527f756e64730000000000000000000000000000000000000000000000000000000060648201526084016105cf565b6000828160ff8416611c8f8380612e11565b901c9150611cad826f03442c4e6074a82f1797f72ac0000000612e11565b611cb79082612dbe565b905060ff8416611cc78684612e11565b901c9150611ce5826f0116b96f757c380fb287fd0e40000000612e11565b611cef9082612dbe565b905060ff8416611cff8684612e11565b901c9150611d1c826e45ae5bdd5f0e03eca1ff4390000000612e11565b611d269082612dbe565b905060ff8416611d368684612e11565b901c9150611d53826e0defabf91302cd95b9ffda50000000612e11565b611d5d9082612dbe565b905060ff8416611d6d8684612e11565b901c9150611d8a826e02529ca9832b22439efff9b8000000612e11565b611d949082612dbe565b905060ff8416611da48684612e11565b901c9150611dc0826d54f1cf12bd04e516b6da88000000612e11565b611dca9082612dbe565b905060ff8416611dda8684612e11565b901c9150611df6826d0a9e39e257a09ca2d6db51000000612e11565b611e009082612dbe565b905060ff8416611e108684612e11565b901c9150611e2c826d012e066e7b839fa050c309000000612e11565b611e369082612dbe565b905060ff8416611e468684612e11565b901c9150611e61826c1e33d7d926c329a1ad1a800000612e11565b611e6b9082612dbe565b905060ff8416611e7b8684612e11565b901c9150611e96826c02bee513bdb4a6b19b5f800000612e11565b611ea09082612dbe565b905060ff8416611eb08684612e11565b901c9150611eca826b3a9316fa79b88eccf2a00000612e11565b611ed49082612dbe565b905060ff8416611ee48684612e11565b901c9150611efe826b048177ebe1fa812375200000612e11565b611f089082612dbe565b905060ff8416611f188684612e11565b901c9150611f31826a5263fe90242dcbacf00000612e11565b611f3b9082612dbe565b905060ff8416611f4b8684612e11565b901c9150611f64826a057e22099c030d94100000612e11565b611f6e9082612dbe565b905060ff8416611f7e8684612e11565b901c9150611f96826957e22099c030d9410000612e11565b611fa09082612dbe565b905060ff8416611fb08684612e11565b901c9150611fc88269052b6b54569976310000612e11565b611fd29082612dbe565b905060ff8416611fe28684612e11565b901c9150611ff982684985f67696bf748000612e11565b6120039082612dbe565b905060ff84166120138684612e11565b901c915061202a826803dea12ea99e498000612e11565b6120349082612dbe565b905060ff84166120448684612e11565b901c915061205a826731880f2214b6e000612e11565b6120649082612dbe565b905060ff84166120748684612e11565b901c915061208a8267025bcff56eb36000612e11565b6120949082612dbe565b905060ff84166120a48684612e11565b901c91506120b982661b722e10ab1000612e11565b6120c39082612dbe565b905060ff84166120d38684612e11565b901c91506120e8826601317c70077000612e11565b6120f29082612dbe565b905060ff84166121028684612e11565b901c915061211682650cba84aafa00612e11565b6121209082612dbe565b905060ff84166121308684612e11565b901c9150612143826482573a0a00612e11565b61214d9082612dbe565b905060ff841661215d8684612e11565b901c9150612170826405035ad900612e11565b61217a9082612dbe565b905060ff841661218a8684612e11565b901c915061219c82632f881b00612e11565b6121a69082612dbe565b905060ff84166121b68684612e11565b901c91506121c8826301b29340612e11565b6121d29082612dbe565b905060ff84166121e28684612e11565b901c91506121f382620efc40612e11565b6121fd9082612dbe565b905060ff841661220d8684612e11565b901c915061221d82617fe0612e11565b6122279082612dbe565b905060ff84166122378684612e11565b901c915061224782610420612e11565b6122519082612dbe565b905060ff84166122618684612e11565b901c9150612270826021612e11565b61227a9082612dbe565b905060ff841661228a8684612e11565b901c9150612299826001612e11565b6122a39082612dbe565b9050846122c06f0688589cc0e9505e2f2fee558000000083612dd6565b6122ca9190612dbe565b95945050505050565b60006122fd7ff86c915dad5894faca0dfa067c58fdf4307406d255ed0a65db394f82b77f53d45490565b73ffffffffffffffffffffffffffffffffffffffff16146123a0576040517f08c379a000000000000000000000000000000000000000000000000000000000815260206004820152602860248201527f43616e206f6e6c792062652063616c6c656420647572696e6720696e6974696160448201527f6c697a6174696f6e00000000000000000000000000000000000000000000000060648201526084016105cf565b6123a98161275f565b50565b6040517f190100000000000000000000000000000000000000000000000000000000000060208201526022810183905260428101829052600090606201610978565b6000807f7fffffffffffffffffffffffffffffff5d576e7357a4501ddfe92f46681b20a083111561242557506000905060036124fd565b8460ff16601b1415801561243d57508460ff16601c14155b1561244e57506000905060046124fd565b6040805160008082526020820180845289905260ff881692820192909252606081018690526080810185905260019060a0016020604051602081039080840390855afa1580156124a2573d6000803e3d6000fd5b50506040517fffffffffffffffffffffffffffffffffffffffffffffffffffffffffffffffe0015191505073ffffffffffffffffffffffffffffffffffffffff81166124f6576000600192509250506124fd565b9150600090505b94509492505050565b600081600481111561251a5761251a612e65565b14156125235750565b600181600481111561253757612537612e65565b141561259f576040517f08c379a000000000000000000000000000000000000000000000000000000000815260206004820152601860248201527f45434453413a20696e76616c6964207369676e6174757265000000000000000060448201526064016105cf565b60028160048111156125b3576125b3612e65565b141561261b576040517f08c379a000000000000000000000000000000000000000000000000000000000815260206004820152601f60248201527f45434453413a20696e76616c6964207369676e6174757265206c656e6774680060448201526064016105cf565b600381600481111561262f5761262f612e65565b14156126bd576040517f08c379a000000000000000000000000000000000000000000000000000000000815260206004820152602260248201527f45434453413a20696e76616c6964207369676e6174757265202773272076616c60448201527f756500000000000000000000000000000000000000000000000000000000000060648201526084016105cf565b60048160048111156126d1576126d1612e65565b14156123a9576040517f08c379a000000000000000000000000000000000000000000000000000000000815260206004820152602260248201527f45434453413a20696e76616c6964207369676e6174757265202776272076616c60448201527f756500000000000000000000000000000000000000000000000000000000000060648201526084016105cf565b60006127897ff86c915dad5894faca0dfa067c58fdf4307406d255ed0a65db394f82b77f53d45490565b73ffffffffffffffffffffffffffffffffffffffff161461282c576040517f08c379a000000000000000000000000000000000000000000000000000000000815260206004820152602860248201527f43616e206f6e6c792062652063616c6c656420647572696e6720696e6974696160448201527f6c697a6174696f6e00000000000000000000000000000000000000000000000060648201526084016105cf565b60008173ffffffffffffffffffffffffffffffffffffffff16635c60da1b6040518163ffffffff1660e01b815260040160206040518083038186803b15801561287457600080fd5b505afa158015612888573d6000803e3d6000fd5b505050506040513d601f19601f820116820180604052508101906128ac9190612e94565b905073ffffffffffffffffffffffffffffffffffffffff8116612951576040517f08c379a000000000000000000000000000000000000000000000000000000000815260206004820152602c60248201527f696e697469616c697a6174696f6e206661696c7572653a206e6f7468696e672060448201527f746f20696d706c656d656e74000000000000000000000000000000000000000060648201526084016105cf565b610fae818073ffffffffffffffffffffffffffffffffffffffff166129947ff86c915dad5894faca0dfa067c58fdf4307406d255ed0a65db394f82b77f53d45490565b73ffffffffffffffffffffffffffffffffffffffff161415612a12576040517f08c379a000000000000000000000000000000000000000000000000000000000815260206004820152601f60248201527f496d706c656d656e746174696f6e20616c7265616479206d61746368696e670060448201526064016105cf565b7ff86c915dad5894faca0dfa067c58fdf4307406d255ed0a65db394f82b77f53d455565b600060208083528351808285015260005b81811015612a6357858101830151858201604001528201612a47565b81811115612a75576000604083870101525b50601f017fffffffffffffffffffffffffffffffffffffffffffffffffffffffffffffffe016929092016040019392505050565b73ffffffffffffffffffffffffffffffffffffffff811681146123a957600080fd5b60008060408385031215612ade57600080fd5b8235612ae981612aa9565b946020939093013593505050565b7f4e487b7100000000000000000000000000000000000000000000000000000000600052604160045260246000fd5b60008060408385031215612b3957600080fd5b8235612b4481612aa9565b9150602083013567ffffffffffffffff80821115612b6157600080fd5b818501915085601f830112612b7557600080fd5b813581811115612b8757612b87612af7565b604051601f82017fffffffffffffffffffffffffffffffffffffffffffffffffffffffffffffffe0908116603f01168101908382118183101715612bcd57612bcd612af7565b81604052828152886020848701011115612be657600080fd5b8260208601602083013760006020848301015280955050505050509250929050565b600080600060608486031215612c1d57600080fd5b8335612c2881612aa9565b92506020840135612c3881612aa9565b929592945050506040919091013590565b60008060408385031215612c5c57600080fd5b823591506020830135612c6e81612aa9565b809150509250929050565b60008060408385031215612c8c57600080fd5b50508035926020909101359150565b600060208284031215612cad57600080fd5b8135610d4a81612aa9565b600060208284031215612cca57600080fd5b5035919050565b600080600080600080600060e0888a031215612cec57600080fd5b8735612cf781612aa9565b96506020880135612d0781612aa9565b95506040880135945060608801359350608088013560ff81168114612d2b57600080fd5b9699959850939692959460a0840135945060c09093013592915050565b60008060408385031215612d5b57600080fd5b8235612d6681612aa9565b91506020830135612c6e81612aa9565b600060208284031215612d8857600080fd5b5051919050565b7f4e487b7100000000000000000000000000000000000000000000000000000000600052601160045260246000fd5b60008219821115612dd157612dd1612d8f565b500190565b600082612e0c577f4e487b7100000000000000000000000000000000000000000000000000000000600052601260045260246000fd5b500490565b6000817fffffffffffffffffffffffffffffffffffffffffffffffffffffffffffffffff0483118215151615612e4957612e49612d8f565b500290565b600082821015612e6057612e60612d8f565b500390565b7f4e487b7100000000000000000000000000000000000000000000000000000000600052602160045260246000fd5b600060208284031215612ea657600080fd5b8151610d4a81612aa956fea164736f6c6343000809000af86c915dad5894faca0dfa067c58fdf4307406d255ed0a65db394f82b77f53d4",
  "linkReferences": {},
  "deployedLinkReferences": {}
}