{
  "_format": "hh-sol-artifact-1",
  "contractName": "ECOxStaking",
  "sourceName": "contracts/governance/community/ECOxStaking.sol",
  "abi": [
    {
      "inputs": [
        {
          "internalType": "contract Policy",
          "name": "_policy",
          "type": "address"
        },
        {
          "internalType": "address",
          "name": "_ecoXAddr",
          "type": "address"
        }
      ],
      "stateMutability": "nonpayable",
      "type": "constructor"
    },
    {
      "anonymous": false,
      "inputs": [
        {
          "indexed": true,
          "internalType": "address",
          "name": "owner",
          "type": "address"
        },
        {
          "indexed": true,
          "internalType": "address",
          "name": "spender",
          "type": "address"
        },
        {
          "indexed": false,
          "internalType": "uint256",
          "name": "value",
          "type": "uint256"
        }
      ],
      "name": "Approval",
      "type": "event"
    },
    {
      "anonymous": false,
      "inputs": [
        {
          "indexed": true,
          "internalType": "address",
          "name": "delegator",
          "type": "address"
        },
        {
          "indexed": true,
          "internalType": "address",
          "name": "delegatee",
          "type": "address"
        },
        {
          "indexed": false,
          "internalType": "uint256",
          "name": "amount",
          "type": "uint256"
        }
      ],
      "name": "DelegatedVotes",
      "type": "event"
    },
    {
      "anonymous": false,
      "inputs": [
        {
          "indexed": true,
          "internalType": "address",
          "name": "source",
          "type": "address"
        },
        {
          "indexed": false,
          "internalType": "uint256",
          "name": "amount",
          "type": "uint256"
        }
      ],
      "name": "Deposit",
      "type": "event"
    },
    {
      "anonymous": false,
      "inputs": [
        {
          "indexed": true,
          "internalType": "address",
          "name": "delegator",
          "type": "address"
        },
        {
          "indexed": true,
          "internalType": "address",
          "name": "primaryDelegate",
          "type": "address"
        }
      ],
      "name": "NewPrimaryDelegate",
      "type": "event"
    },
    {
      "anonymous": false,
      "inputs": [
        {
          "indexed": true,
          "internalType": "address",
          "name": "from",
          "type": "address"
        },
        {
          "indexed": true,
          "internalType": "address",
          "name": "to",
          "type": "address"
        },
        {
          "indexed": false,
          "internalType": "uint256",
          "name": "value",
          "type": "uint256"
        }
      ],
      "name": "Transfer",
      "type": "event"
    },
    {
      "anonymous": false,
      "inputs": [
        {
          "indexed": true,
          "internalType": "address",
          "name": "voter",
          "type": "address"
        },
        {
          "indexed": false,
          "internalType": "uint256",
          "name": "newVotes",
          "type": "uint256"
        }
      ],
      "name": "UpdatedVotes",
      "type": "event"
    },
    {
      "anonymous": false,
      "inputs": [
        {
          "indexed": true,
          "internalType": "address",
          "name": "destination",
          "type": "address"
        },
        {
          "indexed": false,
          "internalType": "uint256",
          "name": "amount",
          "type": "uint256"
        }
      ],
      "name": "Withdrawal",
      "type": "event"
    },
    {
      "inputs": [],
      "name": "DOMAIN_SEPARATOR",
      "outputs": [
        {
          "internalType": "bytes32",
          "name": "",
          "type": "bytes32"
        }
      ],
      "stateMutability": "view",
      "type": "function"
    },
    {
      "inputs": [
        {
          "internalType": "address",
          "name": "owner",
          "type": "address"
        },
        {
          "internalType": "address",
          "name": "spender",
          "type": "address"
        }
      ],
      "name": "allowance",
      "outputs": [
        {
          "internalType": "uint256",
          "name": "",
          "type": "uint256"
        }
      ],
      "stateMutability": "view",
      "type": "function"
    },
    {
      "inputs": [
        {
          "internalType": "address",
          "name": "spender",
          "type": "address"
        },
        {
          "internalType": "uint256",
          "name": "amount",
          "type": "uint256"
        }
      ],
      "name": "approve",
      "outputs": [
        {
          "internalType": "bool",
          "name": "",
          "type": "bool"
        }
      ],
      "stateMutability": "nonpayable",
      "type": "function"
    },
    {
      "inputs": [
        {
          "internalType": "address",
          "name": "account",
          "type": "address"
        }
      ],
      "name": "balanceOf",
      "outputs": [
        {
          "internalType": "uint256",
          "name": "",
          "type": "uint256"
        }
      ],
      "stateMutability": "view",
      "type": "function"
    },
    {
      "inputs": [
        {
          "internalType": "bytes32",
          "name": "",
          "type": "bytes32"
        },
        {
          "internalType": "address",
          "name": "_addr",
          "type": "address"
        }
      ],
      "name": "canImplementInterfaceForAddress",
      "outputs": [
        {
          "internalType": "bytes32",
          "name": "",
          "type": "bytes32"
        }
      ],
      "stateMutability": "view",
      "type": "function"
    },
    {
      "inputs": [
        {
          "internalType": "address",
          "name": "",
          "type": "address"
        },
        {
          "internalType": "uint256",
          "name": "",
          "type": "uint256"
        }
      ],
      "name": "checkpoints",
      "outputs": [
        {
          "internalType": "uint32",
          "name": "fromBlock",
          "type": "uint32"
        },
        {
          "internalType": "uint224",
          "name": "value",
          "type": "uint224"
        }
      ],
      "stateMutability": "view",
      "type": "function"
    },
    {
      "inputs": [],
      "name": "clone",
      "outputs": [
        {
          "internalType": "address",
          "name": "",
          "type": "address"
        }
      ],
      "stateMutability": "nonpayable",
      "type": "function"
    },
    {
      "inputs": [],
      "name": "currentGeneration",
      "outputs": [
        {
          "internalType": "uint256",
          "name": "",
          "type": "uint256"
        }
      ],
      "stateMutability": "view",
      "type": "function"
    },
    {
      "inputs": [],
      "name": "decimals",
      "outputs": [
        {
          "internalType": "uint8",
          "name": "",
          "type": "uint8"
        }
      ],
      "stateMutability": "view",
      "type": "function"
    },
    {
      "inputs": [
        {
          "internalType": "address",
          "name": "spender",
          "type": "address"
        },
        {
          "internalType": "uint256",
          "name": "subtractedValue",
          "type": "uint256"
        }
      ],
      "name": "decreaseAllowance",
      "outputs": [
        {
          "internalType": "bool",
          "name": "",
          "type": "bool"
        }
      ],
      "stateMutability": "nonpayable",
      "type": "function"
    },
    {
      "inputs": [
        {
          "internalType": "address",
          "name": "delegatee",
          "type": "address"
        }
      ],
      "name": "delegate",
      "outputs": [],
      "stateMutability": "nonpayable",
      "type": "function"
    },
    {
      "inputs": [
        {
          "internalType": "address",
          "name": "delegatee",
          "type": "address"
        },
        {
          "internalType": "uint256",
          "name": "amount",
          "type": "uint256"
        }
      ],
      "name": "delegateAmount",
      "outputs": [],
      "stateMutability": "nonpayable",
      "type": "function"
    },
    {
      "inputs": [
        {
          "internalType": "address",
          "name": "delegator",
          "type": "address"
        },
        {
          "internalType": "address",
          "name": "delegatee",
          "type": "address"
        },
        {
          "internalType": "uint256",
          "name": "deadline",
          "type": "uint256"
        },
        {
          "internalType": "uint8",
          "name": "v",
          "type": "uint8"
        },
        {
          "internalType": "bytes32",
          "name": "r",
          "type": "bytes32"
        },
        {
          "internalType": "bytes32",
          "name": "s",
          "type": "bytes32"
        }
      ],
      "name": "delegateBySig",
      "outputs": [],
      "stateMutability": "nonpayable",
      "type": "function"
    },
    {
      "inputs": [
        {
          "internalType": "address",
          "name": "",
          "type": "address"
        }
      ],
      "name": "delegationEnabled",
      "outputs": [
        {
          "internalType": "bool",
          "name": "",
          "type": "bool"
        }
      ],
      "stateMutability": "view",
      "type": "function"
    },
    {
      "inputs": [
        {
          "internalType": "address",
          "name": "owner",
          "type": "address"
        }
      ],
      "name": "delegationNonces",
      "outputs": [
        {
          "internalType": "uint256",
          "name": "",
          "type": "uint256"
        }
      ],
      "stateMutability": "view",
      "type": "function"
    },
    {
      "inputs": [
        {
          "internalType": "uint256",
          "name": "_amount",
          "type": "uint256"
        }
      ],
      "name": "deposit",
      "outputs": [],
      "stateMutability": "nonpayable",
      "type": "function"
    },
    {
      "inputs": [],
      "name": "disableDelegation",
      "outputs": [],
      "stateMutability": "nonpayable",
      "type": "function"
    },
    {
      "inputs": [],
      "name": "ecoXToken",
      "outputs": [
        {
          "internalType": "contract IERC20",
          "name": "",
          "type": "address"
        }
      ],
      "stateMutability": "view",
      "type": "function"
    },
    {
      "inputs": [],
      "name": "enableDelegation",
      "outputs": [],
      "stateMutability": "nonpayable",
      "type": "function"
    },
    {
      "inputs": [
        {
          "internalType": "uint256",
          "name": "blockNumber",
          "type": "uint256"
        }
      ],
      "name": "getPastTotalSupply",
      "outputs": [
        {
          "internalType": "uint256",
          "name": "",
          "type": "uint256"
        }
      ],
      "stateMutability": "view",
      "type": "function"
    },
    {
      "inputs": [
        {
          "internalType": "address",
          "name": "_owner",
          "type": "address"
        },
        {
          "internalType": "uint256",
          "name": "_blockNumber",
          "type": "uint256"
        }
      ],
      "name": "getPastVotes",
      "outputs": [
        {
          "internalType": "uint256",
          "name": "",
          "type": "uint256"
        }
      ],
      "stateMutability": "view",
      "type": "function"
    },
    {
      "inputs": [
        {
          "internalType": "address",
          "name": "account",
          "type": "address"
        },
        {
          "internalType": "uint256",
          "name": "blockNumber",
          "type": "uint256"
        }
      ],
      "name": "getPastVotingGons",
      "outputs": [
        {
          "internalType": "uint256",
          "name": "",
          "type": "uint256"
        }
      ],
      "stateMutability": "view",
      "type": "function"
    },
    {
      "inputs": [
        {
          "internalType": "address",
          "name": "account",
          "type": "address"
        }
      ],
      "name": "getPrimaryDelegate",
      "outputs": [
        {
          "internalType": "address",
          "name": "",
          "type": "address"
        }
      ],
      "stateMutability": "view",
      "type": "function"
    },
    {
      "inputs": [
        {
          "internalType": "address",
          "name": "account",
          "type": "address"
        }
      ],
      "name": "getVotingGons",
      "outputs": [
        {
          "internalType": "uint256",
          "name": "",
          "type": "uint256"
        }
      ],
      "stateMutability": "view",
      "type": "function"
    },
    {
      "inputs": [],
      "name": "implementation",
      "outputs": [
        {
          "internalType": "address",
          "name": "_impl",
          "type": "address"
        }
      ],
      "stateMutability": "view",
      "type": "function"
    },
    {
      "inputs": [
        {
          "internalType": "address",
          "name": "spender",
          "type": "address"
        },
        {
          "internalType": "uint256",
          "name": "addedValue",
          "type": "uint256"
        }
      ],
      "name": "increaseAllowance",
      "outputs": [
        {
          "internalType": "bool",
          "name": "",
          "type": "bool"
        }
      ],
      "stateMutability": "nonpayable",
      "type": "function"
    },
    {
      "inputs": [
        {
          "internalType": "address",
          "name": "_self",
          "type": "address"
        }
      ],
      "name": "initialize",
      "outputs": [],
      "stateMutability": "nonpayable",
      "type": "function"
    },
    {
      "inputs": [
        {
          "internalType": "address",
          "name": "account",
          "type": "address"
        }
      ],
      "name": "isOwnDelegate",
      "outputs": [
        {
          "internalType": "bool",
          "name": "",
          "type": "bool"
        }
      ],
      "stateMutability": "view",
      "type": "function"
    },
    {
      "inputs": [],
      "name": "name",
      "outputs": [
        {
          "internalType": "string",
          "name": "",
          "type": "string"
        }
      ],
      "stateMutability": "view",
      "type": "function"
    },
    {
      "inputs": [
        {
          "internalType": "address",
          "name": "owner",
          "type": "address"
        }
      ],
      "name": "nonces",
      "outputs": [
        {
          "internalType": "uint256",
          "name": "",
          "type": "uint256"
        }
      ],
      "stateMutability": "view",
      "type": "function"
    },
    {
      "inputs": [],
      "name": "notifyGenerationIncrease",
      "outputs": [],
      "stateMutability": "nonpayable",
      "type": "function"
    },
    {
      "inputs": [
        {
          "internalType": "address",
          "name": "account",
          "type": "address"
        }
      ],
      "name": "numCheckpoints",
      "outputs": [
        {
          "internalType": "uint32",
          "name": "",
          "type": "uint32"
        }
      ],
      "stateMutability": "view",
      "type": "function"
    },
    {
      "inputs": [
        {
          "internalType": "address",
          "name": "owner",
          "type": "address"
        },
        {
          "internalType": "address",
          "name": "spender",
          "type": "address"
        },
        {
          "internalType": "uint256",
          "name": "value",
          "type": "uint256"
        },
        {
          "internalType": "uint256",
          "name": "deadline",
          "type": "uint256"
        },
        {
          "internalType": "uint8",
          "name": "v",
          "type": "uint8"
        },
        {
          "internalType": "bytes32",
          "name": "r",
          "type": "bytes32"
        },
        {
          "internalType": "bytes32",
          "name": "s",
          "type": "bytes32"
        }
      ],
      "name": "permit",
      "outputs": [],
      "stateMutability": "nonpayable",
      "type": "function"
    },
    {
      "inputs": [],
      "name": "policy",
      "outputs": [
        {
          "internalType": "contract Policy",
          "name": "",
          "type": "address"
        }
      ],
      "stateMutability": "view",
      "type": "function"
    },
    {
      "inputs": [
        {
          "internalType": "address",
          "name": "_delegate",
          "type": "address"
        },
        {
          "internalType": "bytes",
          "name": "_data",
          "type": "bytes"
        }
      ],
      "name": "policyCommand",
      "outputs": [],
      "stateMutability": "nonpayable",
      "type": "function"
    },
    {
      "inputs": [
        {
          "internalType": "address",
          "name": "_who",
          "type": "address"
        }
      ],
      "name": "recordVote",
      "outputs": [],
      "stateMutability": "nonpayable",
      "type": "function"
    },
    {
      "inputs": [
        {
          "internalType": "address",
          "name": "_addr",
          "type": "address"
        }
      ],
      "name": "setExpectedInterfaceSet",
      "outputs": [],
      "stateMutability": "nonpayable",
      "type": "function"
    },
    {
      "inputs": [],
      "name": "symbol",
      "outputs": [
        {
          "internalType": "string",
          "name": "",
          "type": "string"
        }
      ],
      "stateMutability": "view",
      "type": "function"
    },
    {
      "inputs": [],
      "name": "totalSupply",
      "outputs": [
        {
          "internalType": "uint256",
          "name": "",
          "type": "uint256"
        }
      ],
      "stateMutability": "view",
      "type": "function"
    },
    {
      "inputs": [
        {
          "internalType": "uint256",
          "name": "_blockNumber",
          "type": "uint256"
        }
      ],
      "name": "totalSupplyAt",
      "outputs": [
        {
          "internalType": "uint256",
          "name": "",
          "type": "uint256"
        }
      ],
      "stateMutability": "view",
      "type": "function"
    },
    {
      "inputs": [
        {
          "internalType": "uint256",
          "name": "_blockNumber",
          "type": "uint256"
        }
      ],
      "name": "totalVotingECOx",
      "outputs": [
        {
          "internalType": "uint256",
          "name": "",
          "type": "uint256"
        }
      ],
      "stateMutability": "view",
      "type": "function"
    },
    {
      "inputs": [
        {
          "internalType": "address",
          "name": "",
          "type": "address"
        },
        {
          "internalType": "uint256",
          "name": "",
          "type": "uint256"
        }
      ],
      "name": "transfer",
      "outputs": [
        {
          "internalType": "bool",
          "name": "",
          "type": "bool"
        }
      ],
      "stateMutability": "pure",
      "type": "function"
    },
    {
      "inputs": [
        {
          "internalType": "address",
          "name": "",
          "type": "address"
        },
        {
          "internalType": "address",
          "name": "",
          "type": "address"
        },
        {
          "internalType": "uint256",
          "name": "",
          "type": "uint256"
        }
      ],
      "name": "transferFrom",
      "outputs": [
        {
          "internalType": "bool",
          "name": "",
          "type": "bool"
        }
      ],
      "stateMutability": "pure",
      "type": "function"
    },
    {
      "inputs": [],
      "name": "undelegate",
      "outputs": [],
      "stateMutability": "nonpayable",
      "type": "function"
    },
    {
      "inputs": [
        {
          "internalType": "address",
          "name": "delegatee",
          "type": "address"
        }
      ],
      "name": "undelegateFromAddress",
      "outputs": [],
      "stateMutability": "nonpayable",
      "type": "function"
    },
    {
      "inputs": [
        {
          "internalType": "address",
          "name": "_voter",
          "type": "address"
        },
        {
          "internalType": "uint256",
          "name": "_blockNumber",
          "type": "uint256"
        }
      ],
      "name": "votingECOx",
      "outputs": [
        {
          "internalType": "uint256",
          "name": "",
          "type": "uint256"
        }
      ],
      "stateMutability": "view",
      "type": "function"
    },
    {
      "inputs": [
        {
          "internalType": "address",
          "name": "",
          "type": "address"
        }
      ],
      "name": "votingTracker",
      "outputs": [
        {
          "internalType": "uint256",
          "name": "",
          "type": "uint256"
        }
      ],
      "stateMutability": "view",
      "type": "function"
    },
    {
      "inputs": [
        {
          "internalType": "uint256",
          "name": "_amount",
          "type": "uint256"
        }
      ],
      "name": "withdraw",
      "outputs": [],
      "stateMutability": "nonpayable",
      "type": "function"
    }
  ],
  "bytecode": "0x6101e06040527f6e71edae12b1b97f4d1f60370fef10105fa2faae0126114a169c64845d6126c9610140523480156200003757600080fd5b5060405162004b7038038062004b708339810160408190526200005a91620002f5565b60408051808201825260078152660a65a8ac6de5ab60cb1b60208083019182528351808501855260058152640e68a869ef60db1b818301528451808601865260018152603160f81b90830152835190922060e08190527fc89efdaa54c0f20c7adf612882df0950f5a951637e0307cdcb4c672f298b8bc66101008190524660a081815287517f8b73c3c69bb8fe3d512ecc4cf759cc79239f7b179b0ffacaa9a75d522b39400f818701819052818a01959095526060810193909352608080840192909252308382018190528851808503909201825260c093840190985280519085012090529490945261012093909352849283929190829082906200016a9083906200220662000232821b17901c565b610160818152505062000188816200023260201b620022061760201c565b61018052506200019d9250309150506200024b565b6001600160a01b039081166101a052604051635df8122f60e01b81523060048201529082166024820152731820a4b7618bde71dce8cdc73aab6c95905fad2490635df8122f90604401600060405180830381600087803b1580156200020157600080fd5b505af115801562000216573d6000803e3d6000fd5b5050506001600160a01b039092166101c0525062000334915050565b600060208251106200024357600080fd5b50601f015190565b6001600160a01b0381166200026d60008051602062004b508339815191525490565b6001600160a01b03161415620002c95760405162461bcd60e51b815260206004820152601f60248201527f496d706c656d656e746174696f6e20616c7265616479206d61746368696e6700604482015260640160405180910390fd5b60008051602062004b5083398151915255565b6001600160a01b0381168114620002f257600080fd5b50565b600080604083850312156200030957600080fd5b82516200031681620002dc565b60208401519092506200032981620002dc565b809150509250929050565b60805160a05160c05160e05161010051610120516101405161016051610180516101a0516101c051614764620003ec600039600081816104c401528181610da70152611c660152600081816103500152818161081c01528181610b1e01528181610ff30152818161245f0152612f7101526000611952015260006107c501526000611fa001526000612594015260006125e3015260006125be01526000612517015260006125410152600061256b01526147646000f3fe608060405234801561001057600080fd5b50600436106103205760003560e01c80636fcfff45116101a75780639a032e98116100ee578063c4d66de811610097578063dd62ed3e11610071578063dd62ed3e14610725578063e189cba61461076b578063fc08456a1461077e57600080fd5b8063c4d66de8146106ff578063cd3fd3841461051c578063d505accf1461071257600080fd5b8063b20d7fa9116100c8578063b20d7fa9146106b9578063b6b55f25146106cc578063bc52c82d146106df57600080fd5b80639a032e9814610675578063a457c2d714610698578063a9059cbb146106ab57600080fd5b80638ddb428a1161015057806392c1ff441161012a57806392c1ff441461065a57806395d89b411461066d578063981b24d01461054257600080fd5b80638ddb428a146106365780638e539e8c1461063f57806392ab89bb1461065257600080fd5b806388b00fd01161018157806388b00fd0146106135780638d176ba51461061b5780638d57d7481461062357600080fd5b80636fcfff45146105a257806370a08231146105ca5780637ecebe001461060057600080fd5b8063313ce5671161026b5780633a46b1a8116102145780635c19a95c116101ee5780635c19a95c146105555780635c60da1b146105685780636e684b9a1461058f57600080fd5b80633a46b1a81461051c5780633edb7f831461052f5780635bb748ad1461054257600080fd5b80633644e515116102455780633644e515146104ee57806339509351146104f657806339634e0c1461050957600080fd5b8063313ce567146104b057806333800bac146104bf57806335bbc7fe146104e657600080fd5b806309ed4607116102cd57806323b872dd116102a757806323b872dd14610477578063249cb3fa1461048a5780632e1a7d4d1461049d57600080fd5b806309ed46071461041b5780630cdfebfa1461042357806318160ddd1461046f57600080fd5b8063094bc063116102fe578063094bc063146103ac578063095ea7b3146103f357806309d7f23b1461040657600080fd5b806303c8a3c6146103255780630505c8c91461034b57806306fdde0314610397575b600080fd5b6103386103333660046142d7565b610791565b6040519081526020015b60405180910390f35b6103727f000000000000000000000000000000000000000000000000000000000000000081565b60405173ffffffffffffffffffffffffffffffffffffffff9091168152602001610342565b61039f6107be565b60405161034291906142f4565b6103e36103ba3660046142d7565b73ffffffffffffffffffffffffffffffffffffffff166000908152600660205260409020541590565b6040519015158152602001610342565b6103e3610401366004614367565b6107ee565b6104196104143660046143c2565b610804565b005b6103726108f8565b610436610431366004614367565b610a59565b6040805163ffffffff90931683527bffffffffffffffffffffffffffffffffffffffffffffffffffffffff909116602083015201610342565b600354610338565b6103e36104853660046144a4565b610ab5565b6103386104983660046144e5565b610b1a565b6104196104ab366004614515565b610c67565b60405160128152602001610342565b6103727f000000000000000000000000000000000000000000000000000000000000000081565b610419610edd565b610338610f88565b6103e3610504366004614367565b610f92565b6104196105173660046142d7565b610fdb565b61033861052a366004614367565b6110e7565b61041961053d366004614367565b6110fa565b610338610550366004614515565b611189565b6104196105633660046142d7565b611194565b7ff86c915dad5894faca0dfa067c58fdf4307406d255ed0a65db394f82b77f53d454610372565b61033861059d366004614367565b611336565b6105b56105b03660046142d7565b6113f6565b60405163ffffffff9091168152602001610342565b6103386105d83660046142d7565b73ffffffffffffffffffffffffffffffffffffffff1660009081526001602052604090205490565b61033861060e3660046142d7565b6114d8565b610419611503565b610419611620565b6103726106313660046142d7565b6116f7565b610338600d5481565b61033861064d366004614515565b611734565b6104196117d0565b6104196106683660046142d7565b6117de565b61039f61194b565b6103e36106833660046142d7565b60086020526000908152604090205460ff1681565b6103e36106a6366004614367565b611976565b6103e3610485366004614367565b6104196106c7366004614544565b611a4e565b6104196106da366004614515565b611c28565b6103386106ed3660046142d7565b600c6020526000908152604090205481565b61041961070d3660046142d7565b611db0565b6104196107203660046145a7565b611f32565b610338610733366004614615565b73ffffffffffffffffffffffffffffffffffffffff918216600090815260026020908152604080832093909416825291909152205490565b6103386107793660046142d7565b6120f1565b61041961078c3660046142d7565b6121f9565b73ffffffffffffffffffffffffffffffffffffffff81166000908152600460205260408120545b92915050565b60606107e97f000000000000000000000000000000000000000000000000000000000000000061221e565b905090565b60006107fb338484612284565b50600192915050565b3373ffffffffffffffffffffffffffffffffffffffff7f000000000000000000000000000000000000000000000000000000000000000016146108ce576040517f08c379a000000000000000000000000000000000000000000000000000000000815260206004820152602e60248201527f4f6e6c792074686520706f6c69637920636f6e7472616374206d61792063616c60448201527f6c2074686973206d6574686f642e00000000000000000000000000000000000060648201526084015b60405180910390fd5b600080825160208401855af43d806000803e8180156108ec57816000f35b816000fd5b5050505050565b6000306109237ff86c915dad5894faca0dfa067c58fdf4307406d255ed0a65db394f82b77f53d45490565b73ffffffffffffffffffffffffffffffffffffffff16146109c6576040517f08c379a000000000000000000000000000000000000000000000000000000000815260206004820152602660248201527f54686973206d6574686f642063616e6e6f742062652063616c6c6564206f6e2060448201527f636c6f6e6573000000000000000000000000000000000000000000000000000060648201526084016108c5565b60006109d130612395565b6040517fc4d66de800000000000000000000000000000000000000000000000000000000815230600482015290915073ffffffffffffffffffffffffffffffffffffffff82169063c4d66de890602401600060405180830381600087803b158015610a3b57600080fd5b505af1158015610a4f573d6000803e3d6000fd5b5092949350505050565b60096020528160005260406000208181548110610a7557600080fd5b60009182526020909120015463ffffffff8116925064010000000090047bffffffffffffffffffffffffffffffffffffffffffffffffffffffff16905082565b6040517f08c379a000000000000000000000000000000000000000000000000000000000815260206004820152601a60248201527f7345434f78206973206e6f6e2d7472616e736665727261626c6500000000000060448201526000906064016108c5565b60007f000000000000000000000000000000000000000000000000000000000000000073ffffffffffffffffffffffffffffffffffffffff168273ffffffffffffffffffffffffffffffffffffffff161480610b905750600b5473ffffffffffffffffffffffffffffffffffffffff8381169116145b610c1c576040517f08c379a000000000000000000000000000000000000000000000000000000000815260206004820152603c60248201527f4f6e6c792074686520706f6c696379206f7220696e7465726661636520636f6e60448201527f74726163742063616e207365742074686520696e746572666163652e0000000060648201526084016108c5565b6040517f455243313832305f4143434550545f4d4147494300000000000000000000000060208201526034015b60405160208183030381529060405280519060200120905092915050565b33610c7281836123fe565b506001600d54610c829190614672565b73ffffffffffffffffffffffffffffffffffffffff82166000908152600c602052604090205410610d5b576040517f08c379a000000000000000000000000000000000000000000000000000000000815260206004820152604660248201527f4d757374206e6f7420766f7465206f7220756e64656c656761746520696e207460448201527f68652067656e65726174696f6e206f6e206f72206265666f726520776974686460648201527f726177696e670000000000000000000000000000000000000000000000000000608482015260a4016108c5565b6040517fa9059cbb00000000000000000000000000000000000000000000000000000000815273ffffffffffffffffffffffffffffffffffffffff8281166004830152602482018490527f0000000000000000000000000000000000000000000000000000000000000000169063a9059cbb90604401602060405180830381600087803b158015610deb57600080fd5b505af1158015610dff573d6000803e3d6000fd5b505050506040513d601f19601f82011682018060405250810190610e239190614689565b610e89576040517f08c379a000000000000000000000000000000000000000000000000000000000815260206004820152600f60248201527f5472616e73666572204661696c6564000000000000000000000000000000000060448201526064016108c5565b8073ffffffffffffffffffffffffffffffffffffffff167f7fcf532c15f0a6db0bd6d0e038bea71d30d808c7d98cb3bf7268a95bf5081b6583604051610ed191815260200190565b60405180910390a25050565b610f067fae30bfb87dec2bd0c16be9790f95842d84f58dc70b0a8f6ed22e9556176a7b19612422565b73ffffffffffffffffffffffffffffffffffffffff1663172195226040518163ffffffff1660e01b815260040160206040518083038186803b158015610f4b57600080fd5b505afa158015610f5f573d6000803e3d6000fd5b505050506040513d601f19601f82011682018060405250810190610f8391906146ab565b600d55565b60006107e96124fd565b33600081815260026020908152604080832073ffffffffffffffffffffffffffffffffffffffff8716845290915281205490916107fb918590610fd69086906146c4565b612284565b3373ffffffffffffffffffffffffffffffffffffffff7f000000000000000000000000000000000000000000000000000000000000000016146110a0576040517f08c379a000000000000000000000000000000000000000000000000000000000815260206004820152602e60248201527f4f6e6c792074686520706f6c69637920636f6e7472616374206d61792063616c60448201527f6c2074686973206d6574686f642e00000000000000000000000000000000000060648201526084016108c5565b600b80547fffffffffffffffffffffffff00000000000000000000000000000000000000001673ffffffffffffffffffffffffffffffffffffffff92909216919091179055565b60006110f38383611336565b9392505050565b73ffffffffffffffffffffffffffffffffffffffff821633141561117a576040517f08c379a000000000000000000000000000000000000000000000000000000000815260206004820152601b60248201527f446f206e6f742064656c656761746520746f20796f757273656c66000000000060448201526064016108c5565b611185338383612631565b5050565b60006107b882611734565b73ffffffffffffffffffffffffffffffffffffffff811633141561123a576040517f08c379a000000000000000000000000000000000000000000000000000000000815260206004820152603060248201527f55736520756e64656c656761746520696e7374656164206f662064656c65676160448201527f74696e6720746f20796f757273656c660000000000000000000000000000000060648201526084016108c5565b73ffffffffffffffffffffffffffffffffffffffff811660009081526008602052604090205460ff166112ef576040517f08c379a000000000000000000000000000000000000000000000000000000000815260206004820152602860248201527f5072696d6172792064656c656761746573206d75737420656e61626c6520646560448201527f6c65676174696f6e00000000000000000000000000000000000000000000000060648201526084016108c5565b33600090815260066020526040902054156113105761131061078c336116f7565b336000818152600160205260409020549061132c908383612631565b61118533836128d3565b6000438211156113c7576040517f08c379a0000000000000000000000000000000000000000000000000000000008152602060048201526024808201527f566f7465436865636b706f696e74733a20626c6f636b206e6f7420796574206d60448201527f696e65640000000000000000000000000000000000000000000000000000000060648201526084016108c5565b73ffffffffffffffffffffffffffffffffffffffff831660009081526009602052604090206110f3908361298f565b73ffffffffffffffffffffffffffffffffffffffff811660009081526009602052604081205463ffffffff10156114af576040517f08c379a000000000000000000000000000000000000000000000000000000000815260206004820152602d60248201527f6e756d626572206f6620636865636b706f696e74732063616e6e6f742062652060448201527f63617374656420736166656c790000000000000000000000000000000000000060648201526084016108c5565b5073ffffffffffffffffffffffffffffffffffffffff1660009081526009602052604090205490565b73ffffffffffffffffffffffffffffffffffffffff81166000908152602081905260408120546107b8565b61150c336120f1565b33600090815260016020526040902054148015611536575033600090815260066020526040902054155b6115e9576040517f08c379a0000000000000000000000000000000000000000000000000000000008152602060048201526044602482018190527f43616e6e6f742064697361626c652064656c65676174696f6e20696620796f75908201527f2068617665206f75747374616e64696e672064656c65676174696f6e7320746f60648201527f20796f7500000000000000000000000000000000000000000000000000000000608482015260a4016108c5565b33600090815260086020526040902080547fffffffffffffffffffffffffffffffffffffffffffffffffffffffffffffff00169055565b33600090815260066020526040902054156116bd576040517f08c379a000000000000000000000000000000000000000000000000000000000815260206004820152603b60248201527f43616e6e6f7420656e61626c652064656c65676174696f6e20696620796f752060448201527f68617665206f75747374616e64696e672064656c65676174696f6e000000000060648201526084016108c5565b33600090815260086020526040902080547fffffffffffffffffffffffffffffffffffffffffffffffffffffffffffffff00166001179055565b73ffffffffffffffffffffffffffffffffffffffff808216600090815260076020526040812054909116801561172d57806110f3565b5090919050565b6000438211156117c5576040517f08c379a0000000000000000000000000000000000000000000000000000000008152602060048201526024808201527f566f7465436865636b706f696e74733a20626c6f636b206e6f7420796574206d60448201527f696e65640000000000000000000000000000000000000000000000000000000060648201526084016108c5565b6107b8600a8361298f565b6117dc61078c336116f7565b565b6118077f331e3a11698d428947c09d6cfecc92b2ccbc4a527e4e795d850152babfaff37a612422565b73ffffffffffffffffffffffffffffffffffffffff163373ffffffffffffffffffffffffffffffffffffffff16148061189357506118647f65474dbc3934a157baaaa893dea8c73453f0cc9c47a4f857047e8f0c8b54888f612422565b73ffffffffffffffffffffffffffffffffffffffff163373ffffffffffffffffffffffffffffffffffffffff16145b61191f576040517f08c379a000000000000000000000000000000000000000000000000000000000815260206004820152602160248201527f4d757374206265206120766f74696e6720636f6e747261637420746f2063616c60448201527f6c0000000000000000000000000000000000000000000000000000000000000060648201526084016108c5565b600d5473ffffffffffffffffffffffffffffffffffffffff9091166000908152600c6020526040902055565b60606107e97f000000000000000000000000000000000000000000000000000000000000000061221e565b33600090815260026020908152604080832073ffffffffffffffffffffffffffffffffffffffff8616845290915281205482811015611a37576040517f08c379a000000000000000000000000000000000000000000000000000000000815260206004820152602560248201527f45524332303a2064656372656173656420616c6c6f77616e63652062656c6f7760448201527f207a65726f00000000000000000000000000000000000000000000000000000060648201526084016108c5565b611a443385858403612284565b5060019392505050565b8473ffffffffffffffffffffffffffffffffffffffff168673ffffffffffffffffffffffffffffffffffffffff161415611ae4576040517f08c379a000000000000000000000000000000000000000000000000000000000815260206004820152601b60248201527f446f206e6f742064656c656761746520746f20796f757273656c66000000000060448201526064016108c5565b73ffffffffffffffffffffffffffffffffffffffff851660009081526008602052604090205460ff16611b99576040517f08c379a000000000000000000000000000000000000000000000000000000000815260206004820152602860248201527f5072696d6172792064656c656761746573206d75737420656e61626c6520646560448201527f6c65676174696f6e00000000000000000000000000000000000000000000000060648201526084016108c5565b73ffffffffffffffffffffffffffffffffffffffff861660009081526006602052604090205415611bd657611bd686611bd1886116f7565b612b37565b611be4868686868686612bbc565b73ffffffffffffffffffffffffffffffffffffffff8616600090815260016020526040902054611c15878783612631565b611c1f87876128d3565b50505050505050565b6040517f23b872dd000000000000000000000000000000000000000000000000000000008152336004820181905230602483015260448201839052907f000000000000000000000000000000000000000000000000000000000000000073ffffffffffffffffffffffffffffffffffffffff16906323b872dd90606401602060405180830381600087803b158015611cbf57600080fd5b505af1158015611cd3573d6000803e3d6000fd5b505050506040513d601f19601f82011682018060405250810190611cf79190614689565b611d5d576040517f08c379a000000000000000000000000000000000000000000000000000000000815260206004820152600f60248201527f5472616e73666572206661696c6564000000000000000000000000000000000060448201526064016108c5565b611d678183612d8d565b508073ffffffffffffffffffffffffffffffffffffffff167fe1fffcc4923d04b559f4d29a8bfc6cda04eb5b0d3c460751c2402c5c5cc9109c83604051610ed191815260200190565b6000611dda7ff86c915dad5894faca0dfa067c58fdf4307406d255ed0a65db394f82b77f53d45490565b73ffffffffffffffffffffffffffffffffffffffff1614611e7d576040517f08c379a000000000000000000000000000000000000000000000000000000000815260206004820152602860248201527f43616e206f6e6c792062652063616c6c656420647572696e6720696e6974696160448201527f6c697a6174696f6e00000000000000000000000000000000000000000000000060648201526084016108c5565b611e8681612e58565b611eaf7fae30bfb87dec2bd0c16be9790f95842d84f58dc70b0a8f6ed22e9556176a7b19612422565b73ffffffffffffffffffffffffffffffffffffffff1663172195226040518163ffffffff1660e01b815260040160206040518083038186803b158015611ef457600080fd5b505afa158015611f08573d6000803e3d6000fd5b505050506040513d601f19601f82011682018060405250810190611f2c91906146ab565b600d5550565b83421115611f9c576040517f08c379a000000000000000000000000000000000000000000000000000000000815260206004820152601d60248201527f45524332305065726d69743a206578706972656420646561646c696e6500000060448201526064016108c5565b60007f0000000000000000000000000000000000000000000000000000000000000000888888611fcb8c612fe3565b60408051602081019690965273ffffffffffffffffffffffffffffffffffffffff94851690860152929091166060840152608083015260a082015260c0810186905260e001604051602081830303815290604052805190602001209050600061203382613019565b905060006120438287878761302c565b90508973ffffffffffffffffffffffffffffffffffffffff168173ffffffffffffffffffffffffffffffffffffffff16146120da576040517f08c379a000000000000000000000000000000000000000000000000000000000815260206004820152601e60248201527f45524332305065726d69743a20696e76616c6964207369676e6174757265000060448201526064016108c5565b6120e58a8a8a612284565b50505050505050505050565b73ffffffffffffffffffffffffffffffffffffffff8116600090815260096020908152604080832080548251818502810185019093528083528493849084015b82821015612193576000848152602090819020604080518082019091529084015463ffffffff8116825264010000000090047bffffffffffffffffffffffffffffffffffffffffffffffffffffffff1681830152825260019092019101612131565b5050825192935050811590506121d057816121af600183614672565b815181106121bf576121bf6146dc565b6020026020010151602001516121d3565b60005b7bffffffffffffffffffffffffffffffffffffffffffffffffffffffff16949350505050565b6122033382612b37565b50565b6000602082511061221657600080fd5b50601f015190565b606060f882901c6020811061223257600080fd5b8067ffffffffffffffff81111561224b5761224b614393565b6040519080825280601f01601f191660200182016040528015612275576020820181803683370190505b50915082601f83015250919050565b73ffffffffffffffffffffffffffffffffffffffff8216612327576040517f08c379a000000000000000000000000000000000000000000000000000000000815260206004820152602260248201527f45524332303a20617070726f766520746f20746865207a65726f20616464726560448201527f737300000000000000000000000000000000000000000000000000000000000060648201526084016108c5565b73ffffffffffffffffffffffffffffffffffffffff83811660008181526002602090815260408083209487168084529482529182902085905590518481527f8c5be1e5ebec7d5bd14f71427d1e84f3dd0314c0f7b2291e5b200ac8c7c3b925910160405180910390a3505050565b6000808260601b90506040517f3d602d80600a3d3981f3363d3d373d3d3d363d7300000000000000000000000081528160148201527f5af43d82803e903d91602b57fd5bf3000000000000000000000000000000000060288201526037816000f0949350505050565b600061240a8383613054565b915061241a600a6131af846131bb565b509092915050565b6040517faabbb8ca00000000000000000000000000000000000000000000000000000000815273ffffffffffffffffffffffffffffffffffffffff7f000000000000000000000000000000000000000000000000000000000000000016600482015260248101829052600090731820a4b7618bde71dce8cdc73aab6c95905fad249063aabbb8ca9060440160206040518083038186803b1580156124c557600080fd5b505afa1580156124d9573d6000803e3d6000fd5b505050506040513d601f19601f820116820180604052508101906107b8919061470b565b60003073ffffffffffffffffffffffffffffffffffffffff7f00000000000000000000000000000000000000000000000000000000000000001614801561256357507f000000000000000000000000000000000000000000000000000000000000000046145b1561258d57507f000000000000000000000000000000000000000000000000000000000000000090565b50604080517f00000000000000000000000000000000000000000000000000000000000000006020808301919091527f0000000000000000000000000000000000000000000000000000000000000000828401527f000000000000000000000000000000000000000000000000000000000000000060608301524660808301523060a0808401919091528351808403909101815260c0909201909252805191012090565b73ffffffffffffffffffffffffffffffffffffffff831660009081526006602090815260408083205460019092529091205461266d9190614672565b8111156126fc576040517f08c379a000000000000000000000000000000000000000000000000000000000815260206004820152603d60248201527f4d757374206861766520616e20756e64656c65676174656420616d6f756e742060448201527f617661696c61626c6520746f20636f7665722064656c65676174696f6e00000060648201526084016108c5565b73ffffffffffffffffffffffffffffffffffffffff831660009081526008602052604090205460ff16156127d8576040517f08c379a000000000000000000000000000000000000000000000000000000000815260206004820152604260248201527f43616e6e6f742064656c656761746520696620796f75206861766520656e616260448201527f6c6564207072696d6172792064656c65676174696f6e20746f20796f7572736560648201527f6c66000000000000000000000000000000000000000000000000000000000000608482015260a4016108c5565b8173ffffffffffffffffffffffffffffffffffffffff168373ffffffffffffffffffffffffffffffffffffffff167f98dafce09283426336da94838681d1fe723dcd8d49f67902076eebf3e2d1ddd68360405161283791815260200190565b60405180910390a373ffffffffffffffffffffffffffffffffffffffff8084166000908152600560209081526040808320938616835292905290812080548392906128839084906146c4565b909155505073ffffffffffffffffffffffffffffffffffffffff8316600090815260066020526040812080548392906128bd9084906146c4565b909155506128ce9050838383613534565b505050565b73ffffffffffffffffffffffffffffffffffffffff828116600090815260076020526040902080547fffffffffffffffffffffffff0000000000000000000000000000000000000000169183169182179055156129305780612932565b815b73ffffffffffffffffffffffffffffffffffffffff168273ffffffffffffffffffffffffffffffffffffffff167f88a6f95a94556f83d3752aaa691040ea5c04d9db823566be9f2f325eb866c9ae60405160405180910390a35050565b8154600090806129a35760009150506107b8565b6000846129b1600184614672565b815481106129c1576129c16146dc565b60009182526020918290206040805180820190915291015463ffffffff81168083526401000000009091047bffffffffffffffffffffffffffffffffffffffffffffffffffffffff169282019290925291508410612a4457602001517bffffffffffffffffffffffffffffffffffffffffffffffffffffffff1691506107b89050565b8160005b81811015612ab25760006001612a5e8385614672565b612a69911c836146c4565b905086888281548110612a7e57612a7e6146dc565b60009182526020909120015463ffffffff161115612a9e57809250612aac565b612aa98160016146c4565b91505b50612a48565b8115612b0b5786612ac4600184614672565b81548110612ad457612ad46146dc565b60009182526020909120015464010000000090047bffffffffffffffffffffffffffffffffffffffffffffffffffffffff16612b0e565b60005b7bffffffffffffffffffffffffffffffffffffffffffffffffffffffff16979650505050505050565b73ffffffffffffffffffffffffffffffffffffffff808316600090815260056020908152604080832093851683529290522054612b758383836136bd565b612b7e836116f7565b73ffffffffffffffffffffffffffffffffffffffff168273ffffffffffffffffffffffffffffffffffffffff1614156128ce576128ce8360006128d3565b83421115612c26576040517f08c379a000000000000000000000000000000000000000000000000000000000815260206004820181905260248201527f44656c65676174655065726d69743a206578706972656420646561646c696e6560448201526064016108c5565b60007fd46e8b93b5190df6403875402a5c13897b72d2a576da5d1bfea20a63638d216e8787612c548a6136f8565b60408051602081019590955273ffffffffffffffffffffffffffffffffffffffff9384169085015291166060830152608082015260a0810186905260c0016040516020818303038152906040528051906020012090506000612cb582613019565b90506000612cc58287878761302c565b90508873ffffffffffffffffffffffffffffffffffffffff168173ffffffffffffffffffffffffffffffffffffffff1614612d82576040517f08c379a000000000000000000000000000000000000000000000000000000000815260206004820152602160248201527f44656c65676174655065726d69743a20696e76616c6964207369676e6174757260448201527f650000000000000000000000000000000000000000000000000000000000000060648201526084016108c5565b505050505050505050565b6000612d998383613724565b6003549092507bffffffffffffffffffffffffffffffffffffffffffffffffffffffff1015612e4a576040517f08c379a000000000000000000000000000000000000000000000000000000000815260206004820152603560248201527f566f7465436865636b706f696e74733a20746f74616c20737570706c7920726960448201527f736b73206f766572666c6f77696e6720766f746573000000000000000000000060648201526084016108c5565b61241a600a613853846131bb565b6000612e827ff86c915dad5894faca0dfa067c58fdf4307406d255ed0a65db394f82b77f53d45490565b73ffffffffffffffffffffffffffffffffffffffff1614612f25576040517f08c379a000000000000000000000000000000000000000000000000000000000815260206004820152602860248201527f43616e206f6e6c792062652063616c6c656420647572696e6720696e6974696160448201527f6c697a6174696f6e00000000000000000000000000000000000000000000000060648201526084016108c5565b612f2e8161385f565b6040517f5df8122f00000000000000000000000000000000000000000000000000000000815230600482015273ffffffffffffffffffffffffffffffffffffffff7f0000000000000000000000000000000000000000000000000000000000000000166024820152731820a4b7618bde71dce8cdc73aab6c95905fad2490635df8122f90604401600060405180830381600087803b158015612fcf57600080fd5b505af11580156108f1573d6000803e3d6000fd5b73ffffffffffffffffffffffffffffffffffffffff8116600090815260208190526040812080545b815460010190915592915050565b60006107b86130266124fd565b83613935565b600080600061303d87878787613977565b9150915061304a81613a8f565b5095945050505050565b73ffffffffffffffffffffffffffffffffffffffff821660009081526001602052604081205482908181101561310c576040517f08c379a000000000000000000000000000000000000000000000000000000000815260206004820152602260248201527f45524332303a206275726e20616d6f756e7420657863656564732062616c616e60448201527f636500000000000000000000000000000000000000000000000000000000000060648201526084016108c5565b73ffffffffffffffffffffffffffffffffffffffff85166000908152600160205260408120838303905560038054849290613148908490614672565b909155505060405184815260009073ffffffffffffffffffffffffffffffffffffffff8716907fddf252ad1be2c89b69c2b068fc378daa952ba7f163c4a11628f55a4df523b3ef9060200160405180910390a36131a785600084613ce8565b509392505050565b60006110f38284614672565b60007bffffffffffffffffffffffffffffffffffffffffffffffffffffffff821115613269576040517f08c379a000000000000000000000000000000000000000000000000000000000815260206004820152602160248201527f6e65775765696768742063616e6e6f742062652063617374656420736166656c60448201527f790000000000000000000000000000000000000000000000000000000000000060648201526084016108c5565b63ffffffff4311156132fc576040517f08c379a0000000000000000000000000000000000000000000000000000000008152602060048201526024808201527f626c6f636b206e756d6265722063616e6e6f742062652063617374656420736160448201527f66656c790000000000000000000000000000000000000000000000000000000060648201526084016108c5565b83548061336f5750506040805180820190915263ffffffff43811682527bffffffffffffffffffffffffffffffffffffffffffffffffffffffff808416602080850191825287546001810189556000898152919091209451915190921664010000000002921691909117910155806110f3565b60008561337d600184614672565b8154811061338d5761338d6146dc565b60009182526020822001805490925064010000000090047bffffffffffffffffffffffffffffffffffffffffffffffffffffffff16906133d1828763ffffffff8a16565b90507bffffffffffffffffffffffffffffffffffffffffffffffffffffffff81111561347f576040517f08c379a000000000000000000000000000000000000000000000000000000000815260206004820152602160248201527f6e65775765696768742063616e6e6f742062652063617374656420736166656c60448201527f790000000000000000000000000000000000000000000000000000000000000060648201526084016108c5565b825463ffffffff164314156134c457825463ffffffff166401000000007bffffffffffffffffffffffffffffffffffffffffffffffffffffffff831602178355613529565b6040805180820190915263ffffffff43811682527bffffffffffffffffffffffffffffffffffffffffffffffffffffffff80841660208085019182528c54600181018e5560008e81529190912094519151909216640100000000029216919091179101555b979650505050505050565b8173ffffffffffffffffffffffffffffffffffffffff168373ffffffffffffffffffffffffffffffffffffffff16141580156135705750600081115b156128ce5773ffffffffffffffffffffffffffffffffffffffff8316156136175773ffffffffffffffffffffffffffffffffffffffff831660009081526009602052604081206135c3906131af846131bb565b90508373ffffffffffffffffffffffffffffffffffffffff167fd1b0c5e03e405cea97403894c17af4610d6d851ffe4baa03de1ca5e7c700cd758260405161360d91815260200190565b60405180910390a2505b73ffffffffffffffffffffffffffffffffffffffff8216156128ce5773ffffffffffffffffffffffffffffffffffffffff8216600090815260096020526040812061366590613853846131bb565b90508273ffffffffffffffffffffffffffffffffffffffff167fd1b0c5e03e405cea97403894c17af4610d6d851ffe4baa03de1ca5e7c700cd75826040516136af91815260200190565b60405180910390a250505050565b73ffffffffffffffffffffffffffffffffffffffff8083166000908152600c60205260408082205492861682529020556128ce838383613f4f565b73ffffffffffffffffffffffffffffffffffffffff81166000908152600460205260408120805461300b565b600073ffffffffffffffffffffffffffffffffffffffff83166137a3576040517f08c379a000000000000000000000000000000000000000000000000000000000815260206004820152601f60248201527f45524332303a206d696e7420746f20746865207a65726f20616464726573730060448201526064016108c5565b600082905080600360008282546137ba91906146c4565b909155505073ffffffffffffffffffffffffffffffffffffffff8416600090815260016020526040812080548392906137f49084906146c4565b909155505060405183815273ffffffffffffffffffffffffffffffffffffffff8516906000907fddf252ad1be2c89b69c2b068fc378daa952ba7f163c4a11628f55a4df523b3ef9060200160405180910390a36110f360008583613ce8565b60006110f382846146c4565b60006138897ff86c915dad5894faca0dfa067c58fdf4307406d255ed0a65db394f82b77f53d45490565b73ffffffffffffffffffffffffffffffffffffffff161461392c576040517f08c379a000000000000000000000000000000000000000000000000000000000815260206004820152602860248201527f43616e206f6e6c792062652063616c6c656420647572696e6720696e6974696160448201527f6c697a6174696f6e00000000000000000000000000000000000000000000000060648201526084016108c5565b61220381613fde565b6040517f190100000000000000000000000000000000000000000000000000000000000060208201526022810183905260428101829052600090606201610c49565b6000807f7fffffffffffffffffffffffffffffff5d576e7357a4501ddfe92f46681b20a08311156139ae5750600090506003613a86565b8460ff16601b141580156139c657508460ff16601c14155b156139d75750600090506004613a86565b6040805160008082526020820180845289905260ff881692820192909252606081018690526080810185905260019060a0016020604051602081039080840390855afa158015613a2b573d6000803e3d6000fd5b50506040517fffffffffffffffffffffffffffffffffffffffffffffffffffffffffffffffe0015191505073ffffffffffffffffffffffffffffffffffffffff8116613a7f57600060019250925050613a86565b9150600090505b94509492505050565b6000816004811115613aa357613aa3614728565b1415613aac5750565b6001816004811115613ac057613ac0614728565b1415613b28576040517f08c379a000000000000000000000000000000000000000000000000000000000815260206004820152601860248201527f45434453413a20696e76616c6964207369676e6174757265000000000000000060448201526064016108c5565b6002816004811115613b3c57613b3c614728565b1415613ba4576040517f08c379a000000000000000000000000000000000000000000000000000000000815260206004820152601f60248201527f45434453413a20696e76616c6964207369676e6174757265206c656e6774680060448201526064016108c5565b6003816004811115613bb857613bb8614728565b1415613c46576040517f08c379a000000000000000000000000000000000000000000000000000000000815260206004820152602260248201527f45434453413a20696e76616c6964207369676e6174757265202773272076616c60448201527f756500000000000000000000000000000000000000000000000000000000000060648201526084016108c5565b6004816004811115613c5a57613c5a614728565b1415612203576040517f08c379a000000000000000000000000000000000000000000000000000000000815260206004820152602260248201527f45434453413a20696e76616c6964207369676e6174757265202776272076616c60448201527f756500000000000000000000000000000000000000000000000000000000000060648201526084016108c5565b73ffffffffffffffffffffffffffffffffffffffff831660009081526006602052604090205415613e7c5773ffffffffffffffffffffffffffffffffffffffff83166000908152600660209081526040808320546001909252822054613d4f9084906146c4565b613d599190614672565b905081811015613e7a576000613d6e856116f7565b73ffffffffffffffffffffffffffffffffffffffff808716600090815260056020908152604080832093851683529290522054909150613dae81846146c4565b841115613e63576040517f08c379a000000000000000000000000000000000000000000000000000000000815260206004820152605360248201527f44656c65676174696f6e20746f6f20636f6d706c69636174656420746f20747260448201527f616e736665722e20556e64656c656761746520616e642073696d706c6966792060648201527f6265666f726520747279696e6720616761696e00000000000000000000000000608482015260a4016108c5565b613e778683613e728688614672565b6136bd565b50505b505b73ffffffffffffffffffffffffffffffffffffffff808316600090815260076020526040902054168015613f3e5773ffffffffffffffffffffffffffffffffffffffff808416600090815260056020908152604080832093851683529290529081208054849290613eee9084906146c4565b909155505073ffffffffffffffffffffffffffffffffffffffff831660009081526006602052604081208054849290613f289084906146c4565b90915550613f399050848284613534565b613f49565b613f49848484613534565b50505050565b73ffffffffffffffffffffffffffffffffffffffff831660009081526006602052604081208054839290613f84908490614672565b909155505073ffffffffffffffffffffffffffffffffffffffff808416600090815260056020908152604080832093861683529290529081208054839290613fcd908490614672565b909155506128ce9050828483613534565b60006140087ff86c915dad5894faca0dfa067c58fdf4307406d255ed0a65db394f82b77f53d45490565b73ffffffffffffffffffffffffffffffffffffffff16146140ab576040517f08c379a000000000000000000000000000000000000000000000000000000000815260206004820152602860248201527f43616e206f6e6c792062652063616c6c656420647572696e6720696e6974696160448201527f6c697a6174696f6e00000000000000000000000000000000000000000000000060648201526084016108c5565b60008173ffffffffffffffffffffffffffffffffffffffff16635c60da1b6040518163ffffffff1660e01b815260040160206040518083038186803b1580156140f357600080fd5b505afa158015614107573d6000803e3d6000fd5b505050506040513d601f19601f8201168201806040525081019061412b919061470b565b905073ffffffffffffffffffffffffffffffffffffffff81166141d0576040517f08c379a000000000000000000000000000000000000000000000000000000000815260206004820152602c60248201527f696e697469616c697a6174696f6e206661696c7572653a206e6f7468696e672060448201527f746f20696d706c656d656e74000000000000000000000000000000000000000060648201526084016108c5565b611185818073ffffffffffffffffffffffffffffffffffffffff166142137ff86c915dad5894faca0dfa067c58fdf4307406d255ed0a65db394f82b77f53d45490565b73ffffffffffffffffffffffffffffffffffffffff161415614291576040517f08c379a000000000000000000000000000000000000000000000000000000000815260206004820152601f60248201527f496d706c656d656e746174696f6e20616c7265616479206d61746368696e670060448201526064016108c5565b7ff86c915dad5894faca0dfa067c58fdf4307406d255ed0a65db394f82b77f53d455565b73ffffffffffffffffffffffffffffffffffffffff8116811461220357600080fd5b6000602082840312156142e957600080fd5b81356110f3816142b5565b600060208083528351808285015260005b8181101561432157858101830151858201604001528201614305565b81811115614333576000604083870101525b50601f017fffffffffffffffffffffffffffffffffffffffffffffffffffffffffffffffe016929092016040019392505050565b6000806040838503121561437a57600080fd5b8235614385816142b5565b946020939093013593505050565b7f4e487b7100000000000000000000000000000000000000000000000000000000600052604160045260246000fd5b600080604083850312156143d557600080fd5b82356143e0816142b5565b9150602083013567ffffffffffffffff808211156143fd57600080fd5b818501915085601f83011261441157600080fd5b81358181111561442357614423614393565b604051601f82017fffffffffffffffffffffffffffffffffffffffffffffffffffffffffffffffe0908116603f0116810190838211818310171561446957614469614393565b8160405282815288602084870101111561448257600080fd5b8260208601602083013760006020848301015280955050505050509250929050565b6000806000606084860312156144b957600080fd5b83356144c4816142b5565b925060208401356144d4816142b5565b929592945050506040919091013590565b600080604083850312156144f857600080fd5b82359150602083013561450a816142b5565b809150509250929050565b60006020828403121561452757600080fd5b5035919050565b803560ff8116811461453f57600080fd5b919050565b60008060008060008060c0878903121561455d57600080fd5b8635614568816142b5565b95506020870135614578816142b5565b94506040870135935061458d6060880161452e565b92506080870135915060a087013590509295509295509295565b600080600080600080600060e0888a0312156145c257600080fd5b87356145cd816142b5565b965060208801356145dd816142b5565b955060408801359450606088013593506145f96080890161452e565b925060a0880135915060c0880135905092959891949750929550565b6000806040838503121561462857600080fd5b8235614633816142b5565b9150602083013561450a816142b5565b7f4e487b7100000000000000000000000000000000000000000000000000000000600052601160045260246000fd5b60008282101561468457614684614643565b500390565b60006020828403121561469b57600080fd5b815180151581146110f357600080fd5b6000602082840312156146bd57600080fd5b5051919050565b600082198211156146d7576146d7614643565b500190565b7f4e487b7100000000000000000000000000000000000000000000000000000000600052603260045260246000fd5b60006020828403121561471d57600080fd5b81516110f3816142b5565b7f4e487b7100000000000000000000000000000000000000000000000000000000600052602160045260246000fdfea164736f6c6343000809000af86c915dad5894faca0dfa067c58fdf4307406d255ed0a65db394f82b77f53d4",
  "linkReferences": {},
  "deployedLinkReferences": {}
}