{
  "contractName": "ECOxLockup",
  "abi": [
    {
      "inputs": [
        {
          "internalType": "address",
          "name": "_policy",
          "type": "address"
        },
        {
          "internalType": "address",
          "name": "_ecoXAddr",
          "type": "address"
        }
      ],
      "stateMutability": "nonpayable",
      "type": "constructor"
    },
    {
      "anonymous": false,
      "inputs": [
        {
          "indexed": true,
          "internalType": "address",
          "name": "owner",
          "type": "address"
        },
        {
          "indexed": true,
          "internalType": "address",
          "name": "spender",
          "type": "address"
        },
        {
          "indexed": false,
          "internalType": "uint256",
          "name": "value",
          "type": "uint256"
        }
      ],
      "name": "Approval",
      "type": "event"
    },
    {
      "anonymous": false,
      "inputs": [
        {
          "indexed": true,
          "internalType": "address",
          "name": "delegator",
          "type": "address"
        },
        {
          "indexed": true,
          "internalType": "address",
          "name": "toDelegate",
          "type": "address"
        }
      ],
      "name": "ChangeDelegate",
      "type": "event"
    },
    {
      "anonymous": false,
      "inputs": [
        {
          "indexed": true,
          "internalType": "address",
          "name": "delegate",
          "type": "address"
        },
        {
          "indexed": false,
          "internalType": "uint256",
          "name": "newBalance",
          "type": "uint256"
        }
      ],
      "name": "ChangeDelegateVotes",
      "type": "event"
    },
    {
      "anonymous": false,
      "inputs": [
        {
          "indexed": true,
          "internalType": "address",
          "name": "source",
          "type": "address"
        },
        {
          "indexed": false,
          "internalType": "uint256",
          "name": "amount",
          "type": "uint256"
        }
      ],
      "name": "Deposit",
      "type": "event"
    },
    {
      "anonymous": false,
      "inputs": [
        {
          "indexed": true,
          "internalType": "address",
          "name": "from",
          "type": "address"
        },
        {
          "indexed": true,
          "internalType": "address",
          "name": "to",
          "type": "address"
        },
        {
          "indexed": false,
          "internalType": "uint256",
          "name": "value",
          "type": "uint256"
        }
      ],
      "name": "Transfer",
      "type": "event"
    },
    {
      "anonymous": false,
      "inputs": [
        {
          "indexed": true,
          "internalType": "address",
          "name": "destination",
          "type": "address"
        },
        {
          "indexed": false,
          "internalType": "uint256",
          "name": "amount",
          "type": "uint256"
        }
      ],
      "name": "Withdrawal",
      "type": "event"
    },
    {
      "inputs": [
        {
          "internalType": "address",
          "name": "owner",
          "type": "address"
        },
        {
          "internalType": "address",
          "name": "spender",
          "type": "address"
        }
      ],
      "name": "allowance",
      "outputs": [
        {
          "internalType": "uint256",
          "name": "",
          "type": "uint256"
        }
      ],
      "stateMutability": "view",
      "type": "function"
    },
    {
      "inputs": [
        {
          "internalType": "address",
          "name": "spender",
          "type": "address"
        },
        {
          "internalType": "uint256",
          "name": "amount",
          "type": "uint256"
        }
      ],
      "name": "approve",
      "outputs": [
        {
          "internalType": "bool",
          "name": "",
          "type": "bool"
        }
      ],
      "stateMutability": "nonpayable",
      "type": "function"
    },
    {
      "inputs": [
        {
          "internalType": "address",
          "name": "account",
          "type": "address"
        }
      ],
      "name": "balanceOf",
      "outputs": [
        {
          "internalType": "uint256",
          "name": "",
          "type": "uint256"
        }
      ],
      "stateMutability": "view",
      "type": "function"
    },
    {
      "inputs": [
        {
          "internalType": "bytes32",
          "name": "",
          "type": "bytes32"
        },
        {
          "internalType": "address",
          "name": "_addr",
          "type": "address"
        }
      ],
      "name": "canImplementInterfaceForAddress",
      "outputs": [
        {
          "internalType": "bytes32",
          "name": "",
          "type": "bytes32"
        }
      ],
      "stateMutability": "view",
      "type": "function"
    },
    {
      "inputs": [
        {
          "internalType": "address",
          "name": "",
          "type": "address"
        },
        {
          "internalType": "uint256",
          "name": "",
          "type": "uint256"
        }
      ],
      "name": "checkpoints",
      "outputs": [
        {
          "internalType": "uint32",
          "name": "fromBlock",
          "type": "uint32"
        },
        {
          "internalType": "uint224",
          "name": "value",
          "type": "uint224"
        }
      ],
      "stateMutability": "view",
      "type": "function"
    },
    {
      "inputs": [],
      "name": "clone",
      "outputs": [
        {
          "internalType": "address",
          "name": "",
          "type": "address"
        }
      ],
      "stateMutability": "nonpayable",
      "type": "function"
    },
    {
      "inputs": [],
      "name": "currentGeneration",
      "outputs": [
        {
          "internalType": "uint256",
          "name": "",
          "type": "uint256"
        }
      ],
      "stateMutability": "view",
      "type": "function"
    },
    {
      "inputs": [],
      "name": "decimals",
      "outputs": [
        {
          "internalType": "uint8",
          "name": "",
          "type": "uint8"
        }
      ],
      "stateMutability": "view",
      "type": "function"
    },
    {
      "inputs": [
        {
          "internalType": "address",
          "name": "spender",
          "type": "address"
        },
        {
          "internalType": "uint256",
          "name": "subtractedValue",
          "type": "uint256"
        }
      ],
      "name": "decreaseAllowance",
      "outputs": [
        {
          "internalType": "bool",
          "name": "",
          "type": "bool"
        }
      ],
      "stateMutability": "nonpayable",
      "type": "function"
    },
    {
      "inputs": [
        {
          "internalType": "address",
          "name": "delegatee",
          "type": "address"
        }
      ],
      "name": "delegate",
      "outputs": [],
      "stateMutability": "nonpayable",
      "type": "function"
    },
    {
      "inputs": [],
      "name": "ecoXToken",
      "outputs": [
        {
          "internalType": "contract IERC20",
          "name": "",
          "type": "address"
        }
      ],
      "stateMutability": "view",
      "type": "function"
    },
    {
      "inputs": [
        {
          "internalType": "address",
          "name": "account",
          "type": "address"
        }
      ],
      "name": "getDelegate",
      "outputs": [
        {
          "internalType": "address",
          "name": "",
          "type": "address"
        }
      ],
      "stateMutability": "view",
      "type": "function"
    },
    {
      "inputs": [
        {
          "internalType": "uint256",
          "name": "blockNumber",
          "type": "uint256"
        }
      ],
      "name": "getPastTotalSupply",
      "outputs": [
        {
          "internalType": "uint256",
          "name": "",
          "type": "uint256"
        }
      ],
      "stateMutability": "view",
      "type": "function"
    },
    {
      "inputs": [
        {
          "internalType": "address",
          "name": "_owner",
          "type": "address"
        },
        {
          "internalType": "uint256",
          "name": "_blockNumber",
          "type": "uint256"
        }
      ],
      "name": "getPastVotes",
      "outputs": [
        {
          "internalType": "uint256",
          "name": "",
          "type": "uint256"
        }
      ],
      "stateMutability": "view",
      "type": "function"
    },
    {
      "inputs": [
        {
          "internalType": "address",
          "name": "account",
          "type": "address"
        },
        {
          "internalType": "uint256",
          "name": "blockNumber",
          "type": "uint256"
        }
      ],
      "name": "getPastVotingGons",
      "outputs": [
        {
          "internalType": "uint256",
          "name": "",
          "type": "uint256"
        }
      ],
      "stateMutability": "view",
      "type": "function"
    },
    {
      "inputs": [
        {
          "internalType": "address",
          "name": "account",
          "type": "address"
        }
      ],
      "name": "getVotingGons",
      "outputs": [
        {
          "internalType": "uint256",
          "name": "",
          "type": "uint256"
        }
      ],
      "stateMutability": "view",
      "type": "function"
    },
    {
      "inputs": [],
      "name": "implementation",
      "outputs": [
        {
          "internalType": "address",
          "name": "_impl",
          "type": "address"
        }
      ],
      "stateMutability": "view",
      "type": "function"
    },
    {
      "inputs": [
        {
          "internalType": "address",
          "name": "spender",
          "type": "address"
        },
        {
          "internalType": "uint256",
          "name": "addedValue",
          "type": "uint256"
        }
      ],
      "name": "increaseAllowance",
      "outputs": [
        {
          "internalType": "bool",
          "name": "",
          "type": "bool"
        }
      ],
      "stateMutability": "nonpayable",
      "type": "function"
    },
    {
      "inputs": [],
      "name": "name",
      "outputs": [
        {
          "internalType": "string",
          "name": "",
          "type": "string"
        }
      ],
      "stateMutability": "view",
      "type": "function"
    },
    {
      "inputs": [
        {
          "internalType": "address",
          "name": "account",
          "type": "address"
        }
      ],
      "name": "numCheckpoints",
      "outputs": [
        {
          "internalType": "uint32",
          "name": "",
          "type": "uint32"
        }
      ],
      "stateMutability": "view",
      "type": "function"
    },
    {
      "inputs": [],
      "name": "policy",
      "outputs": [
        {
          "internalType": "address",
          "name": "",
          "type": "address"
        }
      ],
      "stateMutability": "view",
      "type": "function"
    },
    {
      "inputs": [
        {
          "internalType": "address",
          "name": "_delegate",
          "type": "address"
        },
        {
          "internalType": "bytes",
          "name": "_data",
          "type": "bytes"
        }
      ],
      "name": "policyCommand",
      "outputs": [],
      "stateMutability": "nonpayable",
      "type": "function"
    },
    {
      "inputs": [
        {
          "internalType": "address",
          "name": "_addr",
          "type": "address"
        }
      ],
      "name": "setExpectedInterfaceSet",
      "outputs": [],
      "stateMutability": "nonpayable",
      "type": "function"
    },
    {
      "inputs": [],
      "name": "symbol",
      "outputs": [
        {
          "internalType": "string",
          "name": "",
          "type": "string"
        }
      ],
      "stateMutability": "view",
      "type": "function"
    },
    {
      "inputs": [],
      "name": "totalSupply",
      "outputs": [
        {
          "internalType": "uint256",
          "name": "",
          "type": "uint256"
        }
      ],
      "stateMutability": "view",
      "type": "function"
    },
    {
      "inputs": [
        {
          "internalType": "uint256",
          "name": "_blockNumber",
          "type": "uint256"
        }
      ],
      "name": "totalSupplyAt",
      "outputs": [
        {
          "internalType": "uint256",
          "name": "",
          "type": "uint256"
        }
      ],
      "stateMutability": "view",
      "type": "function"
    },
    {
      "inputs": [
        {
          "internalType": "address",
          "name": "",
          "type": "address"
        }
      ],
      "name": "votingTracker",
      "outputs": [
        {
          "internalType": "uint256",
          "name": "",
          "type": "uint256"
        }
      ],
      "stateMutability": "view",
      "type": "function"
    },
    {
      "inputs": [
        {
          "internalType": "uint256",
          "name": "_amount",
          "type": "uint256"
        }
      ],
      "name": "deposit",
      "outputs": [],
      "stateMutability": "nonpayable",
      "type": "function"
    },
    {
      "inputs": [
        {
          "internalType": "uint256",
          "name": "_amount",
          "type": "uint256"
        }
      ],
      "name": "withdraw",
      "outputs": [],
      "stateMutability": "nonpayable",
      "type": "function"
    },
    {
      "inputs": [
        {
          "internalType": "address",
          "name": "_voter",
          "type": "address"
        },
        {
          "internalType": "uint256",
          "name": "_blockNumber",
          "type": "uint256"
        }
      ],
      "name": "votingECOx",
      "outputs": [
        {
          "internalType": "uint256",
          "name": "",
          "type": "uint256"
        }
      ],
      "stateMutability": "view",
      "type": "function"
    },
    {
      "inputs": [
        {
          "internalType": "uint256",
          "name": "_blockNumber",
          "type": "uint256"
        }
      ],
      "name": "totalVotingECOx",
      "outputs": [
        {
          "internalType": "uint256",
          "name": "",
          "type": "uint256"
        }
      ],
      "stateMutability": "view",
      "type": "function"
    },
    {
      "inputs": [
        {
          "internalType": "address",
          "name": "_who",
          "type": "address"
        }
      ],
      "name": "recordVote",
      "outputs": [],
      "stateMutability": "nonpayable",
      "type": "function"
    },
    {
      "inputs": [
        {
          "internalType": "address",
          "name": "_self",
          "type": "address"
        }
      ],
      "name": "initialize",
      "outputs": [],
      "stateMutability": "nonpayable",
      "type": "function"
    },
    {
      "inputs": [],
      "name": "notifyGenerationIncrease",
      "outputs": [],
      "stateMutability": "nonpayable",
      "type": "function"
    },
    {
      "inputs": [
        {
          "internalType": "address",
          "name": "",
          "type": "address"
        },
        {
          "internalType": "uint256",
          "name": "",
          "type": "uint256"
        }
      ],
      "name": "transfer",
      "outputs": [
        {
          "internalType": "bool",
          "name": "",
          "type": "bool"
        }
      ],
      "stateMutability": "pure",
      "type": "function"
    },
    {
      "inputs": [
        {
          "internalType": "address",
          "name": "",
          "type": "address"
        },
        {
          "internalType": "address",
          "name": "",
          "type": "address"
        },
        {
          "internalType": "uint256",
          "name": "",
          "type": "uint256"
        }
      ],
      "name": "transferFrom",
      "outputs": [
        {
          "internalType": "bool",
          "name": "",
          "type": "bool"
        }
      ],
      "stateMutability": "pure",
      "type": "function"
    }
  ],
  "bytecode": "0x6101006040523480156200001257600080fd5b506040516200272c3803806200272c833981016040819052620000359162000218565b8180604051806040016040528060078152602001660a65a8ac6de5ab60cb1b815250604051806040016040528060058152602001640e68a869ef60db1b81525081816200008d826200015160201b620012d61760201c565b60808181525050620000aa816200015160201b620012d61760201c565b60a05250620000be9250309150506200016a565b6001600160a01b0390811660c052604051635df8122f60e01b81523060048201529082166024820152731820a4b7618bde71dce8cdc73aab6c95905fad2490635df8122f90604401600060405180830381600087803b1580156200012157600080fd5b505af115801562000136573d6000803e3d6000fd5b5050506001600160a01b0390921660e0525062000250915050565b600060208251106200016257600080fd5b50601f015190565b6001600160a01b0381166200018c6000805160206200270c8339815191525490565b6001600160a01b03161415620001e85760405162461bcd60e51b815260206004820152601f60248201527f496d706c656d656e746174696f6e20616c7265616479206d61746368696e6700604482015260640160405180910390fd5b6000805160206200270c83398151915255565b80516001600160a01b03811681146200021357600080fd5b919050565b600080604083850312156200022c57600080fd5b6200023783620001fb565b91506200024760208401620001fb565b90509250929050565b60805160a05160c05160e051612451620002bb60003960008181610350015281816109aa0152611012015260008181610226015281816105a1015281816107d501528181610b9e015281816114ba015261187601526000610f300152600061055601526124516000f3fe608060405234801561001057600080fd5b506004361061021c5760003560e01c80635c19a95c11610125578063981b24d0116100ad578063bc52c82d1161007c578063bc52c82d146104d0578063c4d66de8146104f0578063cd3fd384146103a0578063dd62ed3e14610503578063e189cba61461053c57600080fd5b8063981b24d0146103c6578063a457c2d71461049c578063a9059cbb146104af578063b6b55f25146104bd57600080fd5b806370a08231116100f457806370a082311461043c5780638ddb428a146104655780638e539e8c1461046e57806392c1ff441461048157806395d89b411461049457600080fd5b80635c19a95c146103d95780635c60da1b146103ec5780636e684b9a146104015780636fcfff451461041457600080fd5b80632e1a7d4d116101a85780633950935111610177578063395093511461037a57806339634e0c1461038d5780633a46b1a8146103a0578063544d8564146103b35780635bb748ad146103c657600080fd5b80632e1a7d4d14610329578063313ce5671461033c57806333800bac1461034b57806335bbc7fe1461037257600080fd5b806309ed4607116101ef57806309ed4607146102b25780630cdfebfa146102ba57806318160ddd146102f157806323b872dd14610303578063249cb3fa1461031657600080fd5b80630505c8c91461022157806306fdde0314610265578063095ea7b31461027a57806309d7f23b1461029d575b600080fd5b6102487f000000000000000000000000000000000000000000000000000000000000000081565b6040516001600160a01b0390911681526020015b60405180910390f35b61026d61054f565b60405161025c9190612103565b61028d61028836600461216d565b61057f565b604051901515815260200161025c565b6102b06102ab3660046121af565b610596565b005b610248610654565b6102cd6102c836600461216d565b61073f565b6040805163ffffffff90931683526001600160e01b0390911660208301520161025c565b6002545b60405190815260200161025c565b61028d610311366004612273565b610786565b6102f56103243660046122b4565b6107d1565b6102b06103373660046122e4565b6108dc565b6040516012815260200161025c565b6102487f000000000000000000000000000000000000000000000000000000000000000081565b6102b0610ab9565b61028d61038836600461216d565b610b57565b6102b061039b3660046122fd565b610b93565b6102f56103ae36600461216d565b610c51565b6102486103c13660046122fd565b610c64565b6102f56103d43660046122e4565b610c94565b6102b06103e73660046122fd565b610c9f565b6000805160206123fc83398151915254610248565b6102f561040f36600461216d565b610cac565b6104276104223660046122fd565b610d2c565b60405163ffffffff909116815260200161025c565b6102f561044a3660046122fd565b6001600160a01b031660009081526020819052604090205490565b6102f560085481565b6102f561047c3660046122e4565b610dca565b6102b061048f3660046122fd565b610e33565b61026d610f29565b61028d6104aa36600461216d565b610f54565b61028d61031136600461216d565b6102b06104cb3660046122e4565b610fed565b6102f56104de3660046122fd565b60076020526000908152604090205481565b6102b06104fe3660046122fd565b611128565b6102f561051136600461231a565b6001600160a01b03918216600090815260016020908152604080832093909416825291909152205490565b6102f561054a3660046122fd565b61124f565b606061057a7f00000000000000000000000000000000000000000000000000000000000000006112ee565b905090565b600061058c338484611354565b5060015b92915050565b336001600160a01b037f0000000000000000000000000000000000000000000000000000000000000000161461062a5760405162461bcd60e51b815260206004820152602e60248201527f4f6e6c792074686520706f6c69637920636f6e7472616374206d61792063616c60448201526d36103a3434b99036b2ba3437b21760911b60648201526084015b60405180910390fd5b600080825160208401855af43d806000803e81801561064857816000f35b816000fd5b5050505050565b60003061066d6000805160206123fc8339815191525490565b6001600160a01b0316146106d25760405162461bcd60e51b815260206004820152602660248201527f54686973206d6574686f642063616e6e6f742062652063616c6c6564206f6e20604482015265636c6f6e657360d01b6064820152608401610621565b60006106dd30611416565b60405163189acdbd60e31b81523060048201529091506001600160a01b0382169063c4d66de890602401600060405180830381600087803b15801561072157600080fd5b505af1158015610735573d6000803e3d6000fd5b5092949350505050565b6004602052816000526040600020818154811061075b57600080fd5b60009182526020909120015463ffffffff8116925064010000000090046001600160e01b0316905082565b60405162461bcd60e51b815260206004820152601a60248201527f7345434f78206973206e6f6e2d7472616e736665727261626c650000000000006044820152600090606401610621565b60007f00000000000000000000000000000000000000000000000000000000000000006001600160a01b0316826001600160a01b0316148061082057506006546001600160a01b038381169116145b6108925760405162461bcd60e51b815260206004820152603c60248201527f4f6e6c792074686520706f6c696379206f7220696e7465726661636520636f6e60448201527f74726163742063616e207365742074686520696e746572666163652e000000006064820152608401610621565b6040517f455243313832305f4143434550545f4d41474943000000000000000000000000602082015260340160405160208183030381529060405280519060200120905092915050565b60085433906108ed9060019061235e565b6001600160a01b038216600090815260076020526040902054106109795760405162461bcd60e51b815260206004820152603860248201527f4d757374206e6f7420766f746520696e207468652067656e65726174696f6e2060448201527f6f6e206f72206265666f7265207769746864726177696e6700000000000000006064820152608401610621565b610983818361147f565b5060405163a9059cbb60e01b81526001600160a01b038281166004830152602482018490527f0000000000000000000000000000000000000000000000000000000000000000169063a9059cbb90604401602060405180830381600087803b1580156109ee57600080fd5b505af1158015610a02573d6000803e3d6000fd5b505050506040513d601f19601f82011682018060405250810190610a269190612375565b610a725760405162461bcd60e51b815260206004820152600f60248201527f5472616e73666572204661696c656400000000000000000000000000000000006044820152606401610621565b806001600160a01b03167f7fcf532c15f0a6db0bd6d0e038bea71d30d808c7d98cb3bf7268a95bf5081b6583604051610aad91815260200190565b60405180910390a25050565b610ae27fae30bfb87dec2bd0c16be9790f95842d84f58dc70b0a8f6ed22e9556176a7b196114a3565b6001600160a01b031663172195226040518163ffffffff1660e01b815260040160206040518083038186803b158015610b1a57600080fd5b505afa158015610b2e573d6000803e3d6000fd5b505050506040513d601f19601f82011682018060405250810190610b529190612397565b600855565b3360008181526001602090815260408083206001600160a01b0387168452909152812054909161058c918590610b8e9086906123b0565b611354565b336001600160a01b037f00000000000000000000000000000000000000000000000000000000000000001614610c225760405162461bcd60e51b815260206004820152602e60248201527f4f6e6c792074686520706f6c69637920636f6e7472616374206d61792063616c60448201526d36103a3434b99036b2ba3437b21760911b6064820152608401610621565b6006805473ffffffffffffffffffffffffffffffffffffffff19166001600160a01b0392909216919091179055565b6000610c5d8383610cac565b9392505050565b6001600160a01b038082166000908152600360205260408120549091168015610c8d5780610c5d565b5090919050565b600061059082610dca565b610ca93382611558565b50565b600043821115610d0a5760405162461bcd60e51b8152602060048201526024808201527f566f7465436865636b706f696e74733a20626c6f636b206e6f7420796574206d6044820152631a5b995960e21b6064820152608401610621565b6001600160a01b0383166000908152600460205260409020610c5d90836115e1565b6001600160a01b03811660009081526004602052604081205463ffffffff1015610dae5760405162461bcd60e51b815260206004820152602d60248201527f6e756d626572206f6620636865636b706f696e74732063616e6e6f742062652060448201526c63617374656420736166656c7960981b6064820152608401610621565b506001600160a01b031660009081526004602052604090205490565b600043821115610e285760405162461bcd60e51b8152602060048201526024808201527f566f7465436865636b706f696e74733a20626c6f636b206e6f7420796574206d6044820152631a5b995960e21b6064820152608401610621565b6105906005836115e1565b610e5c7f331e3a11698d428947c09d6cfecc92b2ccbc4a527e4e795d850152babfaff37a6114a3565b6001600160a01b0316336001600160a01b03161480610eb45750610e9f7f65474dbc3934a157baaaa893dea8c73453f0cc9c47a4f857047e8f0c8b54888f6114a3565b6001600160a01b0316336001600160a01b0316145b610f0a5760405162461bcd60e51b815260206004820152602160248201527f4d757374206265206120766f74696e6720636f6e747261637420746f2063616c6044820152601b60fa1b6064820152608401610621565b6008546001600160a01b03909116600090815260076020526040902055565b606061057a7f00000000000000000000000000000000000000000000000000000000000000006112ee565b3360009081526001602090815260408083206001600160a01b038616845290915281205482811015610fd65760405162461bcd60e51b815260206004820152602560248201527f45524332303a2064656372656173656420616c6c6f77616e63652062656c6f77604482015264207a65726f60d81b6064820152608401610621565b610fe33385858403611354565b5060019392505050565b6040516323b872dd60e01b8152336004820181905230602483015260448201839052907f00000000000000000000000000000000000000000000000000000000000000006001600160a01b0316906323b872dd90606401602060405180830381600087803b15801561105e57600080fd5b505af1158015611072573d6000803e3d6000fd5b505050506040513d601f19601f820116820180604052508101906110969190612375565b6110e25760405162461bcd60e51b815260206004820152600f60248201527f5472616e73666572206661696c656400000000000000000000000000000000006044820152606401610621565b6110ec8183611735565b50806001600160a01b03167fe1fffcc4923d04b559f4d29a8bfc6cda04eb5b0d3c460751c2402c5c5cc9109c83604051610aad91815260200190565b60006111406000805160206123fc8339815191525490565b6001600160a01b0316146111a75760405162461bcd60e51b815260206004820152602860248201527f43616e206f6e6c792062652063616c6c656420647572696e6720696e697469616044820152673634bd30ba34b7b760c11b6064820152608401610621565b6111b0816117d1565b6111d97fae30bfb87dec2bd0c16be9790f95842d84f58dc70b0a8f6ed22e9556176a7b196114a3565b6001600160a01b031663172195226040518163ffffffff1660e01b815260040160206040518083038186803b15801561121157600080fd5b505afa158015611225573d6000803e3d6000fd5b505050506040513d601f19601f820116820180604052508101906112499190612397565b60085550565b6001600160a01b03811660009081526004602052604081205480156112c3576001600160a01b038316600090815260046020526040902061129160018361235e565b815481106112a1576112a16123c8565b60009182526020909120015464010000000090046001600160e01b03166112c6565b60005b6001600160e01b03169392505050565b600060208251106112e657600080fd5b50601f015190565b606060f882901c6020811061130257600080fd5b8067ffffffffffffffff81111561131b5761131b612199565b6040519080825280601f01601f191660200182016040528015611345576020820181803683370190505b50915082601f83015250919050565b6001600160a01b0382166113b55760405162461bcd60e51b815260206004820152602260248201527f45524332303a20617070726f766520746f20746865207a65726f206164647265604482015261737360f01b6064820152608401610621565b6001600160a01b0383811660008181526001602090815260408083209487168084529482529182902085905590518481527f8c5be1e5ebec7d5bd14f71427d1e84f3dd0314c0f7b2291e5b200ac8c7c3b925910160405180910390a3505050565b6000808260601b90506040517f3d602d80600a3d3981f3363d3d373d3d3d363d7300000000000000000000000081528160148201527f5af43d82803e903d91602b57fd5bf3000000000000000000000000000000000060288201526037816000f0949350505050565b600061148b83836118e8565b915061149b60056119e7846119f3565b509092915050565b60405163555ddc6560e11b81526001600160a01b037f000000000000000000000000000000000000000000000000000000000000000016600482015260248101829052600090731820a4b7618bde71dce8cdc73aab6c95905fad249063aabbb8ca9060440160206040518083038186803b15801561152057600080fd5b505afa158015611534573d6000803e3d6000fd5b505050506040513d601f19601f8201168201806040525081019061059091906123de565b600061156383610c64565b6001600160a01b03848116600081815260208181526040808320546003909252808320805473ffffffffffffffffffffffffffffffffffffffff1916958916958617905551949550937f203990235367b1c7cb4ad749a6c1bcf1b793c8824cdb000bfcf53817afb8a7ac9190a36115db828483611c4f565b50505050565b8154600090806115f5576000915050610590565b60008461160360018461235e565b81548110611613576116136123c8565b60009182526020918290206040805180820190915291015463ffffffff81168083526401000000009091046001600160e01b0316928201929092529150841061166c57602001516001600160e01b031691506105909050565b8160005b818110156116da5760006001611686838561235e565b611691911c836123b0565b9050868882815481106116a6576116a66123c8565b60009182526020909120015463ffffffff1611156116c6578092506116d4565b6116d18160016123b0565b91505b50611670565b811561171e57866116ec60018461235e565b815481106116fc576116fc6123c8565b60009182526020909120015464010000000090046001600160e01b0316611721565b60005b6001600160e01b0316979650505050505050565b60006117418383611d71565b6002549092506001600160e01b0310156117c35760405162461bcd60e51b815260206004820152603560248201527f566f7465436865636b706f696e74733a20746f74616c20737570706c7920726960448201527f736b73206f766572666c6f77696e6720766f74657300000000000000000000006064820152608401610621565b61149b6005611e5f846119f3565b60006117e96000805160206123fc8339815191525490565b6001600160a01b0316146118505760405162461bcd60e51b815260206004820152602860248201527f43616e206f6e6c792062652063616c6c656420647572696e6720696e697469616044820152673634bd30ba34b7b760c11b6064820152608401610621565b61185981611e6b565b604051635df8122f60e01b81523060048201526001600160a01b037f0000000000000000000000000000000000000000000000000000000000000000166024820152731820a4b7618bde71dce8cdc73aab6c95905fad2490635df8122f90604401600060405180830381600087803b1580156118d457600080fd5b505af115801561064d573d6000803e3d6000fd5b6001600160a01b03821660009081526020819052604081205482908181101561195e5760405162461bcd60e51b815260206004820152602260248201527f45524332303a206275726e20616d6f756e7420657863656564732062616c616e604482015261636560f01b6064820152608401610621565b6001600160a01b038516600090815260208190526040812083830390556002805484929061198d90849061235e565b90915550506040518481526000906001600160a01b038716907fddf252ad1be2c89b69c2b068fc378daa952ba7f163c4a11628f55a4df523b3ef9060200160405180910390a36119df85600084611ef3565b509392505050565b6000610c5d828461235e565b60006001600160e01b03821115611a565760405162461bcd60e51b815260206004820152602160248201527f6e65775765696768742063616e6e6f742062652063617374656420736166656c6044820152607960f81b6064820152608401610621565b63ffffffff431115611ab65760405162461bcd60e51b8152602060048201526024808201527f626c6f636b206e756d6265722063616e6e6f742062652063617374656420736160448201526366656c7960e01b6064820152608401610621565b835480611b145750506040805180820190915263ffffffff43811682526001600160e01b0380841660208085019182528754600181018955600089815291909120945191519092166401000000000292169190911791015580610c5d565b600085611b2260018461235e565b81548110611b3257611b326123c8565b60009182526020822001805490925064010000000090046001600160e01b031690611b61828763ffffffff8a16565b90506001600160e01b03811115611bc45760405162461bcd60e51b815260206004820152602160248201527f6e65775765696768742063616e6e6f742062652063617374656420736166656c6044820152607960f81b6064820152608401610621565b825463ffffffff16431415611bf457825463ffffffff166401000000006001600160e01b03831602178355611c44565b6040805180820190915263ffffffff43811682526001600160e01b0380841660208085019182528c54600181018e5560008e81529190912094519151909216640100000000029216919091179101555b979650505050505050565b816001600160a01b0316836001600160a01b031614158015611c715750600081115b15611d6c576001600160a01b03831615611cf1576001600160a01b0383166000908152600460205260408120611caa906119e7846119f3565b9050836001600160a01b03167f9e51f7a75849faf72867a9564c5b53a48e2f09829ff4133d76292dd8e3445f3182604051611ce791815260200190565b60405180910390a2505b6001600160a01b03821615611d6c576001600160a01b0382166000908152600460205260408120611d2590611e5f846119f3565b9050826001600160a01b03167f9e51f7a75849faf72867a9564c5b53a48e2f09829ff4133d76292dd8e3445f3182604051611d6291815260200190565b60405180910390a2505b505050565b60006001600160a01b038316611dc95760405162461bcd60e51b815260206004820152601f60248201527f45524332303a206d696e7420746f20746865207a65726f2061646472657373006044820152606401610621565b60008290508060026000828254611de091906123b0565b90915550506001600160a01b03841660009081526020819052604081208054839290611e0d9084906123b0565b90915550506040518381526001600160a01b038516906000907fddf252ad1be2c89b69c2b068fc378daa952ba7f163c4a11628f55a4df523b3ef9060200160405180910390a3610c5d60008583611ef3565b6000610c5d82846123b0565b6000611e836000805160206123fc8339815191525490565b6001600160a01b031614611eea5760405162461bcd60e51b815260206004820152602860248201527f43616e206f6e6c792062652063616c6c656420647572696e6720696e697469616044820152673634bd30ba34b7b760c11b6064820152608401610621565b610ca981611f0e565b611d6c611eff84610c64565b611f0884610c64565b83611c4f565b6000611f266000805160206123fc8339815191525490565b6001600160a01b031614611f8d5760405162461bcd60e51b815260206004820152602860248201527f43616e206f6e6c792062652063616c6c656420647572696e6720696e697469616044820152673634bd30ba34b7b760c11b6064820152608401610621565b6000816001600160a01b0316635c60da1b6040518163ffffffff1660e01b815260040160206040518083038186803b158015611fc857600080fd5b505afa158015611fdc573d6000803e3d6000fd5b505050506040513d601f19601f8201168201806040525081019061200091906123de565b90506001600160a01b03811661206d5760405162461bcd60e51b815260206004820152602c60248201527f696e697469616c697a6174696f6e206661696c7572653a206e6f7468696e672060448201526b1d1bc81a5b5c1b195b595b9d60a21b6064820152608401610621565b6120768161207a565b5050565b806001600160a01b031661209a6000805160206123fc8339815191525490565b6001600160a01b031614156120f15760405162461bcd60e51b815260206004820152601f60248201527f496d706c656d656e746174696f6e20616c7265616479206d61746368696e67006044820152606401610621565b6000805160206123fc83398151915255565b600060208083528351808285015260005b8181101561213057858101830151858201604001528201612114565b81811115612142576000604083870101525b50601f01601f1916929092016040019392505050565b6001600160a01b0381168114610ca957600080fd5b6000806040838503121561218057600080fd5b823561218b81612158565b946020939093013593505050565b634e487b7160e01b600052604160045260246000fd5b600080604083850312156121c257600080fd5b82356121cd81612158565b9150602083013567ffffffffffffffff808211156121ea57600080fd5b818501915085601f8301126121fe57600080fd5b81358181111561221057612210612199565b604051601f8201601f19908116603f0116810190838211818310171561223857612238612199565b8160405282815288602084870101111561225157600080fd5b8260208601602083013760006020848301015280955050505050509250929050565b60008060006060848603121561228857600080fd5b833561229381612158565b925060208401356122a381612158565b929592945050506040919091013590565b600080604083850312156122c757600080fd5b8235915060208301356122d981612158565b809150509250929050565b6000602082840312156122f657600080fd5b5035919050565b60006020828403121561230f57600080fd5b8135610c5d81612158565b6000806040838503121561232d57600080fd5b823561233881612158565b915060208301356122d981612158565b634e487b7160e01b600052601160045260246000fd5b60008282101561237057612370612348565b500390565b60006020828403121561238757600080fd5b81518015158114610c5d57600080fd5b6000602082840312156123a957600080fd5b5051919050565b600082198211156123c3576123c3612348565b500190565b634e487b7160e01b600052603260045260246000fd5b6000602082840312156123f057600080fd5b8151610c5d8161215856fef86c915dad5894faca0dfa067c58fdf4307406d255ed0a65db394f82b77f53d4a26469706673582212201ec0e0195212edd99496fd4271124bfbcede71e33a2b525a2ab0c7c5f73c937e64736f6c63430008090033f86c915dad5894faca0dfa067c58fdf4307406d255ed0a65db394f82b77f53d4",
  "immutableReferences": {
    "3270": [
      {
        "length": 32,
        "start": 1366
      }
    ],
    "3272": [
      {
        "length": 32,
        "start": 3888
      }
    ],
    "7999": [
      {
        "length": 32,
        "start": 848
      },
      {
        "length": 32,
        "start": 2474
      },
      {
        "length": 32,
        "start": 4114
      }
    ],
    "11624": [
      {
        "length": 32,
        "start": 550
      },
      {
        "length": 32,
        "start": 1441
      },
      {
        "length": 32,
        "start": 2005
      },
      {
        "length": 32,
        "start": 2974
      },
      {
        "length": 32,
        "start": 5306
      },
      {
        "length": 32,
        "start": 6262
      }
    ]
  },
  "source": "// SPDX-License-Identifier: MIT\npragma solidity ^0.8.0;\nimport \"@openzeppelin/contracts/token/ERC20/IERC20.sol\";\nimport \"../currency/VoteCheckpoints.sol\";\nimport \"../currency/ECOx.sol\";\nimport \"../policy/PolicedUtils.sol\";\nimport \"../governance/IGeneration.sol\";\n\n/** @title ECOxLockup\n *\n */\ncontract ECOxLockup is VoteCheckpoints, PolicedUtils {\n    /** The Deposit event indicates that ECOx has been locked up, credited\n     * to a particular address in a particular amount.\n     *\n     * @param source The address that a deposit certificate has been issued to.\n     * @param amount The amount of ECOx tokens deposited.\n     */\n    event Deposit(address indexed source, uint256 amount);\n\n    /** The Withdrawal event indicates that a withdrawal has been made to a particular\n     * address in a particular amount.\n     *\n     * @param destination The address that has made a withdrawal.\n     * @param amount The amount in basic unit of 10^{-18} ECOx (weicoX) tokens withdrawn.\n     */\n    event Withdrawal(address indexed destination, uint256 amount);\n\n    // the ECOx contract address\n    IERC20 public immutable ecoXToken;\n\n    // marks each address's ability to withdraw, maps from address to last voted generation\n    mapping(address => uint256) public votingTracker;\n\n    uint256 public currentGeneration;\n\n    constructor(address _policy, address _ecoXAddr)\n        VoteCheckpoints(\"S-Eco-X\", \"sECOx\")\n        PolicedUtils(_policy)\n    {\n        ecoXToken = IERC20(_ecoXAddr);\n    }\n\n    function deposit(uint256 _amount) external {\n        address _source = msg.sender;\n\n        require(\n            ecoXToken.transferFrom(_source, address(this), _amount),\n            \"Transfer failed\"\n        );\n\n        _mint(_source, _amount);\n\n        emit Deposit(_source, _amount);\n    }\n\n    function withdraw(uint256 _amount) external {\n        address _destination = msg.sender;\n\n        // generation indexing starts at 1000 so this will succeed for new addreses\n        require(\n            votingTracker[_destination] < currentGeneration - 1,\n            \"Must not vote in the generation on or before withdrawing\"\n        );\n\n        _burn(_destination, _amount);\n\n        require(ecoXToken.transfer(_destination, _amount), \"Transfer Failed\");\n\n        emit Withdrawal(_destination, _amount);\n    }\n\n    function votingECOx(address _voter, uint256 _blockNumber)\n        external\n        view\n        returns (uint256)\n    {\n        return getPastVotingGons(_voter, _blockNumber);\n    }\n\n    function totalVotingECOx(uint256 _blockNumber)\n        external\n        view\n        returns (uint256)\n    {\n        return getPastTotalSupply(_blockNumber);\n    }\n\n    function recordVote(address _who) external {\n        require(\n            msg.sender == policyFor(ID_POLICY_PROPOSALS) ||\n                msg.sender == policyFor(ID_POLICY_VOTES),\n            \"Must be a voting contract to call\"\n        );\n\n        votingTracker[_who] = currentGeneration;\n    }\n\n    function initialize(address _self) public override onlyConstruction {\n        super.initialize(_self);\n        currentGeneration = IGeneration(policyFor(ID_TIMED_POLICIES))\n            .generation();\n    }\n\n    function notifyGenerationIncrease() public {\n        // update currentGeneration\n        currentGeneration = IGeneration(policyFor(ID_TIMED_POLICIES))\n            .generation();\n    }\n\n    function transfer(address, uint256) public pure override returns (bool) {\n        revert(\"sECOx is non-transferrable\");\n    }\n\n    function transferFrom(\n        address,\n        address,\n        uint256\n    ) public pure override returns (bool) {\n        revert(\"sECOx is non-transferrable\");\n    }\n}\n",
  "sourcePath": "/Users/dirksmac/dev/eco/currency/contracts/governance/ECOxLockup.sol",
  "compiler": {
    "name": "solc",
    "version": "0.8.9+commit.e5eed63a.Emscripten.clang"
  },
  "schemaVersion": "3.4.3",
  "updatedAt": "2022-06-27T16:11:49.777Z",
  "devdoc": {
    "events": {
      "Deposit(address,uint256)": {
        "params": {
          "amount": "The amount of ECOx tokens deposited.",
          "source": "The address that a deposit certificate has been issued to."
        }
      },
      "Withdrawal(address,uint256)": {
        "params": {
          "amount": "The amount in basic unit of 10^{-18} ECOx (weicoX) tokens withdrawn.",
          "destination": "The address that has made a withdrawal."
        }
      }
    },
    "kind": "dev",
    "methods": {
      "allowance(address,address)": {
        "details": "See {IERC20-allowance}."
      },
      "approve(address,uint256)": {
        "details": "See {IERC20-approve}. Requirements: - `spender` cannot be the zero address."
      },
      "balanceOf(address)": {
        "details": "See {IERC20-balanceOf}."
      },
      "canImplementInterfaceForAddress(bytes32,address)": {
        "params": {
          "_addr": "The address of the contract we might act on behalf of."
        }
      },
      "decimals()": {
        "details": "Returns the number of decimals used to get its user representation. For example, if `decimals` equals `2`, a balance of `505` tokens should be displayed to a user as `5.05` (`505 / 10 ** 2`). Tokens usually opt for a value of 18, imitating the relationship between Ether and Wei. This is the value {ERC20} uses, unless this function is overridden; NOTE: This information is only used for _display_ purposes: it in no way affects any of the arithmetic of the contract, including {IERC20-balanceOf} and {IERC20-transfer}."
      },
      "decreaseAllowance(address,uint256)": {
        "details": "Atomically decreases the allowance granted to `spender` by the caller. This is an alternative to {approve} that can be used as a mitigation for problems described in {IERC20-approve}. Emits an {Approval} event indicating the updated allowance. Requirements: - `spender` cannot be the zero address. - `spender` must have allowance for the caller of at least `subtractedValue`."
      },
      "delegate(address)": {
        "details": "Delegate votes from the sender to `delegatee`."
      },
      "getDelegate(address)": {
        "details": "Get the address `account` is currently delegating to. Defaults to the account address itself if none specified"
      },
      "getPastTotalSupply(uint256)": {
        "details": "Retrieve the `totalSupply` at the end of `blockNumber`. Note, this value is the sum of all balances. It is NOT the sum of all the delegated votes! Requirements: - `blockNumber` must have been already mined"
      },
      "getPastVotes(address,uint256)": {
        "params": {
          "_blockNumber": "The block number to check the balance at the start                        of. Must be less than or equal to the present                        block number.",
          "_owner": "The account to check the balance of."
        }
      },
      "getPastVotingGons(address,uint256)": {
        "details": "Retrieve the number of votes in gons for `account` at the end of `blockNumber`. Requirements: - `blockNumber` must have been already mined"
      },
      "getVotingGons(address)": {
        "details": "Gets the current votes balance in gons for `account`"
      },
      "increaseAllowance(address,uint256)": {
        "details": "Atomically increases the allowance granted to `spender` by the caller. This is an alternative to {approve} that can be used as a mitigation for problems described in {IERC20-approve}. Emits an {Approval} event indicating the updated allowance. Requirements: - `spender` cannot be the zero address."
      },
      "initialize(address)": {
        "params": {
          "_self": "The address of the original contract deployment (as opposed              to the address of the proxy contract, which takes the place              of `this`)."
        }
      },
      "name()": {
        "details": "Returns the name of the token."
      },
      "numCheckpoints(address)": {
        "details": "Get number of checkpoints for `account`."
      },
      "policyCommand(address,bytes)": {
        "params": {
          "_data": "The call message/data to execute on.",
          "_delegate": "The address of the contract to delegate execution to."
        }
      },
      "symbol()": {
        "details": "Returns the symbol of the token, usually a shorter version of the name."
      },
      "totalSupply()": {
        "details": "See {IERC20-totalSupply}."
      }
    },
    "title": "ECOxLockup",
    "version": 1
  },
  "userdoc": {
    "events": {
      "Deposit(address,uint256)": {
        "notice": "The Deposit event indicates that ECOx has been locked up, credited to a particular address in a particular amount."
      },
      "Withdrawal(address,uint256)": {
        "notice": "The Withdrawal event indicates that a withdrawal has been made to a particular address in a particular amount."
      }
    },
    "kind": "user",
    "methods": {
      "canImplementInterfaceForAddress(bytes32,address)": {
        "notice": "ERC1820 permissioning interface"
      },
      "clone()": {
        "notice": "Create a clone of this contract Creates a clone of this contract by instantiating a proxy at a new address and initializing it based on the current contract. Uses optionality.io's CloneFactory functionality. This is used to save gas cost during deployments. Rather than including the full contract code in every contract that might instantiate it we can deploy it once and reference the location it was deployed to. Then calls to clone() can be used to create instances as needed without increasing the code size of the instantiating contract."
      },
      "getPastVotes(address,uint256)": {
        "notice": "Return historical voting balance (includes delegation) at given block number. If the latest block number for the account is before the requested block then the most recent known balance is returned. Otherwise the exact block number requested is returned."
      },
      "implementation()": {
        "notice": "Get the address of the proxy target contract."
      },
      "initialize(address)": {
        "notice": "Initialize the contract (replaces constructor) See documentation for Policed for an explanation."
      },
      "policy()": {
        "notice": "The address of the root policy instance overseeing this instance. This address can be used for ERC1820 lookup of other components, ERC1820 lookup of role policies, and interaction with the policy hierarchy."
      },
      "policyCommand(address,bytes)": {
        "notice": "Execute code as indicated by the managing policy contract We allow the managing policy contract to execute arbitrary code in our context by allowing it to specify an implementation address and some message data, and then using delegatecall to execute the code at the implementation address, passing in the message data, all within our own address space."
      },
      "setExpectedInterfaceSet(address)": {
        "notice": "Set the expected interface set"
      },
      "totalSupplyAt(uint256)": {
        "notice": "Returns the total (inflation corrected) token supply at a specified block number"
      }
    },
    "version": 1
  }
}