{
  "contractName": "ECOx",
  "abi": [
    {
      "inputs": [
        {
          "internalType": "contract Policy",
          "name": "_policy",
          "type": "address"
        },
        {
          "internalType": "address",
          "name": "_distributor",
          "type": "address"
        },
        {
          "internalType": "uint256",
          "name": "_initialSupply",
          "type": "uint256"
        },
        {
          "internalType": "address",
          "name": "_ecoAddr",
          "type": "address"
        }
      ],
      "stateMutability": "nonpayable",
      "type": "constructor"
    },
    {
      "anonymous": false,
      "inputs": [
        {
          "indexed": true,
          "internalType": "address",
          "name": "owner",
          "type": "address"
        },
        {
          "indexed": true,
          "internalType": "address",
          "name": "spender",
          "type": "address"
        },
        {
          "indexed": false,
          "internalType": "uint256",
          "name": "value",
          "type": "uint256"
        }
      ],
      "name": "Approval",
      "type": "event"
    },
    {
      "anonymous": false,
      "inputs": [
        {
          "indexed": true,
          "internalType": "address",
          "name": "from",
          "type": "address"
        },
        {
          "indexed": true,
          "internalType": "address",
          "name": "to",
          "type": "address"
        },
        {
          "indexed": false,
          "internalType": "uint256",
          "name": "value",
          "type": "uint256"
        }
      ],
      "name": "Transfer",
      "type": "event"
    },
    {
      "inputs": [],
      "name": "PRECISION",
      "outputs": [
        {
          "internalType": "uint8",
          "name": "",
          "type": "uint8"
        }
      ],
      "stateMutability": "view",
      "type": "function"
    },
    {
      "inputs": [
        {
          "internalType": "address",
          "name": "owner",
          "type": "address"
        },
        {
          "internalType": "address",
          "name": "spender",
          "type": "address"
        }
      ],
      "name": "allowance",
      "outputs": [
        {
          "internalType": "uint256",
          "name": "",
          "type": "uint256"
        }
      ],
      "stateMutability": "view",
      "type": "function"
    },
    {
      "inputs": [
        {
          "internalType": "address",
          "name": "spender",
          "type": "address"
        },
        {
          "internalType": "uint256",
          "name": "amount",
          "type": "uint256"
        }
      ],
      "name": "approve",
      "outputs": [
        {
          "internalType": "bool",
          "name": "",
          "type": "bool"
        }
      ],
      "stateMutability": "nonpayable",
      "type": "function"
    },
    {
      "inputs": [
        {
          "internalType": "address",
          "name": "account",
          "type": "address"
        }
      ],
      "name": "balanceOf",
      "outputs": [
        {
          "internalType": "uint256",
          "name": "",
          "type": "uint256"
        }
      ],
      "stateMutability": "view",
      "type": "function"
    },
    {
      "inputs": [
        {
          "internalType": "bytes32",
          "name": "",
          "type": "bytes32"
        },
        {
          "internalType": "address",
          "name": "_addr",
          "type": "address"
        }
      ],
      "name": "canImplementInterfaceForAddress",
      "outputs": [
        {
          "internalType": "bytes32",
          "name": "",
          "type": "bytes32"
        }
      ],
      "stateMutability": "view",
      "type": "function"
    },
    {
      "inputs": [],
      "name": "clone",
      "outputs": [
        {
          "internalType": "address",
          "name": "",
          "type": "address"
        }
      ],
      "stateMutability": "nonpayable",
      "type": "function"
    },
    {
      "inputs": [],
      "name": "decimals",
      "outputs": [
        {
          "internalType": "uint8",
          "name": "",
          "type": "uint8"
        }
      ],
      "stateMutability": "view",
      "type": "function"
    },
    {
      "inputs": [
        {
          "internalType": "address",
          "name": "spender",
          "type": "address"
        },
        {
          "internalType": "uint256",
          "name": "subtractedValue",
          "type": "uint256"
        }
      ],
      "name": "decreaseAllowance",
      "outputs": [
        {
          "internalType": "bool",
          "name": "",
          "type": "bool"
        }
      ],
      "stateMutability": "nonpayable",
      "type": "function"
    },
    {
      "inputs": [],
      "name": "distributor",
      "outputs": [
        {
          "internalType": "address",
          "name": "",
          "type": "address"
        }
      ],
      "stateMutability": "view",
      "type": "function"
    },
    {
      "inputs": [],
      "name": "ecoToken",
      "outputs": [
        {
          "internalType": "contract IECO",
          "name": "",
          "type": "address"
        }
      ],
      "stateMutability": "view",
      "type": "function"
    },
    {
      "inputs": [],
      "name": "implementation",
      "outputs": [
        {
          "internalType": "address",
          "name": "_impl",
          "type": "address"
        }
      ],
      "stateMutability": "view",
      "type": "function"
    },
    {
      "inputs": [
        {
          "internalType": "address",
          "name": "spender",
          "type": "address"
        },
        {
          "internalType": "uint256",
          "name": "addedValue",
          "type": "uint256"
        }
      ],
      "name": "increaseAllowance",
      "outputs": [
        {
          "internalType": "bool",
          "name": "",
          "type": "bool"
        }
      ],
      "stateMutability": "nonpayable",
      "type": "function"
    },
    {
      "inputs": [],
      "name": "initialSupply",
      "outputs": [
        {
          "internalType": "uint256",
          "name": "",
          "type": "uint256"
        }
      ],
      "stateMutability": "view",
      "type": "function"
    },
    {
      "inputs": [],
      "name": "name",
      "outputs": [
        {
          "internalType": "string",
          "name": "",
          "type": "string"
        }
      ],
      "stateMutability": "view",
      "type": "function"
    },
    {
      "inputs": [],
      "name": "policy",
      "outputs": [
        {
          "internalType": "contract Policy",
          "name": "",
          "type": "address"
        }
      ],
      "stateMutability": "view",
      "type": "function"
    },
    {
      "inputs": [
        {
          "internalType": "address",
          "name": "_delegate",
          "type": "address"
        },
        {
          "internalType": "bytes",
          "name": "_data",
          "type": "bytes"
        }
      ],
      "name": "policyCommand",
      "outputs": [],
      "stateMutability": "nonpayable",
      "type": "function"
    },
    {
      "inputs": [
        {
          "internalType": "address",
          "name": "_addr",
          "type": "address"
        }
      ],
      "name": "setExpectedInterfaceSet",
      "outputs": [],
      "stateMutability": "nonpayable",
      "type": "function"
    },
    {
      "inputs": [],
      "name": "symbol",
      "outputs": [
        {
          "internalType": "string",
          "name": "",
          "type": "string"
        }
      ],
      "stateMutability": "view",
      "type": "function"
    },
    {
      "inputs": [],
      "name": "totalSupply",
      "outputs": [
        {
          "internalType": "uint256",
          "name": "",
          "type": "uint256"
        }
      ],
      "stateMutability": "view",
      "type": "function"
    },
    {
      "inputs": [
        {
          "internalType": "address",
          "name": "recipient",
          "type": "address"
        },
        {
          "internalType": "uint256",
          "name": "amount",
          "type": "uint256"
        }
      ],
      "name": "transfer",
      "outputs": [
        {
          "internalType": "bool",
          "name": "",
          "type": "bool"
        }
      ],
      "stateMutability": "nonpayable",
      "type": "function"
    },
    {
      "inputs": [
        {
          "internalType": "address",
          "name": "sender",
          "type": "address"
        },
        {
          "internalType": "address",
          "name": "recipient",
          "type": "address"
        },
        {
          "internalType": "uint256",
          "name": "amount",
          "type": "uint256"
        }
      ],
      "name": "transferFrom",
      "outputs": [
        {
          "internalType": "bool",
          "name": "",
          "type": "bool"
        }
      ],
      "stateMutability": "nonpayable",
      "type": "function"
    },
    {
      "inputs": [
        {
          "internalType": "address",
          "name": "_self",
          "type": "address"
        }
      ],
      "name": "initialize",
      "outputs": [],
      "stateMutability": "nonpayable",
      "type": "function"
    },
    {
      "inputs": [
        {
          "internalType": "uint256",
          "name": "_ecoXValue",
          "type": "uint256"
        }
      ],
      "name": "ecoValueOf",
      "outputs": [
        {
          "internalType": "uint256",
          "name": "",
          "type": "uint256"
        }
      ],
      "stateMutability": "view",
      "type": "function"
    },
    {
      "inputs": [
        {
          "internalType": "uint256",
          "name": "_ecoXValue",
          "type": "uint256"
        },
        {
          "internalType": "uint256",
          "name": "_blockNumber",
          "type": "uint256"
        }
      ],
      "name": "valueAt",
      "outputs": [
        {
          "internalType": "uint256",
          "name": "",
          "type": "uint256"
        }
      ],
      "stateMutability": "view",
      "type": "function"
    },
    {
      "inputs": [
        {
          "internalType": "uint256",
          "name": "_ecoXValue",
          "type": "uint256"
        }
      ],
      "name": "exchange",
      "outputs": [],
      "stateMutability": "nonpayable",
      "type": "function"
    },
    {
      "inputs": [
        {
          "internalType": "address",
          "name": "_to",
          "type": "address"
        },
        {
          "internalType": "uint256",
          "name": "_value",
          "type": "uint256"
        }
      ],
      "name": "mint",
      "outputs": [],
      "stateMutability": "nonpayable",
      "type": "function"
    }
  ],
  "bytecode": "0x6101406040523480156200001257600080fd5b506040516200237438038062002374833981016040819052620000359162000275565b83806040518060400160405280600581526020016408ac6de5ab60db1b8152506040518060400160405280600481526020016308a869ef60e31b8152506200008882620001b560201b62000c881760201c565b60808181525050620000a581620001b560201b62000c881760201c565b60a05250620000b6905030620001ce565b6001600160a01b0390811660c052604051635df8122f60e01b81523060048201529082166024820152731820a4b7618bde71dce8cdc73aab6c95905fad2490635df8122f90604401600060405180830381600087803b1580156200011957600080fd5b505af11580156200012e573d6000803e3d6000fd5b505050505060008211801562000142575060015b620001945760405162461bcd60e51b815260206004820152601f60248201527f696e697469616c20737570706c79206e6f742070726f7065726c79207365740060448201526064015b60405180910390fd5b60e0919091526001600160a01b0391821661010052166101205250620002d1565b60006020825110620001c657600080fd5b50601f015190565b6001600160a01b038116620001f0600080516020620023548339815191525490565b6001600160a01b03161415620002495760405162461bcd60e51b815260206004820152601f60248201527f496d706c656d656e746174696f6e20616c7265616479206d61746368696e670060448201526064016200018b565b6000805160206200235483398151915255565b6001600160a01b03811681146200027257600080fd5b50565b600080600080608085870312156200028c57600080fd5b845162000299816200025c565b6020860151909450620002ac816200025c565b604086015160608701519194509250620002c6816200025c565b939692955090935050565b60805160a05160c05160e0516101005161012051611fed620003676000396000818161033901528181610807015281816109d20152610a3f0152600081816103d20152610c3f0152600081816102b101528181610c600152610fa20152600081816101b801528181610491015281816106dd015281816108dc015261127a01526000610ae8015260006104470152611fed6000f3fe608060405234801561001057600080fd5b50600436106101ae5760003560e01c806340c10f19116100ee57806395d89b4111610097578063aaf5eb6811610071578063aaf5eb68146103c5578063bfe10928146103cd578063c4d66de8146103f4578063dd62ed3e1461040757600080fd5b806395d89b4114610397578063a457c2d71461039f578063a9059cbb146103b257600080fd5b8063705d5304116100c8578063705d53041461033457806370a082311461035b57806373b46d5c1461038457600080fd5b806340c10f19146102f9578063535565591461030c5780635c60da1b1461031f57600080fd5b806323b872dd1161015b578063329c53f711610135578063329c53f714610299578063378dc3dc146102ac57806339509351146102d357806339634e0c146102e657600080fd5b806323b872dd1461025e578063249cb3fa14610271578063313ce5671461028457600080fd5b806309d7f23b1161018c57806309d7f23b1461022f57806309ed46071461024457806318160ddd1461024c57600080fd5b80630505c8c9146101b357806306fdde03146101f7578063095ea7b31461020c575b600080fd5b6101da7f000000000000000000000000000000000000000000000000000000000000000081565b6040516001600160a01b0390911681526020015b60405180910390f35b6101ff610440565b6040516101ee9190611c74565b61021f61021a366004611cde565b610470565b60405190151581526020016101ee565b61024261023d366004611d20565b610486565b005b6101da610544565b6002545b6040519081526020016101ee565b61021f61026c366004611de4565b61062f565b61025061027f366004611e25565b6106d9565b60125b60405160ff90911681526020016101ee565b6102506102a7366004611e55565b6107e4565b6102507f000000000000000000000000000000000000000000000000000000000000000081565b61021f6102e1366004611cde565b610895565b6102426102f4366004611e77565b6108d1565b610242610307366004611cde565b61098f565b61024261031a366004611e94565b61099e565b600080516020611f98833981519152546101da565b6101da7f000000000000000000000000000000000000000000000000000000000000000081565b610250610369366004611e77565b6001600160a01b031660009081526020819052604090205490565b610250610392366004611e94565b610a3a565b6101ff610ae1565b61021f6103ad366004611cde565b610b0c565b61021f6103c0366004611cde565b610ba5565b610287606481565b6101da7f000000000000000000000000000000000000000000000000000000000000000081565b610242610402366004611e77565b610bb2565b610250610415366004611ead565b6001600160a01b03918216600090815260016020908152604080832093909416825291909152205490565b606061046b7f0000000000000000000000000000000000000000000000000000000000000000610ca0565b905090565b600061047d338484610d06565b50600192915050565b336001600160a01b037f0000000000000000000000000000000000000000000000000000000000000000161461051a5760405162461bcd60e51b815260206004820152602e60248201527f4f6e6c792074686520706f6c69637920636f6e7472616374206d61792063616c60448201526d36103a3434b99036b2ba3437b21760911b60648201526084015b60405180910390fd5b600080825160208401855af43d806000803e81801561053857816000f35b816000fd5b5050505050565b60003061055d600080516020611f988339815191525490565b6001600160a01b0316146105c25760405162461bcd60e51b815260206004820152602660248201527f54686973206d6574686f642063616e6e6f742062652063616c6c6564206f6e20604482015265636c6f6e657360d01b6064820152608401610511565b60006105cd30610dc8565b60405163189acdbd60e31b81523060048201529091506001600160a01b0382169063c4d66de890602401600060405180830381600087803b15801561061157600080fd5b505af1158015610625573d6000803e3d6000fd5b5092949350505050565b600061063c848484610e31565b6001600160a01b0384166000908152600160209081526040808320338452909152902054828110156106c15760405162461bcd60e51b815260206004820152602860248201527f45524332303a207472616e7366657220616d6f756e74206578636565647320616044820152676c6c6f77616e636560c01b6064820152608401610511565b6106ce8533858403610d06565b506001949350505050565b60007f00000000000000000000000000000000000000000000000000000000000000006001600160a01b0316826001600160a01b0316148061072857506003546001600160a01b038381169116145b61079a5760405162461bcd60e51b815260206004820152603c60248201527f4f6e6c792074686520706f6c696379206f7220696e7465726661636520636f6e60448201527f74726163742063616e207365742074686520696e746572666163652e000000006064820152608401610511565b6040517f455243313832305f4143434550545f4d41474943000000000000000000000000602082015260340160405160208183030381529060405280519060200120905092915050565b604051630981b24d60e41b81526004810182905260009081906001600160a01b037f0000000000000000000000000000000000000000000000000000000000000000169063981b24d09060240160206040518083038186803b15801561084957600080fd5b505afa15801561085d573d6000803e3d6000fd5b505050506040513d601f19601f820116820180604052508101906108819190611edb565b905061088d8482610f9d565b949350505050565b3360008181526001602090815260408083206001600160a01b0387168452909152812054909161047d9185906108cc908690611f0a565b610d06565b336001600160a01b037f000000000000000000000000000000000000000000000000000000000000000016146109605760405162461bcd60e51b815260206004820152602e60248201527f4f6e6c792074686520706f6c69637920636f6e7472616374206d61792063616c60448201526d36103a3434b99036b2ba3437b21760911b6064820152608401610511565b6003805473ffffffffffffffffffffffffffffffffffffffff19166001600160a01b0392909216919091179055565b6109998282610ff9565b505050565b60006109a982610a3a565b90506109b533836110e2565b506040516340c10f1960e01b8152336004820152602481018290527f00000000000000000000000000000000000000000000000000000000000000006001600160a01b0316906340c10f1990604401600060405180830381600087803b158015610a1e57600080fd5b505af1158015610a32573d6000803e3d6000fd5b505050505050565b6000807f00000000000000000000000000000000000000000000000000000000000000006001600160a01b03166318160ddd6040518163ffffffff1660e01b815260040160206040518083038186803b158015610a9657600080fd5b505afa158015610aaa573d6000803e3d6000fd5b505050506040513d601f19601f82011682018060405250810190610ace9190611edb565b9050610ada8382610f9d565b9392505050565b606061046b7f0000000000000000000000000000000000000000000000000000000000000000610ca0565b3360009081526001602090815260408083206001600160a01b038616845290915281205482811015610b8e5760405162461bcd60e51b815260206004820152602560248201527f45524332303a2064656372656173656420616c6c6f77616e63652062656c6f77604482015264207a65726f60d81b6064820152608401610511565b610b9b3385858403610d06565b5060019392505050565b600061047d338484610e31565b6000610bca600080516020611f988339815191525490565b6001600160a01b031614610c315760405162461bcd60e51b815260206004820152602860248201527f43616e206f6e6c792062652063616c6c656420647572696e6720696e697469616044820152673634bd30ba34b7b760c11b6064820152608401610511565b610c3a816111d5565b610c847f00000000000000000000000000000000000000000000000000000000000000007f0000000000000000000000000000000000000000000000000000000000000000610ff9565b5050565b60006020825110610c9857600080fd5b50601f015190565b606060f882901c60208110610cb457600080fd5b8067ffffffffffffffff811115610ccd57610ccd611d0a565b6040519080825280601f01601f191660200182016040528015610cf7576020820181803683370190505b50915082601f83015250919050565b6001600160a01b038216610d675760405162461bcd60e51b815260206004820152602260248201527f45524332303a20617070726f766520746f20746865207a65726f206164647265604482015261737360f01b6064820152608401610511565b6001600160a01b0383811660008181526001602090815260408083209487168084529482529182902085905590518481527f8c5be1e5ebec7d5bd14f71427d1e84f3dd0314c0f7b2291e5b200ac8c7c3b925910160405180910390a3505050565b6000808260601b90506040517f3d602d80600a3d3981f3363d3d373d3d3d363d7300000000000000000000000081528160148201527f5af43d82803e903d91602b57fd5bf3000000000000000000000000000000000060288201526037816000f0949350505050565b6001600160a01b038216610e935760405162461bcd60e51b815260206004820152602360248201527f45524332303a207472616e7366657220746f20746865207a65726f206164647260448201526265737360e81b6064820152608401610511565b6001600160a01b038316600090815260208190526040902054819081811015610f0d5760405162461bcd60e51b815260206004820152602660248201527f45524332303a207472616e7366657220616d6f756e7420657863656564732062604482015265616c616e636560d01b6064820152608401610511565b6001600160a01b03808616600090815260208190526040808220858503905591861681529081208054849290610f44908490611f0a565b92505081905550836001600160a01b0316856001600160a01b03167fddf252ad1be2c89b69c2b068fc378daa952ba7f163c4a11628f55a4df523b3ef85604051610f9091815260200190565b60405180910390a361053d565b6000807f0000000000000000000000000000000000000000000000000000000000000000610fcc8560646112ec565b610fd69190611f22565b9050606483610fe583836113a7565b610fef9190611f44565b901c949350505050565b60006001600160a01b0383166110515760405162461bcd60e51b815260206004820152601f60248201527f45524332303a206d696e7420746f20746865207a65726f2061646472657373006044820152606401610511565b600082905080600260008282546110689190611f0a565b90915550506001600160a01b03841660009081526020819052604081208054839290611095908490611f0a565b90915550506040518381526001600160a01b038516906000907fddf252ad1be2c89b69c2b068fc378daa952ba7f163c4a11628f55a4df523b3ef9060200160405180910390a39392505050565b6001600160a01b0382166000908152602081905260408120548290818110156111585760405162461bcd60e51b815260206004820152602260248201527f45524332303a206275726e20616d6f756e7420657863656564732062616c616e604482015261636560f01b6064820152608401610511565b6001600160a01b0385166000908152602081905260408120838303905560028054849290611187908490611f63565b90915550506040518481526000906001600160a01b038716907fddf252ad1be2c89b69c2b068fc378daa952ba7f163c4a11628f55a4df523b3ef9060200160405180910390a3509392505050565b60006111ed600080516020611f988339815191525490565b6001600160a01b0316146112545760405162461bcd60e51b815260206004820152602860248201527f43616e206f6e6c792062652063616c6c656420647572696e6720696e697469616044820152673634bd30ba34b7b760c11b6064820152608401610511565b61125d816119fd565b604051635df8122f60e01b81523060048201526001600160a01b037f0000000000000000000000000000000000000000000000000000000000000000166024820152731820a4b7618bde71dce8cdc73aab6c95905fad2490635df8122f90604401600060405180830381600087803b1580156112d857600080fd5b505af115801561053d573d6000803e3d6000fd5b60006101008260ff16106113425760405162461bcd60e51b815260206004820152601660248201527f736869667420616d6f756e7420746f6f206c61726765000000000000000000006044820152606401610511565b60ff821683811b9081901c8414610ada5760405162461bcd60e51b8152602060048201526024808201527f76616c756520746f6f206c617267652c207368696674206f7574206f6620626f604482015263756e647360e01b6064820152608401610511565b6000828160ff84166113b98380611f44565b901c91506113d7826f03442c4e6074a82f1797f72ac0000000611f44565b6113e19082611f0a565b905060ff84166113f18684611f44565b901c915061140f826f0116b96f757c380fb287fd0e40000000611f44565b6114199082611f0a565b905060ff84166114298684611f44565b901c9150611446826e45ae5bdd5f0e03eca1ff4390000000611f44565b6114509082611f0a565b905060ff84166114608684611f44565b901c915061147d826e0defabf91302cd95b9ffda50000000611f44565b6114879082611f0a565b905060ff84166114978684611f44565b901c91506114b4826e02529ca9832b22439efff9b8000000611f44565b6114be9082611f0a565b905060ff84166114ce8684611f44565b901c91506114ea826d54f1cf12bd04e516b6da88000000611f44565b6114f49082611f0a565b905060ff84166115048684611f44565b901c9150611520826d0a9e39e257a09ca2d6db51000000611f44565b61152a9082611f0a565b905060ff841661153a8684611f44565b901c9150611556826d012e066e7b839fa050c309000000611f44565b6115609082611f0a565b905060ff84166115708684611f44565b901c915061158b826c1e33d7d926c329a1ad1a800000611f44565b6115959082611f0a565b905060ff84166115a58684611f44565b901c91506115c0826c02bee513bdb4a6b19b5f800000611f44565b6115ca9082611f0a565b905060ff84166115da8684611f44565b901c91506115f4826b3a9316fa79b88eccf2a00000611f44565b6115fe9082611f0a565b905060ff841661160e8684611f44565b901c9150611628826b048177ebe1fa812375200000611f44565b6116329082611f0a565b905060ff84166116428684611f44565b901c915061165b826a5263fe90242dcbacf00000611f44565b6116659082611f0a565b905060ff84166116758684611f44565b901c915061168e826a057e22099c030d94100000611f44565b6116989082611f0a565b905060ff84166116a88684611f44565b901c91506116c0826957e22099c030d9410000611f44565b6116ca9082611f0a565b905060ff84166116da8684611f44565b901c91506116f28269052b6b54569976310000611f44565b6116fc9082611f0a565b905060ff841661170c8684611f44565b901c915061172382684985f67696bf748000611f44565b61172d9082611f0a565b905060ff841661173d8684611f44565b901c9150611754826803dea12ea99e498000611f44565b61175e9082611f0a565b905060ff841661176e8684611f44565b901c9150611784826731880f2214b6e000611f44565b61178e9082611f0a565b905060ff841661179e8684611f44565b901c91506117b48267025bcff56eb36000611f44565b6117be9082611f0a565b905060ff84166117ce8684611f44565b901c91506117e382661b722e10ab1000611f44565b6117ed9082611f0a565b905060ff84166117fd8684611f44565b901c9150611812826601317c70077000611f44565b61181c9082611f0a565b905060ff841661182c8684611f44565b901c915061184082650cba84aafa00611f44565b61184a9082611f0a565b905060ff841661185a8684611f44565b901c915061186d826482573a0a00611f44565b6118779082611f0a565b905060ff84166118878684611f44565b901c915061189a826405035ad900611f44565b6118a49082611f0a565b905060ff84166118b48684611f44565b901c91506118c682632f881b00611f44565b6118d09082611f0a565b905060ff84166118e08684611f44565b901c91506118f2826301b29340611f44565b6118fc9082611f0a565b905060ff841661190c8684611f44565b901c915061191d82620efc40611f44565b6119279082611f0a565b905060ff84166119378684611f44565b901c915061194782617fe0611f44565b6119519082611f0a565b905060ff84166119618684611f44565b901c915061197182610420611f44565b61197b9082611f0a565b905060ff841661198b8684611f44565b901c915061199a826021611f44565b6119a49082611f0a565b905060ff84166119b48684611f44565b901c91506119c3826001611f44565b6119cd9082611f0a565b9050846119ea6f0688589cc0e9505e2f2fee558000000083611f22565b6119f49190611f0a565b95945050505050565b6000611a15600080516020611f988339815191525490565b6001600160a01b031614611a7c5760405162461bcd60e51b815260206004820152602860248201527f43616e206f6e6c792062652063616c6c656420647572696e6720696e697469616044820152673634bd30ba34b7b760c11b6064820152608401610511565b611a8581611a88565b50565b6000611aa0600080516020611f988339815191525490565b6001600160a01b031614611b075760405162461bcd60e51b815260206004820152602860248201527f43616e206f6e6c792062652063616c6c656420647572696e6720696e697469616044820152673634bd30ba34b7b760c11b6064820152608401610511565b6000816001600160a01b0316635c60da1b6040518163ffffffff1660e01b815260040160206040518083038186803b158015611b4257600080fd5b505afa158015611b56573d6000803e3d6000fd5b505050506040513d601f19601f82011682018060405250810190611b7a9190611f7a565b90506001600160a01b038116611be75760405162461bcd60e51b815260206004820152602c60248201527f696e697469616c697a6174696f6e206661696c7572653a206e6f7468696e672060448201526b1d1bc81a5b5c1b195b595b9d60a21b6064820152608401610511565b610c8481806001600160a01b0316611c0b600080516020611f988339815191525490565b6001600160a01b03161415611c625760405162461bcd60e51b815260206004820152601f60248201527f496d706c656d656e746174696f6e20616c7265616479206d61746368696e67006044820152606401610511565b600080516020611f9883398151915255565b600060208083528351808285015260005b81811015611ca157858101830151858201604001528201611c85565b81811115611cb3576000604083870101525b50601f01601f1916929092016040019392505050565b6001600160a01b0381168114611a8557600080fd5b60008060408385031215611cf157600080fd5b8235611cfc81611cc9565b946020939093013593505050565b634e487b7160e01b600052604160045260246000fd5b60008060408385031215611d3357600080fd5b8235611d3e81611cc9565b9150602083013567ffffffffffffffff80821115611d5b57600080fd5b818501915085601f830112611d6f57600080fd5b813581811115611d8157611d81611d0a565b604051601f8201601f19908116603f01168101908382118183101715611da957611da9611d0a565b81604052828152886020848701011115611dc257600080fd5b8260208601602083013760006020848301015280955050505050509250929050565b600080600060608486031215611df957600080fd5b8335611e0481611cc9565b92506020840135611e1481611cc9565b929592945050506040919091013590565b60008060408385031215611e3857600080fd5b823591506020830135611e4a81611cc9565b809150509250929050565b60008060408385031215611e6857600080fd5b50508035926020909101359150565b600060208284031215611e8957600080fd5b8135610ada81611cc9565b600060208284031215611ea657600080fd5b5035919050565b60008060408385031215611ec057600080fd5b8235611ecb81611cc9565b91506020830135611e4a81611cc9565b600060208284031215611eed57600080fd5b5051919050565b634e487b7160e01b600052601160045260246000fd5b60008219821115611f1d57611f1d611ef4565b500190565b600082611f3f57634e487b7160e01b600052601260045260246000fd5b500490565b6000816000190483118215151615611f5e57611f5e611ef4565b500290565b600082821015611f7557611f75611ef4565b500390565b600060208284031215611f8c57600080fd5b8151610ada81611cc956fef86c915dad5894faca0dfa067c58fdf4307406d255ed0a65db394f82b77f53d4a26469706673582212203c3ee7ec4fb52cc8983c4fb030edf46059bbf3def6200839e185c1186dfbf73e64736f6c63430008090033f86c915dad5894faca0dfa067c58fdf4307406d255ed0a65db394f82b77f53d4",
  "immutableReferences": {
    "2515": [
      {
        "length": 32,
        "start": 689
      },
      {
        "length": 32,
        "start": 3168
      },
      {
        "length": 32,
        "start": 4002
      }
    ],
    "2517": [
      {
        "length": 32,
        "start": 978
      },
      {
        "length": 32,
        "start": 3135
      }
    ],
    "2520": [
      {
        "length": 32,
        "start": 825
      },
      {
        "length": 32,
        "start": 2055
      },
      {
        "length": 32,
        "start": 2514
      },
      {
        "length": 32,
        "start": 2623
      }
    ],
    "3256": [
      {
        "length": 32,
        "start": 1095
      }
    ],
    "3258": [
      {
        "length": 32,
        "start": 2792
      }
    ],
    "12039": [
      {
        "length": 32,
        "start": 440
      },
      {
        "length": 32,
        "start": 1169
      },
      {
        "length": 32,
        "start": 1757
      },
      {
        "length": 32,
        "start": 2268
      },
      {
        "length": 32,
        "start": 4730
      }
    ]
  },
  "source": "/* -*- c-basic-offset: 4 -*- */\n// SPDX-License-Identifier: MIT\npragma solidity ^0.8.0;\nimport \"./IECO.sol\";\nimport \"../policy/PolicedUtils.sol\";\nimport \"../utils/TimeUtils.sol\";\nimport \"../governance/Lockup.sol\";\nimport \"../governance/CurrencyTimer.sol\";\nimport \"./ERC20.sol\";\n\n/** @title An ERC20 token interface for ECOx\n *\n * Contains the conversion mechanism for turning ECOx into ECO.\n */\ncontract ECOx is ERC20, PolicedUtils {\n    // bits of precision used in the exponentiation approximation\n    uint8 public constant PRECISION = 100;\n\n    uint256 public immutable initialSupply;\n\n    // the address of the contract for initial distribution\n    address public immutable distributor;\n\n    // the address of the ECO token contract\n    IECO public immutable ecoToken;\n\n    constructor(\n        Policy _policy,\n        address _distributor,\n        uint256 _initialSupply,\n        address _ecoAddr\n    ) ERC20(\"Eco-X\", \"ECOx\") PolicedUtils(_policy) {\n        require(\n            _initialSupply > 0 && _initialSupply <= type(uint256).max,\n            \"initial supply not properly set\"\n        );\n\n        initialSupply = _initialSupply;\n        distributor = _distributor;\n        ecoToken = IECO(_ecoAddr);\n    }\n\n    function initialize(address _self)\n        public\n        virtual\n        override\n        onlyConstruction\n    {\n        super.initialize(_self);\n        _mint(distributor, initialSupply);\n    }\n\n    function ecoValueOf(uint256 _ecoXValue) public view returns (uint256) {\n        uint256 _ecoSupply = ecoToken.totalSupply();\n\n        return computeValue(_ecoXValue, _ecoSupply);\n    }\n\n    function valueAt(uint256 _ecoXValue, uint256 _blockNumber)\n        public\n        view\n        returns (uint256)\n    {\n        uint256 _ecoSupplyAt = ecoToken.totalSupplyAt(_blockNumber);\n\n        return computeValue(_ecoXValue, _ecoSupplyAt);\n    }\n\n    function computeValue(uint256 _ecoXValue, uint256 _ecoSupply)\n        internal\n        view\n        returns (uint256)\n    {\n        uint256 _preciseRatio = safeLeftShift(_ecoXValue, PRECISION) /\n            initialSupply;\n\n        return (generalExp(_preciseRatio, PRECISION) * _ecoSupply) >> PRECISION;\n    }\n\n    function safeLeftShift(uint256 value, uint8 shift)\n        internal\n        pure\n        returns (uint256)\n    {\n        require(shift < 256, \"shift amount too large\");\n        uint256 _result = value << shift;\n        require(\n            _result >> shift == value,\n            \"value too large, shift out of bounds\"\n        );\n        return _result;\n    }\n\n    /**\n     * @dev this function can be auto-generated by the script 'PrintFunctionGeneralExp.py'.\n     * it approximates \"e ^ x\" via maclaurin summation: \"(x^0)/0! + (x^1)/1! + ... + (x^n)/n!\".\n     * it returns \"e ^ (x / 2 ^ precision) * 2 ^ precision\", that is, the result is upshifted for accuracy.\n     * the global \"maxExpArray\" maps each \"precision\" to \"((maximumExponent + 1) << (MAX_PRECISION - precision)) - 1\".\n     * the maximum permitted value for \"x\" is therefore given by \"maxExpArray[precision] >> (MAX_PRECISION - precision)\".\n     */\n    function generalExp(uint256 _x, uint8 _precision)\n        internal\n        pure\n        returns (uint256)\n    {\n        uint256 xi = _x;\n        uint256 res = 0;\n\n        xi = (xi * _x) >> _precision;\n        res += xi * 0x3442c4e6074a82f1797f72ac0000000; // add x^02 * (33! / 02!)\n        xi = (xi * _x) >> _precision;\n        res += xi * 0x116b96f757c380fb287fd0e40000000; // add x^03 * (33! / 03!)\n        xi = (xi * _x) >> _precision;\n        res += xi * 0x045ae5bdd5f0e03eca1ff4390000000; // add x^04 * (33! / 04!)\n        xi = (xi * _x) >> _precision;\n        res += xi * 0x00defabf91302cd95b9ffda50000000; // add x^05 * (33! / 05!)\n        xi = (xi * _x) >> _precision;\n        res += xi * 0x002529ca9832b22439efff9b8000000; // add x^06 * (33! / 06!)\n        xi = (xi * _x) >> _precision;\n        res += xi * 0x00054f1cf12bd04e516b6da88000000; // add x^07 * (33! / 07!)\n        xi = (xi * _x) >> _precision;\n        res += xi * 0x0000a9e39e257a09ca2d6db51000000; // add x^08 * (33! / 08!)\n        xi = (xi * _x) >> _precision;\n        res += xi * 0x000012e066e7b839fa050c309000000; // add x^09 * (33! / 09!)\n        xi = (xi * _x) >> _precision;\n        res += xi * 0x000001e33d7d926c329a1ad1a800000; // add x^10 * (33! / 10!)\n        xi = (xi * _x) >> _precision;\n        res += xi * 0x0000002bee513bdb4a6b19b5f800000; // add x^11 * (33! / 11!)\n        xi = (xi * _x) >> _precision;\n        res += xi * 0x00000003a9316fa79b88eccf2a00000; // add x^12 * (33! / 12!)\n        xi = (xi * _x) >> _precision;\n        res += xi * 0x0000000048177ebe1fa812375200000; // add x^13 * (33! / 13!)\n        xi = (xi * _x) >> _precision;\n        res += xi * 0x0000000005263fe90242dcbacf00000; // add x^14 * (33! / 14!)\n        xi = (xi * _x) >> _precision;\n        res += xi * 0x000000000057e22099c030d94100000; // add x^15 * (33! / 15!)\n        xi = (xi * _x) >> _precision;\n        res += xi * 0x0000000000057e22099c030d9410000; // add x^16 * (33! / 16!)\n        xi = (xi * _x) >> _precision;\n        res += xi * 0x00000000000052b6b54569976310000; // add x^17 * (33! / 17!)\n        xi = (xi * _x) >> _precision;\n        res += xi * 0x00000000000004985f67696bf748000; // add x^18 * (33! / 18!)\n        xi = (xi * _x) >> _precision;\n        res += xi * 0x000000000000003dea12ea99e498000; // add x^19 * (33! / 19!)\n        xi = (xi * _x) >> _precision;\n        res += xi * 0x00000000000000031880f2214b6e000; // add x^20 * (33! / 20!)\n        xi = (xi * _x) >> _precision;\n        res += xi * 0x000000000000000025bcff56eb36000; // add x^21 * (33! / 21!)\n        xi = (xi * _x) >> _precision;\n        res += xi * 0x000000000000000001b722e10ab1000; // add x^22 * (33! / 22!)\n        xi = (xi * _x) >> _precision;\n        res += xi * 0x0000000000000000001317c70077000; // add x^23 * (33! / 23!)\n        xi = (xi * _x) >> _precision;\n        res += xi * 0x00000000000000000000cba84aafa00; // add x^24 * (33! / 24!)\n        xi = (xi * _x) >> _precision;\n        res += xi * 0x00000000000000000000082573a0a00; // add x^25 * (33! / 25!)\n        xi = (xi * _x) >> _precision;\n        res += xi * 0x00000000000000000000005035ad900; // add x^26 * (33! / 26!)\n        xi = (xi * _x) >> _precision;\n        res += xi * 0x000000000000000000000002f881b00; // add x^27 * (33! / 27!)\n        xi = (xi * _x) >> _precision;\n        res += xi * 0x0000000000000000000000001b29340; // add x^28 * (33! / 28!)\n        xi = (xi * _x) >> _precision;\n        res += xi * 0x00000000000000000000000000efc40; // add x^29 * (33! / 29!)\n        xi = (xi * _x) >> _precision;\n        res += xi * 0x0000000000000000000000000007fe0; // add x^30 * (33! / 30!)\n        xi = (xi * _x) >> _precision;\n        res += xi * 0x0000000000000000000000000000420; // add x^31 * (33! / 31!)\n        xi = (xi * _x) >> _precision;\n        res += xi * 0x0000000000000000000000000000021; // add x^32 * (33! / 32!)\n        xi = (xi * _x) >> _precision;\n        res += xi * 0x0000000000000000000000000000001; // add x^33 * (33! / 33!)\n\n        return res / 0x688589cc0e9505e2f2fee5580000000 + _x; // divide by 33! and then add x^1 / 1! + x^0 / 0!\n    }\n\n    function exchange(uint256 _ecoXValue) external {\n        uint256 eco = ecoValueOf(_ecoXValue);\n\n        _burn(msg.sender, _ecoXValue);\n\n        ecoToken.mint(msg.sender, eco);\n    }\n\n    function mint(address _to, uint256 _value) external {\n        /*\n        require(\n            msg.sender == policyFor(ID_FAUCET) ||\n                msg.sender == policyFor(ID_ECO_LABS),\n            \"Caller not authorized to mint tokens\"\n        );\n        */\n\n        _mint(_to, _value);\n    }\n}\n",
  "sourcePath": "/Users/dirksmac/dev/eco/currency/contracts/currency/ECOx.sol",
  "compiler": {
    "name": "solc",
    "version": "0.8.9+commit.e5eed63a.Emscripten.clang"
  },
  "schemaVersion": "3.4.3",
  "updatedAt": "2022-07-01T19:00:50.390Z",
  "devdoc": {
    "kind": "dev",
    "methods": {
      "allowance(address,address)": {
        "details": "See {IERC20-allowance}."
      },
      "approve(address,uint256)": {
        "details": "See {IERC20-approve}. Requirements: - `spender` cannot be the zero address."
      },
      "balanceOf(address)": {
        "details": "See {IERC20-balanceOf}."
      },
      "canImplementInterfaceForAddress(bytes32,address)": {
        "params": {
          "_addr": "The address of the contract we might act on behalf of."
        }
      },
      "decimals()": {
        "details": "Returns the number of decimals used to get its user representation. For example, if `decimals` equals `2`, a balance of `505` tokens should be displayed to a user as `5.05` (`505 / 10 ** 2`). Tokens usually opt for a value of 18, imitating the relationship between Ether and Wei. This is the value {ERC20} uses, unless this function is overridden; NOTE: This information is only used for _display_ purposes: it in no way affects any of the arithmetic of the contract, including {IERC20-balanceOf} and {IERC20-transfer}."
      },
      "decreaseAllowance(address,uint256)": {
        "details": "Atomically decreases the allowance granted to `spender` by the caller. This is an alternative to {approve} that can be used as a mitigation for problems described in {IERC20-approve}. Emits an {Approval} event indicating the updated allowance. Requirements: - `spender` cannot be the zero address. - `spender` must have allowance for the caller of at least `subtractedValue`."
      },
      "increaseAllowance(address,uint256)": {
        "details": "Atomically increases the allowance granted to `spender` by the caller. This is an alternative to {approve} that can be used as a mitigation for problems described in {IERC20-approve}. Emits an {Approval} event indicating the updated allowance. Requirements: - `spender` cannot be the zero address."
      },
      "initialize(address)": {
        "params": {
          "_self": "The address of the original contract deployment (as opposed              to the address of the proxy contract, which takes the place              of `this`)."
        }
      },
      "name()": {
        "details": "Returns the name of the token."
      },
      "policyCommand(address,bytes)": {
        "params": {
          "_data": "The call message/data to execute on.",
          "_delegate": "The address of the contract to delegate execution to."
        }
      },
      "symbol()": {
        "details": "Returns the symbol of the token, usually a shorter version of the name."
      },
      "totalSupply()": {
        "details": "See {IERC20-totalSupply}."
      },
      "transfer(address,uint256)": {
        "details": "See {IERC20-transfer}. Requirements: - `recipient` cannot be the zero address. - the caller must have a balance of at least `amount`."
      },
      "transferFrom(address,address,uint256)": {
        "details": "See {IERC20-transferFrom}. Emits an {Approval} event indicating the updated allowance. This is not required by the EIP. See the note at the beginning of {ERC20}. Requirements: - `sender` and `recipient` cannot be the zero address. - `sender` must have a balance of at least `amount`. - the caller must have allowance for ``sender``'s tokens of at least `amount`."
      }
    },
    "title": "An ERC20 token interface for ECOx Contains the conversion mechanism for turning ECOx into ECO.",
    "version": 1
  },
  "userdoc": {
    "kind": "user",
    "methods": {
      "canImplementInterfaceForAddress(bytes32,address)": {
        "notice": "ERC1820 permissioning interface"
      },
      "clone()": {
        "notice": "Create a clone of this contract Creates a clone of this contract by instantiating a proxy at a new address and initializing it based on the current contract. Uses optionality.io's CloneFactory functionality. This is used to save gas cost during deployments. Rather than including the full contract code in every contract that might instantiate it we can deploy it once and reference the location it was deployed to. Then calls to clone() can be used to create instances as needed without increasing the code size of the instantiating contract."
      },
      "implementation()": {
        "notice": "Get the address of the proxy target contract."
      },
      "initialize(address)": {
        "notice": "Initialize the contract (replaces constructor) See documentation for Policed for an explanation."
      },
      "policy()": {
        "notice": "The address of the root policy instance overseeing this instance. This address can be used for ERC1820 lookup of other components, ERC1820 lookup of role policies, and interaction with the policy hierarchy."
      },
      "policyCommand(address,bytes)": {
        "notice": "Execute code as indicated by the managing policy contract We allow the managing policy contract to execute arbitrary code in our context by allowing it to specify an implementation address and some message data, and then using delegatecall to execute the code at the implementation address, passing in the message data, all within our own address space."
      },
      "setExpectedInterfaceSet(address)": {
        "notice": "Set the expected interface set"
      }
    },
    "version": 1
  }
}