{
  "_format": "hh-sol-artifact-1",
  "contractName": "ECOxLockup",
  "sourceName": "contracts/governance/community/ECOxLockup.sol",
  "abi": [
    {
      "inputs": [
        {
          "internalType": "contract Policy",
          "name": "_policy",
          "type": "address"
        },
        {
          "internalType": "address",
          "name": "_ecoXAddr",
          "type": "address"
        }
      ],
      "stateMutability": "nonpayable",
      "type": "constructor"
    },
    {
      "anonymous": false,
      "inputs": [
        {
          "indexed": true,
          "internalType": "address",
          "name": "owner",
          "type": "address"
        },
        {
          "indexed": true,
          "internalType": "address",
          "name": "spender",
          "type": "address"
        },
        {
          "indexed": false,
          "internalType": "uint256",
          "name": "value",
          "type": "uint256"
        }
      ],
      "name": "Approval",
      "type": "event"
    },
    {
      "anonymous": false,
      "inputs": [
        {
          "indexed": true,
          "internalType": "address",
          "name": "delegator",
          "type": "address"
        },
        {
          "indexed": true,
          "internalType": "address",
          "name": "delegatee",
          "type": "address"
        },
        {
          "indexed": false,
          "internalType": "uint256",
          "name": "amount",
          "type": "uint256"
        }
      ],
      "name": "DelegatedVotes",
      "type": "event"
    },
    {
      "anonymous": false,
      "inputs": [
        {
          "indexed": true,
          "internalType": "address",
          "name": "source",
          "type": "address"
        },
        {
          "indexed": false,
          "internalType": "uint256",
          "name": "amount",
          "type": "uint256"
        }
      ],
      "name": "Deposit",
      "type": "event"
    },
    {
      "anonymous": false,
      "inputs": [
        {
          "indexed": true,
          "internalType": "address",
          "name": "delegator",
          "type": "address"
        },
        {
          "indexed": true,
          "internalType": "address",
          "name": "primaryDelegate",
          "type": "address"
        }
      ],
      "name": "NewPrimaryDelegate",
      "type": "event"
    },
    {
      "anonymous": false,
      "inputs": [
        {
          "indexed": true,
          "internalType": "address",
          "name": "from",
          "type": "address"
        },
        {
          "indexed": true,
          "internalType": "address",
          "name": "to",
          "type": "address"
        },
        {
          "indexed": false,
          "internalType": "uint256",
          "name": "value",
          "type": "uint256"
        }
      ],
      "name": "Transfer",
      "type": "event"
    },
    {
      "anonymous": false,
      "inputs": [
        {
          "indexed": true,
          "internalType": "address",
          "name": "voter",
          "type": "address"
        },
        {
          "indexed": false,
          "internalType": "uint256",
          "name": "newVotes",
          "type": "uint256"
        }
      ],
      "name": "UpdatedVotes",
      "type": "event"
    },
    {
      "anonymous": false,
      "inputs": [
        {
          "indexed": true,
          "internalType": "address",
          "name": "destination",
          "type": "address"
        },
        {
          "indexed": false,
          "internalType": "uint256",
          "name": "amount",
          "type": "uint256"
        }
      ],
      "name": "Withdrawal",
      "type": "event"
    },
    {
      "inputs": [
        {
          "internalType": "address",
          "name": "owner",
          "type": "address"
        },
        {
          "internalType": "address",
          "name": "spender",
          "type": "address"
        }
      ],
      "name": "allowance",
      "outputs": [
        {
          "internalType": "uint256",
          "name": "",
          "type": "uint256"
        }
      ],
      "stateMutability": "view",
      "type": "function"
    },
    {
      "inputs": [
        {
          "internalType": "address",
          "name": "spender",
          "type": "address"
        },
        {
          "internalType": "uint256",
          "name": "amount",
          "type": "uint256"
        }
      ],
      "name": "approve",
      "outputs": [
        {
          "internalType": "bool",
          "name": "",
          "type": "bool"
        }
      ],
      "stateMutability": "nonpayable",
      "type": "function"
    },
    {
      "inputs": [
        {
          "internalType": "address",
          "name": "account",
          "type": "address"
        }
      ],
      "name": "balanceOf",
      "outputs": [
        {
          "internalType": "uint256",
          "name": "",
          "type": "uint256"
        }
      ],
      "stateMutability": "view",
      "type": "function"
    },
    {
      "inputs": [
        {
          "internalType": "bytes32",
          "name": "",
          "type": "bytes32"
        },
        {
          "internalType": "address",
          "name": "_addr",
          "type": "address"
        }
      ],
      "name": "canImplementInterfaceForAddress",
      "outputs": [
        {
          "internalType": "bytes32",
          "name": "",
          "type": "bytes32"
        }
      ],
      "stateMutability": "view",
      "type": "function"
    },
    {
      "inputs": [
        {
          "internalType": "address",
          "name": "",
          "type": "address"
        },
        {
          "internalType": "uint256",
          "name": "",
          "type": "uint256"
        }
      ],
      "name": "checkpoints",
      "outputs": [
        {
          "internalType": "uint32",
          "name": "fromBlock",
          "type": "uint32"
        },
        {
          "internalType": "uint224",
          "name": "value",
          "type": "uint224"
        }
      ],
      "stateMutability": "view",
      "type": "function"
    },
    {
      "inputs": [],
      "name": "clone",
      "outputs": [
        {
          "internalType": "address",
          "name": "",
          "type": "address"
        }
      ],
      "stateMutability": "nonpayable",
      "type": "function"
    },
    {
      "inputs": [],
      "name": "currentGeneration",
      "outputs": [
        {
          "internalType": "uint256",
          "name": "",
          "type": "uint256"
        }
      ],
      "stateMutability": "view",
      "type": "function"
    },
    {
      "inputs": [],
      "name": "decimals",
      "outputs": [
        {
          "internalType": "uint8",
          "name": "",
          "type": "uint8"
        }
      ],
      "stateMutability": "view",
      "type": "function"
    },
    {
      "inputs": [
        {
          "internalType": "address",
          "name": "spender",
          "type": "address"
        },
        {
          "internalType": "uint256",
          "name": "subtractedValue",
          "type": "uint256"
        }
      ],
      "name": "decreaseAllowance",
      "outputs": [
        {
          "internalType": "bool",
          "name": "",
          "type": "bool"
        }
      ],
      "stateMutability": "nonpayable",
      "type": "function"
    },
    {
      "inputs": [
        {
          "internalType": "address",
          "name": "delegatee",
          "type": "address"
        }
      ],
      "name": "delegate",
      "outputs": [],
      "stateMutability": "nonpayable",
      "type": "function"
    },
    {
      "inputs": [
        {
          "internalType": "address",
          "name": "delegatee",
          "type": "address"
        },
        {
          "internalType": "uint256",
          "name": "amount",
          "type": "uint256"
        }
      ],
      "name": "delegateAmount",
      "outputs": [],
      "stateMutability": "nonpayable",
      "type": "function"
    },
    {
      "inputs": [
        {
          "internalType": "address",
          "name": "",
          "type": "address"
        }
      ],
      "name": "delegationEnabled",
      "outputs": [
        {
          "internalType": "bool",
          "name": "",
          "type": "bool"
        }
      ],
      "stateMutability": "view",
      "type": "function"
    },
    {
      "inputs": [
        {
          "internalType": "uint256",
          "name": "_amount",
          "type": "uint256"
        }
      ],
      "name": "deposit",
      "outputs": [],
      "stateMutability": "nonpayable",
      "type": "function"
    },
    {
      "inputs": [],
      "name": "disableDelegation",
      "outputs": [],
      "stateMutability": "nonpayable",
      "type": "function"
    },
    {
      "inputs": [],
      "name": "ecoXToken",
      "outputs": [
        {
          "internalType": "contract IERC20",
          "name": "",
          "type": "address"
        }
      ],
      "stateMutability": "view",
      "type": "function"
    },
    {
      "inputs": [],
      "name": "enableDelegation",
      "outputs": [],
      "stateMutability": "nonpayable",
      "type": "function"
    },
    {
      "inputs": [
        {
          "internalType": "uint256",
          "name": "blockNumber",
          "type": "uint256"
        }
      ],
      "name": "getPastTotalSupply",
      "outputs": [
        {
          "internalType": "uint256",
          "name": "",
          "type": "uint256"
        }
      ],
      "stateMutability": "view",
      "type": "function"
    },
    {
      "inputs": [
        {
          "internalType": "address",
          "name": "_owner",
          "type": "address"
        },
        {
          "internalType": "uint256",
          "name": "_blockNumber",
          "type": "uint256"
        }
      ],
      "name": "getPastVotes",
      "outputs": [
        {
          "internalType": "uint256",
          "name": "",
          "type": "uint256"
        }
      ],
      "stateMutability": "view",
      "type": "function"
    },
    {
      "inputs": [
        {
          "internalType": "address",
          "name": "account",
          "type": "address"
        },
        {
          "internalType": "uint256",
          "name": "blockNumber",
          "type": "uint256"
        }
      ],
      "name": "getPastVotingGons",
      "outputs": [
        {
          "internalType": "uint256",
          "name": "",
          "type": "uint256"
        }
      ],
      "stateMutability": "view",
      "type": "function"
    },
    {
      "inputs": [
        {
          "internalType": "address",
          "name": "account",
          "type": "address"
        }
      ],
      "name": "getPrimaryDelegate",
      "outputs": [
        {
          "internalType": "address",
          "name": "",
          "type": "address"
        }
      ],
      "stateMutability": "view",
      "type": "function"
    },
    {
      "inputs": [
        {
          "internalType": "address",
          "name": "account",
          "type": "address"
        }
      ],
      "name": "getVotingGons",
      "outputs": [
        {
          "internalType": "uint256",
          "name": "",
          "type": "uint256"
        }
      ],
      "stateMutability": "view",
      "type": "function"
    },
    {
      "inputs": [],
      "name": "implementation",
      "outputs": [
        {
          "internalType": "address",
          "name": "_impl",
          "type": "address"
        }
      ],
      "stateMutability": "view",
      "type": "function"
    },
    {
      "inputs": [
        {
          "internalType": "address",
          "name": "spender",
          "type": "address"
        },
        {
          "internalType": "uint256",
          "name": "addedValue",
          "type": "uint256"
        }
      ],
      "name": "increaseAllowance",
      "outputs": [
        {
          "internalType": "bool",
          "name": "",
          "type": "bool"
        }
      ],
      "stateMutability": "nonpayable",
      "type": "function"
    },
    {
      "inputs": [
        {
          "internalType": "address",
          "name": "_self",
          "type": "address"
        }
      ],
      "name": "initialize",
      "outputs": [],
      "stateMutability": "nonpayable",
      "type": "function"
    },
    {
      "inputs": [
        {
          "internalType": "address",
          "name": "account",
          "type": "address"
        }
      ],
      "name": "isOwnDelegate",
      "outputs": [
        {
          "internalType": "bool",
          "name": "",
          "type": "bool"
        }
      ],
      "stateMutability": "view",
      "type": "function"
    },
    {
      "inputs": [],
      "name": "name",
      "outputs": [
        {
          "internalType": "string",
          "name": "",
          "type": "string"
        }
      ],
      "stateMutability": "view",
      "type": "function"
    },
    {
      "inputs": [],
      "name": "notifyGenerationIncrease",
      "outputs": [],
      "stateMutability": "nonpayable",
      "type": "function"
    },
    {
      "inputs": [
        {
          "internalType": "address",
          "name": "account",
          "type": "address"
        }
      ],
      "name": "numCheckpoints",
      "outputs": [
        {
          "internalType": "uint32",
          "name": "",
          "type": "uint32"
        }
      ],
      "stateMutability": "view",
      "type": "function"
    },
    {
      "inputs": [],
      "name": "policy",
      "outputs": [
        {
          "internalType": "contract Policy",
          "name": "",
          "type": "address"
        }
      ],
      "stateMutability": "view",
      "type": "function"
    },
    {
      "inputs": [
        {
          "internalType": "address",
          "name": "_delegate",
          "type": "address"
        },
        {
          "internalType": "bytes",
          "name": "_data",
          "type": "bytes"
        }
      ],
      "name": "policyCommand",
      "outputs": [],
      "stateMutability": "nonpayable",
      "type": "function"
    },
    {
      "inputs": [
        {
          "internalType": "address",
          "name": "_who",
          "type": "address"
        }
      ],
      "name": "recordVote",
      "outputs": [],
      "stateMutability": "nonpayable",
      "type": "function"
    },
    {
      "inputs": [
        {
          "internalType": "address",
          "name": "_addr",
          "type": "address"
        }
      ],
      "name": "setExpectedInterfaceSet",
      "outputs": [],
      "stateMutability": "nonpayable",
      "type": "function"
    },
    {
      "inputs": [],
      "name": "symbol",
      "outputs": [
        {
          "internalType": "string",
          "name": "",
          "type": "string"
        }
      ],
      "stateMutability": "view",
      "type": "function"
    },
    {
      "inputs": [],
      "name": "totalSupply",
      "outputs": [
        {
          "internalType": "uint256",
          "name": "",
          "type": "uint256"
        }
      ],
      "stateMutability": "view",
      "type": "function"
    },
    {
      "inputs": [
        {
          "internalType": "uint256",
          "name": "_blockNumber",
          "type": "uint256"
        }
      ],
      "name": "totalSupplyAt",
      "outputs": [
        {
          "internalType": "uint256",
          "name": "",
          "type": "uint256"
        }
      ],
      "stateMutability": "view",
      "type": "function"
    },
    {
      "inputs": [
        {
          "internalType": "uint256",
          "name": "_blockNumber",
          "type": "uint256"
        }
      ],
      "name": "totalVotingECOx",
      "outputs": [
        {
          "internalType": "uint256",
          "name": "",
          "type": "uint256"
        }
      ],
      "stateMutability": "view",
      "type": "function"
    },
    {
      "inputs": [
        {
          "internalType": "address",
          "name": "",
          "type": "address"
        },
        {
          "internalType": "uint256",
          "name": "",
          "type": "uint256"
        }
      ],
      "name": "transfer",
      "outputs": [
        {
          "internalType": "bool",
          "name": "",
          "type": "bool"
        }
      ],
      "stateMutability": "pure",
      "type": "function"
    },
    {
      "inputs": [
        {
          "internalType": "address",
          "name": "",
          "type": "address"
        },
        {
          "internalType": "address",
          "name": "",
          "type": "address"
        },
        {
          "internalType": "uint256",
          "name": "",
          "type": "uint256"
        }
      ],
      "name": "transferFrom",
      "outputs": [
        {
          "internalType": "bool",
          "name": "",
          "type": "bool"
        }
      ],
      "stateMutability": "pure",
      "type": "function"
    },
    {
      "inputs": [],
      "name": "undelegate",
      "outputs": [],
      "stateMutability": "nonpayable",
      "type": "function"
    },
    {
      "inputs": [
        {
          "internalType": "address",
          "name": "delegatee",
          "type": "address"
        }
      ],
      "name": "undelegateFromAddress",
      "outputs": [],
      "stateMutability": "nonpayable",
      "type": "function"
    },
    {
      "inputs": [
        {
          "internalType": "address",
          "name": "_voter",
          "type": "address"
        },
        {
          "internalType": "uint256",
          "name": "_blockNumber",
          "type": "uint256"
        }
      ],
      "name": "votingECOx",
      "outputs": [
        {
          "internalType": "uint256",
          "name": "",
          "type": "uint256"
        }
      ],
      "stateMutability": "view",
      "type": "function"
    },
    {
      "inputs": [
        {
          "internalType": "address",
          "name": "",
          "type": "address"
        }
      ],
      "name": "votingTracker",
      "outputs": [
        {
          "internalType": "uint256",
          "name": "",
          "type": "uint256"
        }
      ],
      "stateMutability": "view",
      "type": "function"
    },
    {
      "inputs": [
        {
          "internalType": "uint256",
          "name": "_amount",
          "type": "uint256"
        }
      ],
      "name": "withdraw",
      "outputs": [],
      "stateMutability": "nonpayable",
      "type": "function"
    }
  ],
  "bytecode": "0x6101006040523480156200001257600080fd5b5060405162003d4038038062003d40833981016040819052620000359162000214565b8180604051806040016040528060088152602001670a65a90cad8d25ab60c31b815250604051806040016040528060048152602001630e69892b60e31b81525081816200008d826200015160201b62001df31760201c565b60808181525050620000aa816200015160201b62001df31760201c565b60a05250620000be9250309150506200016a565b6001600160a01b0390811660c052604051635df8122f60e01b81523060048201529082166024820152731820a4b7618bde71dce8cdc73aab6c95905fad2490635df8122f90604401600060405180830381600087803b1580156200012157600080fd5b505af115801562000136573d6000803e3d6000fd5b5050506001600160a01b0390921660e0525062000253915050565b600060208251106200016257600080fd5b50601f015190565b6001600160a01b0381166200018c60008051602062003d208339815191525490565b6001600160a01b03161415620001e85760405162461bcd60e51b815260206004820152601f60248201527f496d706c656d656e746174696f6e20616c7265616479206d61746368696e6700604482015260640160405180910390fd5b60008051602062003d2083398151915255565b6001600160a01b03811681146200021157600080fd5b50565b600080604083850312156200022857600080fd5b82516200023581620001fb565b60208401519092506200024881620001fb565b809150509250929050565b60805160a05160c05160e051613a62620002be6000396000818161047601528181610ceb015261199b0152600081816102f30152818161076101528181610a6301528181610f2d0152818161204c01526127d301526000611861015260006107090152613a626000f3fe608060405234801561001057600080fd5b50600436106102e95760003560e01c80636e684b9a11610191578063981b24d0116100e3578063bc52c82d11610097578063dd62ed3e11610071578063dd62ed3e14610696578063e189cba6146106dc578063fc08456a146106ef57600080fd5b8063bc52c82d14610663578063c4d66de814610683578063cd3fd384146104c657600080fd5b8063a457c2d7116100c8578063a457c2d71461062f578063a9059cbb14610642578063b6b55f251461065057600080fd5b8063981b24d0146104ec5780639a032e981461060c57600080fd5b80638d57d7481161014557806392ab89bb1161011f57806392ab89bb146105e957806392c1ff44146105f157806395d89b411461060457600080fd5b80638d57d748146105ba5780638ddb428a146105cd5780638e539e8c146105d657600080fd5b806370a082311161017657806370a082311461057457806388b00fd0146105aa5780638d176ba5146105b257600080fd5b80636e684b9a146105395780636fcfff451461054c57600080fd5b80632e1a7d4d1161024a57806339634e0c116101fe5780635bb748ad116101d85780635bb748ad146104ec5780635c19a95c146104ff5780635c60da1b1461051257600080fd5b806339634e0c146104b35780633a46b1a8146104c65780633edb7f83146104d957600080fd5b806333800bac1161022f57806333800bac1461047157806335bbc7fe1461049857806339509351146104a057600080fd5b80632e1a7d4d1461044f578063313ce5671461046257600080fd5b806309ed4607116102a157806318160ddd1161028657806318160ddd1461041757806323b872dd14610429578063249cb3fa1461043c57600080fd5b806309ed4607146103c35780630cdfebfa146103cb57600080fd5b8063094bc063116102d2578063094bc06314610354578063095ea7b31461039b57806309d7f23b146103ae57600080fd5b80630505c8c9146102ee57806306fdde031461033f575b600080fd5b6103157f000000000000000000000000000000000000000000000000000000000000000081565b60405173ffffffffffffffffffffffffffffffffffffffff90911681526020015b60405180910390f35b610347610702565b60405161033691906136c9565b61038b61036236600461375e565b73ffffffffffffffffffffffffffffffffffffffff166000908152600460205260409020541590565b6040519015158152602001610336565b61038b6103a936600461377b565b610732565b6103c16103bc3660046137d6565b610749565b005b61031561083d565b6103de6103d936600461377b565b61099e565b6040805163ffffffff90931683527bffffffffffffffffffffffffffffffffffffffffffffffffffffffff909116602083015201610336565b6002545b604051908152602001610336565b61038b6104373660046138b8565b6109fa565b61041b61044a3660046138f9565b610a5f565b6103c161045d366004613929565b610bab565b60405160128152602001610336565b6103157f000000000000000000000000000000000000000000000000000000000000000081565b6103c1610e21565b61038b6104ae36600461377b565b610ecc565b6103c16104c136600461375e565b610f15565b61041b6104d436600461377b565b611021565b6103c16104e736600461377b565b611034565b61041b6104fa366004613929565b6110c3565b6103c161050d36600461375e565b6110ce565b7ff86c915dad5894faca0dfa067c58fdf4307406d255ed0a65db394f82b77f53d454610315565b61041b61054736600461377b565b611270565b61055f61055a36600461375e565b611330565b60405163ffffffff9091168152602001610336565b61041b61058236600461375e565b73ffffffffffffffffffffffffffffffffffffffff1660009081526020819052604090205490565b6103c1611412565b6103c161152f565b6103156105c836600461375e565b611606565b61041b600b5481565b61041b6105e4366004613929565b611643565b6103c16116df565b6103c16105ff36600461375e565b6116ed565b61034761185a565b61038b61061a36600461375e565b60066020526000908152604090205460ff1681565b61038b61063d36600461377b565b611885565b61038b61043736600461377b565b6103c161065e366004613929565b61195d565b61041b61067136600461375e565b600a6020526000908152604090205481565b6103c161069136600461375e565b611ae5565b61041b6106a4366004613942565b73ffffffffffffffffffffffffffffffffffffffff918216600090815260016020908152604080832093909416825291909152205490565b61041b6106ea36600461375e565b611c67565b6103c16106fd36600461375e565b611d6f565b606061072d7f0000000000000000000000000000000000000000000000000000000000000000611e0b565b905090565b600061073f338484611e71565b5060015b92915050565b3373ffffffffffffffffffffffffffffffffffffffff7f00000000000000000000000000000000000000000000000000000000000000001614610813576040517f08c379a000000000000000000000000000000000000000000000000000000000815260206004820152602e60248201527f4f6e6c792074686520706f6c69637920636f6e7472616374206d61792063616c60448201527f6c2074686973206d6574686f642e00000000000000000000000000000000000060648201526084015b60405180910390fd5b600080825160208401855af43d806000803e81801561083157816000f35b816000fd5b5050505050565b6000306108687ff86c915dad5894faca0dfa067c58fdf4307406d255ed0a65db394f82b77f53d45490565b73ffffffffffffffffffffffffffffffffffffffff161461090b576040517f08c379a000000000000000000000000000000000000000000000000000000000815260206004820152602660248201527f54686973206d6574686f642063616e6e6f742062652063616c6c6564206f6e2060448201527f636c6f6e65730000000000000000000000000000000000000000000000000000606482015260840161080a565b600061091630611f82565b6040517fc4d66de800000000000000000000000000000000000000000000000000000000815230600482015290915073ffffffffffffffffffffffffffffffffffffffff82169063c4d66de890602401600060405180830381600087803b15801561098057600080fd5b505af1158015610994573d6000803e3d6000fd5b5092949350505050565b600760205281600052604060002081815481106109ba57600080fd5b60009182526020909120015463ffffffff8116925064010000000090047bffffffffffffffffffffffffffffffffffffffffffffffffffffffff16905082565b6040517f08c379a000000000000000000000000000000000000000000000000000000000815260206004820152601a60248201527f7345434f78206973206e6f6e2d7472616e736665727261626c65000000000000604482015260009060640161080a565b60007f000000000000000000000000000000000000000000000000000000000000000073ffffffffffffffffffffffffffffffffffffffff168273ffffffffffffffffffffffffffffffffffffffff161480610ad5575060095473ffffffffffffffffffffffffffffffffffffffff8381169116145b610b61576040517f08c379a000000000000000000000000000000000000000000000000000000000815260206004820152603c60248201527f4f6e6c792074686520706f6c696379206f7220696e7465726661636520636f6e60448201527f74726163742063616e207365742074686520696e746572666163652e00000000606482015260840161080a565b6040517f455243313832305f4143434550545f4d41474943000000000000000000000000602082015260340160405160208183030381529060405280519060200120905092915050565b33610bb68183611feb565b506001600b54610bc6919061399f565b73ffffffffffffffffffffffffffffffffffffffff82166000908152600a602052604090205410610c9f576040517f08c379a000000000000000000000000000000000000000000000000000000000815260206004820152604660248201527f4d757374206e6f7420766f7465206f7220756e64656c656761746520696e207460448201527f68652067656e65726174696f6e206f6e206f72206265666f726520776974686460648201527f726177696e670000000000000000000000000000000000000000000000000000608482015260a40161080a565b6040517fa9059cbb00000000000000000000000000000000000000000000000000000000815273ffffffffffffffffffffffffffffffffffffffff8281166004830152602482018490527f0000000000000000000000000000000000000000000000000000000000000000169063a9059cbb90604401602060405180830381600087803b158015610d2f57600080fd5b505af1158015610d43573d6000803e3d6000fd5b505050506040513d601f19601f82011682018060405250810190610d6791906139b6565b610dcd576040517f08c379a000000000000000000000000000000000000000000000000000000000815260206004820152600f60248201527f5472616e73666572204661696c65640000000000000000000000000000000000604482015260640161080a565b8073ffffffffffffffffffffffffffffffffffffffff167f7fcf532c15f0a6db0bd6d0e038bea71d30d808c7d98cb3bf7268a95bf5081b6583604051610e1591815260200190565b60405180910390a25050565b610e4a7fae30bfb87dec2bd0c16be9790f95842d84f58dc70b0a8f6ed22e9556176a7b1961200f565b73ffffffffffffffffffffffffffffffffffffffff1663172195226040518163ffffffff1660e01b815260040160206040518083038186803b158015610e8f57600080fd5b505afa158015610ea3573d6000803e3d6000fd5b505050506040513d601f19601f82011682018060405250810190610ec791906139d8565b600b55565b33600081815260016020908152604080832073ffffffffffffffffffffffffffffffffffffffff87168452909152812054909161073f918590610f109086906139f1565b611e71565b3373ffffffffffffffffffffffffffffffffffffffff7f00000000000000000000000000000000000000000000000000000000000000001614610fda576040517f08c379a000000000000000000000000000000000000000000000000000000000815260206004820152602e60248201527f4f6e6c792074686520706f6c69637920636f6e7472616374206d61792063616c60448201527f6c2074686973206d6574686f642e000000000000000000000000000000000000606482015260840161080a565b600980547fffffffffffffffffffffffff00000000000000000000000000000000000000001673ffffffffffffffffffffffffffffffffffffffff92909216919091179055565b600061102d8383611270565b9392505050565b73ffffffffffffffffffffffffffffffffffffffff82163314156110b4576040517f08c379a000000000000000000000000000000000000000000000000000000000815260206004820152601b60248201527f446f206e6f742064656c656761746520746f20796f757273656c660000000000604482015260640161080a565b6110bf3383836120ea565b5050565b600061074382611643565b73ffffffffffffffffffffffffffffffffffffffff8116331415611174576040517f08c379a000000000000000000000000000000000000000000000000000000000815260206004820152603060248201527f55736520756e64656c656761746520696e7374656164206f662064656c65676160448201527f74696e6720746f20796f757273656c6600000000000000000000000000000000606482015260840161080a565b73ffffffffffffffffffffffffffffffffffffffff811660009081526006602052604090205460ff16611229576040517f08c379a000000000000000000000000000000000000000000000000000000000815260206004820152602860248201527f5072696d6172792064656c656761746573206d75737420656e61626c6520646560448201527f6c65676174696f6e000000000000000000000000000000000000000000000000606482015260840161080a565b336000908152600460205260409020541561124a5761124a6106fd33611606565b33600081815260208190526040902054906112669083836120ea565b6110bf338361238b565b600043821115611301576040517f08c379a0000000000000000000000000000000000000000000000000000000008152602060048201526024808201527f566f7465436865636b706f696e74733a20626c6f636b206e6f7420796574206d60448201527f696e656400000000000000000000000000000000000000000000000000000000606482015260840161080a565b73ffffffffffffffffffffffffffffffffffffffff8316600090815260076020526040902061102d9083612447565b73ffffffffffffffffffffffffffffffffffffffff811660009081526007602052604081205463ffffffff10156113e9576040517f08c379a000000000000000000000000000000000000000000000000000000000815260206004820152602d60248201527f6e756d626572206f6620636865636b706f696e74732063616e6e6f742062652060448201527f63617374656420736166656c7900000000000000000000000000000000000000606482015260840161080a565b5073ffffffffffffffffffffffffffffffffffffffff1660009081526007602052604090205490565b61141b33611c67565b33600090815260208190526040902054148015611445575033600090815260046020526040902054155b6114f8576040517f08c379a0000000000000000000000000000000000000000000000000000000008152602060048201526044602482018190527f43616e6e6f742064697361626c652064656c65676174696f6e20696620796f75908201527f2068617665206f75747374616e64696e672064656c65676174696f6e7320746f60648201527f20796f7500000000000000000000000000000000000000000000000000000000608482015260a40161080a565b33600090815260066020526040902080547fffffffffffffffffffffffffffffffffffffffffffffffffffffffffffffff00169055565b33600090815260046020526040902054156115cc576040517f08c379a000000000000000000000000000000000000000000000000000000000815260206004820152603b60248201527f43616e6e6f7420656e61626c652064656c65676174696f6e20696620796f752060448201527f68617665206f75747374616e64696e672064656c65676174696f6e0000000000606482015260840161080a565b33600090815260066020526040902080547fffffffffffffffffffffffffffffffffffffffffffffffffffffffffffffff00166001179055565b73ffffffffffffffffffffffffffffffffffffffff808216600090815260056020526040812054909116801561163c578061102d565b5090919050565b6000438211156116d4576040517f08c379a0000000000000000000000000000000000000000000000000000000008152602060048201526024808201527f566f7465436865636b706f696e74733a20626c6f636b206e6f7420796574206d60448201527f696e656400000000000000000000000000000000000000000000000000000000606482015260840161080a565b610743600883612447565b6116eb6106fd33611606565b565b6117167f331e3a11698d428947c09d6cfecc92b2ccbc4a527e4e795d850152babfaff37a61200f565b73ffffffffffffffffffffffffffffffffffffffff163373ffffffffffffffffffffffffffffffffffffffff1614806117a257506117737f65474dbc3934a157baaaa893dea8c73453f0cc9c47a4f857047e8f0c8b54888f61200f565b73ffffffffffffffffffffffffffffffffffffffff163373ffffffffffffffffffffffffffffffffffffffff16145b61182e576040517f08c379a000000000000000000000000000000000000000000000000000000000815260206004820152602160248201527f4d757374206265206120766f74696e6720636f6e747261637420746f2063616c60448201527f6c00000000000000000000000000000000000000000000000000000000000000606482015260840161080a565b600b5473ffffffffffffffffffffffffffffffffffffffff9091166000908152600a6020526040902055565b606061072d7f0000000000000000000000000000000000000000000000000000000000000000611e0b565b33600090815260016020908152604080832073ffffffffffffffffffffffffffffffffffffffff8616845290915281205482811015611946576040517f08c379a000000000000000000000000000000000000000000000000000000000815260206004820152602560248201527f45524332303a2064656372656173656420616c6c6f77616e63652062656c6f7760448201527f207a65726f000000000000000000000000000000000000000000000000000000606482015260840161080a565b6119533385858403611e71565b5060019392505050565b6040517f23b872dd000000000000000000000000000000000000000000000000000000008152336004820181905230602483015260448201839052907f000000000000000000000000000000000000000000000000000000000000000073ffffffffffffffffffffffffffffffffffffffff16906323b872dd90606401602060405180830381600087803b1580156119f457600080fd5b505af1158015611a08573d6000803e3d6000fd5b505050506040513d601f19601f82011682018060405250810190611a2c91906139b6565b611a92576040517f08c379a000000000000000000000000000000000000000000000000000000000815260206004820152600f60248201527f5472616e73666572206661696c65640000000000000000000000000000000000604482015260640161080a565b611a9c81836125ef565b508073ffffffffffffffffffffffffffffffffffffffff167fe1fffcc4923d04b559f4d29a8bfc6cda04eb5b0d3c460751c2402c5c5cc9109c83604051610e1591815260200190565b6000611b0f7ff86c915dad5894faca0dfa067c58fdf4307406d255ed0a65db394f82b77f53d45490565b73ffffffffffffffffffffffffffffffffffffffff1614611bb2576040517f08c379a000000000000000000000000000000000000000000000000000000000815260206004820152602860248201527f43616e206f6e6c792062652063616c6c656420647572696e6720696e6974696160448201527f6c697a6174696f6e000000000000000000000000000000000000000000000000606482015260840161080a565b611bbb816126ba565b611be47fae30bfb87dec2bd0c16be9790f95842d84f58dc70b0a8f6ed22e9556176a7b1961200f565b73ffffffffffffffffffffffffffffffffffffffff1663172195226040518163ffffffff1660e01b815260040160206040518083038186803b158015611c2957600080fd5b505afa158015611c3d573d6000803e3d6000fd5b505050506040513d601f19601f82011682018060405250810190611c6191906139d8565b600b5550565b73ffffffffffffffffffffffffffffffffffffffff8116600090815260076020908152604080832080548251818502810185019093528083528493849084015b82821015611d09576000848152602090819020604080518082019091529084015463ffffffff8116825264010000000090047bffffffffffffffffffffffffffffffffffffffffffffffffffffffff1681830152825260019092019101611ca7565b505082519293505081159050611d465781611d2560018361399f565b81518110611d3557611d35613a09565b602002602001015160200151611d49565b60005b7bffffffffffffffffffffffffffffffffffffffffffffffffffffffff16949350505050565b33600081815260036020908152604080832073ffffffffffffffffffffffffffffffffffffffff8616845290915290205490611dac908383612845565b611db533611606565b73ffffffffffffffffffffffffffffffffffffffff168273ffffffffffffffffffffffffffffffffffffffff1614156110bf576110bf33600061238b565b60006020825110611e0357600080fd5b50601f015190565b606060f882901c60208110611e1f57600080fd5b8067ffffffffffffffff811115611e3857611e386137a7565b6040519080825280601f01601f191660200182016040528015611e62576020820181803683370190505b50915082601f83015250919050565b73ffffffffffffffffffffffffffffffffffffffff8216611f14576040517f08c379a000000000000000000000000000000000000000000000000000000000815260206004820152602260248201527f45524332303a20617070726f766520746f20746865207a65726f20616464726560448201527f7373000000000000000000000000000000000000000000000000000000000000606482015260840161080a565b73ffffffffffffffffffffffffffffffffffffffff83811660008181526001602090815260408083209487168084529482529182902085905590518481527f8c5be1e5ebec7d5bd14f71427d1e84f3dd0314c0f7b2291e5b200ac8c7c3b925910160405180910390a3505050565b6000808260601b90506040517f3d602d80600a3d3981f3363d3d373d3d3d363d7300000000000000000000000081528160148201527f5af43d82803e903d91602b57fd5bf3000000000000000000000000000000000060288201526037816000f0949350505050565b6000611ff78383612880565b915061200760086129db846129e7565b509092915050565b6040517faabbb8ca00000000000000000000000000000000000000000000000000000000815273ffffffffffffffffffffffffffffffffffffffff7f000000000000000000000000000000000000000000000000000000000000000016600482015260248101829052600090731820a4b7618bde71dce8cdc73aab6c95905fad249063aabbb8ca9060440160206040518083038186803b1580156120b257600080fd5b505afa1580156120c6573d6000803e3d6000fd5b505050506040513d601f19601f820116820180604052508101906107439190613a38565b73ffffffffffffffffffffffffffffffffffffffff83166000908152600460209081526040808320549183905290912054612125919061399f565b8111156121b4576040517f08c379a000000000000000000000000000000000000000000000000000000000815260206004820152603d60248201527f4d757374206861766520616e20756e64656c65676174656420616d6f756e742060448201527f617661696c61626c6520746f20636f7665722064656c65676174696f6e000000606482015260840161080a565b73ffffffffffffffffffffffffffffffffffffffff831660009081526006602052604090205460ff1615612290576040517f08c379a000000000000000000000000000000000000000000000000000000000815260206004820152604260248201527f43616e6e6f742064656c656761746520696620796f75206861766520656e616260448201527f6c6564207072696d6172792064656c65676174696f6e20746f20796f7572736560648201527f6c66000000000000000000000000000000000000000000000000000000000000608482015260a40161080a565b8173ffffffffffffffffffffffffffffffffffffffff168373ffffffffffffffffffffffffffffffffffffffff167f98dafce09283426336da94838681d1fe723dcd8d49f67902076eebf3e2d1ddd6836040516122ef91815260200190565b60405180910390a373ffffffffffffffffffffffffffffffffffffffff80841660009081526003602090815260408083209386168352929052908120805483929061233b9084906139f1565b909155505073ffffffffffffffffffffffffffffffffffffffff8316600090815260046020526040812080548392906123759084906139f1565b909155506123869050838383612d60565b505050565b73ffffffffffffffffffffffffffffffffffffffff828116600090815260056020526040902080547fffffffffffffffffffffffff0000000000000000000000000000000000000000169183169182179055156123e857806123ea565b815b73ffffffffffffffffffffffffffffffffffffffff168273ffffffffffffffffffffffffffffffffffffffff167f88a6f95a94556f83d3752aaa691040ea5c04d9db823566be9f2f325eb866c9ae60405160405180910390a35050565b81546000908061245b576000915050610743565b60008461246960018461399f565b8154811061247957612479613a09565b60009182526020918290206040805180820190915291015463ffffffff81168083526401000000009091047bffffffffffffffffffffffffffffffffffffffffffffffffffffffff1692820192909252915084106124fc57602001517bffffffffffffffffffffffffffffffffffffffffffffffffffffffff1691506107439050565b8160005b8181101561256a5760006001612516838561399f565b612521911c836139f1565b90508688828154811061253657612536613a09565b60009182526020909120015463ffffffff16111561255657809250612564565b6125618160016139f1565b91505b50612500565b81156125c3578661257c60018461399f565b8154811061258c5761258c613a09565b60009182526020909120015464010000000090047bffffffffffffffffffffffffffffffffffffffffffffffffffffffff166125c6565b60005b7bffffffffffffffffffffffffffffffffffffffffffffffffffffffff16979650505050505050565b60006125fb8383612ee9565b6002549092507bffffffffffffffffffffffffffffffffffffffffffffffffffffffff10156126ac576040517f08c379a000000000000000000000000000000000000000000000000000000000815260206004820152603560248201527f566f7465436865636b706f696e74733a20746f74616c20737570706c7920726960448201527f736b73206f766572666c6f77696e6720766f7465730000000000000000000000606482015260840161080a565b6120076008613018846129e7565b60006126e47ff86c915dad5894faca0dfa067c58fdf4307406d255ed0a65db394f82b77f53d45490565b73ffffffffffffffffffffffffffffffffffffffff1614612787576040517f08c379a000000000000000000000000000000000000000000000000000000000815260206004820152602860248201527f43616e206f6e6c792062652063616c6c656420647572696e6720696e6974696160448201527f6c697a6174696f6e000000000000000000000000000000000000000000000000606482015260840161080a565b61279081613024565b6040517f5df8122f00000000000000000000000000000000000000000000000000000000815230600482015273ffffffffffffffffffffffffffffffffffffffff7f0000000000000000000000000000000000000000000000000000000000000000166024820152731820a4b7618bde71dce8cdc73aab6c95905fad2490635df8122f90604401600060405180830381600087803b15801561283157600080fd5b505af1158015610836573d6000803e3d6000fd5b73ffffffffffffffffffffffffffffffffffffffff8083166000908152600a60205260408082205492861682529020556123868383836130fd565b73ffffffffffffffffffffffffffffffffffffffff8216600090815260208190526040812054829081811015612938576040517f08c379a000000000000000000000000000000000000000000000000000000000815260206004820152602260248201527f45524332303a206275726e20616d6f756e7420657863656564732062616c616e60448201527f6365000000000000000000000000000000000000000000000000000000000000606482015260840161080a565b73ffffffffffffffffffffffffffffffffffffffff8516600090815260208190526040812083830390556002805484929061297490849061399f565b909155505060405184815260009073ffffffffffffffffffffffffffffffffffffffff8716907fddf252ad1be2c89b69c2b068fc378daa952ba7f163c4a11628f55a4df523b3ef9060200160405180910390a36129d38560008461318c565b509392505050565b600061102d828461399f565b60007bffffffffffffffffffffffffffffffffffffffffffffffffffffffff821115612a95576040517f08c379a000000000000000000000000000000000000000000000000000000000815260206004820152602160248201527f6e65775765696768742063616e6e6f742062652063617374656420736166656c60448201527f7900000000000000000000000000000000000000000000000000000000000000606482015260840161080a565b63ffffffff431115612b28576040517f08c379a0000000000000000000000000000000000000000000000000000000008152602060048201526024808201527f626c6f636b206e756d6265722063616e6e6f742062652063617374656420736160448201527f66656c7900000000000000000000000000000000000000000000000000000000606482015260840161080a565b835480612b9b5750506040805180820190915263ffffffff43811682527bffffffffffffffffffffffffffffffffffffffffffffffffffffffff8084166020808501918252875460018101895560008981529190912094519151909216640100000000029216919091179101558061102d565b600085612ba960018461399f565b81548110612bb957612bb9613a09565b60009182526020822001805490925064010000000090047bffffffffffffffffffffffffffffffffffffffffffffffffffffffff1690612bfd828763ffffffff8a16565b90507bffffffffffffffffffffffffffffffffffffffffffffffffffffffff811115612cab576040517f08c379a000000000000000000000000000000000000000000000000000000000815260206004820152602160248201527f6e65775765696768742063616e6e6f742062652063617374656420736166656c60448201527f7900000000000000000000000000000000000000000000000000000000000000606482015260840161080a565b825463ffffffff16431415612cf057825463ffffffff166401000000007bffffffffffffffffffffffffffffffffffffffffffffffffffffffff831602178355612d55565b6040805180820190915263ffffffff43811682527bffffffffffffffffffffffffffffffffffffffffffffffffffffffff80841660208085019182528c54600181018e5560008e81529190912094519151909216640100000000029216919091179101555b979650505050505050565b8173ffffffffffffffffffffffffffffffffffffffff168373ffffffffffffffffffffffffffffffffffffffff1614158015612d9c5750600081115b156123865773ffffffffffffffffffffffffffffffffffffffff831615612e435773ffffffffffffffffffffffffffffffffffffffff83166000908152600760205260408120612def906129db846129e7565b90508373ffffffffffffffffffffffffffffffffffffffff167fd1b0c5e03e405cea97403894c17af4610d6d851ffe4baa03de1ca5e7c700cd7582604051612e3991815260200190565b60405180910390a2505b73ffffffffffffffffffffffffffffffffffffffff8216156123865773ffffffffffffffffffffffffffffffffffffffff82166000908152600760205260408120612e9190613018846129e7565b90508273ffffffffffffffffffffffffffffffffffffffff167fd1b0c5e03e405cea97403894c17af4610d6d851ffe4baa03de1ca5e7c700cd7582604051612edb91815260200190565b60405180910390a250505050565b600073ffffffffffffffffffffffffffffffffffffffff8316612f68576040517f08c379a000000000000000000000000000000000000000000000000000000000815260206004820152601f60248201527f45524332303a206d696e7420746f20746865207a65726f206164647265737300604482015260640161080a565b60008290508060026000828254612f7f91906139f1565b909155505073ffffffffffffffffffffffffffffffffffffffff841660009081526020819052604081208054839290612fb99084906139f1565b909155505060405183815273ffffffffffffffffffffffffffffffffffffffff8516906000907fddf252ad1be2c89b69c2b068fc378daa952ba7f163c4a11628f55a4df523b3ef9060200160405180910390a361102d6000858361318c565b600061102d82846139f1565b600061304e7ff86c915dad5894faca0dfa067c58fdf4307406d255ed0a65db394f82b77f53d45490565b73ffffffffffffffffffffffffffffffffffffffff16146130f1576040517f08c379a000000000000000000000000000000000000000000000000000000000815260206004820152602860248201527f43616e206f6e6c792062652063616c6c656420647572696e6720696e6974696160448201527f6c697a6174696f6e000000000000000000000000000000000000000000000000606482015260840161080a565b6130fa816133f2565b50565b73ffffffffffffffffffffffffffffffffffffffff83166000908152600460205260408120805483929061313290849061399f565b909155505073ffffffffffffffffffffffffffffffffffffffff80841660009081526003602090815260408083209386168352929052908120805483929061317b90849061399f565b909155506123869050828483612d60565b73ffffffffffffffffffffffffffffffffffffffff83166000908152600460205260409020541561331f5773ffffffffffffffffffffffffffffffffffffffff8316600090815260046020908152604080832054918390528220546131f29084906139f1565b6131fc919061399f565b90508181101561331d57600061321185611606565b73ffffffffffffffffffffffffffffffffffffffff80871660009081526003602090815260408083209385168352929052205490915061325181846139f1565b841115613306576040517f08c379a000000000000000000000000000000000000000000000000000000000815260206004820152605360248201527f44656c65676174696f6e20746f6f20636f6d706c69636174656420746f20747260448201527f616e736665722e20556e64656c656761746520616e642073696d706c6966792060648201527f6265666f726520747279696e6720616761696e00000000000000000000000000608482015260a40161080a565b61331a8683613315868861399f565b612845565b50505b505b73ffffffffffffffffffffffffffffffffffffffff8083166000908152600560205260409020541680156133e15773ffffffffffffffffffffffffffffffffffffffff8084166000908152600360209081526040808320938516835292905290812080548492906133919084906139f1565b909155505073ffffffffffffffffffffffffffffffffffffffff8316600090815260046020526040812080548492906133cb9084906139f1565b909155506133dc9050848284612d60565b6133ec565b6133ec848484612d60565b50505050565b600061341c7ff86c915dad5894faca0dfa067c58fdf4307406d255ed0a65db394f82b77f53d45490565b73ffffffffffffffffffffffffffffffffffffffff16146134bf576040517f08c379a000000000000000000000000000000000000000000000000000000000815260206004820152602860248201527f43616e206f6e6c792062652063616c6c656420647572696e6720696e6974696160448201527f6c697a6174696f6e000000000000000000000000000000000000000000000000606482015260840161080a565b60008173ffffffffffffffffffffffffffffffffffffffff16635c60da1b6040518163ffffffff1660e01b815260040160206040518083038186803b15801561350757600080fd5b505afa15801561351b573d6000803e3d6000fd5b505050506040513d601f19601f8201168201806040525081019061353f9190613a38565b905073ffffffffffffffffffffffffffffffffffffffff81166135e4576040517f08c379a000000000000000000000000000000000000000000000000000000000815260206004820152602c60248201527f696e697469616c697a6174696f6e206661696c7572653a206e6f7468696e672060448201527f746f20696d706c656d656e740000000000000000000000000000000000000000606482015260840161080a565b6110bf818073ffffffffffffffffffffffffffffffffffffffff166136277ff86c915dad5894faca0dfa067c58fdf4307406d255ed0a65db394f82b77f53d45490565b73ffffffffffffffffffffffffffffffffffffffff1614156136a5576040517f08c379a000000000000000000000000000000000000000000000000000000000815260206004820152601f60248201527f496d706c656d656e746174696f6e20616c7265616479206d61746368696e6700604482015260640161080a565b7ff86c915dad5894faca0dfa067c58fdf4307406d255ed0a65db394f82b77f53d455565b600060208083528351808285015260005b818110156136f6578581018301518582016040015282016136da565b81811115613708576000604083870101525b50601f017fffffffffffffffffffffffffffffffffffffffffffffffffffffffffffffffe016929092016040019392505050565b73ffffffffffffffffffffffffffffffffffffffff811681146130fa57600080fd5b60006020828403121561377057600080fd5b813561102d8161373c565b6000806040838503121561378e57600080fd5b82356137998161373c565b946020939093013593505050565b7f4e487b7100000000000000000000000000000000000000000000000000000000600052604160045260246000fd5b600080604083850312156137e957600080fd5b82356137f48161373c565b9150602083013567ffffffffffffffff8082111561381157600080fd5b818501915085601f83011261382557600080fd5b813581811115613837576138376137a7565b604051601f82017fffffffffffffffffffffffffffffffffffffffffffffffffffffffffffffffe0908116603f0116810190838211818310171561387d5761387d6137a7565b8160405282815288602084870101111561389657600080fd5b8260208601602083013760006020848301015280955050505050509250929050565b6000806000606084860312156138cd57600080fd5b83356138d88161373c565b925060208401356138e88161373c565b929592945050506040919091013590565b6000806040838503121561390c57600080fd5b82359150602083013561391e8161373c565b809150509250929050565b60006020828403121561393b57600080fd5b5035919050565b6000806040838503121561395557600080fd5b82356139608161373c565b9150602083013561391e8161373c565b7f4e487b7100000000000000000000000000000000000000000000000000000000600052601160045260246000fd5b6000828210156139b1576139b1613970565b500390565b6000602082840312156139c857600080fd5b8151801515811461102d57600080fd5b6000602082840312156139ea57600080fd5b5051919050565b60008219821115613a0457613a04613970565b500190565b7f4e487b7100000000000000000000000000000000000000000000000000000000600052603260045260246000fd5b600060208284031215613a4a57600080fd5b815161102d8161373c56fea164736f6c6343000809000af86c915dad5894faca0dfa067c58fdf4307406d255ed0a65db394f82b77f53d4",
  "linkReferences": {},
  "deployedLinkReferences": {}
}