{
  "_format": "hh-sol-artifact-1",
  "contractName": "InflationRootHashProposal",
  "sourceName": "contracts/governance/monetary/InflationRootHashProposal.sol",
  "abi": [
    {
      "inputs": [
        {
          "internalType": "contract Policy",
          "name": "_policy",
          "type": "address"
        },
        {
          "internalType": "contract IECO",
          "name": "_ecoAddr",
          "type": "address"
        }
      ],
      "stateMutability": "nonpayable",
      "type": "constructor"
    },
    {
      "anonymous": false,
      "inputs": [
        {
          "indexed": true,
          "internalType": "address",
          "name": "proposer",
          "type": "address"
        },
        {
          "indexed": false,
          "internalType": "address",
          "name": "challenger",
          "type": "address"
        },
        {
          "indexed": false,
          "internalType": "address",
          "name": "missingAccount",
          "type": "address"
        },
        {
          "indexed": true,
          "internalType": "uint256",
          "name": "index",
          "type": "uint256"
        }
      ],
      "name": "ChallengeMissingAccountSuccess",
      "type": "event"
    },
    {
      "anonymous": false,
      "inputs": [
        {
          "indexed": true,
          "internalType": "address",
          "name": "proposer",
          "type": "address"
        },
        {
          "indexed": false,
          "internalType": "address",
          "name": "challenger",
          "type": "address"
        },
        {
          "indexed": false,
          "internalType": "address",
          "name": "account",
          "type": "address"
        },
        {
          "indexed": false,
          "internalType": "uint256",
          "name": "balance",
          "type": "uint256"
        },
        {
          "indexed": false,
          "internalType": "uint256",
          "name": "sum",
          "type": "uint256"
        },
        {
          "indexed": true,
          "internalType": "uint256",
          "name": "index",
          "type": "uint256"
        }
      ],
      "name": "ChallengeSuccessResponse",
      "type": "event"
    },
    {
      "anonymous": false,
      "inputs": [
        {
          "indexed": false,
          "internalType": "uint256",
          "name": "_blockNumber",
          "type": "uint256"
        }
      ],
      "name": "ConfigureBlock",
      "type": "event"
    },
    {
      "anonymous": false,
      "inputs": [
        {
          "indexed": true,
          "internalType": "address",
          "name": "proposer",
          "type": "address"
        },
        {
          "indexed": false,
          "internalType": "uint256",
          "name": "totalSum",
          "type": "uint256"
        },
        {
          "indexed": false,
          "internalType": "uint256",
          "name": "amountOfAccounts",
          "type": "uint256"
        }
      ],
      "name": "RootHashAcceptance",
      "type": "event"
    },
    {
      "anonymous": false,
      "inputs": [
        {
          "indexed": true,
          "internalType": "address",
          "name": "proposer",
          "type": "address"
        },
        {
          "indexed": false,
          "internalType": "address",
          "name": "challenger",
          "type": "address"
        },
        {
          "indexed": true,
          "internalType": "uint256",
          "name": "index",
          "type": "uint256"
        }
      ],
      "name": "RootHashChallengeIndexRequest",
      "type": "event"
    },
    {
      "anonymous": false,
      "inputs": [
        {
          "indexed": true,
          "internalType": "address",
          "name": "proposer",
          "type": "address"
        },
        {
          "indexed": true,
          "internalType": "bytes32",
          "name": "proposedRootHash",
          "type": "bytes32"
        },
        {
          "indexed": false,
          "internalType": "uint256",
          "name": "totalSum",
          "type": "uint256"
        },
        {
          "indexed": false,
          "internalType": "uint256",
          "name": "amountOfAccounts",
          "type": "uint256"
        }
      ],
      "name": "RootHashPost",
      "type": "event"
    },
    {
      "anonymous": false,
      "inputs": [
        {
          "indexed": true,
          "internalType": "address",
          "name": "proposer",
          "type": "address"
        }
      ],
      "name": "RootHashRejection",
      "type": "event"
    },
    {
      "inputs": [],
      "name": "CHALLENGE_FEE",
      "outputs": [
        {
          "internalType": "uint256",
          "name": "",
          "type": "uint256"
        }
      ],
      "stateMutability": "view",
      "type": "function"
    },
    {
      "inputs": [],
      "name": "CHALLENGING_TIME",
      "outputs": [
        {
          "internalType": "uint256",
          "name": "",
          "type": "uint256"
        }
      ],
      "stateMutability": "view",
      "type": "function"
    },
    {
      "inputs": [],
      "name": "CONTESTING_TIME",
      "outputs": [
        {
          "internalType": "uint256",
          "name": "",
          "type": "uint256"
        }
      ],
      "stateMutability": "view",
      "type": "function"
    },
    {
      "inputs": [],
      "name": "FEE_COLLECTION_TIME",
      "outputs": [
        {
          "internalType": "uint256",
          "name": "",
          "type": "uint256"
        }
      ],
      "stateMutability": "view",
      "type": "function"
    },
    {
      "inputs": [],
      "name": "GENERATION_START",
      "outputs": [
        {
          "internalType": "uint256",
          "name": "",
          "type": "uint256"
        }
      ],
      "stateMutability": "view",
      "type": "function"
    },
    {
      "inputs": [],
      "name": "MIN_GENERATION_DURATION",
      "outputs": [
        {
          "internalType": "uint256",
          "name": "",
          "type": "uint256"
        }
      ],
      "stateMutability": "view",
      "type": "function"
    },
    {
      "inputs": [],
      "name": "PROPOSER_FEE",
      "outputs": [
        {
          "internalType": "uint256",
          "name": "",
          "type": "uint256"
        }
      ],
      "stateMutability": "view",
      "type": "function"
    },
    {
      "inputs": [],
      "name": "acceptedAmountOfAccounts",
      "outputs": [
        {
          "internalType": "uint256",
          "name": "",
          "type": "uint256"
        }
      ],
      "stateMutability": "view",
      "type": "function"
    },
    {
      "inputs": [],
      "name": "acceptedRootHash",
      "outputs": [
        {
          "internalType": "bytes32",
          "name": "",
          "type": "bytes32"
        }
      ],
      "stateMutability": "view",
      "type": "function"
    },
    {
      "inputs": [],
      "name": "acceptedTotalSum",
      "outputs": [
        {
          "internalType": "uint256",
          "name": "",
          "type": "uint256"
        }
      ],
      "stateMutability": "view",
      "type": "function"
    },
    {
      "inputs": [],
      "name": "blockNumber",
      "outputs": [
        {
          "internalType": "uint256",
          "name": "",
          "type": "uint256"
        }
      ],
      "stateMutability": "view",
      "type": "function"
    },
    {
      "inputs": [
        {
          "internalType": "bytes32",
          "name": "",
          "type": "bytes32"
        },
        {
          "internalType": "address",
          "name": "_addr",
          "type": "address"
        }
      ],
      "name": "canImplementInterfaceForAddress",
      "outputs": [
        {
          "internalType": "bytes32",
          "name": "",
          "type": "bytes32"
        }
      ],
      "stateMutability": "view",
      "type": "function"
    },
    {
      "inputs": [
        {
          "internalType": "address",
          "name": "_proposer",
          "type": "address"
        },
        {
          "internalType": "uint256",
          "name": "_index",
          "type": "uint256"
        }
      ],
      "name": "challengeRootHashRequestAccount",
      "outputs": [],
      "stateMutability": "nonpayable",
      "type": "function"
    },
    {
      "inputs": [
        {
          "internalType": "address",
          "name": "_proposer",
          "type": "address"
        }
      ],
      "name": "checkRootHashStatus",
      "outputs": [],
      "stateMutability": "nonpayable",
      "type": "function"
    },
    {
      "inputs": [
        {
          "internalType": "address",
          "name": "_proposer",
          "type": "address"
        }
      ],
      "name": "claimFee",
      "outputs": [],
      "stateMutability": "nonpayable",
      "type": "function"
    },
    {
      "inputs": [
        {
          "internalType": "address",
          "name": "_who",
          "type": "address"
        },
        {
          "internalType": "address",
          "name": "_proposer",
          "type": "address"
        }
      ],
      "name": "claimFeeFor",
      "outputs": [],
      "stateMutability": "nonpayable",
      "type": "function"
    },
    {
      "inputs": [
        {
          "internalType": "address",
          "name": "_proposer",
          "type": "address"
        },
        {
          "internalType": "uint256",
          "name": "_index",
          "type": "uint256"
        },
        {
          "internalType": "address",
          "name": "_account",
          "type": "address"
        }
      ],
      "name": "claimMissingAccount",
      "outputs": [],
      "stateMutability": "nonpayable",
      "type": "function"
    },
    {
      "inputs": [],
      "name": "clone",
      "outputs": [
        {
          "internalType": "address",
          "name": "",
          "type": "address"
        }
      ],
      "stateMutability": "nonpayable",
      "type": "function"
    },
    {
      "inputs": [
        {
          "internalType": "uint256",
          "name": "_blockNumber",
          "type": "uint256"
        }
      ],
      "name": "configure",
      "outputs": [],
      "stateMutability": "nonpayable",
      "type": "function"
    },
    {
      "inputs": [],
      "name": "destruct",
      "outputs": [],
      "stateMutability": "nonpayable",
      "type": "function"
    },
    {
      "inputs": [],
      "name": "ecoToken",
      "outputs": [
        {
          "internalType": "contract IECO",
          "name": "",
          "type": "address"
        }
      ],
      "stateMutability": "view",
      "type": "function"
    },
    {
      "inputs": [],
      "name": "feeCollectionEnds",
      "outputs": [
        {
          "internalType": "uint256",
          "name": "",
          "type": "uint256"
        }
      ],
      "stateMutability": "view",
      "type": "function"
    },
    {
      "inputs": [],
      "name": "implementation",
      "outputs": [
        {
          "internalType": "address",
          "name": "_impl",
          "type": "address"
        }
      ],
      "stateMutability": "view",
      "type": "function"
    },
    {
      "inputs": [
        {
          "internalType": "address",
          "name": "_self",
          "type": "address"
        }
      ],
      "name": "initialize",
      "outputs": [],
      "stateMutability": "nonpayable",
      "type": "function"
    },
    {
      "inputs": [],
      "name": "policy",
      "outputs": [
        {
          "internalType": "contract Policy",
          "name": "",
          "type": "address"
        }
      ],
      "stateMutability": "view",
      "type": "function"
    },
    {
      "inputs": [
        {
          "internalType": "address",
          "name": "_delegate",
          "type": "address"
        },
        {
          "internalType": "bytes",
          "name": "_data",
          "type": "bytes"
        }
      ],
      "name": "policyCommand",
      "outputs": [],
      "stateMutability": "nonpayable",
      "type": "function"
    },
    {
      "inputs": [
        {
          "internalType": "bytes32",
          "name": "_proposedRootHash",
          "type": "bytes32"
        },
        {
          "internalType": "uint256",
          "name": "_totalSum",
          "type": "uint256"
        },
        {
          "internalType": "uint256",
          "name": "_amountOfAccounts",
          "type": "uint256"
        }
      ],
      "name": "proposeRootHash",
      "outputs": [],
      "stateMutability": "nonpayable",
      "type": "function"
    },
    {
      "inputs": [
        {
          "internalType": "address",
          "name": "_challenger",
          "type": "address"
        },
        {
          "internalType": "bytes32[]",
          "name": "_proof",
          "type": "bytes32[]"
        },
        {
          "internalType": "address",
          "name": "_account",
          "type": "address"
        },
        {
          "internalType": "uint256",
          "name": "_claimedBalance",
          "type": "uint256"
        },
        {
          "internalType": "uint256",
          "name": "_sum",
          "type": "uint256"
        },
        {
          "internalType": "uint256",
          "name": "_index",
          "type": "uint256"
        }
      ],
      "name": "respondToChallenge",
      "outputs": [],
      "stateMutability": "nonpayable",
      "type": "function"
    },
    {
      "inputs": [
        {
          "internalType": "address",
          "name": "",
          "type": "address"
        }
      ],
      "name": "rootHashProposals",
      "outputs": [
        {
          "internalType": "bool",
          "name": "initialized",
          "type": "bool"
        },
        {
          "internalType": "bytes32",
          "name": "rootHash",
          "type": "bytes32"
        },
        {
          "internalType": "uint256",
          "name": "totalSum",
          "type": "uint256"
        },
        {
          "internalType": "uint256",
          "name": "amountOfAccounts",
          "type": "uint256"
        },
        {
          "internalType": "uint256",
          "name": "lastLiveChallenge",
          "type": "uint256"
        },
        {
          "internalType": "uint256",
          "name": "amountPendingChallenges",
          "type": "uint256"
        },
        {
          "internalType": "uint256",
          "name": "totalChallenges",
          "type": "uint256"
        },
        {
          "internalType": "uint256",
          "name": "stakedAmount",
          "type": "uint256"
        },
        {
          "internalType": "uint256",
          "name": "newChallengerSubmissionEnds",
          "type": "uint256"
        },
        {
          "internalType": "enum InflationRootHashProposal.RootHashStatus",
          "name": "status",
          "type": "uint8"
        }
      ],
      "stateMutability": "view",
      "type": "function"
    },
    {
      "inputs": [
        {
          "internalType": "address",
          "name": "_addr",
          "type": "address"
        }
      ],
      "name": "setExpectedInterfaceSet",
      "outputs": [],
      "stateMutability": "nonpayable",
      "type": "function"
    },
    {
      "inputs": [
        {
          "internalType": "address",
          "name": "_who",
          "type": "address"
        },
        {
          "internalType": "bytes32[]",
          "name": "_proof",
          "type": "bytes32[]"
        },
        {
          "internalType": "uint256",
          "name": "_sum",
          "type": "uint256"
        },
        {
          "internalType": "uint256",
          "name": "_index",
          "type": "uint256"
        }
      ],
      "name": "verifyClaimSubmission",
      "outputs": [
        {
          "internalType": "bool",
          "name": "",
          "type": "bool"
        }
      ],
      "stateMutability": "view",
      "type": "function"
    }
  ],
  "bytecode": "0x60c06040523480156200001157600080fd5b50604051620045753803806200457583398101604081905262000034916200026b565b81806200004130620001c4565b6001600160a01b038116620000c35760405162461bcd60e51b815260206004820152603860248201527f556e7265636f76657261626c653a20646f206e6f74207365742074686520706f60448201527f6c69637920617320746865207a65726f2061646472657373000000000000000060648201526084015b60405180910390fd5b6001600160a01b0381166080819052604051635df8122f60e01b81523060048201526024810191909152731820a4b7618bde71dce8cdc73aab6c95905fad2490635df8122f90604401600060405180830381600087803b1580156200012757600080fd5b505af11580156200013c573d6000803e3d6000fd5b50505050506001600160a01b03821615159050620001b15760405162461bcd60e51b815260206004820152602b60248201527f646f206e6f742073657420746865205f65636f4164647220617320746865207a60448201526a65726f206164647265737360a81b6064820152608401620000ba565b6001600160a01b031660a05250620002aa565b6001600160a01b038116620001e6600080516020620045558339815191525490565b6001600160a01b031614156200023f5760405162461bcd60e51b815260206004820152601f60248201527f496d706c656d656e746174696f6e20616c7265616479206d61746368696e67006044820152606401620000ba565b6000805160206200455583398151915255565b6001600160a01b03811681146200026857600080fd5b50565b600080604083850312156200027f57600080fd5b82516200028c8162000252565b60208401519092506200029f8162000252565b809150509250929050565b60805160a05161423162000324600039600081816103c70152818161088b01528181611aa301528181611e7301528181612483015281816128a201528181612aec015261357c0152600081816101ef01528181610ffc015281816118ae01528181611ae101528181611c7f0152612d4101526142316000f3fe608060405234801561001057600080fd5b50600436106101e55760003560e01c80635c60da1b1161010f57806386dfdded116100a2578063a61b758e11610071578063a61b758e14610473578063a8c95a041461047c578063be85b77314610485578063c4d66de81461049557600080fd5b806386dfdded1461044557806387193cc61461044f5780638cb17056146104585780639ba038d41461046257600080fd5b8063720cb0cb116100de578063720cb0cb146103f257806377c02f1b14610405578063780cc9f5146104285780637c8f34ac1461043b57600080fd5b80635c60da1b146103885780636ebc51e1146103af578063705d5304146103c2578063706cfb39146103e957600080fd5b8063249cb3fa11610187578063472457e311610156578063472457e3146102e9578063523ce9ec146102fc578063537299371461037657806357e871e71461037f57600080fd5b8063249cb3fa146102a45780632b68b9c6146102c557806334ea5797146102cd57806339634e0c146102d657600080fd5b806309ed4607116101c357806309ed4607146102635780630f767e501461026b57806312a3420e1461027e5780631eb25e0a1461029157600080fd5b80630505c8c9146101ea57806306bb1c0c1461023b57806309d7f23b14610250575b600080fd5b6102117f000000000000000000000000000000000000000000000000000000000000000081565b60405173ffffffffffffffffffffffffffffffffffffffff90911681526020015b60405180910390f35b61024e610249366004613b3f565b6104a8565b005b61024e61025e366004613bf1565b610fe4565b6102116110d3565b61024e610279366004613cd3565b611234565b61024e61028c366004613cff565b6114c9565b61024e61029f366004613d2b565b6117df565b6102b76102b2366004613d44565b6118aa565b604051908152602001610232565b61024e6119d5565b6102b760055481565b61024e6102e4366004613d74565b611c67565b61024e6102f7366004613d98565b611d73565b61036061030a366004613d74565b6004602081905260009182526040909120805460018201546002830154600384015494840154600585015460068601546007870154600888015460099098015460ff97881699969895979495939492939192168a565b6040516102329a99989796959493929190613e09565b6102b76103e881565b6102b760065481565b7ff86c915dad5894faca0dfa067c58fdf4307406d255ed0a65db394f82b77f53d454610211565b61024e6103bd366004613d74565b6122ea565b6102117f000000000000000000000000000000000000000000000000000000000000000081565b6102b760035481565b61024e610400366004613d74565b6122f7565b610418610413366004613e95565b61239e565b6040519015158152602001610232565b61024e610436366004613efc565b6125ae565b6102b762ed4e0081565b6102b76201518081565b6102b7610e1081565b6102b76212750081565b6102b769152d02c7e14af680000081565b6102b760025481565b6102b760015481565b6102b7683635c9adc5dea0000081565b61024e6104a3366004613d74565b612c28565b6001541561053d576040517f08c379a000000000000000000000000000000000000000000000000000000000815260206004820152602f60248201527f54686520726f6f7420686173682061636365707465642c206e6f206d6f72652060448201527f616374696f6e7320616c6c6f776564000000000000000000000000000000000060648201526084015b60405180910390fd5b600083116105cd576040517f08c379a000000000000000000000000000000000000000000000000000000000815260206004820152603560248201527f4163636f756e74732077697468207a65726f2062616c616e6365206e6f74206160448201527f6c6c6f77656420696e204d65726b6c65207472656500000000000000000000006064820152608401610534565b73ffffffffffffffffffffffffffffffffffffffff8416610670576040517f08c379a000000000000000000000000000000000000000000000000000000000815260206004820152602b60248201527f546865207a65726f2061646472657373206e6f7420616c6c6f77656420696e2060448201527f4d65726b6c6520747265650000000000000000000000000000000000000000006064820152608401610534565b33600090815260046020908152604080832073ffffffffffffffffffffffffffffffffffffffff8b168452600a810190925290912060018101544210610738576040517f08c379a000000000000000000000000000000000000000000000000000000000815260206004820152602b60248201527f54696d656672616d6520746f20726573706f6e6420746f2061206368616c6c6560448201527f6e6765206973206f7665720000000000000000000000000000000000000000006064820152608401610534565b6001600084815260038301602052604090205460ff16600281111561075f5761075f613dda565b146107ec576040517f08c379a000000000000000000000000000000000000000000000000000000000815260206004820152602c60248201527f5468657265206973206e6f2070656e64696e67206368616c6c656e676520666f60448201527f72207468697320696e64657800000000000000000000000000000000000000006064820152608401610534565b6000838152600b830160205260409081902080547fffffffffffffffffffffffff00000000000000000000000000000000000000001673ffffffffffffffffffffffffffffffffffffffff8981169182178355600183018990556002830188905560065493517f3a46b1a800000000000000000000000000000000000000000000000000000000815260048101929092526024820193909352909187917f000000000000000000000000000000000000000000000000000000000000000090911690633a46b1a89060440160206040518083038186803b1580156108cf57600080fd5b505afa1580156108e3573d6000803e3d6000fd5b505050506040513d601f19601f820116820180604052508101906109079190613f2a565b14610994576040517f08c379a000000000000000000000000000000000000000000000000000000000815260206004820152602f60248201527f4368616c6c656e676520726573706f6e7365206661696c6564206163636f756e60448201527f742062616c616e636520636865636b00000000000000000000000000000000006064820152608401610534565b610a3789898080602002602001604051908101604052809392919081815260200183836020028082843760009201919091525050505060018501546040517fffffffffffffffffffffffffffffffffffffffff00000000000000000000000060608c901b166020820152603481018a9052605481018990526074810188905260940160405160208183030381529060405280519060200120878760030154612db3565b610ac3576040517f08c379a000000000000000000000000000000000000000000000000000000000815260206004820152603860248201527f4368616c6c656e676520726573706f6e7365206661696c6564206d65726b6c6560448201527f207472656520766572696669636174696f6e20636865636b00000000000000006064820152608401610534565b83610b5b578415610b56576040517f08c379a000000000000000000000000000000000000000000000000000000000815260206004820152602560248201527f63756d756c61746976652073756d20646f6573206e6f7420737461727473206660448201527f726f6d20300000000000000000000000000000000000000000000000000000006064820152608401610534565b610cd6565b6000600b840181610b6d600188613f72565b815260200190815260200160002090508060010154600014610cd4578581600101548260020154610b9e9190613f89565b14610c2b576040517f08c379a000000000000000000000000000000000000000000000000000000000815260206004820152602560248201527f4c656674206e65696768626f722073756d20766572696669636174696f6e206660448201527f61696c65640000000000000000000000000000000000000000000000000000006064820152608401610534565b805473ffffffffffffffffffffffffffffffffffffffff808a16911610610cd4576040517f08c379a000000000000000000000000000000000000000000000000000000000815260206004820152602760248201527f4c656674206e65696768626f72206f7264657220766572696669636174696f6e60448201527f206661696c6564000000000000000000000000000000000000000000000000006064820152608401610534565b505b60018360030154610ce79190613f72565b841415610d8f57610cf88686613f89565b836002015414610d8a576040517f08c379a000000000000000000000000000000000000000000000000000000000815260206004820152602760248201527f63756d756c61746976652073756d20646f6573206e6f74206d6174636820746f60448201527f74616c2073756d000000000000000000000000000000000000000000000000006064820152608401610534565b610f05565b6000600b840181610da1876001613f89565b815260200190815260200160002090508060010154600014610f03576002810154610dcc8888613f89565b14610e59576040517f08c379a000000000000000000000000000000000000000000000000000000000815260206004820152602660248201527f5269676874206e65696768626f722073756d20766572696669636174696f6e2060448201527f6661696c656400000000000000000000000000000000000000000000000000006064820152608401610534565b805473ffffffffffffffffffffffffffffffffffffffff90811690891610610f03576040517f08c379a000000000000000000000000000000000000000000000000000000000815260206004820152602860248201527f5269676874206e65696768626f72206f7264657220766572696669636174696f60448201527f6e206661696c65640000000000000000000000000000000000000000000000006064820152608401610534565b505b6040805173ffffffffffffffffffffffffffffffffffffffff8c811682528916602082015290810187905260608101869052849033907f3f7df1c0ced26d5b16538321acca7dfd61b15b55cbbdeb0c0ca5fd3e552413829060800160405180910390a36000848152600383016020526040812080547fffffffffffffffffffffffffffffffffffffffffffffffffffffffffffffff0016600217905560058401805460019290610fb6908490613f72565b92505081905550610e10826001016000828254610fd39190613f89565b909155505050505050505050505050565b3373ffffffffffffffffffffffffffffffffffffffff7f000000000000000000000000000000000000000000000000000000000000000016146110a9576040517f08c379a000000000000000000000000000000000000000000000000000000000815260206004820152602d60248201527f4f6e6c792074686520706f6c69637920636f6e7472616374206d61792063616c60448201527f6c2074686973206d6574686f64000000000000000000000000000000000000006064820152608401610534565b600080825160208401855af43d806000803e8180156110c757816000f35b816000fd5b5050505050565b6000306110fe7ff86c915dad5894faca0dfa067c58fdf4307406d255ed0a65db394f82b77f53d45490565b73ffffffffffffffffffffffffffffffffffffffff16146111a1576040517f08c379a000000000000000000000000000000000000000000000000000000000815260206004820152602660248201527f54686973206d6574686f642063616e6e6f742062652063616c6c6564206f6e2060448201527f636c6f6e657300000000000000000000000000000000000000000000000000006064820152608401610534565b60006111ac30612f52565b6040517fc4d66de800000000000000000000000000000000000000000000000000000000815230600482015290915073ffffffffffffffffffffffffffffffffffffffff82169063c4d66de890602401600060405180830381600087803b15801561121657600080fd5b505af115801561122a573d6000803e3d6000fd5b5092949350505050565b600154156112c4576040517f08c379a000000000000000000000000000000000000000000000000000000000815260206004820152602f60248201527f54686520726f6f7420686173682061636365707465642c206e6f206d6f72652060448201527f616374696f6e7320616c6c6f77656400000000000000000000000000000000006064820152608401610534565b6112cf823383612fbb565b73ffffffffffffffffffffffffffffffffffffffff82166000908152600460209081526040808320338452600a8101909252909120805460ff166113925780547fffffffffffffffffffffffffffffffffffffffffffffffffffffffffffffff00166001178155620151806113414290565b61134b9190613f89565b6001828101919091556000848152600383016020526040902080547fffffffffffffffffffffffffffffffffffffffffffffffffffffffffffffff00169091179055611458565b600083815260038201602052604081205460ff1660028111156113b7576113b7613dda565b1461141e576040517f08c379a000000000000000000000000000000000000000000000000000000000815260206004820152601860248201527f496e64657820616c7265616479206368616c6c656e67656400000000000000006044820152606401610534565b6000838152600382016020526040902080547fffffffffffffffffffffffffffffffffffffffffffffffffffffffffffffff001660011790555b604051338152839073ffffffffffffffffffffffffffffffffffffffff8616907f0a1a8468903cae9931dcd5d799965a45e7d008583a0de88717b6f132e25b18499060200160405180910390a36114af843361345e565b6114c33385683635c9adc5dea0000061352a565b50505050565b60015415611559576040517f08c379a000000000000000000000000000000000000000000000000000000000815260206004820152602f60248201527f54686520726f6f7420686173682061636365707465642c206e6f206d6f72652060448201527f616374696f6e7320616c6c6f77656400000000000000000000000000000000006064820152608401610534565b826115c0576040517f08c379a000000000000000000000000000000000000000000000000000000000815260206004820152601860248201527f526f6f7420686173682063616e6e6f74206265207a65726f00000000000000006044820152606401610534565b6000821161162a576040517f08c379a000000000000000000000000000000000000000000000000000000000815260206004820152601860248201527f546f74616c2073756d2063616e6e6f74206265207a65726f00000000000000006044820152606401610534565b600081116116ba576040517f08c379a000000000000000000000000000000000000000000000000000000000815260206004820152602760248201527f48617368206d75737420636f6e73697374206f66206174206c6561737420312060448201527f6163636f756e74000000000000000000000000000000000000000000000000006064820152608401610534565b336000908152600460205260409020805460ff1615611735576040517f08c379a000000000000000000000000000000000000000000000000000000000815260206004820152601a60248201527f526f6f74206861736820616c72656164792070726f706f7365640000000000006044820152606401610534565b80547fffffffffffffffffffffffffffffffffffffffffffffffffffffffffffffff001660019081178255810184905560028101839055600381018290556201518061177e4290565b6117889190613f89565b60088201556040805184815260208101849052859133917f6620bdb89cea8a511b55ab81150a1779dfa0cb367348c78ec28994d9acaf4f8b910160405180910390a36114c3333369152d02c7e14af680000061352a565b6006541561186f576040517f08c379a000000000000000000000000000000000000000000000000000000000815260206004820152602960248201527f5468697320696e7374616e63652068617320616c7265616479206265656e206360448201527f6f6e6669677572656400000000000000000000000000000000000000000000006064820152608401610534565b60068190556040518181527f3d9af45a2fa472d02ac915a5ba7754b1afe4e7132d7f039eeae91c85d4bf84b59060200160405180910390a150565b60007f000000000000000000000000000000000000000000000000000000000000000073ffffffffffffffffffffffffffffffffffffffff168273ffffffffffffffffffffffffffffffffffffffff161480611920575060005473ffffffffffffffffffffffffffffffffffffffff8381169116145b6119ac576040517f08c379a000000000000000000000000000000000000000000000000000000000815260206004820152603b60248201527f4f6e6c792074686520706f6c696379206f7220696e7465726661636520636f6e60448201527f74726163742063616e207365742074686520696e7465726661636500000000006064820152608401610534565b507fa2ef4600d742022d532d4747cb3547474667d6f13804902513b2ec01c848f4b45b92915050565b600554158015906119e7575060055442115b611a7557604080517f08c379a00000000000000000000000000000000000000000000000000000000081526020600482015260248101919091527f636f6e7472616374206d6967687420626520646573747275637465642061667460448201527f65722066656520636f6c6c656374696f6e20706572696f64206973206f7665726064820152608401610534565b6040517f70a082310000000000000000000000000000000000000000000000000000000081523060048201527f000000000000000000000000000000000000000000000000000000000000000073ffffffffffffffffffffffffffffffffffffffff169063a9059cbb907f00000000000000000000000000000000000000000000000000000000000000009083906370a082319060240160206040518083038186803b158015611b2457600080fd5b505afa158015611b38573d6000803e3d6000fd5b505050506040513d601f19601f82011682018060405250810190611b5c9190613f2a565b6040517fffffffff0000000000000000000000000000000000000000000000000000000060e085901b16815273ffffffffffffffffffffffffffffffffffffffff90921660048301526024820152604401602060405180830381600087803b158015611bc757600080fd5b505af1158015611bdb573d6000803e3d6000fd5b505050506040513d601f19601f82011682018060405250810190611bff9190613fa1565b611c65576040517f08c379a000000000000000000000000000000000000000000000000000000000815260206004820152600f60248201527f5472616e73666572204661696c656400000000000000000000000000000000006044820152606401610534565b565b3373ffffffffffffffffffffffffffffffffffffffff7f00000000000000000000000000000000000000000000000000000000000000001614611d2c576040517f08c379a000000000000000000000000000000000000000000000000000000000815260206004820152602d60248201527f4f6e6c792074686520706f6c69637920636f6e7472616374206d61792063616c60448201527f6c2074686973206d6574686f64000000000000000000000000000000000000006064820152608401610534565b600080547fffffffffffffffffffffffff00000000000000000000000000000000000000001673ffffffffffffffffffffffffffffffffffffffff92909216919091179055565b60015415611e03576040517f08c379a000000000000000000000000000000000000000000000000000000000815260206004820152602f60248201527f54686520726f6f7420686173682061636365707465642c206e6f206d6f72652060448201527f616374696f6e7320616c6c6f77656400000000000000000000000000000000006064820152608401610534565b611e0e833384612fbb565b73ffffffffffffffffffffffffffffffffffffffff8084166000908152600460208181526040808420338552600a810190925280842060065491517f3a46b1a800000000000000000000000000000000000000000000000000000000815292959094937f000000000000000000000000000000000000000000000000000000000000000090911692633a46b1a892611ec99289920173ffffffffffffffffffffffffffffffffffffffff929092168252602082015260400190565b60206040518083038186803b158015611ee157600080fd5b505afa158015611ef5573d6000803e3d6000fd5b505050506040513d601f19601f82011682018060405250810190611f199190613f2a565b11611f80576040517f08c379a000000000000000000000000000000000000000000000000000000000815260206004820152601e60248201527f4d697373696e67206163636f756e7420646f6573206e6f7420657869737400006044820152606401610534565b805460ff16611feb576040517f08c379a000000000000000000000000000000000000000000000000000000000815260206004820152601a60248201527f5375626d697420496e64657820526571756573742066697273740000000000006044820152606401610534565b8315612146576002600382016000612004600188613f72565b815260208101919091526040016000205460ff16600281111561202957612029613dda565b14612090576040517f08c379a000000000000000000000000000000000000000000000000000000000815260206004820152601b60248201527f4c656674205f696e646578206973206e6f74207265736f6c76656400000000006044820152606401610534565b73ffffffffffffffffffffffffffffffffffffffff8316600b830160006120b8600188613f72565b815260208101919091526040016000205473ffffffffffffffffffffffffffffffffffffffff1610612146576040517f08c379a000000000000000000000000000000000000000000000000000000000815260206004820152601c60248201527f4d697373696e67206163636f756e7420636c61696d206661696c6564000000006044820152606401610534565b81600301548414612272576002600085815260038301602052604090205460ff16600281111561217857612178613dda565b146121df576040517f08c379a000000000000000000000000000000000000000000000000000000000815260206004820152601c60248201527f5269676874205f696e646578206973206e6f74207265736f6c766564000000006044820152606401610534565b6000848152600b8301602052604090205473ffffffffffffffffffffffffffffffffffffffff90811690841610612272576040517f08c379a000000000000000000000000000000000000000000000000000000000815260206004820152601c60248201527f4d697373696e67206163636f756e7420636c61696d206661696c6564000000006044820152606401610534565b60018160020160008282546122879190613f89565b90915550506040805133815273ffffffffffffffffffffffffffffffffffffffff85811660208301528692908816917f801f1b04125440f1b5ed246c42241d26a5041a231feca2fcbc1846a33188fa4e910160405180910390a36110cc856136a0565b6122f433826125ae565b50565b73ffffffffffffffffffffffffffffffffffffffff8116600090815260046020526040902060015415801561232f5750600881015442115b801561233e5750600481015442115b1561236357600581015461235a576123558261371a565b612363565b612363826136a0565b6001541580159061238c57506000600982015460ff16600281111561238a5761238a613dda565b145b1561239a5761239a826136a0565b5050565b600154600090612430576040517f08c379a000000000000000000000000000000000000000000000000000000000815260206004820152602860248201527f43616e277420636c61696d206265666f726520726f6f7420686173682065737460448201527f61626c69736865640000000000000000000000000000000000000000000000006064820152608401610534565b6006546040517f3a46b1a800000000000000000000000000000000000000000000000000000000815273ffffffffffffffffffffffffffffffffffffffff888116600483015260248201929092526000917f00000000000000000000000000000000000000000000000000000000000000001690633a46b1a89060440160206040518083038186803b1580156124c557600080fd5b505afa1580156124d9573d6000803e3d6000fd5b505050506040513d601f19601f820116820180604052508101906124fd9190613f2a565b90506125a1868680806020026020016040519081016040528093929190818152602001838360200280828437600092019190915250506001546040517fffffffffffffffffffffffffffffffffffffffff00000000000000000000000060608e901b16602082015260348101879052605481018a90526074810189905290925060940190506040516020818303038152906040528051906020012086600354612db3565b9150505b95945050505050565b73ffffffffffffffffffffffffffffffffffffffff80821660009081526004602090815260408083209386168352600a8401909152812090600983015460ff1660028111156125ff576125ff613dda565b141561268d576040517f08c379a000000000000000000000000000000000000000000000000000000000815260206004820152602e60248201527f43616e277420636c61696d205f666565206f6e2070656e64696e6720726f6f7460448201527f20686173682070726f706f73616c0000000000000000000000000000000000006064820152608401610534565b73ffffffffffffffffffffffffffffffffffffffff84166000908152600c8301602052604090205460ff161561271f576040517f08c379a000000000000000000000000000000000000000000000000000000000815260206004820152601360248201527f66656520616c726561647920636c61696d6564000000000000000000000000006044820152606401610534565b8273ffffffffffffffffffffffffffffffffffffffff168473ffffffffffffffffffffffffffffffffffffffff16141561298b576002600983015460ff16600281111561276e5761276e613dda565b14806127c457506001600983015460ff16600281111561279057612790613dda565b1480156127a257506001548260010154145b80156127b357506002548260020154145b80156127c457506003548260030154145b612850576040517f08c379a000000000000000000000000000000000000000000000000000000000815260206004820152602d60248201527f70726f706f7365722063616e277420636c61696d20666565206f6e206e6f742060448201527f61636365707465642068617368000000000000000000000000000000000000006064820152608401610534565b60078201546040517fa9059cbb00000000000000000000000000000000000000000000000000000000815273ffffffffffffffffffffffffffffffffffffffff868116600483015260248201929092527f00000000000000000000000000000000000000000000000000000000000000009091169063a9059cbb90604401602060405180830381600087803b1580156128e857600080fd5b505af11580156128fc573d6000803e3d6000fd5b505050506040513d601f19601f820116820180604052508101906129209190613fa1565b612986576040517f08c379a000000000000000000000000000000000000000000000000000000000815260206004820152600f60248201527f5472616e73666572204661696c656400000000000000000000000000000000006044820152606401610534565b612bd2565b805460ff1680156129b457506001600983015460ff1660028111156129b2576129b2613dda565b145b612a40576040517f08c379a000000000000000000000000000000000000000000000000000000000815260206004820152603260248201527f6368616c6c656e676572206d617920636c61696d20666565206f6e2072656a6560448201527f637465642070726f706f73616c206f6e6c7900000000000000000000000000006064820152608401610534565b6000683635c9adc5dea000008260020154612a5b9190613fc3565b6006840154336000908152600a8601602052604090206002015460078601549293509091612a899190613fc3565b612a939190614000565b612a9d9082613f89565b6040517fa9059cbb00000000000000000000000000000000000000000000000000000000815273ffffffffffffffffffffffffffffffffffffffff8781166004830152602482018390529192507f00000000000000000000000000000000000000000000000000000000000000009091169063a9059cbb90604401602060405180830381600087803b158015612b3257600080fd5b505af1158015612b46573d6000803e3d6000fd5b505050506040513d601f19601f82011682018060405250810190612b6a9190613fa1565b612bd0576040517f08c379a000000000000000000000000000000000000000000000000000000000815260206004820152600f60248201527f5472616e73666572204661696c656400000000000000000000000000000000006044820152606401610534565b505b5073ffffffffffffffffffffffffffffffffffffffff9092166000908152600c909201602052506040902080547fffffffffffffffffffffffffffffffffffffffffffffffffffffffffffffff00166001179055565b6000612c527ff86c915dad5894faca0dfa067c58fdf4307406d255ed0a65db394f82b77f53d45490565b73ffffffffffffffffffffffffffffffffffffffff1614612cf5576040517f08c379a000000000000000000000000000000000000000000000000000000000815260206004820152602860248201527f43616e206f6e6c792062652063616c6c656420647572696e6720696e6974696160448201527f6c697a6174696f6e0000000000000000000000000000000000000000000000006064820152608401610534565b612cfe816137fa565b6040517f5df8122f00000000000000000000000000000000000000000000000000000000815230600482015273ffffffffffffffffffffffffffffffffffffffff7f0000000000000000000000000000000000000000000000000000000000000000166024820152731820a4b7618bde71dce8cdc73aab6c95905fad2490635df8122f90604401600060405180830381600087803b158015612d9f57600080fd5b505af11580156110cc573d6000803e3d6000fd5b60008160018751612dc49190613f72565b6001901b101580612dd957508186516001901b105b15612de6575060006125a5565b8360005b8751811015612e91576000888281518110612e0757612e0761403b565b602002602001015190508186901c60011660011415612e51576040805160208101839052908101849052606001604051602081830303815290604052805190602001209250612e7e565b60408051602081018590529081018290526060016040516020818303038152906040528051906020012092505b5080612e898161406a565b915050612dea565b50858114612ea35760009150506125a5565b6000612eb0600185613f72565b885190861891505b8015612f4357612ec9600182613f72565b82901c60011660001415612f2c57612ee2600182613f72565b86901c60011660001415612f2757600089612efe600184613f72565b81518110612f0e57612f0e61403b565b602002602001015114612f2757600093505050506125a5565b612f31565b612f43565b80612f3b816140a3565b915050612eb8565b50600198975050505050505050565b6000808260601b90506040517f3d602d80600a3d3981f3363d3d373d3d3d363d7300000000000000000000000081528160148201527f5af43d82803e903d91602b57fd5bf3000000000000000000000000000000000060288201526037816000f0949350505050565b73ffffffffffffffffffffffffffffffffffffffff80841660008181526004602052604090209184161415613072576040517f08c379a000000000000000000000000000000000000000000000000000000000815260206004820152603560248201527f526f6f7420686173682070726f706f7365722063616e2774206368616c6c656e60448201527f676520697473206f776e207375626d697373696f6e00000000000000000000006064820152608401610534565b60018101546130dd576040517f08c379a000000000000000000000000000000000000000000000000000000000815260206004820152601e60248201527f5468657265206973206e6f207375636820686173682070726f706f73616c00006044820152606401610534565b6000600982015460ff1660028111156130f8576130f8613dda565b1461315f576040517f08c379a000000000000000000000000000000000000000000000000000000000815260206004820152601860248201527f5468652070726f706f73616c206973207265736f6c76656400000000000000006044820152606401610534565b81816003015411613218576040517f08c379a000000000000000000000000000000000000000000000000000000000815260206004820152604360248201527f54686520696e646578206861766520746f2062652077697468696e207468652060448201527f72616e6765206f6620636c61696d656420616d6f756e74206f66206163636f7560648201527f6e74730000000000000000000000000000000000000000000000000000000000608482015260a401610534565b73ffffffffffffffffffffffffffffffffffffffff83166000908152600a820160205260409020600290810154908111156132fb576002826003015461325e91906141f8565b613269600283613f72565b6001901b11156132fb576040517f08c379a000000000000000000000000000000000000000000000000000000000815260206004820152603760248201527f4368616c6c656e6765722072656163686564206d6178696d756d20616d6f756e60448201527f74206f6620616c6c6f776564206368616c6c656e6765730000000000000000006064820152608401610534565b73ffffffffffffffffffffffffffffffffffffffff84166000908152600a830160205260409020805460ff166133c357600883015442106133be576040517f08c379a000000000000000000000000000000000000000000000000000000000815260206004820152602560248201527f54696d6520746f207375626d6974206e6577206368616c6c656e67657320697360448201527f206f7665720000000000000000000000000000000000000000000000000000006064820152608401610534565b613456565b60018101544210613456576040517f08c379a000000000000000000000000000000000000000000000000000000000815260206004820152602c60248201527f54696d6520746f207375626d6974206164646974696f6e616c206368616c6c6560448201527f6e676573206973206f76657200000000000000000000000000000000000000006064820152608401610534565b505050505050565b73ffffffffffffffffffffffffffffffffffffffff80831660009081526004602090815260408083209385168352600a84019091528120600180820154600685018054939491939091906134b3908490613f89565b9250508190555060018360050160008282546134cf9190613f89565b9250508190555060018260020160008282546134eb9190613f89565b909155506134fd9050610e1082613f89565b600183015561350e610e1082613f89565b905080836004015410156110cc57600483018190555050505050565b6040517f23b872dd00000000000000000000000000000000000000000000000000000000815273ffffffffffffffffffffffffffffffffffffffff8481166004830152306024830152604482018390527f000000000000000000000000000000000000000000000000000000000000000016906323b872dd90606401602060405180830381600087803b1580156135c057600080fd5b505af11580156135d4573d6000803e3d6000fd5b505050506040513d601f19601f820116820180604052508101906135f89190613fa1565b61365e576040517f08c379a000000000000000000000000000000000000000000000000000000000815260206004820152600f60248201527f5472616e73666572204661696c656400000000000000000000000000000000006044820152606401610534565b73ffffffffffffffffffffffffffffffffffffffff821660009081526004602052604081206007018054839290613696908490613f89565b9091555050505050565b73ffffffffffffffffffffffffffffffffffffffff811660008181526004602052604080822060090180547fffffffffffffffffffffffffffffffffffffffffffffffffffffffffffffff00166001179055517f0486da07c957c6d8c84150f71701781a2ff604f340139781e25799d9542be76b9190a250565b73ffffffffffffffffffffffffffffffffffffffff811660009081526004602052604090206009810180547fffffffffffffffffffffffffffffffffffffffffffffffffffffffffffffff001660029081179091556001808301549055808201549055600380820154905561379262ed4e0042613f89565b6005556002810154600382015460405173ffffffffffffffffffffffffffffffffffffffff8516927f9588ca37c15542f9c554ca84cc8697a0b5e6974bca1fdadd42c075baa8836a83926137ee92918252602082015260400190565b60405180910390a25050565b60006138247ff86c915dad5894faca0dfa067c58fdf4307406d255ed0a65db394f82b77f53d45490565b73ffffffffffffffffffffffffffffffffffffffff16146138c7576040517f08c379a000000000000000000000000000000000000000000000000000000000815260206004820152602860248201527f43616e206f6e6c792062652063616c6c656420647572696e6720696e6974696160448201527f6c697a6174696f6e0000000000000000000000000000000000000000000000006064820152608401610534565b60008173ffffffffffffffffffffffffffffffffffffffff16635c60da1b6040518163ffffffff1660e01b815260040160206040518083038186803b15801561390f57600080fd5b505afa158015613923573d6000803e3d6000fd5b505050506040513d601f19601f820116820180604052508101906139479190614207565b905073ffffffffffffffffffffffffffffffffffffffff81166139ec576040517f08c379a000000000000000000000000000000000000000000000000000000000815260206004820152602c60248201527f696e697469616c697a6174696f6e206661696c7572653a206e6f7468696e672060448201527f746f20696d706c656d656e7400000000000000000000000000000000000000006064820152608401610534565b61239a818073ffffffffffffffffffffffffffffffffffffffff16613a2f7ff86c915dad5894faca0dfa067c58fdf4307406d255ed0a65db394f82b77f53d45490565b73ffffffffffffffffffffffffffffffffffffffff161415613aad576040517f08c379a000000000000000000000000000000000000000000000000000000000815260206004820152601f60248201527f496d706c656d656e746174696f6e20616c7265616479206d61746368696e67006044820152606401610534565b7ff86c915dad5894faca0dfa067c58fdf4307406d255ed0a65db394f82b77f53d455565b73ffffffffffffffffffffffffffffffffffffffff811681146122f457600080fd5b60008083601f840112613b0557600080fd5b50813567ffffffffffffffff811115613b1d57600080fd5b6020830191508360208260051b8501011115613b3857600080fd5b9250929050565b600080600080600080600060c0888a031215613b5a57600080fd5b8735613b6581613ad1565b9650602088013567ffffffffffffffff811115613b8157600080fd5b613b8d8a828b01613af3565b9097509550506040880135613ba181613ad1565b969995985093966060810135956080820135955060a0909101359350915050565b7f4e487b7100000000000000000000000000000000000000000000000000000000600052604160045260246000fd5b60008060408385031215613c0457600080fd5b8235613c0f81613ad1565b9150602083013567ffffffffffffffff80821115613c2c57600080fd5b818501915085601f830112613c4057600080fd5b813581811115613c5257613c52613bc2565b604051601f82017fffffffffffffffffffffffffffffffffffffffffffffffffffffffffffffffe0908116603f01168101908382118183101715613c9857613c98613bc2565b81604052828152886020848701011115613cb157600080fd5b8260208601602083013760006020848301015280955050505050509250929050565b60008060408385031215613ce657600080fd5b8235613cf181613ad1565b946020939093013593505050565b600080600060608486031215613d1457600080fd5b505081359360208301359350604090920135919050565b600060208284031215613d3d57600080fd5b5035919050565b60008060408385031215613d5757600080fd5b823591506020830135613d6981613ad1565b809150509250929050565b600060208284031215613d8657600080fd5b8135613d9181613ad1565b9392505050565b600080600060608486031215613dad57600080fd5b8335613db881613ad1565b9250602084013591506040840135613dcf81613ad1565b809150509250925092565b7f4e487b7100000000000000000000000000000000000000000000000000000000600052602160045260246000fd5b6000610140820190508b151582528a60208301528960408301528860608301528760808301528660a08301528560c08301528460e08301528361010083015260038310613e7f577f4e487b7100000000000000000000000000000000000000000000000000000000600052602160045260246000fd5b826101208301529b9a5050505050505050505050565b600080600080600060808688031215613ead57600080fd5b8535613eb881613ad1565b9450602086013567ffffffffffffffff811115613ed457600080fd5b613ee088828901613af3565b9699909850959660408101359660609091013595509350505050565b60008060408385031215613f0f57600080fd5b8235613f1a81613ad1565b91506020830135613d6981613ad1565b600060208284031215613f3c57600080fd5b5051919050565b7f4e487b7100000000000000000000000000000000000000000000000000000000600052601160045260246000fd5b600082821015613f8457613f84613f43565b500390565b60008219821115613f9c57613f9c613f43565b500190565b600060208284031215613fb357600080fd5b81518015158114613d9157600080fd5b6000817fffffffffffffffffffffffffffffffffffffffffffffffffffffffffffffffff0483118215151615613ffb57613ffb613f43565b500290565b600082614036577f4e487b7100000000000000000000000000000000000000000000000000000000600052601260045260246000fd5b500490565b7f4e487b7100000000000000000000000000000000000000000000000000000000600052603260045260246000fd5b60007fffffffffffffffffffffffffffffffffffffffffffffffffffffffffffffffff82141561409c5761409c613f43565b5060010190565b6000816140b2576140b2613f43565b507fffffffffffffffffffffffffffffffffffffffffffffffffffffffffffffffff0190565b600181815b8085111561413157817fffffffffffffffffffffffffffffffffffffffffffffffffffffffffffffffff0482111561411757614117613f43565b8085161561412457918102915b93841c93908002906140dd565b509250929050565b600082614148575060016119cf565b81614155575060006119cf565b816001811461416b576002811461417557614191565b60019150506119cf565b60ff84111561418657614186613f43565b50506001821b6119cf565b5060208310610133831016604e8410600b84101617156141b4575081810a6119cf565b6141be83836140d8565b807fffffffffffffffffffffffffffffffffffffffffffffffffffffffffffffffff048211156141f0576141f0613f43565b029392505050565b6000613d9160ff841683614139565b60006020828403121561421957600080fd5b8151613d9181613ad156fea164736f6c6343000809000af86c915dad5894faca0dfa067c58fdf4307406d255ed0a65db394f82b77f53d4",
  "linkReferences": {},
  "deployedLinkReferences": {}
}