{
  "_format": "hh-sol-artifact-1",
  "contractName": "InflationRootHashProposal",
  "sourceName": "contracts/governance/monetary/InflationRootHashProposal.sol",
  "abi": [
    {
      "inputs": [
        {
          "internalType": "contract Policy",
          "name": "_policy",
          "type": "address"
        },
        {
          "internalType": "contract IECO",
          "name": "_ecoAddr",
          "type": "address"
        }
      ],
      "stateMutability": "nonpayable",
      "type": "constructor"
    },
    {
      "anonymous": false,
      "inputs": [
        {
          "indexed": true,
          "internalType": "address",
          "name": "proposer",
          "type": "address"
        },
        {
          "indexed": false,
          "internalType": "address",
          "name": "challenger",
          "type": "address"
        },
        {
          "indexed": false,
          "internalType": "address",
          "name": "missingAccount",
          "type": "address"
        },
        {
          "indexed": true,
          "internalType": "uint256",
          "name": "index",
          "type": "uint256"
        }
      ],
      "name": "ChallengeMissingAccountSuccess",
      "type": "event"
    },
    {
      "anonymous": false,
      "inputs": [
        {
          "indexed": true,
          "internalType": "address",
          "name": "proposer",
          "type": "address"
        },
        {
          "indexed": false,
          "internalType": "address",
          "name": "challenger",
          "type": "address"
        },
        {
          "indexed": false,
          "internalType": "address",
          "name": "account",
          "type": "address"
        },
        {
          "indexed": false,
          "internalType": "uint256",
          "name": "balance",
          "type": "uint256"
        },
        {
          "indexed": false,
          "internalType": "uint256",
          "name": "sum",
          "type": "uint256"
        },
        {
          "indexed": true,
          "internalType": "uint256",
          "name": "index",
          "type": "uint256"
        }
      ],
      "name": "ChallengeSuccessResponse",
      "type": "event"
    },
    {
      "anonymous": false,
      "inputs": [
        {
          "indexed": false,
          "internalType": "uint256",
          "name": "_blockNumber",
          "type": "uint256"
        }
      ],
      "name": "ConfigureBlock",
      "type": "event"
    },
    {
      "anonymous": false,
      "inputs": [
        {
          "indexed": true,
          "internalType": "address",
          "name": "proposer",
          "type": "address"
        },
        {
          "indexed": false,
          "internalType": "uint256",
          "name": "totalSum",
          "type": "uint256"
        },
        {
          "indexed": false,
          "internalType": "uint256",
          "name": "amountOfAccounts",
          "type": "uint256"
        }
      ],
      "name": "RootHashAcceptance",
      "type": "event"
    },
    {
      "anonymous": false,
      "inputs": [
        {
          "indexed": true,
          "internalType": "address",
          "name": "proposer",
          "type": "address"
        },
        {
          "indexed": false,
          "internalType": "address",
          "name": "challenger",
          "type": "address"
        },
        {
          "indexed": true,
          "internalType": "uint256",
          "name": "index",
          "type": "uint256"
        }
      ],
      "name": "RootHashChallengeIndexRequest",
      "type": "event"
    },
    {
      "anonymous": false,
      "inputs": [
        {
          "indexed": true,
          "internalType": "address",
          "name": "proposer",
          "type": "address"
        },
        {
          "indexed": true,
          "internalType": "bytes32",
          "name": "proposedRootHash",
          "type": "bytes32"
        },
        {
          "indexed": false,
          "internalType": "uint256",
          "name": "totalSum",
          "type": "uint256"
        },
        {
          "indexed": false,
          "internalType": "uint256",
          "name": "amountOfAccounts",
          "type": "uint256"
        }
      ],
      "name": "RootHashPost",
      "type": "event"
    },
    {
      "anonymous": false,
      "inputs": [
        {
          "indexed": true,
          "internalType": "address",
          "name": "proposer",
          "type": "address"
        }
      ],
      "name": "RootHashRejection",
      "type": "event"
    },
    {
      "inputs": [],
      "name": "CHALLENGE_FEE",
      "outputs": [
        {
          "internalType": "uint256",
          "name": "",
          "type": "uint256"
        }
      ],
      "stateMutability": "view",
      "type": "function"
    },
    {
      "inputs": [],
      "name": "CHALLENGING_TIME",
      "outputs": [
        {
          "internalType": "uint256",
          "name": "",
          "type": "uint256"
        }
      ],
      "stateMutability": "view",
      "type": "function"
    },
    {
      "inputs": [],
      "name": "CONTESTING_TIME",
      "outputs": [
        {
          "internalType": "uint256",
          "name": "",
          "type": "uint256"
        }
      ],
      "stateMutability": "view",
      "type": "function"
    },
    {
      "inputs": [],
      "name": "FEE_COLLECTION_TIME",
      "outputs": [
        {
          "internalType": "uint256",
          "name": "",
          "type": "uint256"
        }
      ],
      "stateMutability": "view",
      "type": "function"
    },
    {
      "inputs": [],
      "name": "GENERATION_START",
      "outputs": [
        {
          "internalType": "uint256",
          "name": "",
          "type": "uint256"
        }
      ],
      "stateMutability": "view",
      "type": "function"
    },
    {
      "inputs": [],
      "name": "MIN_GENERATION_DURATION",
      "outputs": [
        {
          "internalType": "uint256",
          "name": "",
          "type": "uint256"
        }
      ],
      "stateMutability": "view",
      "type": "function"
    },
    {
      "inputs": [],
      "name": "PROPOSER_FEE",
      "outputs": [
        {
          "internalType": "uint256",
          "name": "",
          "type": "uint256"
        }
      ],
      "stateMutability": "view",
      "type": "function"
    },
    {
      "inputs": [],
      "name": "acceptedAmountOfAccounts",
      "outputs": [
        {
          "internalType": "uint256",
          "name": "",
          "type": "uint256"
        }
      ],
      "stateMutability": "view",
      "type": "function"
    },
    {
      "inputs": [],
      "name": "acceptedRootHash",
      "outputs": [
        {
          "internalType": "bytes32",
          "name": "",
          "type": "bytes32"
        }
      ],
      "stateMutability": "view",
      "type": "function"
    },
    {
      "inputs": [],
      "name": "acceptedTotalSum",
      "outputs": [
        {
          "internalType": "uint256",
          "name": "",
          "type": "uint256"
        }
      ],
      "stateMutability": "view",
      "type": "function"
    },
    {
      "inputs": [],
      "name": "blockNumber",
      "outputs": [
        {
          "internalType": "uint256",
          "name": "",
          "type": "uint256"
        }
      ],
      "stateMutability": "view",
      "type": "function"
    },
    {
      "inputs": [
        {
          "internalType": "bytes32",
          "name": "",
          "type": "bytes32"
        },
        {
          "internalType": "address",
          "name": "_addr",
          "type": "address"
        }
      ],
      "name": "canImplementInterfaceForAddress",
      "outputs": [
        {
          "internalType": "bytes32",
          "name": "",
          "type": "bytes32"
        }
      ],
      "stateMutability": "view",
      "type": "function"
    },
    {
      "inputs": [
        {
          "internalType": "address",
          "name": "_proposer",
          "type": "address"
        },
        {
          "internalType": "uint256",
          "name": "_index",
          "type": "uint256"
        }
      ],
      "name": "challengeRootHashRequestAccount",
      "outputs": [],
      "stateMutability": "nonpayable",
      "type": "function"
    },
    {
      "inputs": [
        {
          "internalType": "address",
          "name": "_proposer",
          "type": "address"
        }
      ],
      "name": "checkRootHashStatus",
      "outputs": [],
      "stateMutability": "nonpayable",
      "type": "function"
    },
    {
      "inputs": [
        {
          "internalType": "address",
          "name": "_proposer",
          "type": "address"
        }
      ],
      "name": "claimFee",
      "outputs": [],
      "stateMutability": "nonpayable",
      "type": "function"
    },
    {
      "inputs": [
        {
          "internalType": "address",
          "name": "_who",
          "type": "address"
        },
        {
          "internalType": "address",
          "name": "_proposer",
          "type": "address"
        }
      ],
      "name": "claimFeeFor",
      "outputs": [],
      "stateMutability": "nonpayable",
      "type": "function"
    },
    {
      "inputs": [
        {
          "internalType": "address",
          "name": "_proposer",
          "type": "address"
        },
        {
          "internalType": "uint256",
          "name": "_index",
          "type": "uint256"
        },
        {
          "internalType": "address",
          "name": "_account",
          "type": "address"
        }
      ],
      "name": "claimMissingAccount",
      "outputs": [],
      "stateMutability": "nonpayable",
      "type": "function"
    },
    {
      "inputs": [],
      "name": "clone",
      "outputs": [
        {
          "internalType": "address",
          "name": "",
          "type": "address"
        }
      ],
      "stateMutability": "nonpayable",
      "type": "function"
    },
    {
      "inputs": [
        {
          "internalType": "uint256",
          "name": "_blockNumber",
          "type": "uint256"
        }
      ],
      "name": "configure",
      "outputs": [],
      "stateMutability": "nonpayable",
      "type": "function"
    },
    {
      "inputs": [],
      "name": "destruct",
      "outputs": [],
      "stateMutability": "nonpayable",
      "type": "function"
    },
    {
      "inputs": [],
      "name": "ecoToken",
      "outputs": [
        {
          "internalType": "contract IECO",
          "name": "",
          "type": "address"
        }
      ],
      "stateMutability": "view",
      "type": "function"
    },
    {
      "inputs": [],
      "name": "feeCollectionEnds",
      "outputs": [
        {
          "internalType": "uint256",
          "name": "",
          "type": "uint256"
        }
      ],
      "stateMutability": "view",
      "type": "function"
    },
    {
      "inputs": [],
      "name": "implementation",
      "outputs": [
        {
          "internalType": "address",
          "name": "_impl",
          "type": "address"
        }
      ],
      "stateMutability": "view",
      "type": "function"
    },
    {
      "inputs": [
        {
          "internalType": "address",
          "name": "_self",
          "type": "address"
        }
      ],
      "name": "initialize",
      "outputs": [],
      "stateMutability": "nonpayable",
      "type": "function"
    },
    {
      "inputs": [],
      "name": "policy",
      "outputs": [
        {
          "internalType": "contract Policy",
          "name": "",
          "type": "address"
        }
      ],
      "stateMutability": "view",
      "type": "function"
    },
    {
      "inputs": [
        {
          "internalType": "address",
          "name": "_delegate",
          "type": "address"
        },
        {
          "internalType": "bytes",
          "name": "_data",
          "type": "bytes"
        }
      ],
      "name": "policyCommand",
      "outputs": [],
      "stateMutability": "nonpayable",
      "type": "function"
    },
    {
      "inputs": [
        {
          "internalType": "bytes32",
          "name": "_proposedRootHash",
          "type": "bytes32"
        },
        {
          "internalType": "uint256",
          "name": "_totalSum",
          "type": "uint256"
        },
        {
          "internalType": "uint256",
          "name": "_amountOfAccounts",
          "type": "uint256"
        }
      ],
      "name": "proposeRootHash",
      "outputs": [],
      "stateMutability": "nonpayable",
      "type": "function"
    },
    {
      "inputs": [
        {
          "internalType": "address",
          "name": "_challenger",
          "type": "address"
        },
        {
          "internalType": "bytes32[]",
          "name": "_proof",
          "type": "bytes32[]"
        },
        {
          "internalType": "address",
          "name": "_account",
          "type": "address"
        },
        {
          "internalType": "uint256",
          "name": "_claimedBalance",
          "type": "uint256"
        },
        {
          "internalType": "uint256",
          "name": "_sum",
          "type": "uint256"
        },
        {
          "internalType": "uint256",
          "name": "_index",
          "type": "uint256"
        }
      ],
      "name": "respondToChallenge",
      "outputs": [],
      "stateMutability": "nonpayable",
      "type": "function"
    },
    {
      "inputs": [
        {
          "internalType": "address",
          "name": "",
          "type": "address"
        }
      ],
      "name": "rootHashProposals",
      "outputs": [
        {
          "internalType": "bool",
          "name": "initialized",
          "type": "bool"
        },
        {
          "internalType": "bytes32",
          "name": "rootHash",
          "type": "bytes32"
        },
        {
          "internalType": "uint256",
          "name": "totalSum",
          "type": "uint256"
        },
        {
          "internalType": "uint256",
          "name": "amountOfAccounts",
          "type": "uint256"
        },
        {
          "internalType": "uint256",
          "name": "lastLiveChallenge",
          "type": "uint256"
        },
        {
          "internalType": "uint256",
          "name": "amountPendingChallenges",
          "type": "uint256"
        },
        {
          "internalType": "uint256",
          "name": "totalChallenges",
          "type": "uint256"
        },
        {
          "internalType": "uint256",
          "name": "stakedAmount",
          "type": "uint256"
        },
        {
          "internalType": "uint256",
          "name": "newChallengerSubmissionEnds",
          "type": "uint256"
        },
        {
          "internalType": "enum InflationRootHashProposal.RootHashStatus",
          "name": "status",
          "type": "uint8"
        }
      ],
      "stateMutability": "view",
      "type": "function"
    },
    {
      "inputs": [
        {
          "internalType": "address",
          "name": "_addr",
          "type": "address"
        }
      ],
      "name": "setExpectedInterfaceSet",
      "outputs": [],
      "stateMutability": "nonpayable",
      "type": "function"
    },
    {
      "inputs": [
        {
          "internalType": "address",
          "name": "_who",
          "type": "address"
        },
        {
          "internalType": "bytes32[]",
          "name": "_proof",
          "type": "bytes32[]"
        },
        {
          "internalType": "uint256",
          "name": "_sum",
          "type": "uint256"
        },
        {
          "internalType": "uint256",
          "name": "_index",
          "type": "uint256"
        }
      ],
      "name": "verifyClaimSubmission",
      "outputs": [
        {
          "internalType": "bool",
          "name": "",
          "type": "bool"
        }
      ],
      "stateMutability": "view",
      "type": "function"
    }
  ],
  "bytecode": "0x60c06040523480156200001157600080fd5b50604051620045683803806200456883398101604081905262000034916200026b565b81806200004130620001c4565b6001600160a01b038116620000c35760405162461bcd60e51b815260206004820152603860248201527f556e7265636f76657261626c653a20646f206e6f74207365742074686520706f60448201527f6c69637920617320746865207a65726f2061646472657373000000000000000060648201526084015b60405180910390fd5b6001600160a01b0381166080819052604051635df8122f60e01b81523060048201526024810191909152731820a4b7618bde71dce8cdc73aab6c95905fad2490635df8122f90604401600060405180830381600087803b1580156200012757600080fd5b505af11580156200013c573d6000803e3d6000fd5b50505050506001600160a01b03821615159050620001b15760405162461bcd60e51b815260206004820152602b60248201527f646f206e6f742073657420746865205f65636f4164647220617320746865207a60448201526a65726f206164647265737360a81b6064820152608401620000ba565b6001600160a01b031660a05250620002aa565b6001600160a01b038116620001e6600080516020620045488339815191525490565b6001600160a01b031614156200023f5760405162461bcd60e51b815260206004820152601f60248201527f496d706c656d656e746174696f6e20616c7265616479206d61746368696e67006044820152606401620000ba565b6000805160206200454883398151915255565b6001600160a01b03811681146200026857600080fd5b50565b600080604083850312156200027f57600080fd5b82516200028c8162000252565b60208401519092506200029f8162000252565b809150509250929050565b60805160a05161422462000324600039600081816103c70152818161088601528181611a9901528181611e69015281816124790152818161289801528181612ae201526135700152600081816101ef01528181610ff6015281816118a401528181611ad701528181611c750152612d3701526142246000f3fe608060405234801561001057600080fd5b50600436106101e55760003560e01c80635c60da1b1161010f57806386dfdded116100a2578063a61b758e11610071578063a61b758e1461046e578063a8c95a0414610477578063be85b77314610480578063c4d66de81461049057600080fd5b806386dfdded1461044457806387193cc61461044c5780638cb17056146104545780639ba038d41461045d57600080fd5b8063720cb0cb116100de578063720cb0cb146103f257806377c02f1b14610405578063780cc9f5146104285780637c8f34ac1461043b57600080fd5b80635c60da1b146103885780636ebc51e1146103af578063705d5304146103c2578063706cfb39146103e957600080fd5b8063249cb3fa11610187578063472457e311610156578063472457e3146102e9578063523ce9ec146102fc578063537299371461037657806357e871e71461037f57600080fd5b8063249cb3fa146102a45780632b68b9c6146102c557806334ea5797146102cd57806339634e0c146102d657600080fd5b806309ed4607116101c357806309ed4607146102635780630f767e501461026b57806312a3420e1461027e5780631eb25e0a1461029157600080fd5b80630505c8c9146101ea57806306bb1c0c1461023b57806309d7f23b14610250575b600080fd5b6102117f000000000000000000000000000000000000000000000000000000000000000081565b60405173ffffffffffffffffffffffffffffffffffffffff90911681526020015b60405180910390f35b61024e610249366004613b32565b6104a3565b005b61024e61025e366004613be4565b610fde565b6102116110cd565b61024e610279366004613cc6565b61122e565b61024e61028c366004613cf2565b6114c1565b61024e61029f366004613d1e565b6117d5565b6102b76102b2366004613d37565b6118a0565b604051908152602001610232565b61024e6119cb565b6102b760055481565b61024e6102e4366004613d67565b611c5d565b61024e6102f7366004613d8b565b611d69565b61036061030a366004613d67565b6004602081905260009182526040909120805460018201546002830154600384015494840154600585015460068601546007870154600888015460099098015460ff97881699969895979495939492939192168a565b6040516102329a99989796959493929190613dfc565b6102b76103e881565b6102b760065481565b7ff86c915dad5894faca0dfa067c58fdf4307406d255ed0a65db394f82b77f53d454610211565b61024e6103bd366004613d67565b6122e0565b6102117f000000000000000000000000000000000000000000000000000000000000000081565b6102b760035481565b61024e610400366004613d67565b6122ed565b610418610413366004613e88565b612394565b6040519015158152602001610232565b61024e610436366004613eef565b6125a4565b6102b761546081565b6102b7607881565b6102b7601e81565b6102b761069081565b6102b769043c33c193756480000081565b6102b760025481565b6102b760015481565b6102b7681b1ae4d6e2ef50000081565b61024e61049e366004613d67565b612c1e565b60015415610538576040517f08c379a000000000000000000000000000000000000000000000000000000000815260206004820152602f60248201527f54686520726f6f7420686173682061636365707465642c206e6f206d6f72652060448201527f616374696f6e7320616c6c6f776564000000000000000000000000000000000060648201526084015b60405180910390fd5b600083116105c8576040517f08c379a000000000000000000000000000000000000000000000000000000000815260206004820152603560248201527f4163636f756e74732077697468207a65726f2062616c616e6365206e6f74206160448201527f6c6c6f77656420696e204d65726b6c6520747265650000000000000000000000606482015260840161052f565b73ffffffffffffffffffffffffffffffffffffffff841661066b576040517f08c379a000000000000000000000000000000000000000000000000000000000815260206004820152602b60248201527f546865207a65726f2061646472657373206e6f7420616c6c6f77656420696e2060448201527f4d65726b6c652074726565000000000000000000000000000000000000000000606482015260840161052f565b33600090815260046020908152604080832073ffffffffffffffffffffffffffffffffffffffff8b168452600a810190925290912060018101544210610733576040517f08c379a000000000000000000000000000000000000000000000000000000000815260206004820152602b60248201527f54696d656672616d6520746f20726573706f6e6420746f2061206368616c6c6560448201527f6e6765206973206f766572000000000000000000000000000000000000000000606482015260840161052f565b6001600084815260038301602052604090205460ff16600281111561075a5761075a613dcd565b146107e7576040517f08c379a000000000000000000000000000000000000000000000000000000000815260206004820152602c60248201527f5468657265206973206e6f2070656e64696e67206368616c6c656e676520666f60448201527f72207468697320696e6465780000000000000000000000000000000000000000606482015260840161052f565b6000838152600b830160205260409081902080547fffffffffffffffffffffffff00000000000000000000000000000000000000001673ffffffffffffffffffffffffffffffffffffffff8981169182178355600183018990556002830188905560065493517f3a46b1a800000000000000000000000000000000000000000000000000000000815260048101929092526024820193909352909187917f000000000000000000000000000000000000000000000000000000000000000090911690633a46b1a89060440160206040518083038186803b1580156108ca57600080fd5b505afa1580156108de573d6000803e3d6000fd5b505050506040513d601f19601f820116820180604052508101906109029190613f1d565b1461098f576040517f08c379a000000000000000000000000000000000000000000000000000000000815260206004820152602f60248201527f4368616c6c656e676520726573706f6e7365206661696c6564206163636f756e60448201527f742062616c616e636520636865636b0000000000000000000000000000000000606482015260840161052f565b610a3289898080602002602001604051908101604052809392919081815260200183836020028082843760009201919091525050505060018501546040517fffffffffffffffffffffffffffffffffffffffff00000000000000000000000060608c901b166020820152603481018a9052605481018990526074810188905260940160405160208183030381529060405280519060200120878760030154612da9565b610abe576040517f08c379a000000000000000000000000000000000000000000000000000000000815260206004820152603860248201527f4368616c6c656e676520726573706f6e7365206661696c6564206d65726b6c6560448201527f207472656520766572696669636174696f6e20636865636b0000000000000000606482015260840161052f565b83610b56578415610b51576040517f08c379a000000000000000000000000000000000000000000000000000000000815260206004820152602560248201527f63756d756c61746976652073756d20646f6573206e6f7420737461727473206660448201527f726f6d2030000000000000000000000000000000000000000000000000000000606482015260840161052f565b610cd1565b6000600b840181610b68600188613f65565b815260200190815260200160002090508060010154600014610ccf578581600101548260020154610b999190613f7c565b14610c26576040517f08c379a000000000000000000000000000000000000000000000000000000000815260206004820152602560248201527f4c656674206e65696768626f722073756d20766572696669636174696f6e206660448201527f61696c6564000000000000000000000000000000000000000000000000000000606482015260840161052f565b805473ffffffffffffffffffffffffffffffffffffffff808a16911610610ccf576040517f08c379a000000000000000000000000000000000000000000000000000000000815260206004820152602760248201527f4c656674206e65696768626f72206f7264657220766572696669636174696f6e60448201527f206661696c656400000000000000000000000000000000000000000000000000606482015260840161052f565b505b60018360030154610ce29190613f65565b841415610d8a57610cf38686613f7c565b836002015414610d85576040517f08c379a000000000000000000000000000000000000000000000000000000000815260206004820152602760248201527f63756d756c61746976652073756d20646f6573206e6f74206d6174636820746f60448201527f74616c2073756d00000000000000000000000000000000000000000000000000606482015260840161052f565b610f00565b6000600b840181610d9c876001613f7c565b815260200190815260200160002090508060010154600014610efe576002810154610dc78888613f7c565b14610e54576040517f08c379a000000000000000000000000000000000000000000000000000000000815260206004820152602660248201527f5269676874206e65696768626f722073756d20766572696669636174696f6e2060448201527f6661696c65640000000000000000000000000000000000000000000000000000606482015260840161052f565b805473ffffffffffffffffffffffffffffffffffffffff90811690891610610efe576040517f08c379a000000000000000000000000000000000000000000000000000000000815260206004820152602860248201527f5269676874206e65696768626f72206f7264657220766572696669636174696f60448201527f6e206661696c6564000000000000000000000000000000000000000000000000606482015260840161052f565b505b6040805173ffffffffffffffffffffffffffffffffffffffff8c811682528916602082015290810187905260608101869052849033907f3f7df1c0ced26d5b16538321acca7dfd61b15b55cbbdeb0c0ca5fd3e552413829060800160405180910390a36000848152600383016020526040812080547fffffffffffffffffffffffffffffffffffffffffffffffffffffffffffffff0016600217905560058401805460019290610fb1908490613f65565b92505081905550601e826001016000828254610fcd9190613f7c565b909155505050505050505050505050565b3373ffffffffffffffffffffffffffffffffffffffff7f000000000000000000000000000000000000000000000000000000000000000016146110a3576040517f08c379a000000000000000000000000000000000000000000000000000000000815260206004820152602d60248201527f4f6e6c792074686520706f6c69637920636f6e7472616374206d61792063616c60448201527f6c2074686973206d6574686f6400000000000000000000000000000000000000606482015260840161052f565b600080825160208401855af43d806000803e8180156110c157816000f35b816000fd5b5050505050565b6000306110f87ff86c915dad5894faca0dfa067c58fdf4307406d255ed0a65db394f82b77f53d45490565b73ffffffffffffffffffffffffffffffffffffffff161461119b576040517f08c379a000000000000000000000000000000000000000000000000000000000815260206004820152602660248201527f54686973206d6574686f642063616e6e6f742062652063616c6c6564206f6e2060448201527f636c6f6e65730000000000000000000000000000000000000000000000000000606482015260840161052f565b60006111a630612f48565b6040517fc4d66de800000000000000000000000000000000000000000000000000000000815230600482015290915073ffffffffffffffffffffffffffffffffffffffff82169063c4d66de890602401600060405180830381600087803b15801561121057600080fd5b505af1158015611224573d6000803e3d6000fd5b5092949350505050565b600154156112be576040517f08c379a000000000000000000000000000000000000000000000000000000000815260206004820152602f60248201527f54686520726f6f7420686173682061636365707465642c206e6f206d6f72652060448201527f616374696f6e7320616c6c6f7765640000000000000000000000000000000000606482015260840161052f565b6112c9823383612fb1565b73ffffffffffffffffffffffffffffffffffffffff82166000908152600460209081526040808320338452600a8101909252909120805460ff1661138a5780547fffffffffffffffffffffffffffffffffffffffffffffffffffffffffffffff0016600117815560786113394290565b6113439190613f7c565b6001828101919091556000848152600383016020526040902080547fffffffffffffffffffffffffffffffffffffffffffffffffffffffffffffff00169091179055611450565b600083815260038201602052604081205460ff1660028111156113af576113af613dcd565b14611416576040517f08c379a000000000000000000000000000000000000000000000000000000000815260206004820152601860248201527f496e64657820616c7265616479206368616c6c656e6765640000000000000000604482015260640161052f565b6000838152600382016020526040902080547fffffffffffffffffffffffffffffffffffffffffffffffffffffffffffffff001660011790555b604051338152839073ffffffffffffffffffffffffffffffffffffffff8616907f0a1a8468903cae9931dcd5d799965a45e7d008583a0de88717b6f132e25b18499060200160405180910390a36114a78433613454565b6114bb3385681b1ae4d6e2ef50000061351e565b50505050565b60015415611551576040517f08c379a000000000000000000000000000000000000000000000000000000000815260206004820152602f60248201527f54686520726f6f7420686173682061636365707465642c206e6f206d6f72652060448201527f616374696f6e7320616c6c6f7765640000000000000000000000000000000000606482015260840161052f565b826115b8576040517f08c379a000000000000000000000000000000000000000000000000000000000815260206004820152601860248201527f526f6f7420686173682063616e6e6f74206265207a65726f0000000000000000604482015260640161052f565b60008211611622576040517f08c379a000000000000000000000000000000000000000000000000000000000815260206004820152601860248201527f546f74616c2073756d2063616e6e6f74206265207a65726f0000000000000000604482015260640161052f565b600081116116b2576040517f08c379a000000000000000000000000000000000000000000000000000000000815260206004820152602760248201527f48617368206d75737420636f6e73697374206f66206174206c6561737420312060448201527f6163636f756e7400000000000000000000000000000000000000000000000000606482015260840161052f565b336000908152600460205260409020805460ff161561172d576040517f08c379a000000000000000000000000000000000000000000000000000000000815260206004820152601a60248201527f526f6f74206861736820616c72656164792070726f706f736564000000000000604482015260640161052f565b80547fffffffffffffffffffffffffffffffffffffffffffffffffffffffffffffff0016600190811782558101849055600281018390556003810182905560786117744290565b61177e9190613f7c565b60088201556040805184815260208101849052859133917f6620bdb89cea8a511b55ab81150a1779dfa0cb367348c78ec28994d9acaf4f8b910160405180910390a36114bb333369043c33c193756480000061351e565b60065415611865576040517f08c379a000000000000000000000000000000000000000000000000000000000815260206004820152602960248201527f5468697320696e7374616e63652068617320616c7265616479206265656e206360448201527f6f6e666967757265640000000000000000000000000000000000000000000000606482015260840161052f565b60068190556040518181527f3d9af45a2fa472d02ac915a5ba7754b1afe4e7132d7f039eeae91c85d4bf84b59060200160405180910390a150565b60007f000000000000000000000000000000000000000000000000000000000000000073ffffffffffffffffffffffffffffffffffffffff168273ffffffffffffffffffffffffffffffffffffffff161480611916575060005473ffffffffffffffffffffffffffffffffffffffff8381169116145b6119a2576040517f08c379a000000000000000000000000000000000000000000000000000000000815260206004820152603b60248201527f4f6e6c792074686520706f6c696379206f7220696e7465726661636520636f6e60448201527f74726163742063616e207365742074686520696e746572666163650000000000606482015260840161052f565b507fa2ef4600d742022d532d4747cb3547474667d6f13804902513b2ec01c848f4b45b92915050565b600554158015906119dd575060055442115b611a6b57604080517f08c379a00000000000000000000000000000000000000000000000000000000081526020600482015260248101919091527f636f6e7472616374206d6967687420626520646573747275637465642061667460448201527f65722066656520636f6c6c656374696f6e20706572696f64206973206f766572606482015260840161052f565b6040517f70a082310000000000000000000000000000000000000000000000000000000081523060048201527f000000000000000000000000000000000000000000000000000000000000000073ffffffffffffffffffffffffffffffffffffffff169063a9059cbb907f00000000000000000000000000000000000000000000000000000000000000009083906370a082319060240160206040518083038186803b158015611b1a57600080fd5b505afa158015611b2e573d6000803e3d6000fd5b505050506040513d601f19601f82011682018060405250810190611b529190613f1d565b6040517fffffffff0000000000000000000000000000000000000000000000000000000060e085901b16815273ffffffffffffffffffffffffffffffffffffffff90921660048301526024820152604401602060405180830381600087803b158015611bbd57600080fd5b505af1158015611bd1573d6000803e3d6000fd5b505050506040513d601f19601f82011682018060405250810190611bf59190613f94565b611c5b576040517f08c379a000000000000000000000000000000000000000000000000000000000815260206004820152600f60248201527f5472616e73666572204661696c65640000000000000000000000000000000000604482015260640161052f565b565b3373ffffffffffffffffffffffffffffffffffffffff7f00000000000000000000000000000000000000000000000000000000000000001614611d22576040517f08c379a000000000000000000000000000000000000000000000000000000000815260206004820152602d60248201527f4f6e6c792074686520706f6c69637920636f6e7472616374206d61792063616c60448201527f6c2074686973206d6574686f6400000000000000000000000000000000000000606482015260840161052f565b600080547fffffffffffffffffffffffff00000000000000000000000000000000000000001673ffffffffffffffffffffffffffffffffffffffff92909216919091179055565b60015415611df9576040517f08c379a000000000000000000000000000000000000000000000000000000000815260206004820152602f60248201527f54686520726f6f7420686173682061636365707465642c206e6f206d6f72652060448201527f616374696f6e7320616c6c6f7765640000000000000000000000000000000000606482015260840161052f565b611e04833384612fb1565b73ffffffffffffffffffffffffffffffffffffffff8084166000908152600460208181526040808420338552600a810190925280842060065491517f3a46b1a800000000000000000000000000000000000000000000000000000000815292959094937f000000000000000000000000000000000000000000000000000000000000000090911692633a46b1a892611ebf9289920173ffffffffffffffffffffffffffffffffffffffff929092168252602082015260400190565b60206040518083038186803b158015611ed757600080fd5b505afa158015611eeb573d6000803e3d6000fd5b505050506040513d601f19601f82011682018060405250810190611f0f9190613f1d565b11611f76576040517f08c379a000000000000000000000000000000000000000000000000000000000815260206004820152601e60248201527f4d697373696e67206163636f756e7420646f6573206e6f742065786973740000604482015260640161052f565b805460ff16611fe1576040517f08c379a000000000000000000000000000000000000000000000000000000000815260206004820152601a60248201527f5375626d697420496e6465782052657175657374206669727374000000000000604482015260640161052f565b831561213c576002600382016000611ffa600188613f65565b815260208101919091526040016000205460ff16600281111561201f5761201f613dcd565b14612086576040517f08c379a000000000000000000000000000000000000000000000000000000000815260206004820152601b60248201527f4c656674205f696e646578206973206e6f74207265736f6c7665640000000000604482015260640161052f565b73ffffffffffffffffffffffffffffffffffffffff8316600b830160006120ae600188613f65565b815260208101919091526040016000205473ffffffffffffffffffffffffffffffffffffffff161061213c576040517f08c379a000000000000000000000000000000000000000000000000000000000815260206004820152601c60248201527f4d697373696e67206163636f756e7420636c61696d206661696c656400000000604482015260640161052f565b81600301548414612268576002600085815260038301602052604090205460ff16600281111561216e5761216e613dcd565b146121d5576040517f08c379a000000000000000000000000000000000000000000000000000000000815260206004820152601c60248201527f5269676874205f696e646578206973206e6f74207265736f6c76656400000000604482015260640161052f565b6000848152600b8301602052604090205473ffffffffffffffffffffffffffffffffffffffff90811690841610612268576040517f08c379a000000000000000000000000000000000000000000000000000000000815260206004820152601c60248201527f4d697373696e67206163636f756e7420636c61696d206661696c656400000000604482015260640161052f565b600181600201600082825461227d9190613f7c565b90915550506040805133815273ffffffffffffffffffffffffffffffffffffffff85811660208301528692908816917f801f1b04125440f1b5ed246c42241d26a5041a231feca2fcbc1846a33188fa4e910160405180910390a36110c685613694565b6122ea33826125a4565b50565b73ffffffffffffffffffffffffffffffffffffffff811660009081526004602052604090206001541580156123255750600881015442115b80156123345750600481015442115b156123595760058101546123505761234b8261370e565b612359565b61235982613694565b6001541580159061238257506000600982015460ff16600281111561238057612380613dcd565b145b156123905761239082613694565b5050565b600154600090612426576040517f08c379a000000000000000000000000000000000000000000000000000000000815260206004820152602860248201527f43616e277420636c61696d206265666f726520726f6f7420686173682065737460448201527f61626c6973686564000000000000000000000000000000000000000000000000606482015260840161052f565b6006546040517f3a46b1a800000000000000000000000000000000000000000000000000000000815273ffffffffffffffffffffffffffffffffffffffff888116600483015260248201929092526000917f00000000000000000000000000000000000000000000000000000000000000001690633a46b1a89060440160206040518083038186803b1580156124bb57600080fd5b505afa1580156124cf573d6000803e3d6000fd5b505050506040513d601f19601f820116820180604052508101906124f39190613f1d565b9050612597868680806020026020016040519081016040528093929190818152602001838360200280828437600092019190915250506001546040517fffffffffffffffffffffffffffffffffffffffff00000000000000000000000060608e901b16602082015260348101879052605481018a90526074810189905290925060940190506040516020818303038152906040528051906020012086600354612da9565b9150505b95945050505050565b73ffffffffffffffffffffffffffffffffffffffff80821660009081526004602090815260408083209386168352600a8401909152812090600983015460ff1660028111156125f5576125f5613dcd565b1415612683576040517f08c379a000000000000000000000000000000000000000000000000000000000815260206004820152602e60248201527f43616e277420636c61696d205f666565206f6e2070656e64696e6720726f6f7460448201527f20686173682070726f706f73616c000000000000000000000000000000000000606482015260840161052f565b73ffffffffffffffffffffffffffffffffffffffff84166000908152600c8301602052604090205460ff1615612715576040517f08c379a000000000000000000000000000000000000000000000000000000000815260206004820152601360248201527f66656520616c726561647920636c61696d656400000000000000000000000000604482015260640161052f565b8273ffffffffffffffffffffffffffffffffffffffff168473ffffffffffffffffffffffffffffffffffffffff161415612981576002600983015460ff16600281111561276457612764613dcd565b14806127ba57506001600983015460ff16600281111561278657612786613dcd565b14801561279857506001548260010154145b80156127a957506002548260020154145b80156127ba57506003548260030154145b612846576040517f08c379a000000000000000000000000000000000000000000000000000000000815260206004820152602d60248201527f70726f706f7365722063616e277420636c61696d20666565206f6e206e6f742060448201527f6163636570746564206861736800000000000000000000000000000000000000606482015260840161052f565b60078201546040517fa9059cbb00000000000000000000000000000000000000000000000000000000815273ffffffffffffffffffffffffffffffffffffffff868116600483015260248201929092527f00000000000000000000000000000000000000000000000000000000000000009091169063a9059cbb90604401602060405180830381600087803b1580156128de57600080fd5b505af11580156128f2573d6000803e3d6000fd5b505050506040513d601f19601f820116820180604052508101906129169190613f94565b61297c576040517f08c379a000000000000000000000000000000000000000000000000000000000815260206004820152600f60248201527f5472616e73666572204661696c65640000000000000000000000000000000000604482015260640161052f565b612bc8565b805460ff1680156129aa57506001600983015460ff1660028111156129a8576129a8613dcd565b145b612a36576040517f08c379a000000000000000000000000000000000000000000000000000000000815260206004820152603260248201527f6368616c6c656e676572206d617920636c61696d20666565206f6e2072656a6560448201527f637465642070726f706f73616c206f6e6c790000000000000000000000000000606482015260840161052f565b6000681b1ae4d6e2ef5000008260020154612a519190613fb6565b6006840154336000908152600a8601602052604090206002015460078601549293509091612a7f9190613fb6565b612a899190613ff3565b612a939082613f7c565b6040517fa9059cbb00000000000000000000000000000000000000000000000000000000815273ffffffffffffffffffffffffffffffffffffffff8781166004830152602482018390529192507f00000000000000000000000000000000000000000000000000000000000000009091169063a9059cbb90604401602060405180830381600087803b158015612b2857600080fd5b505af1158015612b3c573d6000803e3d6000fd5b505050506040513d601f19601f82011682018060405250810190612b609190613f94565b612bc6576040517f08c379a000000000000000000000000000000000000000000000000000000000815260206004820152600f60248201527f5472616e73666572204661696c65640000000000000000000000000000000000604482015260640161052f565b505b5073ffffffffffffffffffffffffffffffffffffffff9092166000908152600c909201602052506040902080547fffffffffffffffffffffffffffffffffffffffffffffffffffffffffffffff00166001179055565b6000612c487ff86c915dad5894faca0dfa067c58fdf4307406d255ed0a65db394f82b77f53d45490565b73ffffffffffffffffffffffffffffffffffffffff1614612ceb576040517f08c379a000000000000000000000000000000000000000000000000000000000815260206004820152602860248201527f43616e206f6e6c792062652063616c6c656420647572696e6720696e6974696160448201527f6c697a6174696f6e000000000000000000000000000000000000000000000000606482015260840161052f565b612cf4816137ed565b6040517f5df8122f00000000000000000000000000000000000000000000000000000000815230600482015273ffffffffffffffffffffffffffffffffffffffff7f0000000000000000000000000000000000000000000000000000000000000000166024820152731820a4b7618bde71dce8cdc73aab6c95905fad2490635df8122f90604401600060405180830381600087803b158015612d9557600080fd5b505af11580156110c6573d6000803e3d6000fd5b60008160018751612dba9190613f65565b6001901b101580612dcf57508186516001901b105b15612ddc5750600061259b565b8360005b8751811015612e87576000888281518110612dfd57612dfd61402e565b602002602001015190508186901c60011660011415612e47576040805160208101839052908101849052606001604051602081830303815290604052805190602001209250612e74565b60408051602081018590529081018290526060016040516020818303038152906040528051906020012092505b5080612e7f8161405d565b915050612de0565b50858114612e9957600091505061259b565b6000612ea6600185613f65565b885190861891505b8015612f3957612ebf600182613f65565b82901c60011660001415612f2257612ed8600182613f65565b86901c60011660001415612f1d57600089612ef4600184613f65565b81518110612f0457612f0461402e565b602002602001015114612f1d576000935050505061259b565b612f27565b612f39565b80612f3181614096565b915050612eae565b50600198975050505050505050565b6000808260601b90506040517f3d602d80600a3d3981f3363d3d373d3d3d363d7300000000000000000000000081528160148201527f5af43d82803e903d91602b57fd5bf3000000000000000000000000000000000060288201526037816000f0949350505050565b73ffffffffffffffffffffffffffffffffffffffff80841660008181526004602052604090209184161415613068576040517f08c379a000000000000000000000000000000000000000000000000000000000815260206004820152603560248201527f526f6f7420686173682070726f706f7365722063616e2774206368616c6c656e60448201527f676520697473206f776e207375626d697373696f6e0000000000000000000000606482015260840161052f565b60018101546130d3576040517f08c379a000000000000000000000000000000000000000000000000000000000815260206004820152601e60248201527f5468657265206973206e6f207375636820686173682070726f706f73616c0000604482015260640161052f565b6000600982015460ff1660028111156130ee576130ee613dcd565b14613155576040517f08c379a000000000000000000000000000000000000000000000000000000000815260206004820152601860248201527f5468652070726f706f73616c206973207265736f6c7665640000000000000000604482015260640161052f565b8181600301541161320e576040517f08c379a000000000000000000000000000000000000000000000000000000000815260206004820152604360248201527f54686520696e646578206861766520746f2062652077697468696e207468652060448201527f72616e6765206f6620636c61696d656420616d6f756e74206f66206163636f7560648201527f6e74730000000000000000000000000000000000000000000000000000000000608482015260a40161052f565b73ffffffffffffffffffffffffffffffffffffffff83166000908152600a820160205260409020600290810154908111156132f1576002826003015461325491906141eb565b61325f600283613f65565b6001901b11156132f1576040517f08c379a000000000000000000000000000000000000000000000000000000000815260206004820152603760248201527f4368616c6c656e6765722072656163686564206d6178696d756d20616d6f756e60448201527f74206f6620616c6c6f776564206368616c6c656e676573000000000000000000606482015260840161052f565b73ffffffffffffffffffffffffffffffffffffffff84166000908152600a830160205260409020805460ff166133b957600883015442106133b4576040517f08c379a000000000000000000000000000000000000000000000000000000000815260206004820152602560248201527f54696d6520746f207375626d6974206e6577206368616c6c656e67657320697360448201527f206f766572000000000000000000000000000000000000000000000000000000606482015260840161052f565b61344c565b6001810154421061344c576040517f08c379a000000000000000000000000000000000000000000000000000000000815260206004820152602c60248201527f54696d6520746f207375626d6974206164646974696f6e616c206368616c6c6560448201527f6e676573206973206f7665720000000000000000000000000000000000000000606482015260840161052f565b505050505050565b73ffffffffffffffffffffffffffffffffffffffff80831660009081526004602090815260408083209385168352600a84019091528120600180820154600685018054939491939091906134a9908490613f7c565b9250508190555060018360050160008282546134c59190613f7c565b9250508190555060018260020160008282546134e19190613f7c565b909155506134f29050601e82613f7c565b6001830155613502601e82613f7c565b905080836004015410156110c657600483018190555050505050565b6040517f23b872dd00000000000000000000000000000000000000000000000000000000815273ffffffffffffffffffffffffffffffffffffffff8481166004830152306024830152604482018390527f000000000000000000000000000000000000000000000000000000000000000016906323b872dd90606401602060405180830381600087803b1580156135b457600080fd5b505af11580156135c8573d6000803e3d6000fd5b505050506040513d601f19601f820116820180604052508101906135ec9190613f94565b613652576040517f08c379a000000000000000000000000000000000000000000000000000000000815260206004820152600f60248201527f5472616e73666572204661696c65640000000000000000000000000000000000604482015260640161052f565b73ffffffffffffffffffffffffffffffffffffffff82166000908152600460205260408120600701805483929061368a908490613f7c565b9091555050505050565b73ffffffffffffffffffffffffffffffffffffffff811660008181526004602052604080822060090180547fffffffffffffffffffffffffffffffffffffffffffffffffffffffffffffff00166001179055517f0486da07c957c6d8c84150f71701781a2ff604f340139781e25799d9542be76b9190a250565b73ffffffffffffffffffffffffffffffffffffffff811660009081526004602052604090206009810180547fffffffffffffffffffffffffffffffffffffffffffffffffffffffffffffff001660029081179091556001808301549055808201549055600380820154905561378561546042613f7c565b6005556002810154600382015460405173ffffffffffffffffffffffffffffffffffffffff8516927f9588ca37c15542f9c554ca84cc8697a0b5e6974bca1fdadd42c075baa8836a83926137e192918252602082015260400190565b60405180910390a25050565b60006138177ff86c915dad5894faca0dfa067c58fdf4307406d255ed0a65db394f82b77f53d45490565b73ffffffffffffffffffffffffffffffffffffffff16146138ba576040517f08c379a000000000000000000000000000000000000000000000000000000000815260206004820152602860248201527f43616e206f6e6c792062652063616c6c656420647572696e6720696e6974696160448201527f6c697a6174696f6e000000000000000000000000000000000000000000000000606482015260840161052f565b60008173ffffffffffffffffffffffffffffffffffffffff16635c60da1b6040518163ffffffff1660e01b815260040160206040518083038186803b15801561390257600080fd5b505afa158015613916573d6000803e3d6000fd5b505050506040513d601f19601f8201168201806040525081019061393a91906141fa565b905073ffffffffffffffffffffffffffffffffffffffff81166139df576040517f08c379a000000000000000000000000000000000000000000000000000000000815260206004820152602c60248201527f696e697469616c697a6174696f6e206661696c7572653a206e6f7468696e672060448201527f746f20696d706c656d656e740000000000000000000000000000000000000000606482015260840161052f565b612390818073ffffffffffffffffffffffffffffffffffffffff16613a227ff86c915dad5894faca0dfa067c58fdf4307406d255ed0a65db394f82b77f53d45490565b73ffffffffffffffffffffffffffffffffffffffff161415613aa0576040517f08c379a000000000000000000000000000000000000000000000000000000000815260206004820152601f60248201527f496d706c656d656e746174696f6e20616c7265616479206d61746368696e6700604482015260640161052f565b7ff86c915dad5894faca0dfa067c58fdf4307406d255ed0a65db394f82b77f53d455565b73ffffffffffffffffffffffffffffffffffffffff811681146122ea57600080fd5b60008083601f840112613af857600080fd5b50813567ffffffffffffffff811115613b1057600080fd5b6020830191508360208260051b8501011115613b2b57600080fd5b9250929050565b600080600080600080600060c0888a031215613b4d57600080fd5b8735613b5881613ac4565b9650602088013567ffffffffffffffff811115613b7457600080fd5b613b808a828b01613ae6565b9097509550506040880135613b9481613ac4565b969995985093966060810135956080820135955060a0909101359350915050565b7f4e487b7100000000000000000000000000000000000000000000000000000000600052604160045260246000fd5b60008060408385031215613bf757600080fd5b8235613c0281613ac4565b9150602083013567ffffffffffffffff80821115613c1f57600080fd5b818501915085601f830112613c3357600080fd5b813581811115613c4557613c45613bb5565b604051601f82017fffffffffffffffffffffffffffffffffffffffffffffffffffffffffffffffe0908116603f01168101908382118183101715613c8b57613c8b613bb5565b81604052828152886020848701011115613ca457600080fd5b8260208601602083013760006020848301015280955050505050509250929050565b60008060408385031215613cd957600080fd5b8235613ce481613ac4565b946020939093013593505050565b600080600060608486031215613d0757600080fd5b505081359360208301359350604090920135919050565b600060208284031215613d3057600080fd5b5035919050565b60008060408385031215613d4a57600080fd5b823591506020830135613d5c81613ac4565b809150509250929050565b600060208284031215613d7957600080fd5b8135613d8481613ac4565b9392505050565b600080600060608486031215613da057600080fd5b8335613dab81613ac4565b9250602084013591506040840135613dc281613ac4565b809150509250925092565b7f4e487b7100000000000000000000000000000000000000000000000000000000600052602160045260246000fd5b6000610140820190508b151582528a60208301528960408301528860608301528760808301528660a08301528560c08301528460e08301528361010083015260038310613e72577f4e487b7100000000000000000000000000000000000000000000000000000000600052602160045260246000fd5b826101208301529b9a5050505050505050505050565b600080600080600060808688031215613ea057600080fd5b8535613eab81613ac4565b9450602086013567ffffffffffffffff811115613ec757600080fd5b613ed388828901613ae6565b9699909850959660408101359660609091013595509350505050565b60008060408385031215613f0257600080fd5b8235613f0d81613ac4565b91506020830135613d5c81613ac4565b600060208284031215613f2f57600080fd5b5051919050565b7f4e487b7100000000000000000000000000000000000000000000000000000000600052601160045260246000fd5b600082821015613f7757613f77613f36565b500390565b60008219821115613f8f57613f8f613f36565b500190565b600060208284031215613fa657600080fd5b81518015158114613d8457600080fd5b6000817fffffffffffffffffffffffffffffffffffffffffffffffffffffffffffffffff0483118215151615613fee57613fee613f36565b500290565b600082614029577f4e487b7100000000000000000000000000000000000000000000000000000000600052601260045260246000fd5b500490565b7f4e487b7100000000000000000000000000000000000000000000000000000000600052603260045260246000fd5b60007fffffffffffffffffffffffffffffffffffffffffffffffffffffffffffffffff82141561408f5761408f613f36565b5060010190565b6000816140a5576140a5613f36565b507fffffffffffffffffffffffffffffffffffffffffffffffffffffffffffffffff0190565b600181815b8085111561412457817fffffffffffffffffffffffffffffffffffffffffffffffffffffffffffffffff0482111561410a5761410a613f36565b8085161561411757918102915b93841c93908002906140d0565b509250929050565b60008261413b575060016119c5565b81614148575060006119c5565b816001811461415e576002811461416857614184565b60019150506119c5565b60ff84111561417957614179613f36565b50506001821b6119c5565b5060208310610133831016604e8410600b84101617156141a7575081810a6119c5565b6141b183836140cb565b807fffffffffffffffffffffffffffffffffffffffffffffffffffffffffffffffff048211156141e3576141e3613f36565b029392505050565b6000613d8460ff84168361412c565b60006020828403121561420c57600080fd5b8151613d8481613ac456fea164736f6c6343000809000af86c915dad5894faca0dfa067c58fdf4307406d255ed0a65db394f82b77f53d4",
  "linkReferences": {},
  "deployedLinkReferences": {}
}