{
  "_format": "hh-sol-artifact-1",
  "contractName": "InflationRootHashProposal",
  "sourceName": "contracts/governance/monetary/InflationRootHashProposal.sol",
  "abi": [
    {
      "inputs": [
        {
          "internalType": "contract Policy",
          "name": "_policy",
          "type": "address"
        },
        {
          "internalType": "address",
          "name": "_ecoAddr",
          "type": "address"
        }
      ],
      "stateMutability": "nonpayable",
      "type": "constructor"
    },
    {
      "anonymous": false,
      "inputs": [
        {
          "indexed": true,
          "internalType": "address",
          "name": "proposer",
          "type": "address"
        },
        {
          "indexed": false,
          "internalType": "address",
          "name": "challenger",
          "type": "address"
        },
        {
          "indexed": false,
          "internalType": "address",
          "name": "missingAccount",
          "type": "address"
        },
        {
          "indexed": true,
          "internalType": "uint256",
          "name": "index",
          "type": "uint256"
        }
      ],
      "name": "ChallengeMissingAccountSuccess",
      "type": "event"
    },
    {
      "anonymous": false,
      "inputs": [
        {
          "indexed": true,
          "internalType": "address",
          "name": "proposer",
          "type": "address"
        },
        {
          "indexed": false,
          "internalType": "address",
          "name": "challenger",
          "type": "address"
        },
        {
          "indexed": false,
          "internalType": "address",
          "name": "account",
          "type": "address"
        },
        {
          "indexed": false,
          "internalType": "uint256",
          "name": "balance",
          "type": "uint256"
        },
        {
          "indexed": false,
          "internalType": "uint256",
          "name": "sum",
          "type": "uint256"
        },
        {
          "indexed": true,
          "internalType": "uint256",
          "name": "index",
          "type": "uint256"
        }
      ],
      "name": "ChallengeSuccessResponse",
      "type": "event"
    },
    {
      "anonymous": false,
      "inputs": [
        {
          "indexed": false,
          "internalType": "uint256",
          "name": "_blockNumber",
          "type": "uint256"
        }
      ],
      "name": "ConfigureBlock",
      "type": "event"
    },
    {
      "anonymous": false,
      "inputs": [
        {
          "indexed": true,
          "internalType": "address",
          "name": "proposer",
          "type": "address"
        },
        {
          "indexed": false,
          "internalType": "uint256",
          "name": "totalSum",
          "type": "uint256"
        },
        {
          "indexed": false,
          "internalType": "uint256",
          "name": "amountOfAccounts",
          "type": "uint256"
        }
      ],
      "name": "RootHashAcceptance",
      "type": "event"
    },
    {
      "anonymous": false,
      "inputs": [
        {
          "indexed": true,
          "internalType": "address",
          "name": "proposer",
          "type": "address"
        },
        {
          "indexed": false,
          "internalType": "address",
          "name": "challenger",
          "type": "address"
        },
        {
          "indexed": true,
          "internalType": "uint256",
          "name": "index",
          "type": "uint256"
        }
      ],
      "name": "RootHashChallengeIndexRequest",
      "type": "event"
    },
    {
      "anonymous": false,
      "inputs": [
        {
          "indexed": true,
          "internalType": "address",
          "name": "proposer",
          "type": "address"
        },
        {
          "indexed": true,
          "internalType": "bytes32",
          "name": "proposedRootHash",
          "type": "bytes32"
        },
        {
          "indexed": false,
          "internalType": "uint256",
          "name": "totalSum",
          "type": "uint256"
        },
        {
          "indexed": false,
          "internalType": "uint256",
          "name": "amountOfAccounts",
          "type": "uint256"
        }
      ],
      "name": "RootHashPost",
      "type": "event"
    },
    {
      "anonymous": false,
      "inputs": [
        {
          "indexed": true,
          "internalType": "address",
          "name": "proposer",
          "type": "address"
        }
      ],
      "name": "RootHashRejection",
      "type": "event"
    },
    {
      "inputs": [
        {
          "internalType": "uint256",
          "name": "",
          "type": "uint256"
        }
      ],
      "name": "ALLOWED_ZERO_DATA",
      "outputs": [
        {
          "internalType": "bytes32",
          "name": "",
          "type": "bytes32"
        }
      ],
      "stateMutability": "view",
      "type": "function"
    },
    {
      "inputs": [],
      "name": "CHALLENGE_FEE",
      "outputs": [
        {
          "internalType": "uint256",
          "name": "",
          "type": "uint256"
        }
      ],
      "stateMutability": "view",
      "type": "function"
    },
    {
      "inputs": [],
      "name": "CHALLENGING_TIME",
      "outputs": [
        {
          "internalType": "uint256",
          "name": "",
          "type": "uint256"
        }
      ],
      "stateMutability": "view",
      "type": "function"
    },
    {
      "inputs": [],
      "name": "CONTESTING_TIME",
      "outputs": [
        {
          "internalType": "uint256",
          "name": "",
          "type": "uint256"
        }
      ],
      "stateMutability": "view",
      "type": "function"
    },
    {
      "inputs": [],
      "name": "FEE_COLLECTION_TIME",
      "outputs": [
        {
          "internalType": "uint256",
          "name": "",
          "type": "uint256"
        }
      ],
      "stateMutability": "view",
      "type": "function"
    },
    {
      "inputs": [],
      "name": "PROPOSER_FEE",
      "outputs": [
        {
          "internalType": "uint256",
          "name": "",
          "type": "uint256"
        }
      ],
      "stateMutability": "view",
      "type": "function"
    },
    {
      "inputs": [],
      "name": "acceptedAmountOfAccounts",
      "outputs": [
        {
          "internalType": "uint256",
          "name": "",
          "type": "uint256"
        }
      ],
      "stateMutability": "view",
      "type": "function"
    },
    {
      "inputs": [],
      "name": "acceptedRootHash",
      "outputs": [
        {
          "internalType": "bytes32",
          "name": "",
          "type": "bytes32"
        }
      ],
      "stateMutability": "view",
      "type": "function"
    },
    {
      "inputs": [],
      "name": "acceptedTotalSum",
      "outputs": [
        {
          "internalType": "uint256",
          "name": "",
          "type": "uint256"
        }
      ],
      "stateMutability": "view",
      "type": "function"
    },
    {
      "inputs": [],
      "name": "allowedZeroData",
      "outputs": [
        {
          "internalType": "bytes32[34]",
          "name": "",
          "type": "bytes32[34]"
        }
      ],
      "stateMutability": "view",
      "type": "function"
    },
    {
      "inputs": [],
      "name": "blockNumber",
      "outputs": [
        {
          "internalType": "uint256",
          "name": "",
          "type": "uint256"
        }
      ],
      "stateMutability": "view",
      "type": "function"
    },
    {
      "inputs": [
        {
          "internalType": "bytes32",
          "name": "",
          "type": "bytes32"
        },
        {
          "internalType": "address",
          "name": "_addr",
          "type": "address"
        }
      ],
      "name": "canImplementInterfaceForAddress",
      "outputs": [
        {
          "internalType": "bytes32",
          "name": "",
          "type": "bytes32"
        }
      ],
      "stateMutability": "view",
      "type": "function"
    },
    {
      "inputs": [
        {
          "internalType": "address",
          "name": "_proposer",
          "type": "address"
        },
        {
          "internalType": "uint256",
          "name": "_index",
          "type": "uint256"
        }
      ],
      "name": "challengeRootHashRequestAccount",
      "outputs": [],
      "stateMutability": "nonpayable",
      "type": "function"
    },
    {
      "inputs": [
        {
          "internalType": "address",
          "name": "_proposer",
          "type": "address"
        }
      ],
      "name": "checkRootHashStatus",
      "outputs": [],
      "stateMutability": "nonpayable",
      "type": "function"
    },
    {
      "inputs": [
        {
          "internalType": "address",
          "name": "_proposer",
          "type": "address"
        }
      ],
      "name": "claimFee",
      "outputs": [],
      "stateMutability": "nonpayable",
      "type": "function"
    },
    {
      "inputs": [
        {
          "internalType": "address",
          "name": "_who",
          "type": "address"
        },
        {
          "internalType": "address",
          "name": "_proposer",
          "type": "address"
        }
      ],
      "name": "claimFeeFor",
      "outputs": [],
      "stateMutability": "nonpayable",
      "type": "function"
    },
    {
      "inputs": [
        {
          "internalType": "address",
          "name": "_proposer",
          "type": "address"
        },
        {
          "internalType": "uint256",
          "name": "_index",
          "type": "uint256"
        },
        {
          "internalType": "address",
          "name": "_account",
          "type": "address"
        }
      ],
      "name": "claimMissingAccount",
      "outputs": [],
      "stateMutability": "nonpayable",
      "type": "function"
    },
    {
      "inputs": [],
      "name": "clone",
      "outputs": [
        {
          "internalType": "address",
          "name": "",
          "type": "address"
        }
      ],
      "stateMutability": "nonpayable",
      "type": "function"
    },
    {
      "inputs": [
        {
          "internalType": "uint256",
          "name": "_blockNumber",
          "type": "uint256"
        }
      ],
      "name": "configure",
      "outputs": [],
      "stateMutability": "nonpayable",
      "type": "function"
    },
    {
      "inputs": [],
      "name": "destruct",
      "outputs": [],
      "stateMutability": "nonpayable",
      "type": "function"
    },
    {
      "inputs": [],
      "name": "ecoToken",
      "outputs": [
        {
          "internalType": "contract IECO",
          "name": "",
          "type": "address"
        }
      ],
      "stateMutability": "view",
      "type": "function"
    },
    {
      "inputs": [],
      "name": "feeCollectionEnds",
      "outputs": [
        {
          "internalType": "uint256",
          "name": "",
          "type": "uint256"
        }
      ],
      "stateMutability": "view",
      "type": "function"
    },
    {
      "inputs": [],
      "name": "implementation",
      "outputs": [
        {
          "internalType": "address",
          "name": "_impl",
          "type": "address"
        }
      ],
      "stateMutability": "view",
      "type": "function"
    },
    {
      "inputs": [
        {
          "internalType": "address",
          "name": "_self",
          "type": "address"
        }
      ],
      "name": "initialize",
      "outputs": [],
      "stateMutability": "nonpayable",
      "type": "function"
    },
    {
      "inputs": [],
      "name": "policy",
      "outputs": [
        {
          "internalType": "contract Policy",
          "name": "",
          "type": "address"
        }
      ],
      "stateMutability": "view",
      "type": "function"
    },
    {
      "inputs": [
        {
          "internalType": "address",
          "name": "_delegate",
          "type": "address"
        },
        {
          "internalType": "bytes",
          "name": "_data",
          "type": "bytes"
        }
      ],
      "name": "policyCommand",
      "outputs": [],
      "stateMutability": "nonpayable",
      "type": "function"
    },
    {
      "inputs": [
        {
          "internalType": "bytes32",
          "name": "_proposedRootHash",
          "type": "bytes32"
        },
        {
          "internalType": "uint256",
          "name": "_totalSum",
          "type": "uint256"
        },
        {
          "internalType": "uint256",
          "name": "_amountOfAccounts",
          "type": "uint256"
        }
      ],
      "name": "proposeRootHash",
      "outputs": [],
      "stateMutability": "nonpayable",
      "type": "function"
    },
    {
      "inputs": [
        {
          "internalType": "address",
          "name": "_challenger",
          "type": "address"
        },
        {
          "internalType": "bytes32[]",
          "name": "_proof",
          "type": "bytes32[]"
        },
        {
          "internalType": "address",
          "name": "_account",
          "type": "address"
        },
        {
          "internalType": "uint256",
          "name": "_claimedBalance",
          "type": "uint256"
        },
        {
          "internalType": "uint256",
          "name": "_sum",
          "type": "uint256"
        },
        {
          "internalType": "uint256",
          "name": "_index",
          "type": "uint256"
        }
      ],
      "name": "respondToChallenge",
      "outputs": [],
      "stateMutability": "nonpayable",
      "type": "function"
    },
    {
      "inputs": [
        {
          "internalType": "address",
          "name": "",
          "type": "address"
        }
      ],
      "name": "rootHashProposals",
      "outputs": [
        {
          "internalType": "bool",
          "name": "initialized",
          "type": "bool"
        },
        {
          "internalType": "bytes32",
          "name": "rootHash",
          "type": "bytes32"
        },
        {
          "internalType": "uint256",
          "name": "totalSum",
          "type": "uint256"
        },
        {
          "internalType": "uint256",
          "name": "amountOfAccounts",
          "type": "uint256"
        },
        {
          "internalType": "uint256",
          "name": "lastLiveChallenge",
          "type": "uint256"
        },
        {
          "internalType": "uint256",
          "name": "amountPendingChallenges",
          "type": "uint256"
        },
        {
          "internalType": "uint256",
          "name": "totalChallenges",
          "type": "uint256"
        },
        {
          "internalType": "uint256",
          "name": "stakedAmount",
          "type": "uint256"
        },
        {
          "internalType": "uint256",
          "name": "newChallengerSubmissionEnds",
          "type": "uint256"
        },
        {
          "internalType": "enum InflationRootHashProposal.RootHashStatus",
          "name": "status",
          "type": "uint8"
        }
      ],
      "stateMutability": "view",
      "type": "function"
    },
    {
      "inputs": [
        {
          "internalType": "address",
          "name": "_addr",
          "type": "address"
        }
      ],
      "name": "setExpectedInterfaceSet",
      "outputs": [],
      "stateMutability": "nonpayable",
      "type": "function"
    },
    {
      "inputs": [
        {
          "internalType": "address",
          "name": "_who",
          "type": "address"
        },
        {
          "internalType": "bytes32[]",
          "name": "_proof",
          "type": "bytes32[]"
        },
        {
          "internalType": "uint256",
          "name": "_sum",
          "type": "uint256"
        },
        {
          "internalType": "uint256",
          "name": "_index",
          "type": "uint256"
        }
      ],
      "name": "verifyClaimSubmission",
      "outputs": [
        {
          "internalType": "bool",
          "name": "",
          "type": "bool"
        }
      ],
      "stateMutability": "view",
      "type": "function"
    }
  ],
  "bytecode": "0x6105006040527f3bdd562417b2b6c29b6c37a0fbf5c08139fe63f7baf013194f112d8319bf8b3260c09081527f422368e34d87bbb713e283dad123fed473e105cb74d37751f74867ab4fa87edd60e0527ff27703a76b6cfeda85aef5a7207fb15760fdc0a162fd616cf250471474e93064610100527ff929785be718729ceabcb86d15bfa39b70c5ca2d430061be1555d41e48651375610120527f93786748e00c02a99af4dce47e7ce8ac741000befb5264ea4fb14273b3fc7332610140527f95695af3951d243667eb4a8110eafd09a6c323e4a83970ee18a4e417aeab6b46610160527ffe8a835cd62790af744e0f74b439a14953a4560b2854ed74e46b7ab3f9d0ec84610180527f50b158d1b56319c75fa84bbf35c6be81b74658e52133cf80ce69cf8412676dab6101a0527ff821f04ade470a841f53c946523e8cadc4c3126466c9e360da641d163bf94d456101c0527f89fcc5a6f1ce62a204c07e25d4be37bb6abcbaae7c3dcef32168f6776d1f3b306101e0527fe9899ac52db5b000d178480fe653578b5c8298b11226427735f69819af117283610200527fcc11d2b08ed3235c9db4f0e81cda57ffbb0a2bce262dd047f1fbec17138fa3a0610220527f817ca40addaa46113d0d93c9b4e0a6653ccefd7be164981df4021cb156e581f5610240527ff642e9a700a89f0c2376ef3e27096ae0a9aa004aa13c418a43d03f281780bc6c610260527fdcc5fb90bdb02900974d26fea2f08bd727dd87bac6feb3092d4d794adce07d7d610280527f341922905d8f0ad976a7926d61cd3cefc00f71b4189e996276c3b67248dc56ce6102a0527fa4521c78c157299308a6cf452a7f92e41da1ac1bf410ab669c158c4971289fc36102c0527feb5645021221cbbbe4dfe15917f1131fab92ae3f89f4ed22a72f72d0326b69966102e0527f535cf4c0d87516f7f91f15e22c454a28758315386ceb055143265a8678da8d32610300527f867be7d011bbfddc0cf8e84bcaf579161a22ccc1fe31469ecc7d69abd6a4fe44610320527f45924a35e31e7b38e729b1d06b5b0362f65054c5173e71ddd8e684b4ccb53010610340527f77d7566b9985683b9ce74ac609ea0cbb07033475796e7eac736bf50963a96c63610360527fa1860c29c0172e7b4e1841b0be9b94a762f630b069ac198c2b3ade33a6acf4e6610380527f92b5f37f2d83c6417e3b750460faf4f4173f3f1f8aada7c55c2aa6694adf9fe96103a0527f02a9d327f039021e04948268ff66f805007a6c30353d6d5d7996890f35948dac6103c0527fff2e7b675fc1dd7d9b9bf728a034886b6d9e44073b9c1faa096714f435bf684f6103e0527ff00a9c17ce7e52771884528e3f14b513a938fbf66e5166bb108e65a23f4df764610400527f554b57844825163cff94995356fa9ef1404e7419c5efa562a2dbdede0348bb67610420527f4a24b92759a0746442c5c69457f9e08327b2ba3977f67871107125a7ad3b102c610440527fd1a9cf27f8f87d22a0d282846bfbde81777e3d6505b3635945f87181f202daa2610460527f81b858655769500c9040590a626665d038664a81554c0ada4f00acb4f16c8771610480527f5fcda3026802a31538986984a97b9886b328467ae421c9ed21fe8d8eeb756a646104a0527f1600b37f0df1767945b7a5ea9541b28ab36d4767f5ded2d3c3a490958747ab576104c0527f064f2f7cf038f44f2b1959a171d52c7ec4ba817fb2cfa9460676eac90a51e3ab6104e052620004ff9060079060226200074e565b503480156200050d57600080fd5b5060405162004ce938038062004ce98339810160408190526200053091620007c1565b81806200053d30620006c0565b6001600160a01b038116620005bf5760405162461bcd60e51b815260206004820152603860248201527f556e7265636f76657261626c653a20646f206e6f74207365742074686520706f60448201527f6c69637920617320746865207a65726f2061646472657373000000000000000060648201526084015b60405180910390fd5b6001600160a01b0381166080819052604051635df8122f60e01b81523060048201526024810191909152731820a4b7618bde71dce8cdc73aab6c95905fad2490635df8122f90604401600060405180830381600087803b1580156200062357600080fd5b505af115801562000638573d6000803e3d6000fd5b50505050506001600160a01b03821615159050620006ad5760405162461bcd60e51b815260206004820152602b60248201527f646f206e6f742073657420746865205f65636f4164647220617320746865207a60448201526a65726f206164647265737360a81b6064820152608401620005b6565b6001600160a01b031660a0525062000800565b6001600160a01b038116620006e260008051602062004cc98339815191525490565b6001600160a01b031614156200073b5760405162461bcd60e51b815260206004820152601f60248201527f496d706c656d656e746174696f6e20616c7265616479206d61746368696e67006044820152606401620005b6565b60008051602062004cc983398151915255565b82602281019282156200077f579160200282015b828111156200077f57825182559160200191906001019062000762565b506200078d92915062000791565b5090565b5b808211156200078d576000815560010162000792565b6001600160a01b0381168114620007be57600080fd5b50565b60008060408385031215620007d557600080fd5b8251620007e281620007a8565b6020840151909250620007f581620007a8565b809150509250929050565b60805160a05161444f6200087a600039600081816103d1015281816107fd015281816119ba01528181611d8a015281816123800152818161279f015281816129e901526134ad0152600081816101ef01528181610fab015281816117a3015281816119f801528181611b960152613844015261444f6000f3fe608060405234801561001057600080fd5b50600436106101e55760003560e01c80635c60da1b1161010f57806386dfdded116100a2578063a61b758e11610071578063a61b758e14610488578063a8c95a0414610491578063be85b7731461049a578063c4d66de8146104aa57600080fd5b806386dfdded1461044f57806387193cc6146104595780638bcd2af4146104625780639ba038d41461047757600080fd5b8063720cb0cb116100de578063720cb0cb146103fc57806377c02f1b1461040f578063780cc9f5146104325780637c8f34ac1461044557600080fd5b80635c60da1b146103925780636ebc51e1146103b9578063705d5304146103cc578063706cfb39146103f357600080fd5b80631eb25e0a1161018757806339634e0c1161015657806339634e0c146102e9578063472457e3146102fc578063523ce9ec1461030f57806357e871e71461038957600080fd5b80631eb25e0a146102b2578063249cb3fa146102c55780632b68b9c6146102d857806334ea5797146102e057600080fd5b806309ed4607116101c357806309ed4607146102635780630ea57e0e1461026b5780630f767e501461028c57806312a3420e1461029f57600080fd5b80630505c8c9146101ea57806306bb1c0c1461023b57806309d7f23b14610250575b600080fd5b6102117f000000000000000000000000000000000000000000000000000000000000000081565b60405173ffffffffffffffffffffffffffffffffffffffff90911681526020015b60405180910390f35b61024e610249366004613c6d565b6104bd565b005b61024e61025e366004613d6e565b610f93565b610211611082565b61027e610279366004613e34565b6111e3565b604051908152602001610232565b61024e61029a366004613e4d565b6111fa565b61024e6102ad366004613e79565b61148f565b61024e6102c0366004613e34565b6116d4565b61027e6102d3366004613ea5565b61179f565b61024e6118ec565b61027e60055481565b61024e6102f7366004613ed5565b611b7e565b61024e61030a366004613ef9565b611c8a565b61037361031d366004613ed5565b6004602081905260009182526040909120805460018201546002830154600384015494840154600585015460068601546007870154600888015460099098015460ff97881699969895979495939492939192168a565b6040516102329a99989796959493929190613f6a565b61027e60065481565b7ff86c915dad5894faca0dfa067c58fdf4307406d255ed0a65db394f82b77f53d454610211565b61024e6103c7366004613ed5565b6121e7565b6102117f000000000000000000000000000000000000000000000000000000000000000081565b61027e60035481565b61024e61040a366004613ed5565b6121f4565b61042261041d366004613ff6565b61229b565b6040519015158152602001610232565b61024e61044036600461405d565b6124ab565b61027e62ed4e0081565b61027e6201518081565b61027e610e1081565b61046a612b25565b604051610232919061408b565b61027e69043c33c193756480000081565b61027e60025481565b61027e60015481565b61027e681b1ae4d6e2ef50000081565b61024e6104b8366004613ed5565b612b61565b60015415610552576040517f08c379a000000000000000000000000000000000000000000000000000000000815260206004820152602f60248201527f54686520726f6f7420686173682061636365707465642c206e6f206d6f72652060448201527f616374696f6e7320616c6c6f776564000000000000000000000000000000000060648201526084015b60405180910390fd5b600083116105e2576040517f08c379a000000000000000000000000000000000000000000000000000000000815260206004820152603560248201527f4163636f756e74732077697468207a65726f2062616c616e6365206e6f74206160448201527f6c6c6f77656420696e204d65726b6c65207472656500000000000000000000006064820152608401610549565b33600090815260046020908152604080832073ffffffffffffffffffffffffffffffffffffffff8b168452600a8101909252909120600181015442106106aa576040517f08c379a000000000000000000000000000000000000000000000000000000000815260206004820152602b60248201527f54696d656672616d6520746f20726573706f6e6420746f2061206368616c6c6560448201527f6e6765206973206f7665720000000000000000000000000000000000000000006064820152608401610549565b6001600084815260038301602052604090205460ff1660028111156106d1576106d1613f3b565b1461075e576040517f08c379a000000000000000000000000000000000000000000000000000000000815260206004820152602c60248201527f5468657265206973206e6f2070656e64696e67206368616c6c656e676520666f60448201527f72207468697320696e64657800000000000000000000000000000000000000006064820152608401610549565b6000838152600b830160205260409081902080547fffffffffffffffffffffffff00000000000000000000000000000000000000001673ffffffffffffffffffffffffffffffffffffffff8981169182178355600183018990556002830188905560065493517f3a46b1a800000000000000000000000000000000000000000000000000000000815260048101929092526024820193909352909187917f000000000000000000000000000000000000000000000000000000000000000090911690633a46b1a89060440160206040518083038186803b15801561084157600080fd5b505afa158015610855573d6000803e3d6000fd5b505050506040513d601f19601f8201168201806040525081019061087991906140bd565b14610906576040517f08c379a000000000000000000000000000000000000000000000000000000000815260206004820152602f60248201527f4368616c6c656e676520726573706f6e7365206661696c6564206163636f756e60448201527f742062616c616e636520636865636b00000000000000000000000000000000006064820152608401610549565b6109a989898080602002602001604051908101604052809392919081815260200183836020028082843760009201919091525050505060018501546040517fffffffffffffffffffffffffffffffffffffffff00000000000000000000000060608c901b166020820152603481018a9052605481018990526074810188905260940160405160208183030381529060405280519060200120878760030154612cc4565b610a35576040517f08c379a000000000000000000000000000000000000000000000000000000000815260206004820152603860248201527f4368616c6c656e676520726573706f6e7365206661696c6564206d65726b6c6560448201527f207472656520766572696669636174696f6e20636865636b00000000000000006064820152608401610549565b83610acd578415610ac8576040517f08c379a000000000000000000000000000000000000000000000000000000000815260206004820152602560248201527f63756d756c61746976652073756d20646f6573206e6f7420737461727473206660448201527f726f6d20300000000000000000000000000000000000000000000000000000006064820152608401610549565b610c5c565b6000600b840181610adf600188614105565b81526020810191909152604001600020805490915073ffffffffffffffffffffffffffffffffffffffff1615610c5a578581600101548260020154610b24919061411c565b14610bb1576040517f08c379a000000000000000000000000000000000000000000000000000000000815260206004820152602560248201527f4c656674206e65696768626f722073756d20766572696669636174696f6e206660448201527f61696c65640000000000000000000000000000000000000000000000000000006064820152608401610549565b805473ffffffffffffffffffffffffffffffffffffffff808a16911610610c5a576040517f08c379a000000000000000000000000000000000000000000000000000000000815260206004820152602760248201527f4c656674206e65696768626f72206f7264657220766572696669636174696f6e60448201527f206661696c6564000000000000000000000000000000000000000000000000006064820152608401610549565b505b60018360030154610c6d9190614105565b841415610d1057610c7e868661411c565b836002015414610d10576040517f08c379a000000000000000000000000000000000000000000000000000000000815260206004820152602760248201527f63756d756c61746976652073756d20646f6573206e6f74206d6174636820746f60448201527f74616c2073756d000000000000000000000000000000000000000000000000006064820152608401610549565b6000600b840181610d2287600161411c565b8152602001908152602001600020905060018460030154610d439190614105565b8514158015610d685750805473ffffffffffffffffffffffffffffffffffffffff1615155b15610eb3576002810154610d7c888861411c565b14610e09576040517f08c379a000000000000000000000000000000000000000000000000000000000815260206004820152602660248201527f5269676874206e65696768626f722073756d20766572696669636174696f6e2060448201527f6661696c656400000000000000000000000000000000000000000000000000006064820152608401610549565b805473ffffffffffffffffffffffffffffffffffffffff90811690891610610eb3576040517f08c379a000000000000000000000000000000000000000000000000000000000815260206004820152602860248201527f5269676874206e65696768626f72206f7264657220766572696669636174696f60448201527f6e206661696c65640000000000000000000000000000000000000000000000006064820152608401610549565b6040805173ffffffffffffffffffffffffffffffffffffffff8d811682528a16602082015290810188905260608101879052859033907f3f7df1c0ced26d5b16538321acca7dfd61b15b55cbbdeb0c0ca5fd3e552413829060800160405180910390a36000858152600384016020526040812080547fffffffffffffffffffffffffffffffffffffffffffffffffffffffffffffff0016600217905560058501805460019290610f64908490614105565b92505081905550610e10836001016000828254610f81919061411c565b90915550505050505050505050505050565b3373ffffffffffffffffffffffffffffffffffffffff7f00000000000000000000000000000000000000000000000000000000000000001614611058576040517f08c379a000000000000000000000000000000000000000000000000000000000815260206004820152602e60248201527f4f6e6c792074686520706f6c69637920636f6e7472616374206d61792063616c60448201527f6c2074686973206d6574686f642e0000000000000000000000000000000000006064820152608401610549565b600080825160208401855af43d806000803e81801561107657816000f35b816000fd5b5050505050565b6000306110ad7ff86c915dad5894faca0dfa067c58fdf4307406d255ed0a65db394f82b77f53d45490565b73ffffffffffffffffffffffffffffffffffffffff1614611150576040517f08c379a000000000000000000000000000000000000000000000000000000000815260206004820152602660248201527f54686973206d6574686f642063616e6e6f742062652063616c6c6564206f6e2060448201527f636c6f6e657300000000000000000000000000000000000000000000000000006064820152608401610549565b600061115b30612e83565b6040517fc4d66de800000000000000000000000000000000000000000000000000000000815230600482015290915073ffffffffffffffffffffffffffffffffffffffff82169063c4d66de890602401600060405180830381600087803b1580156111c557600080fd5b505af11580156111d9573d6000803e3d6000fd5b5092949350505050565b600781602281106111f357600080fd5b0154905081565b6001541561128a576040517f08c379a000000000000000000000000000000000000000000000000000000000815260206004820152602f60248201527f54686520726f6f7420686173682061636365707465642c206e6f206d6f72652060448201527f616374696f6e7320616c6c6f77656400000000000000000000000000000000006064820152608401610549565b611295823383612eec565b73ffffffffffffffffffffffffffffffffffffffff82166000908152600460209081526040808320338452600a8101909252909120805460ff166113585780547fffffffffffffffffffffffffffffffffffffffffffffffffffffffffffffff00166001178155620151806113074290565b611311919061411c565b6001828101919091556000848152600383016020526040902080547fffffffffffffffffffffffffffffffffffffffffffffffffffffffffffffff0016909117905561141e565b600083815260038201602052604081205460ff16600281111561137d5761137d613f3b565b146113e4576040517f08c379a000000000000000000000000000000000000000000000000000000000815260206004820152601860248201527f496e64657820616c7265616479206368616c6c656e67656400000000000000006044820152606401610549565b6000838152600382016020526040902080547fffffffffffffffffffffffffffffffffffffffffffffffffffffffffffffff001660011790555b604051338152839073ffffffffffffffffffffffffffffffffffffffff8616907f0a1a8468903cae9931dcd5d799965a45e7d008583a0de88717b6f132e25b18499060200160405180910390a36114758433613395565b6114893385681b1ae4d6e2ef50000061345b565b50505050565b6001541561151f576040517f08c379a000000000000000000000000000000000000000000000000000000000815260206004820152602f60248201527f54686520726f6f7420686173682061636365707465642c206e6f206d6f72652060448201527f616374696f6e7320616c6c6f77656400000000000000000000000000000000006064820152608401610549565b336000908152600460205260409020805460ff161561159a576040517f08c379a000000000000000000000000000000000000000000000000000000000815260206004820152601a60248201527f526f6f74206861736820616c72656164792070726f706f7365640000000000006044820152606401610549565b6000821161162a576040517f08c379a000000000000000000000000000000000000000000000000000000000815260206004820152602760248201527f48617368206d75737420636f6e73697374206f66206174206c6561737420312060448201527f6163636f756e74000000000000000000000000000000000000000000000000006064820152608401610549565b80547fffffffffffffffffffffffffffffffffffffffffffffffffffffffffffffff00166001908117825581018490556002810183905560038101829055620151806116734290565b61167d919061411c565b60088201556040805184815260208101849052859133917f6620bdb89cea8a511b55ab81150a1779dfa0cb367348c78ec28994d9acaf4f8b910160405180910390a3611489333369043c33c193756480000061345b565b60065415611764576040517f08c379a000000000000000000000000000000000000000000000000000000000815260206004820152602960248201527f5468697320696e7374616e63652068617320616c7265616479206265656e206360448201527f6f6e6669677572656400000000000000000000000000000000000000000000006064820152608401610549565b60068190556040518181527f3d9af45a2fa472d02ac915a5ba7754b1afe4e7132d7f039eeae91c85d4bf84b59060200160405180910390a150565b60007f000000000000000000000000000000000000000000000000000000000000000073ffffffffffffffffffffffffffffffffffffffff168273ffffffffffffffffffffffffffffffffffffffff161480611815575060005473ffffffffffffffffffffffffffffffffffffffff8381169116145b6118a1576040517f08c379a000000000000000000000000000000000000000000000000000000000815260206004820152603c60248201527f4f6e6c792074686520706f6c696379206f7220696e7465726661636520636f6e60448201527f74726163742063616e207365742074686520696e746572666163652e000000006064820152608401610549565b6040517f455243313832305f4143434550545f4d4147494300000000000000000000000060208201526034016040516020818303038152906040528051906020012090505b92915050565b600554158015906118fe575060055442115b61198c57604080517f08c379a00000000000000000000000000000000000000000000000000000000081526020600482015260248101919091527f636f6e7472616374206d6967687420626520646573747275637465642061667460448201527f65722066656520636f6c6c656374696f6e20706572696f64206973206f7665726064820152608401610549565b6040517f70a082310000000000000000000000000000000000000000000000000000000081523060048201527f000000000000000000000000000000000000000000000000000000000000000073ffffffffffffffffffffffffffffffffffffffff169063a9059cbb907f00000000000000000000000000000000000000000000000000000000000000009083906370a082319060240160206040518083038186803b158015611a3b57600080fd5b505afa158015611a4f573d6000803e3d6000fd5b505050506040513d601f19601f82011682018060405250810190611a7391906140bd565b6040517fffffffff0000000000000000000000000000000000000000000000000000000060e085901b16815273ffffffffffffffffffffffffffffffffffffffff90921660048301526024820152604401602060405180830381600087803b158015611ade57600080fd5b505af1158015611af2573d6000803e3d6000fd5b505050506040513d601f19601f82011682018060405250810190611b169190614134565b611b7c576040517f08c379a000000000000000000000000000000000000000000000000000000000815260206004820152600f60248201527f5472616e73666572204661696c656400000000000000000000000000000000006044820152606401610549565b565b3373ffffffffffffffffffffffffffffffffffffffff7f00000000000000000000000000000000000000000000000000000000000000001614611c43576040517f08c379a000000000000000000000000000000000000000000000000000000000815260206004820152602e60248201527f4f6e6c792074686520706f6c69637920636f6e7472616374206d61792063616c60448201527f6c2074686973206d6574686f642e0000000000000000000000000000000000006064820152608401610549565b600080547fffffffffffffffffffffffff00000000000000000000000000000000000000001673ffffffffffffffffffffffffffffffffffffffff92909216919091179055565b60015415611d1a576040517f08c379a000000000000000000000000000000000000000000000000000000000815260206004820152602f60248201527f54686520726f6f7420686173682061636365707465642c206e6f206d6f72652060448201527f616374696f6e7320616c6c6f77656400000000000000000000000000000000006064820152608401610549565b611d25833384612eec565b73ffffffffffffffffffffffffffffffffffffffff8084166000908152600460208181526040808420338552600a810190925280842060065491517f3a46b1a800000000000000000000000000000000000000000000000000000000815292959094937f000000000000000000000000000000000000000000000000000000000000000090911692633a46b1a892611de09289920173ffffffffffffffffffffffffffffffffffffffff929092168252602082015260400190565b60206040518083038186803b158015611df857600080fd5b505afa158015611e0c573d6000803e3d6000fd5b505050506040513d601f19601f82011682018060405250810190611e3091906140bd565b11611e97576040517f08c379a000000000000000000000000000000000000000000000000000000000815260206004820152601e60248201527f4d697373696e67206163636f756e7420646f6573206e6f7420657869737400006044820152606401610549565b805460ff16611f02576040517f08c379a000000000000000000000000000000000000000000000000000000000815260206004820152601a60248201527f5375626d697420496e64657820526571756573742066697273740000000000006044820152606401610549565b831561205d576002600382016000611f1b600188614105565b815260208101919091526040016000205460ff166002811115611f4057611f40613f3b565b14611fa7576040517f08c379a000000000000000000000000000000000000000000000000000000000815260206004820152601b60248201527f4c656674205f696e646578206973206e6f74207265736f6c76656400000000006044820152606401610549565b73ffffffffffffffffffffffffffffffffffffffff8316600b83016000611fcf600188614105565b815260208101919091526040016000205473ffffffffffffffffffffffffffffffffffffffff161061205d576040517f08c379a000000000000000000000000000000000000000000000000000000000815260206004820152601c60248201527f4d697373696e67206163636f756e7420636c61696d206661696c6564000000006044820152606401610549565b81600301548414612189576002600085815260038301602052604090205460ff16600281111561208f5761208f613f3b565b146120f6576040517f08c379a000000000000000000000000000000000000000000000000000000000815260206004820152601c60248201527f5269676874205f696e646578206973206e6f74207265736f6c766564000000006044820152606401610549565b6000848152600b8301602052604090205473ffffffffffffffffffffffffffffffffffffffff90811690841610612189576040517f08c379a000000000000000000000000000000000000000000000000000000000815260206004820152601c60248201527f4d697373696e67206163636f756e7420636c61696d206661696c6564000000006044820152606401610549565b6040805133815273ffffffffffffffffffffffffffffffffffffffff85811660208301528692908816917f801f1b04125440f1b5ed246c42241d26a5041a231feca2fcbc1846a33188fa4e910160405180910390a361107b856135d1565b6121f133826124ab565b50565b73ffffffffffffffffffffffffffffffffffffffff8116600090815260046020526040902060015415801561222c5750600881015442115b801561223b5750600481015442115b15612260576005810154612257576122528261364b565b612260565b612260826135d1565b6001541580159061228957506000600982015460ff16600281111561228757612287613f3b565b145b1561229757612297826135d1565b5050565b60015460009061232d576040517f08c379a000000000000000000000000000000000000000000000000000000000815260206004820152602860248201527f43616e277420636c61696d206265666f726520726f6f7420686173682065737460448201527f61626c69736865640000000000000000000000000000000000000000000000006064820152608401610549565b6006546040517f3a46b1a800000000000000000000000000000000000000000000000000000000815273ffffffffffffffffffffffffffffffffffffffff888116600483015260248201929092526000917f00000000000000000000000000000000000000000000000000000000000000001690633a46b1a89060440160206040518083038186803b1580156123c257600080fd5b505afa1580156123d6573d6000803e3d6000fd5b505050506040513d601f19601f820116820180604052508101906123fa91906140bd565b905061249e868680806020026020016040519081016040528093929190818152602001838360200280828437600092019190915250506001546040517fffffffffffffffffffffffffffffffffffffffff00000000000000000000000060608e901b16602082015260348101879052605481018a90526074810189905290925060940190506040516020818303038152906040528051906020012086600354612cc4565b9150505b95945050505050565b73ffffffffffffffffffffffffffffffffffffffff80821660009081526004602090815260408083209386168352600a8401909152812090600983015460ff1660028111156124fc576124fc613f3b565b141561258a576040517f08c379a000000000000000000000000000000000000000000000000000000000815260206004820152602e60248201527f43616e277420636c61696d205f666565206f6e2070656e64696e6720726f6f7460448201527f20686173682070726f706f73616c0000000000000000000000000000000000006064820152608401610549565b73ffffffffffffffffffffffffffffffffffffffff84166000908152600c8301602052604090205460ff161561261c576040517f08c379a000000000000000000000000000000000000000000000000000000000815260206004820152601360248201527f66656520616c726561647920636c61696d6564000000000000000000000000006044820152606401610549565b8273ffffffffffffffffffffffffffffffffffffffff168473ffffffffffffffffffffffffffffffffffffffff161415612888576002600983015460ff16600281111561266b5761266b613f3b565b14806126c157506001600983015460ff16600281111561268d5761268d613f3b565b14801561269f57506001548260010154145b80156126b057506002548260020154145b80156126c157506003548260030154145b61274d576040517f08c379a000000000000000000000000000000000000000000000000000000000815260206004820152602d60248201527f70726f706f7365722063616e277420636c61696d20666565206f6e206e6f742060448201527f61636365707465642068617368000000000000000000000000000000000000006064820152608401610549565b60078201546040517fa9059cbb00000000000000000000000000000000000000000000000000000000815273ffffffffffffffffffffffffffffffffffffffff868116600483015260248201929092527f00000000000000000000000000000000000000000000000000000000000000009091169063a9059cbb90604401602060405180830381600087803b1580156127e557600080fd5b505af11580156127f9573d6000803e3d6000fd5b505050506040513d601f19601f8201168201806040525081019061281d9190614134565b612883576040517f08c379a000000000000000000000000000000000000000000000000000000000815260206004820152600f60248201527f5472616e73666572204661696c656400000000000000000000000000000000006044820152606401610549565b612acf565b805460ff1680156128b157506001600983015460ff1660028111156128af576128af613f3b565b145b61293d576040517f08c379a000000000000000000000000000000000000000000000000000000000815260206004820152603260248201527f6368616c6c656e676572206d617920636c61696d20666565206f6e2072656a6560448201527f637465642070726f706f73616c206f6e6c7900000000000000000000000000006064820152608401610549565b6000681b1ae4d6e2ef50000082600201546129589190614156565b6006840154336000908152600a86016020526040902060020154600786015492935090916129869190614156565b6129909190614193565b61299a908261411c565b6040517fa9059cbb00000000000000000000000000000000000000000000000000000000815273ffffffffffffffffffffffffffffffffffffffff8781166004830152602482018390529192507f00000000000000000000000000000000000000000000000000000000000000009091169063a9059cbb90604401602060405180830381600087803b158015612a2f57600080fd5b505af1158015612a43573d6000803e3d6000fd5b505050506040513d601f19601f82011682018060405250810190612a679190614134565b612acd576040517f08c379a000000000000000000000000000000000000000000000000000000000815260206004820152600f60248201527f5472616e73666572204661696c656400000000000000000000000000000000006044820152606401610549565b505b5073ffffffffffffffffffffffffffffffffffffffff9092166000908152600c909201602052506040902080547fffffffffffffffffffffffffffffffffffffffffffffffffffffffffffffff00166001179055565b612b2d613b8d565b604080516104408101918290529060079060229082845b815481526020019060010190808311612b44575050505050905090565b6000612b8b7ff86c915dad5894faca0dfa067c58fdf4307406d255ed0a65db394f82b77f53d45490565b73ffffffffffffffffffffffffffffffffffffffff1614612c2e576040517f08c379a000000000000000000000000000000000000000000000000000000000815260206004820152602860248201527f43616e206f6e6c792062652063616c6c656420647572696e6720696e6974696160448201527f6c697a6174696f6e0000000000000000000000000000000000000000000000006064820152608401610549565b612c378161372b565b8073ffffffffffffffffffffffffffffffffffffffff16638bcd2af46040518163ffffffff1660e01b81526004016104406040518083038186803b158015612c7e57600080fd5b505afa158015612c92573d6000803e3d6000fd5b505050506040513d601f19601f82011682018060405250810190612cb691906141ce565b612297906007906022613bac565b60008160018751612cd59190614105565b612ce090600261436d565b1180612cf857508186516002612cf6919061436d565b105b15612d05575060006124a2565b8360005b8751811015612db0576000888281518110612d2657612d26614379565b602002602001015190508186901c60011660011415612d70576040805160208101839052908101849052606001604051602081830303815290604052805190602001209250612d9d565b60408051602081018590529081018290526060016040516020818303038152906040528051906020012092505b5080612da8816143a8565b915050612d09565b5086515b8015612e7657612dc5600182614105565b612dd0600186614105565b901c600116600182612de29190614105565b86901c6001161415612e5f57612df9600182614105565b85901c60011660001415612e5a576007612e14600183614105565b60228110612e2457612e24614379565b015488612e32600184614105565b81518110612e4257612e42614379565b602002602001015114612e5a576000925050506124a2565b612e64565b612e76565b80612e6e816143e1565b915050612db4565b5090941495945050505050565b6000808260601b90506040517f3d602d80600a3d3981f3363d3d373d3d3d363d7300000000000000000000000081528160148201527f5af43d82803e903d91602b57fd5bf3000000000000000000000000000000000060288201526037816000f0949350505050565b73ffffffffffffffffffffffffffffffffffffffff80841660008181526004602052604090209184161415612fa3576040517f08c379a000000000000000000000000000000000000000000000000000000000815260206004820152603560248201527f526f6f7420686173682070726f706f7365722063616e2774206368616c6c656e60448201527f676520697473206f776e207375626d697373696f6e00000000000000000000006064820152608401610549565b600181015461300e576040517f08c379a000000000000000000000000000000000000000000000000000000000815260206004820152601e60248201527f5468657265206973206e6f207375636820686173682070726f706f73616c00006044820152606401610549565b6000600982015460ff16600281111561302957613029613f3b565b14613090576040517f08c379a000000000000000000000000000000000000000000000000000000000815260206004820152601860248201527f5468652070726f706f73616c206973207265736f6c76656400000000000000006044820152606401610549565b81816003015411613149576040517f08c379a000000000000000000000000000000000000000000000000000000000815260206004820152604360248201527f54686520696e646578206861766520746f2062652077697468696e207468652060448201527f72616e6765206f6620636c61696d656420616d6f756e74206f66206163636f7560648201527f6e74730000000000000000000000000000000000000000000000000000000000608482015260a401610549565b73ffffffffffffffffffffffffffffffffffffffff83166000908152600a82016020526040902060029081015490811115613232576002826003015461318f9190614416565b61319a600283614105565b6131a590600261436d565b10613232576040517f08c379a000000000000000000000000000000000000000000000000000000000815260206004820152603760248201527f4368616c6c656e6765722072656163686564206d6178696d756d20616d6f756e60448201527f74206f6620616c6c6f776564206368616c6c656e6765730000000000000000006064820152608401610549565b73ffffffffffffffffffffffffffffffffffffffff84166000908152600a830160205260409020805460ff166132fa57600883015442106132f5576040517f08c379a000000000000000000000000000000000000000000000000000000000815260206004820152602560248201527f54696d6520746f207375626d6974206e6577206368616c6c656e67657320697360448201527f206f7665720000000000000000000000000000000000000000000000000000006064820152608401610549565b61338d565b6001810154421061338d576040517f08c379a000000000000000000000000000000000000000000000000000000000815260206004820152602c60248201527f54696d6520746f207375626d6974206164646974696f6e616c206368616c6c6560448201527f6e676573206973206f76657200000000000000000000000000000000000000006064820152608401610549565b505050505050565b73ffffffffffffffffffffffffffffffffffffffff80831660009081526004602090815260408083209385168352600a8401909152812060068301805491926001926133e290849061411c565b9250508190555060018260050160008282546133fe919061411c565b92505081905550600181600201600082825461341a919061411c565b92505081905550610e10816001016000828254613437919061411c565b90915550506001810154600483015481111561107b57600483018190555050505050565b6040517f23b872dd00000000000000000000000000000000000000000000000000000000815273ffffffffffffffffffffffffffffffffffffffff8481166004830152306024830152604482018390527f000000000000000000000000000000000000000000000000000000000000000016906323b872dd90606401602060405180830381600087803b1580156134f157600080fd5b505af1158015613505573d6000803e3d6000fd5b505050506040513d601f19601f820116820180604052508101906135299190614134565b61358f576040517f08c379a000000000000000000000000000000000000000000000000000000000815260206004820152600f60248201527f5472616e73666572204661696c656400000000000000000000000000000000006044820152606401610549565b73ffffffffffffffffffffffffffffffffffffffff8216600090815260046020526040812060070180548392906135c790849061411c565b9091555050505050565b73ffffffffffffffffffffffffffffffffffffffff811660008181526004602052604080822060090180547fffffffffffffffffffffffffffffffffffffffffffffffffffffffffffffff00166001179055517f0486da07c957c6d8c84150f71701781a2ff604f340139781e25799d9542be76b9190a250565b73ffffffffffffffffffffffffffffffffffffffff811660009081526004602052604090206009810180547fffffffffffffffffffffffffffffffffffffffffffffffffffffffffffffff00166002908117909155600180830154905580820154905560038082015490556136c362ed4e004261411c565b6005556002810154600382015460405173ffffffffffffffffffffffffffffffffffffffff8516927f9588ca37c15542f9c554ca84cc8697a0b5e6974bca1fdadd42c075baa8836a839261371f92918252602082015260400190565b60405180910390a25050565b60006137557ff86c915dad5894faca0dfa067c58fdf4307406d255ed0a65db394f82b77f53d45490565b73ffffffffffffffffffffffffffffffffffffffff16146137f8576040517f08c379a000000000000000000000000000000000000000000000000000000000815260206004820152602860248201527f43616e206f6e6c792062652063616c6c656420647572696e6720696e6974696160448201527f6c697a6174696f6e0000000000000000000000000000000000000000000000006064820152608401610549565b613801816138b6565b6040517f5df8122f00000000000000000000000000000000000000000000000000000000815230600482015273ffffffffffffffffffffffffffffffffffffffff7f0000000000000000000000000000000000000000000000000000000000000000166024820152731820a4b7618bde71dce8cdc73aab6c95905fad2490635df8122f90604401600060405180830381600087803b1580156138a257600080fd5b505af115801561107b573d6000803e3d6000fd5b60006138e07ff86c915dad5894faca0dfa067c58fdf4307406d255ed0a65db394f82b77f53d45490565b73ffffffffffffffffffffffffffffffffffffffff1614613983576040517f08c379a000000000000000000000000000000000000000000000000000000000815260206004820152602860248201527f43616e206f6e6c792062652063616c6c656420647572696e6720696e6974696160448201527f6c697a6174696f6e0000000000000000000000000000000000000000000000006064820152608401610549565b60008173ffffffffffffffffffffffffffffffffffffffff16635c60da1b6040518163ffffffff1660e01b815260040160206040518083038186803b1580156139cb57600080fd5b505afa1580156139df573d6000803e3d6000fd5b505050506040513d601f19601f82011682018060405250810190613a039190614425565b905073ffffffffffffffffffffffffffffffffffffffff8116613aa8576040517f08c379a000000000000000000000000000000000000000000000000000000000815260206004820152602c60248201527f696e697469616c697a6174696f6e206661696c7572653a206e6f7468696e672060448201527f746f20696d706c656d656e7400000000000000000000000000000000000000006064820152608401610549565b612297818073ffffffffffffffffffffffffffffffffffffffff16613aeb7ff86c915dad5894faca0dfa067c58fdf4307406d255ed0a65db394f82b77f53d45490565b73ffffffffffffffffffffffffffffffffffffffff161415613b69576040517f08c379a000000000000000000000000000000000000000000000000000000000815260206004820152601f60248201527f496d706c656d656e746174696f6e20616c7265616479206d61746368696e67006044820152606401610549565b7ff86c915dad5894faca0dfa067c58fdf4307406d255ed0a65db394f82b77f53d455565b6040518061044001604052806022906020820280368337509192915050565b8260228101928215613bda579160200282015b82811115613bda578251825591602001919060010190613bbf565b50613be6929150613bea565b5090565b5b80821115613be65760008155600101613beb565b73ffffffffffffffffffffffffffffffffffffffff811681146121f157600080fd5b60008083601f840112613c3357600080fd5b50813567ffffffffffffffff811115613c4b57600080fd5b6020830191508360208260051b8501011115613c6657600080fd5b9250929050565b600080600080600080600060c0888a031215613c8857600080fd5b8735613c9381613bff565b9650602088013567ffffffffffffffff811115613caf57600080fd5b613cbb8a828b01613c21565b9097509550506040880135613ccf81613bff565b969995985093966060810135956080820135955060a0909101359350915050565b7f4e487b7100000000000000000000000000000000000000000000000000000000600052604160045260246000fd5b604051601f82017fffffffffffffffffffffffffffffffffffffffffffffffffffffffffffffffe016810167ffffffffffffffff81118282101715613d6657613d66613cf0565b604052919050565b60008060408385031215613d8157600080fd5b8235613d8c81613bff565b915060208381013567ffffffffffffffff80821115613daa57600080fd5b818601915086601f830112613dbe57600080fd5b813581811115613dd057613dd0613cf0565b613e00847fffffffffffffffffffffffffffffffffffffffffffffffffffffffffffffffe0601f84011601613d1f565b91508082528784828501011115613e1657600080fd5b80848401858401376000848284010152508093505050509250929050565b600060208284031215613e4657600080fd5b5035919050565b60008060408385031215613e6057600080fd5b8235613e6b81613bff565b946020939093013593505050565b600080600060608486031215613e8e57600080fd5b505081359360208301359350604090920135919050565b60008060408385031215613eb857600080fd5b823591506020830135613eca81613bff565b809150509250929050565b600060208284031215613ee757600080fd5b8135613ef281613bff565b9392505050565b600080600060608486031215613f0e57600080fd5b8335613f1981613bff565b9250602084013591506040840135613f3081613bff565b809150509250925092565b7f4e487b7100000000000000000000000000000000000000000000000000000000600052602160045260246000fd5b6000610140820190508b151582528a60208301528960408301528860608301528760808301528660a08301528560c08301528460e08301528361010083015260038310613fe0577f4e487b7100000000000000000000000000000000000000000000000000000000600052602160045260246000fd5b826101208301529b9a5050505050505050505050565b60008060008060006080868803121561400e57600080fd5b853561401981613bff565b9450602086013567ffffffffffffffff81111561403557600080fd5b61404188828901613c21565b9699909850959660408101359660609091013595509350505050565b6000806040838503121561407057600080fd5b823561407b81613bff565b91506020830135613eca81613bff565b6104408101818360005b60228110156140b4578151835260209283019290910190600101614095565b50505092915050565b6000602082840312156140cf57600080fd5b5051919050565b7f4e487b7100000000000000000000000000000000000000000000000000000000600052601160045260246000fd5b600082821015614117576141176140d6565b500390565b6000821982111561412f5761412f6140d6565b500190565b60006020828403121561414657600080fd5b81518015158114613ef257600080fd5b6000817fffffffffffffffffffffffffffffffffffffffffffffffffffffffffffffffff048311821515161561418e5761418e6140d6565b500290565b6000826141c9577f4e487b7100000000000000000000000000000000000000000000000000000000600052601260045260246000fd5b500490565b60006104408083850312156141e257600080fd5b83601f8401126141f157600080fd5b60405181810181811067ffffffffffffffff8211171561421357614213613cf0565b60405290830190808583111561422857600080fd5b845b8381101561424257805182526020918201910161422a565b509095945050505050565b600181815b808511156142a657817fffffffffffffffffffffffffffffffffffffffffffffffffffffffffffffffff0482111561428c5761428c6140d6565b8085161561429957918102915b93841c9390800290614252565b509250929050565b6000826142bd575060016118e6565b816142ca575060006118e6565b81600181146142e057600281146142ea57614306565b60019150506118e6565b60ff8411156142fb576142fb6140d6565b50506001821b6118e6565b5060208310610133831016604e8410600b8410161715614329575081810a6118e6565b614333838361424d565b807fffffffffffffffffffffffffffffffffffffffffffffffffffffffffffffffff04821115614365576143656140d6565b029392505050565b6000613ef283836142ae565b7f4e487b7100000000000000000000000000000000000000000000000000000000600052603260045260246000fd5b60007fffffffffffffffffffffffffffffffffffffffffffffffffffffffffffffffff8214156143da576143da6140d6565b5060010190565b6000816143f0576143f06140d6565b507fffffffffffffffffffffffffffffffffffffffffffffffffffffffffffffffff0190565b6000613ef260ff8416836142ae565b60006020828403121561443757600080fd5b8151613ef281613bff56fea164736f6c6343000809000af86c915dad5894faca0dfa067c58fdf4307406d255ed0a65db394f82b77f53d4",
  "linkReferences": {},
  "deployedLinkReferences": {}
}