{
  "abi": [
    {
      "inputs": [],
      "name": "InvalidAmount",
      "type": "error"
    },
    {
      "inputs": [],
      "name": "InvalidClaim",
      "type": "error"
    },
    {
      "inputs": [],
      "name": "InvalidLockup",
      "type": "error"
    },
    {
      "inputs": [],
      "name": "InvalidParams",
      "type": "error"
    },
    {
      "inputs": [],
      "name": "NotVested",
      "type": "error"
    },
    {
      "inputs": [],
      "name": "Unauthorized",
      "type": "error"
    },
    {
      "anonymous": false,
      "inputs": [
        {
          "indexed": false,
          "internalType": "address",
          "name": "beneficiary",
          "type": "address"
        },
        {
          "indexed": false,
          "internalType": "address",
          "name": "token",
          "type": "address"
        },
        {
          "indexed": false,
          "internalType": "uint256",
          "name": "amount",
          "type": "uint256"
        }
      ],
      "name": "Claimed",
      "type": "event"
    },
    {
      "anonymous": false,
      "inputs": [
        {
          "indexed": false,
          "internalType": "uint256",
          "name": "amount",
          "type": "uint256"
        }
      ],
      "name": "Clawback",
      "type": "event"
    },
    {
      "anonymous": false,
      "inputs": [
        {
          "indexed": false,
          "internalType": "uint8",
          "name": "version",
          "type": "uint8"
        }
      ],
      "name": "Initialized",
      "type": "event"
    },
    {
      "anonymous": false,
      "inputs": [
        {
          "indexed": true,
          "internalType": "address",
          "name": "previousOwner",
          "type": "address"
        },
        {
          "indexed": true,
          "internalType": "address",
          "name": "newOwner",
          "type": "address"
        }
      ],
      "name": "OwnershipTransferred",
      "type": "event"
    },
    {
      "anonymous": false,
      "inputs": [
        {
          "indexed": false,
          "internalType": "uint256",
          "name": "amount",
          "type": "uint256"
        }
      ],
      "name": "Staked",
      "type": "event"
    },
    {
      "anonymous": false,
      "inputs": [
        {
          "indexed": false,
          "internalType": "uint256",
          "name": "amount",
          "type": "uint256"
        }
      ],
      "name": "Unstaked",
      "type": "event"
    },
    {
      "inputs": [
        {
          "internalType": "uint256",
          "name": "index",
          "type": "uint256"
        }
      ],
      "name": "amountAtIndex",
      "outputs": [
        {
          "internalType": "uint256",
          "name": "",
          "type": "uint256"
        }
      ],
      "stateMutability": "pure",
      "type": "function"
    },
    {
      "inputs": [],
      "name": "amounts",
      "outputs": [
        {
          "internalType": "uint256[]",
          "name": "",
          "type": "uint256[]"
        }
      ],
      "stateMutability": "pure",
      "type": "function"
    },
    {
      "inputs": [],
      "name": "beneficiary",
      "outputs": [
        {
          "internalType": "address",
          "name": "",
          "type": "address"
        }
      ],
      "stateMutability": "pure",
      "type": "function"
    },
    {
      "inputs": [],
      "name": "claim",
      "outputs": [],
      "stateMutability": "nonpayable",
      "type": "function"
    },
    {
      "inputs": [],
      "name": "clawback",
      "outputs": [],
      "stateMutability": "nonpayable",
      "type": "function"
    },
    {
      "inputs": [],
      "name": "clawbackTimestamp",
      "outputs": [
        {
          "internalType": "uint256",
          "name": "",
          "type": "uint256"
        }
      ],
      "stateMutability": "view",
      "type": "function"
    },
    {
      "inputs": [
        {
          "internalType": "address",
          "name": "who",
          "type": "address"
        }
      ],
      "name": "delegate",
      "outputs": [],
      "stateMutability": "nonpayable",
      "type": "function"
    },
    {
      "inputs": [
        {
          "internalType": "address",
          "name": "admin",
          "type": "address"
        },
        {
          "internalType": "address",
          "name": "staking",
          "type": "address"
        }
      ],
      "name": "initialize",
      "outputs": [],
      "stateMutability": "nonpayable",
      "type": "function"
    },
    {
      "inputs": [
        {
          "internalType": "address",
          "name": "admin",
          "type": "address"
        }
      ],
      "name": "initialize",
      "outputs": [],
      "stateMutability": "nonpayable",
      "type": "function"
    },
    {
      "inputs": [],
      "name": "lockup",
      "outputs": [
        {
          "internalType": "address",
          "name": "",
          "type": "address"
        }
      ],
      "stateMutability": "view",
      "type": "function"
    },
    {
      "inputs": [],
      "name": "owner",
      "outputs": [
        {
          "internalType": "address",
          "name": "",
          "type": "address"
        }
      ],
      "stateMutability": "view",
      "type": "function"
    },
    {
      "inputs": [],
      "name": "renounceOwnership",
      "outputs": [],
      "stateMutability": "nonpayable",
      "type": "function"
    },
    {
      "inputs": [
        {
          "internalType": "uint256",
          "name": "amount",
          "type": "uint256"
        }
      ],
      "name": "stake",
      "outputs": [],
      "stateMutability": "nonpayable",
      "type": "function"
    },
    {
      "inputs": [
        {
          "internalType": "uint256",
          "name": "index",
          "type": "uint256"
        }
      ],
      "name": "timestampAtIndex",
      "outputs": [
        {
          "internalType": "uint256",
          "name": "",
          "type": "uint256"
        }
      ],
      "stateMutability": "pure",
      "type": "function"
    },
    {
      "inputs": [],
      "name": "timestamps",
      "outputs": [
        {
          "internalType": "uint256[]",
          "name": "",
          "type": "uint256[]"
        }
      ],
      "stateMutability": "pure",
      "type": "function"
    },
    {
      "inputs": [],
      "name": "token",
      "outputs": [
        {
          "internalType": "contract IERC20Upgradeable",
          "name": "",
          "type": "address"
        }
      ],
      "stateMutability": "pure",
      "type": "function"
    },
    {
      "inputs": [
        {
          "internalType": "address",
          "name": "newOwner",
          "type": "address"
        }
      ],
      "name": "transferOwnership",
      "outputs": [],
      "stateMutability": "nonpayable",
      "type": "function"
    },
    {
      "inputs": [
        {
          "internalType": "uint256",
          "name": "amount",
          "type": "uint256"
        }
      ],
      "name": "unstake",
      "outputs": [
        {
          "internalType": "uint256",
          "name": "",
          "type": "uint256"
        }
      ],
      "stateMutability": "nonpayable",
      "type": "function"
    },
    {
      "inputs": [],
      "name": "unvested",
      "outputs": [
        {
          "internalType": "uint256",
          "name": "",
          "type": "uint256"
        }
      ],
      "stateMutability": "view",
      "type": "function"
    },
    {
      "inputs": [],
      "name": "vested",
      "outputs": [
        {
          "internalType": "uint256",
          "name": "",
          "type": "uint256"
        }
      ],
      "stateMutability": "view",
      "type": "function"
    },
    {
      "inputs": [],
      "name": "vestedChunks",
      "outputs": [
        {
          "internalType": "uint256",
          "name": "",
          "type": "uint256"
        }
      ],
      "stateMutability": "view",
      "type": "function"
    },
    {
      "inputs": [
        {
          "internalType": "uint256",
          "name": "timestamp",
          "type": "uint256"
        }
      ],
      "name": "vestedOn",
      "outputs": [
        {
          "internalType": "uint256",
          "name": "amount",
          "type": "uint256"
        }
      ],
      "stateMutability": "view",
      "type": "function"
    },
    {
      "inputs": [],
      "name": "vestingPeriods",
      "outputs": [
        {
          "internalType": "uint256",
          "name": "",
          "type": "uint256"
        }
      ],
      "stateMutability": "pure",
      "type": "function"
    }
  ],
  "bytecode": {
    "object": "0x608060405234801561001057600080fd5b50611adc806100206000396000f3fe608060405234801561001057600080fd5b506004361061014d5760003560e01c80638da5cb5b116100c3578063da919faa1161007c578063da919faa14610277578063e457c76d1461027f578063f2fde38b14610292578063fc0c546a146102a5578063fdc149ef146102ad578063fea5657c146102b557600080fd5b80638da5cb5b1461021b578063a694fc3a1461022c578063aba022351461023f578063b2b132d814610252578063c0ae7e541461025b578063c4d66de81461026457600080fd5b8063485cc95511610115578063485cc955146101c8578063491447a8146101db5780634e71d92d146101f05780635c19a95c146101f85780636beaeeae1461020b578063715018a61461021357600080fd5b806306490f47146101525780630ed2cb08146101825780632526d960146101a35780632e17de78146101ad57806338af3eed146101c0575b600080fd5b609954610165906001600160a01b031681565b6040516001600160a01b0390911681526020015b60405180910390f35b61019561019036600461179b565b6102bd565b604051908152602001610179565b6101ab6102e3565b005b6101956101bb36600461179b565b61038b565b6101656103ce565b6101ab6101d63660046117c9565b6103df565b6101e36104fd565b6040516101799190611802565b6101ab61052d565b6101ab610206366004611846565b61062c565b6101e3610670565b6101ab61067f565b6065546001600160a01b0316610165565b6101ab61023a36600461179b565b610691565b61019561024d36600461179b565b610764565b61019560985481565b61019560975481565b6101ab610272366004611846565b6108bd565b610195610a62565b61019561028d36600461179b565b610b5e565b6101ab6102a0366004611846565b610b96565b610165610ba7565b610195610bb3565b610195610bbf565b60006102dd6102cd836020611880565b6102d890604861189f565b610be3565b92915050565b6102eb610c05565b6099546040516370a0823160e01b81523060048201526000916001600160a01b0316906370a0823190602401602060405180830381865afa158015610334573d6000803e3d6000fd5b505050506040513d601f19601f8201168201806040525081019061035891906118b7565b90506000610364610a62565b905061037d8183106103765781610c5f565b825b610c5f565b50610386610cfb565b50505b565b60006103956103ce565b6001600160a01b0316336001600160a01b0316146103c5576040516282b42960e81b815260040160405180910390fd5b6102dd82610c5f565b60006103da6014610d56565b905090565b600054610100900460ff16158080156103ff5750600054600160ff909116105b806104195750303b158015610419575060005460ff166001145b61043e5760405162461bcd60e51b8152600401610435906118d0565b60405180910390fd5b6000805460ff191660011790558015610461576000805461ff0019166101001790555b61046a83610d7b565b816001600160a01b0381166104925760405163f38bb1ad60e01b815260040160405180910390fd5b609980546001600160a01b0319166001600160a01b039290921691909117905580156104f8576000805461ff0019169055604051600181527f7f26b83ff96e1f2b6a682f133852f6798a09c465da95921460cefb38474024989060200160405180910390a15b505050565b60606103da61050a610bb3565b610515906020611880565b61052090604861189f565b610528610bb3565b610de5565b610535610ebd565b61053d6103ce565b6001600160a01b0316336001600160a01b03161461056d576040516282b42960e81b815260040160405180910390fd5b6000610577610bbf565b90508060000361059a57604051639225b94160e01b815260040160405180910390fd5b6105a381610f16565b6105c76105ae6103ce565b826105b7610ba7565b6001600160a01b03169190610fa1565b7ff7a40077ff7a04c7e61f6f26fb13774259ddf1b6bce9ecf26a8276cdd39926836105f06103ce565b6105f8610ba7565b604080516001600160a01b039384168152929091166020830152810183905260600160405180910390a15061038960018055565b6106346103ce565b6001600160a01b0316336001600160a01b031614610664576040516282b42960e81b815260040160405180910390fd5b61066d8161100a565b50565b60606103da6048610528610bb3565b610687610c05565b610389600061106c565b6106996103ce565b6001600160a01b0316336001600160a01b0316146106c9576040516282b42960e81b815260040160405180910390fd5b6106d1610ba7565b6040516370a0823160e01b81523060048201526001600160a01b0391909116906370a0823190602401602060405180830381865afa158015610717573d6000803e3d6000fd5b505050506040513d601f19601f8201168201806040525081019061073b91906118b7565b81111561075b5760405163162908e360e11b815260040160405180910390fd5b61066d816110be565b60405163e457c76d60e01b815260006004820181905290309063e457c76d90602401602060405180830381865afa1580156107a3573d6000803e3d6000fd5b505050506040513d601f19601f820116820180604052508101906107c791906118b7565b8210156107d55760006102dd565b6099546040516370a0823160e01b81523060048201526001600160a01b03909116906370a0823190602401602060405180830381865afa15801561081d573d6000803e3d6000fd5b505050506040513d601f19601f8201168201806040525081019061084191906118b7565b610849610ba7565b6040516370a0823160e01b81523060048201526001600160a01b0391909116906370a0823190602401602060405180830381865afa15801561088f573d6000803e3d6000fd5b505050506040513d601f19601f820116820180604052508101906108b391906118b7565b6102dd919061189f565b600054610100900460ff16158080156108dd5750600054600160ff909116105b806108f75750303b1580156108f7575060005460ff166001145b6109135760405162461bcd60e51b8152600401610435906118d0565b6000805460ff191660011790558015610936576000805461ff0019166101001790555b61093f82610d7b565b60006109496111d3565b90506001600160a01b0381166109725760405163f38bb1ad60e01b815260040160405180910390fd5b609980546001600160a01b0319166001600160a01b038316179055610a07610998610ba7565b6040516370a0823160e01b81523060048201526001600160a01b0391909116906370a0823190602401602060405180830381865afa1580156109de573d6000803e3d6000fd5b505050506040513d601f19601f82011682018060405250810190610a0291906118b7565b6110be565b610a17610a126103ce565b61100a565b508015610386576000805461ff0019169055604051600181527f7f26b83ff96e1f2b6a682f133852f6798a09c465da95921460cefb3847402498906020015b60405180910390a15050565b6000610a6c610bbf565b610a74610ba7565b6040516370a0823160e01b81523060048201526001600160a01b0391909116906370a0823190602401602060405180830381865afa158015610aba573d6000803e3d6000fd5b505050506040513d601f19601f82011682018060405250810190610ade91906118b7565b6099546040516370a0823160e01b81523060048201526001600160a01b03909116906370a0823190602401602060405180830381865afa158015610b26573d6000803e3d6000fd5b505050506040513d601f19601f82011682018060405250810190610b4a91906118b7565b610b54919061189f565b6103da919061191e565b60006102dd610b6e836020611880565b610b76610bb3565b610b81906020611880565b610b8c90604861189f565b6102d8919061189f565b610b9e610c05565b61066d8161106c565b60006103da6000610d56565b60006103da6028610be3565b6097546000908015610bda57610bd481610764565b91505090565b610bd442610764565b600080610bfa600119368181013560f01c90030190565b929092013592915050565b6065546001600160a01b031633146103895760405162461bcd60e51b815260206004820181905260248201527f4f776e61626c653a2063616c6c6572206973206e6f7420746865206f776e65726044820152606401610435565b609954604051632e1a7d4d60e01b8152600481018390526000916001600160a01b031690632e1a7d4d90602401600060405180830381600087803b158015610ca657600080fd5b505af1158015610cba573d6000803e3d6000fd5b505050507f11725367022c3ff288940f4b5473aa61c2da6a24af7363a1128ee2401e8983b282604051610cef91815260200190565b60405180910390a15090565b610d03610c05565b426097556000610d11610a62565b9050610d2033826105b7610ba7565b6040518181527fc58da18b0a2173330a740fdbe082fd5ae6e49ea7024d773d85918a54ab81e37e9060200160405180910390a150565b600080610d6d600119368181013560f01c90030190565b929092013560601c92915050565b600054610100900460ff16610da25760405162461bcd60e51b815260040161043590611935565b600080610db0600019611310565b91509150610dbc610bb3565b8114610ddb57604051635435b28960e11b815260040160405180910390fd5b6104f88284611384565b60606000610dfd600119368181013560f01c90030190565b905060008367ffffffffffffffff1667ffffffffffffffff811115610e2457610e24611980565b604051908082528060200260200182016040528015610e4d578160200160208202803683370190505b50925060005b8467ffffffffffffffff168167ffffffffffffffff161015610eb457602081028684010135915081848267ffffffffffffffff1681518110610e9757610e97611996565b602090810291909101015280610eac816119ac565b915050610e53565b50505092915050565b600260015403610f0f5760405162461bcd60e51b815260206004820152601f60248201527f5265656e7472616e637947756172643a207265656e7472616e742063616c6c006044820152606401610435565b6002600155565b6000610f20610ba7565b6040516370a0823160e01b81523060048201526001600160a01b0391909116906370a0823190602401602060405180830381865afa158015610f66573d6000803e3d6000fd5b505050506040513d601f19601f82011682018060405250810190610f8a91906118b7565b905081811015610386576104f8610378828461191e565b6040516001600160a01b0383166024820152604481018290526104f890849063a9059cbb60e01b906064015b60408051601f198184030181529190526020810180516001600160e01b03166001600160e01b0319909316929092179091526113c5565b60018055565b6099546040516317066a5760e21b81526001600160a01b03838116600483015290911690635c19a95c90602401600060405180830381600087803b15801561105157600080fd5b505af1158015611065573d6000803e3d6000fd5b5050505050565b606580546001600160a01b038381166001600160a01b0319831681179093556040519116919082907f8be0079c531659141344cd1fd0a4f28419497f9722a3daafe3b4186f6b6457e090600090a35050565b6099546001600160a01b03166110d2610ba7565b60405163095ea7b360e01b81526001600160a01b03838116600483015260248201859052919091169063095ea7b3906044016020604051808303816000875af1158015611123573d6000803e3d6000fd5b505050506040513d601f19601f8201168201806040525081019061114791906119d3565b5060405163b6b55f2560e01b8152600481018390526001600160a01b0382169063b6b55f2590602401600060405180830381600087803b15801561118a57600080fd5b505af115801561119e573d6000803e3d6000fd5b505050507feebbaa86c348cb664e392b180fd0ff2e1998af9fa833ef69a778cb0b42d3ca2782604051610a5691815260200190565b6000806111de610ba7565b6001600160a01b0316630505c8c96040518163ffffffff1660e01b81526004016020604051808303816000875af115801561121d573d6000803e3d6000fd5b505050506040513d601f19601f8201168201806040525081019061124191906119f5565b9050731820a4b7618bde71dce8cdc73aab6c95905fad246001600160a01b031663aabbb8ca82604051602001611288906a45434f785374616b696e6760a81b8152600b0190565b604051602081830303815290604052805190602001206040518363ffffffff1660e01b81526004016112cf9291906001600160a01b03929092168252602082015260400190565b602060405180830381865afa1580156112ec573d6000803e3d6000fd5b505050506040513d601f19601f82011682018060405250810190610bd491906119f5565b60008060008060985490505b611324610bb3565b8110156113705761133481610b5e565b851061135457611343816102bd565b61134d908361189f565b915061135e565b9094909350915050565b8061136881611a12565b91505061131c565b508061137a610bb3565b9250925050915091565b600054610100900460ff166113ab5760405162461bcd60e51b815260040161043590611935565b6113b3611497565b6113bc8161106c565b610386826114c7565b600061141a826040518060400160405280602081526020017f5361666545524332303a206c6f772d6c6576656c2063616c6c206661696c6564815250856001600160a01b03166115779092919063ffffffff16565b8051909150156104f8578080602001905181019061143891906119d3565b6104f85760405162461bcd60e51b815260206004820152602a60248201527f5361666545524332303a204552433230206f7065726174696f6e20646964206e6044820152691bdd081cdd58d8d9595960b21b6064820152608401610435565b600054610100900460ff166114be5760405162461bcd60e51b815260040161043590611935565b6103893361106c565b600054610100900460ff166114ee5760405162461bcd60e51b815260040161043590611935565b6114f661158e565b6000611500610ba7565b6001600160a01b03160361152757604051635435b28960e11b815260040160405180910390fd5b60006115316103ce565b6001600160a01b03160361155857604051635435b28960e11b815260040160405180910390fd5b61066d333083611566610ba7565b6001600160a01b03169291906115bd565b606061158684846000856115fb565b949350505050565b600054610100900460ff166115b55760405162461bcd60e51b815260040161043590611935565b6103896116d6565b6040516001600160a01b03808516602483015283166044820152606481018290526115f59085906323b872dd60e01b90608401610fcd565b50505050565b60608247101561165c5760405162461bcd60e51b815260206004820152602660248201527f416464726573733a20696e73756666696369656e742062616c616e636520666f6044820152651c8818d85b1b60d21b6064820152608401610435565b600080866001600160a01b031685876040516116789190611a57565b60006040518083038185875af1925050503d80600081146116b5576040519150601f19603f3d011682016040523d82523d6000602084013e6116ba565b606091505b50915091506116cb878383876116fd565b979650505050505050565b600054610100900460ff166110045760405162461bcd60e51b815260040161043590611935565b6060831561176c578251600003611765576001600160a01b0385163b6117655760405162461bcd60e51b815260206004820152601d60248201527f416464726573733a2063616c6c20746f206e6f6e2d636f6e74726163740000006044820152606401610435565b5081611586565b61158683838151156117815781518083602001fd5b8060405162461bcd60e51b81526004016104359190611a73565b6000602082840312156117ad57600080fd5b5035919050565b6001600160a01b038116811461066d57600080fd5b600080604083850312156117dc57600080fd5b82356117e7816117b4565b915060208301356117f7816117b4565b809150509250929050565b6020808252825182820181905260009190848201906040850190845b8181101561183a5783518352928401929184019160010161181e565b50909695505050505050565b60006020828403121561185857600080fd5b8135611863816117b4565b9392505050565b634e487b7160e01b600052601160045260246000fd5b600081600019048311821515161561189a5761189a61186a565b500290565b600082198211156118b2576118b261186a565b500190565b6000602082840312156118c957600080fd5b5051919050565b6020808252602e908201527f496e697469616c697a61626c653a20636f6e747261637420697320616c72656160408201526d191e481a5b9a5d1a585b1a5e995960921b606082015260800190565b6000828210156119305761193061186a565b500390565b6020808252602b908201527f496e697469616c697a61626c653a20636f6e7472616374206973206e6f74206960408201526a6e697469616c697a696e6760a81b606082015260800190565b634e487b7160e01b600052604160045260246000fd5b634e487b7160e01b600052603260045260246000fd5b600067ffffffffffffffff8083168181036119c9576119c961186a565b6001019392505050565b6000602082840312156119e557600080fd5b8151801515811461186357600080fd5b600060208284031215611a0757600080fd5b8151611863816117b4565b600060018201611a2457611a2461186a565b5060010190565b60005b83811015611a46578181015183820152602001611a2e565b838111156115f55750506000910152565b60008251611a69818460208701611a2b565b9190910192915050565b6020815260008251806020840152611a92816040850160208701611a2b565b601f01601f1916919091016040019291505056fea2646970667358221220465bcd40883db0cf618698bf80342a52d165b6923506b4eb26138165ce0a925164736f6c634300080f0033",
    "linkReferences": {}
  },
  "methodIdentifiers": {
    "amountAtIndex(uint256)": "0ed2cb08",
    "amounts()": "6beaeeae",
    "beneficiary()": "38af3eed",
    "claim()": "4e71d92d",
    "clawback()": "2526d960",
    "clawbackTimestamp()": "c0ae7e54",
    "delegate(address)": "5c19a95c",
    "initialize(address)": "c4d66de8",
    "initialize(address,address)": "485cc955",
    "lockup()": "06490f47",
    "owner()": "8da5cb5b",
    "renounceOwnership()": "715018a6",
    "stake(uint256)": "a694fc3a",
    "timestampAtIndex(uint256)": "e457c76d",
    "timestamps()": "491447a8",
    "token()": "fc0c546a",
    "transferOwnership(address)": "f2fde38b",
    "unstake(uint256)": "2e17de78",
    "unvested()": "da919faa",
    "vested()": "fea5657c",
    "vestedChunks()": "b2b132d8",
    "vestedOn(uint256)": "aba02235",
    "vestingPeriods()": "fdc149ef"
  },
  "id": 17
}