{
    "abi": [
        {
            "inputs": [
                {
                    "internalType": "address",
                    "name": "_implementation",
                    "type": "address"
                },
                {
                    "internalType": "address",
                    "name": "_token",
                    "type": "address"
                },
                {
                    "internalType": "address",
                    "name": "_staking",
                    "type": "address"
                }
            ],
            "stateMutability": "nonpayable",
            "type": "constructor"
        },
        {
            "inputs": [],
            "name": "CreateFail",
            "type": "error"
        },
        {
            "inputs": [],
            "name": "InvalidParams",
            "type": "error"
        },
        {
            "anonymous": false,
            "inputs": [
                {
                    "indexed": true,
                    "internalType": "address",
                    "name": "token",
                    "type": "address"
                },
                {
                    "indexed": true,
                    "internalType": "address",
                    "name": "beneficiary",
                    "type": "address"
                },
                {
                    "indexed": true,
                    "internalType": "address",
                    "name": "vault",
                    "type": "address"
                }
            ],
            "name": "VaultCreated",
            "type": "event"
        },
        {
            "inputs": [
                {
                    "internalType": "address",
                    "name": "beneficiary",
                    "type": "address"
                },
                {
                    "internalType": "address",
                    "name": "admin",
                    "type": "address"
                },
                {
                    "internalType": "uint256",
                    "name": "timestamp",
                    "type": "uint256"
                }
            ],
            "name": "createVault",
            "outputs": [
                {
                    "internalType": "address",
                    "name": "",
                    "type": "address"
                }
            ],
            "stateMutability": "nonpayable",
            "type": "function"
        },
        {
            "inputs": [],
            "name": "implementation",
            "outputs": [
                {
                    "internalType": "address",
                    "name": "",
                    "type": "address"
                }
            ],
            "stateMutability": "view",
            "type": "function"
        },
        {
            "inputs": [],
            "name": "staking",
            "outputs": [
                {
                    "internalType": "address",
                    "name": "",
                    "type": "address"
                }
            ],
            "stateMutability": "view",
            "type": "function"
        },
        {
            "inputs": [],
            "name": "token",
            "outputs": [
                {
                    "internalType": "address",
                    "name": "",
                    "type": "address"
                }
            ],
            "stateMutability": "view",
            "type": "function"
        }
    ],
    "bytecode": {
        "object": "0x60e060405234801561001057600080fd5b506040516105b03803806105b083398101604081905261002f91610068565b6001600160a01b0392831660805290821660a0521660c0526100ab565b80516001600160a01b038116811461006357600080fd5b919050565b60008060006060848603121561007d57600080fd5b6100868461004c565b92506100946020850161004c565b91506100a26040850161004c565b90509250925092565b60805160a05160c0516104bd6100f360003960008181605601526101b001526000818160d30152818161011e015261022e01526000818160ac015261016b01526104bd6000f3fe608060405234801561001057600080fd5b506004361061004c5760003560e01c80634cf088d91461005157806358b4b711146100945780635c60da1b146100a7578063fc0c546a146100ce575b600080fd5b6100787f000000000000000000000000000000000000000000000000000000000000000081565b6040516001600160a01b03909116815260200160405180910390f35b6100786100a23660046103ba565b6100f5565b6100787f000000000000000000000000000000000000000000000000000000000000000081565b6100787f000000000000000000000000000000000000000000000000000000000000000081565b604080516020808201835260008083528351808301855285815293519093600193859361014a937f0000000000000000000000000000000000000000000000000000000000000000938b9388939092016103f6565b60408051601f19818403018152919052905060006101916001600160a01b037f0000000000000000000000000000000000000000000000000000000000000000168361028c565b60405163485cc95560e01b81526001600160a01b0388811660048301527f0000000000000000000000000000000000000000000000000000000000000000811660248301529192509082169063485cc95590604401600060405180830381600087803b15801561020057600080fd5b505af1158015610214573d6000803e3d6000fd5b50505050806001600160a01b0316876001600160a01b03167f00000000000000000000000000000000000000000000000000000000000000006001600160a01b03167f897c133dfbfe1f6239e98b4ffd7e4f6c86a62350a131a7a37790419f58af02f960405160405180910390a49695505050505050565b8051604051606160f81b81526039820160f081811b60018401526f3d81600a3d39f33d3d3d3d363d3d376160801b600384015260028401901b601383018190526560373639366160d01b6015840152601b83015262013d7360e81b601d830152606085901b6020808401919091526c5af43d3d93803e603557fd5bf360981b60348401526000939260438401929186019084604182015b602082106103425783518152602093840193601f199092019101610323565b835160001960208490036101000a0119908116825260f088901b91830191825286846000f098506001600160a01b03891661039057604051631d7fde3160e31b815260040160405180910390fd5b505050505050505092915050565b80356001600160a01b03811681146103b557600080fd5b919050565b6000806000606084860312156103cf57600080fd5b6103d88461039e565b92506103e66020850161039e565b9150604084013590509250925092565b60006bffffffffffffffffffffffff19808860601b168352808760601b16601484015250846028830152604882018460005b600181101561044a57815160ff16835260209283019290910190600101610428565b505050606882018360005b6001811015610474578151835260209283019290910190600101610455565b505050608882019050969550505050505056fea2646970667358221220f18c65604443c38f85ec71e13bc7205911eeba3f772d69b7f12c62845de254bc64736f6c634300080f0033",
        "linkReferences": {}
    },
    "methodIdentifiers": {
        "createVault(address,address,uint256)": "58b4b711",
        "implementation()": "5c60da1b",
        "staking()": "4cf088d9",
        "token()": "fc0c546a"
    },
    "id": 18
}