{
  "_format": "hh-sol-artifact-1",
  "contractName": "Lockup",
  "sourceName": "contracts/governance/monetary/Lockup.sol",
  "abi": [
    {
      "inputs": [
        {
          "internalType": "contract Policy",
          "name": "_policy",
          "type": "address"
        },
        {
          "internalType": "contract ECO",
          "name": "_ecoAddr",
          "type": "address"
        },
        {
          "internalType": "contract CurrencyTimer",
          "name": "_timerAddr",
          "type": "address"
        }
      ],
      "stateMutability": "nonpayable",
      "type": "constructor"
    },
    {
      "anonymous": false,
      "inputs": [
        {
          "indexed": true,
          "internalType": "address",
          "name": "to",
          "type": "address"
        },
        {
          "indexed": false,
          "internalType": "uint256",
          "name": "amount",
          "type": "uint256"
        }
      ],
      "name": "Deposit",
      "type": "event"
    },
    {
      "anonymous": false,
      "inputs": [
        {
          "indexed": true,
          "internalType": "address",
          "name": "to",
          "type": "address"
        },
        {
          "indexed": false,
          "internalType": "uint256",
          "name": "amount",
          "type": "uint256"
        }
      ],
      "name": "Withdrawal",
      "type": "event"
    },
    {
      "inputs": [],
      "name": "DEPOSIT_WINDOW",
      "outputs": [
        {
          "internalType": "uint256",
          "name": "",
          "type": "uint256"
        }
      ],
      "stateMutability": "view",
      "type": "function"
    },
    {
      "inputs": [],
      "name": "INTEREST_DIVISOR",
      "outputs": [
        {
          "internalType": "uint256",
          "name": "",
          "type": "uint256"
        }
      ],
      "stateMutability": "view",
      "type": "function"
    },
    {
      "inputs": [
        {
          "internalType": "bytes32",
          "name": "",
          "type": "bytes32"
        },
        {
          "internalType": "address",
          "name": "_addr",
          "type": "address"
        }
      ],
      "name": "canImplementInterfaceForAddress",
      "outputs": [
        {
          "internalType": "bytes32",
          "name": "",
          "type": "bytes32"
        }
      ],
      "stateMutability": "view",
      "type": "function"
    },
    {
      "inputs": [],
      "name": "clone",
      "outputs": [
        {
          "internalType": "address",
          "name": "",
          "type": "address"
        }
      ],
      "stateMutability": "nonpayable",
      "type": "function"
    },
    {
      "inputs": [
        {
          "internalType": "uint256",
          "name": "_duration",
          "type": "uint256"
        },
        {
          "internalType": "uint256",
          "name": "_interest",
          "type": "uint256"
        }
      ],
      "name": "clone",
      "outputs": [
        {
          "internalType": "contract Lockup",
          "name": "",
          "type": "address"
        }
      ],
      "stateMutability": "nonpayable",
      "type": "function"
    },
    {
      "inputs": [],
      "name": "currencyTimer",
      "outputs": [
        {
          "internalType": "contract CurrencyTimer",
          "name": "",
          "type": "address"
        }
      ],
      "stateMutability": "view",
      "type": "function"
    },
    {
      "inputs": [
        {
          "internalType": "uint256",
          "name": "_amount",
          "type": "uint256"
        }
      ],
      "name": "deposit",
      "outputs": [],
      "stateMutability": "nonpayable",
      "type": "function"
    },
    {
      "inputs": [
        {
          "internalType": "uint256",
          "name": "_amount",
          "type": "uint256"
        },
        {
          "internalType": "address",
          "name": "_benefactor",
          "type": "address"
        }
      ],
      "name": "depositFor",
      "outputs": [],
      "stateMutability": "nonpayable",
      "type": "function"
    },
    {
      "inputs": [],
      "name": "depositWindowEnd",
      "outputs": [
        {
          "internalType": "uint256",
          "name": "",
          "type": "uint256"
        }
      ],
      "stateMutability": "view",
      "type": "function"
    },
    {
      "inputs": [
        {
          "internalType": "address",
          "name": "",
          "type": "address"
        }
      ],
      "name": "deposits",
      "outputs": [
        {
          "internalType": "uint256",
          "name": "gonsDepositAmount",
          "type": "uint256"
        },
        {
          "internalType": "uint256",
          "name": "ecoDepositReward",
          "type": "uint256"
        },
        {
          "internalType": "uint256",
          "name": "lockupEnd",
          "type": "uint256"
        },
        {
          "internalType": "address",
          "name": "delegate",
          "type": "address"
        }
      ],
      "stateMutability": "view",
      "type": "function"
    },
    {
      "inputs": [],
      "name": "duration",
      "outputs": [
        {
          "internalType": "uint256",
          "name": "",
          "type": "uint256"
        }
      ],
      "stateMutability": "view",
      "type": "function"
    },
    {
      "inputs": [],
      "name": "ecoToken",
      "outputs": [
        {
          "internalType": "contract ECO",
          "name": "",
          "type": "address"
        }
      ],
      "stateMutability": "view",
      "type": "function"
    },
    {
      "inputs": [],
      "name": "implementation",
      "outputs": [
        {
          "internalType": "address",
          "name": "_impl",
          "type": "address"
        }
      ],
      "stateMutability": "view",
      "type": "function"
    },
    {
      "inputs": [
        {
          "internalType": "address",
          "name": "_self",
          "type": "address"
        },
        {
          "internalType": "uint256",
          "name": "_duration",
          "type": "uint256"
        },
        {
          "internalType": "uint256",
          "name": "_interest",
          "type": "uint256"
        }
      ],
      "name": "initialize",
      "outputs": [],
      "stateMutability": "nonpayable",
      "type": "function"
    },
    {
      "inputs": [
        {
          "internalType": "address",
          "name": "_self",
          "type": "address"
        }
      ],
      "name": "initialize",
      "outputs": [],
      "stateMutability": "nonpayable",
      "type": "function"
    },
    {
      "inputs": [],
      "name": "interest",
      "outputs": [
        {
          "internalType": "uint256",
          "name": "",
          "type": "uint256"
        }
      ],
      "stateMutability": "view",
      "type": "function"
    },
    {
      "inputs": [],
      "name": "policy",
      "outputs": [
        {
          "internalType": "contract Policy",
          "name": "",
          "type": "address"
        }
      ],
      "stateMutability": "view",
      "type": "function"
    },
    {
      "inputs": [
        {
          "internalType": "address",
          "name": "_delegate",
          "type": "address"
        },
        {
          "internalType": "bytes",
          "name": "_data",
          "type": "bytes"
        }
      ],
      "name": "policyCommand",
      "outputs": [],
      "stateMutability": "nonpayable",
      "type": "function"
    },
    {
      "inputs": [
        {
          "internalType": "address",
          "name": "_addr",
          "type": "address"
        }
      ],
      "name": "setExpectedInterfaceSet",
      "outputs": [],
      "stateMutability": "nonpayable",
      "type": "function"
    },
    {
      "inputs": [],
      "name": "withdraw",
      "outputs": [],
      "stateMutability": "nonpayable",
      "type": "function"
    },
    {
      "inputs": [
        {
          "internalType": "address",
          "name": "_who",
          "type": "address"
        }
      ],
      "name": "withdrawFor",
      "outputs": [],
      "stateMutability": "nonpayable",
      "type": "function"
    }
  ],
  "bytecode": "0x60e06040523480156200001157600080fd5b50604051620021be380380620021be833981016040819052620000349162000181565b82806200004130620000d7565b6001600160a01b03908116608052604051635df8122f60e01b81523060048201529082166024820152731820a4b7618bde71dce8cdc73aab6c95905fad2490635df8122f90604401600060405180830381600087803b158015620000a457600080fd5b505af1158015620000b9573d6000803e3d6000fd5b5050506001600160a01b0393841660a05250501660c05250620001d5565b6001600160a01b038116620000f96000805160206200219e8339815191525490565b6001600160a01b03161415620001555760405162461bcd60e51b815260206004820152601f60248201527f496d706c656d656e746174696f6e20616c7265616479206d61746368696e6700604482015260640160405180910390fd5b6000805160206200219e83398151915255565b6001600160a01b03811681146200017e57600080fd5b50565b6000806000606084860312156200019757600080fd5b8351620001a48162000168565b6020850151909350620001b78162000168565b6040850151909250620001ca8162000168565b809150509250925092565b60805160a05160c051611f45620002596000396000818161022c01526117520152600081816102bb01528181610eb101528181610fec015281816110bf015281816111880152818161146001528181611574015261161a015260008181610181015281816103d601528181610617015281816107860152610cf30152611f456000f3fe608060405234801561001057600080fd5b50600436106101775760003560e01c80633ccfd60b116100d85780639eca672c1161008c578063c4d66de811610066578063c4d66de81461031f578063f046686614610332578063fc7e286d1461033d57600080fd5b80639eca672c146102f0578063b6b55f2514610303578063c392f7661461031657600080fd5b80635c60da1b116100bd5780635c60da1b1461028f578063705d5304146102b65780637a1ac61e146102dd57600080fd5b80633ccfd60b14610274578063442dbdc31461027c57600080fd5b806312d4ddf81161012f578063309848f511610114578063309848f51461022757806336efd16f1461024e57806339634e0c1461026157600080fd5b806312d4ddf81461020b578063249cb3fa1461021457600080fd5b806309d7f23b1161016057806309d7f23b146101e557806309ed4607146101fa5780630fb5a6b41461020257600080fd5b80630505c8c91461017c57806305c0dd91146101cd575b600080fd5b6101a37f000000000000000000000000000000000000000000000000000000000000000081565b60405173ffffffffffffffffffffffffffffffffffffffff90911681526020015b60405180910390f35b6101d76202a30081565b6040519081526020016101c4565b6101f86101f3366004611c64565b6103be565b005b6101a36104b2565b6101d760015481565b6101d760025481565b6101d7610222366004611d46565b610613565b6101a37f000000000000000000000000000000000000000000000000000000000000000081565b6101f861025c366004611d46565b61075f565b6101f861026f366004611d76565b61076e565b6101f861087a565b6101a361028a366004611d9a565b610887565b7ff86c915dad5894faca0dfa067c58fdf4307406d255ed0a65db394f82b77f53d4546101a3565b6101a37f000000000000000000000000000000000000000000000000000000000000000081565b6101f86102eb366004611dbc565b610acc565b6101f86102fe366004611d76565b610bc1565b6101f8610311366004611df1565b610bcf565b6101d760035481565b6101f861032d366004611d76565b610bda565b6101d7633b9aca0081565b61038861034b366004611d76565b60046020526000908152604090208054600182015460028301546003909301549192909173ffffffffffffffffffffffffffffffffffffffff1684565b6040805194855260208501939093529183015273ffffffffffffffffffffffffffffffffffffffff1660608201526080016101c4565b3373ffffffffffffffffffffffffffffffffffffffff7f00000000000000000000000000000000000000000000000000000000000000001614610488576040517f08c379a000000000000000000000000000000000000000000000000000000000815260206004820152602e60248201527f4f6e6c792074686520706f6c69637920636f6e7472616374206d61792063616c60448201527f6c2074686973206d6574686f642e00000000000000000000000000000000000060648201526084015b60405180910390fd5b600080825160208401855af43d806000803e8180156104a657816000f35b816000fd5b5050505050565b6000306104dd7ff86c915dad5894faca0dfa067c58fdf4307406d255ed0a65db394f82b77f53d45490565b73ffffffffffffffffffffffffffffffffffffffff1614610580576040517f08c379a000000000000000000000000000000000000000000000000000000000815260206004820152602660248201527f54686973206d6574686f642063616e6e6f742062652063616c6c6564206f6e2060448201527f636c6f6e65730000000000000000000000000000000000000000000000000000606482015260840161047f565b600061058b30610d65565b6040517fc4d66de800000000000000000000000000000000000000000000000000000000815230600482015290915073ffffffffffffffffffffffffffffffffffffffff82169063c4d66de890602401600060405180830381600087803b1580156105f557600080fd5b505af1158015610609573d6000803e3d6000fd5b5092949350505050565b60007f000000000000000000000000000000000000000000000000000000000000000073ffffffffffffffffffffffffffffffffffffffff168273ffffffffffffffffffffffffffffffffffffffff161480610689575060005473ffffffffffffffffffffffffffffffffffffffff8381169116145b610715576040517f08c379a000000000000000000000000000000000000000000000000000000000815260206004820152603c60248201527f4f6e6c792074686520706f6c696379206f7220696e7465726661636520636f6e60448201527f74726163742063616e207365742074686520696e746572666163652e00000000606482015260840161047f565b6040517f455243313832305f4143434550545f4d41474943000000000000000000000000602082015260340160405160208183030381529060405280519060200120905092915050565b61076a823383610dce565b5050565b3373ffffffffffffffffffffffffffffffffffffffff7f00000000000000000000000000000000000000000000000000000000000000001614610833576040517f08c379a000000000000000000000000000000000000000000000000000000000815260206004820152602e60248201527f4f6e6c792074686520706f6c69637920636f6e7472616374206d61792063616c60448201527f6c2074686973206d6574686f642e000000000000000000000000000000000000606482015260840161047f565b600080547fffffffffffffffffffffffff00000000000000000000000000000000000000001673ffffffffffffffffffffffffffffffffffffffff92909216919091179055565b6108853360016112d4565b565b6000306108b27ff86c915dad5894faca0dfa067c58fdf4307406d255ed0a65db394f82b77f53d45490565b73ffffffffffffffffffffffffffffffffffffffff1614610955576040517f08c379a000000000000000000000000000000000000000000000000000000000815260206004820152602660248201527f54686973206d6574686f642063616e6e6f742062652063616c6c6564206f6e2060448201527f636c6f6e65730000000000000000000000000000000000000000000000000000606482015260840161047f565b600083116109bf576040517f08c379a000000000000000000000000000000000000000000000000000000000815260206004820152601b60248201527f6475726174696f6e2073686f756c64206e6f74206265207a65726f0000000000604482015260640161047f565b60008211610a29576040517f08c379a000000000000000000000000000000000000000000000000000000000815260206004820152601b60248201527f696e7465726573742073686f756c64206e6f74206265207a65726f0000000000604482015260640161047f565b6000610a3430610d65565b6040517f7a1ac61e000000000000000000000000000000000000000000000000000000008152306004820152602481018690526044810185905290915073ffffffffffffffffffffffffffffffffffffffff821690637a1ac61e90606401600060405180830381600087803b158015610aac57600080fd5b505af1158015610ac0573d6000803e3d6000fd5b50929695505050505050565b6000610af67ff86c915dad5894faca0dfa067c58fdf4307406d255ed0a65db394f82b77f53d45490565b73ffffffffffffffffffffffffffffffffffffffff1614610b99576040517f08c379a000000000000000000000000000000000000000000000000000000000815260206004820152602860248201527f43616e206f6e6c792062652063616c6c656420647572696e6720696e6974696160448201527f6c697a6174696f6e000000000000000000000000000000000000000000000000606482015260840161047f565b610ba283610bda565b60018290556003819055610bb96202a30042611e39565b600255505050565b610bcc8160006112d4565b50565b610bcc813333610dce565b6000610c047ff86c915dad5894faca0dfa067c58fdf4307406d255ed0a65db394f82b77f53d45490565b73ffffffffffffffffffffffffffffffffffffffff1614610ca7576040517f08c379a000000000000000000000000000000000000000000000000000000000815260206004820152602860248201527f43616e206f6e6c792062652063616c6c656420647572696e6720696e6974696160448201527f6c697a6174696f6e000000000000000000000000000000000000000000000000606482015260840161047f565b610cb08161186b565b6040517f5df8122f00000000000000000000000000000000000000000000000000000000815230600482015273ffffffffffffffffffffffffffffffffffffffff7f0000000000000000000000000000000000000000000000000000000000000000166024820152731820a4b7618bde71dce8cdc73aab6c95905fad2490635df8122f90604401600060405180830381600087803b158015610d5157600080fd5b505af11580156104ab573d6000803e3d6000fd5b6000808260601b90506040517f3d602d80600a3d3981f3363d3d373d3d3d363d7300000000000000000000000081528160148201527f5af43d82803e903d91602b57fd5bf3000000000000000000000000000000000060288201526037816000f0949350505050565b6002544210610e5f576040517f08c379a000000000000000000000000000000000000000000000000000000000815260206004820152602c60248201527f4465706f736974732063616e206f6e6c79206265206d61646520647572696e6760448201527f2073616c652077696e646f770000000000000000000000000000000000000000606482015260840161047f565b6040517f23b872dd00000000000000000000000000000000000000000000000000000000815273ffffffffffffffffffffffffffffffffffffffff8381166004830152306024830152604482018590527f000000000000000000000000000000000000000000000000000000000000000016906323b872dd90606401602060405180830381600087803b158015610ef557600080fd5b505af1158015610f09573d6000803e3d6000fd5b505050506040513d601f19601f82011682018060405250810190610f2d9190611e51565b610f93576040517f08c379a000000000000000000000000000000000000000000000000000000000815260206004820152600f60248201527f5472616e73666572204661696c65640000000000000000000000000000000000604482015260640161047f565b73ffffffffffffffffffffffffffffffffffffffff818116600090815260046020819052604080832090517ffd11b4d30000000000000000000000000000000000000000000000000000000081524392810192909252927f0000000000000000000000000000000000000000000000000000000000000000169063fd11b4d39060240160206040518083038186803b15801561102e57600080fd5b505afa158015611042573d6000803e3d6000fd5b505050506040513d601f19601f820116820180604052508101906110669190611e73565b905060006110748287611e8c565b6040517f8d57d74800000000000000000000000000000000000000000000000000000000815273ffffffffffffffffffffffffffffffffffffffff86811660048301529192506000917f00000000000000000000000000000000000000000000000000000000000000001690638d57d7489060240160206040518083038186803b15801561110157600080fd5b505afa158015611115573d6000803e3d6000fd5b505050506040513d601f19601f820116820180604052508101906111399190611ec9565b6040517f3edb7f8300000000000000000000000000000000000000000000000000000000815273ffffffffffffffffffffffffffffffffffffffff8083166004830152602482018590529192507f000000000000000000000000000000000000000000000000000000000000000090911690633edb7f8390604401600060405180830381600087803b1580156111ce57600080fd5b505af11580156111e2573d6000803e3d6000fd5b505050506001546111f04290565b6111fa9190611e39565b6002850155600354633b9aca00906112129089611e8c565b61121c9190611ee6565b84600101600082825461122f9190611e39565b9091555050835482908590600090611248908490611e39565b90915550506003840180547fffffffffffffffffffffffff00000000000000000000000000000000000000001673ffffffffffffffffffffffffffffffffffffffff83811691909117909155604051888152908616907fe1fffcc4923d04b559f4d29a8bfc6cda04eb5b0d3c460751c2402c5c5cc9109c9060200160405180910390a250505050505050565b73ffffffffffffffffffffffffffffffffffffffff82166000908152600460205260409020805480611388576040517f08c379a000000000000000000000000000000000000000000000000000000000815260206004820152603d60248201527f5769746864726177616c732063616e206f6e6c79206265206d61646520666f7260448201527f206163636f756e747320776974682076616c6964206465706f73697473000000606482015260840161047f565b600082600201546113964290565b10905083806113a3575080155b61142f576040517f08c379a000000000000000000000000000000000000000000000000000000000815260206004820152602160248201527f4f6e6c79206465706f7369746f72206d6179207769746864726177206561726c60448201527f7900000000000000000000000000000000000000000000000000000000000000606482015260840161047f565b6040517ffd11b4d30000000000000000000000000000000000000000000000000000000081524360048201526000907f000000000000000000000000000000000000000000000000000000000000000073ffffffffffffffffffffffffffffffffffffffff169063fd11b4d39060240160206040518083038186803b1580156114b757600080fd5b505afa1580156114cb573d6000803e3d6000fd5b505050506040513d601f19601f820116820180604052508101906114ef9190611e73565b905060006114fd8285611ee6565b600186015490915060008183116115145782611516565b815b6000808955600189015560038801546040517f47b039bd00000000000000000000000000000000000000000000000000000000815273ffffffffffffffffffffffffffffffffffffffff9182166004820152602481018990529192507f000000000000000000000000000000000000000000000000000000000000000016906347b039bd90604401600060405180830381600087803b1580156115b857600080fd5b505af11580156115cc573d6000803e3d6000fd5b50506040517fa9059cbb00000000000000000000000000000000000000000000000000000000815273ffffffffffffffffffffffffffffffffffffffff8c81166004830152602482018790527f000000000000000000000000000000000000000000000000000000000000000016925063a9059cbb9150604401602060405180830381600087803b15801561166057600080fd5b505af1158015611674573d6000803e3d6000fd5b505050506040513d601f19601f820116820180604052508101906116989190611e51565b6116fe576040517f08c379a000000000000000000000000000000000000000000000000000000000815260206004820152600f60248201527f5472616e73666572204661696c65640000000000000000000000000000000000604482015260640161047f565b6040517fb39572f000000000000000000000000000000000000000000000000000000000815273ffffffffffffffffffffffffffffffffffffffff8a811660048301526024820183905286151560448301527f0000000000000000000000000000000000000000000000000000000000000000169063b39572f090606401600060405180830381600087803b15801561179657600080fd5b505af11580156117aa573d6000803e3d6000fd5b50505050841561180c5773ffffffffffffffffffffffffffffffffffffffff89167f7fcf532c15f0a6db0bd6d0e038bea71d30d808c7d98cb3bf7268a95bf5081b656117f68386611f21565b60405190815260200160405180910390a2611860565b73ffffffffffffffffffffffffffffffffffffffff89167f7fcf532c15f0a6db0bd6d0e038bea71d30d808c7d98cb3bf7268a95bf5081b6561184e8386611e39565b60405190815260200160405180910390a25b505050505050505050565b60006118957ff86c915dad5894faca0dfa067c58fdf4307406d255ed0a65db394f82b77f53d45490565b73ffffffffffffffffffffffffffffffffffffffff1614611938576040517f08c379a000000000000000000000000000000000000000000000000000000000815260206004820152602860248201527f43616e206f6e6c792062652063616c6c656420647572696e6720696e6974696160448201527f6c697a6174696f6e000000000000000000000000000000000000000000000000606482015260840161047f565b610bcc8160006119667ff86c915dad5894faca0dfa067c58fdf4307406d255ed0a65db394f82b77f53d45490565b73ffffffffffffffffffffffffffffffffffffffff1614611a09576040517f08c379a000000000000000000000000000000000000000000000000000000000815260206004820152602860248201527f43616e206f6e6c792062652063616c6c656420647572696e6720696e6974696160448201527f6c697a6174696f6e000000000000000000000000000000000000000000000000606482015260840161047f565b60008173ffffffffffffffffffffffffffffffffffffffff16635c60da1b6040518163ffffffff1660e01b815260040160206040518083038186803b158015611a5157600080fd5b505afa158015611a65573d6000803e3d6000fd5b505050506040513d601f19601f82011682018060405250810190611a899190611ec9565b905073ffffffffffffffffffffffffffffffffffffffff8116611b2e576040517f08c379a000000000000000000000000000000000000000000000000000000000815260206004820152602c60248201527f696e697469616c697a6174696f6e206661696c7572653a206e6f7468696e672060448201527f746f20696d706c656d656e740000000000000000000000000000000000000000606482015260840161047f565b61076a818073ffffffffffffffffffffffffffffffffffffffff16611b717ff86c915dad5894faca0dfa067c58fdf4307406d255ed0a65db394f82b77f53d45490565b73ffffffffffffffffffffffffffffffffffffffff161415611bef576040517f08c379a000000000000000000000000000000000000000000000000000000000815260206004820152601f60248201527f496d706c656d656e746174696f6e20616c7265616479206d61746368696e6700604482015260640161047f565b7ff86c915dad5894faca0dfa067c58fdf4307406d255ed0a65db394f82b77f53d455565b73ffffffffffffffffffffffffffffffffffffffff81168114610bcc57600080fd5b7f4e487b7100000000000000000000000000000000000000000000000000000000600052604160045260246000fd5b60008060408385031215611c7757600080fd5b8235611c8281611c13565b9150602083013567ffffffffffffffff80821115611c9f57600080fd5b818501915085601f830112611cb357600080fd5b813581811115611cc557611cc5611c35565b604051601f82017fffffffffffffffffffffffffffffffffffffffffffffffffffffffffffffffe0908116603f01168101908382118183101715611d0b57611d0b611c35565b81604052828152886020848701011115611d2457600080fd5b8260208601602083013760006020848301015280955050505050509250929050565b60008060408385031215611d5957600080fd5b823591506020830135611d6b81611c13565b809150509250929050565b600060208284031215611d8857600080fd5b8135611d9381611c13565b9392505050565b60008060408385031215611dad57600080fd5b50508035926020909101359150565b600080600060608486031215611dd157600080fd5b8335611ddc81611c13565b95602085013595506040909401359392505050565b600060208284031215611e0357600080fd5b5035919050565b7f4e487b7100000000000000000000000000000000000000000000000000000000600052601160045260246000fd5b60008219821115611e4c57611e4c611e0a565b500190565b600060208284031215611e6357600080fd5b81518015158114611d9357600080fd5b600060208284031215611e8557600080fd5b5051919050565b6000817fffffffffffffffffffffffffffffffffffffffffffffffffffffffffffffffff0483118215151615611ec457611ec4611e0a565b500290565b600060208284031215611edb57600080fd5b8151611d9381611c13565b600082611f1c577f4e487b7100000000000000000000000000000000000000000000000000000000600052601260045260246000fd5b500490565b600082821015611f3357611f33611e0a565b50039056fea164736f6c6343000809000af86c915dad5894faca0dfa067c58fdf4307406d255ed0a65db394f82b77f53d4",
  "linkReferences": {},
  "deployedLinkReferences": {}
}