{
  "contractName": "PolicyVotes",
  "abi": [
    {
      "inputs": [
        {
          "internalType": "address",
          "name": "_policy",
          "type": "address"
        }
      ],
      "stateMutability": "nonpayable",
      "type": "constructor"
    },
    {
      "anonymous": false,
      "inputs": [
        {
          "indexed": true,
          "internalType": "address",
          "name": "voter",
          "type": "address"
        },
        {
          "indexed": false,
          "internalType": "bool",
          "name": "vote",
          "type": "bool"
        },
        {
          "indexed": false,
          "internalType": "uint256",
          "name": "amount",
          "type": "uint256"
        }
      ],
      "name": "PolicyVoteCast",
      "type": "event"
    },
    {
      "anonymous": false,
      "inputs": [
        {
          "indexed": false,
          "internalType": "enum PolicyVotes.Result",
          "name": "result",
          "type": "uint8"
        }
      ],
      "name": "VoteCompleted",
      "type": "event"
    },
    {
      "inputs": [],
      "name": "ENACTION_DELAY",
      "outputs": [
        {
          "internalType": "uint256",
          "name": "",
          "type": "uint256"
        }
      ],
      "stateMutability": "view",
      "type": "function"
    },
    {
      "inputs": [],
      "name": "ID_CLEANUP",
      "outputs": [
        {
          "internalType": "bytes32",
          "name": "",
          "type": "bytes32"
        }
      ],
      "stateMutability": "view",
      "type": "function"
    },
    {
      "inputs": [],
      "name": "ID_CURRENCY_GOVERNANCE",
      "outputs": [
        {
          "internalType": "bytes32",
          "name": "",
          "type": "bytes32"
        }
      ],
      "stateMutability": "view",
      "type": "function"
    },
    {
      "inputs": [],
      "name": "ID_CURRENCY_TIMER",
      "outputs": [
        {
          "internalType": "bytes32",
          "name": "",
          "type": "bytes32"
        }
      ],
      "stateMutability": "view",
      "type": "function"
    },
    {
      "inputs": [],
      "name": "ID_ECO",
      "outputs": [
        {
          "internalType": "bytes32",
          "name": "",
          "type": "bytes32"
        }
      ],
      "stateMutability": "view",
      "type": "function"
    },
    {
      "inputs": [],
      "name": "ID_ECOX",
      "outputs": [
        {
          "internalType": "bytes32",
          "name": "",
          "type": "bytes32"
        }
      ],
      "stateMutability": "view",
      "type": "function"
    },
    {
      "inputs": [],
      "name": "ID_ECOXLOCKUP",
      "outputs": [
        {
          "internalType": "bytes32",
          "name": "",
          "type": "bytes32"
        }
      ],
      "stateMutability": "view",
      "type": "function"
    },
    {
      "inputs": [],
      "name": "ID_ECO_LABS",
      "outputs": [
        {
          "internalType": "bytes32",
          "name": "",
          "type": "bytes32"
        }
      ],
      "stateMutability": "view",
      "type": "function"
    },
    {
      "inputs": [],
      "name": "ID_FAUCET",
      "outputs": [
        {
          "internalType": "bytes32",
          "name": "",
          "type": "bytes32"
        }
      ],
      "stateMutability": "view",
      "type": "function"
    },
    {
      "inputs": [],
      "name": "ID_POLICY_PROPOSALS",
      "outputs": [
        {
          "internalType": "bytes32",
          "name": "",
          "type": "bytes32"
        }
      ],
      "stateMutability": "view",
      "type": "function"
    },
    {
      "inputs": [],
      "name": "ID_POLICY_VOTES",
      "outputs": [
        {
          "internalType": "bytes32",
          "name": "",
          "type": "bytes32"
        }
      ],
      "stateMutability": "view",
      "type": "function"
    },
    {
      "inputs": [],
      "name": "ID_TIMED_POLICIES",
      "outputs": [
        {
          "internalType": "bytes32",
          "name": "",
          "type": "bytes32"
        }
      ],
      "stateMutability": "view",
      "type": "function"
    },
    {
      "inputs": [],
      "name": "ID_TRUSTED_NODES",
      "outputs": [
        {
          "internalType": "bytes32",
          "name": "",
          "type": "bytes32"
        }
      ],
      "stateMutability": "view",
      "type": "function"
    },
    {
      "inputs": [],
      "name": "VOTE_TIME",
      "outputs": [
        {
          "internalType": "uint256",
          "name": "",
          "type": "uint256"
        }
      ],
      "stateMutability": "view",
      "type": "function"
    },
    {
      "inputs": [],
      "name": "blockNumber",
      "outputs": [
        {
          "internalType": "uint256",
          "name": "",
          "type": "uint256"
        }
      ],
      "stateMutability": "view",
      "type": "function"
    },
    {
      "inputs": [
        {
          "internalType": "bytes32",
          "name": "",
          "type": "bytes32"
        },
        {
          "internalType": "address",
          "name": "_addr",
          "type": "address"
        }
      ],
      "name": "canImplementInterfaceForAddress",
      "outputs": [
        {
          "internalType": "bytes32",
          "name": "",
          "type": "bytes32"
        }
      ],
      "stateMutability": "view",
      "type": "function"
    },
    {
      "inputs": [],
      "name": "clone",
      "outputs": [
        {
          "internalType": "address",
          "name": "",
          "type": "address"
        }
      ],
      "stateMutability": "nonpayable",
      "type": "function"
    },
    {
      "inputs": [],
      "name": "implementation",
      "outputs": [
        {
          "internalType": "address",
          "name": "_impl",
          "type": "address"
        }
      ],
      "stateMutability": "view",
      "type": "function"
    },
    {
      "inputs": [],
      "name": "policy",
      "outputs": [
        {
          "internalType": "address",
          "name": "",
          "type": "address"
        }
      ],
      "stateMutability": "view",
      "type": "function"
    },
    {
      "inputs": [
        {
          "internalType": "address",
          "name": "_delegate",
          "type": "address"
        },
        {
          "internalType": "bytes",
          "name": "_data",
          "type": "bytes"
        }
      ],
      "name": "policyCommand",
      "outputs": [],
      "stateMutability": "nonpayable",
      "type": "function"
    },
    {
      "inputs": [],
      "name": "proposal",
      "outputs": [
        {
          "internalType": "address",
          "name": "",
          "type": "address"
        }
      ],
      "stateMutability": "view",
      "type": "function"
    },
    {
      "inputs": [
        {
          "internalType": "address",
          "name": "_addr",
          "type": "address"
        }
      ],
      "name": "setExpectedInterfaceSet",
      "outputs": [],
      "stateMutability": "nonpayable",
      "type": "function"
    },
    {
      "inputs": [
        {
          "internalType": "address",
          "name": "",
          "type": "address"
        }
      ],
      "name": "stake",
      "outputs": [
        {
          "internalType": "uint256",
          "name": "",
          "type": "uint256"
        }
      ],
      "stateMutability": "view",
      "type": "function"
    },
    {
      "inputs": [],
      "name": "totalStake",
      "outputs": [
        {
          "internalType": "uint256",
          "name": "",
          "type": "uint256"
        }
      ],
      "stateMutability": "view",
      "type": "function"
    },
    {
      "inputs": [
        {
          "internalType": "uint256",
          "name": "_blockNumber",
          "type": "uint256"
        }
      ],
      "name": "totalVotingPower",
      "outputs": [
        {
          "internalType": "uint256",
          "name": "",
          "type": "uint256"
        }
      ],
      "stateMutability": "view",
      "type": "function"
    },
    {
      "inputs": [],
      "name": "voteEnds",
      "outputs": [
        {
          "internalType": "uint256",
          "name": "",
          "type": "uint256"
        }
      ],
      "stateMutability": "view",
      "type": "function"
    },
    {
      "inputs": [
        {
          "internalType": "address",
          "name": "_who",
          "type": "address"
        },
        {
          "internalType": "uint256",
          "name": "_blockNumber",
          "type": "uint256"
        }
      ],
      "name": "votingPower",
      "outputs": [
        {
          "internalType": "uint256",
          "name": "",
          "type": "uint256"
        }
      ],
      "stateMutability": "view",
      "type": "function"
    },
    {
      "inputs": [],
      "name": "yesStake",
      "outputs": [
        {
          "internalType": "uint256",
          "name": "",
          "type": "uint256"
        }
      ],
      "stateMutability": "view",
      "type": "function"
    },
    {
      "inputs": [
        {
          "internalType": "address",
          "name": "",
          "type": "address"
        }
      ],
      "name": "yesVote",
      "outputs": [
        {
          "internalType": "bool",
          "name": "",
          "type": "bool"
        }
      ],
      "stateMutability": "view",
      "type": "function"
    },
    {
      "inputs": [
        {
          "internalType": "bool",
          "name": "_vote",
          "type": "bool"
        }
      ],
      "name": "vote",
      "outputs": [],
      "stateMutability": "nonpayable",
      "type": "function"
    },
    {
      "inputs": [
        {
          "internalType": "address",
          "name": "_self",
          "type": "address"
        }
      ],
      "name": "initialize",
      "outputs": [],
      "stateMutability": "nonpayable",
      "type": "function"
    },
    {
      "inputs": [
        {
          "internalType": "address",
          "name": "_proposal",
          "type": "address"
        }
      ],
      "name": "configure",
      "outputs": [],
      "stateMutability": "nonpayable",
      "type": "function"
    },
    {
      "inputs": [],
      "name": "execute",
      "outputs": [],
      "stateMutability": "nonpayable",
      "type": "function"
    }
  ],
  "bytecode": "0x60806040523480156200001157600080fd5b5060405162001d8738038062001d8783398101604081905262000034916200021d565b8080806040516020016200006b907f636f6d2e65636f2e466f727761726450726f78792e74617267657400000000008152601b0190565b6040516020818303038152906040528051906020012060001c60008051602062001d6783398151915214620000f15760405162461bcd60e51b815260206004820152602160248201527f494d504c454d454e544154494f4e5f534c4f542068617368206d69736d6174636044820152600d60fb1b60648201526084015b60405180910390fd5b620000fc306200018f565b600080546001600160a01b0319166001600160a01b03928316179055604051635df8122f60e01b81523060048201529082166024820152731820a4b7618bde71dce8cdc73aab6c95905fad2490635df8122f90604401600060405180830381600087803b1580156200016d57600080fd5b505af115801562000182573d6000803e3d6000fd5b505050505050506200024f565b6001600160a01b038116620001b160008051602062001d678339815191525490565b6001600160a01b031614156200020a5760405162461bcd60e51b815260206004820152601f60248201527f496d706c656d656e746174696f6e20616c7265616479206d61746368696e67006044820152606401620000e8565b60008051602062001d6783398151915255565b6000602082840312156200023057600080fd5b81516001600160a01b03811681146200024857600080fd5b9392505050565b611b08806200025f6000396000f3fe608060405234801561001057600080fd5b50600436106101fb5760003560e01c806357e871e71161011a5780638b0e9f3f116100ad578063c91406651161007c578063c9140665146104a8578063d5252e45146104cf578063f53d3d1f146104f6578063f67a3a481461051d578063fe31df0d1461054457600080fd5b80638b0e9f3f14610432578063aabe10231461043b578063ba38df6c1461046e578063c4d66de81461049557600080fd5b80637361d1e6116100e95780637361d1e6146103dc578063753ec1031461040357806375cb26721461041657806385defaf41461042957600080fd5b806357e871e71461038f5780635c60da1b1461039857806361461954146103ad57806368273a57146103b557600080fd5b806328ea6dda11610192578063486a27db11610161578063486a27db1461034e5780634b9f5c9814610356578063536f9f42146103695780635423b94d1461037c57600080fd5b806328ea6dda14610303578063328a1da91461030c57806339634e0c14610314578063480276ac1461032757600080fd5b8063154cfece116101ce578063154cfece146102825780631673bc41146102a9578063249cb3fa146102d057806326476204146102e357600080fd5b80630505c8c91461020057806309d7f23b1461023057806309ed460714610245578063138d80091461024d575b600080fd5b600054610213906001600160a01b031681565b6040516001600160a01b0390911681526020015b60405180910390f35b61024361023e366004611848565b61056b565b005b61021361060b565b6102747fe10ab6c94f1da69921a0ca1c1b96b4fc339699153931c9bfd565e91f44c19b0b81565b604051908152602001610227565b6102747fe4ee44a5d338a8b2452cc9552ec014656668eaacb55683101b7e1c2b167e522581565b6102747fae30bfb87dec2bd0c16be9790f95842d84f58dc70b0a8f6ed22e9556176a7b1981565b6102746102de36600461190c565b610679565b6102746102f136600461193c565b60036020526000908152604090205481565b61027460065481565b610274607881565b61024361032236600461193c565b61075f565b6102747f331e3a11698d428947c09d6cfecc92b2ccbc4a527e4e795d850152babfaff37a81565b61027460b481565b61024361036436600461196e565b6107f2565b61027461037736600461198b565b610a74565b61027461038a3660046119a4565b610c2a565b61027460085481565b600080516020611ab383398151915254610213565b610243610deb565b6102747f1b74fc1bde1302df3d2e3f68112fbbf0ccbb287053160042e61d82481bb6e17881565b6102747f93824b3fb91a9a455e79c6bb5ad7a2acaedbf7fea80464761d7d892aa7853d5e81565b600254610213906001600160a01b031681565b61024361042436600461193c565b6111a8565b61027460075481565b61027460055481565b61045e61044936600461193c565b60046020526000908152604090205460ff1681565b6040519015158152602001610227565b6102747f65474dbc3934a157baaaa893dea8c73453f0cc9c47a4f857047e8f0c8b54888f81565b6102436104a336600461193c565b61123e565b6102747f0e3d3f2b74f96e5fd24f23acf8b4b352d4e1d0d0ed45271f4e44aa64f98b228481565b6102747fe01e721169f17f30d0c130781195719ceba11f26f44578668ffd8462c7c1ebe981565b6102747fe0391e627a5766ef56109c7c98e0542c6e96a116720d7c626119be5b67e1813d81565b6102747fdf849ae066ce5ea7a01105f3db8539dd51779b4506741de6731ef32f7f4daa1881565b6102747f5f9af78bb9888a64eda8686df832be8039fe2a08c41dd13a3e0a34cadf71426581565b6000546001600160a01b031633146105e15760405162461bcd60e51b815260206004820152602e60248201527f4f6e6c792074686520706f6c69637920636f6e7472616374206d61792063616c60448201526d36103a3434b99036b2ba3437b21760911b60648201526084015b60405180910390fd5b600080825160208401855af43d806000803e8180156105ff57816000f35b816000fd5b5050505050565b600080610617306112c9565b60405163189acdbd60e31b81523060048201529091506001600160a01b0382169063c4d66de890602401600060405180830381600087803b15801561065b57600080fd5b505af115801561066f573d6000803e3d6000fd5b5092949350505050565b600080546001600160a01b03838116911614806106a357506001546001600160a01b038381169116145b6107155760405162461bcd60e51b815260206004820152603d60248201527f4f6e6c792074686520706f6c696379206f7220696e7465726661636520636f6e60448201527f7472616374206d61792063616c6c20746869732066756e6374696f6e2e00000060648201526084016105d8565b6040517f455243313832305f4143434550545f4d41474943000000000000000000000000602082015260340160405160208183030381529060405280519060200120905092915050565b6000546001600160a01b031633146107d05760405162461bcd60e51b815260206004820152602e60248201527f4f6e6c792074686520706f6c69637920636f6e7472616374206d61792063616c60448201526d36103a3434b99036b2ba3437b21760911b60648201526084016105d8565b600180546001600160a01b0319166001600160a01b0392909216919091179055565b60075442106108695760405162461bcd60e51b815260206004820152603360248201527f566f7465732063616e206f6e6c79206265207265636f7264656420647572696e60448201527f672074686520766f74696e6720706572696f640000000000000000000000000060648201526084016105d8565b600061087733600854610c2a565b9050600081116108fd5760405162461bcd60e51b8152602060048201526044602482018190527f566f74657273206d75737420686176652068656c6420746f6b656e7320626566908201527f6f72652074686520626c6f636b206e756d626572206f66207468652070726f706064820152631bdcd85b60e21b608482015260a4016105d8565b336000908152600360205260408120549061091882846119e6565b905081156109d3573360009081526004602052604090205460ff16151584151514156109925760405162461bcd60e51b815260206004820152602360248201527f596f757220766f74652068617320616c7265616479206265656e207265636f7260448201526219195960ea1b60648201526084016105d8565b3360009081526004602052604090205460ff16156109d357816006546109b891906119e6565b600655336000908152600460205260409020805460ff191690555b6109dc33611332565b6040805185151581526020810185905233917f83d67e3bded439819290451fe54e3296e9bc906b45038ef8ba8ae12df5050f98910160405180910390a28315610a4b5782600654610a2d91906119fd565b600655336000908152600460205260409020805460ff191660011790555b336000908152600360205260409020839055600554610a6b9082906119fd565b60055550505050565b600080610a7f611394565b6001600160a01b031663981b24d0846040518263ffffffff1660e01b8152600401610aac91815260200190565b60206040518083038186803b158015610ac457600080fd5b505afa158015610ad8573d6000803e3d6000fd5b505050506040513d601f19601f82011682018060405250810190610afc9190611a15565b90506000610b086113c4565b6001600160a01b0316635bb748ad856040518263ffffffff1660e01b8152600401610b3591815260200190565b60206040518083038186803b158015610b4d57600080fd5b505afa158015610b61573d6000803e3d6000fd5b505050506040513d601f19601f82011682018060405250810190610b859190611a15565b90508015610c2357610b956113ef565b60405163329c53f760e01b815260048101839052602481018690526001600160a01b03919091169063329c53f79060440160206040518083038186803b158015610bde57600080fd5b505afa158015610bf2573d6000803e3d6000fd5b505050506040513d601f19601f82011682018060405250810190610c169190611a15565b610c2090836119fd565b91505b5092915050565b600080610c35611394565b604051631dc7379760e11b81526001600160a01b038681166004830152602482018690529190911690633b8e6f2e9060440160206040518083038186803b158015610c7f57600080fd5b505afa158015610c93573d6000803e3d6000fd5b505050506040513d601f19601f82011682018060405250810190610cb79190611a15565b90506000610cc36113c4565b60405163334ff4e160e21b81526001600160a01b03878116600483015260248201879052919091169063cd3fd3849060440160206040518083038186803b158015610d0d57600080fd5b505afa158015610d21573d6000803e3d6000fd5b505050506040513d601f19601f82011682018060405250810190610d459190611a15565b90508015610de357610d556113ef565b60405163329c53f760e01b815260048101839052602481018690526001600160a01b03919091169063329c53f79060440160206040518083038186803b158015610d9e57600080fd5b505afa158015610db2573d6000803e3d6000fd5b505050506040513d601f19601f82011682018060405250810190610dd69190611a15565b610de090836119fd565b91505b509392505050565b60006002600554610dfc9190611a2e565b90506000610e0b600854610a74565b9050426000610e1b600284611a2e565b60065411610e95576078600754610e3291906119fd565b8211610e955760405162461bcd60e51b815260206004820152602c60248201527f4d616a6f7269747920737570706f727420726571756972656420666f7220656160448201526b39363c9032b730b1ba34b7b760a11b60648201526084016105d8565b30610ebf7f65474dbc3934a157baaaa893dea8c73453f0cc9c47a4f857047e8f0c8b54888f611416565b6001600160a01b031614610f3b5760405162461bcd60e51b815260206004820152603b60248201527f5468697320636f6e7472616374206e6f206c6f6e67657220686173206175746860448201527f6f72697a6174696f6e20746f20656e6163742074686520766f7465000000000060648201526084016105d8565b83610f4857506002610fbf565b8360065411610f5957506001610fbf565b6000546002546040516330f056e560e11b81526001600160a01b0391821660048201529116906361e0adca90602401600060405180830381600087803b158015610fa257600080fd5b505af1158015610fb6573d6000803e3d6000fd5b50505050600090505b7fa83c75fdbf6911ff21d2ef7b04f04c9a1698044e31b381d4ad4dd9fd93c336de81604051610fee9190611a50565b60405180910390a16000546040516319bb6e0160e11b81527f65474dbc3934a157baaaa893dea8c73453f0cc9c47a4f857047e8f0c8b54888f60048201526001600160a01b0390911690633376dc0290602401600060405180830381600087803b15801561105b57600080fd5b505af115801561106f573d6000803e3d6000fd5b5050505061107b611394565b6000546001600160a01b039182169163a9059cbb9116611099611394565b6040516370a0823160e01b81523060048201526001600160a01b0391909116906370a082319060240160206040518083038186803b1580156110da57600080fd5b505afa1580156110ee573d6000803e3d6000fd5b505050506040513d601f19601f820116820180604052508101906111129190611a15565b6040517fffffffff0000000000000000000000000000000000000000000000000000000060e085901b1681526001600160a01b0390921660048301526024820152604401602060405180830381600087803b15801561117057600080fd5b505af1158015611184573d6000803e3d6000fd5b505050506040513d601f19601f820116820180604052508101906106049190611a78565b6007541561120a5760405162461bcd60e51b815260206004820152602960248201527f5468697320696e7374616e63652068617320616c7265616479206265656e20636044820152681bdb999a59dd5c995960ba1b60648201526084016105d8565b61121560b4426119fd565b60075543600855600280546001600160a01b0319166001600160a01b0392909216919091179055565b6000611256600080516020611ab38339815191525490565b6001600160a01b0316146112bd5760405162461bcd60e51b815260206004820152602860248201527f43616e206f6e6c792062652063616c6c656420647572696e6720696e697469616044820152673634bd30ba34b7b760c11b60648201526084016105d8565b6112c6816114b3565b50565b6000808260601b90506040517f3d602d80600a3d3981f3363d3d373d3d3d363d7300000000000000000000000081528160148201527f5af43d82803e903d91602b57fd5bf3000000000000000000000000000000000060288201526037816000f0949350505050565b61133a6113c4565b6040516324b07fd160e21b81526001600160a01b03838116600483015291909116906392c1ff44906024015b600060405180830381600087803b15801561138057600080fd5b505af1158015610604573d6000803e3d6000fd5b60006113bf7fe0391e627a5766ef56109c7c98e0542c6e96a116720d7c626119be5b67e1813d611416565b905090565b60006113bf7fdf849ae066ce5ea7a01105f3db8539dd51779b4506741de6731ef32f7f4daa18611416565b60006113bf7fe10ab6c94f1da69921a0ca1c1b96b4fc339699153931c9bfd565e91f44c19b0b5b6000805460405163555ddc6560e11b81526001600160a01b03909116600482015260248101839052731820a4b7618bde71dce8cdc73aab6c95905fad249063aabbb8ca9060440160206040518083038186803b15801561147557600080fd5b505afa158015611489573d6000803e3d6000fd5b505050506040513d601f19601f820116820180604052508101906114ad9190611a95565b92915050565b60006114cb600080516020611ab38339815191525490565b6001600160a01b0316146115325760405162461bcd60e51b815260206004820152602860248201527f43616e206f6e6c792062652063616c6c656420647572696e6720696e697469616044820152673634bd30ba34b7b760c11b60648201526084016105d8565b61153b81611585565b600054604051635df8122f60e01b81523060048201526001600160a01b039091166024820152731820a4b7618bde71dce8cdc73aab6c95905fad2490635df8122f90604401611366565b600061159d600080516020611ab38339815191525490565b6001600160a01b0316146116045760405162461bcd60e51b815260206004820152602860248201527f43616e206f6e6c792062652063616c6c656420647572696e6720696e697469616044820152673634bd30ba34b7b760c11b60648201526084016105d8565b61160d816116a1565b806001600160a01b0316630505c8c96040518163ffffffff1660e01b815260040160206040518083038186803b15801561164657600080fd5b505afa15801561165a573d6000803e3d6000fd5b505050506040513d601f19601f8201168201806040525081019061167e9190611a95565b600080546001600160a01b0319166001600160a01b039290921691909117905550565b60006116b9600080516020611ab38339815191525490565b6001600160a01b0316146117205760405162461bcd60e51b815260206004820152602860248201527f43616e206f6e6c792062652063616c6c656420647572696e6720696e697469616044820152673634bd30ba34b7b760c11b60648201526084016105d8565b6112c6816001600160a01b0316635c60da1b6040518163ffffffff1660e01b815260040160206040518083038186803b15801561175c57600080fd5b505afa158015611770573d6000803e3d6000fd5b505050506040513d601f19601f820116820180604052508101906117949190611a95565b806001600160a01b03166117b4600080516020611ab38339815191525490565b6001600160a01b0316141561180b5760405162461bcd60e51b815260206004820152601f60248201527f496d706c656d656e746174696f6e20616c7265616479206d61746368696e670060448201526064016105d8565b600080516020611ab383398151915255565b6001600160a01b03811681146112c657600080fd5b634e487b7160e01b600052604160045260246000fd5b6000806040838503121561185b57600080fd5b82356118668161181d565b9150602083013567ffffffffffffffff8082111561188357600080fd5b818501915085601f83011261189757600080fd5b8135818111156118a9576118a9611832565b604051601f8201601f19908116603f011681019083821181831017156118d1576118d1611832565b816040528281528860208487010111156118ea57600080fd5b8260208601602083013760006020848301015280955050505050509250929050565b6000806040838503121561191f57600080fd5b8235915060208301356119318161181d565b809150509250929050565b60006020828403121561194e57600080fd5b81356119598161181d565b9392505050565b80151581146112c657600080fd5b60006020828403121561198057600080fd5b813561195981611960565b60006020828403121561199d57600080fd5b5035919050565b600080604083850312156119b757600080fd5b82356119c28161181d565b946020939093013593505050565b634e487b7160e01b600052601160045260246000fd5b6000828210156119f8576119f86119d0565b500390565b60008219821115611a1057611a106119d0565b500190565b600060208284031215611a2757600080fd5b5051919050565b600082611a4b57634e487b7160e01b600052601260045260246000fd5b500490565b6020810160038310611a7257634e487b7160e01b600052602160045260246000fd5b91905290565b600060208284031215611a8a57600080fd5b815161195981611960565b600060208284031215611aa757600080fd5b81516119598161181d56fef86c915dad5894faca0dfa067c58fdf4307406d255ed0a65db394f82b77f53d4a2646970667358221220833ba390f1997b6ef3df1b286c02489e4a4dd7eba2c3a84e1b2283fc456f5eea64736f6c63430008090033f86c915dad5894faca0dfa067c58fdf4307406d255ed0a65db394f82b77f53d4",
  "immutableReferences": {},
  "source": "// SPDX-License-Identifier: MIT\npragma solidity ^0.8.9;\n\nimport \"../policy/Policy.sol\";\nimport \"../policy/PolicedUtils.sol\";\nimport \"../utils/TimeUtils.sol\";\nimport \"./VotingPower.sol\";\n\n/** @title PolicyVotes\n * This implements the voting and implementation phases of the policy decision process.\n * Open stake based voting is used for the voting phase.\n */\ncontract PolicyVotes is VotingPower, TimeUtils {\n    /** The proposal being voted on */\n    address public proposal;\n\n    /** Per voter power.\n     */\n    mapping(address => uint256) public stake;\n\n    /** Per voter that votes yes\n     */\n    mapping(address => bool) public yesVote;\n\n    /** Total currency staked in all ongoing votes in basic unit of 10^{-18} ECO (weico).\n     */\n    uint256 public totalStake;\n\n    /** Total revealed positive stake in basic unit of 10^{-18} ECO (weico).\n     */\n    uint256 public yesStake;\n\n    /** The length of the commit portion of the voting phase.\n     */\n    uint256 public constant VOTE_TIME = 3 minutes;\n\n    /** The delay on a plurality win\n     */\n    uint256 public constant ENACTION_DELAY = 2 minutes;\n\n    /** The timestamp at which the commit portion of the voting phase ends.\n     */\n    uint256 public voteEnds;\n\n    /** Vote result */\n    enum Result {\n        Accepted,\n        Rejected,\n        Failed\n    }\n\n    /** Event emitted when vote outcome is known.\n     */\n    event VoteCompleted(Result result);\n\n    /** Event emitted when vote is revealed.\n     */\n    event PolicyVoteCast(address indexed voter, bool vote, uint256 amount);\n\n    /** The store block number to use when checking account balances for staking.\n     */\n    uint256 public blockNumber;\n\n    // solhint-disable-next-line no-empty-blocks\n    constructor(address _policy) VotingPower(_policy) {}\n\n    /** Submit your yes/no support\n     *\n     * Shows whether or not your voting power supports or does not support the vote\n     *\n     * Note Not voting is not equivalent to voting no. Percentage of voted support,\n     * not percentage of total voting power is used to determine the win.\n     *\n     * @param _vote The vote for the proposal\n     */\n    function vote(bool _vote) external {\n        require(\n            getTime() < voteEnds,\n            \"Votes can only be recorded during the voting period\"\n        );\n\n        uint256 _amount = votingPower(msg.sender, blockNumber);\n\n        require(\n            _amount > 0,\n            \"Voters must have held tokens before the block number of the proposal\"\n        );\n\n        uint256 _oldStake = stake[msg.sender];\n        uint256 _stakeDelta = _amount - _oldStake;\n\n        if (_oldStake != 0) {\n            require(\n                yesVote[msg.sender] != _vote,\n                \"Your vote has already been recorded\"\n            );\n            if (yesVote[msg.sender]) {\n                yesStake = yesStake - _oldStake;\n                yesVote[msg.sender] = false;\n            }\n        }\n\n        recordVote(msg.sender);\n        emit PolicyVoteCast(msg.sender, _vote, _amount);\n\n        if (_vote) {\n            yesStake = yesStake + _amount;\n            yesVote[msg.sender] = true;\n        }\n        stake[msg.sender] = _amount;\n\n        totalStake = totalStake + _stakeDelta;\n    }\n\n    /** Initialize a cloned/proxied copy of this contract.\n     *\n     * @param _self The original contract, to provide access to storage data.\n     */\n    function initialize(address _self) public override onlyConstruction {\n        super.initialize(_self);\n    }\n\n    /** Configure the proposals that are part of this voting cycle and start\n     * the lockup period.\n     *\n     * This also fixes the end times of each subsequent phase.\n     *\n     * This can only be called once, and should be called atomically with\n     * instantiation.\n     *\n     * @param _proposal The proposal to vote on.\n     */\n    function configure(address _proposal) external {\n        require(voteEnds == 0, \"This instance has already been configured\");\n\n        voteEnds = getTime() + VOTE_TIME;\n        blockNumber = block.number;\n\n        proposal = _proposal;\n    }\n\n    /** Execute the proposal if it has enough support.\n     *\n     * Can only be called after the voting and the delay phase,\n     * or after the point that more than 50% of the total voting power\n     * has voted in favor of the proposal.\n     *\n     * If the proposal has been accepted, it will be enacted by\n     * calling the `enacted` functions using `delegatecall`\n     * from the root policy.\n     */\n    function execute() external {\n        uint256 _requiredStake = totalStake / 2;\n        uint256 _total = totalVotingPower(blockNumber);\n        uint256 _time = getTime();\n\n        Result _res;\n\n        if (yesStake <= _total / 2) {\n            require(\n                _time > voteEnds + ENACTION_DELAY,\n                \"Majority support required for early enaction\"\n            );\n        }\n\n        require(\n            policyFor(ID_POLICY_VOTES) == address(this),\n            \"This contract no longer has authorization to enact the vote\"\n        );\n\n        if (_requiredStake == 0) {\n            // Nobody voted\n            _res = Result.Failed;\n        } else if (yesStake <= _requiredStake) {\n            // Not enough yes votes\n            _res = Result.Rejected;\n        } else {\n            // Vote passed\n            Policy(policy).internalCommand(proposal);\n            _res = Result.Accepted;\n        }\n\n        emit VoteCompleted(_res);\n        Policy(policy).removeSelf(ID_POLICY_VOTES);\n\n        getToken().transfer(\n            address(uint160(policy)),\n            getToken().balanceOf(address(this))\n        );\n    }\n\n    /** Get the associated ERC20 token address.\n     */\n    function getToken() private view returns (IERC20) {\n        return IERC20(policyFor(ID_ECO));\n    }\n}\n",
  "sourcePath": "/Users/dirksmac/dev/eco/currency/contracts/governance/PolicyVotes.sol",
  "compiler": {
    "name": "solc",
    "version": "0.8.9+commit.e5eed63a.Emscripten.clang"
  },
  "schemaVersion": "3.4.3",
  "updatedAt": "2022-06-11T00:24:20.950Z",
  "devdoc": {
    "kind": "dev",
    "methods": {
      "canImplementInterfaceForAddress(bytes32,address)": {
        "params": {
          "_addr": "The address of the contract we might act on behalf of."
        }
      },
      "configure(address)": {
        "params": {
          "_proposal": "The proposal to vote on."
        }
      },
      "initialize(address)": {
        "params": {
          "_self": "The original contract, to provide access to storage data."
        }
      },
      "policyCommand(address,bytes)": {
        "params": {
          "_data": "The call message/data to execute on.",
          "_delegate": "The address of the contract to delegate execution to."
        }
      },
      "vote(bool)": {
        "params": {
          "_vote": "The vote for the proposal"
        }
      }
    },
    "title": "PolicyVotes This implements the voting and implementation phases of the policy decision process. Open stake based voting is used for the voting phase.",
    "version": 1
  },
  "userdoc": {
    "events": {
      "PolicyVoteCast(address,bool,uint256)": {
        "notice": "Event emitted when vote is revealed."
      },
      "VoteCompleted(uint8)": {
        "notice": "Event emitted when vote outcome is known."
      }
    },
    "kind": "user",
    "methods": {
      "ENACTION_DELAY()": {
        "notice": "The delay on a plurality win"
      },
      "VOTE_TIME()": {
        "notice": "The length of the commit portion of the voting phase."
      },
      "blockNumber()": {
        "notice": "The store block number to use when checking account balances for staking."
      },
      "canImplementInterfaceForAddress(bytes32,address)": {
        "notice": "ERC1820 permissioning interface"
      },
      "clone()": {
        "notice": "Create a clone of this contract Creates a clone of this contract by instantiating a proxy at a new address and initializing it based on the current contract. Uses optionality.io's CloneFactory functionality. This is used to save gas cost during deployments. Rather than including the full contract code in every contract that might instantiate it we can deploy it once and reference the location it was deployed to. Then calls to clone() can be used to create instances as needed without increasing the code size of the instantiating contract."
      },
      "configure(address)": {
        "notice": "Configure the proposals that are part of this voting cycle and start the lockup period. This also fixes the end times of each subsequent phase. This can only be called once, and should be called atomically with instantiation."
      },
      "execute()": {
        "notice": "Execute the proposal if it has enough support. Can only be called after the voting and the delay phase, or after the point that more than 50% of the total voting power has voted in favor of the proposal. If the proposal has been accepted, it will be enacted by calling the `enacted` functions using `delegatecall` from the root policy."
      },
      "implementation()": {
        "notice": "Get the address of the proxy target contract."
      },
      "initialize(address)": {
        "notice": "Initialize a cloned/proxied copy of this contract."
      },
      "policy()": {
        "notice": "The address of the root policy instance overseeing this instance. This address can be used for ERC1820 lookup of other components, ERC1820 lookup of role policies, and interaction with the policy hierarchy."
      },
      "policyCommand(address,bytes)": {
        "notice": "Execute code as indicated by the managing policy contract We allow the managing policy contract to execute arbitrary code in our context by allowing it to specify an implementation address and some message data, and then using delegatecall to execute the code at the implementation address, passing in the message data, all within our own address space."
      },
      "proposal()": {
        "notice": "The proposal being voted on "
      },
      "setExpectedInterfaceSet(address)": {
        "notice": "Set the expected interface set"
      },
      "stake(address)": {
        "notice": "Per voter power."
      },
      "totalStake()": {
        "notice": "Total currency staked in all ongoing votes in basic unit of 10^{-18} ECO (weico)."
      },
      "vote(bool)": {
        "notice": "Submit your yes/no support Shows whether or not your voting power supports or does not support the vote Note Not voting is not equivalent to voting no. Percentage of voted support, not percentage of total voting power is used to determine the win."
      },
      "voteEnds()": {
        "notice": "The timestamp at which the commit portion of the voting phase ends."
      },
      "yesStake()": {
        "notice": "Total revealed positive stake in basic unit of 10^{-18} ECO (weico)."
      },
      "yesVote(address)": {
        "notice": "Per voter that votes yes"
      }
    },
    "version": 1
  }
}