{
  "contractName": "Policy",
  "abi": [
    {
      "anonymous": false,
      "inputs": [],
      "name": "Initialized",
      "type": "event"
    },
    {
      "inputs": [],
      "name": "implementation",
      "outputs": [
        {
          "internalType": "address",
          "name": "_impl",
          "type": "address"
        }
      ],
      "stateMutability": "view",
      "type": "function"
    },
    {
      "inputs": [
        {
          "internalType": "uint256",
          "name": "",
          "type": "uint256"
        }
      ],
      "name": "setters",
      "outputs": [
        {
          "internalType": "bytes32",
          "name": "",
          "type": "bytes32"
        }
      ],
      "stateMutability": "view",
      "type": "function"
    },
    {
      "inputs": [
        {
          "internalType": "bytes32",
          "name": "_interfaceIdentifierHash",
          "type": "bytes32"
        }
      ],
      "name": "removeSelf",
      "outputs": [],
      "stateMutability": "nonpayable",
      "type": "function"
    },
    {
      "inputs": [
        {
          "internalType": "bytes32",
          "name": "_interfaceIdentifierHash",
          "type": "bytes32"
        }
      ],
      "name": "policyFor",
      "outputs": [
        {
          "internalType": "address",
          "name": "",
          "type": "address"
        }
      ],
      "stateMutability": "view",
      "type": "function"
    },
    {
      "inputs": [
        {
          "internalType": "address",
          "name": "_delegate",
          "type": "address"
        }
      ],
      "name": "internalCommand",
      "outputs": [],
      "stateMutability": "nonpayable",
      "type": "function"
    },
    {
      "inputs": [
        {
          "internalType": "address",
          "name": "_self",
          "type": "address"
        }
      ],
      "name": "initialize",
      "outputs": [],
      "stateMutability": "nonpayable",
      "type": "function"
    }
  ],
  "bytecode": "0x608060405234801561001057600080fd5b506040517f636f6d2e65636f2e466f727761726450726f78792e74617267657400000000006020820152603b016040516020818303038152906040528051906020012060001c600080516020610a81833981519152146100c15760405162461bcd60e51b815260206004820152602160248201527f494d504c454d454e544154494f4e5f534c4f542068617368206d69736d6174636044820152600d60fb1b60648201526084015b60405180910390fd5b6100ca306100cf565b610158565b6001600160a01b0381166100ef600080516020610a818339815191525490565b6001600160a01b031614156101465760405162461bcd60e51b815260206004820152601f60248201527f496d706c656d656e746174696f6e20616c7265616479206d61746368696e670060448201526064016100b8565b600080516020610a8183398151915255565b61091a806101676000396000f3fe608060405234801561001057600080fd5b50600436106100725760003560e01c80639c412e26116100505780639c412e26146100df5780639e34681c14610100578063c4d66de81461011357600080fd5b80633376dc02146100775780635c60da1b1461008c57806361e0adca146100cc575b600080fd5b61008a6100853660046107fb565b610126565b005b7ff86c915dad5894faca0dfa067c58fdf4307406d255ed0a65db394f82b77f53d4545b6040516001600160a01b0390911681526020015b60405180910390f35b61008a6100da366004610829565b61023c565b6100f26100ed3660046107fb565b6104d0565b6040519081526020016100c3565b6100af61010e3660046107fb565b6104f1565b61008a610121366004610829565b610583565b60405163555ddc6560e11b815230600482015260248101829052600090731820a4b7618bde71dce8cdc73aab6c95905fad249063aabbb8ca9060440160206040518083038186803b15801561017a57600080fd5b505afa15801561018e573d6000803e3d6000fd5b505050506040513d601f19601f820116820180604052508101906101b2919061084d565b90506001600160a01b038116331415610238576040516329965a1d60e01b81523060048201526024810183905260006044820152731820a4b7618bde71dce8cdc73aab6c95905fad24906329965a1d90606401600060405180830381600087803b15801561021f57600080fd5b505af1158015610233573d6000803e3d6000fd5b505050505b5050565b60005b60005481101561045357336001600160a01b0316731820a4b7618bde71dce8cdc73aab6c95905fad246001600160a01b031663aabbb8ca306000858154811061028a5761028a61086a565b6000918252602090912001546040517fffffffff0000000000000000000000000000000000000000000000000000000060e085901b1681526001600160a01b039092166004830152602482015260440160206040518083038186803b1580156102f257600080fd5b505afa158015610306573d6000803e3d6000fd5b505050506040513d601f19601f8201168201806040525081019061032a919061084d565b6001600160a01b03161415610443576040516001600160a01b0383166024820181905260009160440160408051601f198184030181529181526020820180517bffffffffffffffffffffffffffffffffffffffffffffffffffffffff1663d6466c7960e01b1790525161039d9190610880565b600060405180830381855af49150503d80600081146103d8576040519150601f19603f3d011682016040523d82523d6000602084013e6103dd565b606091505b505090508061043e5760405162461bcd60e51b815260206004820152602260248201527f436f6d6d616e64206661696c656420647572696e672064656c656761746563616044820152611b1b60f21b60648201526084015b60405180910390fd5b505050565b61044c816108bb565b905061023f565b5060405162461bcd60e51b815260206004820152604260248201527f4661696c656420746f2066696e6420616e20617070726f70726961746520706560448201527f726d697373696f6e20666f72207468652064656c656761746520616464726573606482015261399760f11b608482015260a401610435565b50565b600081815481106104e057600080fd5b600091825260209091200154905081565b60405163555ddc6560e11b815230600482015260248101829052600090731820a4b7618bde71dce8cdc73aab6c95905fad249063aabbb8ca9060440160206040518083038186803b15801561054557600080fd5b505afa158015610559573d6000803e3d6000fd5b505050506040513d601f19601f8201168201806040525081019061057d919061084d565b92915050565b60006105ad7ff86c915dad5894faca0dfa067c58fdf4307406d255ed0a65db394f82b77f53d45490565b6001600160a01b0316146106145760405162461bcd60e51b815260206004820152602860248201527f43616e206f6e6c792062652063616c6c656420647572696e6720696e697469616044820152673634bd30ba34b7b760c11b6064820152608401610435565b61061d81610649565b6040517f5daa87a0e9463431830481fd4b6e3403442dfb9a12b9c07597e9f61d50b633c890600090a150565b60006106737ff86c915dad5894faca0dfa067c58fdf4307406d255ed0a65db394f82b77f53d45490565b6001600160a01b0316146106da5760405162461bcd60e51b815260206004820152602860248201527f43616e206f6e6c792062652063616c6c656420647572696e6720696e697469616044820152673634bd30ba34b7b760c11b6064820152608401610435565b6104cd816001600160a01b0316635c60da1b6040518163ffffffff1660e01b815260040160206040518083038186803b15801561071657600080fd5b505afa15801561072a573d6000803e3d6000fd5b505050506040513d601f19601f8201168201806040525081019061074e919061084d565b806001600160a01b03166107807ff86c915dad5894faca0dfa067c58fdf4307406d255ed0a65db394f82b77f53d45490565b6001600160a01b031614156107d75760405162461bcd60e51b815260206004820152601f60248201527f496d706c656d656e746174696f6e20616c7265616479206d61746368696e67006044820152606401610435565b7ff86c915dad5894faca0dfa067c58fdf4307406d255ed0a65db394f82b77f53d455565b60006020828403121561080d57600080fd5b5035919050565b6001600160a01b03811681146104cd57600080fd5b60006020828403121561083b57600080fd5b813561084681610814565b9392505050565b60006020828403121561085f57600080fd5b815161084681610814565b634e487b7160e01b600052603260045260246000fd5b6000825160005b818110156108a15760208186018101518583015201610887565b818111156108b0576000828501525b509190910192915050565b60006000198214156108dd57634e487b7160e01b600052601160045260246000fd5b506001019056fea26469706673582212209ef2d35a152e7946c9c27fb9e5301802d778f9f290c1fc06c67bc0dcc4177f8764736f6c63430008090033f86c915dad5894faca0dfa067c58fdf4307406d255ed0a65db394f82b77f53d4",
  "immutableReferences": {},
  "source": "// SPDX-License-Identifier: MIT\npragma solidity ^0.8.9;\n\nimport \"@openzeppelin/contracts/utils/introspection/IERC1820Registry.sol\";\nimport \"../proxy/ForwardTarget.sol\";\nimport \"./ERC1820Client.sol\";\n\n/** @title The policy contract that oversees other contracts\n *\n * Policy contracts provide a mechanism for building pluggable (after deploy)\n * governance systems for other contracts.\n */\ncontract Policy is ForwardTarget, ERC1820Client {\n    bytes32[] public setters;\n\n    event Initialized();\n\n    /** Remove the specified role from the contract calling this function.\n     * This is for cleanup only, so if another contract has taken the\n     * role, this does nothing.\n     *\n     * @param _interfaceIdentifierHash The interface identifier to remove from\n     *                                 the registry.\n     */\n    function removeSelf(bytes32 _interfaceIdentifierHash) external {\n        address old = ERC1820REGISTRY.getInterfaceImplementer(\n            address(this),\n            _interfaceIdentifierHash\n        );\n\n        if (old == msg.sender) {\n            ERC1820REGISTRY.setInterfaceImplementer(\n                address(this),\n                _interfaceIdentifierHash,\n                address(0)\n            );\n        }\n    }\n\n    /** Find the policy contract for a particular identifier.\n     *\n     * @param _interfaceIdentifierHash The hash of the interface identifier\n     *                                 look up.\n     */\n    function policyFor(bytes32 _interfaceIdentifierHash)\n        public\n        view\n        returns (address)\n    {\n        return\n            ERC1820REGISTRY.getInterfaceImplementer(\n                address(this),\n                _interfaceIdentifierHash\n            );\n    }\n\n    /** Enact the code of one of the governance contracts.\n     *\n     * @param _delegate The contract code to delegate execution to.\n     */\n    function internalCommand(address _delegate) public {\n        /*\n         * Amount of setters is predefined by ECO and is reasonable\n         * from gas consumption standpoint. Change to amount of setter\n         * Have to go through reviewed policy proposal framework\n         */\n        for (uint256 i = 0; i < setters.length; ++i) {\n            if (\n                ERC1820REGISTRY.getInterfaceImplementer(\n                    address(this),\n                    setters[i]\n                ) == msg.sender\n            ) {\n                // solhint-disable-next-line avoid-low-level-calls\n                (bool _success, ) = _delegate.delegatecall(\n                    abi.encodeWithSignature(\"enacted(address)\", _delegate)\n                );\n                require(_success, \"Command failed during delegatecall\");\n                return;\n            }\n        }\n        require(\n            false,\n            \"Failed to find an appropriate permission for the delegate address.\"\n        );\n    }\n\n    /** Initialize the contract (replaces constructor)\n     *\n     * Policy contracts are often the targets of proxies, and therefore need a\n     * mechanism to initialize internal state when adopted by a new proxy. This\n     * replaces the constructor.\n     *\n     * @param _self The address of the original contract deployment (as opposed\n     *              to the address of the proxy contract, which takes the place\n     *              of `this`).\n     */\n    function initialize(address _self)\n        public\n        virtual\n        override\n        onlyConstruction\n    {\n        super.initialize(_self);\n        emit Initialized();\n    }\n}\n",
  "sourcePath": "/Users/dirksmac/dev/eco/currency/contracts/policy/Policy.sol",
  "compiler": {
    "name": "solc",
    "version": "0.8.9+commit.e5eed63a.Emscripten.clang"
  },
  "schemaVersion": "3.4.3",
  "updatedAt": "2022-06-10T22:01:54.620Z",
  "devdoc": {
    "kind": "dev",
    "methods": {
      "initialize(address)": {
        "params": {
          "_self": "The address of the original contract deployment (as opposed              to the address of the proxy contract, which takes the place              of `this`)."
        }
      },
      "internalCommand(address)": {
        "params": {
          "_delegate": "The contract code to delegate execution to."
        }
      },
      "policyFor(bytes32)": {
        "params": {
          "_interfaceIdentifierHash": "The hash of the interface identifier                                 look up."
        }
      },
      "removeSelf(bytes32)": {
        "params": {
          "_interfaceIdentifierHash": "The interface identifier to remove from                                 the registry."
        }
      }
    },
    "title": "The policy contract that oversees other contracts Policy contracts provide a mechanism for building pluggable (after deploy) governance systems for other contracts.",
    "version": 1
  },
  "userdoc": {
    "kind": "user",
    "methods": {
      "implementation()": {
        "notice": "Get the address of the proxy target contract."
      },
      "initialize(address)": {
        "notice": "Initialize the contract (replaces constructor) Policy contracts are often the targets of proxies, and therefore need a mechanism to initialize internal state when adopted by a new proxy. This replaces the constructor."
      },
      "internalCommand(address)": {
        "notice": "Enact the code of one of the governance contracts."
      },
      "policyFor(bytes32)": {
        "notice": "Find the policy contract for a particular identifier."
      },
      "removeSelf(bytes32)": {
        "notice": "Remove the specified role from the contract calling this function. This is for cleanup only, so if another contract has taken the role, this does nothing."
      }
    },
    "version": 1
  }
}