{
  "_format": "hh-sol-artifact-1",
  "contractName": "PolicyVotes",
  "sourceName": "contracts/governance/community/PolicyVotes.sol",
  "abi": [
    {
      "inputs": [
        {
          "internalType": "contract Policy",
          "name": "_policy",
          "type": "address"
        },
        {
          "internalType": "contract ECO",
          "name": "_ecoAddr",
          "type": "address"
        }
      ],
      "stateMutability": "nonpayable",
      "type": "constructor"
    },
    {
      "anonymous": false,
      "inputs": [
        {
          "indexed": true,
          "internalType": "address",
          "name": "voter",
          "type": "address"
        },
        {
          "indexed": false,
          "internalType": "uint256",
          "name": "votesYes",
          "type": "uint256"
        },
        {
          "indexed": false,
          "internalType": "uint256",
          "name": "votesNo",
          "type": "uint256"
        }
      ],
      "name": "PolicySplitVoteCast",
      "type": "event"
    },
    {
      "anonymous": false,
      "inputs": [
        {
          "indexed": true,
          "internalType": "address",
          "name": "voter",
          "type": "address"
        },
        {
          "indexed": true,
          "internalType": "bool",
          "name": "vote",
          "type": "bool"
        },
        {
          "indexed": false,
          "internalType": "uint256",
          "name": "amount",
          "type": "uint256"
        }
      ],
      "name": "PolicyVote",
      "type": "event"
    },
    {
      "anonymous": false,
      "inputs": [
        {
          "indexed": true,
          "internalType": "enum PolicyVotes.Result",
          "name": "result",
          "type": "uint8"
        }
      ],
      "name": "VoteCompletion",
      "type": "event"
    },
    {
      "inputs": [],
      "name": "ENACTION_DELAY",
      "outputs": [
        {
          "internalType": "uint256",
          "name": "",
          "type": "uint256"
        }
      ],
      "stateMutability": "view",
      "type": "function"
    },
    {
      "inputs": [],
      "name": "VOTE_TIME",
      "outputs": [
        {
          "internalType": "uint256",
          "name": "",
          "type": "uint256"
        }
      ],
      "stateMutability": "view",
      "type": "function"
    },
    {
      "inputs": [],
      "name": "blockNumber",
      "outputs": [
        {
          "internalType": "uint256",
          "name": "",
          "type": "uint256"
        }
      ],
      "stateMutability": "view",
      "type": "function"
    },
    {
      "inputs": [
        {
          "internalType": "bytes32",
          "name": "",
          "type": "bytes32"
        },
        {
          "internalType": "address",
          "name": "_addr",
          "type": "address"
        }
      ],
      "name": "canImplementInterfaceForAddress",
      "outputs": [
        {
          "internalType": "bytes32",
          "name": "",
          "type": "bytes32"
        }
      ],
      "stateMutability": "view",
      "type": "function"
    },
    {
      "inputs": [],
      "name": "clone",
      "outputs": [
        {
          "internalType": "address",
          "name": "",
          "type": "address"
        }
      ],
      "stateMutability": "nonpayable",
      "type": "function"
    },
    {
      "inputs": [
        {
          "internalType": "contract Proposal",
          "name": "_proposal",
          "type": "address"
        },
        {
          "internalType": "address",
          "name": "_proposer",
          "type": "address"
        },
        {
          "internalType": "uint256",
          "name": "_cutoffBlockNumber",
          "type": "uint256"
        },
        {
          "internalType": "uint256",
          "name": "_totalECOxVotingPower",
          "type": "uint256"
        },
        {
          "internalType": "uint256",
          "name": "_excludedVotingPower",
          "type": "uint256"
        }
      ],
      "name": "configure",
      "outputs": [],
      "stateMutability": "nonpayable",
      "type": "function"
    },
    {
      "inputs": [],
      "name": "ecoToken",
      "outputs": [
        {
          "internalType": "contract ECO",
          "name": "",
          "type": "address"
        }
      ],
      "stateMutability": "view",
      "type": "function"
    },
    {
      "inputs": [],
      "name": "excludedVotingPower",
      "outputs": [
        {
          "internalType": "uint256",
          "name": "",
          "type": "uint256"
        }
      ],
      "stateMutability": "view",
      "type": "function"
    },
    {
      "inputs": [],
      "name": "execute",
      "outputs": [],
      "stateMutability": "nonpayable",
      "type": "function"
    },
    {
      "inputs": [],
      "name": "implementation",
      "outputs": [
        {
          "internalType": "address",
          "name": "_impl",
          "type": "address"
        }
      ],
      "stateMutability": "view",
      "type": "function"
    },
    {
      "inputs": [
        {
          "internalType": "address",
          "name": "_self",
          "type": "address"
        }
      ],
      "name": "initialize",
      "outputs": [],
      "stateMutability": "nonpayable",
      "type": "function"
    },
    {
      "inputs": [],
      "name": "policy",
      "outputs": [
        {
          "internalType": "contract Policy",
          "name": "",
          "type": "address"
        }
      ],
      "stateMutability": "view",
      "type": "function"
    },
    {
      "inputs": [
        {
          "internalType": "address",
          "name": "_delegate",
          "type": "address"
        },
        {
          "internalType": "bytes",
          "name": "_data",
          "type": "bytes"
        }
      ],
      "name": "policyCommand",
      "outputs": [],
      "stateMutability": "nonpayable",
      "type": "function"
    },
    {
      "inputs": [],
      "name": "proposal",
      "outputs": [
        {
          "internalType": "contract Proposal",
          "name": "",
          "type": "address"
        }
      ],
      "stateMutability": "view",
      "type": "function"
    },
    {
      "inputs": [],
      "name": "proposer",
      "outputs": [
        {
          "internalType": "address",
          "name": "",
          "type": "address"
        }
      ],
      "stateMutability": "view",
      "type": "function"
    },
    {
      "inputs": [
        {
          "internalType": "address",
          "name": "_addr",
          "type": "address"
        }
      ],
      "name": "setExpectedInterfaceSet",
      "outputs": [],
      "stateMutability": "nonpayable",
      "type": "function"
    },
    {
      "inputs": [],
      "name": "totalECOxVotingPower",
      "outputs": [
        {
          "internalType": "uint256",
          "name": "",
          "type": "uint256"
        }
      ],
      "stateMutability": "view",
      "type": "function"
    },
    {
      "inputs": [],
      "name": "totalStake",
      "outputs": [
        {
          "internalType": "uint256",
          "name": "",
          "type": "uint256"
        }
      ],
      "stateMutability": "view",
      "type": "function"
    },
    {
      "inputs": [
        {
          "internalType": "uint256",
          "name": "_blockNumber",
          "type": "uint256"
        }
      ],
      "name": "totalVotingPower",
      "outputs": [
        {
          "internalType": "uint256",
          "name": "",
          "type": "uint256"
        }
      ],
      "stateMutability": "view",
      "type": "function"
    },
    {
      "inputs": [
        {
          "internalType": "bool",
          "name": "_vote",
          "type": "bool"
        }
      ],
      "name": "vote",
      "outputs": [],
      "stateMutability": "nonpayable",
      "type": "function"
    },
    {
      "inputs": [],
      "name": "voteEnds",
      "outputs": [
        {
          "internalType": "uint256",
          "name": "",
          "type": "uint256"
        }
      ],
      "stateMutability": "view",
      "type": "function"
    },
    {
      "inputs": [
        {
          "internalType": "address",
          "name": "",
          "type": "address"
        }
      ],
      "name": "votePartials",
      "outputs": [
        {
          "internalType": "uint256",
          "name": "stake",
          "type": "uint256"
        },
        {
          "internalType": "uint256",
          "name": "yesVotes",
          "type": "uint256"
        }
      ],
      "stateMutability": "view",
      "type": "function"
    },
    {
      "inputs": [
        {
          "internalType": "uint256",
          "name": "_votesYes",
          "type": "uint256"
        },
        {
          "internalType": "uint256",
          "name": "_votesNo",
          "type": "uint256"
        }
      ],
      "name": "voteSplit",
      "outputs": [],
      "stateMutability": "nonpayable",
      "type": "function"
    },
    {
      "inputs": [
        {
          "internalType": "address",
          "name": "_who",
          "type": "address"
        },
        {
          "internalType": "uint256",
          "name": "_blockNumber",
          "type": "uint256"
        }
      ],
      "name": "votingPower",
      "outputs": [
        {
          "internalType": "uint256",
          "name": "",
          "type": "uint256"
        }
      ],
      "stateMutability": "view",
      "type": "function"
    },
    {
      "inputs": [],
      "name": "yesStake",
      "outputs": [
        {
          "internalType": "uint256",
          "name": "",
          "type": "uint256"
        }
      ],
      "stateMutability": "view",
      "type": "function"
    }
  ],
  "bytecode": "0x60c06040523480156200001157600080fd5b506040516200244038038062002440833981016040819052620000349162000282565b818181806200004330620001db565b6001600160a01b038116620000c55760405162461bcd60e51b815260206004820152603860248201527f556e7265636f76657261626c653a20646f206e6f74207365742074686520706f60448201527f6c69637920617320746865207a65726f2061646472657373000000000000000060648201526084015b60405180910390fd5b6001600160a01b0381166080819052604051635df8122f60e01b81523060048201526024810191909152731820a4b7618bde71dce8cdc73aab6c95905fad2490635df8122f90604401600060405180830381600087803b1580156200012957600080fd5b505af11580156200013e573d6000803e3d6000fd5b50505050506001600160a01b03821615159050620001c55760405162461bcd60e51b815260206004820152603a60248201527f556e7265636f76657261626c653a20646f206e6f742073657420746865205f6560448201527f636f4164647220617320746865207a65726f20616464726573730000000000006064820152608401620000bc565b6001600160a01b031660a05250620002c1915050565b6001600160a01b038116620001fd600080516020620024208339815191525490565b6001600160a01b03161415620002565760405162461bcd60e51b815260206004820152601f60248201527f496d706c656d656e746174696f6e20616c7265616479206d61746368696e67006044820152606401620000bc565b6000805160206200242083398151915255565b6001600160a01b03811681146200027f57600080fd5b50565b600080604083850312156200029657600080fd5b8251620002a38162000269565b6020840151909250620002b68162000269565b809150509250929050565b60805160a0516120ec620003346000396000818161033501528181610c6701528181610d5601526112530152600081816101ad015281816103f00152818161063101528181610791015281816110d0015281816111b601528181611293015281816118520152611a0f01526120ec6000f3fe608060405234801561001057600080fd5b50600436106101a35760003560e01c8063536f9f42116100ee578063753ec103116100975780638b0e9f3f116100715780638b0e9f3f14610389578063a8e4fb9014610392578063c4d66de8146103b2578063ce32de2b146103c557600080fd5b8063753ec1031461035757806385defaf414610377578063892dc19e1461038057600080fd5b80635c60da1b116100c85780635c60da1b146103015780636146195414610328578063705d53041461033057600080fd5b8063536f9f42146102d25780635423b94d146102e557806357e871e7146102f857600080fd5b806339634e0c11610150578063461a22b31161012a578063461a22b3146102a2578063486a27db146102b55780634b9f5c98146102bf57600080fd5b806339634e0c1461024a5780633ebff7961461025d57806343f479fd1461029957600080fd5b8063249cb3fa11610181578063249cb3fa1461021657806328ea6dda14610237578063328a1da91461024057600080fd5b80630505c8c9146101a857806309d7f23b146101f957806309ed46071461020e575b600080fd5b6101cf7f000000000000000000000000000000000000000000000000000000000000000081565b60405173ffffffffffffffffffffffffffffffffffffffff90911681526020015b60405180910390f35b61020c610207366004611db2565b6103d8565b005b6101cf6104cc565b610229610224366004611e94565b61062d565b6040519081526020016101f0565b61022960075481565b6102296201518081565b61020c610258366004611ec4565b610779565b61028461026b366004611ec4565b6005602052600090815260409020805460019091015482565b604080519283526020830191909152016101f0565b61022960025481565b61020c6102b0366004611ee1565b610885565b6102296203f48081565b61020c6102cd366004611f40565b610984565b6102296102e0366004611f5d565b610c1e565b6102296102f3366004611f76565b610d05565b61022960095481565b7ff86c915dad5894faca0dfa067c58fdf4307406d255ed0a65db394f82b77f53d4546101cf565b61020c610e99565b6101cf7f000000000000000000000000000000000000000000000000000000000000000081565b6003546101cf9073ffffffffffffffffffffffffffffffffffffffff1681565b61022960085481565b61022960015481565b61022960065481565b6004546101cf9073ffffffffffffffffffffffffffffffffffffffff1681565b61020c6103c0366004611ec4565b61141c565b61020c6103d3366004611fa2565b6114f5565b3373ffffffffffffffffffffffffffffffffffffffff7f000000000000000000000000000000000000000000000000000000000000000016146104a2576040517f08c379a000000000000000000000000000000000000000000000000000000000815260206004820152602e60248201527f4f6e6c792074686520706f6c69637920636f6e7472616374206d61792063616c60448201527f6c2074686973206d6574686f642e00000000000000000000000000000000000060648201526084015b60405180910390fd5b600080825160208401855af43d806000803e8180156104c057816000f35b816000fd5b5050505050565b6000306104f77ff86c915dad5894faca0dfa067c58fdf4307406d255ed0a65db394f82b77f53d45490565b73ffffffffffffffffffffffffffffffffffffffff161461059a576040517f08c379a000000000000000000000000000000000000000000000000000000000815260206004820152602660248201527f54686973206d6574686f642063616e6e6f742062652063616c6c6564206f6e2060448201527f636c6f6e657300000000000000000000000000000000000000000000000000006064820152608401610499565b60006105a53061177c565b6040517fc4d66de800000000000000000000000000000000000000000000000000000000815230600482015290915073ffffffffffffffffffffffffffffffffffffffff82169063c4d66de890602401600060405180830381600087803b15801561060f57600080fd5b505af1158015610623573d6000803e3d6000fd5b5092949350505050565b60007f000000000000000000000000000000000000000000000000000000000000000073ffffffffffffffffffffffffffffffffffffffff168273ffffffffffffffffffffffffffffffffffffffff1614806106a3575060005473ffffffffffffffffffffffffffffffffffffffff8381169116145b61072f576040517f08c379a000000000000000000000000000000000000000000000000000000000815260206004820152603c60248201527f4f6e6c792074686520706f6c696379206f7220696e7465726661636520636f6e60448201527f74726163742063616e207365742074686520696e746572666163652e000000006064820152608401610499565b6040517f455243313832305f4143434550545f4d41474943000000000000000000000000602082015260340160405160208183030381529060405280519060200120905092915050565b3373ffffffffffffffffffffffffffffffffffffffff7f0000000000000000000000000000000000000000000000000000000000000000161461083e576040517f08c379a000000000000000000000000000000000000000000000000000000000815260206004820152602e60248201527f4f6e6c792074686520706f6c69637920636f6e7472616374206d61792063616c60448201527f6c2074686973206d6574686f642e0000000000000000000000000000000000006064820152608401610499565b600080547fffffffffffffffffffffffff00000000000000000000000000000000000000001673ffffffffffffffffffffffffffffffffffffffff92909216919091179055565b60085415610915576040517f08c379a000000000000000000000000000000000000000000000000000000000815260206004820152602960248201527f5468697320696e7374616e63652068617320616c7265616479206265656e206360448201527f6f6e6669677572656400000000000000000000000000000000000000000000006064820152608401610499565b6109226203f48042611ff3565b6008556009929092556001556002556003805473ffffffffffffffffffffffffffffffffffffffff9384167fffffffffffffffffffffffff00000000000000000000000000000000000000009182161790915560048054929093169116179055565b6008544210610a15576040517f08c379a000000000000000000000000000000000000000000000000000000000815260206004820152603360248201527f566f7465732063616e206f6e6c79206265207265636f7264656420647572696e60448201527f672074686520766f74696e6720706572696f64000000000000000000000000006064820152608401610499565b6000610a2333600954610d05565b905060008111610ab5576040517f08c379a000000000000000000000000000000000000000000000000000000000815260206004820152603560248201527f566f74657273206d75737420686176652068656c6420746f6b656e732062656660448201527f6f7265207468697320766f74696e67206379636c6500000000000000000000006064820152608401610499565b336000908152600560205260409020805460018201548015158215610b9857851515811515141580610ae75750818314155b610b73576040517f08c379a000000000000000000000000000000000000000000000000000000000815260206004820152602360248201527f596f757220766f74652068617320616c7265616479206265656e207265636f7260448201527f64656400000000000000000000000000000000000000000000000000000000006064820152608401610499565b8015610b98578160076000828254610b8b919061200b565b9091555050600060018501555b8515610bbd578460076000828254610bb09190611ff3565b9091555050600184018590555b8484556006548390610bd0908790611ff3565b610bda919061200b565b6006556040518581528615159033907f9be89fe3f78fe9ae57b0d36c191cfb9972e8c27d4b8fa1e7ebd66c514bf72ebf9060200160405180910390a3505050505050565b6040517f981b24d000000000000000000000000000000000000000000000000000000000815260048101829052600090819073ffffffffffffffffffffffffffffffffffffffff7f0000000000000000000000000000000000000000000000000000000000000000169063981b24d09060240160206040518083038186803b158015610ca957600080fd5b505afa158015610cbd573d6000803e3d6000fd5b505050506040513d601f19601f82011682018060405250810190610ce19190612022565b905060025460015482610cf49190611ff3565b610cfe919061200b565b9392505050565b6040517f3a46b1a800000000000000000000000000000000000000000000000000000000815273ffffffffffffffffffffffffffffffffffffffff83811660048301526024820183905260009182917f00000000000000000000000000000000000000000000000000000000000000001690633a46b1a89060440160206040518083038186803b158015610d9857600080fd5b505afa158015610dac573d6000803e3d6000fd5b505050506040513d601f19601f82011682018060405250810190610dd09190612022565b90506000610ddc6117e5565b6040517fcd3fd38400000000000000000000000000000000000000000000000000000000815273ffffffffffffffffffffffffffffffffffffffff878116600483015260248201879052919091169063cd3fd3849060440160206040518083038186803b158015610e4c57600080fd5b505afa158015610e60573d6000803e3d6000fd5b505050506040513d601f19601f82011682018060405250810190610e849190612022565b9050610e908183611ff3565b95945050505050565b60006002600654610eaa919061203b565b90506000610eb9600954610c1e565b90506000610ec860028361203b565b6007541015610f705762015180600854610ee29190611ff3565b4211610f70576040517f08c379a000000000000000000000000000000000000000000000000000000000815260206004820152602c60248201527f4d616a6f7269747920737570706f727420726571756972656420666f7220656160448201527f726c7920656e616374696f6e00000000000000000000000000000000000000006064820152608401610499565b30610f9a7f65474dbc3934a157baaaa893dea8c73453f0cc9c47a4f857047e8f0c8b54888f611815565b73ffffffffffffffffffffffffffffffffffffffff161461103d576040517f08c379a000000000000000000000000000000000000000000000000000000000815260206004820152603b60248201527f5468697320636f6e7472616374206e6f206c6f6e67657220686173206175746860448201527f6f72697a6174696f6e20746f20656e6163742074686520766f746500000000006064820152608401610499565b60065461104c5750600261112d565b82600754101561105e5750600161112d565b506003546040517fa86f090d00000000000000000000000000000000000000000000000000000000815273ffffffffffffffffffffffffffffffffffffffff91821660048201527f65474dbc3934a157baaaa893dea8c73453f0cc9c47a4f857047e8f0c8b54888f60248201526000917f0000000000000000000000000000000000000000000000000000000000000000169063a86f090d90604401600060405180830381600087803b15801561111457600080fd5b505af1158015611128573d6000803e3d6000fd5b505050505b80600281111561113f5761113f612076565b6040517f2441aeccfbc030e727e55919999695be4f864a4e6b089cf7465e32ff4bf0099290600090a26040517f3376dc020000000000000000000000000000000000000000000000000000000081527f65474dbc3934a157baaaa893dea8c73453f0cc9c47a4f857047e8f0c8b54888f60048201527f000000000000000000000000000000000000000000000000000000000000000073ffffffffffffffffffffffffffffffffffffffff1690633376dc0290602401600060405180830381600087803b15801561120f57600080fd5b505af1158015611223573d6000803e3d6000fd5b50506040517f70a082310000000000000000000000000000000000000000000000000000000081523060048201527f000000000000000000000000000000000000000000000000000000000000000073ffffffffffffffffffffffffffffffffffffffff16925063a9059cbb91507f00000000000000000000000000000000000000000000000000000000000000009083906370a082319060240160206040518083038186803b1580156112d657600080fd5b505afa1580156112ea573d6000803e3d6000fd5b505050506040513d601f19601f8201168201806040525081019061130e9190612022565b6040517fffffffff0000000000000000000000000000000000000000000000000000000060e085901b16815273ffffffffffffffffffffffffffffffffffffffff90921660048301526024820152604401602060405180830381600087803b15801561137957600080fd5b505af115801561138d573d6000803e3d6000fd5b505050506040513d601f19601f820116820180604052508101906113b191906120a5565b611417576040517f08c379a000000000000000000000000000000000000000000000000000000000815260206004820152600f60248201527f5472616e73666572204661696c656400000000000000000000000000000000006044820152606401610499565b505050565b60006114467ff86c915dad5894faca0dfa067c58fdf4307406d255ed0a65db394f82b77f53d45490565b73ffffffffffffffffffffffffffffffffffffffff16146114e9576040517f08c379a000000000000000000000000000000000000000000000000000000000815260206004820152602860248201527f43616e206f6e6c792062652063616c6c656420647572696e6720696e6974696160448201527f6c697a6174696f6e0000000000000000000000000000000000000000000000006064820152608401610499565b6114f2816118f6565b50565b6008544210611586576040517f08c379a000000000000000000000000000000000000000000000000000000000815260206004820152603360248201527f566f7465732063616e206f6e6c79206265207265636f7264656420647572696e60448201527f672074686520766f74696e6720706572696f64000000000000000000000000006064820152608401610499565b600061159433600954610d05565b905060008111611626576040517f08c379a000000000000000000000000000000000000000000000000000000000815260206004820152603560248201527f566f74657273206d75737420686176652068656c6420746f6b656e732062656660448201527f6f7265207468697320766f74696e67206379636c6500000000000000000000006064820152608401610499565b60006116328385611ff3565b9050808210156116c4576040517f08c379a000000000000000000000000000000000000000000000000000000000815260206004820152603760248201527f596f757220766f74696e6720706f776572206973206c657373207468616e207360448201527f75626d697474656420796573202b206e6f20766f7465730000000000000000006064820152608401610499565b3360009081526005602052604090208054600182015480156116f85780600760008282546116f2919061200b565b90915550505b86836001018190555086600760008282546117139190611ff3565b9091555050838355600654829061172b908690611ff3565b611735919061200b565b600655604080518881526020810188905233917fc28851797488c206008adc97915df5e42f45424300d2823e52f6e4bef368c1b8910160405180910390a250505050505050565b6000808260601b90506040517f3d602d80600a3d3981f3363d3d373d3d3d363d7300000000000000000000000081528160148201527f5af43d82803e903d91602b57fd5bf3000000000000000000000000000000000060288201526037816000f0949350505050565b60006118107f3776fba25fb0e7d0848ec503ec48569754f9d46736d6ace08b6eed818399d8e1611815565b905090565b6040517faabbb8ca00000000000000000000000000000000000000000000000000000000815273ffffffffffffffffffffffffffffffffffffffff7f000000000000000000000000000000000000000000000000000000000000000016600482015260248101829052600090731820a4b7618bde71dce8cdc73aab6c95905fad249063aabbb8ca9060440160206040518083038186803b1580156118b857600080fd5b505afa1580156118cc573d6000803e3d6000fd5b505050506040513d601f19601f820116820180604052508101906118f091906120c2565b92915050565b60006119207ff86c915dad5894faca0dfa067c58fdf4307406d255ed0a65db394f82b77f53d45490565b73ffffffffffffffffffffffffffffffffffffffff16146119c3576040517f08c379a000000000000000000000000000000000000000000000000000000000815260206004820152602860248201527f43616e206f6e6c792062652063616c6c656420647572696e6720696e6974696160448201527f6c697a6174696f6e0000000000000000000000000000000000000000000000006064820152608401610499565b6119cc81611a81565b6040517f5df8122f00000000000000000000000000000000000000000000000000000000815230600482015273ffffffffffffffffffffffffffffffffffffffff7f0000000000000000000000000000000000000000000000000000000000000000166024820152731820a4b7618bde71dce8cdc73aab6c95905fad2490635df8122f90604401600060405180830381600087803b158015611a6d57600080fd5b505af11580156104c5573d6000803e3d6000fd5b6000611aab7ff86c915dad5894faca0dfa067c58fdf4307406d255ed0a65db394f82b77f53d45490565b73ffffffffffffffffffffffffffffffffffffffff1614611b4e576040517f08c379a000000000000000000000000000000000000000000000000000000000815260206004820152602860248201527f43616e206f6e6c792062652063616c6c656420647572696e6720696e6974696160448201527f6c697a6174696f6e0000000000000000000000000000000000000000000000006064820152608401610499565b60008173ffffffffffffffffffffffffffffffffffffffff16635c60da1b6040518163ffffffff1660e01b815260040160206040518083038186803b158015611b9657600080fd5b505afa158015611baa573d6000803e3d6000fd5b505050506040513d601f19601f82011682018060405250810190611bce91906120c2565b905073ffffffffffffffffffffffffffffffffffffffff8116611c73576040517f08c379a000000000000000000000000000000000000000000000000000000000815260206004820152602c60248201527f696e697469616c697a6174696f6e206661696c7572653a206e6f7468696e672060448201527f746f20696d706c656d656e7400000000000000000000000000000000000000006064820152608401610499565b611c7c81611c80565b5050565b8073ffffffffffffffffffffffffffffffffffffffff16611cbf7ff86c915dad5894faca0dfa067c58fdf4307406d255ed0a65db394f82b77f53d45490565b73ffffffffffffffffffffffffffffffffffffffff161415611d3d576040517f08c379a000000000000000000000000000000000000000000000000000000000815260206004820152601f60248201527f496d706c656d656e746174696f6e20616c7265616479206d61746368696e67006044820152606401610499565b7ff86c915dad5894faca0dfa067c58fdf4307406d255ed0a65db394f82b77f53d455565b73ffffffffffffffffffffffffffffffffffffffff811681146114f257600080fd5b7f4e487b7100000000000000000000000000000000000000000000000000000000600052604160045260246000fd5b60008060408385031215611dc557600080fd5b8235611dd081611d61565b9150602083013567ffffffffffffffff80821115611ded57600080fd5b818501915085601f830112611e0157600080fd5b813581811115611e1357611e13611d83565b604051601f82017fffffffffffffffffffffffffffffffffffffffffffffffffffffffffffffffe0908116603f01168101908382118183101715611e5957611e59611d83565b81604052828152886020848701011115611e7257600080fd5b8260208601602083013760006020848301015280955050505050509250929050565b60008060408385031215611ea757600080fd5b823591506020830135611eb981611d61565b809150509250929050565b600060208284031215611ed657600080fd5b8135610cfe81611d61565b600080600080600060a08688031215611ef957600080fd5b8535611f0481611d61565b94506020860135611f1481611d61565b94979496505050506040830135926060810135926080909101359150565b80151581146114f257600080fd5b600060208284031215611f5257600080fd5b8135610cfe81611f32565b600060208284031215611f6f57600080fd5b5035919050565b60008060408385031215611f8957600080fd5b8235611f9481611d61565b946020939093013593505050565b60008060408385031215611fb557600080fd5b50508035926020909101359150565b7f4e487b7100000000000000000000000000000000000000000000000000000000600052601160045260246000fd5b6000821982111561200657612006611fc4565b500190565b60008282101561201d5761201d611fc4565b500390565b60006020828403121561203457600080fd5b5051919050565b600082612071577f4e487b7100000000000000000000000000000000000000000000000000000000600052601260045260246000fd5b500490565b7f4e487b7100000000000000000000000000000000000000000000000000000000600052602160045260246000fd5b6000602082840312156120b757600080fd5b8151610cfe81611f32565b6000602082840312156120d457600080fd5b8151610cfe81611d6156fea164736f6c6343000809000af86c915dad5894faca0dfa067c58fdf4307406d255ed0a65db394f82b77f53d4",
  "linkReferences": {},
  "deployedLinkReferences": {}
}