{
  "_format": "hh-sol-artifact-1",
  "contractName": "Policy",
  "sourceName": "contracts/policy/Policy.sol",
  "abi": [
    {
      "inputs": [],
      "name": "implementation",
      "outputs": [
        {
          "internalType": "address",
          "name": "_impl",
          "type": "address"
        }
      ],
      "stateMutability": "view",
      "type": "function"
    },
    {
      "inputs": [
        {
          "internalType": "address",
          "name": "_self",
          "type": "address"
        }
      ],
      "name": "initialize",
      "outputs": [],
      "stateMutability": "nonpayable",
      "type": "function"
    },
    {
      "inputs": [
        {
          "internalType": "address",
          "name": "_delegate",
          "type": "address"
        }
      ],
      "name": "internalCommand",
      "outputs": [],
      "stateMutability": "nonpayable",
      "type": "function"
    },
    {
      "inputs": [
        {
          "internalType": "bytes32",
          "name": "_interfaceIdentifierHash",
          "type": "bytes32"
        }
      ],
      "name": "policyFor",
      "outputs": [
        {
          "internalType": "address",
          "name": "",
          "type": "address"
        }
      ],
      "stateMutability": "view",
      "type": "function"
    },
    {
      "inputs": [
        {
          "internalType": "bytes32",
          "name": "_interfaceIdentifierHash",
          "type": "bytes32"
        }
      ],
      "name": "removeSelf",
      "outputs": [],
      "stateMutability": "nonpayable",
      "type": "function"
    },
    {
      "inputs": [
        {
          "internalType": "bytes32",
          "name": "_key",
          "type": "bytes32"
        },
        {
          "internalType": "address",
          "name": "_implementer",
          "type": "address"
        }
      ],
      "name": "setPolicy",
      "outputs": [],
      "stateMutability": "nonpayable",
      "type": "function"
    },
    {
      "inputs": [
        {
          "internalType": "uint256",
          "name": "",
          "type": "uint256"
        }
      ],
      "name": "setters",
      "outputs": [
        {
          "internalType": "bytes32",
          "name": "",
          "type": "bytes32"
        }
      ],
      "stateMutability": "view",
      "type": "function"
    }
  ],
  "bytecode": "0x608060405234801561001057600080fd5b5061001a3061001f565b6100ac565b6001600160a01b03811661003f600080516020610f3a8339815191525490565b6001600160a01b0316141561009a5760405162461bcd60e51b815260206004820152601f60248201527f496d706c656d656e746174696f6e20616c7265616479206d61746368696e6700604482015260640160405180910390fd5b600080516020610f3a83398151915255565b610e7f806100bb6000396000f3fe608060405234801561001057600080fd5b506004361061007d5760003560e01c80638791bf821161005b5780638791bf82146100f75780639c412e261461010a5780639e34681c1461012b578063c4d66de81461013e57600080fd5b80633376dc02146100825780635c60da1b1461009757806361e0adca146100e4575b600080fd5b610095610090366004610cfc565b610151565b005b7ff86c915dad5894faca0dfa067c58fdf4307406d255ed0a65db394f82b77f53d4545b60405173ffffffffffffffffffffffffffffffffffffffff90911681526020015b60405180910390f35b6100956100f2366004610d37565b6102a6565b610095610105366004610d5b565b610602565b61011d610118366004610cfc565b610880565b6040519081526020016100db565b6100ba610139366004610cfc565b6108a1565b61009561014c366004610d37565b61094c565b6040517faabbb8ca00000000000000000000000000000000000000000000000000000000815230600482015260248101829052600090731820a4b7618bde71dce8cdc73aab6c95905fad249063aabbb8ca9060440160206040518083038186803b1580156101be57600080fd5b505afa1580156101d2573d6000803e3d6000fd5b505050506040513d601f19601f820116820180604052508101906101f69190610d8b565b905073ffffffffffffffffffffffffffffffffffffffff81163314156102a2576040517f29965a1d0000000000000000000000000000000000000000000000000000000081523060048201526024810183905260006044820152731820a4b7618bde71dce8cdc73aab6c95905fad24906329965a1d90606401600060405180830381600087803b15801561028957600080fd5b505af115801561029d573d6000803e3d6000fd5b505050505b5050565b6000805b6000548110156103f1573373ffffffffffffffffffffffffffffffffffffffff16731820a4b7618bde71dce8cdc73aab6c95905fad2473ffffffffffffffffffffffffffffffffffffffff1663aabbb8ca306000858154811061030f5761030f610da8565b6000918252602090912001546040517fffffffff0000000000000000000000000000000000000000000000000000000060e085901b16815273ffffffffffffffffffffffffffffffffffffffff9092166004830152602482015260440160206040518083038186803b15801561038457600080fd5b505afa158015610398573d6000803e3d6000fd5b505050506040513d601f19601f820116820180604052508101906103bc9190610d8b565b73ffffffffffffffffffffffffffffffffffffffff1614156103e157600191506103f1565b6103ea81610dd7565b90506102aa565b5080610484576040517f08c379a000000000000000000000000000000000000000000000000000000000815260206004820152603960248201527f4661696c656420746f2066696e6420616e20617070726f70726961746520706560448201527f726d697373696f6e20666f72207468697320616374696f6e2e0000000000000060648201526084015b60405180910390fd5b60405173ffffffffffffffffffffffffffffffffffffffff831660248201819052600091604401604080517fffffffffffffffffffffffffffffffffffffffffffffffffffffffffffffffe08184030181529181526020820180517bffffffffffffffffffffffffffffffffffffffffffffffffffffffff167fd6466c79000000000000000000000000000000000000000000000000000000001790525161052c9190610e37565b600060405180830381855af49150503d8060008114610567576040519150601f19603f3d011682016040523d82523d6000602084013e61056c565b606091505b50509050806105fd576040517f08c379a000000000000000000000000000000000000000000000000000000000815260206004820152602260248201527f436f6d6d616e64206661696c656420647572696e672064656c6567617465636160448201527f6c6c000000000000000000000000000000000000000000000000000000000000606482015260840161047b565b505050565b6000805b60005481101561074d573373ffffffffffffffffffffffffffffffffffffffff16731820a4b7618bde71dce8cdc73aab6c95905fad2473ffffffffffffffffffffffffffffffffffffffff1663aabbb8ca306000858154811061066b5761066b610da8565b6000918252602090912001546040517fffffffff0000000000000000000000000000000000000000000000000000000060e085901b16815273ffffffffffffffffffffffffffffffffffffffff9092166004830152602482015260440160206040518083038186803b1580156106e057600080fd5b505afa1580156106f4573d6000803e3d6000fd5b505050506040513d601f19601f820116820180604052508101906107189190610d8b565b73ffffffffffffffffffffffffffffffffffffffff16141561073d576001915061074d565b61074681610dd7565b9050610606565b50806107db576040517f08c379a000000000000000000000000000000000000000000000000000000000815260206004820152603960248201527f4661696c656420746f2066696e6420616e20617070726f70726961746520706560448201527f726d697373696f6e20666f72207468697320616374696f6e2e00000000000000606482015260840161047b565b6040517f29965a1d0000000000000000000000000000000000000000000000000000000081523060048201526024810184905273ffffffffffffffffffffffffffffffffffffffff83166044820152731820a4b7618bde71dce8cdc73aab6c95905fad24906329965a1d90606401600060405180830381600087803b15801561086357600080fd5b505af1158015610877573d6000803e3d6000fd5b50505050505050565b6000818154811061089057600080fd5b600091825260209091200154905081565b6040517faabbb8ca00000000000000000000000000000000000000000000000000000000815230600482015260248101829052600090731820a4b7618bde71dce8cdc73aab6c95905fad249063aabbb8ca9060440160206040518083038186803b15801561090e57600080fd5b505afa158015610922573d6000803e3d6000fd5b505050506040513d601f19601f820116820180604052508101906109469190610d8b565b92915050565b60006109767ff86c915dad5894faca0dfa067c58fdf4307406d255ed0a65db394f82b77f53d45490565b73ffffffffffffffffffffffffffffffffffffffff1614610a19576040517f08c379a000000000000000000000000000000000000000000000000000000000815260206004820152602860248201527f43616e206f6e6c792062652063616c6c656420647572696e6720696e6974696160448201527f6c697a6174696f6e000000000000000000000000000000000000000000000000606482015260840161047b565b610a2281610a25565b50565b6000610a4f7ff86c915dad5894faca0dfa067c58fdf4307406d255ed0a65db394f82b77f53d45490565b73ffffffffffffffffffffffffffffffffffffffff1614610af2576040517f08c379a000000000000000000000000000000000000000000000000000000000815260206004820152602860248201527f43616e206f6e6c792062652063616c6c656420647572696e6720696e6974696160448201527f6c697a6174696f6e000000000000000000000000000000000000000000000000606482015260840161047b565b60008173ffffffffffffffffffffffffffffffffffffffff16635c60da1b6040518163ffffffff1660e01b815260040160206040518083038186803b158015610b3a57600080fd5b505afa158015610b4e573d6000803e3d6000fd5b505050506040513d601f19601f82011682018060405250810190610b729190610d8b565b905073ffffffffffffffffffffffffffffffffffffffff8116610c17576040517f08c379a000000000000000000000000000000000000000000000000000000000815260206004820152602c60248201527f696e697469616c697a6174696f6e206661696c7572653a206e6f7468696e672060448201527f746f20696d706c656d656e740000000000000000000000000000000000000000606482015260840161047b565b6102a2818073ffffffffffffffffffffffffffffffffffffffff16610c5a7ff86c915dad5894faca0dfa067c58fdf4307406d255ed0a65db394f82b77f53d45490565b73ffffffffffffffffffffffffffffffffffffffff161415610cd8576040517f08c379a000000000000000000000000000000000000000000000000000000000815260206004820152601f60248201527f496d706c656d656e746174696f6e20616c7265616479206d61746368696e6700604482015260640161047b565b7ff86c915dad5894faca0dfa067c58fdf4307406d255ed0a65db394f82b77f53d455565b600060208284031215610d0e57600080fd5b5035919050565b73ffffffffffffffffffffffffffffffffffffffff81168114610a2257600080fd5b600060208284031215610d4957600080fd5b8135610d5481610d15565b9392505050565b60008060408385031215610d6e57600080fd5b823591506020830135610d8081610d15565b809150509250929050565b600060208284031215610d9d57600080fd5b8151610d5481610d15565b7f4e487b7100000000000000000000000000000000000000000000000000000000600052603260045260246000fd5b60007fffffffffffffffffffffffffffffffffffffffffffffffffffffffffffffffff821415610e30577f4e487b7100000000000000000000000000000000000000000000000000000000600052601160045260246000fd5b5060010190565b6000825160005b81811015610e585760208186018101518583015201610e3e565b81811115610e67576000828501525b50919091019291505056fea164736f6c6343000809000af86c915dad5894faca0dfa067c58fdf4307406d255ed0a65db394f82b77f53d4",
  "linkReferences": {},
  "deployedLinkReferences": {}
}