{
  "contractName": "PolicyProposals",
  "abi": [
    {
      "inputs": [
        {
          "internalType": "address",
          "name": "_policy",
          "type": "address"
        },
        {
          "internalType": "address",
          "name": "_policyvotes",
          "type": "address"
        },
        {
          "internalType": "address",
          "name": "_simplepolicy",
          "type": "address"
        }
      ],
      "stateMutability": "nonpayable",
      "type": "constructor"
    },
    {
      "anonymous": false,
      "inputs": [
        {
          "indexed": false,
          "internalType": "address",
          "name": "proposer",
          "type": "address"
        },
        {
          "indexed": false,
          "internalType": "address",
          "name": "proposalAddress",
          "type": "address"
        }
      ],
      "name": "ProposalAdded",
      "type": "event"
    },
    {
      "anonymous": false,
      "inputs": [
        {
          "indexed": false,
          "internalType": "address",
          "name": "proposer",
          "type": "address"
        },
        {
          "indexed": false,
          "internalType": "address",
          "name": "proposalAddress",
          "type": "address"
        }
      ],
      "name": "ProposalRefunded",
      "type": "event"
    },
    {
      "anonymous": false,
      "inputs": [
        {
          "indexed": false,
          "internalType": "address",
          "name": "supporter",
          "type": "address"
        },
        {
          "indexed": false,
          "internalType": "address",
          "name": "proposalAddress",
          "type": "address"
        }
      ],
      "name": "ProposalSupported",
      "type": "event"
    },
    {
      "anonymous": false,
      "inputs": [
        {
          "indexed": false,
          "internalType": "address",
          "name": "unsupporter",
          "type": "address"
        },
        {
          "indexed": false,
          "internalType": "address",
          "name": "proposalAddress",
          "type": "address"
        }
      ],
      "name": "ProposalUnsupported",
      "type": "event"
    },
    {
      "anonymous": false,
      "inputs": [
        {
          "indexed": false,
          "internalType": "address",
          "name": "proposalAddress",
          "type": "address"
        }
      ],
      "name": "SupportThresholdReached",
      "type": "event"
    },
    {
      "anonymous": false,
      "inputs": [
        {
          "indexed": false,
          "internalType": "address",
          "name": "contractAddress",
          "type": "address"
        }
      ],
      "name": "VotingStarted",
      "type": "event"
    },
    {
      "inputs": [],
      "name": "COST_REGISTER",
      "outputs": [
        {
          "internalType": "uint256",
          "name": "",
          "type": "uint256"
        }
      ],
      "stateMutability": "view",
      "type": "function"
    },
    {
      "inputs": [],
      "name": "ID_CLEANUP",
      "outputs": [
        {
          "internalType": "bytes32",
          "name": "",
          "type": "bytes32"
        }
      ],
      "stateMutability": "view",
      "type": "function"
    },
    {
      "inputs": [],
      "name": "ID_CURRENCY_GOVERNANCE",
      "outputs": [
        {
          "internalType": "bytes32",
          "name": "",
          "type": "bytes32"
        }
      ],
      "stateMutability": "view",
      "type": "function"
    },
    {
      "inputs": [],
      "name": "ID_CURRENCY_TIMER",
      "outputs": [
        {
          "internalType": "bytes32",
          "name": "",
          "type": "bytes32"
        }
      ],
      "stateMutability": "view",
      "type": "function"
    },
    {
      "inputs": [],
      "name": "ID_ECO",
      "outputs": [
        {
          "internalType": "bytes32",
          "name": "",
          "type": "bytes32"
        }
      ],
      "stateMutability": "view",
      "type": "function"
    },
    {
      "inputs": [],
      "name": "ID_ECOX",
      "outputs": [
        {
          "internalType": "bytes32",
          "name": "",
          "type": "bytes32"
        }
      ],
      "stateMutability": "view",
      "type": "function"
    },
    {
      "inputs": [],
      "name": "ID_ECOXLOCKUP",
      "outputs": [
        {
          "internalType": "bytes32",
          "name": "",
          "type": "bytes32"
        }
      ],
      "stateMutability": "view",
      "type": "function"
    },
    {
      "inputs": [],
      "name": "ID_ECO_LABS",
      "outputs": [
        {
          "internalType": "bytes32",
          "name": "",
          "type": "bytes32"
        }
      ],
      "stateMutability": "view",
      "type": "function"
    },
    {
      "inputs": [],
      "name": "ID_FAUCET",
      "outputs": [
        {
          "internalType": "bytes32",
          "name": "",
          "type": "bytes32"
        }
      ],
      "stateMutability": "view",
      "type": "function"
    },
    {
      "inputs": [],
      "name": "ID_POLICY_PROPOSALS",
      "outputs": [
        {
          "internalType": "bytes32",
          "name": "",
          "type": "bytes32"
        }
      ],
      "stateMutability": "view",
      "type": "function"
    },
    {
      "inputs": [],
      "name": "ID_POLICY_VOTES",
      "outputs": [
        {
          "internalType": "bytes32",
          "name": "",
          "type": "bytes32"
        }
      ],
      "stateMutability": "view",
      "type": "function"
    },
    {
      "inputs": [],
      "name": "ID_TIMED_POLICIES",
      "outputs": [
        {
          "internalType": "bytes32",
          "name": "",
          "type": "bytes32"
        }
      ],
      "stateMutability": "view",
      "type": "function"
    },
    {
      "inputs": [],
      "name": "ID_TRUSTED_NODES",
      "outputs": [
        {
          "internalType": "bytes32",
          "name": "",
          "type": "bytes32"
        }
      ],
      "stateMutability": "view",
      "type": "function"
    },
    {
      "inputs": [],
      "name": "PROPOSAL_TIME",
      "outputs": [
        {
          "internalType": "uint256",
          "name": "",
          "type": "uint256"
        }
      ],
      "stateMutability": "view",
      "type": "function"
    },
    {
      "inputs": [],
      "name": "REFUND_IF_LOST",
      "outputs": [
        {
          "internalType": "uint256",
          "name": "",
          "type": "uint256"
        }
      ],
      "stateMutability": "view",
      "type": "function"
    },
    {
      "inputs": [
        {
          "internalType": "uint256",
          "name": "",
          "type": "uint256"
        }
      ],
      "name": "allProposals",
      "outputs": [
        {
          "internalType": "address",
          "name": "",
          "type": "address"
        }
      ],
      "stateMutability": "view",
      "type": "function"
    },
    {
      "inputs": [],
      "name": "blockNumber",
      "outputs": [
        {
          "internalType": "uint256",
          "name": "",
          "type": "uint256"
        }
      ],
      "stateMutability": "view",
      "type": "function"
    },
    {
      "inputs": [
        {
          "internalType": "bytes32",
          "name": "",
          "type": "bytes32"
        },
        {
          "internalType": "address",
          "name": "_addr",
          "type": "address"
        }
      ],
      "name": "canImplementInterfaceForAddress",
      "outputs": [
        {
          "internalType": "bytes32",
          "name": "",
          "type": "bytes32"
        }
      ],
      "stateMutability": "view",
      "type": "function"
    },
    {
      "inputs": [],
      "name": "clone",
      "outputs": [
        {
          "internalType": "address",
          "name": "",
          "type": "address"
        }
      ],
      "stateMutability": "nonpayable",
      "type": "function"
    },
    {
      "inputs": [],
      "name": "implementation",
      "outputs": [
        {
          "internalType": "address",
          "name": "_impl",
          "type": "address"
        }
      ],
      "stateMutability": "view",
      "type": "function"
    },
    {
      "inputs": [],
      "name": "policy",
      "outputs": [
        {
          "internalType": "address",
          "name": "",
          "type": "address"
        }
      ],
      "stateMutability": "view",
      "type": "function"
    },
    {
      "inputs": [
        {
          "internalType": "address",
          "name": "_delegate",
          "type": "address"
        },
        {
          "internalType": "bytes",
          "name": "_data",
          "type": "bytes"
        }
      ],
      "name": "policyCommand",
      "outputs": [],
      "stateMutability": "nonpayable",
      "type": "function"
    },
    {
      "inputs": [],
      "name": "policyVotesImpl",
      "outputs": [
        {
          "internalType": "address",
          "name": "",
          "type": "address"
        }
      ],
      "stateMutability": "view",
      "type": "function"
    },
    {
      "inputs": [],
      "name": "proposalEnds",
      "outputs": [
        {
          "internalType": "uint256",
          "name": "",
          "type": "uint256"
        }
      ],
      "stateMutability": "view",
      "type": "function"
    },
    {
      "inputs": [],
      "name": "proposalSelected",
      "outputs": [
        {
          "internalType": "bool",
          "name": "",
          "type": "bool"
        }
      ],
      "stateMutability": "view",
      "type": "function"
    },
    {
      "inputs": [],
      "name": "proposalToConfigure",
      "outputs": [
        {
          "internalType": "address",
          "name": "",
          "type": "address"
        }
      ],
      "stateMutability": "view",
      "type": "function"
    },
    {
      "inputs": [
        {
          "internalType": "address",
          "name": "",
          "type": "address"
        }
      ],
      "name": "proposals",
      "outputs": [
        {
          "internalType": "address",
          "name": "proposer",
          "type": "address"
        },
        {
          "internalType": "address",
          "name": "proposal",
          "type": "address"
        },
        {
          "internalType": "uint256",
          "name": "totalstake",
          "type": "uint256"
        }
      ],
      "stateMutability": "view",
      "type": "function"
    },
    {
      "inputs": [
        {
          "internalType": "address",
          "name": "_addr",
          "type": "address"
        }
      ],
      "name": "setExpectedInterfaceSet",
      "outputs": [],
      "stateMutability": "nonpayable",
      "type": "function"
    },
    {
      "inputs": [],
      "name": "simplePolicyImpl",
      "outputs": [
        {
          "internalType": "address",
          "name": "",
          "type": "address"
        }
      ],
      "stateMutability": "view",
      "type": "function"
    },
    {
      "inputs": [
        {
          "internalType": "address",
          "name": "",
          "type": "address"
        },
        {
          "internalType": "address",
          "name": "",
          "type": "address"
        }
      ],
      "name": "staked",
      "outputs": [
        {
          "internalType": "bool",
          "name": "",
          "type": "bool"
        }
      ],
      "stateMutability": "view",
      "type": "function"
    },
    {
      "inputs": [
        {
          "internalType": "uint256",
          "name": "_blockNumber",
          "type": "uint256"
        }
      ],
      "name": "totalVotingPower",
      "outputs": [
        {
          "internalType": "uint256",
          "name": "",
          "type": "uint256"
        }
      ],
      "stateMutability": "view",
      "type": "function"
    },
    {
      "inputs": [],
      "name": "totalproposals",
      "outputs": [
        {
          "internalType": "uint256",
          "name": "",
          "type": "uint256"
        }
      ],
      "stateMutability": "view",
      "type": "function"
    },
    {
      "inputs": [
        {
          "internalType": "address",
          "name": "_who",
          "type": "address"
        },
        {
          "internalType": "uint256",
          "name": "_blockNumber",
          "type": "uint256"
        }
      ],
      "name": "votingPower",
      "outputs": [
        {
          "internalType": "uint256",
          "name": "",
          "type": "uint256"
        }
      ],
      "stateMutability": "view",
      "type": "function"
    },
    {
      "inputs": [
        {
          "internalType": "address",
          "name": "_self",
          "type": "address"
        }
      ],
      "name": "initialize",
      "outputs": [],
      "stateMutability": "nonpayable",
      "type": "function"
    },
    {
      "inputs": [],
      "name": "allProposalAddresses",
      "outputs": [
        {
          "internalType": "address[]",
          "name": "",
          "type": "address[]"
        }
      ],
      "stateMutability": "view",
      "type": "function"
    },
    {
      "inputs": [],
      "name": "allProposalData",
      "outputs": [
        {
          "components": [
            {
              "internalType": "address",
              "name": "proposer",
              "type": "address"
            },
            {
              "internalType": "address",
              "name": "proposal",
              "type": "address"
            },
            {
              "internalType": "uint256",
              "name": "totalstake",
              "type": "uint256"
            }
          ],
          "internalType": "struct PolicyProposals.Prop[]",
          "name": "",
          "type": "tuple[]"
        }
      ],
      "stateMutability": "view",
      "type": "function"
    },
    {
      "inputs": [
        {
          "internalType": "address",
          "name": "_prop",
          "type": "address"
        }
      ],
      "name": "registerProposal",
      "outputs": [],
      "stateMutability": "nonpayable",
      "type": "function"
    },
    {
      "inputs": [
        {
          "internalType": "address",
          "name": "_prop",
          "type": "address"
        }
      ],
      "name": "support",
      "outputs": [],
      "stateMutability": "nonpayable",
      "type": "function"
    },
    {
      "inputs": [
        {
          "internalType": "address",
          "name": "_prop",
          "type": "address"
        }
      ],
      "name": "unsupport",
      "outputs": [],
      "stateMutability": "nonpayable",
      "type": "function"
    },
    {
      "inputs": [],
      "name": "deployProposalVoting",
      "outputs": [],
      "stateMutability": "nonpayable",
      "type": "function"
    },
    {
      "inputs": [
        {
          "internalType": "address",
          "name": "_prop",
          "type": "address"
        }
      ],
      "name": "refund",
      "outputs": [],
      "stateMutability": "nonpayable",
      "type": "function"
    },
    {
      "inputs": [],
      "name": "destruct",
      "outputs": [],
      "stateMutability": "nonpayable",
      "type": "function"
    }
  ],
  "bytecode": "0x60806040523480156200001157600080fd5b5060405162002f5f38038062002f5f83398101604081905262000034916200026b565b8280806040516020016200006b907f636f6d2e65636f2e466f727761726450726f78792e74617267657400000000008152601b0190565b6040516020818303038152906040528051906020012060001c60008051602062002f3f83398151915214620000f15760405162461bcd60e51b815260206004820152602160248201527f494d504c454d454e544154494f4e5f534c4f542068617368206d69736d6174636044820152600d60fb1b60648201526084015b60405180910390fd5b620000fc30620001c0565b600080546001600160a01b0319166001600160a01b03928316179055604051635df8122f60e01b81523060048201529082166024820152731820a4b7618bde71dce8cdc73aab6c95905fad2490635df8122f90604401600060405180830381600087803b1580156200016d57600080fd5b505af115801562000182573d6000803e3d6000fd5b5050600980546001600160a01b039788166001600160a01b031991821617909155600a80549690971695169490941790945550620002b59350505050565b6001600160a01b038116620001e260008051602062002f3f8339815191525490565b6001600160a01b031614156200023b5760405162461bcd60e51b815260206004820152601f60248201527f496d706c656d656e746174696f6e20616c7265616479206d61746368696e67006044820152606401620000e8565b60008051602062002f3f83398151915255565b80516001600160a01b03811681146200026657600080fd5b919050565b6000806000606084860312156200028157600080fd5b6200028c846200024e565b92506200029c602085016200024e565b9150620002ac604085016200024e565b90509250925092565b612c7a80620002c56000396000f3fe608060405234801561001057600080fd5b506004361061027e5760003560e01c80637361d1e611610156578063c4d66de8116100d3578063dea6453511610097578063f67a3a4811610071578063f67a3a481461068d578063fa89401a146106b4578063fe31df0d146106c757600080fd5b8063dea6453514610640578063e660cc0814610653578063f53d3d1f1461066657600080fd5b8063c4d66de81461059e578063c6d3afc9146105b1578063c9140665146105df578063cebd2c0914610606578063d5252e451461061957600080fd5b8063af12645a1161011a578063af12645a14610538578063b87341b814610541578063b88ad48b14610556578063ba38df6c1461055f578063c3d2a0bc1461058657600080fd5b80637361d1e6146104cb578063762ec1e9146104f25780638881a87414610502578063938351b814610512578063984db2421461052557600080fd5b806334f1020e116101ff578063480276ac116101c357806357e871e71161019d57806357e871e7146104865780635c60da1b1461048f57806368273a57146104a457600080fd5b8063480276ac14610439578063536f9f42146104605780635423b94d1461047357600080fd5b806334f1020e146103e5578063376cf9bf146103ed57806339634e0c146103f65780633dc716f3146104095780633fc9d6211461042657600080fd5b80631673bc41116102465780631673bc411461032c578063249cb3fa1461035357806325f4627f146103665780632b68b9c61461037b5780633341b4451461038357600080fd5b80630505c8c91461028357806309d7f23b146102b357806309ed4607146102c8578063138d8009146102d0578063154cfece14610305575b600080fd5b600054610296906001600160a01b031681565b6040516001600160a01b0390911681526020015b60405180910390f35b6102c66102c13660046128d8565b6106ee565b005b61029661078e565b6102f77fe10ab6c94f1da69921a0ca1c1b96b4fc339699153931c9bfd565e91f44c19b0b81565b6040519081526020016102aa565b6102f77fe4ee44a5d338a8b2452cc9552ec014656668eaacb55683101b7e1c2b167e522581565b6102f77fae30bfb87dec2bd0c16be9790f95842d84f58dc70b0a8f6ed22e9556176a7b1981565b6102f761036136600461299c565b6107fc565b61036e6108e2565b6040516102aa91906129cc565b6102c66109fa565b6103bf610391366004612a31565b6003602052600090815260409020805460018201546002909201546001600160a01b03918216929091169083565b604080516001600160a01b039485168152939092166020840152908201526060016102aa565b6102c6610ca0565b6102f760075481565b6102c6610404366004612a31565b610fee565b6006546104169060ff1681565b60405190151581526020016102aa565b6102c6610434366004612a31565b611081565b6102f77f331e3a11698d428947c09d6cfecc92b2ccbc4a527e4e795d850152babfaff37a81565b6102f761046e366004612a55565b611332565b6102f7610481366004612a6e565b6114e8565b6102f760085481565b600080516020612c2583398151915254610296565b6102f77f1b74fc1bde1302df3d2e3f68112fbbf0ccbb287053160042e61d82481bb6e17881565b6102f77f93824b3fb91a9a455e79c6bb5ad7a2acaedbf7fea80464761d7d892aa7853d5e81565b6102f7682b5e3af16b1880000081565b6102f7683635c9adc5dea0000081565b610296610520366004612a55565b6116a9565b600954610296906001600160a01b031681565b6102f761025881565b6105496116d3565b6040516102aa9190612a9a565b6102f760045481565b6102f77f65474dbc3934a157baaaa893dea8c73453f0cc9c47a4f857047e8f0c8b54888f81565b6006546102969061010090046001600160a01b031681565b6102c66105ac366004612a31565b611735565b6104166105bf366004612ae7565b600260209081526000928352604080842090915290825290205460ff1681565b6102f77f0e3d3f2b74f96e5fd24f23acf8b4b352d4e1d0d0ed45271f4e44aa64f98b228481565b600a54610296906001600160a01b031681565b6102f77fe01e721169f17f30d0c130781195719ceba11f26f44578668ffd8462c7c1ebe981565b6102c661064e366004612a31565b6118fd565b6102c6610661366004612a31565b611c61565b6102f77fe0391e627a5766ef56109c7c98e0542c6e96a116720d7c626119be5b67e1813d81565b6102f77fdf849ae066ce5ea7a01105f3db8539dd51779b4506741de6731ef32f7f4daa1881565b6102c66106c2366004612a31565b6120ca565b6102f77f5f9af78bb9888a64eda8686df832be8039fe2a08c41dd13a3e0a34cadf71426581565b6000546001600160a01b031633146107645760405162461bcd60e51b815260206004820152602e60248201527f4f6e6c792074686520706f6c69637920636f6e7472616374206d61792063616c60448201526d36103a3434b99036b2ba3437b21760911b60648201526084015b60405180910390fd5b600080825160208401855af43d806000803e81801561078257816000f35b816000fd5b5050505050565b60008061079a30612355565b60405163189acdbd60e31b81523060048201529091506001600160a01b0382169063c4d66de890602401600060405180830381600087803b1580156107de57600080fd5b505af11580156107f2573d6000803e3d6000fd5b5092949350505050565b600080546001600160a01b038381169116148061082657506001546001600160a01b038381169116145b6108985760405162461bcd60e51b815260206004820152603d60248201527f4f6e6c792074686520706f6c696379206f7220696e7465726661636520636f6e60448201527f7472616374206d61792063616c6c20746869732066756e6374696f6e2e000000606482015260840161075b565b6040517f455243313832305f4143434550545f4d41474943000000000000000000000000602082015260340160405160208183030381529060405280519060200120905092915050565b6060600060045467ffffffffffffffff811115610901576109016128c2565b60405190808252806020026020018201604052801561094c57816020015b604080516060810182526000808252602080830182905292820152825260001990920191018161091f5790505b50905060005b6004548110156109f457600360006005838154811061097357610973612b15565b60009182526020808320909101546001600160a01b0390811684528382019490945260409283019091208251606081018452815485168152600182015490941691840191909152600201549082015282518390839081106109d6576109d6612b15565b602002602001018190525080806109ec90612b41565b915050610952565b50919050565b60065460ff1680610a0c575060075442115b610a8c5760405162461bcd60e51b8152602060048201526044602482018190527f546865206465737472756374206f7065726174696f6e2063616e206f6e6c7920908201527f626520706572666f726d6564207768656e2074686520706572696f642069732060648201526337bb32b960e11b608482015260a40161075b565b60045415610aeb5760405162461bcd60e51b815260206004820152602660248201527f4d75737420726566756e6420616c6c206d69737365642070726f706f73616c7360448201526508199a5c9cdd60d21b606482015260840161075b565b6000546040516319bb6e0160e11b81527f331e3a11698d428947c09d6cfecc92b2ccbc4a527e4e795d850152babfaff37a60048201526001600160a01b0390911690633376dc0290602401600060405180830381600087803b158015610b5057600080fd5b505af1158015610b64573d6000803e3d6000fd5b50505050610b706123be565b6000546001600160a01b039182169163a9059cbb9116610b8e6123be565b6040516370a0823160e01b81523060048201526001600160a01b0391909116906370a082319060240160206040518083038186803b158015610bcf57600080fd5b505afa158015610be3573d6000803e3d6000fd5b505050506040513d601f19601f82011682018060405250810190610c079190612b5c565b6040517fffffffff0000000000000000000000000000000000000000000000000000000060e085901b1681526001600160a01b0390921660048301526024820152604401602060405180830381600087803b158015610c6557600080fd5b505af1158015610c79573d6000803e3d6000fd5b505050506040513d601f19601f82011682018060405250810190610c9d9190612b75565b50565b60065460ff16610cf25760405162461bcd60e51b815260206004820152601d60248201527f6e6f2070726f706f73616c20686173206265656e2073656c6563746564000000604482015260640161075b565b60065461010090046001600160a01b0316610d4f5760405162461bcd60e51b815260206004820181905260248201527f766f74696e672068617320616c7265616479206265656e206465706c6f796564604482015260640161075b565b6006805474ffffffffffffffffffffffffffffffffffffffff00198116909155600954604080516309ed460760e01b815290516001600160a01b0361010090940484169360009316916309ed460791600480830192602092919082900301818787803b158015610dbe57600080fd5b505af1158015610dd2573d6000803e3d6000fd5b505050506040513d601f19601f82011682018060405250810190610df69190612b97565b604051633ae5933960e11b81526001600160a01b038481166004830152919250908216906375cb267290602401600060405180830381600087803b158015610e3d57600080fd5b505af1158015610e51573d6000803e3d6000fd5b5050600a5460405163c86564b160e01b81527f65474dbc3934a157baaaa893dea8c73453f0cc9c47a4f857047e8f0c8b54888f60048201526001600160a01b03858116602483015260009450909116915063c86564b190604401602060405180830381600087803b158015610ec557600080fd5b505af1158015610ed9573d6000803e3d6000fd5b505050506040513d601f19601f82011682018060405250810190610efd9190612b97565b6000546040516330f056e560e11b81526001600160a01b0380841660048301529293509116906361e0adca90602401600060405180830381600087803b158015610f4657600080fd5b505af1158015610f5a573d6000803e3d6000fd5b50506040516001600160a01b03851681527ff8ed2b6117507e8f7ba16240930bbd8696ca6f7a957e092ff4d288ee7c27340d9250602001905060405180910390a16001600160a01b038316600090815260036020526040812080546001600160a01b0319908116825560018083018054909216909155600290910191909155600454610fe69190612bb4565b600455505050565b6000546001600160a01b0316331461105f5760405162461bcd60e51b815260206004820152602e60248201527f4f6e6c792074686520706f6c69637920636f6e7472616374206d61792063616c60448201526d36103a3434b99036b2ba3437b21760911b606482015260840161075b565b600180546001600160a01b0319166001600160a01b0392909216919091179055565b306110ab7f331e3a11698d428947c09d6cfecc92b2ccbc4a527e4e795d850152babfaff37a6123ee565b6001600160a01b03161461110c5760405162461bcd60e51b815260206004820152602260248201527f50726f706f73616c20636f6e7472616374206e6f206c6f6e6765722061637469604482015261766560f01b606482015260840161075b565b60065460ff161561116b5760405162461bcd60e51b8152602060048201526024808201527f412070726f706f73616c2068617320616c7265616479206265656e2073656c6560448201526318dd195960e21b606482015260840161075b565b60075442106111f95760405162461bcd60e51b815260206004820152604e60248201527f50726f706f73616c73206d6179206e6f206c6f6e67657220626520737570706f60448201527f7274656420626563617573652074686520726567697374726174696f6e20706560648201526d1c9a5bd9081a185cc8195b99195960921b608482015260a40161075b565b6000611207336008546114e8565b6001600160a01b03808416600090815260036020908152604080832060018101549094168352600282528083203384529091529020549192509060ff1661129a5760405162461bcd60e51b815260206004820152602160248201527f596f752068617665206e6f74207374616b656420746869732070726f706f73616044820152601b60fa1b606482015260840161075b565b8181600201546112aa9190612bb4565b60028083019190915560018201546001600160a01b031660009081526020918252604080822033808452935290819020805460ff19169055517fb76750150566b8990d9c704bbfafe701e25c7f738e6fab8cd40390abdee79193916113259186906001600160a01b0392831681529116602082015260400190565b60405180910390a1505050565b60008061133d6123be565b6001600160a01b031663981b24d0846040518263ffffffff1660e01b815260040161136a91815260200190565b60206040518083038186803b15801561138257600080fd5b505afa158015611396573d6000803e3d6000fd5b505050506040513d601f19601f820116820180604052508101906113ba9190612b5c565b905060006113c661248b565b6001600160a01b0316635bb748ad856040518263ffffffff1660e01b81526004016113f391815260200190565b60206040518083038186803b15801561140b57600080fd5b505afa15801561141f573d6000803e3d6000fd5b505050506040513d601f19601f820116820180604052508101906114439190612b5c565b905080156114e1576114536124b6565b60405163329c53f760e01b815260048101839052602481018690526001600160a01b03919091169063329c53f79060440160206040518083038186803b15801561149c57600080fd5b505afa1580156114b0573d6000803e3d6000fd5b505050506040513d601f19601f820116820180604052508101906114d49190612b5c565b6114de9083612bcb565b91505b5092915050565b6000806114f36123be565b604051631dc7379760e11b81526001600160a01b038681166004830152602482018690529190911690633b8e6f2e9060440160206040518083038186803b15801561153d57600080fd5b505afa158015611551573d6000803e3d6000fd5b505050506040513d601f19601f820116820180604052508101906115759190612b5c565b9050600061158161248b565b60405163334ff4e160e21b81526001600160a01b03878116600483015260248201879052919091169063cd3fd3849060440160206040518083038186803b1580156115cb57600080fd5b505afa1580156115df573d6000803e3d6000fd5b505050506040513d601f19601f820116820180604052508101906116039190612b5c565b905080156116a1576116136124b6565b60405163329c53f760e01b815260048101839052602481018690526001600160a01b03919091169063329c53f79060440160206040518083038186803b15801561165c57600080fd5b505afa158015611670573d6000803e3d6000fd5b505050506040513d601f19601f820116820180604052508101906116949190612b5c565b61169e9083612bcb565b91505b509392505050565b600581815481106116b957600080fd5b6000918252602090912001546001600160a01b0316905081565b6060600580548060200260200160405190810160405280929190818152602001828054801561172b57602002820191906000526020600020905b81546001600160a01b0316815260019091019060200180831161170d575b5050505050905090565b600061174d600080516020612c258339815191525490565b6001600160a01b0316146117b45760405162461bcd60e51b815260206004820152602860248201527f43616e206f6e6c792062652063616c6c656420647572696e6720696e697469616044820152673634bd30ba34b7b760c11b606482015260840161075b565b6117bd816124e1565b806001600160a01b031663984db2426040518163ffffffff1660e01b815260040160206040518083038186803b1580156117f657600080fd5b505afa15801561180a573d6000803e3d6000fd5b505050506040513d601f19601f8201168201806040525081019061182e9190612b97565b600960006101000a8154816001600160a01b0302191690836001600160a01b03160217905550806001600160a01b031663cebd2c096040518163ffffffff1660e01b815260040160206040518083038186803b15801561188d57600080fd5b505afa1580156118a1573d6000803e3d6000fd5b505050506040513d601f19601f820116820180604052508101906118c59190612b97565b600a80546001600160a01b0319166001600160a01b0392909216919091179055610258426118f39190612bcb565b6007555043600855565b6001600160a01b0381166000818152600360205260409020906119625760405162461bcd60e51b815260206004820152601f60248201527f5468652070726f706f73616c20616464726573732063616e2774206265203000604482015260640161075b565b60075442108015611976575060065460ff16155b611a0e5760405162461bcd60e51b815260206004820152604f60248201527f50726f706f73616c73206d6179206e6f206c6f6e67657220626520726567697360448201527f746572656420626563617573652074686520726567697374726174696f6e207060648201527f6572696f642068617320656e6465640000000000000000000000000000000000608482015260a40161075b565b60018101546001600160a01b031615611a785760405162461bcd60e51b815260206004820152602660248201527f412070726f706f73616c206d6179206f6e6c792062652072656769737465726560448201526564206f6e636560d01b606482015260840161075b565b611a806123be565b6040516323b872dd60e01b8152336004820152306024820152683635c9adc5dea0000060448201526001600160a01b0391909116906323b872dd90606401602060405180830381600087803b158015611ad857600080fd5b505af1158015611aec573d6000803e3d6000fd5b505050506040513d601f19601f82011682018060405250810190611b109190612b75565b611ba85760405162461bcd60e51b815260206004820152605d60248201527f54686520746f6b656e20636f7374206f6620726567697374726174696f6e206d60448201527f75737420626520617070726f76656420746f207472616e73666572207072696f60648201527f7220746f2063616c6c696e6720726567697374657250726f706f73616c000000608482015260a40161075b565b600180820180546001600160a01b0385166001600160a01b0319918216811790925583548116331784556005805480850182556000919091527f036b6384b5eca791c62761152d0c79bb0604c104a5fb6f4eb0703f3154bb3db00180549091169091179055600454611c1991612bcb565b600455604080513381526001600160a01b03841660208201527f3fcbb80957eda973db8d46e93fd04cf31f9d8370afd86fff2f3c826ee7403d20910160405180910390a15050565b30611c8b7f331e3a11698d428947c09d6cfecc92b2ccbc4a527e4e795d850152babfaff37a6123ee565b6001600160a01b031614611cec5760405162461bcd60e51b815260206004820152602260248201527f50726f706f73616c20636f6e7472616374206e6f206c6f6e6765722061637469604482015261766560f01b606482015260840161075b565b60065460ff1615611d4b5760405162461bcd60e51b8152602060048201526024808201527f412070726f706f73616c2068617320616c7265616479206265656e2073656c6560448201526318dd195960e21b606482015260840161075b565b6007544210611dd95760405162461bcd60e51b815260206004820152604e60248201527f50726f706f73616c73206d6179206e6f206c6f6e67657220626520737570706f60448201527f7274656420626563617573652074686520726567697374726174696f6e20706560648201526d1c9a5bd9081a185cc8195b99195960921b608482015260a40161075b565b6000611de7336008546114e8565b90506000611df6600854611332565b6001600160a01b038416600090815260036020526040902090915082611e965760405162461bcd60e51b815260206004820152604960248201527f496e206f7264657220746f20737570706f727420612070726f706f73616c207960448201527f6f75206d757374207374616b652061206e6f6e2d7a65726f20616d6f756e74206064820152686f6620746f6b656e7360b81b608482015260a40161075b565b60018101546001600160a01b0316611f015760405162461bcd60e51b815260206004820152602860248201527f54686520737570706f727465642070726f706f73616c206973206e6f7420726560448201526719da5cdd195c995960c21b606482015260840161075b565b60018101546001600160a01b0316600090815260026020908152604080832033845290915290205460ff1615611f9f5760405162461bcd60e51b815260206004820152603060248201527f596f75206d6179206e6f74207374616b6520696e20737570706f7274206f662060448201527f612070726f706f73616c20747769636500000000000000000000000000000000606482015260840161075b565b828160020154611faf9190612bcb565b6002808301919091556001808301546001600160a01b03166000908152602092835260408082203380845294529020805460ff19169091179055611ff2906125dd565b604080513381526001600160a01b03861660208201527f044032bdad012ab1001337af550128e75e446f1f8d8c32eb9c6193a13d56fc70910160405180910390a1606461204083601e612be3565b61204a9190612c02565b816002015411156120c4576040516001600160a01b03851681527f2579eab5d400c5cc266359842639b59e8c3629d634c5e6d274fe8ad69128844a9060200160405180910390a1600680546001600160a01b0386166101000274ffffffffffffffffffffffffffffffffffffffffff199091161760011790555b50505050565b60065460ff16806120dc575060075442115b61214e5760405162461bcd60e51b815260206004820152603760248201527f526566756e6473206d6179206e6f74206265206469737472696275746564207560448201527f6e74696c2074686520706572696f64206973206f766572000000000000000000606482015260840161075b565b6001600160a01b0381166121a45760405162461bcd60e51b815260206004820152601f60248201527f5468652070726f706f73616c20616464726573732063616e2774206265203000604482015260640161075b565b6001600160a01b0380821660008181526003602052604090206001810154909216146122255760405162461bcd60e51b815260206004820152602a60248201527f5468652070726f76696465642070726f706f73616c2061646472657373206973604482015269081b9bdd081d985b1a5960b21b606482015260840161075b565b80546001600160a01b03838116600090815260036020526040812080546001600160a01b0319908116825560018281018054909216909155600290910191909155600454919092169161227791612bb4565b6004556122826123be565b60405163a9059cbb60e01b81526001600160a01b038381166004830152682b5e3af16b188000006024830152919091169063a9059cbb90604401602060405180830381600087803b1580156122d657600080fd5b505af11580156122ea573d6000803e3d6000fd5b505050506040513d601f19601f8201168201806040525081019061230e9190612b75565b506001820154604080516001600160a01b03808516825290921660208301527fa4b5ba93242889336ac4acfa759ee8ad38969fd974e00cc01dee8fb2e4463aa89101611325565b6000808260601b90506040517f3d602d80600a3d3981f3363d3d373d3d3d363d7300000000000000000000000081528160148201527f5af43d82803e903d91602b57fd5bf3000000000000000000000000000000000060288201526037816000f0949350505050565b60006123e97fe0391e627a5766ef56109c7c98e0542c6e96a116720d7c626119be5b67e1813d6123ee565b905090565b6000805460405163555ddc6560e11b81526001600160a01b03909116600482015260248101839052731820a4b7618bde71dce8cdc73aab6c95905fad249063aabbb8ca9060440160206040518083038186803b15801561244d57600080fd5b505afa158015612461573d6000803e3d6000fd5b505050506040513d601f19601f820116820180604052508101906124859190612b97565b92915050565b60006123e97fdf849ae066ce5ea7a01105f3db8539dd51779b4506741de6731ef32f7f4daa186123ee565b60006123e97fe10ab6c94f1da69921a0ca1c1b96b4fc339699153931c9bfd565e91f44c19b0b6123ee565b60006124f9600080516020612c258339815191525490565b6001600160a01b0316146125605760405162461bcd60e51b815260206004820152602860248201527f43616e206f6e6c792062652063616c6c656420647572696e6720696e697469616044820152673634bd30ba34b7b760c11b606482015260840161075b565b61256981612615565b600054604051635df8122f60e01b81523060048201526001600160a01b039091166024820152731820a4b7618bde71dce8cdc73aab6c95905fad2490635df8122f906044015b600060405180830381600087803b1580156125c957600080fd5b505af1158015610787573d6000803e3d6000fd5b6125e561248b565b6040516324b07fd160e21b81526001600160a01b03838116600483015291909116906392c1ff44906024016125af565b600061262d600080516020612c258339815191525490565b6001600160a01b0316146126945760405162461bcd60e51b815260206004820152602860248201527f43616e206f6e6c792062652063616c6c656420647572696e6720696e697469616044820152673634bd30ba34b7b760c11b606482015260840161075b565b61269d81612731565b806001600160a01b0316630505c8c96040518163ffffffff1660e01b815260040160206040518083038186803b1580156126d657600080fd5b505afa1580156126ea573d6000803e3d6000fd5b505050506040513d601f19601f8201168201806040525081019061270e9190612b97565b600080546001600160a01b0319166001600160a01b039290921691909117905550565b6000612749600080516020612c258339815191525490565b6001600160a01b0316146127b05760405162461bcd60e51b815260206004820152602860248201527f43616e206f6e6c792062652063616c6c656420647572696e6720696e697469616044820152673634bd30ba34b7b760c11b606482015260840161075b565b610c9d816001600160a01b0316635c60da1b6040518163ffffffff1660e01b815260040160206040518083038186803b1580156127ec57600080fd5b505afa158015612800573d6000803e3d6000fd5b505050506040513d601f19601f820116820180604052508101906128249190612b97565b806001600160a01b0316612844600080516020612c258339815191525490565b6001600160a01b0316141561289b5760405162461bcd60e51b815260206004820152601f60248201527f496d706c656d656e746174696f6e20616c7265616479206d61746368696e6700604482015260640161075b565b600080516020612c2583398151915255565b6001600160a01b0381168114610c9d57600080fd5b634e487b7160e01b600052604160045260246000fd5b600080604083850312156128eb57600080fd5b82356128f6816128ad565b9150602083013567ffffffffffffffff8082111561291357600080fd5b818501915085601f83011261292757600080fd5b813581811115612939576129396128c2565b604051601f8201601f19908116603f01168101908382118183101715612961576129616128c2565b8160405282815288602084870101111561297a57600080fd5b8260208601602083013760006020848301015280955050505050509250929050565b600080604083850312156129af57600080fd5b8235915060208301356129c1816128ad565b809150509250929050565b602080825282518282018190526000919060409081850190868401855b82811015612a2457815180516001600160a01b03908116865287820151168786015285015185850152606090930192908501906001016129e9565b5091979650505050505050565b600060208284031215612a4357600080fd5b8135612a4e816128ad565b9392505050565b600060208284031215612a6757600080fd5b5035919050565b60008060408385031215612a8157600080fd5b8235612a8c816128ad565b946020939093013593505050565b6020808252825182820181905260009190848201906040850190845b81811015612adb5783516001600160a01b031683529284019291840191600101612ab6565b50909695505050505050565b60008060408385031215612afa57600080fd5b8235612b05816128ad565b915060208301356129c1816128ad565b634e487b7160e01b600052603260045260246000fd5b634e487b7160e01b600052601160045260246000fd5b6000600019821415612b5557612b55612b2b565b5060010190565b600060208284031215612b6e57600080fd5b5051919050565b600060208284031215612b8757600080fd5b81518015158114612a4e57600080fd5b600060208284031215612ba957600080fd5b8151612a4e816128ad565b600082821015612bc657612bc6612b2b565b500390565b60008219821115612bde57612bde612b2b565b500190565b6000816000190483118215151615612bfd57612bfd612b2b565b500290565b600082612c1f57634e487b7160e01b600052601260045260246000fd5b50049056fef86c915dad5894faca0dfa067c58fdf4307406d255ed0a65db394f82b77f53d4a2646970667358221220b6099eceff276f187c0a40ac3057c96c6757d2ba744a065ff46042f3959d748e64736f6c63430008090033f86c915dad5894faca0dfa067c58fdf4307406d255ed0a65db394f82b77f53d4",
  "immutableReferences": {},
  "source": "// SPDX-License-Identifier: MIT\npragma solidity ^0.8.9;\n\nimport \"../policy/Policy.sol\";\nimport \"../currency/EcoBalanceStore.sol\";\nimport \"../policy/PolicedUtils.sol\";\nimport \"./Proposal.sol\";\nimport \"./PolicyVotes.sol\";\nimport \"./SimplePolicySetter.sol\";\nimport \"./VotingPower.sol\";\nimport \"../utils/TimeUtils.sol\";\nimport \"@openzeppelin/contracts/token/ERC20/IERC20.sol\";\n\n/** @title PolicyProposals\n * `PolicyProposals` oversees the proposals phase of the policy decision\n * process. Proposals can be submitted by anyone willing to put forth funds, and\n * submitted proposals can be supported by anyone\n *\n * First, during the proposals portion of the proposals phase, proposals can be\n * submitted (for a fee). This is parallelized with a signal voting process where\n * support can be distributed and redistributed to proposals after they are submitted.\n *\n * A proposal that makes it to support above 30% of the total possible support ends this\n * phase and starts a vote.\n */\ncontract PolicyProposals is VotingPower, TimeUtils {\n    /** A proposal submitted to the process.\n     */\n    struct Prop {\n        /* The address of the proposing account.\n         */\n        address proposer;\n        /* The address of the proposal contract.\n         */\n        address proposal;\n        /* The amount of tokens staked in support of this proposal.\n         */\n        uint256 totalstake;\n    }\n\n    /* A record of which addresses have already staked in support of each proposal\n     */\n    mapping(address => mapping(address => bool)) public staked;\n\n    /** The set of proposals under consideration.\n     * maps from addresses of proposals to structs containing with info and\n     * the staking data (struct defined above)\n     */\n    mapping(address => Prop) public proposals;\n\n    /** The total number of proposals made.\n     */\n    uint256 public totalproposals;\n\n    /** A list of the addresses of all proposals made.\n     */\n    address[] public allProposals;\n\n    /** The duration of the proposal portion of the proposal phase.\n     */\n    uint256 public constant PROPOSAL_TIME = 10 minutes;\n\n    /** Whether or not a winning proposal has been selected\n     */\n    bool public proposalSelected;\n\n    /** selected proposal awaiting configuration before voting\n     */\n    address public proposalToConfigure;\n\n    /** The minimum cost to register a proposal.\n     */\n    uint256 public constant COST_REGISTER = 1000000000000000000000;\n\n    /** The amount refunded if a proposal does not get selected.\n     */\n    uint256 public constant REFUND_IF_LOST = 800000000000000000000;\n\n    /** The time at which the proposal portion of the proposals phase ends.\n     */\n    uint256 public proposalEnds;\n\n    /** The block number of the balance stores to use for staking in\n     * support of a proposal.\n     */\n    uint256 public blockNumber;\n\n    /** The address of the `PolicyVotes` contract, to be cloned for the voting\n     * phase.\n     */\n    address public policyVotesImpl;\n\n    /** The address of a `SimplePolicySetter` contract used to grant permissions\n     * for the voting phase.\n     */\n    address public simplePolicyImpl;\n\n    /** An event indicating a proposal has been proposed\n     *\n     * @param proposalAddress The address of the PolicyVotes contract instance.\n     */\n    event ProposalAdded(address proposer, address proposalAddress);\n\n    /** An event indicating that proposal have been supported by stake.\n     *\n     * @param proposalAddress The address of the PolicyVotes contract instance that was supported\n     */\n    event ProposalSupported(address supporter, address proposalAddress);\n\n    /** An event indicating that support has been removed from a proposal.\n     *\n     * @param proposalAddress The address of the PolicyVotes contract instance that was supported\n     */\n    event ProposalUnsupported(address unsupporter, address proposalAddress);\n\n    /** An event indicating a proposal has reached its support threshold\n     *\n     * @param proposalAddress The address of the PolicyVotes contract instance.\n     */\n    event SupportThresholdReached(address proposalAddress);\n\n    /** An event indicating that proposals have been accepted for voting\n     *\n     * @param contractAddress The address of the PolicyVotes contract instance.\n     */\n    event VotingStarted(address contractAddress);\n\n    /** An event indicating that proposal fee was partially refunded.\n     *\n     * @param proposer The address of the proposee which was refunded\n     */\n    event ProposalRefunded(address proposer, address proposalAddress);\n\n    /** Construct a new PolicyProposals instance using the provided supervising\n     * policy (root) and supporting contracts.\n     *\n     * @param _policy The root policy contract.\n     * @param _policyvotes The address of the contract that will be cloned to\n     *                     oversee the voting phase.\n     * @param _simplepolicy The address of the `SimplePolicySetter` contract to\n     *                      be used in managing permissions.\n     */\n    constructor(\n        address _policy,\n        address _policyvotes,\n        address _simplepolicy\n    ) VotingPower(_policy) {\n        policyVotesImpl = _policyvotes;\n        simplePolicyImpl = _simplepolicy;\n    }\n\n    /** Initialize the storage context using parameters copied from the original\n     * contract (provided as _self).\n     *\n     * Can only be called once, during proxy initialization.\n     *\n     * @param _self The original contract address.\n     */\n    function initialize(address _self) public override onlyConstruction {\n        super.initialize(_self);\n\n        policyVotesImpl = PolicyProposals(_self).policyVotesImpl();\n        simplePolicyImpl = PolicyProposals(_self).simplePolicyImpl();\n\n        proposalEnds = getTime() + PROPOSAL_TIME;\n        blockNumber = block.number;\n    }\n\n    /** A list of addresses for all proposed policies\n     */\n    function allProposalAddresses() public view returns (address[] memory) {\n        return allProposals;\n    }\n\n    /** A list of all proposed policies\n     */\n    function allProposalData() public view returns (Prop[] memory) {\n        Prop[] memory proposalData = new Prop[](totalproposals);\n        for (uint256 index = 0; index < totalproposals; index++) {\n            proposalData[index] = proposals[allProposals[index]];\n        }\n\n        return proposalData;\n    }\n\n    /** Submit a proposal.\n     *\n     * You must approve the policy proposals contract to withdraw the required\n     * fee from your account before calling this.\n     *\n     * Can only be called during the proposals portion of the proposals phase.\n     * Each proposal may only be submitted once.\n     *\n     * @param _prop The address of the proposal to submit.\n     */\n    function registerProposal(address _prop) external {\n        Prop storage _p = proposals[_prop];\n\n        require(_prop != address(0), \"The proposal address can't be 0\");\n\n        require(\n            getTime() < proposalEnds && !proposalSelected,\n            \"Proposals may no longer be registered because the registration period has ended\"\n        );\n        require(\n            _p.proposal == address(0),\n            \"A proposal may only be registered once\"\n        );\n        require(\n            getToken().transferFrom(msg.sender, address(this), COST_REGISTER),\n            \"The token cost of registration must be approved to transfer prior to calling registerProposal\"\n        );\n\n        _p.proposal = _prop;\n        _p.proposer = msg.sender;\n\n        allProposals.push(_prop);\n        totalproposals = totalproposals + 1;\n\n        emit ProposalAdded(msg.sender, _prop);\n    }\n\n    /** Stake in support of an existing proposal.\n     *\n     * Can only be called during the staking portion of the proposals phase.\n     *\n     * Your voting strength is added to the supporting stake of the proposal.\n     *\n     * @param _prop The proposal to support.\n     */\n    function support(address _prop) external {\n        require(\n            policyFor(ID_POLICY_PROPOSALS) == address(this),\n            \"Proposal contract no longer active\"\n        );\n        require(!proposalSelected, \"A proposal has already been selected\");\n        require(\n            getTime() < proposalEnds,\n            \"Proposals may no longer be supported because the registration period has ended\"\n        );\n\n        uint256 _amount = votingPower(msg.sender, blockNumber);\n        uint256 _total = totalVotingPower(blockNumber);\n\n        Prop storage _p = proposals[address(_prop)];\n\n        require(\n            _amount > 0,\n            \"In order to support a proposal you must stake a non-zero amount of tokens\"\n        );\n        require(\n            _p.proposal != address(0),\n            \"The supported proposal is not registered\"\n        );\n        require(\n            !staked[_p.proposal][msg.sender],\n            \"You may not stake in support of a proposal twice\"\n        );\n\n        _p.totalstake = _p.totalstake + _amount;\n        staked[_p.proposal][msg.sender] = true;\n\n        recordVote(msg.sender);\n        emit ProposalSupported(msg.sender, _prop);\n\n        if (_p.totalstake > (_total * 30) / 100) {\n            emit SupportThresholdReached(_prop);\n            proposalSelected = true;\n            proposalToConfigure = _prop;\n        }\n    }\n\n    function unsupport(address _prop) external {\n        require(\n            policyFor(ID_POLICY_PROPOSALS) == address(this),\n            \"Proposal contract no longer active\"\n        );\n        require(!proposalSelected, \"A proposal has already been selected\");\n        require(\n            getTime() < proposalEnds,\n            \"Proposals may no longer be supported because the registration period has ended\"\n        );\n\n        uint256 _amount = votingPower(msg.sender, blockNumber);\n        Prop storage _p = proposals[address(_prop)];\n\n        require(\n            staked[_p.proposal][msg.sender],\n            \"You have not staked this proposal\"\n        );\n\n        _p.totalstake = _p.totalstake - _amount;\n        staked[_p.proposal][msg.sender] = false;\n\n        emit ProposalUnsupported(msg.sender, _prop);\n    }\n\n    function deployProposalVoting() external {\n        require(proposalSelected, \"no proposal has been selected\");\n        require(\n            proposalToConfigure != address(0),\n            \"voting has already been deployed\"\n        );\n        address votingProposal = proposalToConfigure;\n        delete proposalToConfigure;\n\n        PolicyVotes pv = PolicyVotes(PolicyVotes(policyVotesImpl).clone());\n        pv.configure(address(votingProposal));\n\n        SimplePolicySetter sps = SimplePolicySetter(\n            SimplePolicySetter(simplePolicyImpl).clone(\n                ID_POLICY_VOTES,\n                address(pv)\n            )\n        );\n        Policy(policy).internalCommand(address(sps));\n\n        emit VotingStarted(address(pv));\n\n        delete proposals[address(votingProposal)];\n        totalproposals = totalproposals - 1;\n    }\n\n    /** Refund the fee for a proposal that was not selected.\n     *\n     * Returns a partial refund only, does not work on proposals that are\n     * on the ballot for the voting phase, and can only be called after the\n     * period is over.\n     *\n     * @param _prop The proposal to issue a refund for.\n     */\n    function refund(address _prop) external {\n        require(\n            proposalSelected || getTime() > proposalEnds,\n            \"Refunds may not be distributed until the period is over\"\n        );\n\n        require(_prop != address(0), \"The proposal address can't be 0\");\n\n        Prop storage _p = proposals[_prop];\n        require(\n            _p.proposal == _prop,\n            \"The provided proposal address is not valid\"\n        );\n\n        address receiver = _p.proposer;\n\n        delete proposals[_prop];\n        totalproposals = totalproposals - 1;\n\n        getToken().transfer(receiver, REFUND_IF_LOST);\n\n        emit ProposalRefunded(receiver, _p.proposal);\n    }\n\n    /** Reclaim tokens after end time\n     * only callable if all proposals are refunded\n     */\n    function destruct() external {\n        require(\n            proposalSelected || getTime() > proposalEnds,\n            \"The destruct operation can only be performed when the period is over\"\n        );\n\n        require(totalproposals == 0, \"Must refund all missed proposals first\");\n\n        Policy(policy).removeSelf(ID_POLICY_PROPOSALS);\n\n        getToken().transfer(\n            address(uint160(policy)),\n            getToken().balanceOf(address(this))\n        );\n    }\n\n    /** Get the associated ERC20 token address.\n     */\n    function getToken() private view returns (IERC20) {\n        return IERC20(policyFor(ID_ECO));\n    }\n}\n",
  "sourcePath": "/Users/dirksmac/dev/eco/currency/contracts/governance/PolicyProposals.sol",
  "compiler": {
    "name": "solc",
    "version": "0.8.9+commit.e5eed63a.Emscripten.clang"
  },
  "schemaVersion": "3.4.3",
  "updatedAt": "2022-06-16T22:14:23.093Z",
  "devdoc": {
    "events": {
      "ProposalAdded(address,address)": {
        "params": {
          "proposalAddress": "The address of the PolicyVotes contract instance."
        }
      },
      "ProposalRefunded(address,address)": {
        "params": {
          "proposer": "The address of the proposee which was refunded"
        }
      },
      "ProposalSupported(address,address)": {
        "params": {
          "proposalAddress": "The address of the PolicyVotes contract instance that was supported"
        }
      },
      "ProposalUnsupported(address,address)": {
        "params": {
          "proposalAddress": "The address of the PolicyVotes contract instance that was supported"
        }
      },
      "SupportThresholdReached(address)": {
        "params": {
          "proposalAddress": "The address of the PolicyVotes contract instance."
        }
      },
      "VotingStarted(address)": {
        "params": {
          "contractAddress": "The address of the PolicyVotes contract instance."
        }
      }
    },
    "kind": "dev",
    "methods": {
      "canImplementInterfaceForAddress(bytes32,address)": {
        "params": {
          "_addr": "The address of the contract we might act on behalf of."
        }
      },
      "constructor": {
        "params": {
          "_policy": "The root policy contract.",
          "_policyvotes": "The address of the contract that will be cloned to                     oversee the voting phase.",
          "_simplepolicy": "The address of the `SimplePolicySetter` contract to                      be used in managing permissions."
        }
      },
      "initialize(address)": {
        "params": {
          "_self": "The original contract address."
        }
      },
      "policyCommand(address,bytes)": {
        "params": {
          "_data": "The call message/data to execute on.",
          "_delegate": "The address of the contract to delegate execution to."
        }
      },
      "refund(address)": {
        "params": {
          "_prop": "The proposal to issue a refund for."
        }
      },
      "registerProposal(address)": {
        "params": {
          "_prop": "The address of the proposal to submit."
        }
      },
      "support(address)": {
        "params": {
          "_prop": "The proposal to support."
        }
      }
    },
    "title": "PolicyProposals `PolicyProposals` oversees the proposals phase of the policy decision process. Proposals can be submitted by anyone willing to put forth funds, and submitted proposals can be supported by anyone First, during the proposals portion of the proposals phase, proposals can be submitted (for a fee). This is parallelized with a signal voting process where support can be distributed and redistributed to proposals after they are submitted. A proposal that makes it to support above 30% of the total possible support ends this phase and starts a vote.",
    "version": 1
  },
  "userdoc": {
    "events": {
      "ProposalAdded(address,address)": {
        "notice": "An event indicating a proposal has been proposed"
      },
      "ProposalRefunded(address,address)": {
        "notice": "An event indicating that proposal fee was partially refunded."
      },
      "ProposalSupported(address,address)": {
        "notice": "An event indicating that proposal have been supported by stake."
      },
      "ProposalUnsupported(address,address)": {
        "notice": "An event indicating that support has been removed from a proposal."
      },
      "SupportThresholdReached(address)": {
        "notice": "An event indicating a proposal has reached its support threshold"
      },
      "VotingStarted(address)": {
        "notice": "An event indicating that proposals have been accepted for voting"
      }
    },
    "kind": "user",
    "methods": {
      "COST_REGISTER()": {
        "notice": "The minimum cost to register a proposal."
      },
      "PROPOSAL_TIME()": {
        "notice": "The duration of the proposal portion of the proposal phase."
      },
      "REFUND_IF_LOST()": {
        "notice": "The amount refunded if a proposal does not get selected."
      },
      "allProposalAddresses()": {
        "notice": "A list of addresses for all proposed policies"
      },
      "allProposalData()": {
        "notice": "A list of all proposed policies"
      },
      "allProposals(uint256)": {
        "notice": "A list of the addresses of all proposals made."
      },
      "blockNumber()": {
        "notice": "The block number of the balance stores to use for staking in support of a proposal."
      },
      "canImplementInterfaceForAddress(bytes32,address)": {
        "notice": "ERC1820 permissioning interface"
      },
      "clone()": {
        "notice": "Create a clone of this contract Creates a clone of this contract by instantiating a proxy at a new address and initializing it based on the current contract. Uses optionality.io's CloneFactory functionality. This is used to save gas cost during deployments. Rather than including the full contract code in every contract that might instantiate it we can deploy it once and reference the location it was deployed to. Then calls to clone() can be used to create instances as needed without increasing the code size of the instantiating contract."
      },
      "constructor": {
        "notice": "Construct a new PolicyProposals instance using the provided supervising policy (root) and supporting contracts."
      },
      "destruct()": {
        "notice": "Reclaim tokens after end time only callable if all proposals are refunded"
      },
      "implementation()": {
        "notice": "Get the address of the proxy target contract."
      },
      "initialize(address)": {
        "notice": "Initialize the storage context using parameters copied from the original contract (provided as _self). Can only be called once, during proxy initialization."
      },
      "policy()": {
        "notice": "The address of the root policy instance overseeing this instance. This address can be used for ERC1820 lookup of other components, ERC1820 lookup of role policies, and interaction with the policy hierarchy."
      },
      "policyCommand(address,bytes)": {
        "notice": "Execute code as indicated by the managing policy contract We allow the managing policy contract to execute arbitrary code in our context by allowing it to specify an implementation address and some message data, and then using delegatecall to execute the code at the implementation address, passing in the message data, all within our own address space."
      },
      "policyVotesImpl()": {
        "notice": "The address of the `PolicyVotes` contract, to be cloned for the voting phase."
      },
      "proposalEnds()": {
        "notice": "The time at which the proposal portion of the proposals phase ends."
      },
      "proposalSelected()": {
        "notice": "Whether or not a winning proposal has been selected"
      },
      "proposalToConfigure()": {
        "notice": "selected proposal awaiting configuration before voting"
      },
      "proposals(address)": {
        "notice": "The set of proposals under consideration. maps from addresses of proposals to structs containing with info and the staking data (struct defined above)"
      },
      "refund(address)": {
        "notice": "Refund the fee for a proposal that was not selected. Returns a partial refund only, does not work on proposals that are on the ballot for the voting phase, and can only be called after the period is over."
      },
      "registerProposal(address)": {
        "notice": "Submit a proposal. You must approve the policy proposals contract to withdraw the required fee from your account before calling this. Can only be called during the proposals portion of the proposals phase. Each proposal may only be submitted once."
      },
      "setExpectedInterfaceSet(address)": {
        "notice": "Set the expected interface set"
      },
      "simplePolicyImpl()": {
        "notice": "The address of a `SimplePolicySetter` contract used to grant permissions for the voting phase."
      },
      "support(address)": {
        "notice": "Stake in support of an existing proposal. Can only be called during the staking portion of the proposals phase. Your voting strength is added to the supporting stake of the proposal."
      },
      "totalproposals()": {
        "notice": "The total number of proposals made."
      }
    },
    "version": 1
  }
}