{
  "contractName": "PolicyProposals",
  "abi": [
    {
      "inputs": [
        {
          "internalType": "contract Policy",
          "name": "_policy",
          "type": "address"
        },
        {
          "internalType": "contract PolicyVotes",
          "name": "_policyvotes",
          "type": "address"
        },
        {
          "internalType": "contract ECO",
          "name": "_ecoAddr",
          "type": "address"
        },
        {
          "internalType": "contract ECOx",
          "name": "_ecoXAddr",
          "type": "address"
        }
      ],
      "stateMutability": "nonpayable",
      "type": "constructor"
    },
    {
      "anonymous": false,
      "inputs": [
        {
          "indexed": true,
          "internalType": "address",
          "name": "proposer",
          "type": "address"
        },
        {
          "indexed": true,
          "internalType": "contract Proposal",
          "name": "proposalAddress",
          "type": "address"
        }
      ],
      "name": "ProposalRefund",
      "type": "event"
    },
    {
      "anonymous": false,
      "inputs": [
        {
          "indexed": true,
          "internalType": "address",
          "name": "proposer",
          "type": "address"
        },
        {
          "indexed": true,
          "internalType": "contract Proposal",
          "name": "proposalAddress",
          "type": "address"
        }
      ],
      "name": "Register",
      "type": "event"
    },
    {
      "anonymous": false,
      "inputs": [
        {
          "indexed": true,
          "internalType": "address",
          "name": "supporter",
          "type": "address"
        },
        {
          "indexed": true,
          "internalType": "contract Proposal",
          "name": "proposalAddress",
          "type": "address"
        }
      ],
      "name": "Support",
      "type": "event"
    },
    {
      "anonymous": false,
      "inputs": [
        {
          "indexed": true,
          "internalType": "contract Proposal",
          "name": "proposalAddress",
          "type": "address"
        }
      ],
      "name": "SupportThresholdReached",
      "type": "event"
    },
    {
      "anonymous": false,
      "inputs": [
        {
          "indexed": true,
          "internalType": "address",
          "name": "unsupporter",
          "type": "address"
        },
        {
          "indexed": true,
          "internalType": "contract Proposal",
          "name": "proposalAddress",
          "type": "address"
        }
      ],
      "name": "Unsupport",
      "type": "event"
    },
    {
      "anonymous": false,
      "inputs": [
        {
          "indexed": true,
          "internalType": "contract PolicyVotes",
          "name": "contractAddress",
          "type": "address"
        }
      ],
      "name": "VoteStart",
      "type": "event"
    },
    {
      "inputs": [],
      "name": "COST_REGISTER",
      "outputs": [
        {
          "internalType": "uint256",
          "name": "",
          "type": "uint256"
        }
      ],
      "stateMutability": "view",
      "type": "function"
    },
    {
      "inputs": [],
      "name": "PROPOSAL_TIME",
      "outputs": [
        {
          "internalType": "uint256",
          "name": "",
          "type": "uint256"
        }
      ],
      "stateMutability": "view",
      "type": "function"
    },
    {
      "inputs": [],
      "name": "REFUND_IF_LOST",
      "outputs": [
        {
          "internalType": "uint256",
          "name": "",
          "type": "uint256"
        }
      ],
      "stateMutability": "view",
      "type": "function"
    },
    {
      "inputs": [],
      "name": "SUPPORT_THRESHOLD",
      "outputs": [
        {
          "internalType": "uint256",
          "name": "",
          "type": "uint256"
        }
      ],
      "stateMutability": "view",
      "type": "function"
    },
    {
      "inputs": [],
      "name": "SUPPORT_THRESHOLD_DIVISOR",
      "outputs": [
        {
          "internalType": "uint256",
          "name": "",
          "type": "uint256"
        }
      ],
      "stateMutability": "view",
      "type": "function"
    },
    {
      "inputs": [
        {
          "internalType": "uint256",
          "name": "",
          "type": "uint256"
        }
      ],
      "name": "allProposals",
      "outputs": [
        {
          "internalType": "contract Proposal",
          "name": "",
          "type": "address"
        }
      ],
      "stateMutability": "view",
      "type": "function"
    },
    {
      "inputs": [],
      "name": "blockNumber",
      "outputs": [
        {
          "internalType": "uint256",
          "name": "",
          "type": "uint256"
        }
      ],
      "stateMutability": "view",
      "type": "function"
    },
    {
      "inputs": [
        {
          "internalType": "bytes32",
          "name": "",
          "type": "bytes32"
        },
        {
          "internalType": "address",
          "name": "_addr",
          "type": "address"
        }
      ],
      "name": "canImplementInterfaceForAddress",
      "outputs": [
        {
          "internalType": "bytes32",
          "name": "",
          "type": "bytes32"
        }
      ],
      "stateMutability": "view",
      "type": "function"
    },
    {
      "inputs": [],
      "name": "clone",
      "outputs": [
        {
          "internalType": "address",
          "name": "",
          "type": "address"
        }
      ],
      "stateMutability": "nonpayable",
      "type": "function"
    },
    {
      "inputs": [],
      "name": "ecoToken",
      "outputs": [
        {
          "internalType": "contract ECO",
          "name": "",
          "type": "address"
        }
      ],
      "stateMutability": "view",
      "type": "function"
    },
    {
      "inputs": [],
      "name": "ecoXToken",
      "outputs": [
        {
          "internalType": "contract ECOx",
          "name": "",
          "type": "address"
        }
      ],
      "stateMutability": "view",
      "type": "function"
    },
    {
      "inputs": [],
      "name": "implementation",
      "outputs": [
        {
          "internalType": "address",
          "name": "_impl",
          "type": "address"
        }
      ],
      "stateMutability": "view",
      "type": "function"
    },
    {
      "inputs": [],
      "name": "policy",
      "outputs": [
        {
          "internalType": "contract Policy",
          "name": "",
          "type": "address"
        }
      ],
      "stateMutability": "view",
      "type": "function"
    },
    {
      "inputs": [
        {
          "internalType": "address",
          "name": "_delegate",
          "type": "address"
        },
        {
          "internalType": "bytes",
          "name": "_data",
          "type": "bytes"
        }
      ],
      "name": "policyCommand",
      "outputs": [],
      "stateMutability": "nonpayable",
      "type": "function"
    },
    {
      "inputs": [],
      "name": "policyVotesImpl",
      "outputs": [
        {
          "internalType": "contract PolicyVotes",
          "name": "",
          "type": "address"
        }
      ],
      "stateMutability": "view",
      "type": "function"
    },
    {
      "inputs": [],
      "name": "proposalEnds",
      "outputs": [
        {
          "internalType": "uint256",
          "name": "",
          "type": "uint256"
        }
      ],
      "stateMutability": "view",
      "type": "function"
    },
    {
      "inputs": [],
      "name": "proposalSelected",
      "outputs": [
        {
          "internalType": "bool",
          "name": "",
          "type": "bool"
        }
      ],
      "stateMutability": "view",
      "type": "function"
    },
    {
      "inputs": [],
      "name": "proposalToConfigure",
      "outputs": [
        {
          "internalType": "contract Proposal",
          "name": "",
          "type": "address"
        }
      ],
      "stateMutability": "view",
      "type": "function"
    },
    {
      "inputs": [
        {
          "internalType": "contract Proposal",
          "name": "",
          "type": "address"
        }
      ],
      "name": "proposals",
      "outputs": [
        {
          "internalType": "address",
          "name": "proposer",
          "type": "address"
        },
        {
          "internalType": "contract Proposal",
          "name": "proposal",
          "type": "address"
        },
        {
          "internalType": "uint256",
          "name": "totalStake",
          "type": "uint256"
        }
      ],
      "stateMutability": "view",
      "type": "function"
    },
    {
      "inputs": [
        {
          "internalType": "address",
          "name": "_addr",
          "type": "address"
        }
      ],
      "name": "setExpectedInterfaceSet",
      "outputs": [],
      "stateMutability": "nonpayable",
      "type": "function"
    },
    {
      "inputs": [
        {
          "internalType": "contract Proposal",
          "name": "",
          "type": "address"
        },
        {
          "internalType": "address",
          "name": "",
          "type": "address"
        }
      ],
      "name": "staked",
      "outputs": [
        {
          "internalType": "bool",
          "name": "",
          "type": "bool"
        }
      ],
      "stateMutability": "view",
      "type": "function"
    },
    {
      "inputs": [],
      "name": "totalProposals",
      "outputs": [
        {
          "internalType": "uint256",
          "name": "",
          "type": "uint256"
        }
      ],
      "stateMutability": "view",
      "type": "function"
    },
    {
      "inputs": [
        {
          "internalType": "uint256",
          "name": "_blockNumber",
          "type": "uint256"
        }
      ],
      "name": "totalVotingPower",
      "outputs": [
        {
          "internalType": "uint256",
          "name": "",
          "type": "uint256"
        }
      ],
      "stateMutability": "view",
      "type": "function"
    },
    {
      "inputs": [
        {
          "internalType": "address",
          "name": "_who",
          "type": "address"
        },
        {
          "internalType": "uint256",
          "name": "_blockNumber",
          "type": "uint256"
        }
      ],
      "name": "votingPower",
      "outputs": [
        {
          "internalType": "uint256",
          "name": "",
          "type": "uint256"
        }
      ],
      "stateMutability": "view",
      "type": "function"
    },
    {
      "inputs": [
        {
          "internalType": "address",
          "name": "_self",
          "type": "address"
        }
      ],
      "name": "initialize",
      "outputs": [],
      "stateMutability": "nonpayable",
      "type": "function"
    },
    {
      "inputs": [],
      "name": "allProposalAddresses",
      "outputs": [
        {
          "internalType": "contract Proposal[]",
          "name": "",
          "type": "address[]"
        }
      ],
      "stateMutability": "view",
      "type": "function"
    },
    {
      "inputs": [],
      "name": "allProposalData",
      "outputs": [
        {
          "components": [
            {
              "internalType": "address",
              "name": "proposer",
              "type": "address"
            },
            {
              "internalType": "contract Proposal",
              "name": "proposal",
              "type": "address"
            },
            {
              "internalType": "uint256",
              "name": "totalStake",
              "type": "uint256"
            }
          ],
          "internalType": "struct PolicyProposals.Prop[]",
          "name": "",
          "type": "tuple[]"
        }
      ],
      "stateMutability": "view",
      "type": "function"
    },
    {
      "inputs": [
        {
          "internalType": "contract Proposal",
          "name": "_prop",
          "type": "address"
        }
      ],
      "name": "registerProposal",
      "outputs": [
        {
          "internalType": "uint256",
          "name": "",
          "type": "uint256"
        }
      ],
      "stateMutability": "nonpayable",
      "type": "function"
    },
    {
      "inputs": [
        {
          "internalType": "contract Proposal",
          "name": "_prop",
          "type": "address"
        }
      ],
      "name": "support",
      "outputs": [],
      "stateMutability": "nonpayable",
      "type": "function"
    },
    {
      "inputs": [
        {
          "internalType": "contract Proposal",
          "name": "_prop",
          "type": "address"
        }
      ],
      "name": "unsupport",
      "outputs": [],
      "stateMutability": "nonpayable",
      "type": "function"
    },
    {
      "inputs": [],
      "name": "deployProposalVoting",
      "outputs": [],
      "stateMutability": "nonpayable",
      "type": "function"
    },
    {
      "inputs": [
        {
          "internalType": "contract Proposal",
          "name": "_prop",
          "type": "address"
        }
      ],
      "name": "refund",
      "outputs": [],
      "stateMutability": "nonpayable",
      "type": "function"
    },
    {
      "inputs": [],
      "name": "destruct",
      "outputs": [],
      "stateMutability": "nonpayable",
      "type": "function"
    }
  ],
  "bytecode": "0x60e06040523480156200001157600080fd5b5060405162002c9e38038062002c9e8339810160408190526200003491620001a2565b83828282806200004430620000f8565b6001600160a01b03908116608052604051635df8122f60e01b81523060048201529082166024820152731820a4b7618bde71dce8cdc73aab6c95905fad2490635df8122f90604401600060405180830381600087803b158015620000a757600080fd5b505af1158015620000bc573d6000803e3d6000fd5b505050506001600160a01b0392831660a05250811660c052600880546001600160a01b0319169590911694909417909355506200020a92505050565b6001600160a01b0381166200011a60008051602062002c7e8339815191525490565b6001600160a01b03161415620001765760405162461bcd60e51b815260206004820152601f60248201527f496d706c656d656e746174696f6e20616c7265616479206d61746368696e6700604482015260640160405180910390fd5b60008051602062002c7e83398151915255565b6001600160a01b03811681146200019f57600080fd5b50565b60008060008060808587031215620001b957600080fd5b8451620001c68162000189565b6020860151909450620001d98162000189565b6040860151909350620001ec8162000189565b6060860151909250620001ff8162000189565b939692955090935050565b60805160a05160c0516129e96200029560003960006103080152600081816103c701528181610a610152818161122a0152818161136c015281816117f1015261200001526000818161020501528181610503015281816106a5015281816109ea01528181610a9401528181610de701528181610ed50152818161217f01526122f801526129e96000f3fe608060405234801561001057600080fd5b50600436106101fb5760003560e01c80635c60da1b1161011a578063af12645a116100ad578063c6d3afc91161007c578063c6d3afc914610489578063dea64535146104b7578063e660cc08146104ca578063ec7f729c146104dd578063fa89401a146104e557600080fd5b8063af12645a14610440578063b87341b814610449578063c3d2a0bc1461045e578063c4d66de81461047657600080fd5b80638881a874116100e95780638881a87414610401578063938351b814610411578063984db24214610424578063a78d80fc1461043757600080fd5b80635c60da1b146103ad578063705d5304146103c2578063762ec1e9146103e957806381e53876146103f957600080fd5b806334f1020e116101925780633fc9d621116101615780633fc9d6211461036b578063536f9f421461037e5780635423b94d1461039157806357e871e7146103a457600080fd5b806334f1020e1461032a578063376cf9bf1461033257806339634e0c1461033b5780633dc716f31461034e57600080fd5b806325f4627f116101ce57806325f4627f146102825780632b68b9c6146102975780633341b4451461029f57806333800bac1461030357600080fd5b80630505c8c91461020057806309d7f23b1461024457806309ed460714610259578063249cb3fa14610261575b600080fd5b6102277f000000000000000000000000000000000000000000000000000000000000000081565b6040516001600160a01b0390911681526020015b60405180910390f35b61025761025236600461264e565b6104f8565b005b6102276105b6565b61027461026f366004612712565b6106a1565b60405190815260200161023b565b61028a6107ac565b60405161023b9190612742565b6102576108c4565b6102dd6102ad3660046127a7565b60026020819052600091825260409091208054600182015491909201546001600160a01b03928316929091169083565b604080516001600160a01b0394851681529390921660208401529082015260600161023b565b6102277f000000000000000000000000000000000000000000000000000000000000000081565b610257610be5565b61027460065481565b6102576103493660046127a7565b610eca565b60055461035b9060ff1681565b604051901515815260200161023b565b6102576103793660046127a7565b610f7b565b61027461038c3660046127c4565b611207565b61027461039f3660046127dd565b611341565b61027460075481565b60008051602061299483398151915254610227565b6102277f000000000000000000000000000000000000000000000000000000000000000081565b610274682b5e3af16b1880000081565b610274606481565b610274683635c9adc5dea0000081565b61022761041f3660046127c4565b611489565b600854610227906001600160a01b031681565b61027460035481565b61027461025881565b6104516114b3565b60405161023b9190612809565b6005546102279061010090046001600160a01b031681565b6102576104843660046127a7565b611515565b61035b610497366004612856565b600160209081526000928352604080842090915290825290205460ff1681565b6102746104c53660046127a7565b611646565b6102576104d83660046127a7565b6119d4565b610274601e81565b6102576104f33660046127a7565b611e23565b336001600160a01b037f0000000000000000000000000000000000000000000000000000000000000000161461058c5760405162461bcd60e51b815260206004820152602e60248201527f4f6e6c792074686520706f6c69637920636f6e7472616374206d61792063616c60448201526d36103a3434b99036b2ba3437b21760911b60648201526084015b60405180910390fd5b600080825160208401855af43d806000803e8180156105aa57816000f35b816000fd5b5050505050565b6000306105cf6000805160206129948339815191525490565b6001600160a01b0316146106345760405162461bcd60e51b815260206004820152602660248201527f54686973206d6574686f642063616e6e6f742062652063616c6c6564206f6e20604482015265636c6f6e657360d01b6064820152608401610583565b600061063f306120ff565b60405163189acdbd60e31b81523060048201529091506001600160a01b0382169063c4d66de890602401600060405180830381600087803b15801561068357600080fd5b505af1158015610697573d6000803e3d6000fd5b5092949350505050565b60007f00000000000000000000000000000000000000000000000000000000000000006001600160a01b0316826001600160a01b031614806106f057506000546001600160a01b038381169116145b6107625760405162461bcd60e51b815260206004820152603c60248201527f4f6e6c792074686520706f6c696379206f7220696e7465726661636520636f6e60448201527f74726163742063616e207365742074686520696e746572666163652e000000006064820152608401610583565b6040517f455243313832305f4143434550545f4d41474943000000000000000000000000602082015260340160405160208183030381529060405280519060200120905092915050565b6060600060035467ffffffffffffffff8111156107cb576107cb612638565b60405190808252806020026020018201604052801561081657816020015b60408051606081018252600080825260208083018290529282015282526000199092019101816107e95790505b50905060005b6003548110156108be57600260006004838154811061083d5761083d612884565b60009182526020808320909101546001600160a01b0390811684528382019490945260409283019091208251606081018452815485168152600182015490941691840191909152600201549082015282518390839081106108a0576108a0612884565b602002602001018190525080806108b6906128b0565b91505061081c565b50919050565b60055460ff16806108d6575060065442115b6109565760405162461bcd60e51b8152602060048201526044602482018190527f546865206465737472756374206f7065726174696f6e2063616e206f6e6c7920908201527f626520706572666f726d6564207768656e2074686520706572696f642069732060648201526337bb32b960e11b608482015260a401610583565b600354156109b55760405162461bcd60e51b815260206004820152602660248201527f4d75737420726566756e6420616c6c206d69737365642070726f706f73616c7360448201526508199a5c9cdd60d21b6064820152608401610583565b6040516319bb6e0160e11b81527f331e3a11698d428947c09d6cfecc92b2ccbc4a527e4e795d850152babfaff37a60048201527f00000000000000000000000000000000000000000000000000000000000000006001600160a01b031690633376dc0290602401600060405180830381600087803b158015610a3657600080fd5b505af1158015610a4a573d6000803e3d6000fd5b50506040516370a0823160e01b81523060048201527f00000000000000000000000000000000000000000000000000000000000000006001600160a01b0316925063a9059cbb91507f00000000000000000000000000000000000000000000000000000000000000009083906370a082319060240160206040518083038186803b158015610ad757600080fd5b505afa158015610aeb573d6000803e3d6000fd5b505050506040513d601f19601f82011682018060405250810190610b0f91906128cb565b6040517fffffffff0000000000000000000000000000000000000000000000000000000060e085901b1681526001600160a01b0390921660048301526024820152604401602060405180830381600087803b158015610b6d57600080fd5b505af1158015610b81573d6000803e3d6000fd5b505050506040513d601f19601f82011682018060405250810190610ba591906128e4565b610be35760405162461bcd60e51b815260206004820152600f60248201526e151c985b9cd9995c8811985a5b1959608a1b6044820152606401610583565b565b60055460ff16610c375760405162461bcd60e51b815260206004820152601d60248201527f6e6f2070726f706f73616c20686173206265656e2073656c65637465640000006044820152606401610583565b60055461010090046001600160a01b0316610c945760405162461bcd60e51b815260206004820181905260248201527f766f74696e672068617320616c7265616479206265656e206465706c6f7965646044820152606401610583565b6005805474ffffffffffffffffffffffffffffffffffffffff00198116909155600854604080516309ed460760e01b815290516001600160a01b0361010090940484169360009316916309ed460791600480830192602092919082900301818787803b158015610d0357600080fd5b505af1158015610d17573d6000803e3d6000fd5b505050506040513d601f19601f82011682018060405250810190610d3b9190612906565b60075460405163039657b760e11b81526001600160a01b038581166004830152602482019290925291925082169063072caf6e90604401600060405180830381600087803b158015610d8c57600080fd5b505af1158015610da0573d6000803e3d6000fd5b50506040516343c8dfc160e11b81527f65474dbc3934a157baaaa893dea8c73453f0cc9c47a4f857047e8f0c8b54888f60048201526001600160a01b0384811660248301527f0000000000000000000000000000000000000000000000000000000000000000169250638791bf829150604401600060405180830381600087803b158015610e2d57600080fd5b505af1158015610e41573d6000803e3d6000fd5b50506040516001600160a01b03841692507f96d53cebc4306e6d2e0c0c31750cee34ce44cb92e542424cd7f43ddb3a5857049150600090a26001600160a01b0382166000908152600260208190526040822080546001600160a01b0319908116825560018083018054909216909155910191909155600354610ec39190612923565b6003555050565b336001600160a01b037f00000000000000000000000000000000000000000000000000000000000000001614610f595760405162461bcd60e51b815260206004820152602e60248201527f4f6e6c792074686520706f6c69637920636f6e7472616374206d61792063616c60448201526d36103a3434b99036b2ba3437b21760911b6064820152608401610583565b600080546001600160a01b0319166001600160a01b0392909216919091179055565b30610fa57f331e3a11698d428947c09d6cfecc92b2ccbc4a527e4e795d850152babfaff37a612168565b6001600160a01b0316146110065760405162461bcd60e51b815260206004820152602260248201527f50726f706f73616c20636f6e7472616374206e6f206c6f6e6765722061637469604482015261766560f01b6064820152608401610583565b60055460ff16156110655760405162461bcd60e51b8152602060048201526024808201527f412070726f706f73616c2068617320616c7265616479206265656e2073656c6560448201526318dd195960e21b6064820152608401610583565b60065442106110f35760405162461bcd60e51b815260206004820152604e60248201527f50726f706f73616c73206d6179206e6f206c6f6e67657220626520737570706f60448201527f7274656420626563617573652074686520726567697374726174696f6e20706560648201526d1c9a5bd9081a185cc8195b99195960921b608482015260a401610583565b6001600160a01b038082166000908152600260209081526040808320600180820154909516845293825280832033845290915290205460ff166111825760405162461bcd60e51b815260206004820152602160248201527f596f752068617665206e6f74207374616b656420746869732070726f706f73616044820152601b60fa1b6064820152608401610583565b600061119033600754611341565b90508082600201546111a29190612923565b60028301556001808301546001600160a01b03908116600090815260209283526040808220338084529452808220805460ff191690555191861692917f4c167103e052a33aeab9affe91d94a8f5f224fb1ba8d6d5af4e46e514a41b57e9190a3505050565b604051630981b24d60e41b81526004810182905260009081906001600160a01b037f0000000000000000000000000000000000000000000000000000000000000000169063981b24d09060240160206040518083038186803b15801561126c57600080fd5b505afa158015611280573d6000803e3d6000fd5b505050506040513d601f19601f820116820180604052508101906112a491906128cb565b905060006112b0612223565b6001600160a01b0316635bb748ad856040518263ffffffff1660e01b81526004016112dd91815260200190565b60206040518083038186803b1580156112f557600080fd5b505afa158015611309573d6000803e3d6000fd5b505050506040513d601f19601f8201168201806040525081019061132d91906128cb565b9050611339818361293a565b949350505050565b604051630748d63560e31b81526001600160a01b0383811660048301526024820183905260009182917f00000000000000000000000000000000000000000000000000000000000000001690633a46b1a89060440160206040518083038186803b1580156113ae57600080fd5b505afa1580156113c2573d6000803e3d6000fd5b505050506040513d601f19601f820116820180604052508101906113e691906128cb565b905060006113f2612223565b60405163334ff4e160e21b81526001600160a01b03878116600483015260248201879052919091169063cd3fd3849060440160206040518083038186803b15801561143c57600080fd5b505afa158015611450573d6000803e3d6000fd5b505050506040513d601f19601f8201168201806040525081019061147491906128cb565b9050611480818361293a565b95945050505050565b6004818154811061149957600080fd5b6000918252602090912001546001600160a01b0316905081565b6060600480548060200260200160405190810160405280929190818152602001828054801561150b57602002820191906000526020600020905b81546001600160a01b031681526001909101906020018083116114ed575b5050505050905090565b600061152d6000805160206129948339815191525490565b6001600160a01b0316146115945760405162461bcd60e51b815260206004820152602860248201527f43616e206f6e6c792062652063616c6c656420647572696e6720696e697469616044820152673634bd30ba34b7b760c11b6064820152608401610583565b61159d81612253565b806001600160a01b031663984db2426040518163ffffffff1660e01b815260040160206040518083038186803b1580156115d657600080fd5b505afa1580156115ea573d6000803e3d6000fd5b505050506040513d601f19601f8201168201806040525081019061160e9190612906565b600880546001600160a01b0319166001600160a01b03929092169190911790556102584261163c919061293a565b6006555043600755565b60006001600160a01b03821661169e5760405162461bcd60e51b815260206004820152601f60248201527f5468652070726f706f73616c20616464726573732063616e27742062652030006044820152606401610583565b600654421080156116b2575060055460ff16155b61174a5760405162461bcd60e51b815260206004820152604f60248201527f50726f706f73616c73206d6179206e6f206c6f6e67657220626520726567697360448201527f746572656420626563617573652074686520726567697374726174696f6e207060648201527f6572696f642068617320656e6465640000000000000000000000000000000000608482015260a401610583565b6001600160a01b0380831660009081526002602052604090206001810154909116156117c75760405162461bcd60e51b815260206004820152602660248201527f412070726f706f73616c206d6179206f6e6c792062652072656769737465726560448201526564206f6e636560d01b6064820152608401610583565b6040516323b872dd60e01b8152336004820152306024820152683635c9adc5dea0000060448201527f00000000000000000000000000000000000000000000000000000000000000006001600160a01b0316906323b872dd90606401602060405180830381600087803b15801561183d57600080fd5b505af1158015611851573d6000803e3d6000fd5b505050506040513d601f19601f8201168201806040525081019061187591906128e4565b61190d5760405162461bcd60e51b815260206004820152605d60248201527f54686520746f6b656e20636f7374206f6620726567697374726174696f6e206d60448201527f75737420626520617070726f76656420746f207472616e73666572207072696f60648201527f7220746f2063616c6c696e6720726567697374657250726f706f73616c000000608482015260a401610583565b600180820180546001600160a01b0386166001600160a01b03199182168117909255835481163317845560048054808501825560009182527f8a35acfbc15ff81a39ae7d344fd709f28e8600b4aa8c65c6b64bfe7fe36bd19b01805490921690921790556003805490919061198390849061293a565b90915550506040516001600160a01b0384169033907f98ada70a1cb506dc4591465e1ee9be3fd7a2b6c73ecf3b949009718c9a35151990600090a360016003546119cd9190612923565b9392505050565b306119fe7f331e3a11698d428947c09d6cfecc92b2ccbc4a527e4e795d850152babfaff37a612168565b6001600160a01b031614611a5f5760405162461bcd60e51b815260206004820152602260248201527f50726f706f73616c20636f6e7472616374206e6f206c6f6e6765722061637469604482015261766560f01b6064820152608401610583565b60055460ff1615611abe5760405162461bcd60e51b8152602060048201526024808201527f412070726f706f73616c2068617320616c7265616479206265656e2073656c6560448201526318dd195960e21b6064820152608401610583565b6006544210611b4c5760405162461bcd60e51b815260206004820152604e60248201527f50726f706f73616c73206d6179206e6f206c6f6e67657220626520737570706f60448201527f7274656420626563617573652074686520726567697374726174696f6e20706560648201526d1c9a5bd9081a185cc8195b99195960921b608482015260a401610583565b6000611b5a33600754611341565b905060008111611be45760405162461bcd60e51b815260206004820152604960248201527f496e206f7264657220746f20737570706f727420612070726f706f73616c207960448201527f6f75206d757374207374616b652061206e6f6e2d7a65726f20616d6f756e74206064820152686f6620746f6b656e7360b81b608482015260a401610583565b6001600160a01b0380831660009081526002602052604090206001810154909116611c625760405162461bcd60e51b815260206004820152602860248201527f54686520737570706f727465642070726f706f73616c206973206e6f7420726560448201526719da5cdd195c995960c21b6064820152608401610583565b6001818101546001600160a01b0316600090815260209182526040808220338352909252205460ff1615611cfe5760405162461bcd60e51b815260206004820152603060248201527f596f75206d6179206e6f74207374616b6520696e20737570706f7274206f662060448201527f612070726f706f73616c207477696365000000000000000000000000000000006064820152608401610583565b818160020154611d0e919061293a565b60028201556001808201546001600160a01b0316600090815260208281526040808320338085529252909120805460ff1916909217909155611d4f9061236b565b6040516001600160a01b0384169033907fb3c205034c4cecc47ba710615ad80879be14b177df75ddbcce0237302ea3fa8090600090a36000611d92600754611207565b90506064611da1601e83612952565b611dab9190612971565b82600201541115611e1d576040516001600160a01b038516907f2579eab5d400c5cc266359842639b59e8c3629d634c5e6d274fe8ad69128844a90600090a2600580546001600160a01b0386166101000274ffffffffffffffffffffffffffffffffffffffffff199091161760011790555b50505050565b60055460ff1680611e35575060065442115b611ea75760405162461bcd60e51b815260206004820152603760248201527f526566756e6473206d6179206e6f74206265206469737472696275746564207560448201527f6e74696c2074686520706572696f64206973206f7665720000000000000000006064820152608401610583565b6001600160a01b038116611efd5760405162461bcd60e51b815260206004820152601f60248201527f5468652070726f706f73616c20616464726573732063616e27742062652030006044820152606401610583565b6001600160a01b038082166000818152600260205260409020600181015490921614611f7e5760405162461bcd60e51b815260206004820152602a60248201527f5468652070726f76696465642070726f706f73616c2061646472657373206973604482015269081b9bdd081d985b1a5960b21b6064820152608401610583565b80546001600160a01b038381166000908152600260208190526040822080546001600160a01b03199081168255600182810180549092169091559101919091556003549190921691611fcf91612923565b60035560405163a9059cbb60e01b81526001600160a01b038281166004830152682b5e3af16b1880000060248301527f0000000000000000000000000000000000000000000000000000000000000000169063a9059cbb90604401602060405180830381600087803b15801561204457600080fd5b505af1158015612058573d6000803e3d6000fd5b505050506040513d601f19601f8201168201806040525081019061207c91906128e4565b6120ba5760405162461bcd60e51b815260206004820152600f60248201526e151c985b9cd9995c8811985a5b1959608a1b6044820152606401610583565b826001600160a01b0316816001600160a01b03167fc52fd9b1554962318237b164e3ab32e9c2afbce879a97267fa3828763fbb142a60405160405180910390a3505050565b6000808260601b90506040517f3d602d80600a3d3981f3363d3d373d3d3d363d7300000000000000000000000081528160148201527f5af43d82803e903d91602b57fd5bf3000000000000000000000000000000000060288201526037816000f0949350505050565b60405163555ddc6560e11b81526001600160a01b037f000000000000000000000000000000000000000000000000000000000000000016600482015260248101829052600090731820a4b7618bde71dce8cdc73aab6c95905fad249063aabbb8ca9060440160206040518083038186803b1580156121e557600080fd5b505afa1580156121f9573d6000803e3d6000fd5b505050506040513d601f19601f8201168201806040525081019061221d9190612906565b92915050565b600061224e7fdf849ae066ce5ea7a01105f3db8539dd51779b4506741de6731ef32f7f4daa18612168565b905090565b600061226b6000805160206129948339815191525490565b6001600160a01b0316146122d25760405162461bcd60e51b815260206004820152602860248201527f43616e206f6e6c792062652063616c6c656420647572696e6720696e697469616044820152673634bd30ba34b7b760c11b6064820152608401610583565b6122db816123a3565b604051635df8122f60e01b81523060048201526001600160a01b037f0000000000000000000000000000000000000000000000000000000000000000166024820152731820a4b7618bde71dce8cdc73aab6c95905fad2490635df8122f906044015b600060405180830381600087803b15801561235757600080fd5b505af11580156105af573d6000803e3d6000fd5b612373612223565b6040516324b07fd160e21b81526001600160a01b03838116600483015291909116906392c1ff449060240161233d565b60006123bb6000805160206129948339815191525490565b6001600160a01b0316146124225760405162461bcd60e51b815260206004820152602860248201527f43616e206f6e6c792062652063616c6c656420647572696e6720696e697469616044820152673634bd30ba34b7b760c11b6064820152608401610583565b61242b8161242e565b50565b60006124466000805160206129948339815191525490565b6001600160a01b0316146124ad5760405162461bcd60e51b815260206004820152602860248201527f43616e206f6e6c792062652063616c6c656420647572696e6720696e697469616044820152673634bd30ba34b7b760c11b6064820152608401610583565b6000816001600160a01b0316635c60da1b6040518163ffffffff1660e01b815260040160206040518083038186803b1580156124e857600080fd5b505afa1580156124fc573d6000803e3d6000fd5b505050506040513d601f19601f820116820180604052508101906125209190612906565b90506001600160a01b03811661258d5760405162461bcd60e51b815260206004820152602c60248201527f696e697469616c697a6174696f6e206661696c7572653a206e6f7468696e672060448201526b1d1bc81a5b5c1b195b595b9d60a21b6064820152608401610583565b6125968161259a565b5050565b806001600160a01b03166125ba6000805160206129948339815191525490565b6001600160a01b031614156126115760405162461bcd60e51b815260206004820152601f60248201527f496d706c656d656e746174696f6e20616c7265616479206d61746368696e67006044820152606401610583565b60008051602061299483398151915255565b6001600160a01b038116811461242b57600080fd5b634e487b7160e01b600052604160045260246000fd5b6000806040838503121561266157600080fd5b823561266c81612623565b9150602083013567ffffffffffffffff8082111561268957600080fd5b818501915085601f83011261269d57600080fd5b8135818111156126af576126af612638565b604051601f8201601f19908116603f011681019083821181831017156126d7576126d7612638565b816040528281528860208487010111156126f057600080fd5b8260208601602083013760006020848301015280955050505050509250929050565b6000806040838503121561272557600080fd5b82359150602083013561273781612623565b809150509250929050565b602080825282518282018190526000919060409081850190868401855b8281101561279a57815180516001600160a01b039081168652878201511687860152850151858501526060909301929085019060010161275f565b5091979650505050505050565b6000602082840312156127b957600080fd5b81356119cd81612623565b6000602082840312156127d657600080fd5b5035919050565b600080604083850312156127f057600080fd5b82356127fb81612623565b946020939093013593505050565b6020808252825182820181905260009190848201906040850190845b8181101561284a5783516001600160a01b031683529284019291840191600101612825565b50909695505050505050565b6000806040838503121561286957600080fd5b823561287481612623565b9150602083013561273781612623565b634e487b7160e01b600052603260045260246000fd5b634e487b7160e01b600052601160045260246000fd5b60006000198214156128c4576128c461289a565b5060010190565b6000602082840312156128dd57600080fd5b5051919050565b6000602082840312156128f657600080fd5b815180151581146119cd57600080fd5b60006020828403121561291857600080fd5b81516119cd81612623565b6000828210156129355761293561289a565b500390565b6000821982111561294d5761294d61289a565b500190565b600081600019048311821515161561296c5761296c61289a565b500290565b60008261298e57634e487b7160e01b600052601260045260246000fd5b50049056fef86c915dad5894faca0dfa067c58fdf4307406d255ed0a65db394f82b77f53d4a2646970667358221220ad6bca9d577192097cabd8c82284dd951a1b066a3c9fc9a5b1cd7ce59687d56f64736f6c63430008090033f86c915dad5894faca0dfa067c58fdf4307406d255ed0a65db394f82b77f53d4",
  "immutableReferences": {
    "11848": [
      {
        "length": 32,
        "start": 967
      },
      {
        "length": 32,
        "start": 2657
      },
      {
        "length": 32,
        "start": 4650
      },
      {
        "length": 32,
        "start": 4972
      },
      {
        "length": 32,
        "start": 6129
      },
      {
        "length": 32,
        "start": 8192
      }
    ],
    "11851": [
      {
        "length": 32,
        "start": 776
      }
    ],
    "12039": [
      {
        "length": 32,
        "start": 517
      },
      {
        "length": 32,
        "start": 1283
      },
      {
        "length": 32,
        "start": 1701
      },
      {
        "length": 32,
        "start": 2538
      },
      {
        "length": 32,
        "start": 2708
      },
      {
        "length": 32,
        "start": 3559
      },
      {
        "length": 32,
        "start": 3797
      },
      {
        "length": 32,
        "start": 8575
      },
      {
        "length": 32,
        "start": 8952
      }
    ]
  },
  "source": "// SPDX-License-Identifier: MIT\npragma solidity ^0.8.0;\n\nimport \"../policy/Policy.sol\";\nimport \"../currency/IECO.sol\";\nimport \"../policy/PolicedUtils.sol\";\nimport \"./Proposal.sol\";\nimport \"./PolicyVotes.sol\";\nimport \"./VotingPower.sol\";\nimport \"../utils/TimeUtils.sol\";\nimport \"@openzeppelin/contracts/token/ERC20/IERC20.sol\";\n\n/** @title PolicyProposals\n * `PolicyProposals` oversees the proposals phase of the policy decision\n * process. Proposals can be submitted by anyone willing to put forth funds, and\n * submitted proposals can be supported by anyone\n *\n * First, during the proposals portion of the proposals phase, proposals can be\n * submitted (for a fee). This is parallelized with a signal voting process where\n * support can be distributed and redistributed to proposals after they are submitted.\n *\n * A proposal that makes it to support above 30% of the total possible support ends this\n * phase and starts a vote.\n */\ncontract PolicyProposals is VotingPower, TimeUtils {\n    /** A proposal submitted to the process.\n     */\n    struct Prop {\n        /* The address of the proposing account.\n         */\n        address proposer;\n        /* The address of the proposal contract.\n         */\n        Proposal proposal;\n        /* The amount of tokens staked in support of this proposal.\n         */\n        uint256 totalStake;\n    }\n\n    /* A record of which addresses have already staked in support of each proposal\n     */\n    mapping(Proposal => mapping(address => bool)) public staked;\n\n    /** The set of proposals under consideration.\n     * maps from addresses of proposals to structs containing with info and\n     * the staking data (struct defined above)\n     */\n    mapping(Proposal => Prop) public proposals;\n\n    /** The total number of proposals made.\n     */\n    uint256 public totalProposals;\n\n    /** A list of the addresses of all proposals made.\n     */\n    Proposal[] public allProposals;\n\n    /** The duration of the proposal portion of the proposal phase.\n     */\n    uint256 public constant PROPOSAL_TIME = 10 minutes;\n\n    /** Whether or not a winning proposal has been selected\n     */\n    bool public proposalSelected;\n\n    /** selected proposal awaiting configuration before voting\n     */\n    Proposal public proposalToConfigure;\n\n    /** The minimum cost to register a proposal.\n     */\n    uint256 public constant COST_REGISTER = 1000e18;\n\n    /** The amount refunded if a proposal does not get selected.\n     */\n    uint256 public constant REFUND_IF_LOST = 800e18;\n\n    /** The percentage of total voting power required to push to a vote.\n     */\n    uint256 public constant SUPPORT_THRESHOLD = 30;\n\n    /** The divisor for the above constant, tracks the digits of precision.\n     */\n    uint256 public constant SUPPORT_THRESHOLD_DIVISOR = 100;\n\n    /** The time at which the proposal portion of the proposals phase ends.\n     */\n    uint256 public proposalEnds;\n\n    /** The block number of the balance stores to use for staking in\n     * support of a proposal.\n     */\n    uint256 public blockNumber;\n\n    /** The address of the `PolicyVotes` contract, to be cloned for the voting\n     * phase.\n     */\n    PolicyVotes public policyVotesImpl;\n\n    /** An event indicating a proposal has been proposed\n     *\n     * @param proposalAddress The address of the Proposal contract instance that was added\n     */\n    event Register(address indexed proposer, Proposal indexed proposalAddress);\n\n    /** An event indicating that proposal have been supported by stake.\n     *\n     * @param proposalAddress The address of the Proposal contract instance that was supported\n     */\n    event Support(address indexed supporter, Proposal indexed proposalAddress);\n\n    /** An event indicating that support has been removed from a proposal.\n     *\n     * @param proposalAddress The address of the Proposal contract instance that was unsupported\n     */\n    event Unsupport(\n        address indexed unsupporter,\n        Proposal indexed proposalAddress\n    );\n\n    /** An event indicating a proposal has reached its support threshold\n     *\n     * @param proposalAddress The address of the Proposal contract instance.\n     */\n    event SupportThresholdReached(Proposal indexed proposalAddress);\n\n    /** An event indicating that a proposal has been accepted for voting\n     *\n     * @param contractAddress The address of the PolicyVotes contract instance.\n     */\n    event VoteStart(PolicyVotes indexed contractAddress);\n\n    /** An event indicating that proposal fee was partially refunded.\n     *\n     * @param proposer The address of the proposee which was refunded\n     */\n    event ProposalRefund(\n        address indexed proposer,\n        Proposal indexed proposalAddress\n    );\n\n    /** Construct a new PolicyProposals instance using the provided supervising\n     * policy (root) and supporting contracts.\n     *\n     * @param _policy The address of the root policy contract.\n     * @param _policyvotes The address of the contract that will be cloned to\n     *                     oversee the voting phase.\n     * @param _ecoAddr The address of the ECO token contract.\n     * @param _ecoXAddr The address of the ECOx token contract.\n     */\n    constructor(\n        Policy _policy,\n        PolicyVotes _policyvotes,\n        ECO _ecoAddr,\n        ECOx _ecoXAddr\n    ) VotingPower(_policy, _ecoAddr, _ecoXAddr) {\n        policyVotesImpl = _policyvotes;\n    }\n\n    /** Initialize the storage context using parameters copied from the original\n     * contract (provided as _self).\n     *\n     * Can only be called once, during proxy initialization.\n     *\n     * @param _self The original contract address.\n     */\n    function initialize(address _self) public override onlyConstruction {\n        super.initialize(_self);\n\n        // implementation addresses are left as mutable for easier governance\n        policyVotesImpl = PolicyProposals(_self).policyVotesImpl();\n\n        proposalEnds = getTime() + PROPOSAL_TIME;\n        blockNumber = block.number;\n    }\n\n    /** A list of addresses for all proposed policies\n     */\n    function allProposalAddresses() public view returns (Proposal[] memory) {\n        return allProposals;\n    }\n\n    /** A list of all proposed policies\n     */\n    function allProposalData() public view returns (Prop[] memory) {\n        Prop[] memory proposalData = new Prop[](totalProposals);\n        for (uint256 index = 0; index < totalProposals; index++) {\n            proposalData[index] = proposals[allProposals[index]];\n        }\n\n        return proposalData;\n    }\n\n    /** Submit a proposal.\n     *\n     * You must approve the policy proposals contract to withdraw the required\n     * fee from your account before calling this.\n     *\n     * Can only be called during the proposals portion of the proposals phase.\n     * Each proposal may only be submitted once.\n     *\n     * @param _prop The address of the proposal to submit.\n     */\n    function registerProposal(Proposal _prop) external returns (uint256) {\n        require(\n            address(_prop) != address(0),\n            \"The proposal address can't be 0\"\n        );\n\n        require(\n            getTime() < proposalEnds && !proposalSelected,\n            \"Proposals may no longer be registered because the registration period has ended\"\n        );\n\n        Prop storage _p = proposals[_prop];\n\n        require(\n            address(_p.proposal) == address(0),\n            \"A proposal may only be registered once\"\n        );\n        require(\n            ecoToken.transferFrom(msg.sender, address(this), COST_REGISTER),\n            \"The token cost of registration must be approved to transfer prior to calling registerProposal\"\n        );\n\n        _p.proposal = _prop;\n        _p.proposer = msg.sender;\n\n        allProposals.push(_prop);\n        totalProposals += 1;\n\n        emit Register(msg.sender, _prop);\n\n        // returns the index of the proposal in the allProposals array\n        return totalProposals - 1;\n    }\n\n    /** Stake in support of an existing proposal.\n     *\n     * Can only be called during the staking portion of the proposals phase.\n     *\n     * Your voting strength is added to the supporting stake of the proposal.\n     *\n     * @param _prop The proposal to support.\n     */\n    function support(Proposal _prop) external {\n        require(\n            policyFor(ID_POLICY_PROPOSALS) == address(this),\n            \"Proposal contract no longer active\"\n        );\n        require(!proposalSelected, \"A proposal has already been selected\");\n        require(\n            getTime() < proposalEnds,\n            \"Proposals may no longer be supported because the registration period has ended\"\n        );\n\n        uint256 _amount = votingPower(msg.sender, blockNumber);\n\n        require(\n            _amount > 0,\n            \"In order to support a proposal you must stake a non-zero amount of tokens\"\n        );\n\n        Prop storage _p = proposals[_prop];\n\n        require(\n            address(_p.proposal) != address(0),\n            \"The supported proposal is not registered\"\n        );\n        require(\n            !staked[_p.proposal][msg.sender],\n            \"You may not stake in support of a proposal twice\"\n        );\n\n        _p.totalStake = _p.totalStake + _amount;\n        staked[_p.proposal][msg.sender] = true;\n\n        recordVote(msg.sender);\n        emit Support(msg.sender, _prop);\n\n        uint256 _total = totalVotingPower(blockNumber);\n\n        if (\n            _p.totalStake >\n            (_total * SUPPORT_THRESHOLD) / SUPPORT_THRESHOLD_DIVISOR\n        ) {\n            emit SupportThresholdReached(_prop);\n            proposalSelected = true;\n            proposalToConfigure = _prop;\n        }\n    }\n\n    function unsupport(Proposal _prop) external {\n        require(\n            policyFor(ID_POLICY_PROPOSALS) == address(this),\n            \"Proposal contract no longer active\"\n        );\n        require(!proposalSelected, \"A proposal has already been selected\");\n        require(\n            getTime() < proposalEnds,\n            \"Proposals may no longer be supported because the registration period has ended\"\n        );\n\n        Prop storage _p = proposals[_prop];\n\n        require(\n            staked[_p.proposal][msg.sender],\n            \"You have not staked this proposal\"\n        );\n\n        uint256 _amount = votingPower(msg.sender, blockNumber);\n        _p.totalStake = _p.totalStake - _amount;\n        staked[_p.proposal][msg.sender] = false;\n\n        emit Unsupport(msg.sender, _prop);\n    }\n\n    function deployProposalVoting() external {\n        require(proposalSelected, \"no proposal has been selected\");\n        require(\n            address(proposalToConfigure) != address(0),\n            \"voting has already been deployed\"\n        );\n        Proposal votingProposal = proposalToConfigure;\n        delete proposalToConfigure;\n\n        PolicyVotes pv = PolicyVotes(policyVotesImpl.clone());\n        pv.configure(votingProposal, blockNumber);\n        policy.setPolicy(ID_POLICY_VOTES, address(pv));\n\n        emit VoteStart(pv);\n\n        delete proposals[votingProposal];\n        totalProposals = totalProposals - 1;\n    }\n\n    /** Refund the fee for a proposal that was not selected.\n     *\n     * Returns a partial refund only, does not work on proposals that are\n     * on the ballot for the voting phase, and can only be called after the\n     * period is over.\n     *\n     * @param _prop The proposal to issue a refund for.\n     */\n    function refund(Proposal _prop) external {\n        require(\n            proposalSelected || getTime() > proposalEnds,\n            \"Refunds may not be distributed until the period is over\"\n        );\n\n        require(\n            address(_prop) != address(0),\n            \"The proposal address can't be 0\"\n        );\n\n        Prop storage _p = proposals[_prop];\n        require(\n            _p.proposal == _prop,\n            \"The provided proposal address is not valid\"\n        );\n\n        address receiver = _p.proposer;\n\n        delete proposals[_prop];\n        totalProposals = totalProposals - 1;\n\n        require(ecoToken.transfer(receiver, REFUND_IF_LOST), \"Transfer Failed\");\n\n        emit ProposalRefund(receiver, _prop);\n    }\n\n    /** Reclaim tokens after end time\n     * only callable if all proposals are refunded\n     */\n    function destruct() external {\n        require(\n            proposalSelected || getTime() > proposalEnds,\n            \"The destruct operation can only be performed when the period is over\"\n        );\n\n        require(totalProposals == 0, \"Must refund all missed proposals first\");\n\n        policy.removeSelf(ID_POLICY_PROPOSALS);\n\n        require(\n            ecoToken.transfer(\n                address(policy),\n                ecoToken.balanceOf(address(this))\n            ),\n            \"Transfer Failed\"\n        );\n    }\n}\n",
  "sourcePath": "/Users/dirksmac/dev/eco/currency/contracts/governance/PolicyProposals.sol",
  "compiler": {
    "name": "solc",
    "version": "0.8.9+commit.e5eed63a.Emscripten.clang"
  },
  "schemaVersion": "3.4.3",
  "updatedAt": "2022-07-01T19:00:50.564Z",
  "devdoc": {
    "events": {
      "ProposalRefund(address,address)": {
        "params": {
          "proposer": "The address of the proposee which was refunded"
        }
      },
      "Register(address,address)": {
        "params": {
          "proposalAddress": "The address of the Proposal contract instance that was added"
        }
      },
      "Support(address,address)": {
        "params": {
          "proposalAddress": "The address of the Proposal contract instance that was supported"
        }
      },
      "SupportThresholdReached(address)": {
        "params": {
          "proposalAddress": "The address of the Proposal contract instance."
        }
      },
      "Unsupport(address,address)": {
        "params": {
          "proposalAddress": "The address of the Proposal contract instance that was unsupported"
        }
      },
      "VoteStart(address)": {
        "params": {
          "contractAddress": "The address of the PolicyVotes contract instance."
        }
      }
    },
    "kind": "dev",
    "methods": {
      "canImplementInterfaceForAddress(bytes32,address)": {
        "params": {
          "_addr": "The address of the contract we might act on behalf of."
        }
      },
      "constructor": {
        "params": {
          "_ecoAddr": "The address of the ECO token contract.",
          "_ecoXAddr": "The address of the ECOx token contract.",
          "_policy": "The address of the root policy contract.",
          "_policyvotes": "The address of the contract that will be cloned to                     oversee the voting phase."
        }
      },
      "initialize(address)": {
        "params": {
          "_self": "The original contract address."
        }
      },
      "policyCommand(address,bytes)": {
        "params": {
          "_data": "The call message/data to execute on.",
          "_delegate": "The address of the contract to delegate execution to."
        }
      },
      "refund(address)": {
        "params": {
          "_prop": "The proposal to issue a refund for."
        }
      },
      "registerProposal(address)": {
        "params": {
          "_prop": "The address of the proposal to submit."
        }
      },
      "support(address)": {
        "params": {
          "_prop": "The proposal to support."
        }
      }
    },
    "title": "PolicyProposals `PolicyProposals` oversees the proposals phase of the policy decision process. Proposals can be submitted by anyone willing to put forth funds, and submitted proposals can be supported by anyone First, during the proposals portion of the proposals phase, proposals can be submitted (for a fee). This is parallelized with a signal voting process where support can be distributed and redistributed to proposals after they are submitted. A proposal that makes it to support above 30% of the total possible support ends this phase and starts a vote.",
    "version": 1
  },
  "userdoc": {
    "events": {
      "ProposalRefund(address,address)": {
        "notice": "An event indicating that proposal fee was partially refunded."
      },
      "Register(address,address)": {
        "notice": "An event indicating a proposal has been proposed"
      },
      "Support(address,address)": {
        "notice": "An event indicating that proposal have been supported by stake."
      },
      "SupportThresholdReached(address)": {
        "notice": "An event indicating a proposal has reached its support threshold"
      },
      "Unsupport(address,address)": {
        "notice": "An event indicating that support has been removed from a proposal."
      },
      "VoteStart(address)": {
        "notice": "An event indicating that a proposal has been accepted for voting"
      }
    },
    "kind": "user",
    "methods": {
      "COST_REGISTER()": {
        "notice": "The minimum cost to register a proposal."
      },
      "PROPOSAL_TIME()": {
        "notice": "The duration of the proposal portion of the proposal phase."
      },
      "REFUND_IF_LOST()": {
        "notice": "The amount refunded if a proposal does not get selected."
      },
      "SUPPORT_THRESHOLD()": {
        "notice": "The percentage of total voting power required to push to a vote."
      },
      "SUPPORT_THRESHOLD_DIVISOR()": {
        "notice": "The divisor for the above constant, tracks the digits of precision."
      },
      "allProposalAddresses()": {
        "notice": "A list of addresses for all proposed policies"
      },
      "allProposalData()": {
        "notice": "A list of all proposed policies"
      },
      "allProposals(uint256)": {
        "notice": "A list of the addresses of all proposals made."
      },
      "blockNumber()": {
        "notice": "The block number of the balance stores to use for staking in support of a proposal."
      },
      "canImplementInterfaceForAddress(bytes32,address)": {
        "notice": "ERC1820 permissioning interface"
      },
      "clone()": {
        "notice": "Create a clone of this contract Creates a clone of this contract by instantiating a proxy at a new address and initializing it based on the current contract. Uses optionality.io's CloneFactory functionality. This is used to save gas cost during deployments. Rather than including the full contract code in every contract that might instantiate it we can deploy it once and reference the location it was deployed to. Then calls to clone() can be used to create instances as needed without increasing the code size of the instantiating contract."
      },
      "constructor": {
        "notice": "Construct a new PolicyProposals instance using the provided supervising policy (root) and supporting contracts."
      },
      "destruct()": {
        "notice": "Reclaim tokens after end time only callable if all proposals are refunded"
      },
      "implementation()": {
        "notice": "Get the address of the proxy target contract."
      },
      "initialize(address)": {
        "notice": "Initialize the storage context using parameters copied from the original contract (provided as _self). Can only be called once, during proxy initialization."
      },
      "policy()": {
        "notice": "The address of the root policy instance overseeing this instance. This address can be used for ERC1820 lookup of other components, ERC1820 lookup of role policies, and interaction with the policy hierarchy."
      },
      "policyCommand(address,bytes)": {
        "notice": "Execute code as indicated by the managing policy contract We allow the managing policy contract to execute arbitrary code in our context by allowing it to specify an implementation address and some message data, and then using delegatecall to execute the code at the implementation address, passing in the message data, all within our own address space."
      },
      "policyVotesImpl()": {
        "notice": "The address of the `PolicyVotes` contract, to be cloned for the voting phase."
      },
      "proposalEnds()": {
        "notice": "The time at which the proposal portion of the proposals phase ends."
      },
      "proposalSelected()": {
        "notice": "Whether or not a winning proposal has been selected"
      },
      "proposalToConfigure()": {
        "notice": "selected proposal awaiting configuration before voting"
      },
      "proposals(address)": {
        "notice": "The set of proposals under consideration. maps from addresses of proposals to structs containing with info and the staking data (struct defined above)"
      },
      "refund(address)": {
        "notice": "Refund the fee for a proposal that was not selected. Returns a partial refund only, does not work on proposals that are on the ballot for the voting phase, and can only be called after the period is over."
      },
      "registerProposal(address)": {
        "notice": "Submit a proposal. You must approve the policy proposals contract to withdraw the required fee from your account before calling this. Can only be called during the proposals portion of the proposals phase. Each proposal may only be submitted once."
      },
      "setExpectedInterfaceSet(address)": {
        "notice": "Set the expected interface set"
      },
      "support(address)": {
        "notice": "Stake in support of an existing proposal. Can only be called during the staking portion of the proposals phase. Your voting strength is added to the supporting stake of the proposal."
      },
      "totalProposals()": {
        "notice": "The total number of proposals made."
      }
    },
    "version": 1
  }
}