{
  "contractName": "PolicyVotes",
  "abi": [
    {
      "inputs": [
        {
          "internalType": "contract Policy",
          "name": "_policy",
          "type": "address"
        },
        {
          "internalType": "contract ECO",
          "name": "_ecoAddr",
          "type": "address"
        },
        {
          "internalType": "contract ECOx",
          "name": "_ecoXAddr",
          "type": "address"
        }
      ],
      "stateMutability": "nonpayable",
      "type": "constructor"
    },
    {
      "anonymous": false,
      "inputs": [
        {
          "indexed": true,
          "internalType": "address",
          "name": "voter",
          "type": "address"
        },
        {
          "indexed": false,
          "internalType": "uint256",
          "name": "votesYes",
          "type": "uint256"
        },
        {
          "indexed": false,
          "internalType": "uint256",
          "name": "votesNo",
          "type": "uint256"
        }
      ],
      "name": "PolicySplitVoteCast",
      "type": "event"
    },
    {
      "anonymous": false,
      "inputs": [
        {
          "indexed": true,
          "internalType": "address",
          "name": "voter",
          "type": "address"
        },
        {
          "indexed": false,
          "internalType": "bool",
          "name": "vote",
          "type": "bool"
        },
        {
          "indexed": false,
          "internalType": "uint256",
          "name": "amount",
          "type": "uint256"
        }
      ],
      "name": "PolicyVoteCast",
      "type": "event"
    },
    {
      "anonymous": false,
      "inputs": [
        {
          "indexed": false,
          "internalType": "enum PolicyVotes.Result",
          "name": "result",
          "type": "uint8"
        }
      ],
      "name": "VoteCompleted",
      "type": "event"
    },
    {
      "inputs": [],
      "name": "ENACTION_DELAY",
      "outputs": [
        {
          "internalType": "uint256",
          "name": "",
          "type": "uint256"
        }
      ],
      "stateMutability": "view",
      "type": "function"
    },
    {
      "inputs": [],
      "name": "VOTE_TIME",
      "outputs": [
        {
          "internalType": "uint256",
          "name": "",
          "type": "uint256"
        }
      ],
      "stateMutability": "view",
      "type": "function"
    },
    {
      "inputs": [],
      "name": "blockNumber",
      "outputs": [
        {
          "internalType": "uint256",
          "name": "",
          "type": "uint256"
        }
      ],
      "stateMutability": "view",
      "type": "function"
    },
    {
      "inputs": [
        {
          "internalType": "bytes32",
          "name": "",
          "type": "bytes32"
        },
        {
          "internalType": "address",
          "name": "_addr",
          "type": "address"
        }
      ],
      "name": "canImplementInterfaceForAddress",
      "outputs": [
        {
          "internalType": "bytes32",
          "name": "",
          "type": "bytes32"
        }
      ],
      "stateMutability": "view",
      "type": "function"
    },
    {
      "inputs": [],
      "name": "clone",
      "outputs": [
        {
          "internalType": "address",
          "name": "",
          "type": "address"
        }
      ],
      "stateMutability": "nonpayable",
      "type": "function"
    },
    {
      "inputs": [],
      "name": "ecoToken",
      "outputs": [
        {
          "internalType": "contract ECO",
          "name": "",
          "type": "address"
        }
      ],
      "stateMutability": "view",
      "type": "function"
    },
    {
      "inputs": [],
      "name": "ecoXToken",
      "outputs": [
        {
          "internalType": "contract ECOx",
          "name": "",
          "type": "address"
        }
      ],
      "stateMutability": "view",
      "type": "function"
    },
    {
      "inputs": [],
      "name": "implementation",
      "outputs": [
        {
          "internalType": "address",
          "name": "_impl",
          "type": "address"
        }
      ],
      "stateMutability": "view",
      "type": "function"
    },
    {
      "inputs": [],
      "name": "policy",
      "outputs": [
        {
          "internalType": "contract Policy",
          "name": "",
          "type": "address"
        }
      ],
      "stateMutability": "view",
      "type": "function"
    },
    {
      "inputs": [
        {
          "internalType": "address",
          "name": "_delegate",
          "type": "address"
        },
        {
          "internalType": "bytes",
          "name": "_data",
          "type": "bytes"
        }
      ],
      "name": "policyCommand",
      "outputs": [],
      "stateMutability": "nonpayable",
      "type": "function"
    },
    {
      "inputs": [],
      "name": "proposal",
      "outputs": [
        {
          "internalType": "contract Proposal",
          "name": "",
          "type": "address"
        }
      ],
      "stateMutability": "view",
      "type": "function"
    },
    {
      "inputs": [
        {
          "internalType": "address",
          "name": "_addr",
          "type": "address"
        }
      ],
      "name": "setExpectedInterfaceSet",
      "outputs": [],
      "stateMutability": "nonpayable",
      "type": "function"
    },
    {
      "inputs": [
        {
          "internalType": "address",
          "name": "",
          "type": "address"
        }
      ],
      "name": "stake",
      "outputs": [
        {
          "internalType": "uint256",
          "name": "",
          "type": "uint256"
        }
      ],
      "stateMutability": "view",
      "type": "function"
    },
    {
      "inputs": [],
      "name": "totalStake",
      "outputs": [
        {
          "internalType": "uint256",
          "name": "",
          "type": "uint256"
        }
      ],
      "stateMutability": "view",
      "type": "function"
    },
    {
      "inputs": [
        {
          "internalType": "uint256",
          "name": "_blockNumber",
          "type": "uint256"
        }
      ],
      "name": "totalVotingPower",
      "outputs": [
        {
          "internalType": "uint256",
          "name": "",
          "type": "uint256"
        }
      ],
      "stateMutability": "view",
      "type": "function"
    },
    {
      "inputs": [],
      "name": "voteEnds",
      "outputs": [
        {
          "internalType": "uint256",
          "name": "",
          "type": "uint256"
        }
      ],
      "stateMutability": "view",
      "type": "function"
    },
    {
      "inputs": [
        {
          "internalType": "address",
          "name": "_who",
          "type": "address"
        },
        {
          "internalType": "uint256",
          "name": "_blockNumber",
          "type": "uint256"
        }
      ],
      "name": "votingPower",
      "outputs": [
        {
          "internalType": "uint256",
          "name": "",
          "type": "uint256"
        }
      ],
      "stateMutability": "view",
      "type": "function"
    },
    {
      "inputs": [],
      "name": "yesStake",
      "outputs": [
        {
          "internalType": "uint256",
          "name": "",
          "type": "uint256"
        }
      ],
      "stateMutability": "view",
      "type": "function"
    },
    {
      "inputs": [
        {
          "internalType": "address",
          "name": "",
          "type": "address"
        }
      ],
      "name": "yesVotes",
      "outputs": [
        {
          "internalType": "uint256",
          "name": "",
          "type": "uint256"
        }
      ],
      "stateMutability": "view",
      "type": "function"
    },
    {
      "inputs": [
        {
          "internalType": "bool",
          "name": "_vote",
          "type": "bool"
        }
      ],
      "name": "vote",
      "outputs": [],
      "stateMutability": "nonpayable",
      "type": "function"
    },
    {
      "inputs": [
        {
          "internalType": "uint256",
          "name": "_votesYes",
          "type": "uint256"
        },
        {
          "internalType": "uint256",
          "name": "_votesNo",
          "type": "uint256"
        }
      ],
      "name": "voteSplit",
      "outputs": [],
      "stateMutability": "nonpayable",
      "type": "function"
    },
    {
      "inputs": [
        {
          "internalType": "address",
          "name": "_self",
          "type": "address"
        }
      ],
      "name": "initialize",
      "outputs": [],
      "stateMutability": "nonpayable",
      "type": "function"
    },
    {
      "inputs": [
        {
          "internalType": "contract Proposal",
          "name": "_proposal",
          "type": "address"
        },
        {
          "internalType": "uint256",
          "name": "_cutoffBlockNumber",
          "type": "uint256"
        }
      ],
      "name": "configure",
      "outputs": [],
      "stateMutability": "nonpayable",
      "type": "function"
    },
    {
      "inputs": [],
      "name": "execute",
      "outputs": [],
      "stateMutability": "nonpayable",
      "type": "function"
    }
  ],
  "bytecode": "0x60e06040523480156200001157600080fd5b5060405162001e5338038062001e53833981016040819052620000349162000188565b82828282806200004430620000de565b6001600160a01b03908116608052604051635df8122f60e01b81523060048201529082166024820152731820a4b7618bde71dce8cdc73aab6c95905fad2490635df8122f90604401600060405180830381600087803b158015620000a757600080fd5b505af1158015620000bc573d6000803e3d6000fd5b5050506001600160a01b0393841660a05250501660c05250620001dc92505050565b6001600160a01b0381166200010060008051602062001e338339815191525490565b6001600160a01b031614156200015c5760405162461bcd60e51b815260206004820152601f60248201527f496d706c656d656e746174696f6e20616c7265616479206d61746368696e6700604482015260640160405180910390fd5b60008051602062001e3383398151915255565b6001600160a01b03811681146200018557600080fd5b50565b6000806000606084860312156200019e57600080fd5b8351620001ab816200016f565b6020850151909350620001be816200016f565b6040850151909250620001d1816200016f565b809150509250925092565b60805160a05160c051611bda62000259600039600061026801526000818161030901528181610a1601528181610b580152610f4f0152600081816101a201528181610448015281816105e5015281816106f701528181610e0901528181610ed801528181610f82015281816114c3015261160c0152611bda6000f3fe608060405234801561001057600080fd5b50600436106101985760003560e01c8063536f9f42116100e3578063753ec1031161008c578063c4d66de811610066578063c4d66de814610350578063ce32de2b14610363578063d40d172d1461037657600080fd5b8063753ec1031461032b57806385defaf41461033e5780638b0e9f3f1461034757600080fd5b80635c60da1b116100bd5780635c60da1b146102e757806361461954146102fc578063705d53041461030457600080fd5b8063536f9f42146102b85780635423b94d146102cb57806357e871e7146102de57600080fd5b806328ea6dda1161014557806339634e0c1161011f57806339634e0c1461028a578063486a27db1461029d5780634b9f5c98146102a557600080fd5b806328ea6dda14610252578063328a1da91461025b57806333800bac1461026357600080fd5b806309ed46071161017657806309ed460714610209578063249cb3fa14610211578063264762041461023257600080fd5b80630505c8c91461019d578063072caf6e146101e157806309d7f23b146101f6575b600080fd5b6101c47f000000000000000000000000000000000000000000000000000000000000000081565b6040516001600160a01b0390911681526020015b60405180910390f35b6101f46101ef3660046118e2565b610396565b005b6101f4610204366004611924565b61043d565b6101c46104f6565b61022461021f3660046119e8565b6105e1565b6040519081526020016101d8565b610224610240366004611a18565b60026020526000908152604090205481565b61022460055481565b610224603c81565b6101c47f000000000000000000000000000000000000000000000000000000000000000081565b6101f4610298366004611a18565b6106ec565b61022460f081565b6101f46102b3366004611a4a565b6107aa565b6102246102c6366004611a67565b6109f3565b6102246102d93660046118e2565b610b2d565b61022460075481565b600080516020611b85833981519152546101c4565b6101f4610c75565b6101c47f000000000000000000000000000000000000000000000000000000000000000081565b6001546101c4906001600160a01b031681565b61022460065481565b61022460045481565b6101f461035e366004611a18565b6110e5565b6101f4610371366004611a80565b611170565b610224610384366004611a18565b60036020526000908152604090205481565b600654156103fd5760405162461bcd60e51b815260206004820152602960248201527f5468697320696e7374616e63652068617320616c7265616479206265656e20636044820152681bdb999a59dd5c995960ba1b60648201526084015b60405180910390fd5b61040860f042611ab8565b6006556007556001805473ffffffffffffffffffffffffffffffffffffffff19166001600160a01b0392909216919091179055565b336001600160a01b037f000000000000000000000000000000000000000000000000000000000000000016146104cc5760405162461bcd60e51b815260206004820152602e60248201527f4f6e6c792074686520706f6c69637920636f6e7472616374206d61792063616c60448201526d36103a3434b99036b2ba3437b21760911b60648201526084016103f4565b600080825160208401855af43d806000803e8180156104ea57816000f35b816000fd5b5050505050565b60003061050f600080516020611b858339815191525490565b6001600160a01b0316146105745760405162461bcd60e51b815260206004820152602660248201527f54686973206d6574686f642063616e6e6f742062652063616c6c6564206f6e20604482015265636c6f6e657360d01b60648201526084016103f4565b600061057f306113b1565b60405163189acdbd60e31b81523060048201529091506001600160a01b0382169063c4d66de890602401600060405180830381600087803b1580156105c357600080fd5b505af11580156105d7573d6000803e3d6000fd5b5092949350505050565b60007f00000000000000000000000000000000000000000000000000000000000000006001600160a01b0316826001600160a01b0316148061063057506000546001600160a01b038381169116145b6106a25760405162461bcd60e51b815260206004820152603c60248201527f4f6e6c792074686520706f6c696379206f7220696e7465726661636520636f6e60448201527f74726163742063616e207365742074686520696e746572666163652e0000000060648201526084016103f4565b6040517f455243313832305f4143434550545f4d41474943000000000000000000000000602082015260340160405160208183030381529060405280519060200120905092915050565b336001600160a01b037f0000000000000000000000000000000000000000000000000000000000000000161461077b5760405162461bcd60e51b815260206004820152602e60248201527f4f6e6c792074686520706f6c69637920636f6e7472616374206d61792063616c60448201526d36103a3434b99036b2ba3437b21760911b60648201526084016103f4565b6000805473ffffffffffffffffffffffffffffffffffffffff19166001600160a01b0392909216919091179055565b60065442106108175760405162461bcd60e51b815260206004820152603360248201527f566f7465732063616e206f6e6c79206265207265636f7264656420647572696e60448201527219c81d1a19481d9bdd1a5b99c81c195c9a5bd9606a1b60648201526084016103f4565b600061082533600754610b2d565b9050600081116108955760405162461bcd60e51b815260206004820152603560248201527f566f74657273206d75737420686176652068656c6420746f6b656e73206265666044820152746f7265207468697320766f74696e67206379636c6560581b60648201526084016103f4565b33600090815260026020908152604080832054600390925290912054801515821561094d578415158115151415806108cd5750818314155b6109255760405162461bcd60e51b815260206004820152602360248201527f596f757220766f74652068617320616c7265616479206265656e207265636f7260448201526219195960ea1b60648201526084016103f4565b801561094d57816005546109399190611ad0565b600555336000908152600360205260408120555b841561097757836005546109619190611ab8565b6005553360009081526003602052604090208490555b3360009081526002602052604090208490556004548390610999908690611ab8565b6109a39190611ad0565b6004556109af3361141a565b6040805186151581526020810186905233917f83d67e3bded439819290451fe54e3296e9bc906b45038ef8ba8ae12df5050f98910160405180910390a25050505050565b604051630981b24d60e41b81526004810182905260009081906001600160a01b037f0000000000000000000000000000000000000000000000000000000000000000169063981b24d09060240160206040518083038186803b158015610a5857600080fd5b505afa158015610a6c573d6000803e3d6000fd5b505050506040513d601f19601f82011682018060405250810190610a909190611ae7565b90506000610a9c61147c565b6001600160a01b0316635bb748ad856040518263ffffffff1660e01b8152600401610ac991815260200190565b60206040518083038186803b158015610ae157600080fd5b505afa158015610af5573d6000803e3d6000fd5b505050506040513d601f19601f82011682018060405250810190610b199190611ae7565b9050610b258183611ab8565b949350505050565b604051630748d63560e31b81526001600160a01b0383811660048301526024820183905260009182917f00000000000000000000000000000000000000000000000000000000000000001690633a46b1a89060440160206040518083038186803b158015610b9a57600080fd5b505afa158015610bae573d6000803e3d6000fd5b505050506040513d601f19601f82011682018060405250810190610bd29190611ae7565b90506000610bde61147c565b60405163334ff4e160e21b81526001600160a01b03878116600483015260248201879052919091169063cd3fd3849060440160206040518083038186803b158015610c2857600080fd5b505afa158015610c3c573d6000803e3d6000fd5b505050506040513d601f19601f82011682018060405250810190610c609190611ae7565b9050610c6c8183611ab8565b95945050505050565b60006002600454610c869190611b00565b90506000610c956007546109f3565b9050426000610ca5600284611b00565b6005541015610d2057603c600654610cbd9190611ab8565b8211610d205760405162461bcd60e51b815260206004820152602c60248201527f4d616a6f7269747920737570706f727420726571756972656420666f7220656160448201526b39363c9032b730b1ba34b7b760a11b60648201526084016103f4565b30610d4a7f65474dbc3934a157baaaa893dea8c73453f0cc9c47a4f857047e8f0c8b54888f6114ac565b6001600160a01b031614610dc65760405162461bcd60e51b815260206004820152603b60248201527f5468697320636f6e7472616374206e6f206c6f6e67657220686173206175746860448201527f6f72697a6174696f6e20746f20656e6163742074686520766f7465000000000060648201526084016103f4565b600454610dd557506002610e6c565b836005541015610de757506001610e6c565b6001546040516330f056e560e11b81526001600160a01b0391821660048201527f0000000000000000000000000000000000000000000000000000000000000000909116906361e0adca90602401600060405180830381600087803b158015610e4f57600080fd5b505af1158015610e63573d6000803e3d6000fd5b50505050600090505b7fa83c75fdbf6911ff21d2ef7b04f04c9a1698044e31b381d4ad4dd9fd93c336de81604051610e9b9190611b22565b60405180910390a16040516319bb6e0160e11b81527f65474dbc3934a157baaaa893dea8c73453f0cc9c47a4f857047e8f0c8b54888f60048201527f00000000000000000000000000000000000000000000000000000000000000006001600160a01b031690633376dc0290602401600060405180830381600087803b158015610f2457600080fd5b505af1158015610f38573d6000803e3d6000fd5b50506040516370a0823160e01b81523060048201527f00000000000000000000000000000000000000000000000000000000000000006001600160a01b0316925063a9059cbb91507f00000000000000000000000000000000000000000000000000000000000000009083906370a082319060240160206040518083038186803b158015610fc557600080fd5b505afa158015610fd9573d6000803e3d6000fd5b505050506040513d601f19601f82011682018060405250810190610ffd9190611ae7565b6040517fffffffff0000000000000000000000000000000000000000000000000000000060e085901b1681526001600160a01b0390921660048301526024820152604401602060405180830381600087803b15801561105b57600080fd5b505af115801561106f573d6000803e3d6000fd5b505050506040513d601f19601f820116820180604052508101906110939190611b4a565b6110df5760405162461bcd60e51b815260206004820152600f60248201527f5472616e73666572204661696c6564000000000000000000000000000000000060448201526064016103f4565b50505050565b60006110fd600080516020611b858339815191525490565b6001600160a01b0316146111645760405162461bcd60e51b815260206004820152602860248201527f43616e206f6e6c792062652063616c6c656420647572696e6720696e697469616044820152673634bd30ba34b7b760c11b60648201526084016103f4565b61116d81611567565b50565b60065442106111dd5760405162461bcd60e51b815260206004820152603360248201527f566f7465732063616e206f6e6c79206265207265636f7264656420647572696e60448201527219c81d1a19481d9bdd1a5b99c81c195c9a5bd9606a1b60648201526084016103f4565b60006111eb33600754610b2d565b90506000811161125b5760405162461bcd60e51b815260206004820152603560248201527f566f74657273206d75737420686176652068656c6420746f6b656e73206265666044820152746f7265207468697320766f74696e67206379636c6560581b60648201526084016103f4565b60006112678385611ab8565b9050808210156112df5760405162461bcd60e51b815260206004820152603760248201527f596f757220766f74696e6720706f776572206973206c657373207468616e207360448201527f75626d697474656420796573202b206e6f20766f74657300000000000000000060648201526084016103f4565b336000908152600260209081526040808320546003909252909120548015611313578060055461130f9190611ad0565b6005555b336000908152600360205260409020869055600554611333908790611ab8565b6005553360009081526002602052604090208390556004548290611358908590611ab8565b6113629190611ad0565b60045561136e3361141a565b604080518781526020810187905233917fc28851797488c206008adc97915df5e42f45424300d2823e52f6e4bef368c1b8910160405180910390a2505050505050565b6000808260601b90506040517f3d602d80600a3d3981f3363d3d373d3d3d363d7300000000000000000000000081528160148201527f5af43d82803e903d91602b57fd5bf3000000000000000000000000000000000060288201526037816000f0949350505050565b61142261147c565b6040516324b07fd160e21b81526001600160a01b03838116600483015291909116906392c1ff44906024015b600060405180830381600087803b15801561146857600080fd5b505af11580156104ef573d6000803e3d6000fd5b60006114a77fdf849ae066ce5ea7a01105f3db8539dd51779b4506741de6731ef32f7f4daa186114ac565b905090565b60405163555ddc6560e11b81526001600160a01b037f000000000000000000000000000000000000000000000000000000000000000016600482015260248101829052600090731820a4b7618bde71dce8cdc73aab6c95905fad249063aabbb8ca9060440160206040518083038186803b15801561152957600080fd5b505afa15801561153d573d6000803e3d6000fd5b505050506040513d601f19601f820116820180604052508101906115619190611b67565b92915050565b600061157f600080516020611b858339815191525490565b6001600160a01b0316146115e65760405162461bcd60e51b815260206004820152602860248201527f43616e206f6e6c792062652063616c6c656420647572696e6720696e697469616044820152673634bd30ba34b7b760c11b60648201526084016103f4565b6115ef81611655565b604051635df8122f60e01b81523060048201526001600160a01b037f0000000000000000000000000000000000000000000000000000000000000000166024820152731820a4b7618bde71dce8cdc73aab6c95905fad2490635df8122f9060440161144e565b600061166d600080516020611b858339815191525490565b6001600160a01b0316146116d45760405162461bcd60e51b815260206004820152602860248201527f43616e206f6e6c792062652063616c6c656420647572696e6720696e697469616044820152673634bd30ba34b7b760c11b60648201526084016103f4565b61116d8160006116f0600080516020611b858339815191525490565b6001600160a01b0316146117575760405162461bcd60e51b815260206004820152602860248201527f43616e206f6e6c792062652063616c6c656420647572696e6720696e697469616044820152673634bd30ba34b7b760c11b60648201526084016103f4565b6000816001600160a01b0316635c60da1b6040518163ffffffff1660e01b815260040160206040518083038186803b15801561179257600080fd5b505afa1580156117a6573d6000803e3d6000fd5b505050506040513d601f19601f820116820180604052508101906117ca9190611b67565b90506001600160a01b0381166118375760405162461bcd60e51b815260206004820152602c60248201527f696e697469616c697a6174696f6e206661696c7572653a206e6f7468696e672060448201526b1d1bc81a5b5c1b195b595b9d60a21b60648201526084016103f4565b61184081611844565b5050565b806001600160a01b0316611864600080516020611b858339815191525490565b6001600160a01b031614156118bb5760405162461bcd60e51b815260206004820152601f60248201527f496d706c656d656e746174696f6e20616c7265616479206d61746368696e670060448201526064016103f4565b600080516020611b8583398151915255565b6001600160a01b038116811461116d57600080fd5b600080604083850312156118f557600080fd5b8235611900816118cd565b946020939093013593505050565b634e487b7160e01b600052604160045260246000fd5b6000806040838503121561193757600080fd5b8235611942816118cd565b9150602083013567ffffffffffffffff8082111561195f57600080fd5b818501915085601f83011261197357600080fd5b8135818111156119855761198561190e565b604051601f8201601f19908116603f011681019083821181831017156119ad576119ad61190e565b816040528281528860208487010111156119c657600080fd5b8260208601602083013760006020848301015280955050505050509250929050565b600080604083850312156119fb57600080fd5b823591506020830135611a0d816118cd565b809150509250929050565b600060208284031215611a2a57600080fd5b8135611a35816118cd565b9392505050565b801515811461116d57600080fd5b600060208284031215611a5c57600080fd5b8135611a3581611a3c565b600060208284031215611a7957600080fd5b5035919050565b60008060408385031215611a9357600080fd5b50508035926020909101359150565b634e487b7160e01b600052601160045260246000fd5b60008219821115611acb57611acb611aa2565b500190565b600082821015611ae257611ae2611aa2565b500390565b600060208284031215611af957600080fd5b5051919050565b600082611b1d57634e487b7160e01b600052601260045260246000fd5b500490565b6020810160038310611b4457634e487b7160e01b600052602160045260246000fd5b91905290565b600060208284031215611b5c57600080fd5b8151611a3581611a3c565b600060208284031215611b7957600080fd5b8151611a35816118cd56fef86c915dad5894faca0dfa067c58fdf4307406d255ed0a65db394f82b77f53d4a2646970667358221220bf3c72218b516a97c5b6c541c4529a163b5371bc94ddaae8f82c62db24c63e8b64736f6c63430008090033f86c915dad5894faca0dfa067c58fdf4307406d255ed0a65db394f82b77f53d4",
  "immutableReferences": {
    "11848": [
      {
        "length": 32,
        "start": 777
      },
      {
        "length": 32,
        "start": 2582
      },
      {
        "length": 32,
        "start": 2904
      },
      {
        "length": 32,
        "start": 3919
      }
    ],
    "11851": [
      {
        "length": 32,
        "start": 616
      }
    ],
    "12039": [
      {
        "length": 32,
        "start": 418
      },
      {
        "length": 32,
        "start": 1096
      },
      {
        "length": 32,
        "start": 1509
      },
      {
        "length": 32,
        "start": 1783
      },
      {
        "length": 32,
        "start": 3593
      },
      {
        "length": 32,
        "start": 3800
      },
      {
        "length": 32,
        "start": 3970
      },
      {
        "length": 32,
        "start": 5315
      },
      {
        "length": 32,
        "start": 5644
      }
    ]
  },
  "source": "// SPDX-License-Identifier: MIT\npragma solidity ^0.8.0;\n\nimport \"../policy/Policy.sol\";\nimport \"./Proposal.sol\";\nimport \"../policy/PolicedUtils.sol\";\nimport \"../utils/TimeUtils.sol\";\nimport \"./VotingPower.sol\";\nimport \"../currency/ECO.sol\";\nimport \"../currency/ECOx.sol\";\n\n/** @title PolicyVotes\n * This implements the voting and implementation phases of the policy decision process.\n * Open stake based voting is used for the voting phase.\n */\ncontract PolicyVotes is VotingPower, TimeUtils {\n    /** The proposal being voted on */\n    Proposal public proposal;\n\n    /** Per voter power.\n     */\n    mapping(address => uint256) public stake;\n\n    /** Per voter that votes yes, by amount voted yes\n     */\n    mapping(address => uint256) public yesVotes;\n\n    /** Total currency staked in all ongoing votes in basic unit of 10^{-18} ECO (weico).\n     */\n    uint256 public totalStake;\n\n    /** Total revealed positive stake in basic unit of 10^{-18} ECO (weico).\n     */\n    uint256 public yesStake;\n\n    /** The length of the commit portion of the voting phase.\n     */\n    uint256 public constant VOTE_TIME = 4 minutes;\n\n    /** The delay on a plurality win\n     */\n    uint256 public constant ENACTION_DELAY = 1 minutes;\n\n    /** The timestamp at which the commit portion of the voting phase ends.\n     */\n    uint256 public voteEnds;\n\n    /** Vote result */\n    enum Result {\n        Accepted,\n        Rejected,\n        Failed\n    }\n\n    /** Event emitted when vote outcome is known.\n     */\n    event VoteCompleted(Result result);\n\n    /** Event emitted when vote is submitted.\n     */\n    event PolicyVoteCast(address indexed voter, bool vote, uint256 amount);\n\n    /** Event emitted when split vote is.\n     */\n    event PolicySplitVoteCast(\n        address indexed voter,\n        uint256 votesYes,\n        uint256 votesNo\n    );\n\n    /** The store block number to use when checking account balances for staking.\n     */\n    uint256 public blockNumber;\n\n    // solhint-disable-next-line no-empty-blocks\n    constructor(\n        Policy _policy,\n        ECO _ecoAddr,\n        ECOx _ecoXAddr\n    ) VotingPower(_policy, _ecoAddr, _ecoXAddr) {}\n\n    /** Submit your yes/no support\n     *\n     * Shows whether or not your voting power supports or does not support the vote\n     *\n     * Note Not voting is not equivalent to voting no. Percentage of voted support,\n     * not percentage of total voting power is used to determine the win.\n     *\n     * @param _vote The vote for the proposal\n     */\n    function vote(bool _vote) external {\n        require(\n            getTime() < voteEnds,\n            \"Votes can only be recorded during the voting period\"\n        );\n\n        uint256 _amount = votingPower(msg.sender, blockNumber);\n\n        require(\n            _amount > 0,\n            \"Voters must have held tokens before this voting cycle\"\n        );\n\n        uint256 _oldStake = stake[msg.sender];\n        uint256 _oldYesVotes = yesVotes[msg.sender];\n        bool _prevVote = _oldYesVotes != 0;\n\n        if (_oldStake != 0) {\n            require(\n                _prevVote != _vote || _oldStake != _oldYesVotes,\n                \"Your vote has already been recorded\"\n            );\n\n            if (_prevVote) {\n                yesStake = yesStake - _oldYesVotes;\n                yesVotes[msg.sender] = 0;\n            }\n        }\n\n        if (_vote) {\n            yesStake = yesStake + _amount;\n            yesVotes[msg.sender] = _amount;\n        }\n\n        stake[msg.sender] = _amount;\n        totalStake = totalStake + _amount - _oldStake;\n\n        recordVote(msg.sender);\n        emit PolicyVoteCast(msg.sender, _vote, _amount);\n    }\n\n    /** Submit a mixed vote of yes/no support\n     *\n     * Useful for contracts that wish to vote for an agregate of users\n     *\n     * Note As not voting is not equivalent to voting no it matters recording the no votes\n     * The total amount of votes in favor is relevant for early enaction and the total percentage\n     * of voting power that voted is necessary for determining a winner.\n     *\n     * Note As this is designed for contracts, the onus is on the contract designer to correctly\n     * understand and take responsibility for its input parameters. The only check is to stop\n     * someone from voting with more power than they have.\n     *\n     * @param _votesYes The amount of votes in favor of the proposal\n     * @param _votesNo The amount of votes against the proposal\n     */\n    function voteSplit(uint256 _votesYes, uint256 _votesNo) external {\n        require(\n            getTime() < voteEnds,\n            \"Votes can only be recorded during the voting period\"\n        );\n\n        uint256 _amount = votingPower(msg.sender, blockNumber);\n\n        require(\n            _amount > 0,\n            \"Voters must have held tokens before this voting cycle\"\n        );\n\n        uint256 _totalVotes = _votesYes + _votesNo;\n\n        require(\n            _amount >= _totalVotes,\n            \"Your voting power is less than submitted yes + no votes\"\n        );\n\n        uint256 _oldStake = stake[msg.sender];\n        uint256 _oldYesVotes = yesVotes[msg.sender];\n\n        if (_oldYesVotes > 0) {\n            yesStake = yesStake - _oldYesVotes;\n        }\n\n        yesVotes[msg.sender] = _votesYes;\n        yesStake = yesStake + _votesYes;\n\n        stake[msg.sender] = _totalVotes;\n        totalStake = totalStake + _totalVotes - _oldStake;\n\n        recordVote(msg.sender);\n        emit PolicySplitVoteCast(msg.sender, _votesYes, _votesNo);\n    }\n\n    /** Initialize a cloned/proxied copy of this contract.\n     *\n     * @param _self The original contract, to provide access to storage data.\n     */\n    function initialize(address _self) public override onlyConstruction {\n        super.initialize(_self);\n    }\n\n    /** Configure the proposals that are part of this voting cycle and start\n     * the lockup period.\n     *\n     * This also fixes the end times of each subsequent phase.\n     *\n     * This can only be called once, and should be called atomically with\n     * instantiation.\n     *\n     * @param _proposal The proposal to vote on.\n     */\n    function configure(Proposal _proposal, uint256 _cutoffBlockNumber)\n        external\n    {\n        require(voteEnds == 0, \"This instance has already been configured\");\n\n        voteEnds = getTime() + VOTE_TIME;\n        blockNumber = _cutoffBlockNumber;\n\n        proposal = _proposal;\n    }\n\n    /** Execute the proposal if it has enough support.\n     *\n     * Can only be called after the voting and the delay phase,\n     * or after the point that more than 50% of the total voting power\n     * has voted in favor of the proposal.\n     *\n     * If the proposal has been accepted, it will be enacted by\n     * calling the `enacted` functions using `delegatecall`\n     * from the root policy.\n     */\n    function execute() external {\n        uint256 _requiredStake = totalStake / 2;\n        uint256 _total = totalVotingPower(blockNumber);\n        uint256 _time = getTime();\n\n        Result _res;\n\n        if (yesStake < _total / 2) {\n            require(\n                _time > voteEnds + ENACTION_DELAY,\n                \"Majority support required for early enaction\"\n            );\n        }\n\n        require(\n            policyFor(ID_POLICY_VOTES) == address(this),\n            \"This contract no longer has authorization to enact the vote\"\n        );\n\n        if (totalStake == 0) {\n            // Nobody voted\n            _res = Result.Failed;\n        } else if (yesStake < _requiredStake) {\n            // Not enough yes votes\n            _res = Result.Rejected;\n        } else {\n            // Vote passed\n            policy.internalCommand(address(proposal));\n            _res = Result.Accepted;\n        }\n\n        emit VoteCompleted(_res);\n        policy.removeSelf(ID_POLICY_VOTES);\n\n        require(\n            ecoToken.transfer(\n                address(policy),\n                ecoToken.balanceOf(address(this))\n            ),\n            \"Transfer Failed\"\n        );\n    }\n}\n",
  "sourcePath": "/Users/dirksmac/dev/eco/currency/contracts/governance/PolicyVotes.sol",
  "compiler": {
    "name": "solc",
    "version": "0.8.9+commit.e5eed63a.Emscripten.clang"
  },
  "schemaVersion": "3.4.3",
  "updatedAt": "2022-07-01T19:00:50.599Z",
  "devdoc": {
    "kind": "dev",
    "methods": {
      "canImplementInterfaceForAddress(bytes32,address)": {
        "params": {
          "_addr": "The address of the contract we might act on behalf of."
        }
      },
      "configure(address,uint256)": {
        "params": {
          "_proposal": "The proposal to vote on."
        }
      },
      "initialize(address)": {
        "params": {
          "_self": "The original contract, to provide access to storage data."
        }
      },
      "policyCommand(address,bytes)": {
        "params": {
          "_data": "The call message/data to execute on.",
          "_delegate": "The address of the contract to delegate execution to."
        }
      },
      "vote(bool)": {
        "params": {
          "_vote": "The vote for the proposal"
        }
      },
      "voteSplit(uint256,uint256)": {
        "params": {
          "_votesNo": "The amount of votes against the proposal",
          "_votesYes": "The amount of votes in favor of the proposal"
        }
      }
    },
    "title": "PolicyVotes This implements the voting and implementation phases of the policy decision process. Open stake based voting is used for the voting phase.",
    "version": 1
  },
  "userdoc": {
    "events": {
      "PolicySplitVoteCast(address,uint256,uint256)": {
        "notice": "Event emitted when split vote is."
      },
      "PolicyVoteCast(address,bool,uint256)": {
        "notice": "Event emitted when vote is submitted."
      },
      "VoteCompleted(uint8)": {
        "notice": "Event emitted when vote outcome is known."
      }
    },
    "kind": "user",
    "methods": {
      "ENACTION_DELAY()": {
        "notice": "The delay on a plurality win"
      },
      "VOTE_TIME()": {
        "notice": "The length of the commit portion of the voting phase."
      },
      "blockNumber()": {
        "notice": "The store block number to use when checking account balances for staking."
      },
      "canImplementInterfaceForAddress(bytes32,address)": {
        "notice": "ERC1820 permissioning interface"
      },
      "clone()": {
        "notice": "Create a clone of this contract Creates a clone of this contract by instantiating a proxy at a new address and initializing it based on the current contract. Uses optionality.io's CloneFactory functionality. This is used to save gas cost during deployments. Rather than including the full contract code in every contract that might instantiate it we can deploy it once and reference the location it was deployed to. Then calls to clone() can be used to create instances as needed without increasing the code size of the instantiating contract."
      },
      "configure(address,uint256)": {
        "notice": "Configure the proposals that are part of this voting cycle and start the lockup period. This also fixes the end times of each subsequent phase. This can only be called once, and should be called atomically with instantiation."
      },
      "execute()": {
        "notice": "Execute the proposal if it has enough support. Can only be called after the voting and the delay phase, or after the point that more than 50% of the total voting power has voted in favor of the proposal. If the proposal has been accepted, it will be enacted by calling the `enacted` functions using `delegatecall` from the root policy."
      },
      "implementation()": {
        "notice": "Get the address of the proxy target contract."
      },
      "initialize(address)": {
        "notice": "Initialize a cloned/proxied copy of this contract."
      },
      "policy()": {
        "notice": "The address of the root policy instance overseeing this instance. This address can be used for ERC1820 lookup of other components, ERC1820 lookup of role policies, and interaction with the policy hierarchy."
      },
      "policyCommand(address,bytes)": {
        "notice": "Execute code as indicated by the managing policy contract We allow the managing policy contract to execute arbitrary code in our context by allowing it to specify an implementation address and some message data, and then using delegatecall to execute the code at the implementation address, passing in the message data, all within our own address space."
      },
      "proposal()": {
        "notice": "The proposal being voted on "
      },
      "setExpectedInterfaceSet(address)": {
        "notice": "Set the expected interface set"
      },
      "stake(address)": {
        "notice": "Per voter power."
      },
      "totalStake()": {
        "notice": "Total currency staked in all ongoing votes in basic unit of 10^{-18} ECO (weico)."
      },
      "vote(bool)": {
        "notice": "Submit your yes/no support Shows whether or not your voting power supports or does not support the vote Note Not voting is not equivalent to voting no. Percentage of voted support, not percentage of total voting power is used to determine the win."
      },
      "voteEnds()": {
        "notice": "The timestamp at which the commit portion of the voting phase ends."
      },
      "voteSplit(uint256,uint256)": {
        "notice": "Submit a mixed vote of yes/no support Useful for contracts that wish to vote for an agregate of users Note As not voting is not equivalent to voting no it matters recording the no votes The total amount of votes in favor is relevant for early enaction and the total percentage of voting power that voted is necessary for determining a winner. Note As this is designed for contracts, the onus is on the contract designer to correctly understand and take responsibility for its input parameters. The only check is to stop someone from voting with more power than they have."
      },
      "yesStake()": {
        "notice": "Total revealed positive stake in basic unit of 10^{-18} ECO (weico)."
      },
      "yesVotes(address)": {
        "notice": "Per voter that votes yes, by amount voted yes"
      }
    },
    "version": 1
  }
}