{
  "_format": "hh-sol-artifact-1",
  "contractName": "PolicyProposals",
  "sourceName": "contracts/governance/community/PolicyProposals.sol",
  "abi": [
    {
      "inputs": [
        {
          "internalType": "contract Policy",
          "name": "_policy",
          "type": "address"
        },
        {
          "internalType": "contract PolicyVotes",
          "name": "_policyvotes",
          "type": "address"
        },
        {
          "internalType": "contract ECO",
          "name": "_ecoAddr",
          "type": "address"
        },
        {
          "internalType": "contract ECOx",
          "name": "_ecoXAddr",
          "type": "address"
        }
      ],
      "stateMutability": "nonpayable",
      "type": "constructor"
    },
    {
      "anonymous": false,
      "inputs": [
        {
          "indexed": true,
          "internalType": "address",
          "name": "proposer",
          "type": "address"
        },
        {
          "indexed": true,
          "internalType": "contract Proposal",
          "name": "proposalAddress",
          "type": "address"
        }
      ],
      "name": "ProposalRefund",
      "type": "event"
    },
    {
      "anonymous": false,
      "inputs": [
        {
          "indexed": true,
          "internalType": "address",
          "name": "proposer",
          "type": "address"
        },
        {
          "indexed": true,
          "internalType": "contract Proposal",
          "name": "proposalAddress",
          "type": "address"
        }
      ],
      "name": "Register",
      "type": "event"
    },
    {
      "anonymous": false,
      "inputs": [
        {
          "indexed": true,
          "internalType": "address",
          "name": "supporter",
          "type": "address"
        },
        {
          "indexed": true,
          "internalType": "contract Proposal",
          "name": "proposalAddress",
          "type": "address"
        }
      ],
      "name": "Support",
      "type": "event"
    },
    {
      "anonymous": false,
      "inputs": [
        {
          "indexed": true,
          "internalType": "contract Proposal",
          "name": "proposalAddress",
          "type": "address"
        }
      ],
      "name": "SupportThresholdReached",
      "type": "event"
    },
    {
      "anonymous": false,
      "inputs": [
        {
          "indexed": true,
          "internalType": "address",
          "name": "unsupporter",
          "type": "address"
        },
        {
          "indexed": true,
          "internalType": "contract Proposal",
          "name": "proposalAddress",
          "type": "address"
        }
      ],
      "name": "Unsupport",
      "type": "event"
    },
    {
      "anonymous": false,
      "inputs": [
        {
          "indexed": true,
          "internalType": "contract PolicyVotes",
          "name": "contractAddress",
          "type": "address"
        }
      ],
      "name": "VoteStart",
      "type": "event"
    },
    {
      "inputs": [],
      "name": "COST_REGISTER",
      "outputs": [
        {
          "internalType": "uint256",
          "name": "",
          "type": "uint256"
        }
      ],
      "stateMutability": "view",
      "type": "function"
    },
    {
      "inputs": [],
      "name": "PROPOSAL_TIME",
      "outputs": [
        {
          "internalType": "uint256",
          "name": "",
          "type": "uint256"
        }
      ],
      "stateMutability": "view",
      "type": "function"
    },
    {
      "inputs": [],
      "name": "REFUND_IF_LOST",
      "outputs": [
        {
          "internalType": "uint256",
          "name": "",
          "type": "uint256"
        }
      ],
      "stateMutability": "view",
      "type": "function"
    },
    {
      "inputs": [],
      "name": "SUPPORT_THRESHOLD",
      "outputs": [
        {
          "internalType": "uint256",
          "name": "",
          "type": "uint256"
        }
      ],
      "stateMutability": "view",
      "type": "function"
    },
    {
      "inputs": [],
      "name": "SUPPORT_THRESHOLD_DIVISOR",
      "outputs": [
        {
          "internalType": "uint256",
          "name": "",
          "type": "uint256"
        }
      ],
      "stateMutability": "view",
      "type": "function"
    },
    {
      "inputs": [],
      "name": "allProposalAddresses",
      "outputs": [
        {
          "internalType": "contract Proposal[]",
          "name": "",
          "type": "address[]"
        }
      ],
      "stateMutability": "view",
      "type": "function"
    },
    {
      "inputs": [],
      "name": "allProposalData",
      "outputs": [
        {
          "components": [
            {
              "internalType": "address",
              "name": "proposer",
              "type": "address"
            },
            {
              "internalType": "contract Proposal",
              "name": "proposal",
              "type": "address"
            },
            {
              "internalType": "uint256",
              "name": "totalStake",
              "type": "uint256"
            }
          ],
          "internalType": "struct PolicyProposals.Prop[]",
          "name": "",
          "type": "tuple[]"
        }
      ],
      "stateMutability": "view",
      "type": "function"
    },
    {
      "inputs": [
        {
          "internalType": "uint256",
          "name": "",
          "type": "uint256"
        }
      ],
      "name": "allProposals",
      "outputs": [
        {
          "internalType": "contract Proposal",
          "name": "",
          "type": "address"
        }
      ],
      "stateMutability": "view",
      "type": "function"
    },
    {
      "inputs": [],
      "name": "blockNumber",
      "outputs": [
        {
          "internalType": "uint256",
          "name": "",
          "type": "uint256"
        }
      ],
      "stateMutability": "view",
      "type": "function"
    },
    {
      "inputs": [
        {
          "internalType": "bytes32",
          "name": "",
          "type": "bytes32"
        },
        {
          "internalType": "address",
          "name": "_addr",
          "type": "address"
        }
      ],
      "name": "canImplementInterfaceForAddress",
      "outputs": [
        {
          "internalType": "bytes32",
          "name": "",
          "type": "bytes32"
        }
      ],
      "stateMutability": "view",
      "type": "function"
    },
    {
      "inputs": [],
      "name": "clone",
      "outputs": [
        {
          "internalType": "address",
          "name": "",
          "type": "address"
        }
      ],
      "stateMutability": "nonpayable",
      "type": "function"
    },
    {
      "inputs": [],
      "name": "deployProposalVoting",
      "outputs": [],
      "stateMutability": "nonpayable",
      "type": "function"
    },
    {
      "inputs": [],
      "name": "destruct",
      "outputs": [],
      "stateMutability": "nonpayable",
      "type": "function"
    },
    {
      "inputs": [],
      "name": "ecoToken",
      "outputs": [
        {
          "internalType": "contract ECO",
          "name": "",
          "type": "address"
        }
      ],
      "stateMutability": "view",
      "type": "function"
    },
    {
      "inputs": [],
      "name": "ecoXToken",
      "outputs": [
        {
          "internalType": "contract ECOx",
          "name": "",
          "type": "address"
        }
      ],
      "stateMutability": "view",
      "type": "function"
    },
    {
      "inputs": [],
      "name": "implementation",
      "outputs": [
        {
          "internalType": "address",
          "name": "_impl",
          "type": "address"
        }
      ],
      "stateMutability": "view",
      "type": "function"
    },
    {
      "inputs": [
        {
          "internalType": "address",
          "name": "_self",
          "type": "address"
        }
      ],
      "name": "initialize",
      "outputs": [],
      "stateMutability": "nonpayable",
      "type": "function"
    },
    {
      "inputs": [],
      "name": "policy",
      "outputs": [
        {
          "internalType": "contract Policy",
          "name": "",
          "type": "address"
        }
      ],
      "stateMutability": "view",
      "type": "function"
    },
    {
      "inputs": [
        {
          "internalType": "address",
          "name": "_delegate",
          "type": "address"
        },
        {
          "internalType": "bytes",
          "name": "_data",
          "type": "bytes"
        }
      ],
      "name": "policyCommand",
      "outputs": [],
      "stateMutability": "nonpayable",
      "type": "function"
    },
    {
      "inputs": [],
      "name": "policyVotesImpl",
      "outputs": [
        {
          "internalType": "contract PolicyVotes",
          "name": "",
          "type": "address"
        }
      ],
      "stateMutability": "view",
      "type": "function"
    },
    {
      "inputs": [],
      "name": "proposalEnds",
      "outputs": [
        {
          "internalType": "uint256",
          "name": "",
          "type": "uint256"
        }
      ],
      "stateMutability": "view",
      "type": "function"
    },
    {
      "inputs": [],
      "name": "proposalSelected",
      "outputs": [
        {
          "internalType": "bool",
          "name": "",
          "type": "bool"
        }
      ],
      "stateMutability": "view",
      "type": "function"
    },
    {
      "inputs": [],
      "name": "proposalToConfigure",
      "outputs": [
        {
          "internalType": "contract Proposal",
          "name": "",
          "type": "address"
        }
      ],
      "stateMutability": "view",
      "type": "function"
    },
    {
      "inputs": [
        {
          "internalType": "contract Proposal",
          "name": "",
          "type": "address"
        }
      ],
      "name": "proposals",
      "outputs": [
        {
          "internalType": "address",
          "name": "proposer",
          "type": "address"
        },
        {
          "internalType": "contract Proposal",
          "name": "proposal",
          "type": "address"
        },
        {
          "internalType": "uint256",
          "name": "totalStake",
          "type": "uint256"
        }
      ],
      "stateMutability": "view",
      "type": "function"
    },
    {
      "inputs": [
        {
          "internalType": "contract Proposal",
          "name": "_prop",
          "type": "address"
        }
      ],
      "name": "refund",
      "outputs": [],
      "stateMutability": "nonpayable",
      "type": "function"
    },
    {
      "inputs": [
        {
          "internalType": "contract Proposal",
          "name": "_prop",
          "type": "address"
        }
      ],
      "name": "registerProposal",
      "outputs": [
        {
          "internalType": "uint256",
          "name": "",
          "type": "uint256"
        }
      ],
      "stateMutability": "nonpayable",
      "type": "function"
    },
    {
      "inputs": [
        {
          "internalType": "address",
          "name": "_addr",
          "type": "address"
        }
      ],
      "name": "setExpectedInterfaceSet",
      "outputs": [],
      "stateMutability": "nonpayable",
      "type": "function"
    },
    {
      "inputs": [
        {
          "internalType": "contract Proposal",
          "name": "",
          "type": "address"
        },
        {
          "internalType": "address",
          "name": "",
          "type": "address"
        }
      ],
      "name": "staked",
      "outputs": [
        {
          "internalType": "bool",
          "name": "",
          "type": "bool"
        }
      ],
      "stateMutability": "view",
      "type": "function"
    },
    {
      "inputs": [
        {
          "internalType": "contract Proposal",
          "name": "_prop",
          "type": "address"
        }
      ],
      "name": "support",
      "outputs": [],
      "stateMutability": "nonpayable",
      "type": "function"
    },
    {
      "inputs": [],
      "name": "totalProposals",
      "outputs": [
        {
          "internalType": "uint256",
          "name": "",
          "type": "uint256"
        }
      ],
      "stateMutability": "view",
      "type": "function"
    },
    {
      "inputs": [
        {
          "internalType": "uint256",
          "name": "_blockNumber",
          "type": "uint256"
        }
      ],
      "name": "totalVotingPower",
      "outputs": [
        {
          "internalType": "uint256",
          "name": "",
          "type": "uint256"
        }
      ],
      "stateMutability": "view",
      "type": "function"
    },
    {
      "inputs": [
        {
          "internalType": "contract Proposal",
          "name": "_prop",
          "type": "address"
        }
      ],
      "name": "unsupport",
      "outputs": [],
      "stateMutability": "nonpayable",
      "type": "function"
    },
    {
      "inputs": [
        {
          "internalType": "address",
          "name": "_who",
          "type": "address"
        },
        {
          "internalType": "uint256",
          "name": "_blockNumber",
          "type": "uint256"
        }
      ],
      "name": "votingPower",
      "outputs": [
        {
          "internalType": "uint256",
          "name": "",
          "type": "uint256"
        }
      ],
      "stateMutability": "view",
      "type": "function"
    }
  ],
  "bytecode": "0x60e06040523480156200001157600080fd5b5060405162003886380380620038868339810160408190526200003491620001a2565b83828282806200004430620000f8565b6001600160a01b03908116608052604051635df8122f60e01b81523060048201529082166024820152731820a4b7618bde71dce8cdc73aab6c95905fad2490635df8122f90604401600060405180830381600087803b158015620000a757600080fd5b505af1158015620000bc573d6000803e3d6000fd5b505050506001600160a01b0392831660a05250811660c052600880546001600160a01b0319169590911694909417909355506200020a92505050565b6001600160a01b0381166200011a600080516020620038668339815191525490565b6001600160a01b03161415620001765760405162461bcd60e51b815260206004820152601f60248201527f496d706c656d656e746174696f6e20616c7265616479206d61746368696e6700604482015260640160405180910390fd5b6000805160206200386683398151915255565b6001600160a01b03811681146200019f57600080fd5b50565b60008060008060808587031215620001b957600080fd5b8451620001c68162000189565b6020860151909450620001d98162000189565b6040860151909350620001ec8162000189565b6060860151909250620001ff8162000189565b939692955090935050565b60805160a05160c0516135d162000295600039600061033f01526000818161041001528181610c7f015281816117060152818161187b01528181611e58015261291101526000818161021501528181610573015281816107b401528181610be201528181610cbf015281816111040152818161123101528181612af80152612ce501526135d16000f3fe608060405234801561001057600080fd5b506004361061020b5760003560e01c80635c60da1b1161012a578063af12645a116100bd578063c6d3afc91161008c578063e660cc0811610071578063e660cc081461052d578063ec7f729c14610540578063fa89401a1461054857600080fd5b8063c6d3afc9146104ec578063dea645351461051a57600080fd5b8063af12645a14610496578063b87341b81461049f578063c3d2a0bc146104b4578063c4d66de8146104d957600080fd5b80638881a874116100f95780638881a8741461044a578063938351b81461045a578063984db2421461046d578063a78d80fc1461048d57600080fd5b80635c60da1b146103e4578063705d53041461040b578063762ec1e91461043257806381e538761461044257600080fd5b806334f1020e116101a25780633fc9d621116101715780633fc9d621146103a2578063536f9f42146103b55780635423b94d146103c857806357e871e7146103db57600080fd5b806334f1020e14610361578063376cf9bf1461036957806339634e0c146103725780633dc716f31461038557600080fd5b806325f4627f116101de57806325f4627f1461029f5780632b68b9c6146102b45780633341b445146102bc57806333800bac1461033a57600080fd5b80630505c8c91461021057806309d7f23b1461026157806309ed460714610276578063249cb3fa1461027e575b600080fd5b6102377f000000000000000000000000000000000000000000000000000000000000000081565b60405173ffffffffffffffffffffffffffffffffffffffff90911681526020015b60405180910390f35b61027461026f3660046131c0565b61055b565b005b61023761064f565b61029161028c3660046132a2565b6107b0565b604051908152602001610258565b6102a76108fc565b60405161025891906132d2565b610274610a3f565b6103076102ca366004613344565b600260208190526000918252604090912080546001820154919092015473ffffffffffffffffffffffffffffffffffffffff928316929091169083565b6040805173ffffffffffffffffffffffffffffffffffffffff948516815293909216602084015290820152606001610258565b6102377f000000000000000000000000000000000000000000000000000000000000000081565b610274610e45565b61029160065481565b610274610380366004613344565b611219565b6005546103929060ff1681565b6040519015158152602001610258565b6102746103b0366004613344565b611325565b6102916103c3366004613361565b6116bd565b6102916103d636600461337a565b61182a565b61029160075481565b7ff86c915dad5894faca0dfa067c58fdf4307406d255ed0a65db394f82b77f53d454610237565b6102377f000000000000000000000000000000000000000000000000000000000000000081565b610291682b5e3af16b1880000081565b610291606481565b610291683635c9adc5dea0000081565b610237610468366004613361565b6119be565b6008546102379073ffffffffffffffffffffffffffffffffffffffff1681565b61029160035481565b6102916104b081565b6104a76119f5565b60405161025891906133a6565b60055461023790610100900473ffffffffffffffffffffffffffffffffffffffff1681565b6102746104e7366004613344565b611a64565b6103926104fa366004613400565b600160209081526000928352604080842090915290825290205460ff1681565b610291610528366004613344565b611c15565b61027461053b366004613344565b612094565b610291601e81565b610274610556366004613344565b61266e565b3373ffffffffffffffffffffffffffffffffffffffff7f00000000000000000000000000000000000000000000000000000000000000001614610625576040517f08c379a000000000000000000000000000000000000000000000000000000000815260206004820152602e60248201527f4f6e6c792074686520706f6c69637920636f6e7472616374206d61792063616c60448201527f6c2074686973206d6574686f642e00000000000000000000000000000000000060648201526084015b60405180910390fd5b600080825160208401855af43d806000803e81801561064357816000f35b816000fd5b5050505050565b60003061067a7ff86c915dad5894faca0dfa067c58fdf4307406d255ed0a65db394f82b77f53d45490565b73ffffffffffffffffffffffffffffffffffffffff161461071d576040517f08c379a000000000000000000000000000000000000000000000000000000000815260206004820152602660248201527f54686973206d6574686f642063616e6e6f742062652063616c6c6564206f6e2060448201527f636c6f6e65730000000000000000000000000000000000000000000000000000606482015260840161061c565b600061072830612a52565b6040517fc4d66de800000000000000000000000000000000000000000000000000000000815230600482015290915073ffffffffffffffffffffffffffffffffffffffff82169063c4d66de890602401600060405180830381600087803b15801561079257600080fd5b505af11580156107a6573d6000803e3d6000fd5b5092949350505050565b60007f000000000000000000000000000000000000000000000000000000000000000073ffffffffffffffffffffffffffffffffffffffff168273ffffffffffffffffffffffffffffffffffffffff161480610826575060005473ffffffffffffffffffffffffffffffffffffffff8381169116145b6108b2576040517f08c379a000000000000000000000000000000000000000000000000000000000815260206004820152603c60248201527f4f6e6c792074686520706f6c696379206f7220696e7465726661636520636f6e60448201527f74726163742063616e207365742074686520696e746572666163652e00000000606482015260840161061c565b6040517f455243313832305f4143434550545f4d41474943000000000000000000000000602082015260340160405160208183030381529060405280519060200120905092915050565b6060600060035467ffffffffffffffff81111561091b5761091b613191565b60405190808252806020026020018201604052801561098457816020015b60408051606081018252600080825260208083018290529282015282527fffffffffffffffffffffffffffffffffffffffffffffffffffffffffffffffff9092019101816109395790505b50905060005b600354811015610a395760026000600483815481106109ab576109ab61342e565b600091825260208083209091015473ffffffffffffffffffffffffffffffffffffffff9081168452838201949094526040928301909120825160608101845281548516815260018201549094169184019190915260020154908201528251839083908110610a1b57610a1b61342e565b60200260200101819052508080610a319061348c565b91505061098a565b50919050565b60055460ff1680610a51575060065442115b610b04576040517f08c379a0000000000000000000000000000000000000000000000000000000008152602060048201526044602482018190527f546865206465737472756374206f7065726174696f6e2063616e206f6e6c7920908201527f626520706572666f726d6564207768656e2074686520706572696f642069732060648201527f6f76657200000000000000000000000000000000000000000000000000000000608482015260a40161061c565b60035415610b94576040517f08c379a000000000000000000000000000000000000000000000000000000000815260206004820152602660248201527f4d75737420726566756e6420616c6c206d69737365642070726f706f73616c7360448201527f2066697273740000000000000000000000000000000000000000000000000000606482015260840161061c565b6040517f3376dc020000000000000000000000000000000000000000000000000000000081527f331e3a11698d428947c09d6cfecc92b2ccbc4a527e4e795d850152babfaff37a60048201527f000000000000000000000000000000000000000000000000000000000000000073ffffffffffffffffffffffffffffffffffffffff1690633376dc0290602401600060405180830381600087803b158015610c3b57600080fd5b505af1158015610c4f573d6000803e3d6000fd5b50506040517f70a082310000000000000000000000000000000000000000000000000000000081523060048201527f000000000000000000000000000000000000000000000000000000000000000073ffffffffffffffffffffffffffffffffffffffff16925063a9059cbb91507f00000000000000000000000000000000000000000000000000000000000000009083906370a082319060240160206040518083038186803b158015610d0257600080fd5b505afa158015610d16573d6000803e3d6000fd5b505050506040513d601f19601f82011682018060405250810190610d3a91906134c5565b6040517fffffffff0000000000000000000000000000000000000000000000000000000060e085901b16815273ffffffffffffffffffffffffffffffffffffffff90921660048301526024820152604401602060405180830381600087803b158015610da557600080fd5b505af1158015610db9573d6000803e3d6000fd5b505050506040513d601f19601f82011682018060405250810190610ddd91906134de565b610e43576040517f08c379a000000000000000000000000000000000000000000000000000000000815260206004820152600f60248201527f5472616e73666572204661696c65640000000000000000000000000000000000604482015260640161061c565b565b60055460ff16610eb1576040517f08c379a000000000000000000000000000000000000000000000000000000000815260206004820152601d60248201527f6e6f2070726f706f73616c20686173206265656e2073656c6563746564000000604482015260640161061c565b600554610100900473ffffffffffffffffffffffffffffffffffffffff16610f35576040517f08c379a000000000000000000000000000000000000000000000000000000000815260206004820181905260248201527f766f74696e672068617320616c7265616479206265656e206465706c6f796564604482015260640161061c565b600580547fffffffffffffffffffffff0000000000000000000000000000000000000000ff8116909155600854604080517f09ed4607000000000000000000000000000000000000000000000000000000008152905173ffffffffffffffffffffffffffffffffffffffff61010090940484169360009316916309ed460791600480830192602092919082900301818787803b158015610fd457600080fd5b505af1158015610fe8573d6000803e3d6000fd5b505050506040513d601f19601f8201168201806040525081019061100c9190613500565b6007546040517f072caf6e00000000000000000000000000000000000000000000000000000000815273ffffffffffffffffffffffffffffffffffffffff8581166004830152602482019290925291925082169063072caf6e90604401600060405180830381600087803b15801561108357600080fd5b505af1158015611097573d6000803e3d6000fd5b50506040517f8791bf820000000000000000000000000000000000000000000000000000000081527f65474dbc3934a157baaaa893dea8c73453f0cc9c47a4f857047e8f0c8b54888f600482015273ffffffffffffffffffffffffffffffffffffffff84811660248301527f0000000000000000000000000000000000000000000000000000000000000000169250638791bf829150604401600060405180830381600087803b15801561114a57600080fd5b505af115801561115e573d6000803e3d6000fd5b505060405173ffffffffffffffffffffffffffffffffffffffff841692507f96d53cebc4306e6d2e0c0c31750cee34ce44cb92e542424cd7f43ddb3a5857049150600090a273ffffffffffffffffffffffffffffffffffffffff82166000908152600260208190526040822080547fffffffffffffffffffffffff0000000000000000000000000000000000000000908116825560018083018054909216909155910191909155600354611212919061351d565b6003555050565b3373ffffffffffffffffffffffffffffffffffffffff7f000000000000000000000000000000000000000000000000000000000000000016146112de576040517f08c379a000000000000000000000000000000000000000000000000000000000815260206004820152602e60248201527f4f6e6c792074686520706f6c69637920636f6e7472616374206d61792063616c60448201527f6c2074686973206d6574686f642e000000000000000000000000000000000000606482015260840161061c565b600080547fffffffffffffffffffffffff00000000000000000000000000000000000000001673ffffffffffffffffffffffffffffffffffffffff92909216919091179055565b3061134f7f331e3a11698d428947c09d6cfecc92b2ccbc4a527e4e795d850152babfaff37a612abb565b73ffffffffffffffffffffffffffffffffffffffff16146113f2576040517f08c379a000000000000000000000000000000000000000000000000000000000815260206004820152602260248201527f50726f706f73616c20636f6e7472616374206e6f206c6f6e676572206163746960448201527f7665000000000000000000000000000000000000000000000000000000000000606482015260840161061c565b60055460ff1615611484576040517f08c379a0000000000000000000000000000000000000000000000000000000008152602060048201526024808201527f412070726f706f73616c2068617320616c7265616479206265656e2073656c6560448201527f6374656400000000000000000000000000000000000000000000000000000000606482015260840161061c565b600654421061153b576040517f08c379a000000000000000000000000000000000000000000000000000000000815260206004820152604e60248201527f50726f706f73616c73206d6179206e6f206c6f6e67657220626520737570706f60448201527f7274656420626563617573652074686520726567697374726174696f6e20706560648201527f72696f642068617320656e646564000000000000000000000000000000000000608482015260a40161061c565b73ffffffffffffffffffffffffffffffffffffffff8082166000908152600260209081526040808320600180820154909516845293825280832033845290915290205460ff1661160d576040517f08c379a000000000000000000000000000000000000000000000000000000000815260206004820152602160248201527f596f752068617665206e6f74207374616b656420746869732070726f706f736160448201527f6c00000000000000000000000000000000000000000000000000000000000000606482015260840161061c565b600061161b3360075461182a565b905080826002015461162d919061351d565b600283015560018083015473ffffffffffffffffffffffffffffffffffffffff90811660009081526020928352604080822033808452945280822080547fffffffffffffffffffffffffffffffffffffffffffffffffffffffffffffff001690555191861692917f4c167103e052a33aeab9affe91d94a8f5f224fb1ba8d6d5af4e46e514a41b57e9190a3505050565b6040517f981b24d000000000000000000000000000000000000000000000000000000000815260048101829052600090819073ffffffffffffffffffffffffffffffffffffffff7f0000000000000000000000000000000000000000000000000000000000000000169063981b24d09060240160206040518083038186803b15801561174857600080fd5b505afa15801561175c573d6000803e3d6000fd5b505050506040513d601f19601f8201168201806040525081019061178091906134c5565b9050600061178c612b9c565b73ffffffffffffffffffffffffffffffffffffffff16635bb748ad856040518263ffffffff1660e01b81526004016117c691815260200190565b60206040518083038186803b1580156117de57600080fd5b505afa1580156117f2573d6000803e3d6000fd5b505050506040513d601f19601f8201168201806040525081019061181691906134c5565b90506118228183613534565b949350505050565b6040517f3a46b1a800000000000000000000000000000000000000000000000000000000815273ffffffffffffffffffffffffffffffffffffffff83811660048301526024820183905260009182917f00000000000000000000000000000000000000000000000000000000000000001690633a46b1a89060440160206040518083038186803b1580156118bd57600080fd5b505afa1580156118d1573d6000803e3d6000fd5b505050506040513d601f19601f820116820180604052508101906118f591906134c5565b90506000611901612b9c565b6040517fcd3fd38400000000000000000000000000000000000000000000000000000000815273ffffffffffffffffffffffffffffffffffffffff878116600483015260248201879052919091169063cd3fd3849060440160206040518083038186803b15801561197157600080fd5b505afa158015611985573d6000803e3d6000fd5b505050506040513d601f19601f820116820180604052508101906119a991906134c5565b90506119b58183613534565b95945050505050565b600481815481106119ce57600080fd5b60009182526020909120015473ffffffffffffffffffffffffffffffffffffffff16905081565b60606004805480602002602001604051908101604052809291908181526020018280548015611a5a57602002820191906000526020600020905b815473ffffffffffffffffffffffffffffffffffffffff168152600190910190602001808311611a2f575b5050505050905090565b6000611a8e7ff86c915dad5894faca0dfa067c58fdf4307406d255ed0a65db394f82b77f53d45490565b73ffffffffffffffffffffffffffffffffffffffff1614611b31576040517f08c379a000000000000000000000000000000000000000000000000000000000815260206004820152602860248201527f43616e206f6e6c792062652063616c6c656420647572696e6720696e6974696160448201527f6c697a6174696f6e000000000000000000000000000000000000000000000000606482015260840161061c565b611b3a81612bcc565b8073ffffffffffffffffffffffffffffffffffffffff1663984db2426040518163ffffffff1660e01b815260040160206040518083038186803b158015611b8057600080fd5b505afa158015611b94573d6000803e3d6000fd5b505050506040513d601f19601f82011682018060405250810190611bb89190613500565b600880547fffffffffffffffffffffffff00000000000000000000000000000000000000001673ffffffffffffffffffffffffffffffffffffffff929092169190911790556104b042611c0b9190613534565b6006555043600755565b600073ffffffffffffffffffffffffffffffffffffffff8216611c94576040517f08c379a000000000000000000000000000000000000000000000000000000000815260206004820152601f60248201527f5468652070726f706f73616c20616464726573732063616e2774206265203000604482015260640161061c565b60065442108015611ca8575060055460ff16155b611d5a576040517f08c379a000000000000000000000000000000000000000000000000000000000815260206004820152604f60248201527f50726f706f73616c73206d6179206e6f206c6f6e67657220626520726567697360448201527f746572656420626563617573652074686520726567697374726174696f6e207060648201527f6572696f642068617320656e6465640000000000000000000000000000000000608482015260a40161061c565b73ffffffffffffffffffffffffffffffffffffffff8083166000908152600260205260409020600181015490911615611e15576040517f08c379a000000000000000000000000000000000000000000000000000000000815260206004820152602660248201527f412070726f706f73616c206d6179206f6e6c792062652072656769737465726560448201527f64206f6e63650000000000000000000000000000000000000000000000000000606482015260840161061c565b6040517f23b872dd000000000000000000000000000000000000000000000000000000008152336004820152306024820152683635c9adc5dea0000060448201527f000000000000000000000000000000000000000000000000000000000000000073ffffffffffffffffffffffffffffffffffffffff16906323b872dd90606401602060405180830381600087803b158015611eb157600080fd5b505af1158015611ec5573d6000803e3d6000fd5b505050506040513d601f19601f82011682018060405250810190611ee991906134de565b611f9b576040517f08c379a000000000000000000000000000000000000000000000000000000000815260206004820152605d60248201527f54686520746f6b656e20636f7374206f6620726567697374726174696f6e206d60448201527f75737420626520617070726f76656420746f207472616e73666572207072696f60648201527f7220746f2063616c6c696e6720726567697374657250726f706f73616c000000608482015260a40161061c565b6001808201805473ffffffffffffffffffffffffffffffffffffffff86167fffffffffffffffffffffffff00000000000000000000000000000000000000009182168117909255835481163317845560048054808501825560009182527f8a35acfbc15ff81a39ae7d344fd709f28e8600b4aa8c65c6b64bfe7fe36bd19b018054909216909217905560038054909190612036908490613534565b909155505060405173ffffffffffffffffffffffffffffffffffffffff84169033907f98ada70a1cb506dc4591465e1ee9be3fd7a2b6c73ecf3b949009718c9a35151990600090a3600160035461208d919061351d565b9392505050565b306120be7f331e3a11698d428947c09d6cfecc92b2ccbc4a527e4e795d850152babfaff37a612abb565b73ffffffffffffffffffffffffffffffffffffffff1614612161576040517f08c379a000000000000000000000000000000000000000000000000000000000815260206004820152602260248201527f50726f706f73616c20636f6e7472616374206e6f206c6f6e676572206163746960448201527f7665000000000000000000000000000000000000000000000000000000000000606482015260840161061c565b60055460ff16156121f3576040517f08c379a0000000000000000000000000000000000000000000000000000000008152602060048201526024808201527f412070726f706f73616c2068617320616c7265616479206265656e2073656c6560448201527f6374656400000000000000000000000000000000000000000000000000000000606482015260840161061c565b60065442106122aa576040517f08c379a000000000000000000000000000000000000000000000000000000000815260206004820152604e60248201527f50726f706f73616c73206d6179206e6f206c6f6e67657220626520737570706f60448201527f7274656420626563617573652074686520726567697374726174696f6e20706560648201527f72696f642068617320656e646564000000000000000000000000000000000000608482015260a40161061c565b60006122b83360075461182a565b905060008111612370576040517f08c379a000000000000000000000000000000000000000000000000000000000815260206004820152604960248201527f496e206f7264657220746f20737570706f727420612070726f706f73616c207960448201527f6f75206d757374207374616b652061206e6f6e2d7a65726f20616d6f756e742060648201527f6f6620746f6b656e730000000000000000000000000000000000000000000000608482015260a40161061c565b73ffffffffffffffffffffffffffffffffffffffff8083166000908152600260205260409020600181015490911661242a576040517f08c379a000000000000000000000000000000000000000000000000000000000815260206004820152602860248201527f54686520737570706f727465642070726f706f73616c206973206e6f7420726560448201527f6769737465726564000000000000000000000000000000000000000000000000606482015260840161061c565b60018181015473ffffffffffffffffffffffffffffffffffffffff16600090815260209182526040808220338352909252205460ff16156124ed576040517f08c379a000000000000000000000000000000000000000000000000000000000815260206004820152603060248201527f596f75206d6179206e6f74207374616b6520696e20737570706f7274206f662060448201527f612070726f706f73616c20747769636500000000000000000000000000000000606482015260840161061c565b8181600201546124fd9190613534565b600282015560018082015473ffffffffffffffffffffffffffffffffffffffff1660009081526020828152604080832033808552925290912080547fffffffffffffffffffffffffffffffffffffffffffffffffffffffffffffff001690921790915561256990612d58565b60405173ffffffffffffffffffffffffffffffffffffffff84169033907fb3c205034c4cecc47ba710615ad80879be14b177df75ddbcce0237302ea3fa8090600090a360006125b96007546116bd565b905060646125c8601e8361354c565b6125d29190613589565b826002015411156126685760405173ffffffffffffffffffffffffffffffffffffffff8516907f2579eab5d400c5cc266359842639b59e8c3629d634c5e6d274fe8ad69128844a90600090a26005805473ffffffffffffffffffffffffffffffffffffffff8616610100027fffffffffffffffffffffff0000000000000000000000000000000000000000009091161760011790555b50505050565b60055460ff1680612680575060065442115b61270c576040517f08c379a000000000000000000000000000000000000000000000000000000000815260206004820152603760248201527f526566756e6473206d6179206e6f74206265206469737472696275746564207560448201527f6e74696c2074686520706572696f64206973206f766572000000000000000000606482015260840161061c565b73ffffffffffffffffffffffffffffffffffffffff8116612789576040517f08c379a000000000000000000000000000000000000000000000000000000000815260206004820152601f60248201527f5468652070726f706f73616c20616464726573732063616e2774206265203000604482015260640161061c565b73ffffffffffffffffffffffffffffffffffffffff8082166000818152600260205260409020600181015490921614612844576040517f08c379a000000000000000000000000000000000000000000000000000000000815260206004820152602a60248201527f5468652070726f76696465642070726f706f73616c206164647265737320697360448201527f206e6f742076616c696400000000000000000000000000000000000000000000606482015260840161061c565b805473ffffffffffffffffffffffffffffffffffffffff8381166000908152600260208190526040822080547fffffffffffffffffffffffff000000000000000000000000000000000000000090811682556001828101805490921690915591019190915560035491909216916128ba9161351d565b6003556040517fa9059cbb00000000000000000000000000000000000000000000000000000000815273ffffffffffffffffffffffffffffffffffffffff8281166004830152682b5e3af16b1880000060248301527f0000000000000000000000000000000000000000000000000000000000000000169063a9059cbb90604401602060405180830381600087803b15801561295557600080fd5b505af1158015612969573d6000803e3d6000fd5b505050506040513d601f19601f8201168201806040525081019061298d91906134de565b6129f3576040517f08c379a000000000000000000000000000000000000000000000000000000000815260206004820152600f60248201527f5472616e73666572204661696c65640000000000000000000000000000000000604482015260640161061c565b8273ffffffffffffffffffffffffffffffffffffffff168173ffffffffffffffffffffffffffffffffffffffff167fc52fd9b1554962318237b164e3ab32e9c2afbce879a97267fa3828763fbb142a60405160405180910390a3505050565b6000808260601b90506040517f3d602d80600a3d3981f3363d3d373d3d3d363d7300000000000000000000000081528160148201527f5af43d82803e903d91602b57fd5bf3000000000000000000000000000000000060288201526037816000f0949350505050565b6040517faabbb8ca00000000000000000000000000000000000000000000000000000000815273ffffffffffffffffffffffffffffffffffffffff7f000000000000000000000000000000000000000000000000000000000000000016600482015260248101829052600090731820a4b7618bde71dce8cdc73aab6c95905fad249063aabbb8ca9060440160206040518083038186803b158015612b5e57600080fd5b505afa158015612b72573d6000803e3d6000fd5b505050506040513d601f19601f82011682018060405250810190612b969190613500565b92915050565b6000612bc77fdf849ae066ce5ea7a01105f3db8539dd51779b4506741de6731ef32f7f4daa18612abb565b905090565b6000612bf67ff86c915dad5894faca0dfa067c58fdf4307406d255ed0a65db394f82b77f53d45490565b73ffffffffffffffffffffffffffffffffffffffff1614612c99576040517f08c379a000000000000000000000000000000000000000000000000000000000815260206004820152602860248201527f43616e206f6e6c792062652063616c6c656420647572696e6720696e6974696160448201527f6c697a6174696f6e000000000000000000000000000000000000000000000000606482015260840161061c565b612ca281612db6565b6040517f5df8122f00000000000000000000000000000000000000000000000000000000815230600482015273ffffffffffffffffffffffffffffffffffffffff7f0000000000000000000000000000000000000000000000000000000000000000166024820152731820a4b7618bde71dce8cdc73aab6c95905fad2490635df8122f906044015b600060405180830381600087803b158015612d4457600080fd5b505af1158015610648573d6000803e3d6000fd5b612d60612b9c565b6040517f92c1ff4400000000000000000000000000000000000000000000000000000000815273ffffffffffffffffffffffffffffffffffffffff838116600483015291909116906392c1ff4490602401612d2a565b6000612de07ff86c915dad5894faca0dfa067c58fdf4307406d255ed0a65db394f82b77f53d45490565b73ffffffffffffffffffffffffffffffffffffffff1614612e83576040517f08c379a000000000000000000000000000000000000000000000000000000000815260206004820152602860248201527f43616e206f6e6c792062652063616c6c656420647572696e6720696e6974696160448201527f6c697a6174696f6e000000000000000000000000000000000000000000000000606482015260840161061c565b612e8c81612e8f565b50565b6000612eb97ff86c915dad5894faca0dfa067c58fdf4307406d255ed0a65db394f82b77f53d45490565b73ffffffffffffffffffffffffffffffffffffffff1614612f5c576040517f08c379a000000000000000000000000000000000000000000000000000000000815260206004820152602860248201527f43616e206f6e6c792062652063616c6c656420647572696e6720696e6974696160448201527f6c697a6174696f6e000000000000000000000000000000000000000000000000606482015260840161061c565b60008173ffffffffffffffffffffffffffffffffffffffff16635c60da1b6040518163ffffffff1660e01b815260040160206040518083038186803b158015612fa457600080fd5b505afa158015612fb8573d6000803e3d6000fd5b505050506040513d601f19601f82011682018060405250810190612fdc9190613500565b905073ffffffffffffffffffffffffffffffffffffffff8116613081576040517f08c379a000000000000000000000000000000000000000000000000000000000815260206004820152602c60248201527f696e697469616c697a6174696f6e206661696c7572653a206e6f7468696e672060448201527f746f20696d706c656d656e740000000000000000000000000000000000000000606482015260840161061c565b61308a8161308e565b5050565b8073ffffffffffffffffffffffffffffffffffffffff166130cd7ff86c915dad5894faca0dfa067c58fdf4307406d255ed0a65db394f82b77f53d45490565b73ffffffffffffffffffffffffffffffffffffffff16141561314b576040517f08c379a000000000000000000000000000000000000000000000000000000000815260206004820152601f60248201527f496d706c656d656e746174696f6e20616c7265616479206d61746368696e6700604482015260640161061c565b7ff86c915dad5894faca0dfa067c58fdf4307406d255ed0a65db394f82b77f53d455565b73ffffffffffffffffffffffffffffffffffffffff81168114612e8c57600080fd5b7f4e487b7100000000000000000000000000000000000000000000000000000000600052604160045260246000fd5b600080604083850312156131d357600080fd5b82356131de8161316f565b9150602083013567ffffffffffffffff808211156131fb57600080fd5b818501915085601f83011261320f57600080fd5b81358181111561322157613221613191565b604051601f82017fffffffffffffffffffffffffffffffffffffffffffffffffffffffffffffffe0908116603f0116810190838211818310171561326757613267613191565b8160405282815288602084870101111561328057600080fd5b8260208601602083013760006020848301015280955050505050509250929050565b600080604083850312156132b557600080fd5b8235915060208301356132c78161316f565b809150509250929050565b602080825282518282018190526000919060409081850190868401855b82811015613337578151805173ffffffffffffffffffffffffffffffffffffffff908116865287820151168786015285015185850152606090930192908501906001016132ef565b5091979650505050505050565b60006020828403121561335657600080fd5b813561208d8161316f565b60006020828403121561337357600080fd5b5035919050565b6000806040838503121561338d57600080fd5b82356133988161316f565b946020939093013593505050565b6020808252825182820181905260009190848201906040850190845b818110156133f457835173ffffffffffffffffffffffffffffffffffffffff16835292840192918401916001016133c2565b50909695505050505050565b6000806040838503121561341357600080fd5b823561341e8161316f565b915060208301356132c78161316f565b7f4e487b7100000000000000000000000000000000000000000000000000000000600052603260045260246000fd5b7f4e487b7100000000000000000000000000000000000000000000000000000000600052601160045260246000fd5b60007fffffffffffffffffffffffffffffffffffffffffffffffffffffffffffffffff8214156134be576134be61345d565b5060010190565b6000602082840312156134d757600080fd5b5051919050565b6000602082840312156134f057600080fd5b8151801515811461208d57600080fd5b60006020828403121561351257600080fd5b815161208d8161316f565b60008282101561352f5761352f61345d565b500390565b600082198211156135475761354761345d565b500190565b6000817fffffffffffffffffffffffffffffffffffffffffffffffffffffffffffffffff04831182151516156135845761358461345d565b500290565b6000826135bf577f4e487b7100000000000000000000000000000000000000000000000000000000600052601260045260246000fd5b50049056fea164736f6c6343000809000af86c915dad5894faca0dfa067c58fdf4307406d255ed0a65db394f82b77f53d4",
  "linkReferences": {},
  "deployedLinkReferences": {}
}