{
  "_format": "hh-sol-artifact-1",
  "contractName": "PolicyVotes",
  "sourceName": "contracts/governance/community/PolicyVotes.sol",
  "abi": [
    {
      "inputs": [
        {
          "internalType": "contract Policy",
          "name": "_policy",
          "type": "address"
        },
        {
          "internalType": "contract ECO",
          "name": "_ecoAddr",
          "type": "address"
        },
        {
          "internalType": "contract ECOx",
          "name": "_ecoXAddr",
          "type": "address"
        }
      ],
      "stateMutability": "nonpayable",
      "type": "constructor"
    },
    {
      "anonymous": false,
      "inputs": [
        {
          "indexed": true,
          "internalType": "address",
          "name": "voter",
          "type": "address"
        },
        {
          "indexed": false,
          "internalType": "uint256",
          "name": "votesYes",
          "type": "uint256"
        },
        {
          "indexed": false,
          "internalType": "uint256",
          "name": "votesNo",
          "type": "uint256"
        }
      ],
      "name": "PolicySplitVoteCast",
      "type": "event"
    },
    {
      "anonymous": false,
      "inputs": [
        {
          "indexed": true,
          "internalType": "address",
          "name": "voter",
          "type": "address"
        },
        {
          "indexed": false,
          "internalType": "bool",
          "name": "vote",
          "type": "bool"
        },
        {
          "indexed": false,
          "internalType": "uint256",
          "name": "amount",
          "type": "uint256"
        }
      ],
      "name": "PolicyVoteCast",
      "type": "event"
    },
    {
      "anonymous": false,
      "inputs": [
        {
          "indexed": false,
          "internalType": "enum PolicyVotes.Result",
          "name": "result",
          "type": "uint8"
        }
      ],
      "name": "VoteCompleted",
      "type": "event"
    },
    {
      "inputs": [],
      "name": "ENACTION_DELAY",
      "outputs": [
        {
          "internalType": "uint256",
          "name": "",
          "type": "uint256"
        }
      ],
      "stateMutability": "view",
      "type": "function"
    },
    {
      "inputs": [],
      "name": "VOTE_TIME",
      "outputs": [
        {
          "internalType": "uint256",
          "name": "",
          "type": "uint256"
        }
      ],
      "stateMutability": "view",
      "type": "function"
    },
    {
      "inputs": [],
      "name": "blockNumber",
      "outputs": [
        {
          "internalType": "uint256",
          "name": "",
          "type": "uint256"
        }
      ],
      "stateMutability": "view",
      "type": "function"
    },
    {
      "inputs": [
        {
          "internalType": "bytes32",
          "name": "",
          "type": "bytes32"
        },
        {
          "internalType": "address",
          "name": "_addr",
          "type": "address"
        }
      ],
      "name": "canImplementInterfaceForAddress",
      "outputs": [
        {
          "internalType": "bytes32",
          "name": "",
          "type": "bytes32"
        }
      ],
      "stateMutability": "view",
      "type": "function"
    },
    {
      "inputs": [],
      "name": "clone",
      "outputs": [
        {
          "internalType": "address",
          "name": "",
          "type": "address"
        }
      ],
      "stateMutability": "nonpayable",
      "type": "function"
    },
    {
      "inputs": [
        {
          "internalType": "contract Proposal",
          "name": "_proposal",
          "type": "address"
        },
        {
          "internalType": "uint256",
          "name": "_cutoffBlockNumber",
          "type": "uint256"
        }
      ],
      "name": "configure",
      "outputs": [],
      "stateMutability": "nonpayable",
      "type": "function"
    },
    {
      "inputs": [],
      "name": "ecoToken",
      "outputs": [
        {
          "internalType": "contract ECO",
          "name": "",
          "type": "address"
        }
      ],
      "stateMutability": "view",
      "type": "function"
    },
    {
      "inputs": [],
      "name": "ecoXToken",
      "outputs": [
        {
          "internalType": "contract ECOx",
          "name": "",
          "type": "address"
        }
      ],
      "stateMutability": "view",
      "type": "function"
    },
    {
      "inputs": [],
      "name": "execute",
      "outputs": [],
      "stateMutability": "nonpayable",
      "type": "function"
    },
    {
      "inputs": [],
      "name": "implementation",
      "outputs": [
        {
          "internalType": "address",
          "name": "_impl",
          "type": "address"
        }
      ],
      "stateMutability": "view",
      "type": "function"
    },
    {
      "inputs": [
        {
          "internalType": "address",
          "name": "_self",
          "type": "address"
        }
      ],
      "name": "initialize",
      "outputs": [],
      "stateMutability": "nonpayable",
      "type": "function"
    },
    {
      "inputs": [],
      "name": "policy",
      "outputs": [
        {
          "internalType": "contract Policy",
          "name": "",
          "type": "address"
        }
      ],
      "stateMutability": "view",
      "type": "function"
    },
    {
      "inputs": [
        {
          "internalType": "address",
          "name": "_delegate",
          "type": "address"
        },
        {
          "internalType": "bytes",
          "name": "_data",
          "type": "bytes"
        }
      ],
      "name": "policyCommand",
      "outputs": [],
      "stateMutability": "nonpayable",
      "type": "function"
    },
    {
      "inputs": [],
      "name": "proposal",
      "outputs": [
        {
          "internalType": "contract Proposal",
          "name": "",
          "type": "address"
        }
      ],
      "stateMutability": "view",
      "type": "function"
    },
    {
      "inputs": [
        {
          "internalType": "address",
          "name": "_addr",
          "type": "address"
        }
      ],
      "name": "setExpectedInterfaceSet",
      "outputs": [],
      "stateMutability": "nonpayable",
      "type": "function"
    },
    {
      "inputs": [
        {
          "internalType": "address",
          "name": "",
          "type": "address"
        }
      ],
      "name": "stake",
      "outputs": [
        {
          "internalType": "uint256",
          "name": "",
          "type": "uint256"
        }
      ],
      "stateMutability": "view",
      "type": "function"
    },
    {
      "inputs": [],
      "name": "totalStake",
      "outputs": [
        {
          "internalType": "uint256",
          "name": "",
          "type": "uint256"
        }
      ],
      "stateMutability": "view",
      "type": "function"
    },
    {
      "inputs": [
        {
          "internalType": "uint256",
          "name": "_blockNumber",
          "type": "uint256"
        }
      ],
      "name": "totalVotingPower",
      "outputs": [
        {
          "internalType": "uint256",
          "name": "",
          "type": "uint256"
        }
      ],
      "stateMutability": "view",
      "type": "function"
    },
    {
      "inputs": [
        {
          "internalType": "bool",
          "name": "_vote",
          "type": "bool"
        }
      ],
      "name": "vote",
      "outputs": [],
      "stateMutability": "nonpayable",
      "type": "function"
    },
    {
      "inputs": [],
      "name": "voteEnds",
      "outputs": [
        {
          "internalType": "uint256",
          "name": "",
          "type": "uint256"
        }
      ],
      "stateMutability": "view",
      "type": "function"
    },
    {
      "inputs": [
        {
          "internalType": "uint256",
          "name": "_votesYes",
          "type": "uint256"
        },
        {
          "internalType": "uint256",
          "name": "_votesNo",
          "type": "uint256"
        }
      ],
      "name": "voteSplit",
      "outputs": [],
      "stateMutability": "nonpayable",
      "type": "function"
    },
    {
      "inputs": [
        {
          "internalType": "address",
          "name": "_who",
          "type": "address"
        },
        {
          "internalType": "uint256",
          "name": "_blockNumber",
          "type": "uint256"
        }
      ],
      "name": "votingPower",
      "outputs": [
        {
          "internalType": "uint256",
          "name": "",
          "type": "uint256"
        }
      ],
      "stateMutability": "view",
      "type": "function"
    },
    {
      "inputs": [],
      "name": "yesStake",
      "outputs": [
        {
          "internalType": "uint256",
          "name": "",
          "type": "uint256"
        }
      ],
      "stateMutability": "view",
      "type": "function"
    },
    {
      "inputs": [
        {
          "internalType": "address",
          "name": "",
          "type": "address"
        }
      ],
      "name": "yesVotes",
      "outputs": [
        {
          "internalType": "uint256",
          "name": "",
          "type": "uint256"
        }
      ],
      "stateMutability": "view",
      "type": "function"
    }
  ],
  "bytecode": "0x60e06040523480156200001157600080fd5b50604051620024d3380380620024d3833981016040819052620000349162000188565b82828282806200004430620000de565b6001600160a01b03908116608052604051635df8122f60e01b81523060048201529082166024820152731820a4b7618bde71dce8cdc73aab6c95905fad2490635df8122f90604401600060405180830381600087803b158015620000a757600080fd5b505af1158015620000bc573d6000803e3d6000fd5b5050506001600160a01b0393841660a05250501660c05250620001dc92505050565b6001600160a01b03811662000100600080516020620024b38339815191525490565b6001600160a01b031614156200015c5760405162461bcd60e51b815260206004820152601f60248201527f496d706c656d656e746174696f6e20616c7265616479206d61746368696e6700604482015260640160405180910390fd5b600080516020620024b383398151915255565b6001600160a01b03811681146200018557600080fd5b50565b6000806000606084860312156200019e57600080fd5b8351620001ab816200016f565b6020850151909350620001be816200016f565b6040850151909250620001d1816200016f565b809150509250925092565b60805160a05160c05161225a62000259600039600061027501526000818161032901528181610c6501528181610dda01526112ae0152600081816101a2015281816104c901528181610705015281816108650152818161112901528181611211015281816112ee015281816119500152611b0d015261225a6000f3fe608060405234801561001057600080fd5b50600436106101985760003560e01c8063536f9f42116100e3578063753ec1031161008c578063c4d66de811610066578063c4d66de81461037d578063ce32de2b14610390578063d40d172d146103a357600080fd5b8063753ec1031461034b57806385defaf41461036b5780638b0e9f3f1461037457600080fd5b80635c60da1b116100bd5780635c60da1b146102f5578063614619541461031c578063705d53041461032457600080fd5b8063536f9f42146102c65780635423b94d146102d957806357e871e7146102ec57600080fd5b806328ea6dda1161014557806339634e0c1161011f57806339634e0c14610297578063486a27db146102aa5780634b9f5c98146102b357600080fd5b806328ea6dda1461025f578063328a1da91461026857806333800bac1461027057600080fd5b806309ed46071161017657806309ed460714610216578063249cb3fa1461021e578063264762041461023f57600080fd5b80630505c8c91461019d578063072caf6e146101ee57806309d7f23b14610203575b600080fd5b6101c47f000000000000000000000000000000000000000000000000000000000000000081565b60405173ffffffffffffffffffffffffffffffffffffffff90911681526020015b60405180910390f35b6102016101fc366004611f29565b6103c3565b005b610201610211366004611f84565b6104b1565b6101c46105a0565b61023161022c366004612066565b610701565b6040519081526020016101e5565b61023161024d366004612096565b60026020526000908152604090205481565b61023160055481565b610231607881565b6101c47f000000000000000000000000000000000000000000000000000000000000000081565b6102016102a5366004612096565b61084d565b61023161016881565b6102016102c13660046120c8565b610959565b6102316102d43660046120e5565b610c1c565b6102316102e7366004611f29565b610d89565b61023160075481565b7ff86c915dad5894faca0dfa067c58fdf4307406d255ed0a65db394f82b77f53d4546101c4565b610201610f1d565b6101c47f000000000000000000000000000000000000000000000000000000000000000081565b6001546101c49073ffffffffffffffffffffffffffffffffffffffff1681565b61023160065481565b61023160045481565b61020161038b366004612096565b611478565b61020161039e3660046120fe565b611551565b6102316103b1366004612096565b60036020526000908152604090205481565b60065415610458576040517f08c379a000000000000000000000000000000000000000000000000000000000815260206004820152602960248201527f5468697320696e7374616e63652068617320616c7265616479206265656e206360448201527f6f6e66696775726564000000000000000000000000000000000000000000000060648201526084015b60405180910390fd5b6104646101684261214f565b600655600755600180547fffffffffffffffffffffffff00000000000000000000000000000000000000001673ffffffffffffffffffffffffffffffffffffffff92909216919091179055565b3373ffffffffffffffffffffffffffffffffffffffff7f00000000000000000000000000000000000000000000000000000000000000001614610576576040517f08c379a000000000000000000000000000000000000000000000000000000000815260206004820152602e60248201527f4f6e6c792074686520706f6c69637920636f6e7472616374206d61792063616c60448201527f6c2074686973206d6574686f642e000000000000000000000000000000000000606482015260840161044f565b600080825160208401855af43d806000803e81801561059457816000f35b816000fd5b5050505050565b6000306105cb7ff86c915dad5894faca0dfa067c58fdf4307406d255ed0a65db394f82b77f53d45490565b73ffffffffffffffffffffffffffffffffffffffff161461066e576040517f08c379a000000000000000000000000000000000000000000000000000000000815260206004820152602660248201527f54686973206d6574686f642063616e6e6f742062652063616c6c6564206f6e2060448201527f636c6f6e65730000000000000000000000000000000000000000000000000000606482015260840161044f565b6000610679306117f2565b6040517fc4d66de800000000000000000000000000000000000000000000000000000000815230600482015290915073ffffffffffffffffffffffffffffffffffffffff82169063c4d66de890602401600060405180830381600087803b1580156106e357600080fd5b505af11580156106f7573d6000803e3d6000fd5b5092949350505050565b60007f000000000000000000000000000000000000000000000000000000000000000073ffffffffffffffffffffffffffffffffffffffff168273ffffffffffffffffffffffffffffffffffffffff161480610777575060005473ffffffffffffffffffffffffffffffffffffffff8381169116145b610803576040517f08c379a000000000000000000000000000000000000000000000000000000000815260206004820152603c60248201527f4f6e6c792074686520706f6c696379206f7220696e7465726661636520636f6e60448201527f74726163742063616e207365742074686520696e746572666163652e00000000606482015260840161044f565b6040517f455243313832305f4143434550545f4d41474943000000000000000000000000602082015260340160405160208183030381529060405280519060200120905092915050565b3373ffffffffffffffffffffffffffffffffffffffff7f00000000000000000000000000000000000000000000000000000000000000001614610912576040517f08c379a000000000000000000000000000000000000000000000000000000000815260206004820152602e60248201527f4f6e6c792074686520706f6c69637920636f6e7472616374206d61792063616c60448201527f6c2074686973206d6574686f642e000000000000000000000000000000000000606482015260840161044f565b600080547fffffffffffffffffffffffff00000000000000000000000000000000000000001673ffffffffffffffffffffffffffffffffffffffff92909216919091179055565b60065442106109ea576040517f08c379a000000000000000000000000000000000000000000000000000000000815260206004820152603360248201527f566f7465732063616e206f6e6c79206265207265636f7264656420647572696e60448201527f672074686520766f74696e6720706572696f6400000000000000000000000000606482015260840161044f565b60006109f833600754610d89565b905060008111610a8a576040517f08c379a000000000000000000000000000000000000000000000000000000000815260206004820152603560248201527f566f74657273206d75737420686176652068656c6420746f6b656e732062656660448201527f6f7265207468697320766f74696e67206379636c650000000000000000000000606482015260840161044f565b336000908152600260209081526040808320546003909252909120548015158215610b7657841515811515141580610ac25750818314155b610b4e576040517f08c379a000000000000000000000000000000000000000000000000000000000815260206004820152602360248201527f596f757220766f74652068617320616c7265616479206265656e207265636f7260448201527f6465640000000000000000000000000000000000000000000000000000000000606482015260840161044f565b8015610b765781600554610b629190612167565b600555336000908152600360205260408120555b8415610ba05783600554610b8a919061214f565b6005553360009081526003602052604090208490555b3360009081526002602052604090208490556004548390610bc290869061214f565b610bcc9190612167565b600455610bd83361185b565b6040805186151581526020810186905233917f83d67e3bded439819290451fe54e3296e9bc906b45038ef8ba8ae12df5050f98910160405180910390a25050505050565b6040517f981b24d000000000000000000000000000000000000000000000000000000000815260048101829052600090819073ffffffffffffffffffffffffffffffffffffffff7f0000000000000000000000000000000000000000000000000000000000000000169063981b24d09060240160206040518083038186803b158015610ca757600080fd5b505afa158015610cbb573d6000803e3d6000fd5b505050506040513d601f19601f82011682018060405250810190610cdf919061217e565b90506000610ceb6118e3565b73ffffffffffffffffffffffffffffffffffffffff16635bb748ad856040518263ffffffff1660e01b8152600401610d2591815260200190565b60206040518083038186803b158015610d3d57600080fd5b505afa158015610d51573d6000803e3d6000fd5b505050506040513d601f19601f82011682018060405250810190610d75919061217e565b9050610d81818361214f565b949350505050565b6040517f3a46b1a800000000000000000000000000000000000000000000000000000000815273ffffffffffffffffffffffffffffffffffffffff83811660048301526024820183905260009182917f00000000000000000000000000000000000000000000000000000000000000001690633a46b1a89060440160206040518083038186803b158015610e1c57600080fd5b505afa158015610e30573d6000803e3d6000fd5b505050506040513d601f19601f82011682018060405250810190610e54919061217e565b90506000610e606118e3565b6040517fcd3fd38400000000000000000000000000000000000000000000000000000000815273ffffffffffffffffffffffffffffffffffffffff878116600483015260248201879052919091169063cd3fd3849060440160206040518083038186803b158015610ed057600080fd5b505afa158015610ee4573d6000803e3d6000fd5b505050506040513d601f19601f82011682018060405250810190610f08919061217e565b9050610f14818361214f565b95945050505050565b60006002600454610f2e9190612197565b90506000610f3d600754610c1c565b9050426000610f4d600284612197565b6005541015610ff3576078600654610f65919061214f565b8211610ff3576040517f08c379a000000000000000000000000000000000000000000000000000000000815260206004820152602c60248201527f4d616a6f7269747920737570706f727420726571756972656420666f7220656160448201527f726c7920656e616374696f6e0000000000000000000000000000000000000000606482015260840161044f565b3061101d7f65474dbc3934a157baaaa893dea8c73453f0cc9c47a4f857047e8f0c8b54888f611913565b73ffffffffffffffffffffffffffffffffffffffff16146110c0576040517f08c379a000000000000000000000000000000000000000000000000000000000815260206004820152603b60248201527f5468697320636f6e7472616374206e6f206c6f6e67657220686173206175746860448201527f6f72697a6174696f6e20746f20656e6163742074686520766f74650000000000606482015260840161044f565b6004546110cf5750600261118c565b8360055410156110e15750600161118c565b6001546040517f61e0adca00000000000000000000000000000000000000000000000000000000815273ffffffffffffffffffffffffffffffffffffffff91821660048201527f0000000000000000000000000000000000000000000000000000000000000000909116906361e0adca90602401600060405180830381600087803b15801561116f57600080fd5b505af1158015611183573d6000803e3d6000fd5b50505050600090505b7fa83c75fdbf6911ff21d2ef7b04f04c9a1698044e31b381d4ad4dd9fd93c336de816040516111bb91906121d2565b60405180910390a16040517f3376dc020000000000000000000000000000000000000000000000000000000081527f65474dbc3934a157baaaa893dea8c73453f0cc9c47a4f857047e8f0c8b54888f60048201527f000000000000000000000000000000000000000000000000000000000000000073ffffffffffffffffffffffffffffffffffffffff1690633376dc0290602401600060405180830381600087803b15801561126a57600080fd5b505af115801561127e573d6000803e3d6000fd5b50506040517f70a082310000000000000000000000000000000000000000000000000000000081523060048201527f000000000000000000000000000000000000000000000000000000000000000073ffffffffffffffffffffffffffffffffffffffff16925063a9059cbb91507f00000000000000000000000000000000000000000000000000000000000000009083906370a082319060240160206040518083038186803b15801561133157600080fd5b505afa158015611345573d6000803e3d6000fd5b505050506040513d601f19601f82011682018060405250810190611369919061217e565b6040517fffffffff0000000000000000000000000000000000000000000000000000000060e085901b16815273ffffffffffffffffffffffffffffffffffffffff90921660048301526024820152604401602060405180830381600087803b1580156113d457600080fd5b505af11580156113e8573d6000803e3d6000fd5b505050506040513d601f19601f8201168201806040525081019061140c9190612213565b611472576040517f08c379a000000000000000000000000000000000000000000000000000000000815260206004820152600f60248201527f5472616e73666572204661696c65640000000000000000000000000000000000604482015260640161044f565b50505050565b60006114a27ff86c915dad5894faca0dfa067c58fdf4307406d255ed0a65db394f82b77f53d45490565b73ffffffffffffffffffffffffffffffffffffffff1614611545576040517f08c379a000000000000000000000000000000000000000000000000000000000815260206004820152602860248201527f43616e206f6e6c792062652063616c6c656420647572696e6720696e6974696160448201527f6c697a6174696f6e000000000000000000000000000000000000000000000000606482015260840161044f565b61154e816119f4565b50565b60065442106115e2576040517f08c379a000000000000000000000000000000000000000000000000000000000815260206004820152603360248201527f566f7465732063616e206f6e6c79206265207265636f7264656420647572696e60448201527f672074686520766f74696e6720706572696f6400000000000000000000000000606482015260840161044f565b60006115f033600754610d89565b905060008111611682576040517f08c379a000000000000000000000000000000000000000000000000000000000815260206004820152603560248201527f566f74657273206d75737420686176652068656c6420746f6b656e732062656660448201527f6f7265207468697320766f74696e67206379636c650000000000000000000000606482015260840161044f565b600061168e838561214f565b905080821015611720576040517f08c379a000000000000000000000000000000000000000000000000000000000815260206004820152603760248201527f596f757220766f74696e6720706f776572206973206c657373207468616e207360448201527f75626d697474656420796573202b206e6f20766f746573000000000000000000606482015260840161044f565b33600090815260026020908152604080832054600390925290912054801561175457806005546117509190612167565b6005555b33600090815260036020526040902086905560055461177490879061214f565b600555336000908152600260205260409020839055600454829061179990859061214f565b6117a39190612167565b6004556117af3361185b565b604080518781526020810187905233917fc28851797488c206008adc97915df5e42f45424300d2823e52f6e4bef368c1b8910160405180910390a2505050505050565b6000808260601b90506040517f3d602d80600a3d3981f3363d3d373d3d3d363d7300000000000000000000000081528160148201527f5af43d82803e903d91602b57fd5bf3000000000000000000000000000000000060288201526037816000f0949350505050565b6118636118e3565b6040517f92c1ff4400000000000000000000000000000000000000000000000000000000815273ffffffffffffffffffffffffffffffffffffffff838116600483015291909116906392c1ff44906024015b600060405180830381600087803b1580156118cf57600080fd5b505af1158015610599573d6000803e3d6000fd5b600061190e7fdf849ae066ce5ea7a01105f3db8539dd51779b4506741de6731ef32f7f4daa18611913565b905090565b6040517faabbb8ca00000000000000000000000000000000000000000000000000000000815273ffffffffffffffffffffffffffffffffffffffff7f000000000000000000000000000000000000000000000000000000000000000016600482015260248101829052600090731820a4b7618bde71dce8cdc73aab6c95905fad249063aabbb8ca9060440160206040518083038186803b1580156119b657600080fd5b505afa1580156119ca573d6000803e3d6000fd5b505050506040513d601f19601f820116820180604052508101906119ee9190612230565b92915050565b6000611a1e7ff86c915dad5894faca0dfa067c58fdf4307406d255ed0a65db394f82b77f53d45490565b73ffffffffffffffffffffffffffffffffffffffff1614611ac1576040517f08c379a000000000000000000000000000000000000000000000000000000000815260206004820152602860248201527f43616e206f6e6c792062652063616c6c656420647572696e6720696e6974696160448201527f6c697a6174696f6e000000000000000000000000000000000000000000000000606482015260840161044f565b611aca81611b56565b6040517f5df8122f00000000000000000000000000000000000000000000000000000000815230600482015273ffffffffffffffffffffffffffffffffffffffff7f0000000000000000000000000000000000000000000000000000000000000000166024820152731820a4b7618bde71dce8cdc73aab6c95905fad2490635df8122f906044016118b5565b6000611b807ff86c915dad5894faca0dfa067c58fdf4307406d255ed0a65db394f82b77f53d45490565b73ffffffffffffffffffffffffffffffffffffffff1614611c23576040517f08c379a000000000000000000000000000000000000000000000000000000000815260206004820152602860248201527f43616e206f6e6c792062652063616c6c656420647572696e6720696e6974696160448201527f6c697a6174696f6e000000000000000000000000000000000000000000000000606482015260840161044f565b61154e816000611c517ff86c915dad5894faca0dfa067c58fdf4307406d255ed0a65db394f82b77f53d45490565b73ffffffffffffffffffffffffffffffffffffffff1614611cf4576040517f08c379a000000000000000000000000000000000000000000000000000000000815260206004820152602860248201527f43616e206f6e6c792062652063616c6c656420647572696e6720696e6974696160448201527f6c697a6174696f6e000000000000000000000000000000000000000000000000606482015260840161044f565b60008173ffffffffffffffffffffffffffffffffffffffff16635c60da1b6040518163ffffffff1660e01b815260040160206040518083038186803b158015611d3c57600080fd5b505afa158015611d50573d6000803e3d6000fd5b505050506040513d601f19601f82011682018060405250810190611d749190612230565b905073ffffffffffffffffffffffffffffffffffffffff8116611e19576040517f08c379a000000000000000000000000000000000000000000000000000000000815260206004820152602c60248201527f696e697469616c697a6174696f6e206661696c7572653a206e6f7468696e672060448201527f746f20696d706c656d656e740000000000000000000000000000000000000000606482015260840161044f565b611e2281611e26565b5050565b8073ffffffffffffffffffffffffffffffffffffffff16611e657ff86c915dad5894faca0dfa067c58fdf4307406d255ed0a65db394f82b77f53d45490565b73ffffffffffffffffffffffffffffffffffffffff161415611ee3576040517f08c379a000000000000000000000000000000000000000000000000000000000815260206004820152601f60248201527f496d706c656d656e746174696f6e20616c7265616479206d61746368696e6700604482015260640161044f565b7ff86c915dad5894faca0dfa067c58fdf4307406d255ed0a65db394f82b77f53d455565b73ffffffffffffffffffffffffffffffffffffffff8116811461154e57600080fd5b60008060408385031215611f3c57600080fd5b8235611f4781611f07565b946020939093013593505050565b7f4e487b7100000000000000000000000000000000000000000000000000000000600052604160045260246000fd5b60008060408385031215611f9757600080fd5b8235611fa281611f07565b9150602083013567ffffffffffffffff80821115611fbf57600080fd5b818501915085601f830112611fd357600080fd5b813581811115611fe557611fe5611f55565b604051601f82017fffffffffffffffffffffffffffffffffffffffffffffffffffffffffffffffe0908116603f0116810190838211818310171561202b5761202b611f55565b8160405282815288602084870101111561204457600080fd5b8260208601602083013760006020848301015280955050505050509250929050565b6000806040838503121561207957600080fd5b82359150602083013561208b81611f07565b809150509250929050565b6000602082840312156120a857600080fd5b81356120b381611f07565b9392505050565b801515811461154e57600080fd5b6000602082840312156120da57600080fd5b81356120b3816120ba565b6000602082840312156120f757600080fd5b5035919050565b6000806040838503121561211157600080fd5b50508035926020909101359150565b7f4e487b7100000000000000000000000000000000000000000000000000000000600052601160045260246000fd5b6000821982111561216257612162612120565b500190565b60008282101561217957612179612120565b500390565b60006020828403121561219057600080fd5b5051919050565b6000826121cd577f4e487b7100000000000000000000000000000000000000000000000000000000600052601260045260246000fd5b500490565b602081016003831061220d577f4e487b7100000000000000000000000000000000000000000000000000000000600052602160045260246000fd5b91905290565b60006020828403121561222557600080fd5b81516120b3816120ba565b60006020828403121561224257600080fd5b81516120b381611f0756fea164736f6c6343000809000af86c915dad5894faca0dfa067c58fdf4307406d255ed0a65db394f82b77f53d4",
  "linkReferences": {},
  "deployedLinkReferences": {}
}