{
  "contractName": "Policy",
  "abi": [
    {
      "inputs": [],
      "name": "implementation",
      "outputs": [
        {
          "internalType": "address",
          "name": "_impl",
          "type": "address"
        }
      ],
      "stateMutability": "view",
      "type": "function"
    },
    {
      "inputs": [
        {
          "internalType": "uint256",
          "name": "",
          "type": "uint256"
        }
      ],
      "name": "setters",
      "outputs": [
        {
          "internalType": "bytes32",
          "name": "",
          "type": "bytes32"
        }
      ],
      "stateMutability": "view",
      "type": "function"
    },
    {
      "inputs": [
        {
          "internalType": "bytes32",
          "name": "_interfaceIdentifierHash",
          "type": "bytes32"
        }
      ],
      "name": "removeSelf",
      "outputs": [],
      "stateMutability": "nonpayable",
      "type": "function"
    },
    {
      "inputs": [
        {
          "internalType": "bytes32",
          "name": "_interfaceIdentifierHash",
          "type": "bytes32"
        }
      ],
      "name": "policyFor",
      "outputs": [
        {
          "internalType": "address",
          "name": "",
          "type": "address"
        }
      ],
      "stateMutability": "view",
      "type": "function"
    },
    {
      "inputs": [
        {
          "internalType": "bytes32",
          "name": "_key",
          "type": "bytes32"
        },
        {
          "internalType": "address",
          "name": "_implementer",
          "type": "address"
        }
      ],
      "name": "setPolicy",
      "outputs": [],
      "stateMutability": "nonpayable",
      "type": "function"
    },
    {
      "inputs": [
        {
          "internalType": "address",
          "name": "_delegate",
          "type": "address"
        }
      ],
      "name": "internalCommand",
      "outputs": [],
      "stateMutability": "nonpayable",
      "type": "function"
    },
    {
      "inputs": [
        {
          "internalType": "address",
          "name": "_self",
          "type": "address"
        }
      ],
      "name": "initialize",
      "outputs": [],
      "stateMutability": "nonpayable",
      "type": "function"
    }
  ],
  "bytecode": "0x608060405234801561001057600080fd5b5061001a3061001f565b6100ac565b6001600160a01b03811661003f600080516020610c458339815191525490565b6001600160a01b0316141561009a5760405162461bcd60e51b815260206004820152601f60248201527f496d706c656d656e746174696f6e20616c7265616479206d61746368696e6700604482015260640160405180910390fd5b600080516020610c4583398151915255565b610b8a806100bb6000396000f3fe608060405234801561001057600080fd5b506004361061007d5760003560e01c80638791bf821161005b5780638791bf82146100ea5780639c412e26146100fd5780639e34681c1461011e578063c4d66de81461013157600080fd5b80633376dc02146100825780635c60da1b1461009757806361e0adca146100d7575b600080fd5b610095610090366004610a3b565b610144565b005b7ff86c915dad5894faca0dfa067c58fdf4307406d255ed0a65db394f82b77f53d4545b6040516001600160a01b0390911681526020015b60405180910390f35b6100956100e5366004610a69565b61025a565b6100956100f8366004610a8d565b6104d7565b61011061010b366004610a3b565b6106c9565b6040519081526020016100ce565b6100ba61012c366004610a3b565b6106ea565b61009561013f366004610a69565b61077c565b60405163555ddc6560e11b815230600482015260248101829052600090731820a4b7618bde71dce8cdc73aab6c95905fad249063aabbb8ca9060440160206040518083038186803b15801561019857600080fd5b505afa1580156101ac573d6000803e3d6000fd5b505050506040513d601f19601f820116820180604052508101906101d09190610abd565b90506001600160a01b038116331415610256576040516329965a1d60e01b81523060048201526024810183905260006044820152731820a4b7618bde71dce8cdc73aab6c95905fad24906329965a1d90606401600060405180830381600087803b15801561023d57600080fd5b505af1158015610251573d6000803e3d6000fd5b505050505b5050565b6000805b60005481101561035957336001600160a01b0316731820a4b7618bde71dce8cdc73aab6c95905fad246001600160a01b031663aabbb8ca30600085815481106102a9576102a9610ada565b6000918252602090912001546040516001600160e01b031960e085901b1681526001600160a01b039092166004830152602482015260440160206040518083038186803b1580156102f957600080fd5b505afa15801561030d573d6000803e3d6000fd5b505050506040513d601f19601f820116820180604052508101906103319190610abd565b6001600160a01b031614156103495760019150610359565b61035281610af0565b905061025e565b50806103d25760405162461bcd60e51b815260206004820152603960248201527f4661696c656420746f2066696e6420616e20617070726f70726961746520706560448201527f726d697373696f6e20666f72207468697320616374696f6e2e0000000000000060648201526084015b60405180910390fd5b6040516001600160a01b0383166024820181905260009160440160408051601f198184030181529181526020820180517bffffffffffffffffffffffffffffffffffffffffffffffffffffffff1663d6466c7960e01b179052516104369190610b19565b600060405180830381855af49150503d8060008114610471576040519150601f19603f3d011682016040523d82523d6000602084013e610476565b606091505b50509050806104d25760405162461bcd60e51b815260206004820152602260248201527f436f6d6d616e64206661696c656420647572696e672064656c656761746563616044820152611b1b60f21b60648201526084016103c9565b505050565b6000805b6000548110156105d657336001600160a01b0316731820a4b7618bde71dce8cdc73aab6c95905fad246001600160a01b031663aabbb8ca306000858154811061052657610526610ada565b6000918252602090912001546040516001600160e01b031960e085901b1681526001600160a01b039092166004830152602482015260440160206040518083038186803b15801561057657600080fd5b505afa15801561058a573d6000803e3d6000fd5b505050506040513d601f19601f820116820180604052508101906105ae9190610abd565b6001600160a01b031614156105c657600191506105d6565b6105cf81610af0565b90506104db565b508061064a5760405162461bcd60e51b815260206004820152603960248201527f4661696c656420746f2066696e6420616e20617070726f70726961746520706560448201527f726d697373696f6e20666f72207468697320616374696f6e2e0000000000000060648201526084016103c9565b6040516329965a1d60e01b8152306004820152602481018490526001600160a01b0383166044820152731820a4b7618bde71dce8cdc73aab6c95905fad24906329965a1d90606401600060405180830381600087803b1580156106ac57600080fd5b505af11580156106c0573d6000803e3d6000fd5b50505050505050565b600081815481106106d957600080fd5b600091825260209091200154905081565b60405163555ddc6560e11b815230600482015260248101829052600090731820a4b7618bde71dce8cdc73aab6c95905fad249063aabbb8ca9060440160206040518083038186803b15801561073e57600080fd5b505afa158015610752573d6000803e3d6000fd5b505050506040513d601f19601f820116820180604052508101906107769190610abd565b92915050565b60006107a67ff86c915dad5894faca0dfa067c58fdf4307406d255ed0a65db394f82b77f53d45490565b6001600160a01b03161461080d5760405162461bcd60e51b815260206004820152602860248201527f43616e206f6e6c792062652063616c6c656420647572696e6720696e697469616044820152673634bd30ba34b7b760c11b60648201526084016103c9565b61081681610819565b50565b60006108437ff86c915dad5894faca0dfa067c58fdf4307406d255ed0a65db394f82b77f53d45490565b6001600160a01b0316146108aa5760405162461bcd60e51b815260206004820152602860248201527f43616e206f6e6c792062652063616c6c656420647572696e6720696e697469616044820152673634bd30ba34b7b760c11b60648201526084016103c9565b6000816001600160a01b0316635c60da1b6040518163ffffffff1660e01b815260040160206040518083038186803b1580156108e557600080fd5b505afa1580156108f9573d6000803e3d6000fd5b505050506040513d601f19601f8201168201806040525081019061091d9190610abd565b90506001600160a01b03811661098a5760405162461bcd60e51b815260206004820152602c60248201527f696e697469616c697a6174696f6e206661696c7572653a206e6f7468696e672060448201526b1d1bc81a5b5c1b195b595b9d60a21b60648201526084016103c9565b61025681806001600160a01b03166109c07ff86c915dad5894faca0dfa067c58fdf4307406d255ed0a65db394f82b77f53d45490565b6001600160a01b03161415610a175760405162461bcd60e51b815260206004820152601f60248201527f496d706c656d656e746174696f6e20616c7265616479206d61746368696e670060448201526064016103c9565b7ff86c915dad5894faca0dfa067c58fdf4307406d255ed0a65db394f82b77f53d455565b600060208284031215610a4d57600080fd5b5035919050565b6001600160a01b038116811461081657600080fd5b600060208284031215610a7b57600080fd5b8135610a8681610a54565b9392505050565b60008060408385031215610aa057600080fd5b823591506020830135610ab281610a54565b809150509250929050565b600060208284031215610acf57600080fd5b8151610a8681610a54565b634e487b7160e01b600052603260045260246000fd5b6000600019821415610b1257634e487b7160e01b600052601160045260246000fd5b5060010190565b6000825160005b81811015610b3a5760208186018101518583015201610b20565b81811115610b49576000828501525b50919091019291505056fea264697066735822122093fe2420f58394d7a8a8c0210fb23092d54c5e7c274cd355420061b729f1e27764736f6c63430008090033f86c915dad5894faca0dfa067c58fdf4307406d255ed0a65db394f82b77f53d4",
  "immutableReferences": {},
  "source": "// SPDX-License-Identifier: MIT\npragma solidity ^0.8.0;\n\nimport \"@openzeppelin/contracts/utils/introspection/IERC1820Registry.sol\";\nimport \"../proxy/ForwardTarget.sol\";\nimport \"./ERC1820Client.sol\";\n\n/** @title The policy contract that oversees other contracts\n *\n * Policy contracts provide a mechanism for building pluggable (after deploy)\n * governance systems for other contracts.\n */\ncontract Policy is ForwardTarget, ERC1820Client {\n    bytes32[] public setters;\n\n    modifier onlySetter() {\n        bool authed;\n\n        /*\n         * Amount of setters is predefined by ECO and is reasonable\n         * from gas consumption standpoint. Change to amount of setter\n         * Have to go through reviewed policy proposal framework\n         */\n        for (uint256 i = 0; i < setters.length; ++i) {\n            if (\n                ERC1820REGISTRY.getInterfaceImplementer(\n                    address(this),\n                    setters[i]\n                ) == msg.sender\n            ) {\n                authed = true;\n                break;\n            }\n        }\n\n        require(\n            authed,\n            \"Failed to find an appropriate permission for this action.\"\n        );\n\n        _;\n    }\n\n    /** Remove the specified role from the contract calling this function.\n     * This is for cleanup only, so if another contract has taken the\n     * role, this does nothing.\n     *\n     * @param _interfaceIdentifierHash The interface identifier to remove from\n     *                                 the registry.\n     */\n    function removeSelf(bytes32 _interfaceIdentifierHash) external {\n        address old = ERC1820REGISTRY.getInterfaceImplementer(\n            address(this),\n            _interfaceIdentifierHash\n        );\n\n        if (old == msg.sender) {\n            ERC1820REGISTRY.setInterfaceImplementer(\n                address(this),\n                _interfaceIdentifierHash,\n                address(0)\n            );\n        }\n    }\n\n    /** Find the policy contract for a particular identifier.\n     *\n     * @param _interfaceIdentifierHash The hash of the interface identifier\n     *                                 look up.\n     */\n    function policyFor(bytes32 _interfaceIdentifierHash)\n        public\n        view\n        returns (address)\n    {\n        return\n            ERC1820REGISTRY.getInterfaceImplementer(\n                address(this),\n                _interfaceIdentifierHash\n            );\n    }\n\n    /** Set the policy label for a contract\n     *\n     * @param _key The label to apply to the contract.\n     *\n     * @param _implementer The contract to assume the label.\n     */\n    function setPolicy(bytes32 _key, address _implementer) public onlySetter {\n        ERC1820REGISTRY.setInterfaceImplementer(\n            address(this),\n            _key,\n            _implementer\n        );\n    }\n\n    /** Enact the code of one of the governance contracts.\n     *\n     * @param _delegate The contract code to delegate execution to.\n     */\n    function internalCommand(address _delegate) public onlySetter {\n        // solhint-disable-next-line avoid-low-level-calls\n        (bool _success, ) = _delegate.delegatecall(\n            abi.encodeWithSignature(\"enacted(address)\", _delegate)\n        );\n        require(_success, \"Command failed during delegatecall\");\n    }\n\n    /** Initialize the contract (replaces constructor)\n     *\n     * Policy contracts are often the targets of proxies, and therefore need a\n     * mechanism to initialize internal state when adopted by a new proxy. This\n     * replaces the constructor.\n     *\n     * @param _self The address of the original contract deployment (as opposed\n     *              to the address of the proxy contract, which takes the place\n     *              of `this`).\n     */\n    function initialize(address _self)\n        public\n        virtual\n        override\n        onlyConstruction\n    {\n        super.initialize(_self);\n    }\n}\n",
  "sourcePath": "/Users/dirksmac/dev/eco/currency/contracts/policy/Policy.sol",
  "compiler": {
    "name": "solc",
    "version": "0.8.9+commit.e5eed63a.Emscripten.clang"
  },
  "schemaVersion": "3.4.3",
  "updatedAt": "2022-07-01T19:00:50.659Z",
  "devdoc": {
    "kind": "dev",
    "methods": {
      "initialize(address)": {
        "params": {
          "_self": "The address of the original contract deployment (as opposed              to the address of the proxy contract, which takes the place              of `this`)."
        }
      },
      "internalCommand(address)": {
        "params": {
          "_delegate": "The contract code to delegate execution to."
        }
      },
      "policyFor(bytes32)": {
        "params": {
          "_interfaceIdentifierHash": "The hash of the interface identifier                                 look up."
        }
      },
      "removeSelf(bytes32)": {
        "params": {
          "_interfaceIdentifierHash": "The interface identifier to remove from                                 the registry."
        }
      },
      "setPolicy(bytes32,address)": {
        "params": {
          "_implementer": "The contract to assume the label.",
          "_key": "The label to apply to the contract."
        }
      }
    },
    "title": "The policy contract that oversees other contracts Policy contracts provide a mechanism for building pluggable (after deploy) governance systems for other contracts.",
    "version": 1
  },
  "userdoc": {
    "kind": "user",
    "methods": {
      "implementation()": {
        "notice": "Get the address of the proxy target contract."
      },
      "initialize(address)": {
        "notice": "Initialize the contract (replaces constructor) Policy contracts are often the targets of proxies, and therefore need a mechanism to initialize internal state when adopted by a new proxy. This replaces the constructor."
      },
      "internalCommand(address)": {
        "notice": "Enact the code of one of the governance contracts."
      },
      "policyFor(bytes32)": {
        "notice": "Find the policy contract for a particular identifier."
      },
      "removeSelf(bytes32)": {
        "notice": "Remove the specified role from the contract calling this function. This is for cleanup only, so if another contract has taken the role, this does nothing."
      },
      "setPolicy(bytes32,address)": {
        "notice": "Set the policy label for a contract"
      }
    },
    "version": 1
  }
}