{
  "_format": "hh-sol-artifact-1",
  "contractName": "RandomInflation",
  "sourceName": "contracts/governance/monetary/RandomInflation.sol",
  "abi": [
    {
      "inputs": [
        {
          "internalType": "contract Policy",
          "name": "_policy",
          "type": "address"
        },
        {
          "internalType": "contract VDFVerifier",
          "name": "_vdfVerifierImpl",
          "type": "address"
        },
        {
          "internalType": "uint256",
          "name": "_randomDifficulty",
          "type": "uint256"
        },
        {
          "internalType": "contract InflationRootHashProposal",
          "name": "_inflationRootHashProposalImpl",
          "type": "address"
        },
        {
          "internalType": "contract ECO",
          "name": "_ecoAddr",
          "type": "address"
        }
      ],
      "stateMutability": "nonpayable",
      "type": "constructor"
    },
    {
      "anonymous": false,
      "inputs": [
        {
          "indexed": true,
          "internalType": "address",
          "name": "who",
          "type": "address"
        },
        {
          "indexed": false,
          "internalType": "uint256",
          "name": "sequence",
          "type": "uint256"
        }
      ],
      "name": "Claim",
      "type": "event"
    },
    {
      "anonymous": false,
      "inputs": [
        {
          "indexed": false,
          "internalType": "bytes32",
          "name": "seed",
          "type": "bytes32"
        }
      ],
      "name": "EntropySeedReveal",
      "type": "event"
    },
    {
      "anonymous": false,
      "inputs": [
        {
          "indexed": false,
          "internalType": "uint256",
          "name": "seed",
          "type": "uint256"
        }
      ],
      "name": "EntropyVDFSeedCommit",
      "type": "event"
    },
    {
      "anonymous": false,
      "inputs": [
        {
          "indexed": true,
          "internalType": "contract VDFVerifier",
          "name": "vdfVerifier",
          "type": "address"
        },
        {
          "indexed": true,
          "internalType": "contract InflationRootHashProposal",
          "name": "inflationRootHashProposal",
          "type": "address"
        },
        {
          "indexed": false,
          "internalType": "uint256",
          "name": "claimPeriodStarts",
          "type": "uint256"
        }
      ],
      "name": "InflationStart",
      "type": "event"
    },
    {
      "inputs": [],
      "name": "BITMAP_MAXIMUM",
      "outputs": [
        {
          "internalType": "uint256",
          "name": "",
          "type": "uint256"
        }
      ],
      "stateMutability": "view",
      "type": "function"
    },
    {
      "inputs": [],
      "name": "CLAIM_PERIOD",
      "outputs": [
        {
          "internalType": "uint256",
          "name": "",
          "type": "uint256"
        }
      ],
      "stateMutability": "view",
      "type": "function"
    },
    {
      "inputs": [],
      "name": "GENERATION_START",
      "outputs": [
        {
          "internalType": "uint256",
          "name": "",
          "type": "uint256"
        }
      ],
      "stateMutability": "view",
      "type": "function"
    },
    {
      "inputs": [],
      "name": "MILLER_RABIN_ROUNDS",
      "outputs": [
        {
          "internalType": "uint256",
          "name": "",
          "type": "uint256"
        }
      ],
      "stateMutability": "view",
      "type": "function"
    },
    {
      "inputs": [],
      "name": "MIN_GENERATION_DURATION",
      "outputs": [
        {
          "internalType": "uint256",
          "name": "",
          "type": "uint256"
        }
      ],
      "stateMutability": "view",
      "type": "function"
    },
    {
      "inputs": [],
      "name": "PRIME_BOUND",
      "outputs": [
        {
          "internalType": "uint256",
          "name": "",
          "type": "uint256"
        }
      ],
      "stateMutability": "view",
      "type": "function"
    },
    {
      "inputs": [],
      "name": "blockNumber",
      "outputs": [
        {
          "internalType": "uint256",
          "name": "",
          "type": "uint256"
        }
      ],
      "stateMutability": "view",
      "type": "function"
    },
    {
      "inputs": [
        {
          "internalType": "bytes32",
          "name": "",
          "type": "bytes32"
        },
        {
          "internalType": "address",
          "name": "_addr",
          "type": "address"
        }
      ],
      "name": "canImplementInterfaceForAddress",
      "outputs": [
        {
          "internalType": "bytes32",
          "name": "",
          "type": "bytes32"
        }
      ],
      "stateMutability": "view",
      "type": "function"
    },
    {
      "inputs": [
        {
          "internalType": "uint256",
          "name": "_sequence",
          "type": "uint256"
        },
        {
          "internalType": "bytes32[]",
          "name": "_proof",
          "type": "bytes32[]"
        },
        {
          "internalType": "uint256",
          "name": "_sum",
          "type": "uint256"
        },
        {
          "internalType": "uint256",
          "name": "_index",
          "type": "uint256"
        }
      ],
      "name": "claim",
      "outputs": [],
      "stateMutability": "nonpayable",
      "type": "function"
    },
    {
      "inputs": [
        {
          "internalType": "address",
          "name": "_who",
          "type": "address"
        },
        {
          "internalType": "uint256",
          "name": "_sequence",
          "type": "uint256"
        },
        {
          "internalType": "bytes32[]",
          "name": "_proof",
          "type": "bytes32[]"
        },
        {
          "internalType": "uint256",
          "name": "_sum",
          "type": "uint256"
        },
        {
          "internalType": "uint256",
          "name": "_index",
          "type": "uint256"
        }
      ],
      "name": "claimFor",
      "outputs": [],
      "stateMutability": "nonpayable",
      "type": "function"
    },
    {
      "inputs": [],
      "name": "claimPeriodStarts",
      "outputs": [
        {
          "internalType": "uint256",
          "name": "",
          "type": "uint256"
        }
      ],
      "stateMutability": "view",
      "type": "function"
    },
    {
      "inputs": [
        {
          "internalType": "uint256",
          "name": "",
          "type": "uint256"
        }
      ],
      "name": "claimed",
      "outputs": [
        {
          "internalType": "uint256",
          "name": "",
          "type": "uint256"
        }
      ],
      "stateMutability": "view",
      "type": "function"
    },
    {
      "inputs": [],
      "name": "clone",
      "outputs": [
        {
          "internalType": "address",
          "name": "",
          "type": "address"
        }
      ],
      "stateMutability": "nonpayable",
      "type": "function"
    },
    {
      "inputs": [
        {
          "internalType": "uint256",
          "name": "_primal",
          "type": "uint256"
        }
      ],
      "name": "commitEntropyVDFSeed",
      "outputs": [],
      "stateMutability": "nonpayable",
      "type": "function"
    },
    {
      "inputs": [],
      "name": "destruct",
      "outputs": [],
      "stateMutability": "nonpayable",
      "type": "function"
    },
    {
      "inputs": [],
      "name": "ecoToken",
      "outputs": [
        {
          "internalType": "contract ECO",
          "name": "",
          "type": "address"
        }
      ],
      "stateMutability": "view",
      "type": "function"
    },
    {
      "inputs": [],
      "name": "entropyVDFSeed",
      "outputs": [
        {
          "internalType": "uint256",
          "name": "",
          "type": "uint256"
        }
      ],
      "stateMutability": "view",
      "type": "function"
    },
    {
      "inputs": [],
      "name": "implementation",
      "outputs": [
        {
          "internalType": "address",
          "name": "_impl",
          "type": "address"
        }
      ],
      "stateMutability": "view",
      "type": "function"
    },
    {
      "inputs": [],
      "name": "inflationRootHashProposal",
      "outputs": [
        {
          "internalType": "contract InflationRootHashProposal",
          "name": "",
          "type": "address"
        }
      ],
      "stateMutability": "view",
      "type": "function"
    },
    {
      "inputs": [
        {
          "internalType": "address",
          "name": "_self",
          "type": "address"
        }
      ],
      "name": "initialize",
      "outputs": [],
      "stateMutability": "nonpayable",
      "type": "function"
    },
    {
      "inputs": [],
      "name": "numRecipients",
      "outputs": [
        {
          "internalType": "uint256",
          "name": "",
          "type": "uint256"
        }
      ],
      "stateMutability": "view",
      "type": "function"
    },
    {
      "inputs": [],
      "name": "policy",
      "outputs": [
        {
          "internalType": "contract Policy",
          "name": "",
          "type": "address"
        }
      ],
      "stateMutability": "view",
      "type": "function"
    },
    {
      "inputs": [
        {
          "internalType": "address",
          "name": "_delegate",
          "type": "address"
        },
        {
          "internalType": "bytes",
          "name": "_data",
          "type": "bytes"
        }
      ],
      "name": "policyCommand",
      "outputs": [],
      "stateMutability": "nonpayable",
      "type": "function"
    },
    {
      "inputs": [
        {
          "internalType": "uint256",
          "name": "",
          "type": "uint256"
        }
      ],
      "name": "primals",
      "outputs": [
        {
          "internalType": "uint256",
          "name": "",
          "type": "uint256"
        }
      ],
      "stateMutability": "view",
      "type": "function"
    },
    {
      "inputs": [],
      "name": "randomVDFDifficulty",
      "outputs": [
        {
          "internalType": "uint256",
          "name": "",
          "type": "uint256"
        }
      ],
      "stateMutability": "view",
      "type": "function"
    },
    {
      "inputs": [],
      "name": "reward",
      "outputs": [
        {
          "internalType": "uint256",
          "name": "",
          "type": "uint256"
        }
      ],
      "stateMutability": "view",
      "type": "function"
    },
    {
      "inputs": [],
      "name": "seed",
      "outputs": [
        {
          "internalType": "bytes32",
          "name": "",
          "type": "bytes32"
        }
      ],
      "stateMutability": "view",
      "type": "function"
    },
    {
      "inputs": [
        {
          "internalType": "address",
          "name": "_addr",
          "type": "address"
        }
      ],
      "name": "setExpectedInterfaceSet",
      "outputs": [],
      "stateMutability": "nonpayable",
      "type": "function"
    },
    {
      "inputs": [
        {
          "internalType": "uint256",
          "name": "_primal",
          "type": "uint256"
        }
      ],
      "name": "setPrimal",
      "outputs": [],
      "stateMutability": "nonpayable",
      "type": "function"
    },
    {
      "inputs": [
        {
          "internalType": "uint256",
          "name": "_numRecipients",
          "type": "uint256"
        },
        {
          "internalType": "uint256",
          "name": "_reward",
          "type": "uint256"
        }
      ],
      "name": "startInflation",
      "outputs": [],
      "stateMutability": "nonpayable",
      "type": "function"
    },
    {
      "inputs": [
        {
          "internalType": "bytes",
          "name": "_y",
          "type": "bytes"
        }
      ],
      "name": "submitEntropyVDF",
      "outputs": [],
      "stateMutability": "nonpayable",
      "type": "function"
    },
    {
      "inputs": [],
      "name": "unclaimedRewards",
      "outputs": [
        {
          "internalType": "uint256",
          "name": "",
          "type": "uint256"
        }
      ],
      "stateMutability": "view",
      "type": "function"
    },
    {
      "inputs": [],
      "name": "vdfVerifier",
      "outputs": [
        {
          "internalType": "contract VDFVerifier",
          "name": "",
          "type": "address"
        }
      ],
      "stateMutability": "view",
      "type": "function"
    }
  ],
  "bytecode": "0x60c06040523480156200001157600080fd5b506040516200331938038062003319833981016040819052620000349162000402565b848062000041306200035b565b6001600160a01b038116620000c35760405162461bcd60e51b815260206004820152603860248201527f556e7265636f76657261626c653a20646f206e6f74207365742074686520706f60448201527f6c69637920617320746865207a65726f2061646472657373000000000000000060648201526084015b60405180910390fd5b6001600160a01b0381166080819052604051635df8122f60e01b81523060048201526024810191909152731820a4b7618bde71dce8cdc73aab6c95905fad2490635df8122f90604401600060405180830381600087803b1580156200012757600080fd5b505af11580156200013c573d6000803e3d6000fd5b50505050506001600160a01b03851615159050620001c35760405162461bcd60e51b815260206004820152603360248201527f646f206e6f742073657420746865205f7664665665726966696572496d706c2060448201527f617320746865207a65726f2061646472657373000000000000000000000000006064820152608401620000ba565b60008311620002265760405162461bcd60e51b815260206004820152602860248201527f646f206e6f742073657420746865205f72616e646f6d446966666963756c747960448201526720746f207a65726f60c01b6064820152608401620000ba565b6001600160a01b038216620002ae5760405162461bcd60e51b815260206004820152604160248201527f646f206e6f742073657420746865205f696e666c6174696f6e526f6f7448617360448201527f6850726f706f73616c496d706c20617320746865207a65726f206164647265736064820152607360f81b608482015260a401620000ba565b6001600160a01b0381166200031a5760405162461bcd60e51b815260206004820152602b60248201527f646f206e6f742073657420746865205f65636f4164647220617320746865207a60448201526a65726f206164647265737360a81b6064820152608401620000ba565b600a80546001600160a01b03199081166001600160a01b0396871617909155600693909355600b8054909316918416919091179091551660a0525062000476565b6001600160a01b0381166200037d600080516020620032f98339815191525490565b6001600160a01b03161415620003d65760405162461bcd60e51b815260206004820152601f60248201527f496d706c656d656e746174696f6e20616c7265616479206d61746368696e67006044820152606401620000ba565b600080516020620032f983398151915255565b6001600160a01b0381168114620003ff57600080fd5b50565b600080600080600060a086880312156200041b57600080fd5b85516200042881620003e9565b60208701519095506200043b81620003e9565b6040870151606088015191955093506200045581620003e9565b60808701519092506200046881620003e9565b809150509295509295909350565b60805160a051612e1e620004db6000396000818161035301528181610a16015281816116380152818161182c01526120bf015260008181610215015281816105410152818161077d01528181610a5401528181610bf201526124c40152612e1e6000f3fe608060405234801561001057600080fd5b506004361061020b5760003560e01c80635cec23521161012a578063a7904485116100bd578063cfd519741161008c578063dbe7e3bd11610071578063dbe7e3bd14610445578063e53d5df414610465578063f85f91b41461047857600080fd5b8063cfd5197414610429578063d7f5938f1461043257600080fd5b8063a790448514610302578063a940c425146103d6578063b86631f6146103f6578063c4d66de81461041657600080fd5b80638981cbce116100f95780638981cbce146103875780638cb170561461039a57806391249b67146103a35780639d353d94146103b657600080fd5b80635cec23521461033b578063705d53041461034e5780637d94792a1461037557806383ef542b1461037e57600080fd5b8063228cb733116101a25780634450868e116101715780634450868e146102fa578063537299371461030257806357e871e71461030b5780635c60da1b1461031457600080fd5b8063228cb733146102c3578063249cb3fa146102cc5780632b68b9c6146102df57806339634e0c146102e757600080fd5b8063125f6325116101de578063125f63251461029157806314bf2744146102a8578063176bf33f146102b157806321241dfe146102ba57600080fd5b80630505c8c914610210578063078f76eb1461026157806309d7f23b1461027657806309ed460714610289575b600080fd5b6102377f000000000000000000000000000000000000000000000000000000000000000081565b60405173ffffffffffffffffffffffffffffffffffffffff90911681526020015b60405180910390f35b61027461026f3660046127ed565b610481565b005b6102746102843660046128a9565b610529565b610237610618565b61029a60075481565b604051908152602001610258565b61029a60065481565b61029a60045481565b61029a610d2081565b61029a60015481565b61029a6102da36600461296f565b610779565b6102746108a3565b6102746102f536600461299f565b610bda565b61029a601981565b61029a6103e881565b61029a60035481565b7ff86c915dad5894faca0dfa067c58fdf4307406d255ed0a65db394f82b77f53d454610237565b6102746103493660046129c3565b610ce6565b6102377f000000000000000000000000000000000000000000000000000000000000000081565b61029a60055481565b61029a61010081565b610274610395366004612a35565b610f6c565b61029a61069081565b6102746103b13660046127ed565b611968565b600a546102379073ffffffffffffffffffffffffffffffffffffffff1681565b61029a6103e43660046127ed565b600c6020526000908152604090205481565b600b546102379073ffffffffffffffffffffffffffffffffffffffff1681565b61027461042436600461299f565b611bbf565b61029a60025481565b610274610440366004612b09565b612011565b61029a6104533660046127ed565b60086020526000908152604090205481565b610274610473366004612b2b565b612300565b61029a60095481565b600061048e600143612be8565b40905080821180156104aa57506103e86104a88284612be8565b105b610515576040517f08c379a000000000000000000000000000000000000000000000000000000000815260206004820181905260248201527f737567676573746564207072696d65206973206f7574206f6620626f756e647360448201526064015b60405180910390fd5b506000908152600c60205260409020439055565b3373ffffffffffffffffffffffffffffffffffffffff7f000000000000000000000000000000000000000000000000000000000000000016146105ee576040517f08c379a000000000000000000000000000000000000000000000000000000000815260206004820152602d60248201527f4f6e6c792074686520706f6c69637920636f6e7472616374206d61792063616c60448201527f6c2074686973206d6574686f6400000000000000000000000000000000000000606482015260840161050c565b600080825160208401855af43d806000803e81801561060c57816000f35b816000fd5b5050505050565b6000306106437ff86c915dad5894faca0dfa067c58fdf4307406d255ed0a65db394f82b77f53d45490565b73ffffffffffffffffffffffffffffffffffffffff16146106e6576040517f08c379a000000000000000000000000000000000000000000000000000000000815260206004820152602660248201527f54686973206d6574686f642063616e6e6f742062652063616c6c6564206f6e2060448201527f636c6f6e65730000000000000000000000000000000000000000000000000000606482015260840161050c565b60006106f130612342565b6040517fc4d66de800000000000000000000000000000000000000000000000000000000815230600482015290915073ffffffffffffffffffffffffffffffffffffffff82169063c4d66de890602401600060405180830381600087803b15801561075b57600080fd5b505af115801561076f573d6000803e3d6000fd5b5092949350505050565b60007f000000000000000000000000000000000000000000000000000000000000000073ffffffffffffffffffffffffffffffffffffffff168273ffffffffffffffffffffffffffffffffffffffff1614806107ef575060005473ffffffffffffffffffffffffffffffffffffffff8381169116145b61087b576040517f08c379a000000000000000000000000000000000000000000000000000000000815260206004820152603b60248201527f4f6e6c792074686520706f6c696379206f7220696e7465726661636520636f6e60448201527f74726163742063616e207365742074686520696e746572666163650000000000606482015260840161050c565b507fa2ef4600d742022d532d4747cb3547474667d6f13804902513b2ec01c848f4b492915050565b6005541515806108c15750610d206007546108be9190612bff565b42115b61094d576040517f08c379a000000000000000000000000000000000000000000000000000000000815260206004820152603d60248201527f456e74726f7079206e6f74207365742c207761697420756e74696c20656e642060448201527f6f662066756c6c20636c61696d20706572696f6420746f2061626f7274000000606482015260840161050c565b600554158061095c5750600954155b6109e8576040517f08c379a000000000000000000000000000000000000000000000000000000000815260206004820152602d60248201527f416c6c2072657761726473206d75737420626520636c61696d6564207072696f60448201527f7220746f20646573747275637400000000000000000000000000000000000000606482015260840161050c565b6040517f70a082310000000000000000000000000000000000000000000000000000000081523060048201527f000000000000000000000000000000000000000000000000000000000000000073ffffffffffffffffffffffffffffffffffffffff169063a9059cbb907f00000000000000000000000000000000000000000000000000000000000000009083906370a082319060240160206040518083038186803b158015610a9757600080fd5b505afa158015610aab573d6000803e3d6000fd5b505050506040513d601f19601f82011682018060405250810190610acf9190612c17565b6040517fffffffff0000000000000000000000000000000000000000000000000000000060e085901b16815273ffffffffffffffffffffffffffffffffffffffff90921660048301526024820152604401602060405180830381600087803b158015610b3a57600080fd5b505af1158015610b4e573d6000803e3d6000fd5b505050506040513d601f19601f82011682018060405250810190610b729190612c30565b610bd8576040517f08c379a000000000000000000000000000000000000000000000000000000000815260206004820152600f60248201527f5472616e73666572204661696c65640000000000000000000000000000000000604482015260640161050c565b565b3373ffffffffffffffffffffffffffffffffffffffff7f00000000000000000000000000000000000000000000000000000000000000001614610c9f576040517f08c379a000000000000000000000000000000000000000000000000000000000815260206004820152602d60248201527f4f6e6c792074686520706f6c69637920636f6e7472616374206d61792063616c60448201527f6c2074686973206d6574686f6400000000000000000000000000000000000000606482015260840161050c565b600080547fffffffffffffffffffffffff00000000000000000000000000000000000000001673ffffffffffffffffffffffffffffffffffffffff92909216919091179055565b600454610d4f576040517f08c379a000000000000000000000000000000000000000000000000000000000815260206004820152601860248201527f496e697469616c2073656564206d757374206265207365740000000000000000604482015260640161050c565b60055415610db9576040517f08c379a000000000000000000000000000000000000000000000000000000000815260206004820152601460248201527f43616e206f6e6c79207375626d6974206f6e6365000000000000000000000000604482015260640161050c565b600a54600480546006546040517fc9e909bb00000000000000000000000000000000000000000000000000000000815273ffffffffffffffffffffffffffffffffffffffff9094169363c9e909bb93610e189392918891889101612c52565b60206040518083038186803b158015610e3057600080fd5b505afa158015610e44573d6000803e3d6000fd5b505050506040513d601f19601f82011682018060405250810190610e689190612c30565b610f1a576040517f08c379a000000000000000000000000000000000000000000000000000000000815260206004820152604660248201527f54686520564446206f75747075742076616c7565206d7573742062652076657260448201527f6966696564206279207468652056444620766572696669636174696f6e20636f60648201527f6e74726163740000000000000000000000000000000000000000000000000000608482015260a40161050c565b8181604051610f2a929190612cad565b604051908190038120600581905581527f1c4de629a11f5cad3c610c53f9d1dd48d75641eb45361d04ffa64aa163afbd41906020015b60405180910390a15050565b600554610ffb576040517f08c379a000000000000000000000000000000000000000000000000000000000815260206004820152602860248201527f4d7573742070726f766520564446206265666f726520636c61696d732063616e60448201527f2062652070616964000000000000000000000000000000000000000000000000606482015260840161050c565b60025484106110b2576040517f08c379a000000000000000000000000000000000000000000000000000000000815260206004820152604160248201527f5468652070726f76696465642073657175656e6365206e756d626572206d757360448201527f742062652077697468696e2074686520736574206f6620726563697069656e7460648201527f7300000000000000000000000000000000000000000000000000000000000000608482015260a40161050c565b6002546110c1610d2086612cbd565b6110cb9190612d29565b6007546110d89190612bff565b4211611166576040517f08c379a000000000000000000000000000000000000000000000000000000000815260206004820152603560248201527f4120636c61696d2063616e206f6e6c79206265206d616465206166746572206560448201527f6e6f7567682074696d6520686173207061737365640000000000000000000000606482015260840161050c565b61117261010085612d3d565b6001901b6008600061118661010088612d29565b81526020019081526020016000205416600014611225576040517f08c379a000000000000000000000000000000000000000000000000000000000815260206004820152603860248201527f4120636c61696d2063616e206f6e6c79206265206d616465206966206974206860448201527f6173206e6f7420616c7265616479206265656e206d6164650000000000000000606482015260840161050c565b600b60009054906101000a900473ffffffffffffffffffffffffffffffffffffffff1673ffffffffffffffffffffffffffffffffffffffff1663a8c95a046040518163ffffffff1660e01b815260040160206040518083038186803b15801561128d57600080fd5b505afa1580156112a1573d6000803e3d6000fd5b505050506040513d601f19601f820116820180604052508101906112c59190612c17565b611377576040517f08c379a000000000000000000000000000000000000000000000000000000000815260206004820152604960248201527f4120636c61696d2063616e206f6e6c79206265206d616465206166746572207260448201527f6f6f74206861736820666f7220746869732067656e65726174696f6e2077617360648201527f2061636365707465640000000000000000000000000000000000000000000000608482015260a40161050c565b600b546040517f77c02f1b00000000000000000000000000000000000000000000000000000000815273ffffffffffffffffffffffffffffffffffffffff909116906377c02f1b906113d3908890879087908790600401612d51565b60206040518083038186803b1580156113eb57600080fd5b505afa1580156113ff573d6000803e3d6000fd5b505050506040513d601f19601f820116820180604052508101906114239190612c30565b6114af576040517f08c379a000000000000000000000000000000000000000000000000000000000815260206004820152603060248201527f4120636c61696d207375626d697373696f6e206661696c656420726f6f74206860448201527f61736820766572696669636174696f6e00000000000000000000000000000000606482015260840161050c565b6114bb61010085612d3d565b6001901b600860006114cf61010088612d29565b815260200190815260200160002060008282546114ec9190612bff565b90915550506009805490600061150183612dbf565b9091555050600b54604080517fa61b758e000000000000000000000000000000000000000000000000000000008152905160009273ffffffffffffffffffffffffffffffffffffffff169163a61b758e916004808301926020929190829003018186803b15801561157157600080fd5b505afa158015611585573d6000803e3d6000fd5b505050506040513d601f19601f820116820180604052508101906115a99190612c17565b60055460408051602081019290925281018790526060016040516020818303038152906040528051906020012060001c6115e39190612d3d565b6003546040517f3a46b1a800000000000000000000000000000000000000000000000000000000815273ffffffffffffffffffffffffffffffffffffffff8981166004830152602482019290925291925084917f000000000000000000000000000000000000000000000000000000000000000090911690633a46b1a89060440160206040518083038186803b15801561167c57600080fd5b505afa158015611690573d6000803e3d6000fd5b505050506040513d601f19601f820116820180604052508101906116b49190612c17565b6116be9190612bff565b811061174c576040517f08c379a000000000000000000000000000000000000000000000000000000000815260206004820152602d60248201527f5468652070726f766964656420616464726573732063616e6e6f7420636c616960448201527f6d20746869732072657761726400000000000000000000000000000000000000606482015260840161050c565b828110156117dc576040517f08c379a000000000000000000000000000000000000000000000000000000000815260206004820152602d60248201527f5468652070726f766964656420616464726573732063616e6e6f7420636c616960448201527f6d20746869732072657761726400000000000000000000000000000000000000606482015260840161050c565b6001546040517fa9059cbb00000000000000000000000000000000000000000000000000000000815273ffffffffffffffffffffffffffffffffffffffff888116600483015260248201929092527f00000000000000000000000000000000000000000000000000000000000000009091169063a9059cbb90604401602060405180830381600087803b15801561187257600080fd5b505af1158015611886573d6000803e3d6000fd5b505050506040513d601f19601f820116820180604052508101906118aa9190612c30565b611910576040517f08c379a000000000000000000000000000000000000000000000000000000000815260206004820152600f60248201527f5472616e73666572204661696c65640000000000000000000000000000000000604482015260640161050c565b8573ffffffffffffffffffffffffffffffffffffffff167f47cee97cb7acd717b3c0aa1435d004cd5b3c8c57d70dbceb4e4458bbd60e39d48660405161195891815260200190565b60405180910390a2505050505050565b600454156119f8576040517f08c379a000000000000000000000000000000000000000000000000000000000815260206004820152602160248201527f5468652056444620736565642068617320616c7265616479206265656e20736560448201527f7400000000000000000000000000000000000000000000000000000000000000606482015260840161050c565b6000818152600c60205260409020548015801590611a1557504381105b611a7b576040517f08c379a000000000000000000000000000000000000000000000000000000000815260206004820152601460248201527f7072696d616c20626c6f636b20696e76616c6964000000000000000000000000604482015260640161050c565b600a546040517fe3b932db000000000000000000000000000000000000000000000000000000008152600481018490526019602482015273ffffffffffffffffffffffffffffffffffffffff9091169063e3b932db9060440160206040518083038186803b158015611aec57600080fd5b505afa158015611b00573d6000803e3d6000fd5b505050506040513d601f19601f82011682018060405250810190611b249190612c30565b611b8a576040517f08c379a000000000000000000000000000000000000000000000000000000000815260206004820152601b60248201527f696e707574206661696c6564207072696d616c69747920746573740000000000604482015260640161050c565b60048290556040518281527f70539a6e37f2e23e3d28692ab3f9a3259c03cdcb188ada2607c3ac6d347b3fb990602001610f60565b6000611be97ff86c915dad5894faca0dfa067c58fdf4307406d255ed0a65db394f82b77f53d45490565b73ffffffffffffffffffffffffffffffffffffffff1614611c8c576040517f08c379a000000000000000000000000000000000000000000000000000000000815260206004820152602860248201527f43616e206f6e6c792062652063616c6c656420647572696e6720696e6974696160448201527f6c697a6174696f6e000000000000000000000000000000000000000000000000606482015260840161050c565b611c95816123ab565b611ca0600143612be8565b6003819055508073ffffffffffffffffffffffffffffffffffffffff16639d353d946040518163ffffffff1660e01b815260040160206040518083038186803b158015611cec57600080fd5b505afa158015611d00573d6000803e3d6000fd5b505050506040513d601f19601f82011682018060405250810190611d249190612df4565b73ffffffffffffffffffffffffffffffffffffffff166309ed46076040518163ffffffff1660e01b8152600401602060405180830381600087803b158015611d6b57600080fd5b505af1158015611d7f573d6000803e3d6000fd5b505050506040513d601f19601f82011682018060405250810190611da39190612df4565b600a60006101000a81548173ffffffffffffffffffffffffffffffffffffffff021916908373ffffffffffffffffffffffffffffffffffffffff1602179055508073ffffffffffffffffffffffffffffffffffffffff166314bf27446040518163ffffffff1660e01b815260040160206040518083038186803b158015611e2957600080fd5b505afa158015611e3d573d6000803e3d6000fd5b505050506040513d601f19601f82011682018060405250810190611e619190612c17565b6006819055508073ffffffffffffffffffffffffffffffffffffffff1663b86631f66040518163ffffffff1660e01b815260040160206040518083038186803b158015611ead57600080fd5b505afa158015611ec1573d6000803e3d6000fd5b505050506040513d601f19601f82011682018060405250810190611ee59190612df4565b73ffffffffffffffffffffffffffffffffffffffff166309ed46076040518163ffffffff1660e01b8152600401602060405180830381600087803b158015611f2c57600080fd5b505af1158015611f40573d6000803e3d6000fd5b505050506040513d601f19601f82011682018060405250810190611f649190612df4565b600b80547fffffffffffffffffffffffff00000000000000000000000000000000000000001673ffffffffffffffffffffffffffffffffffffffff9290921691821790556003546040517f1eb25e0a0000000000000000000000000000000000000000000000000000000081526004810191909152631eb25e0a906024015b600060405180830381600087803b158015611ffd57600080fd5b505af1158015610611573d6000803e3d6000fd5b6000821180156120215750600081115b612087576040517f08c379a000000000000000000000000000000000000000000000000000000000815260206004820152601a60248201527f436f6e7472616374206d75737420686176652072657761726473000000000000604482015260640161050c565b6120918183612cbd565b6040517f70a082310000000000000000000000000000000000000000000000000000000081523060048201527f000000000000000000000000000000000000000000000000000000000000000073ffffffffffffffffffffffffffffffffffffffff16906370a082319060240160206040518083038186803b15801561211657600080fd5b505afa15801561212a573d6000803e3d6000fd5b505050506040513d601f19601f8201168201806040525081019061214e9190612c17565b1015612202576040517f08c379a000000000000000000000000000000000000000000000000000000000815260206004820152604160248201527f54686520636f6e7472616374206d7573742068617665206120746f6b656e206260448201527f616c616e6365206174206c656173742074686520746f74616c2072657761726460648201527f7300000000000000000000000000000000000000000000000000000000000000608482015260a40161050c565b60025415612292576040517f08c379a000000000000000000000000000000000000000000000000000000000815260206004820152602160248201527f5468652073616c652063616e206f6e6c792062652073746172746564206f6e6360448201527f6500000000000000000000000000000000000000000000000000000000000000606482015260840161050c565b600282905560098290556001819055426007819055600b54600a5460405192835273ffffffffffffffffffffffffffffffffffffffff918216929116907fc6d24fc08315711d71bc09888bcdf05dcb2eb1bcd720c876f40d75a8b31404879060200160405180910390a35050565b6106113386868680806020026020016040519081016040528093929190818152602001838360200280828437600092019190915250889250879150610f6c9050565b6000808260601b90506040517f3d602d80600a3d3981f3363d3d373d3d3d363d7300000000000000000000000081528160148201527f5af43d82803e903d91602b57fd5bf3000000000000000000000000000000000060288201526037816000f0949350505050565b60006123d57ff86c915dad5894faca0dfa067c58fdf4307406d255ed0a65db394f82b77f53d45490565b73ffffffffffffffffffffffffffffffffffffffff1614612478576040517f08c379a000000000000000000000000000000000000000000000000000000000815260206004820152602860248201527f43616e206f6e6c792062652063616c6c656420647572696e6720696e6974696160448201527f6c697a6174696f6e000000000000000000000000000000000000000000000000606482015260840161050c565b6124818161250d565b6040517f5df8122f00000000000000000000000000000000000000000000000000000000815230600482015273ffffffffffffffffffffffffffffffffffffffff7f0000000000000000000000000000000000000000000000000000000000000000166024820152731820a4b7618bde71dce8cdc73aab6c95905fad2490635df8122f90604401611fe3565b60006125377ff86c915dad5894faca0dfa067c58fdf4307406d255ed0a65db394f82b77f53d45490565b73ffffffffffffffffffffffffffffffffffffffff16146125da576040517f08c379a000000000000000000000000000000000000000000000000000000000815260206004820152602860248201527f43616e206f6e6c792062652063616c6c656420647572696e6720696e6974696160448201527f6c697a6174696f6e000000000000000000000000000000000000000000000000606482015260840161050c565b60008173ffffffffffffffffffffffffffffffffffffffff16635c60da1b6040518163ffffffff1660e01b815260040160206040518083038186803b15801561262257600080fd5b505afa158015612636573d6000803e3d6000fd5b505050506040513d601f19601f8201168201806040525081019061265a9190612df4565b905073ffffffffffffffffffffffffffffffffffffffff81166126ff576040517f08c379a000000000000000000000000000000000000000000000000000000000815260206004820152602c60248201527f696e697469616c697a6174696f6e206661696c7572653a206e6f7468696e672060448201527f746f20696d706c656d656e740000000000000000000000000000000000000000606482015260840161050c565b6127088161270c565b5050565b8073ffffffffffffffffffffffffffffffffffffffff1661274b7ff86c915dad5894faca0dfa067c58fdf4307406d255ed0a65db394f82b77f53d45490565b73ffffffffffffffffffffffffffffffffffffffff1614156127c9576040517f08c379a000000000000000000000000000000000000000000000000000000000815260206004820152601f60248201527f496d706c656d656e746174696f6e20616c7265616479206d61746368696e6700604482015260640161050c565b7ff86c915dad5894faca0dfa067c58fdf4307406d255ed0a65db394f82b77f53d455565b6000602082840312156127ff57600080fd5b5035919050565b73ffffffffffffffffffffffffffffffffffffffff8116811461282857600080fd5b50565b7f4e487b7100000000000000000000000000000000000000000000000000000000600052604160045260246000fd5b604051601f82017fffffffffffffffffffffffffffffffffffffffffffffffffffffffffffffffe016810167ffffffffffffffff811182821017156128a1576128a161282b565b604052919050565b600080604083850312156128bc57600080fd5b82356128c781612806565b915060208381013567ffffffffffffffff808211156128e557600080fd5b818601915086601f8301126128f957600080fd5b81358181111561290b5761290b61282b565b61293b847fffffffffffffffffffffffffffffffffffffffffffffffffffffffffffffffe0601f8401160161285a565b9150808252878482850101111561295157600080fd5b80848401858401376000848284010152508093505050509250929050565b6000806040838503121561298257600080fd5b82359150602083013561299481612806565b809150509250929050565b6000602082840312156129b157600080fd5b81356129bc81612806565b9392505050565b600080602083850312156129d657600080fd5b823567ffffffffffffffff808211156129ee57600080fd5b818501915085601f830112612a0257600080fd5b813581811115612a1157600080fd5b866020828501011115612a2357600080fd5b60209290920196919550909350505050565b600080600080600060a08688031215612a4d57600080fd5b8535612a5881612806565b94506020868101359450604087013567ffffffffffffffff80821115612a7d57600080fd5b818901915089601f830112612a9157600080fd5b813581811115612aa357612aa361282b565b8060051b9150612ab484830161285a565b818152918301840191848101908c841115612ace57600080fd5b938501935b83851015612aec57843582529385019390850190612ad3565b999c989b5098996060810135995060800135979650505050505050565b60008060408385031215612b1c57600080fd5b50508035926020909101359150565b600080600080600060808688031215612b4357600080fd5b85359450602086013567ffffffffffffffff80821115612b6257600080fd5b818801915088601f830112612b7657600080fd5b813581811115612b8557600080fd5b8960208260051b8501011115612b9a57600080fd5b9699602092909201985095966040810135965060600135945092505050565b7f4e487b7100000000000000000000000000000000000000000000000000000000600052601160045260246000fd5b600082821015612bfa57612bfa612bb9565b500390565b60008219821115612c1257612c12612bb9565b500190565b600060208284031215612c2957600080fd5b5051919050565b600060208284031215612c4257600080fd5b815180151581146129bc57600080fd5b84815283602082015260606040820152816060820152818360808301376000818301608090810191909152601f9092017fffffffffffffffffffffffffffffffffffffffffffffffffffffffffffffffe01601019392505050565b8183823760009101908152919050565b6000817fffffffffffffffffffffffffffffffffffffffffffffffffffffffffffffffff0483118215151615612cf557612cf5612bb9565b500290565b7f4e487b7100000000000000000000000000000000000000000000000000000000600052601260045260246000fd5b600082612d3857612d38612cfa565b500490565b600082612d4c57612d4c612cfa565b500690565b60006080820173ffffffffffffffffffffffffffffffffffffffff87168352602060808185015281875180845260a086019150828901935060005b81811015612da857845183529383019391830191600101612d8c565b505060408501969096525050506060015292915050565b600081612dce57612dce612bb9565b507fffffffffffffffffffffffffffffffffffffffffffffffffffffffffffffffff0190565b600060208284031215612e0657600080fd5b81516129bc8161280656fea164736f6c6343000809000af86c915dad5894faca0dfa067c58fdf4307406d255ed0a65db394f82b77f53d4",
  "linkReferences": {},
  "deployedLinkReferences": {}
}