{
  "_format": "hh-sol-artifact-1",
  "contractName": "RandomInflation",
  "sourceName": "contracts/governance/monetary/RandomInflation.sol",
  "abi": [
    {
      "inputs": [
        {
          "internalType": "contract Policy",
          "name": "_policy",
          "type": "address"
        },
        {
          "internalType": "contract VDFVerifier",
          "name": "_vdfVerifierImpl",
          "type": "address"
        },
        {
          "internalType": "uint256",
          "name": "_randomDifficulty",
          "type": "uint256"
        },
        {
          "internalType": "contract InflationRootHashProposal",
          "name": "_inflationRootHashProposalImpl",
          "type": "address"
        },
        {
          "internalType": "contract ECO",
          "name": "_ecoAddr",
          "type": "address"
        }
      ],
      "stateMutability": "nonpayable",
      "type": "constructor"
    },
    {
      "anonymous": false,
      "inputs": [
        {
          "indexed": true,
          "internalType": "address",
          "name": "who",
          "type": "address"
        },
        {
          "indexed": false,
          "internalType": "uint256",
          "name": "sequence",
          "type": "uint256"
        }
      ],
      "name": "Claim",
      "type": "event"
    },
    {
      "anonymous": false,
      "inputs": [
        {
          "indexed": false,
          "internalType": "bytes32",
          "name": "seed",
          "type": "bytes32"
        }
      ],
      "name": "EntropySeedReveal",
      "type": "event"
    },
    {
      "anonymous": false,
      "inputs": [
        {
          "indexed": false,
          "internalType": "uint256",
          "name": "seed",
          "type": "uint256"
        }
      ],
      "name": "EntropyVDFSeedCommit",
      "type": "event"
    },
    {
      "anonymous": false,
      "inputs": [
        {
          "indexed": false,
          "internalType": "contract VDFVerifier",
          "name": "vdfVerifier",
          "type": "address"
        },
        {
          "indexed": false,
          "internalType": "contract InflationRootHashProposal",
          "name": "inflationRootHashProposal",
          "type": "address"
        },
        {
          "indexed": false,
          "internalType": "uint256",
          "name": "claimPeriodStarts",
          "type": "uint256"
        }
      ],
      "name": "InflationStart",
      "type": "event"
    },
    {
      "inputs": [],
      "name": "CLAIM_PERIOD",
      "outputs": [
        {
          "internalType": "uint256",
          "name": "",
          "type": "uint256"
        }
      ],
      "stateMutability": "view",
      "type": "function"
    },
    {
      "inputs": [],
      "name": "MILLER_RABIN_ROUNDS",
      "outputs": [
        {
          "internalType": "uint256",
          "name": "",
          "type": "uint256"
        }
      ],
      "stateMutability": "view",
      "type": "function"
    },
    {
      "inputs": [],
      "name": "PRIME_BOUND",
      "outputs": [
        {
          "internalType": "uint256",
          "name": "",
          "type": "uint256"
        }
      ],
      "stateMutability": "view",
      "type": "function"
    },
    {
      "inputs": [],
      "name": "blockNumber",
      "outputs": [
        {
          "internalType": "uint256",
          "name": "",
          "type": "uint256"
        }
      ],
      "stateMutability": "view",
      "type": "function"
    },
    {
      "inputs": [
        {
          "internalType": "bytes32",
          "name": "",
          "type": "bytes32"
        },
        {
          "internalType": "address",
          "name": "_addr",
          "type": "address"
        }
      ],
      "name": "canImplementInterfaceForAddress",
      "outputs": [
        {
          "internalType": "bytes32",
          "name": "",
          "type": "bytes32"
        }
      ],
      "stateMutability": "view",
      "type": "function"
    },
    {
      "inputs": [
        {
          "internalType": "uint256",
          "name": "_sequence",
          "type": "uint256"
        },
        {
          "internalType": "bytes32[]",
          "name": "_proof",
          "type": "bytes32[]"
        },
        {
          "internalType": "uint256",
          "name": "_sum",
          "type": "uint256"
        },
        {
          "internalType": "uint256",
          "name": "_index",
          "type": "uint256"
        }
      ],
      "name": "claim",
      "outputs": [],
      "stateMutability": "nonpayable",
      "type": "function"
    },
    {
      "inputs": [
        {
          "internalType": "address",
          "name": "_who",
          "type": "address"
        },
        {
          "internalType": "uint256",
          "name": "_sequence",
          "type": "uint256"
        },
        {
          "internalType": "bytes32[]",
          "name": "_proof",
          "type": "bytes32[]"
        },
        {
          "internalType": "uint256",
          "name": "_sum",
          "type": "uint256"
        },
        {
          "internalType": "uint256",
          "name": "_index",
          "type": "uint256"
        }
      ],
      "name": "claimFor",
      "outputs": [],
      "stateMutability": "nonpayable",
      "type": "function"
    },
    {
      "inputs": [],
      "name": "claimPeriodStarts",
      "outputs": [
        {
          "internalType": "uint256",
          "name": "",
          "type": "uint256"
        }
      ],
      "stateMutability": "view",
      "type": "function"
    },
    {
      "inputs": [
        {
          "internalType": "uint256",
          "name": "",
          "type": "uint256"
        }
      ],
      "name": "claimed",
      "outputs": [
        {
          "internalType": "bool",
          "name": "",
          "type": "bool"
        }
      ],
      "stateMutability": "view",
      "type": "function"
    },
    {
      "inputs": [],
      "name": "clone",
      "outputs": [
        {
          "internalType": "address",
          "name": "",
          "type": "address"
        }
      ],
      "stateMutability": "nonpayable",
      "type": "function"
    },
    {
      "inputs": [
        {
          "internalType": "uint256",
          "name": "_primal",
          "type": "uint256"
        }
      ],
      "name": "commitEntropyVDFSeed",
      "outputs": [],
      "stateMutability": "nonpayable",
      "type": "function"
    },
    {
      "inputs": [],
      "name": "destruct",
      "outputs": [],
      "stateMutability": "nonpayable",
      "type": "function"
    },
    {
      "inputs": [],
      "name": "ecoToken",
      "outputs": [
        {
          "internalType": "contract ECO",
          "name": "",
          "type": "address"
        }
      ],
      "stateMutability": "view",
      "type": "function"
    },
    {
      "inputs": [],
      "name": "entropyVDFSeed",
      "outputs": [
        {
          "internalType": "uint256",
          "name": "",
          "type": "uint256"
        }
      ],
      "stateMutability": "view",
      "type": "function"
    },
    {
      "inputs": [],
      "name": "implementation",
      "outputs": [
        {
          "internalType": "address",
          "name": "_impl",
          "type": "address"
        }
      ],
      "stateMutability": "view",
      "type": "function"
    },
    {
      "inputs": [],
      "name": "inflationRootHashProposal",
      "outputs": [
        {
          "internalType": "contract InflationRootHashProposal",
          "name": "",
          "type": "address"
        }
      ],
      "stateMutability": "view",
      "type": "function"
    },
    {
      "inputs": [
        {
          "internalType": "address",
          "name": "_self",
          "type": "address"
        }
      ],
      "name": "initialize",
      "outputs": [],
      "stateMutability": "nonpayable",
      "type": "function"
    },
    {
      "inputs": [],
      "name": "numRecipients",
      "outputs": [
        {
          "internalType": "uint256",
          "name": "",
          "type": "uint256"
        }
      ],
      "stateMutability": "view",
      "type": "function"
    },
    {
      "inputs": [],
      "name": "policy",
      "outputs": [
        {
          "internalType": "contract Policy",
          "name": "",
          "type": "address"
        }
      ],
      "stateMutability": "view",
      "type": "function"
    },
    {
      "inputs": [
        {
          "internalType": "address",
          "name": "_delegate",
          "type": "address"
        },
        {
          "internalType": "bytes",
          "name": "_data",
          "type": "bytes"
        }
      ],
      "name": "policyCommand",
      "outputs": [],
      "stateMutability": "nonpayable",
      "type": "function"
    },
    {
      "inputs": [
        {
          "internalType": "uint256",
          "name": "",
          "type": "uint256"
        }
      ],
      "name": "primals",
      "outputs": [
        {
          "internalType": "uint256",
          "name": "",
          "type": "uint256"
        }
      ],
      "stateMutability": "view",
      "type": "function"
    },
    {
      "inputs": [],
      "name": "randomVDFDifficulty",
      "outputs": [
        {
          "internalType": "uint256",
          "name": "",
          "type": "uint256"
        }
      ],
      "stateMutability": "view",
      "type": "function"
    },
    {
      "inputs": [],
      "name": "reward",
      "outputs": [
        {
          "internalType": "uint256",
          "name": "",
          "type": "uint256"
        }
      ],
      "stateMutability": "view",
      "type": "function"
    },
    {
      "inputs": [],
      "name": "seed",
      "outputs": [
        {
          "internalType": "bytes32",
          "name": "",
          "type": "bytes32"
        }
      ],
      "stateMutability": "view",
      "type": "function"
    },
    {
      "inputs": [
        {
          "internalType": "address",
          "name": "_addr",
          "type": "address"
        }
      ],
      "name": "setExpectedInterfaceSet",
      "outputs": [],
      "stateMutability": "nonpayable",
      "type": "function"
    },
    {
      "inputs": [
        {
          "internalType": "uint256",
          "name": "_primal",
          "type": "uint256"
        }
      ],
      "name": "setPrimal",
      "outputs": [],
      "stateMutability": "nonpayable",
      "type": "function"
    },
    {
      "inputs": [
        {
          "internalType": "uint256",
          "name": "_numRecipients",
          "type": "uint256"
        },
        {
          "internalType": "uint256",
          "name": "_reward",
          "type": "uint256"
        }
      ],
      "name": "startInflation",
      "outputs": [],
      "stateMutability": "nonpayable",
      "type": "function"
    },
    {
      "inputs": [
        {
          "internalType": "bytes",
          "name": "_y",
          "type": "bytes"
        }
      ],
      "name": "submitEntropyVDF",
      "outputs": [],
      "stateMutability": "nonpayable",
      "type": "function"
    },
    {
      "inputs": [],
      "name": "vdfVerifier",
      "outputs": [
        {
          "internalType": "contract VDFVerifier",
          "name": "",
          "type": "address"
        }
      ],
      "stateMutability": "view",
      "type": "function"
    }
  ],
  "bytecode": "0x60c06040523480156200001157600080fd5b506040516200338d3803806200338d833981016040819052620000349162000402565b848062000041306200035b565b6001600160a01b038116620000c35760405162461bcd60e51b815260206004820152603860248201527f556e7265636f76657261626c653a20646f206e6f74207365742074686520706f60448201527f6c69637920617320746865207a65726f2061646472657373000000000000000060648201526084015b60405180910390fd5b6001600160a01b0381166080819052604051635df8122f60e01b81523060048201526024810191909152731820a4b7618bde71dce8cdc73aab6c95905fad2490635df8122f90604401600060405180830381600087803b1580156200012757600080fd5b505af11580156200013c573d6000803e3d6000fd5b50505050506001600160a01b03851615159050620001c35760405162461bcd60e51b815260206004820152603360248201527f646f206e6f742073657420746865205f7664665665726966696572496d706c2060448201527f617320746865207a65726f2061646472657373000000000000000000000000006064820152608401620000ba565b60008311620002265760405162461bcd60e51b815260206004820152602860248201527f646f206e6f742073657420746865205f72616e646f6d446966666963756c747960448201526720746f207a65726f60c01b6064820152608401620000ba565b6001600160a01b038216620002ae5760405162461bcd60e51b815260206004820152604160248201527f646f206e6f742073657420746865205f696e666c6174696f6e526f6f7448617360448201527f6850726f706f73616c496d706c20617320746865207a65726f206164647265736064820152607360f81b608482015260a401620000ba565b6001600160a01b0381166200031a5760405162461bcd60e51b815260206004820152602b60248201527f646f206e6f742073657420746865205f65636f4164647220617320746865207a60448201526a65726f206164647265737360a81b6064820152608401620000ba565b600980546001600160a01b03199081166001600160a01b0396871617909155600693909355600a8054909316918416919091179091551660a0525062000476565b6001600160a01b0381166200037d6000805160206200336d8339815191525490565b6001600160a01b03161415620003d65760405162461bcd60e51b815260206004820152601f60248201527f496d706c656d656e746174696f6e20616c7265616479206d61746368696e67006044820152606401620000ba565b6000805160206200336d83398151915255565b6001600160a01b0381168114620003ff57600080fd5b50565b600080600080600060a086880312156200041b57600080fd5b85516200042881620003e9565b60208701519095506200043b81620003e9565b6040870151606088015191955093506200045581620003e9565b60808701519092506200046881620003e9565b809150509295509295909350565b60805160a051612e92620004db6000396000818161030f01528181610a3c015281816116410152818161183501526121300152600081816101d9015281816104fe0152818161073a01528181610a7a01528181610c1801526125340152612e926000f3fe608060405234801561001057600080fd5b50600436106101cf5760003560e01c80635c60da1b11610104578063a7904485116100a2578063cfd5197411610071578063cfd51974146103dc578063d7f5938f146103e5578063dbe7e3bd146103f8578063e53d5df41461042b57600080fd5b8063a790448514610380578063a940c42514610389578063b86631f6146103a9578063c4d66de8146103c957600080fd5b80637d94792a116100de5780637d94792a146103315780638981cbce1461033a57806391249b671461034d5780639d353d941461036057600080fd5b80635c60da1b146102d05780635cec2352146102f7578063705d53041461030a57600080fd5b806321241dfe116101715780632b68b9c61161014b5780632b68b9c6146102a457806339634e0c146102ac5780634450868e146102bf57806357e871e7146102c757600080fd5b806321241dfe1461027e578063228cb73314610288578063249cb3fa1461029157600080fd5b806309ed4607116101ad57806309ed46071461024d578063125f63251461025557806314bf27441461026c578063176bf33f1461027557600080fd5b80630505c8c9146101d4578063078f76eb1461022557806309d7f23b1461023a575b600080fd5b6101fb7f000000000000000000000000000000000000000000000000000000000000000081565b60405173ffffffffffffffffffffffffffffffffffffffff90911681526020015b60405180910390f35b61023861023336600461285d565b61043e565b005b610238610248366004612919565b6104e6565b6101fb6105d5565b61025e60075481565b60405190815260200161021c565b61025e60065481565b61025e60045481565b61025e6224ea0081565b61025e60015481565b61025e61029f3660046129df565b610736565b610238610882565b6102386102ba366004612a0f565b610c00565b61025e601981565b61025e60035481565b7ff86c915dad5894faca0dfa067c58fdf4307406d255ed0a65db394f82b77f53d4546101fb565b610238610305366004612a33565b610d0c565b6101fb7f000000000000000000000000000000000000000000000000000000000000000081565b61025e60055481565b610238610348366004612aa5565b610f92565b61023861035b36600461285d565b611971565b6009546101fb9073ffffffffffffffffffffffffffffffffffffffff1681565b61025e6103e881565b61025e61039736600461285d565b600b6020526000908152604090205481565b600a546101fb9073ffffffffffffffffffffffffffffffffffffffff1681565b6102386103d7366004612a0f565b611c30565b61025e60025481565b6102386103f3366004612b79565b612082565b61041b61040636600461285d565b60086020526000908152604090205460ff1681565b604051901515815260200161021c565b610238610439366004612b9b565b612370565b600061044b600143612c58565b409050808211801561046757506103e86104658284612c58565b105b6104d2576040517f08c379a000000000000000000000000000000000000000000000000000000000815260206004820181905260248201527f737567676573746564207072696d65206973206f7574206f6620626f756e647360448201526064015b60405180910390fd5b506000908152600b60205260409020439055565b3373ffffffffffffffffffffffffffffffffffffffff7f000000000000000000000000000000000000000000000000000000000000000016146105ab576040517f08c379a000000000000000000000000000000000000000000000000000000000815260206004820152602e60248201527f4f6e6c792074686520706f6c69637920636f6e7472616374206d61792063616c60448201527f6c2074686973206d6574686f642e00000000000000000000000000000000000060648201526084016104c9565b600080825160208401855af43d806000803e8180156105c957816000f35b816000fd5b5050505050565b6000306106007ff86c915dad5894faca0dfa067c58fdf4307406d255ed0a65db394f82b77f53d45490565b73ffffffffffffffffffffffffffffffffffffffff16146106a3576040517f08c379a000000000000000000000000000000000000000000000000000000000815260206004820152602660248201527f54686973206d6574686f642063616e6e6f742062652063616c6c6564206f6e2060448201527f636c6f6e6573000000000000000000000000000000000000000000000000000060648201526084016104c9565b60006106ae306123b2565b6040517fc4d66de800000000000000000000000000000000000000000000000000000000815230600482015290915073ffffffffffffffffffffffffffffffffffffffff82169063c4d66de890602401600060405180830381600087803b15801561071857600080fd5b505af115801561072c573d6000803e3d6000fd5b5092949350505050565b60007f000000000000000000000000000000000000000000000000000000000000000073ffffffffffffffffffffffffffffffffffffffff168273ffffffffffffffffffffffffffffffffffffffff1614806107ac575060005473ffffffffffffffffffffffffffffffffffffffff8381169116145b610838576040517f08c379a000000000000000000000000000000000000000000000000000000000815260206004820152603c60248201527f4f6e6c792074686520706f6c696379206f7220696e7465726661636520636f6e60448201527f74726163742063616e207365742074686520696e746572666163652e0000000060648201526084016104c9565b6040517f455243313832305f4143434550545f4d41474943000000000000000000000000602082015260340160405160208183030381529060405280519060200120905092915050565b6005541515806108a157506224ea0060075461089e9190612c6f565b42115b61092d576040517f08c379a000000000000000000000000000000000000000000000000000000000815260206004820152603e60248201527f456e74726f7079206e6f74207365742c207761697420756e74696c20656e642060448201527f6f662066756c6c20636c61696d20706572696f6420746f2061626f72742e000060648201526084016104c9565b60055415158061094c57506224ea006007546109499190612c6f565b42105b15610a0e5760005b600254811015610a0c5760008181526008602052604090205460ff166109fc576040517f08c379a000000000000000000000000000000000000000000000000000000000815260206004820152602d60248201527f416c6c2072657761726473206d75737420626520636c61696d6564207072696f60448201527f7220746f2064657374727563740000000000000000000000000000000000000060648201526084016104c9565b610a0581612c87565b9050610954565b505b6040517f70a082310000000000000000000000000000000000000000000000000000000081523060048201527f000000000000000000000000000000000000000000000000000000000000000073ffffffffffffffffffffffffffffffffffffffff169063a9059cbb907f00000000000000000000000000000000000000000000000000000000000000009083906370a082319060240160206040518083038186803b158015610abd57600080fd5b505afa158015610ad1573d6000803e3d6000fd5b505050506040513d601f19601f82011682018060405250810190610af59190612cc0565b6040517fffffffff0000000000000000000000000000000000000000000000000000000060e085901b16815273ffffffffffffffffffffffffffffffffffffffff90921660048301526024820152604401602060405180830381600087803b158015610b6057600080fd5b505af1158015610b74573d6000803e3d6000fd5b505050506040513d601f19601f82011682018060405250810190610b989190612cd9565b610bfe576040517f08c379a000000000000000000000000000000000000000000000000000000000815260206004820152600f60248201527f5472616e73666572204661696c6564000000000000000000000000000000000060448201526064016104c9565b565b3373ffffffffffffffffffffffffffffffffffffffff7f00000000000000000000000000000000000000000000000000000000000000001614610cc5576040517f08c379a000000000000000000000000000000000000000000000000000000000815260206004820152602e60248201527f4f6e6c792074686520706f6c69637920636f6e7472616374206d61792063616c60448201527f6c2074686973206d6574686f642e00000000000000000000000000000000000060648201526084016104c9565b600080547fffffffffffffffffffffffff00000000000000000000000000000000000000001673ffffffffffffffffffffffffffffffffffffffff92909216919091179055565b600454610d75576040517f08c379a000000000000000000000000000000000000000000000000000000000815260206004820152601860248201527f496e697469616c2073656564206d75737420626520736574000000000000000060448201526064016104c9565b60055415610ddf576040517f08c379a000000000000000000000000000000000000000000000000000000000815260206004820152601460248201527f43616e206f6e6c79207375626d6974206f6e636500000000000000000000000060448201526064016104c9565b600954600480546006546040517fc9e909bb00000000000000000000000000000000000000000000000000000000815273ffffffffffffffffffffffffffffffffffffffff9094169363c9e909bb93610e3e9392918891889101612cfb565b60206040518083038186803b158015610e5657600080fd5b505afa158015610e6a573d6000803e3d6000fd5b505050506040513d601f19601f82011682018060405250810190610e8e9190612cd9565b610f40576040517f08c379a000000000000000000000000000000000000000000000000000000000815260206004820152604660248201527f54686520564446206f75747075742076616c7565206d7573742062652076657260448201527f6966696564206279207468652056444620766572696669636174696f6e20636f60648201527f6e74726163740000000000000000000000000000000000000000000000000000608482015260a4016104c9565b8181604051610f50929190612d56565b604051908190038120600581905581527f1c4de629a11f5cad3c610c53f9d1dd48d75641eb45361d04ffa64aa163afbd41906020015b60405180910390a15050565b600554611021576040517f08c379a000000000000000000000000000000000000000000000000000000000815260206004820152602860248201527f4d7573742070726f766520564446206265666f726520636c61696d732063616e60448201527f206265207061696400000000000000000000000000000000000000000000000060648201526084016104c9565b60025484106110d8576040517f08c379a000000000000000000000000000000000000000000000000000000000815260206004820152604160248201527f5468652070726f76696465642073657175656e6365206e756d626572206d757360448201527f742062652077697468696e2074686520736574206f6620726563697069656e7460648201527f7300000000000000000000000000000000000000000000000000000000000000608482015260a4016104c9565b6002546110e86224ea0086612d66565b6110f29190612dd2565b6007546110ff9190612c6f565b42116111b3576040517f08c379a000000000000000000000000000000000000000000000000000000000815260206004820152604a60248201527f4120636c61696d2063616e206f6e6c79206265206d616465206166746572206560448201527f6e6f7567682074696d652068617320706173736564202d20706c65617365207760648201527f616974206c6f6e67657200000000000000000000000000000000000000000000608482015260a4016104c9565b60008481526008602052604090205460ff1615611252576040517f08c379a000000000000000000000000000000000000000000000000000000000815260206004820152603860248201527f4120636c61696d2063616e206f6e6c79206265206d616465206966206974206860448201527f6173206e6f7420616c7265616479206265656e206d616465000000000000000060648201526084016104c9565b600a60009054906101000a900473ffffffffffffffffffffffffffffffffffffffff1673ffffffffffffffffffffffffffffffffffffffff1663a8c95a046040518163ffffffff1660e01b815260040160206040518083038186803b1580156112ba57600080fd5b505afa1580156112ce573d6000803e3d6000fd5b505050506040513d601f19601f820116820180604052508101906112f29190612cc0565b6113a4576040517f08c379a000000000000000000000000000000000000000000000000000000000815260206004820152604960248201527f4120636c61696d2063616e206f6e6c79206265206d616465206166746572207260448201527f6f6f74206861736820666f7220746869732067656e65726174696f6e2077617360648201527f2061636365707465640000000000000000000000000000000000000000000000608482015260a4016104c9565b600a546040517f77c02f1b00000000000000000000000000000000000000000000000000000000815273ffffffffffffffffffffffffffffffffffffffff909116906377c02f1b90611400908890879087908790600401612de6565b60206040518083038186803b15801561141857600080fd5b505afa15801561142c573d6000803e3d6000fd5b505050506040513d601f19601f820116820180604052508101906114509190612cd9565b6114dc576040517f08c379a000000000000000000000000000000000000000000000000000000000815260206004820152603060248201527f4120636c61696d207375626d697373696f6e206661696c656420726f6f74206860448201527f61736820766572696669636174696f6e0000000000000000000000000000000060648201526084016104c9565b600084815260086020908152604080832080547fffffffffffffffffffffffffffffffffffffffffffffffffffffffffffffff00166001179055600a5481517fa61b758e000000000000000000000000000000000000000000000000000000008152915173ffffffffffffffffffffffffffffffffffffffff9091169263a61b758e9260048082019391829003018186803b15801561157a57600080fd5b505afa15801561158e573d6000803e3d6000fd5b505050506040513d601f19601f820116820180604052508101906115b29190612cc0565b60055460408051602081019290925281018790526060016040516020818303038152906040528051906020012060001c6115ec9190612e54565b6003546040517f3a46b1a800000000000000000000000000000000000000000000000000000000815273ffffffffffffffffffffffffffffffffffffffff8981166004830152602482019290925291925084917f000000000000000000000000000000000000000000000000000000000000000090911690633a46b1a89060440160206040518083038186803b15801561168557600080fd5b505afa158015611699573d6000803e3d6000fd5b505050506040513d601f19601f820116820180604052508101906116bd9190612cc0565b6116c79190612c6f565b8110611755576040517f08c379a000000000000000000000000000000000000000000000000000000000815260206004820152602e60248201527f5468652070726f766964656420616464726573732063616e6e6f7420636c616960448201527f6d2074686973207265776172642e00000000000000000000000000000000000060648201526084016104c9565b828110156117e5576040517f08c379a000000000000000000000000000000000000000000000000000000000815260206004820152602e60248201527f5468652070726f766964656420616464726573732063616e6e6f7420636c616960448201527f6d2074686973207265776172642e00000000000000000000000000000000000060648201526084016104c9565b6001546040517fa9059cbb00000000000000000000000000000000000000000000000000000000815273ffffffffffffffffffffffffffffffffffffffff888116600483015260248201929092527f00000000000000000000000000000000000000000000000000000000000000009091169063a9059cbb90604401602060405180830381600087803b15801561187b57600080fd5b505af115801561188f573d6000803e3d6000fd5b505050506040513d601f19601f820116820180604052508101906118b39190612cd9565b611919576040517f08c379a000000000000000000000000000000000000000000000000000000000815260206004820152600f60248201527f5472616e73666572204661696c6564000000000000000000000000000000000060448201526064016104c9565b8573ffffffffffffffffffffffffffffffffffffffff167f47cee97cb7acd717b3c0aa1435d004cd5b3c8c57d70dbceb4e4458bbd60e39d48660405161196191815260200190565b60405180910390a2505050505050565b60045415611a01576040517f08c379a000000000000000000000000000000000000000000000000000000000815260206004820152602160248201527f5468652056444620736565642068617320616c7265616479206265656e20736560448201527f740000000000000000000000000000000000000000000000000000000000000060648201526084016104c9565b6000818152600b60205260409020548015801590611a1e57504381105b611a84576040517f08c379a000000000000000000000000000000000000000000000000000000000815260206004820152601460248201527f7072696d616c20626c6f636b20696e76616c696400000000000000000000000060448201526064016104c9565b611a8f600383612e54565b15801590611aa65750611aa3600583612e54565b15155b8015611abb5750611ab8600783612e54565b15155b8015611ad05750611acd600b83612e54565b15155b8015611ae55750611ae2600d83612e54565b15155b8015611b9557506009546040517fe3b932db000000000000000000000000000000000000000000000000000000008152600481018490526019602482015273ffffffffffffffffffffffffffffffffffffffff9091169063e3b932db9060440160206040518083038186803b158015611b5d57600080fd5b505afa158015611b71573d6000803e3d6000fd5b505050506040513d601f19601f82011682018060405250810190611b959190612cd9565b611bfb576040517f08c379a000000000000000000000000000000000000000000000000000000000815260206004820152601b60248201527f696e707574206661696c6564207072696d616c6974792074657374000000000060448201526064016104c9565b60048290556040518281527f70539a6e37f2e23e3d28692ab3f9a3259c03cdcb188ada2607c3ac6d347b3fb990602001610f86565b6000611c5a7ff86c915dad5894faca0dfa067c58fdf4307406d255ed0a65db394f82b77f53d45490565b73ffffffffffffffffffffffffffffffffffffffff1614611cfd576040517f08c379a000000000000000000000000000000000000000000000000000000000815260206004820152602860248201527f43616e206f6e6c792062652063616c6c656420647572696e6720696e6974696160448201527f6c697a6174696f6e00000000000000000000000000000000000000000000000060648201526084016104c9565b611d068161241b565b611d11600143612c58565b6003819055508073ffffffffffffffffffffffffffffffffffffffff16639d353d946040518163ffffffff1660e01b815260040160206040518083038186803b158015611d5d57600080fd5b505afa158015611d71573d6000803e3d6000fd5b505050506040513d601f19601f82011682018060405250810190611d959190612e68565b73ffffffffffffffffffffffffffffffffffffffff166309ed46076040518163ffffffff1660e01b8152600401602060405180830381600087803b158015611ddc57600080fd5b505af1158015611df0573d6000803e3d6000fd5b505050506040513d601f19601f82011682018060405250810190611e149190612e68565b600960006101000a81548173ffffffffffffffffffffffffffffffffffffffff021916908373ffffffffffffffffffffffffffffffffffffffff1602179055508073ffffffffffffffffffffffffffffffffffffffff166314bf27446040518163ffffffff1660e01b815260040160206040518083038186803b158015611e9a57600080fd5b505afa158015611eae573d6000803e3d6000fd5b505050506040513d601f19601f82011682018060405250810190611ed29190612cc0565b6006819055508073ffffffffffffffffffffffffffffffffffffffff1663b86631f66040518163ffffffff1660e01b815260040160206040518083038186803b158015611f1e57600080fd5b505afa158015611f32573d6000803e3d6000fd5b505050506040513d601f19601f82011682018060405250810190611f569190612e68565b73ffffffffffffffffffffffffffffffffffffffff166309ed46076040518163ffffffff1660e01b8152600401602060405180830381600087803b158015611f9d57600080fd5b505af1158015611fb1573d6000803e3d6000fd5b505050506040513d601f19601f82011682018060405250810190611fd59190612e68565b600a80547fffffffffffffffffffffffff00000000000000000000000000000000000000001673ffffffffffffffffffffffffffffffffffffffff9290921691821790556003546040517f1eb25e0a0000000000000000000000000000000000000000000000000000000081526004810191909152631eb25e0a906024015b600060405180830381600087803b15801561206e57600080fd5b505af11580156105ce573d6000803e3d6000fd5b6000821180156120925750600081115b6120f8576040517f08c379a000000000000000000000000000000000000000000000000000000000815260206004820152601a60248201527f436f6e7472616374206d7573742068617665207265776172647300000000000060448201526064016104c9565b6121028183612d66565b6040517f70a082310000000000000000000000000000000000000000000000000000000081523060048201527f000000000000000000000000000000000000000000000000000000000000000073ffffffffffffffffffffffffffffffffffffffff16906370a082319060240160206040518083038186803b15801561218757600080fd5b505afa15801561219b573d6000803e3d6000fd5b505050506040513d601f19601f820116820180604052508101906121bf9190612cc0565b1015612273576040517f08c379a000000000000000000000000000000000000000000000000000000000815260206004820152604160248201527f54686520636f6e7472616374206d7573742068617665206120746f6b656e206260448201527f616c616e6365206174206c656173742074686520746f74616c2072657761726460648201527f7300000000000000000000000000000000000000000000000000000000000000608482015260a4016104c9565b60025415612303576040517f08c379a000000000000000000000000000000000000000000000000000000000815260206004820152602160248201527f5468652073616c652063616e206f6e6c792062652073746172746564206f6e6360448201527f650000000000000000000000000000000000000000000000000000000000000060648201526084016104c9565b60028290556001819055426007819055600954600a546040805173ffffffffffffffffffffffffffffffffffffffff93841681529290911660208301528101919091527fc6d24fc08315711d71bc09888bcdf05dcb2eb1bcd720c876f40d75a8b314048790606001610f86565b6105ce3386868680806020026020016040519081016040528093929190818152602001838360200280828437600092019190915250889250879150610f929050565b6000808260601b90506040517f3d602d80600a3d3981f3363d3d373d3d3d363d7300000000000000000000000081528160148201527f5af43d82803e903d91602b57fd5bf3000000000000000000000000000000000060288201526037816000f0949350505050565b60006124457ff86c915dad5894faca0dfa067c58fdf4307406d255ed0a65db394f82b77f53d45490565b73ffffffffffffffffffffffffffffffffffffffff16146124e8576040517f08c379a000000000000000000000000000000000000000000000000000000000815260206004820152602860248201527f43616e206f6e6c792062652063616c6c656420647572696e6720696e6974696160448201527f6c697a6174696f6e00000000000000000000000000000000000000000000000060648201526084016104c9565b6124f18161257d565b6040517f5df8122f00000000000000000000000000000000000000000000000000000000815230600482015273ffffffffffffffffffffffffffffffffffffffff7f0000000000000000000000000000000000000000000000000000000000000000166024820152731820a4b7618bde71dce8cdc73aab6c95905fad2490635df8122f90604401612054565b60006125a77ff86c915dad5894faca0dfa067c58fdf4307406d255ed0a65db394f82b77f53d45490565b73ffffffffffffffffffffffffffffffffffffffff161461264a576040517f08c379a000000000000000000000000000000000000000000000000000000000815260206004820152602860248201527f43616e206f6e6c792062652063616c6c656420647572696e6720696e6974696160448201527f6c697a6174696f6e00000000000000000000000000000000000000000000000060648201526084016104c9565b60008173ffffffffffffffffffffffffffffffffffffffff16635c60da1b6040518163ffffffff1660e01b815260040160206040518083038186803b15801561269257600080fd5b505afa1580156126a6573d6000803e3d6000fd5b505050506040513d601f19601f820116820180604052508101906126ca9190612e68565b905073ffffffffffffffffffffffffffffffffffffffff811661276f576040517f08c379a000000000000000000000000000000000000000000000000000000000815260206004820152602c60248201527f696e697469616c697a6174696f6e206661696c7572653a206e6f7468696e672060448201527f746f20696d706c656d656e74000000000000000000000000000000000000000060648201526084016104c9565b6127788161277c565b5050565b8073ffffffffffffffffffffffffffffffffffffffff166127bb7ff86c915dad5894faca0dfa067c58fdf4307406d255ed0a65db394f82b77f53d45490565b73ffffffffffffffffffffffffffffffffffffffff161415612839576040517f08c379a000000000000000000000000000000000000000000000000000000000815260206004820152601f60248201527f496d706c656d656e746174696f6e20616c7265616479206d61746368696e670060448201526064016104c9565b7ff86c915dad5894faca0dfa067c58fdf4307406d255ed0a65db394f82b77f53d455565b60006020828403121561286f57600080fd5b5035919050565b73ffffffffffffffffffffffffffffffffffffffff8116811461289857600080fd5b50565b7f4e487b7100000000000000000000000000000000000000000000000000000000600052604160045260246000fd5b604051601f82017fffffffffffffffffffffffffffffffffffffffffffffffffffffffffffffffe016810167ffffffffffffffff811182821017156129115761291161289b565b604052919050565b6000806040838503121561292c57600080fd5b823561293781612876565b915060208381013567ffffffffffffffff8082111561295557600080fd5b818601915086601f83011261296957600080fd5b81358181111561297b5761297b61289b565b6129ab847fffffffffffffffffffffffffffffffffffffffffffffffffffffffffffffffe0601f840116016128ca565b915080825287848285010111156129c157600080fd5b80848401858401376000848284010152508093505050509250929050565b600080604083850312156129f257600080fd5b823591506020830135612a0481612876565b809150509250929050565b600060208284031215612a2157600080fd5b8135612a2c81612876565b9392505050565b60008060208385031215612a4657600080fd5b823567ffffffffffffffff80821115612a5e57600080fd5b818501915085601f830112612a7257600080fd5b813581811115612a8157600080fd5b866020828501011115612a9357600080fd5b60209290920196919550909350505050565b600080600080600060a08688031215612abd57600080fd5b8535612ac881612876565b94506020868101359450604087013567ffffffffffffffff80821115612aed57600080fd5b818901915089601f830112612b0157600080fd5b813581811115612b1357612b1361289b565b8060051b9150612b248483016128ca565b818152918301840191848101908c841115612b3e57600080fd5b938501935b83851015612b5c57843582529385019390850190612b43565b999c989b5098996060810135995060800135979650505050505050565b60008060408385031215612b8c57600080fd5b50508035926020909101359150565b600080600080600060808688031215612bb357600080fd5b85359450602086013567ffffffffffffffff80821115612bd257600080fd5b818801915088601f830112612be657600080fd5b813581811115612bf557600080fd5b8960208260051b8501011115612c0a57600080fd5b9699602092909201985095966040810135965060600135945092505050565b7f4e487b7100000000000000000000000000000000000000000000000000000000600052601160045260246000fd5b600082821015612c6a57612c6a612c29565b500390565b60008219821115612c8257612c82612c29565b500190565b60007fffffffffffffffffffffffffffffffffffffffffffffffffffffffffffffffff821415612cb957612cb9612c29565b5060010190565b600060208284031215612cd257600080fd5b5051919050565b600060208284031215612ceb57600080fd5b81518015158114612a2c57600080fd5b84815283602082015260606040820152816060820152818360808301376000818301608090810191909152601f9092017fffffffffffffffffffffffffffffffffffffffffffffffffffffffffffffffe01601019392505050565b8183823760009101908152919050565b6000817fffffffffffffffffffffffffffffffffffffffffffffffffffffffffffffffff0483118215151615612d9e57612d9e612c29565b500290565b7f4e487b7100000000000000000000000000000000000000000000000000000000600052601260045260246000fd5b600082612de157612de1612da3565b500490565b60006080820173ffffffffffffffffffffffffffffffffffffffff87168352602060808185015281875180845260a086019150828901935060005b81811015612e3d57845183529383019391830191600101612e21565b505060408501969096525050506060015292915050565b600082612e6357612e63612da3565b500690565b600060208284031215612e7a57600080fd5b8151612a2c8161287656fea164736f6c6343000809000af86c915dad5894faca0dfa067c58fdf4307406d255ed0a65db394f82b77f53d4",
  "linkReferences": {},
  "deployedLinkReferences": {}
}