{
  "contractName": "TimedPolicies",
  "abi": [
    {
      "inputs": [
        {
          "internalType": "contract Policy",
          "name": "_policy",
          "type": "address"
        },
        {
          "internalType": "contract PolicyProposals",
          "name": "_policyproposal",
          "type": "address"
        },
        {
          "internalType": "bytes32[]",
          "name": "_notificationHashes",
          "type": "bytes32[]"
        }
      ],
      "stateMutability": "nonpayable",
      "type": "constructor"
    },
    {
      "anonymous": false,
      "inputs": [
        {
          "indexed": false,
          "internalType": "address",
          "name": "contractAddress",
          "type": "address"
        }
      ],
      "name": "PolicyDecisionStarted",
      "type": "event"
    },
    {
      "inputs": [],
      "name": "CURRENCY_TIME",
      "outputs": [
        {
          "internalType": "uint256",
          "name": "",
          "type": "uint256"
        }
      ],
      "stateMutability": "view",
      "type": "function"
    },
    {
      "inputs": [],
      "name": "GENERATION_DURATION",
      "outputs": [
        {
          "internalType": "uint256",
          "name": "",
          "type": "uint256"
        }
      ],
      "stateMutability": "view",
      "type": "function"
    },
    {
      "inputs": [
        {
          "internalType": "bytes32",
          "name": "",
          "type": "bytes32"
        },
        {
          "internalType": "address",
          "name": "_addr",
          "type": "address"
        }
      ],
      "name": "canImplementInterfaceForAddress",
      "outputs": [
        {
          "internalType": "bytes32",
          "name": "",
          "type": "bytes32"
        }
      ],
      "stateMutability": "view",
      "type": "function"
    },
    {
      "inputs": [],
      "name": "clone",
      "outputs": [
        {
          "internalType": "address",
          "name": "",
          "type": "address"
        }
      ],
      "stateMutability": "nonpayable",
      "type": "function"
    },
    {
      "inputs": [],
      "name": "implementation",
      "outputs": [
        {
          "internalType": "address",
          "name": "_impl",
          "type": "address"
        }
      ],
      "stateMutability": "view",
      "type": "function"
    },
    {
      "inputs": [],
      "name": "internalGeneration",
      "outputs": [
        {
          "internalType": "uint256",
          "name": "",
          "type": "uint256"
        }
      ],
      "stateMutability": "view",
      "type": "function"
    },
    {
      "inputs": [],
      "name": "nextGenerationStart",
      "outputs": [
        {
          "internalType": "uint256",
          "name": "",
          "type": "uint256"
        }
      ],
      "stateMutability": "view",
      "type": "function"
    },
    {
      "inputs": [
        {
          "internalType": "uint256",
          "name": "",
          "type": "uint256"
        }
      ],
      "name": "notificationHashes",
      "outputs": [
        {
          "internalType": "bytes32",
          "name": "",
          "type": "bytes32"
        }
      ],
      "stateMutability": "view",
      "type": "function"
    },
    {
      "inputs": [],
      "name": "policy",
      "outputs": [
        {
          "internalType": "contract Policy",
          "name": "",
          "type": "address"
        }
      ],
      "stateMutability": "view",
      "type": "function"
    },
    {
      "inputs": [
        {
          "internalType": "address",
          "name": "_delegate",
          "type": "address"
        },
        {
          "internalType": "bytes",
          "name": "_data",
          "type": "bytes"
        }
      ],
      "name": "policyCommand",
      "outputs": [],
      "stateMutability": "nonpayable",
      "type": "function"
    },
    {
      "inputs": [],
      "name": "policyProposalImpl",
      "outputs": [
        {
          "internalType": "contract PolicyProposals",
          "name": "",
          "type": "address"
        }
      ],
      "stateMutability": "view",
      "type": "function"
    },
    {
      "inputs": [
        {
          "internalType": "address",
          "name": "_addr",
          "type": "address"
        }
      ],
      "name": "setExpectedInterfaceSet",
      "outputs": [],
      "stateMutability": "nonpayable",
      "type": "function"
    },
    {
      "inputs": [
        {
          "internalType": "address",
          "name": "_self",
          "type": "address"
        }
      ],
      "name": "initialize",
      "outputs": [],
      "stateMutability": "nonpayable",
      "type": "function"
    },
    {
      "inputs": [],
      "name": "getNotificationHashes",
      "outputs": [
        {
          "internalType": "bytes32[]",
          "name": "",
          "type": "bytes32[]"
        }
      ],
      "stateMutability": "view",
      "type": "function"
    },
    {
      "inputs": [],
      "name": "incrementGeneration",
      "outputs": [],
      "stateMutability": "nonpayable",
      "type": "function"
    },
    {
      "inputs": [],
      "name": "generation",
      "outputs": [
        {
          "internalType": "uint256",
          "name": "",
          "type": "uint256"
        }
      ],
      "stateMutability": "view",
      "type": "function"
    }
  ],
  "bytecode": "0x60a06040523480156200001157600080fd5b506040516200168238038062001682833981016040819052620000349162000225565b82806200004130620000fe565b6001600160a01b03908116608052604051635df8122f60e01b81523060048201529082166024820152731820a4b7618bde71dce8cdc73aab6c95905fad2490635df8122f90604401600060405180830381600087803b158015620000a457600080fd5b505af1158015620000b9573d6000803e3d6000fd5b5050600480546001600160a01b0319166001600160a01b03871617905550506103e8600155508051620000f49060039060208401906200018f565b505050506200031c565b6001600160a01b03811662000120600080516020620016628339815191525490565b6001600160a01b031614156200017c5760405162461bcd60e51b815260206004820152601f60248201527f496d706c656d656e746174696f6e20616c7265616479206d61746368696e6700604482015260640160405180910390fd5b6000805160206200166283398151915255565b828054828255906000526020600020908101928215620001cd579160200282015b82811115620001cd578251825591602001919060010190620001b0565b50620001db929150620001df565b5090565b5b80821115620001db5760008155600101620001e0565b6001600160a01b03811681146200020c57600080fd5b50565b634e487b7160e01b600052604160045260246000fd5b6000806000606084860312156200023b57600080fd5b83516200024881620001f6565b809350506020808501516200025d81620001f6565b60408601519093506001600160401b03808211156200027b57600080fd5b818701915087601f8301126200029057600080fd5b815181811115620002a557620002a56200020f565b8060051b604051601f19603f83011681018181108582111715620002cd57620002cd6200020f565b60405291825284820192508381018501918a831115620002ec57600080fd5b938501935b828510156200030c57845184529385019392850192620002f1565b8096505050505050509250925092565b608051611300620003626000396000818161010a0152818161022f015281816103d1015281816104e30152818161066301528181610b850152610cc801526113006000f3fe608060405234801561001057600080fd5b50600436106101005760003560e01c8063a071dfb311610097578063c4837d5c11610066578063c4837d5c146101f3578063c4d66de8146101fc578063de52dedc1461020f578063f83e57281461018b57600080fd5b8063a071dfb3146101bc578063a36dec77146101cf578063a38a0c2c146101d8578063b917ade5146101eb57600080fd5b8063249cb3fa116100d3578063249cb3fa1461017857806336ee2f6a1461018b57806339634e0c146101945780635c60da1b146101a757600080fd5b80630505c8c91461010557806309d7f23b1461014957806309ed46071461015e5780631721952214610166575b600080fd5b61012c7f000000000000000000000000000000000000000000000000000000000000000081565b6040516001600160a01b0390911681526020015b60405180910390f35b61015c610157366004611016565b610224565b005b61012c6102e2565b6001545b604051908152602001610140565b61016a6101863660046110be565b6103cd565b61016a61038481565b61015c6101a23660046110ee565b6104d8565b6000805160206112ab8339815191525461012c565b61016a6101ca366004611112565b610596565b61016a60025481565b60045461012c906001600160a01b031681565b61015c6105b7565b61016a60015481565b61015c61020a3660046110ee565b61078e565b6102176109f2565b604051610140919061112b565b336001600160a01b037f000000000000000000000000000000000000000000000000000000000000000016146102b85760405162461bcd60e51b815260206004820152602e60248201527f4f6e6c792074686520706f6c69637920636f6e7472616374206d61792063616c60448201526d36103a3434b99036b2ba3437b21760911b60648201526084015b60405180910390fd5b600080825160208401855af43d806000803e8180156102d657816000f35b816000fd5b5050505050565b6000306102fb6000805160206112ab8339815191525490565b6001600160a01b0316146103605760405162461bcd60e51b815260206004820152602660248201527f54686973206d6574686f642063616e6e6f742062652063616c6c6564206f6e20604482015265636c6f6e657360d01b60648201526084016102af565b600061036b30610a4a565b60405163189acdbd60e31b81523060048201529091506001600160a01b0382169063c4d66de890602401600060405180830381600087803b1580156103af57600080fd5b505af11580156103c3573d6000803e3d6000fd5b5092949350505050565b60007f00000000000000000000000000000000000000000000000000000000000000006001600160a01b0316826001600160a01b0316148061041c57506000546001600160a01b038381169116145b61048e5760405162461bcd60e51b815260206004820152603c60248201527f4f6e6c792074686520706f6c696379206f7220696e7465726661636520636f6e60448201527f74726163742063616e207365742074686520696e746572666163652e0000000060648201526084016102af565b6040517f455243313832305f4143434550545f4d41474943000000000000000000000000602082015260340160405160208183030381529060405280519060200120905092915050565b336001600160a01b037f000000000000000000000000000000000000000000000000000000000000000016146105675760405162461bcd60e51b815260206004820152602e60248201527f4f6e6c792074686520706f6c69637920636f6e7472616374206d61792063616c60448201526d36103a3434b99036b2ba3437b21760911b60648201526084016102af565b6000805473ffffffffffffffffffffffffffffffffffffffff19166001600160a01b0392909216919091179055565b600381815481106105a657600080fd5b600091825260209091200154905081565b600254421161062e5760405162461bcd60e51b815260206004820152603e60248201527f43616e6e6f7420757064617465207468652067656e65726174696f6e20636f7560448201527f6e74657220736f20736f6f6e3b20706c6561736520747279206c61746572000060648201526084016102af565b61063a61038442611185565b6002556001805490600061064d8361119d565b919050555060005b6003548110156107835760007f00000000000000000000000000000000000000000000000000000000000000006001600160a01b0316639e34681c600384815481106106a3576106a36111b8565b90600052602060002001546040518263ffffffff1660e01b81526004016106cc91815260200190565b60206040518083038186803b1580156106e457600080fd5b505afa1580156106f8573d6000803e3d6000fd5b505050506040513d601f19601f8201168201806040525081019061071c91906111ce565b9050806001600160a01b03166335bbc7fe6040518163ffffffff1660e01b8152600401600060405180830381600087803b15801561075957600080fd5b505af115801561076d573d6000803e3d6000fd5b50505050508061077c9061119d565b9050610655565b5061078c610ab3565b565b60006107a66000805160206112ab8339815191525490565b6001600160a01b03161461080d5760405162461bcd60e51b815260206004820152602860248201527f43616e206f6e6c792062652063616c6c656420647572696e6720696e697469616044820152673634bd30ba34b7b760c11b60648201526084016102af565b61081681610c23565b806001600160a01b031663a38a0c2c6040518163ffffffff1660e01b815260040160206040518083038186803b15801561084f57600080fd5b505afa158015610863573d6000803e3d6000fd5b505050506040513d601f19601f8201168201806040525081019061088791906111ce565b6004805473ffffffffffffffffffffffffffffffffffffffff19166001600160a01b0392831617815560408051633120df5760e21b815290519284169263c4837d5c92828101926020929190829003018186803b1580156108e757600080fd5b505afa1580156108fb573d6000803e3d6000fd5b505050506040513d601f19601f8201168201806040525081019061091f91906111eb565b6001819055506000816001600160a01b031663de52dedc6040518163ffffffff1660e01b815260040160006040518083038186803b15801561096057600080fd5b505afa158015610974573d6000803e3d6000fd5b505050506040513d6000823e601f3d908101601f1916820160405261099c9190810190611204565b905060005b81518110156109ed5760038282815181106109be576109be6111b8565b602090810291909101810151825460018101845560009384529190922001556109e68161119d565b90506109a1565b505050565b60606003805480602002602001604051908101604052809291908181526020018280548015610a4057602002820191906000526020600020905b815481526020019060010190808311610a2c575b5050505050905090565b6000808260601b90506040517f3d602d80600a3d3981f3363d3d373d3d3d363d7300000000000000000000000081528160148201527f5af43d82803e903d91602b57fd5bf3000000000000000000000000000000000060288201526037816000f0949350505050565b6000600460009054906101000a90046001600160a01b03166001600160a01b03166309ed46076040518163ffffffff1660e01b8152600401602060405180830381600087803b158015610b0557600080fd5b505af1158015610b19573d6000803e3d6000fd5b505050506040513d601f19601f82011682018060405250810190610b3d91906111ce565b6040516343c8dfc160e11b81527f331e3a11698d428947c09d6cfecc92b2ccbc4a527e4e795d850152babfaff37a60048201526001600160a01b0380831660248301529192507f000000000000000000000000000000000000000000000000000000000000000090911690638791bf8290604401600060405180830381600087803b158015610bcb57600080fd5b505af1158015610bdf573d6000803e3d6000fd5b50506040516001600160a01b03841681527ffe92a71de3b441702ef3e6d933135000b2137d957d2ec0c592d69cc24faee0c69250602001905060405180910390a150565b6000610c3b6000805160206112ab8339815191525490565b6001600160a01b031614610ca25760405162461bcd60e51b815260206004820152602860248201527f43616e206f6e6c792062652063616c6c656420647572696e6720696e697469616044820152673634bd30ba34b7b760c11b60648201526084016102af565b610cab81610d3a565b604051635df8122f60e01b81523060048201526001600160a01b037f0000000000000000000000000000000000000000000000000000000000000000166024820152731820a4b7618bde71dce8cdc73aab6c95905fad2490635df8122f90604401600060405180830381600087803b158015610d2657600080fd5b505af11580156102db573d6000803e3d6000fd5b6000610d526000805160206112ab8339815191525490565b6001600160a01b031614610db95760405162461bcd60e51b815260206004820152602860248201527f43616e206f6e6c792062652063616c6c656420647572696e6720696e697469616044820152673634bd30ba34b7b760c11b60648201526084016102af565b610dc281610dc5565b50565b6000610ddd6000805160206112ab8339815191525490565b6001600160a01b031614610e445760405162461bcd60e51b815260206004820152602860248201527f43616e206f6e6c792062652063616c6c656420647572696e6720696e697469616044820152673634bd30ba34b7b760c11b60648201526084016102af565b6000816001600160a01b0316635c60da1b6040518163ffffffff1660e01b815260040160206040518083038186803b158015610e7f57600080fd5b505afa158015610e93573d6000803e3d6000fd5b505050506040513d601f19601f82011682018060405250810190610eb791906111ce565b90506001600160a01b038116610f245760405162461bcd60e51b815260206004820152602c60248201527f696e697469616c697a6174696f6e206661696c7572653a206e6f7468696e672060448201526b1d1bc81a5b5c1b195b595b9d60a21b60648201526084016102af565b610f2d81610f31565b5050565b806001600160a01b0316610f516000805160206112ab8339815191525490565b6001600160a01b03161415610fa85760405162461bcd60e51b815260206004820152601f60248201527f496d706c656d656e746174696f6e20616c7265616479206d61746368696e670060448201526064016102af565b6000805160206112ab83398151915255565b6001600160a01b0381168114610dc257600080fd5b634e487b7160e01b600052604160045260246000fd5b604051601f8201601f1916810167ffffffffffffffff8111828210171561100e5761100e610fcf565b604052919050565b6000806040838503121561102957600080fd5b823561103481610fba565b915060208381013567ffffffffffffffff8082111561105257600080fd5b818601915086601f83011261106657600080fd5b81358181111561107857611078610fcf565b61108a601f8201601f19168501610fe5565b915080825287848285010111156110a057600080fd5b80848401858401376000848284010152508093505050509250929050565b600080604083850312156110d157600080fd5b8235915060208301356110e381610fba565b809150509250929050565b60006020828403121561110057600080fd5b813561110b81610fba565b9392505050565b60006020828403121561112457600080fd5b5035919050565b6020808252825182820181905260009190848201906040850190845b8181101561116357835183529284019291840191600101611147565b50909695505050505050565b634e487b7160e01b600052601160045260246000fd5b600082198211156111985761119861116f565b500190565b60006000198214156111b1576111b161116f565b5060010190565b634e487b7160e01b600052603260045260246000fd5b6000602082840312156111e057600080fd5b815161110b81610fba565b6000602082840312156111fd57600080fd5b5051919050565b6000602080838503121561121757600080fd5b825167ffffffffffffffff8082111561122f57600080fd5b818501915085601f83011261124357600080fd5b81518181111561125557611255610fcf565b8060051b9150611266848301610fe5565b818152918301840191848101908884111561128057600080fd5b938501935b8385101561129e57845182529385019390850190611285565b9897505050505050505056fef86c915dad5894faca0dfa067c58fdf4307406d255ed0a65db394f82b77f53d4a264697066735822122078980d9a2f14e2f503977462829c924bda466a51ee4654e2c709aa75c26aff8064736f6c63430008090033f86c915dad5894faca0dfa067c58fdf4307406d255ed0a65db394f82b77f53d4",
  "immutableReferences": {
    "12039": [
      {
        "length": 32,
        "start": 266
      },
      {
        "length": 32,
        "start": 559
      },
      {
        "length": 32,
        "start": 977
      },
      {
        "length": 32,
        "start": 1251
      },
      {
        "length": 32,
        "start": 1635
      },
      {
        "length": 32,
        "start": 2949
      },
      {
        "length": 32,
        "start": 3272
      }
    ]
  },
  "source": "// SPDX-License-Identifier: MIT\npragma solidity ^0.8.0;\n\nimport \"../policy/PolicedUtils.sol\";\nimport \"../policy/Policy.sol\";\nimport \"../utils/TimeUtils.sol\";\nimport \"./IGenerationIncrease.sol\";\nimport \"./IGeneration.sol\";\nimport \"./PolicyProposals.sol\";\n\n/** @title TimedPolicies\n * Oversees the time-based recurring processes that allow governance of the\n * Eco currency.\n */\ncontract TimedPolicies is PolicedUtils, TimeUtils, IGeneration {\n    /** The minimum number of days between inflation votes.\n     */\n    uint256 public constant CURRENCY_TIME = 15 minutes;\n    uint256 public constant GENERATION_DURATION = 15 minutes;\n    uint256 private constant GENERATION_START = 1000;\n    // Work around the bug in prettier for now\n    uint256 public internalGeneration;\n    uint256 public nextGenerationStart;\n    bytes32[] public notificationHashes;\n\n    /** The on-chain address for the policy proposal process contract. The\n     * contract is cloned for every policy decision process.\n     */\n    PolicyProposals public policyProposalImpl;\n\n    /** An event indicating that a policy decision process has started. The\n     * address included indicates where on chain the relevant contract can be\n     * found. This event is emitted by `startPolicyProposals` to indicate that\n     * a new decision process has started, and to help track historical vote\n     * contracts.\n     *\n     * @param contractAddress The address of the PolicyProposals contract.\n     */\n    event PolicyDecisionStarted(address contractAddress);\n\n    constructor(\n        Policy _policy,\n        PolicyProposals _policyproposal,\n        bytes32[] memory _notificationHashes\n    ) PolicedUtils(_policy) {\n        policyProposalImpl = _policyproposal;\n        internalGeneration = GENERATION_START;\n        notificationHashes = _notificationHashes;\n    }\n\n    function initialize(address _self) public override onlyConstruction {\n        super.initialize(_self);\n        // implementations are left mutable for easier governance\n        policyProposalImpl = TimedPolicies(_self).policyProposalImpl();\n\n        internalGeneration = TimedPolicies(_self).internalGeneration();\n        bytes32[] memory hashes = TimedPolicies(_self).getNotificationHashes();\n        for (uint256 i = 0; i < hashes.length; ++i) {\n            notificationHashes.push(hashes[i]);\n        }\n    }\n\n    function getNotificationHashes() public view returns (bytes32[] memory) {\n        return notificationHashes;\n    }\n\n    function incrementGeneration() external {\n        require(\n            getTime() > nextGenerationStart,\n            \"Cannot update the generation counter so soon; please try later\"\n        );\n\n        nextGenerationStart = getTime() + GENERATION_DURATION;\n        internalGeneration++;\n\n        for (uint256 i = 0; i < notificationHashes.length; ++i) {\n            IGenerationIncrease notified = IGenerationIncrease(\n                policy.policyFor(notificationHashes[i])\n            );\n            // require(address(notifier) != address(0), \"Broken state\");\n            notified.notifyGenerationIncrease();\n        }\n\n        startPolicyProposal();\n    }\n\n    function generation() external view override returns (uint256) {\n        return internalGeneration;\n    }\n\n    /** Begin a policies decision process.\n     *\n     * The proposals contract specified by `policyProposalImpl` is cloned and\n     * granted the necessary permissions to run a policies decision process.\n     *\n     * The decision process begins immediately.\n     *\n     * Use `policyFor(ID_POLICY_PROPOSALS)` to find the resulting contract\n     * address, or watch for the PolicyDecisionStarted event.\n     */\n    function startPolicyProposal() internal {\n        PolicyProposals _proposals = PolicyProposals(\n            policyProposalImpl.clone()\n        );\n        policy.setPolicy(ID_POLICY_PROPOSALS, address(_proposals));\n        emit PolicyDecisionStarted(address(_proposals));\n    }\n}\n",
  "sourcePath": "/Users/dirksmac/dev/eco/currency/contracts/governance/TimedPolicies.sol",
  "compiler": {
    "name": "solc",
    "version": "0.8.9+commit.e5eed63a.Emscripten.clang"
  },
  "schemaVersion": "3.4.3",
  "updatedAt": "2022-07-01T19:00:50.617Z",
  "devdoc": {
    "events": {
      "PolicyDecisionStarted(address)": {
        "params": {
          "contractAddress": "The address of the PolicyProposals contract."
        }
      }
    },
    "kind": "dev",
    "methods": {
      "canImplementInterfaceForAddress(bytes32,address)": {
        "params": {
          "_addr": "The address of the contract we might act on behalf of."
        }
      },
      "initialize(address)": {
        "params": {
          "_self": "The address of the original contract deployment (as opposed              to the address of the proxy contract, which takes the place              of `this`)."
        }
      },
      "policyCommand(address,bytes)": {
        "params": {
          "_data": "The call message/data to execute on.",
          "_delegate": "The address of the contract to delegate execution to."
        }
      }
    },
    "title": "TimedPolicies Oversees the time-based recurring processes that allow governance of the Eco currency.",
    "version": 1
  },
  "userdoc": {
    "events": {
      "PolicyDecisionStarted(address)": {
        "notice": "An event indicating that a policy decision process has started. The address included indicates where on chain the relevant contract can be found. This event is emitted by `startPolicyProposals` to indicate that a new decision process has started, and to help track historical vote contracts."
      }
    },
    "kind": "user",
    "methods": {
      "CURRENCY_TIME()": {
        "notice": "The minimum number of days between inflation votes."
      },
      "canImplementInterfaceForAddress(bytes32,address)": {
        "notice": "ERC1820 permissioning interface"
      },
      "clone()": {
        "notice": "Create a clone of this contract Creates a clone of this contract by instantiating a proxy at a new address and initializing it based on the current contract. Uses optionality.io's CloneFactory functionality. This is used to save gas cost during deployments. Rather than including the full contract code in every contract that might instantiate it we can deploy it once and reference the location it was deployed to. Then calls to clone() can be used to create instances as needed without increasing the code size of the instantiating contract."
      },
      "implementation()": {
        "notice": "Get the address of the proxy target contract."
      },
      "initialize(address)": {
        "notice": "Initialize the contract (replaces constructor) See documentation for Policed for an explanation."
      },
      "policy()": {
        "notice": "The address of the root policy instance overseeing this instance. This address can be used for ERC1820 lookup of other components, ERC1820 lookup of role policies, and interaction with the policy hierarchy."
      },
      "policyCommand(address,bytes)": {
        "notice": "Execute code as indicated by the managing policy contract We allow the managing policy contract to execute arbitrary code in our context by allowing it to specify an implementation address and some message data, and then using delegatecall to execute the code at the implementation address, passing in the message data, all within our own address space."
      },
      "policyProposalImpl()": {
        "notice": "The on-chain address for the policy proposal process contract. The contract is cloned for every policy decision process."
      },
      "setExpectedInterfaceSet(address)": {
        "notice": "Set the expected interface set"
      }
    },
    "version": 1
  }
}