{
  "_format": "hh-sol-artifact-1",
  "contractName": "TimedPolicies",
  "sourceName": "contracts/governance/TimedPolicies.sol",
  "abi": [
    {
      "inputs": [
        {
          "internalType": "contract Policy",
          "name": "_policy",
          "type": "address"
        },
        {
          "internalType": "contract PolicyProposals",
          "name": "_policyproposal",
          "type": "address"
        },
        {
          "internalType": "bytes32[]",
          "name": "_notificationHashes",
          "type": "bytes32[]"
        }
      ],
      "stateMutability": "nonpayable",
      "type": "constructor"
    },
    {
      "anonymous": false,
      "inputs": [
        {
          "indexed": false,
          "internalType": "address",
          "name": "contractAddress",
          "type": "address"
        }
      ],
      "name": "PolicyDecisionStart",
      "type": "event"
    },
    {
      "inputs": [],
      "name": "CURRENCY_TIME",
      "outputs": [
        {
          "internalType": "uint256",
          "name": "",
          "type": "uint256"
        }
      ],
      "stateMutability": "view",
      "type": "function"
    },
    {
      "inputs": [],
      "name": "GENERATION_DURATION",
      "outputs": [
        {
          "internalType": "uint256",
          "name": "",
          "type": "uint256"
        }
      ],
      "stateMutability": "view",
      "type": "function"
    },
    {
      "inputs": [
        {
          "internalType": "bytes32",
          "name": "",
          "type": "bytes32"
        },
        {
          "internalType": "address",
          "name": "_addr",
          "type": "address"
        }
      ],
      "name": "canImplementInterfaceForAddress",
      "outputs": [
        {
          "internalType": "bytes32",
          "name": "",
          "type": "bytes32"
        }
      ],
      "stateMutability": "view",
      "type": "function"
    },
    {
      "inputs": [],
      "name": "clone",
      "outputs": [
        {
          "internalType": "address",
          "name": "",
          "type": "address"
        }
      ],
      "stateMutability": "nonpayable",
      "type": "function"
    },
    {
      "inputs": [],
      "name": "generation",
      "outputs": [
        {
          "internalType": "uint256",
          "name": "",
          "type": "uint256"
        }
      ],
      "stateMutability": "view",
      "type": "function"
    },
    {
      "inputs": [],
      "name": "getNotificationHashes",
      "outputs": [
        {
          "internalType": "bytes32[]",
          "name": "",
          "type": "bytes32[]"
        }
      ],
      "stateMutability": "view",
      "type": "function"
    },
    {
      "inputs": [],
      "name": "implementation",
      "outputs": [
        {
          "internalType": "address",
          "name": "_impl",
          "type": "address"
        }
      ],
      "stateMutability": "view",
      "type": "function"
    },
    {
      "inputs": [],
      "name": "incrementGeneration",
      "outputs": [],
      "stateMutability": "nonpayable",
      "type": "function"
    },
    {
      "inputs": [
        {
          "internalType": "address",
          "name": "_self",
          "type": "address"
        }
      ],
      "name": "initialize",
      "outputs": [],
      "stateMutability": "nonpayable",
      "type": "function"
    },
    {
      "inputs": [],
      "name": "nextGenerationStart",
      "outputs": [
        {
          "internalType": "uint256",
          "name": "",
          "type": "uint256"
        }
      ],
      "stateMutability": "view",
      "type": "function"
    },
    {
      "inputs": [
        {
          "internalType": "uint256",
          "name": "",
          "type": "uint256"
        }
      ],
      "name": "notificationHashes",
      "outputs": [
        {
          "internalType": "bytes32",
          "name": "",
          "type": "bytes32"
        }
      ],
      "stateMutability": "view",
      "type": "function"
    },
    {
      "inputs": [],
      "name": "policy",
      "outputs": [
        {
          "internalType": "contract Policy",
          "name": "",
          "type": "address"
        }
      ],
      "stateMutability": "view",
      "type": "function"
    },
    {
      "inputs": [
        {
          "internalType": "address",
          "name": "_delegate",
          "type": "address"
        },
        {
          "internalType": "bytes",
          "name": "_data",
          "type": "bytes"
        }
      ],
      "name": "policyCommand",
      "outputs": [],
      "stateMutability": "nonpayable",
      "type": "function"
    },
    {
      "inputs": [],
      "name": "policyProposalImpl",
      "outputs": [
        {
          "internalType": "contract PolicyProposals",
          "name": "",
          "type": "address"
        }
      ],
      "stateMutability": "view",
      "type": "function"
    },
    {
      "inputs": [
        {
          "internalType": "address",
          "name": "_addr",
          "type": "address"
        }
      ],
      "name": "setExpectedInterfaceSet",
      "outputs": [],
      "stateMutability": "nonpayable",
      "type": "function"
    }
  ],
  "bytecode": "0x60a06040523480156200001157600080fd5b5060405162001b2338038062001b23833981016040819052620000349162000225565b82806200004130620000fe565b6001600160a01b03908116608052604051635df8122f60e01b81523060048201529082166024820152731820a4b7618bde71dce8cdc73aab6c95905fad2490635df8122f90604401600060405180830381600087803b158015620000a457600080fd5b505af1158015620000b9573d6000803e3d6000fd5b5050600480546001600160a01b0319166001600160a01b03871617905550506103e8600155508051620000f49060039060208401906200018f565b505050506200031c565b6001600160a01b0381166200012060008051602062001b038339815191525490565b6001600160a01b031614156200017c5760405162461bcd60e51b815260206004820152601f60248201527f496d706c656d656e746174696f6e20616c7265616479206d61746368696e6700604482015260640160405180910390fd5b60008051602062001b0383398151915255565b828054828255906000526020600020908101928215620001cd579160200282015b82811115620001cd578251825591602001919060010190620001b0565b50620001db929150620001df565b5090565b5b80821115620001db5760008155600101620001e0565b6001600160a01b03811681146200020c57600080fd5b50565b634e487b7160e01b600052604160045260246000fd5b6000806000606084860312156200023b57600080fd5b83516200024881620001f6565b809350506020808501516200025d81620001f6565b60408601519093506001600160401b03808211156200027b57600080fd5b818701915087601f8301126200029057600080fd5b815181811115620002a557620002a56200020f565b8060051b604051601f19603f83011681018181108582111715620002cd57620002cd6200020f565b60405291825284820192508381018501918a831115620002ec57600080fd5b938501935b828510156200030c57845184529385019392850192620002f1565b8096505050505050509250925092565b6080516117a2620003616000396000818160ff015281816102590152818161049a015281816105fa015281816107d801528181610e0d0152610fd101526117a26000f3fe608060405234801561001057600080fd5b50600436106100f55760003560e01c80635c60da1b11610097578063b917ade511610066578063b917ade514610211578063c4d66de814610219578063de52dedc1461022c578063f83e57281461019257600080fd5b80635c60da1b146101ae578063a071dfb3146101d5578063a36dec77146101e8578063a38a0c2c146101f157600080fd5b806317219522116100d35780631721952214610168578063249cb3fa1461017f57806336ee2f6a1461019257806339634e0c1461019b57600080fd5b80630505c8c9146100fa57806309d7f23b1461014b57806309ed460714610160575b600080fd5b6101217f000000000000000000000000000000000000000000000000000000000000000081565b60405173ffffffffffffffffffffffffffffffffffffffff90911681526020015b60405180910390f35b61015e610159366004611493565b610241565b005b610121610335565b61017160015481565b604051908152602001610142565b61017161018d366004611559565b610496565b61017161038481565b61015e6101a9366004611589565b6105e2565b7ff86c915dad5894faca0dfa067c58fdf4307406d255ed0a65db394f82b77f53d454610121565b6101716101e33660046115ad565b6106ee565b61017160025481565b6004546101219073ffffffffffffffffffffffffffffffffffffffff1681565b61015e61070f565b61015e610227366004611589565b61091f565b610234610c3a565b60405161014291906115c6565b3373ffffffffffffffffffffffffffffffffffffffff7f0000000000000000000000000000000000000000000000000000000000000000161461030b576040517f08c379a000000000000000000000000000000000000000000000000000000000815260206004820152602e60248201527f4f6e6c792074686520706f6c69637920636f6e7472616374206d61792063616c60448201527f6c2074686973206d6574686f642e00000000000000000000000000000000000060648201526084015b60405180910390fd5b600080825160208401855af43d806000803e81801561032957816000f35b816000fd5b5050505050565b6000306103607ff86c915dad5894faca0dfa067c58fdf4307406d255ed0a65db394f82b77f53d45490565b73ffffffffffffffffffffffffffffffffffffffff1614610403576040517f08c379a000000000000000000000000000000000000000000000000000000000815260206004820152602660248201527f54686973206d6574686f642063616e6e6f742062652063616c6c6564206f6e2060448201527f636c6f6e657300000000000000000000000000000000000000000000000000006064820152608401610302565b600061040e30610c92565b6040517fc4d66de800000000000000000000000000000000000000000000000000000000815230600482015290915073ffffffffffffffffffffffffffffffffffffffff82169063c4d66de890602401600060405180830381600087803b15801561047857600080fd5b505af115801561048c573d6000803e3d6000fd5b5092949350505050565b60007f000000000000000000000000000000000000000000000000000000000000000073ffffffffffffffffffffffffffffffffffffffff168273ffffffffffffffffffffffffffffffffffffffff16148061050c575060005473ffffffffffffffffffffffffffffffffffffffff8381169116145b610598576040517f08c379a000000000000000000000000000000000000000000000000000000000815260206004820152603c60248201527f4f6e6c792074686520706f6c696379206f7220696e7465726661636520636f6e60448201527f74726163742063616e207365742074686520696e746572666163652e000000006064820152608401610302565b6040517f455243313832305f4143434550545f4d41474943000000000000000000000000602082015260340160405160208183030381529060405280519060200120905092915050565b3373ffffffffffffffffffffffffffffffffffffffff7f000000000000000000000000000000000000000000000000000000000000000016146106a7576040517f08c379a000000000000000000000000000000000000000000000000000000000815260206004820152602e60248201527f4f6e6c792074686520706f6c69637920636f6e7472616374206d61792063616c60448201527f6c2074686973206d6574686f642e0000000000000000000000000000000000006064820152608401610302565b600080547fffffffffffffffffffffffff00000000000000000000000000000000000000001673ffffffffffffffffffffffffffffffffffffffff92909216919091179055565b600381815481106106fe57600080fd5b600091825260209091200154905081565b600254429081116107a2576040517f08c379a000000000000000000000000000000000000000000000000000000000815260206004820152603e60248201527f43616e6e6f7420757064617465207468652067656e65726174696f6e20636f7560448201527f6e74657220736f20736f6f6e3b20706c6561736520747279206c6174657200006064820152608401610302565b6107ae61038482611639565b600255600180549060006107c183611651565b909155505060035460005b818110156109125760007f000000000000000000000000000000000000000000000000000000000000000073ffffffffffffffffffffffffffffffffffffffff16639e34681c600384815481106108255761082561168a565b90600052602060002001546040518263ffffffff1660e01b815260040161084e91815260200190565b60206040518083038186803b15801561086657600080fd5b505afa15801561087a573d6000803e3d6000fd5b505050506040513d601f19601f8201168201806040525081019061089e91906116b9565b90508073ffffffffffffffffffffffffffffffffffffffff166335bbc7fe6040518163ffffffff1660e01b8152600401600060405180830381600087803b1580156108e857600080fd5b505af11580156108fc573d6000803e3d6000fd5b50505050508061090b90611651565b90506107cc565b5061091b610cfb565b5050565b60006109497ff86c915dad5894faca0dfa067c58fdf4307406d255ed0a65db394f82b77f53d45490565b73ffffffffffffffffffffffffffffffffffffffff16146109ec576040517f08c379a000000000000000000000000000000000000000000000000000000000815260206004820152602860248201527f43616e206f6e6c792062652063616c6c656420647572696e6720696e6974696160448201527f6c697a6174696f6e0000000000000000000000000000000000000000000000006064820152608401610302565b6109f581610eb8565b8073ffffffffffffffffffffffffffffffffffffffff1663a38a0c2c6040518163ffffffff1660e01b815260040160206040518083038186803b158015610a3b57600080fd5b505afa158015610a4f573d6000803e3d6000fd5b505050506040513d601f19601f82011682018060405250810190610a7391906116b9565b600480547fffffffffffffffffffffffff00000000000000000000000000000000000000001673ffffffffffffffffffffffffffffffffffffffff928316178155604080517f17219522000000000000000000000000000000000000000000000000000000008152905192841692631721952292828101926020929190829003018186803b158015610b0457600080fd5b505afa158015610b18573d6000803e3d6000fd5b505050506040513d601f19601f82011682018060405250810190610b3c91906116d6565b60018190555060008173ffffffffffffffffffffffffffffffffffffffff1663de52dedc6040518163ffffffff1660e01b815260040160006040518083038186803b158015610b8a57600080fd5b505afa158015610b9e573d6000803e3d6000fd5b505050506040513d6000823e601f3d9081017fffffffffffffffffffffffffffffffffffffffffffffffffffffffffffffffe0168201604052610be491908101906116ef565b905060005b8151811015610c35576003828281518110610c0657610c0661168a565b60209081029190910181015182546001810184556000938452919092200155610c2e81611651565b9050610be9565b505050565b60606003805480602002602001604051908101604052809291908181526020018280548015610c8857602002820191906000526020600020905b815481526020019060010190808311610c74575b5050505050905090565b6000808260601b90506040517f3d602d80600a3d3981f3363d3d373d3d3d363d7300000000000000000000000081528160148201527f5af43d82803e903d91602b57fd5bf3000000000000000000000000000000000060288201526037816000f0949350505050565b6000600460009054906101000a900473ffffffffffffffffffffffffffffffffffffffff1673ffffffffffffffffffffffffffffffffffffffff166309ed46076040518163ffffffff1660e01b8152600401602060405180830381600087803b158015610d6757600080fd5b505af1158015610d7b573d6000803e3d6000fd5b505050506040513d601f19601f82011682018060405250810190610d9f91906116b9565b6040517f8791bf820000000000000000000000000000000000000000000000000000000081527f331e3a11698d428947c09d6cfecc92b2ccbc4a527e4e795d850152babfaff37a600482015273ffffffffffffffffffffffffffffffffffffffff80831660248301529192507f000000000000000000000000000000000000000000000000000000000000000090911690638791bf8290604401600060405180830381600087803b158015610e5357600080fd5b505af1158015610e67573d6000803e3d6000fd5b505060405173ffffffffffffffffffffffffffffffffffffffff841681527f3964a29267eae478a6d0c0c73cd9c6c037624d8bc7bdb41caff291dee09f8ad19250602001905060405180910390a150565b6000610ee27ff86c915dad5894faca0dfa067c58fdf4307406d255ed0a65db394f82b77f53d45490565b73ffffffffffffffffffffffffffffffffffffffff1614610f85576040517f08c379a000000000000000000000000000000000000000000000000000000000815260206004820152602860248201527f43616e206f6e6c792062652063616c6c656420647572696e6720696e6974696160448201527f6c697a6174696f6e0000000000000000000000000000000000000000000000006064820152608401610302565b610f8e81611043565b6040517f5df8122f00000000000000000000000000000000000000000000000000000000815230600482015273ffffffffffffffffffffffffffffffffffffffff7f0000000000000000000000000000000000000000000000000000000000000000166024820152731820a4b7618bde71dce8cdc73aab6c95905fad2490635df8122f90604401600060405180830381600087803b15801561102f57600080fd5b505af115801561032e573d6000803e3d6000fd5b600061106d7ff86c915dad5894faca0dfa067c58fdf4307406d255ed0a65db394f82b77f53d45490565b73ffffffffffffffffffffffffffffffffffffffff1614611110576040517f08c379a000000000000000000000000000000000000000000000000000000000815260206004820152602860248201527f43616e206f6e6c792062652063616c6c656420647572696e6720696e6974696160448201527f6c697a6174696f6e0000000000000000000000000000000000000000000000006064820152608401610302565b6111198161111c565b50565b60006111467ff86c915dad5894faca0dfa067c58fdf4307406d255ed0a65db394f82b77f53d45490565b73ffffffffffffffffffffffffffffffffffffffff16146111e9576040517f08c379a000000000000000000000000000000000000000000000000000000000815260206004820152602860248201527f43616e206f6e6c792062652063616c6c656420647572696e6720696e6974696160448201527f6c697a6174696f6e0000000000000000000000000000000000000000000000006064820152608401610302565b60008173ffffffffffffffffffffffffffffffffffffffff16635c60da1b6040518163ffffffff1660e01b815260040160206040518083038186803b15801561123157600080fd5b505afa158015611245573d6000803e3d6000fd5b505050506040513d601f19601f8201168201806040525081019061126991906116b9565b905073ffffffffffffffffffffffffffffffffffffffff811661130e576040517f08c379a000000000000000000000000000000000000000000000000000000000815260206004820152602c60248201527f696e697469616c697a6174696f6e206661696c7572653a206e6f7468696e672060448201527f746f20696d706c656d656e7400000000000000000000000000000000000000006064820152608401610302565b61091b818073ffffffffffffffffffffffffffffffffffffffff166113517ff86c915dad5894faca0dfa067c58fdf4307406d255ed0a65db394f82b77f53d45490565b73ffffffffffffffffffffffffffffffffffffffff1614156113cf576040517f08c379a000000000000000000000000000000000000000000000000000000000815260206004820152601f60248201527f496d706c656d656e746174696f6e20616c7265616479206d61746368696e67006044820152606401610302565b7ff86c915dad5894faca0dfa067c58fdf4307406d255ed0a65db394f82b77f53d455565b73ffffffffffffffffffffffffffffffffffffffff8116811461111957600080fd5b7f4e487b7100000000000000000000000000000000000000000000000000000000600052604160045260246000fd5b604051601f82017fffffffffffffffffffffffffffffffffffffffffffffffffffffffffffffffe016810167ffffffffffffffff8111828210171561148b5761148b611415565b604052919050565b600080604083850312156114a657600080fd5b82356114b1816113f3565b915060208381013567ffffffffffffffff808211156114cf57600080fd5b818601915086601f8301126114e357600080fd5b8135818111156114f5576114f5611415565b611525847fffffffffffffffffffffffffffffffffffffffffffffffffffffffffffffffe0601f84011601611444565b9150808252878482850101111561153b57600080fd5b80848401858401376000848284010152508093505050509250929050565b6000806040838503121561156c57600080fd5b82359150602083013561157e816113f3565b809150509250929050565b60006020828403121561159b57600080fd5b81356115a6816113f3565b9392505050565b6000602082840312156115bf57600080fd5b5035919050565b6020808252825182820181905260009190848201906040850190845b818110156115fe578351835292840192918401916001016115e2565b50909695505050505050565b7f4e487b7100000000000000000000000000000000000000000000000000000000600052601160045260246000fd5b6000821982111561164c5761164c61160a565b500190565b60007fffffffffffffffffffffffffffffffffffffffffffffffffffffffffffffffff8214156116835761168361160a565b5060010190565b7f4e487b7100000000000000000000000000000000000000000000000000000000600052603260045260246000fd5b6000602082840312156116cb57600080fd5b81516115a6816113f3565b6000602082840312156116e857600080fd5b5051919050565b6000602080838503121561170257600080fd5b825167ffffffffffffffff8082111561171a57600080fd5b818501915085601f83011261172e57600080fd5b81518181111561174057611740611415565b8060051b9150611751848301611444565b818152918301840191848101908884111561176b57600080fd5b938501935b8385101561178957845182529385019390850190611770565b9897505050505050505056fea164736f6c6343000809000af86c915dad5894faca0dfa067c58fdf4307406d255ed0a65db394f82b77f53d4",
  "linkReferences": {},
  "deployedLinkReferences": {}
}