{
  "_format": "hh-sol-artifact-1",
  "contractName": "TrustedNodes",
  "sourceName": "contracts/governance/monetary/TrustedNodes.sol",
  "abi": [
    {
      "inputs": [
        {
          "internalType": "contract Policy",
          "name": "_policy",
          "type": "address"
        },
        {
          "internalType": "address[]",
          "name": "_initialTrustedNodes",
          "type": "address[]"
        },
        {
          "internalType": "uint256",
          "name": "_voteReward",
          "type": "uint256"
        }
      ],
      "stateMutability": "nonpayable",
      "type": "constructor"
    },
    {
      "anonymous": false,
      "inputs": [
        {
          "indexed": true,
          "internalType": "address",
          "name": "node",
          "type": "address"
        },
        {
          "indexed": false,
          "internalType": "uint256",
          "name": "cohort",
          "type": "uint256"
        }
      ],
      "name": "TrustedNodeAddition",
      "type": "event"
    },
    {
      "anonymous": false,
      "inputs": [
        {
          "indexed": true,
          "internalType": "address",
          "name": "node",
          "type": "address"
        },
        {
          "indexed": false,
          "internalType": "uint256",
          "name": "cohort",
          "type": "uint256"
        }
      ],
      "name": "TrustedNodeRemoval",
      "type": "event"
    },
    {
      "anonymous": false,
      "inputs": [
        {
          "indexed": true,
          "internalType": "address",
          "name": "trustee",
          "type": "address"
        },
        {
          "indexed": false,
          "internalType": "uint256",
          "name": "amount",
          "type": "uint256"
        }
      ],
      "name": "VotingRewardRedemption",
      "type": "event"
    },
    {
      "inputs": [
        {
          "internalType": "bytes32",
          "name": "",
          "type": "bytes32"
        },
        {
          "internalType": "address",
          "name": "_addr",
          "type": "address"
        }
      ],
      "name": "canImplementInterfaceForAddress",
      "outputs": [
        {
          "internalType": "bytes32",
          "name": "",
          "type": "bytes32"
        }
      ],
      "stateMutability": "view",
      "type": "function"
    },
    {
      "inputs": [],
      "name": "clone",
      "outputs": [
        {
          "internalType": "address",
          "name": "",
          "type": "address"
        }
      ],
      "stateMutability": "nonpayable",
      "type": "function"
    },
    {
      "inputs": [],
      "name": "cohort",
      "outputs": [
        {
          "internalType": "uint256",
          "name": "",
          "type": "uint256"
        }
      ],
      "stateMutability": "view",
      "type": "function"
    },
    {
      "inputs": [
        {
          "internalType": "address",
          "name": "_node",
          "type": "address"
        }
      ],
      "name": "distrust",
      "outputs": [],
      "stateMutability": "nonpayable",
      "type": "function"
    },
    {
      "inputs": [
        {
          "internalType": "uint256",
          "name": "_cohort",
          "type": "uint256"
        },
        {
          "internalType": "uint256",
          "name": "_trusteeNumber",
          "type": "uint256"
        }
      ],
      "name": "getTrustedNodeFromCohort",
      "outputs": [
        {
          "internalType": "address",
          "name": "trustee",
          "type": "address"
        }
      ],
      "stateMutability": "view",
      "type": "function"
    },
    {
      "inputs": [],
      "name": "implementation",
      "outputs": [
        {
          "internalType": "address",
          "name": "_impl",
          "type": "address"
        }
      ],
      "stateMutability": "view",
      "type": "function"
    },
    {
      "inputs": [
        {
          "internalType": "address",
          "name": "_self",
          "type": "address"
        }
      ],
      "name": "initialize",
      "outputs": [],
      "stateMutability": "nonpayable",
      "type": "function"
    },
    {
      "inputs": [
        {
          "internalType": "address",
          "name": "_node",
          "type": "address"
        }
      ],
      "name": "isTrusted",
      "outputs": [
        {
          "internalType": "bool",
          "name": "",
          "type": "bool"
        }
      ],
      "stateMutability": "view",
      "type": "function"
    },
    {
      "inputs": [
        {
          "internalType": "address[]",
          "name": "_newCohort",
          "type": "address[]"
        }
      ],
      "name": "newCohort",
      "outputs": [],
      "stateMutability": "nonpayable",
      "type": "function"
    },
    {
      "inputs": [],
      "name": "numTrustees",
      "outputs": [
        {
          "internalType": "uint256",
          "name": "",
          "type": "uint256"
        }
      ],
      "stateMutability": "view",
      "type": "function"
    },
    {
      "inputs": [],
      "name": "policy",
      "outputs": [
        {
          "internalType": "contract Policy",
          "name": "",
          "type": "address"
        }
      ],
      "stateMutability": "view",
      "type": "function"
    },
    {
      "inputs": [
        {
          "internalType": "address",
          "name": "_delegate",
          "type": "address"
        },
        {
          "internalType": "bytes",
          "name": "_data",
          "type": "bytes"
        }
      ],
      "name": "policyCommand",
      "outputs": [],
      "stateMutability": "nonpayable",
      "type": "function"
    },
    {
      "inputs": [
        {
          "internalType": "address",
          "name": "_who",
          "type": "address"
        }
      ],
      "name": "recordVote",
      "outputs": [],
      "stateMutability": "nonpayable",
      "type": "function"
    },
    {
      "inputs": [],
      "name": "redeemVoteRewards",
      "outputs": [],
      "stateMutability": "nonpayable",
      "type": "function"
    },
    {
      "inputs": [
        {
          "internalType": "address",
          "name": "_addr",
          "type": "address"
        }
      ],
      "name": "setExpectedInterfaceSet",
      "outputs": [],
      "stateMutability": "nonpayable",
      "type": "function"
    },
    {
      "inputs": [
        {
          "internalType": "address",
          "name": "_node",
          "type": "address"
        }
      ],
      "name": "trust",
      "outputs": [],
      "stateMutability": "nonpayable",
      "type": "function"
    },
    {
      "inputs": [],
      "name": "voteReward",
      "outputs": [
        {
          "internalType": "uint256",
          "name": "",
          "type": "uint256"
        }
      ],
      "stateMutability": "view",
      "type": "function"
    },
    {
      "inputs": [
        {
          "internalType": "address",
          "name": "",
          "type": "address"
        }
      ],
      "name": "votingRecord",
      "outputs": [
        {
          "internalType": "uint256",
          "name": "",
          "type": "uint256"
        }
      ],
      "stateMutability": "view",
      "type": "function"
    }
  ],
  "bytecode": "0x60a06040523480156200001157600080fd5b50604051620025bd380380620025bd833981016040819052620000349162000337565b828062000041306200016c565b6001600160a01b03908116608052604051635df8122f60e01b81523060048201529082166024820152731820a4b7618bde71dce8cdc73aab6c95905fad2490635df8122f90604401600060405180830381600087803b158015620000a457600080fd5b505af1158015620000b9573d6000803e3d6000fd5b505050600483905550600090505b82518110156200016257620000fe838281518110620000ea57620000ea6200042b565b6020026020010151620001fe60201b60201c565b8281815181106200011357620001136200042b565b60200260200101516001600160a01b03166000805160206200259d8339815191526001546040516200014791815260200190565b60405180910390a26200015a8162000457565b9050620000c7565b5050505062000490565b6001600160a01b0381166200018e6000805160206200257d8339815191525490565b6001600160a01b03161415620001eb5760405162461bcd60e51b815260206004820152601f60248201527f496d706c656d656e746174696f6e20616c7265616479206d61746368696e670060448201526064015b60405180910390fd5b6000805160206200257d83398151915255565b6001805460009081526002602090815260408083206001600160a01b038616845293840190915290205415620002775760405162461bcd60e51b815260206004820152601760248201527f4e6f646520697320616c726561647920747275737465640000000000000000006044820152606401620001e2565b80546200028690600162000475565b6001600160a01b03831660008181526001808501602090815260408084209590955585548083018755868452922090910180546001600160a01b0319168317905554915190916000805160206200259d83398151915291620002ea91815260200190565b60405180910390a25050565b6001600160a01b03811681146200030c57600080fd5b50565b634e487b7160e01b600052604160045260246000fd5b80516200033281620002f6565b919050565b6000806000606084860312156200034d57600080fd5b83516200035a81620002f6565b602085810151919450906001600160401b03808211156200037a57600080fd5b818701915087601f8301126200038f57600080fd5b815181811115620003a457620003a46200030f565b8060051b604051601f19603f83011681018181108582111715620003cc57620003cc6200030f565b60405291825284820192508381018501918a831115620003eb57600080fd5b938501935b828510156200041457620004048562000325565b84529385019392850192620003f0565b809750505050505050604084015190509250925092565b634e487b7160e01b600052603260045260246000fd5b634e487b7160e01b600052601160045260246000fd5b60006000198214156200046e576200046e62000441565b5060010190565b600082198211156200048b576200048b62000441565b500190565b608051612099620004e4600039600081816101400152818161033a0152818161057b015281816106db015281816107e7015281816109d401528181610ed101528181611662015261181f01526120996000f3fe608060405234801561001057600080fd5b50600436106101365760003560e01c8063542b1c5d116100b2578063bb4a207511610081578063c4d66de811610066578063c4d66de8146102f4578063f0c06aa514610307578063f82efbe91461031a57600080fd5b8063bb4a2075146102ce578063bf1a9c5f146102e157600080fd5b8063542b1c5d146102305780635c60da1b1461023957806392c1ff441461026057806396d648791461027357600080fd5b806313176a401161010957806339634e0c116100ee57806339634e0c146101f35780634637d827146102065780634baa69011461021957600080fd5b806313176a40146101d7578063249cb3fa146101e057600080fd5b80630505c8c91461013b57806309d7f23b1461018c57806309ed4607146101a15780630c211d07146101a9575b600080fd5b6101627f000000000000000000000000000000000000000000000000000000000000000081565b60405173ffffffffffffffffffffffffffffffffffffffff90911681526020015b60405180910390f35b61019f61019a366004611cd9565b610322565b005b610162610416565b6101c96101b7366004611d9f565b60036020526000908152604090205481565b604051908152602001610183565b6101c960015481565b6101c96101ee366004611dc3565b610577565b61019f610201366004611d9f565b6106c3565b61019f610214366004611d9f565b6107cf565b6001546000908152600260205260409020546101c9565b6101c960045481565b7ff86c915dad5894faca0dfa067c58fdf4307406d255ed0a65db394f82b77f53d454610162565b61019f61026e366004611d9f565b6108a0565b6102be610281366004611d9f565b60018054600090815260026020908152604080832073ffffffffffffffffffffffffffffffffffffffff9095168352939092019091522054151590565b6040519015158152602001610183565b61019f6102dc366004611df3565b6109bc565b6101626102ef366004611ea5565b610b43565b61019f610302366004611d9f565b610b8c565b61019f610315366004611d9f565b610eb9565b61019f6111e8565b3373ffffffffffffffffffffffffffffffffffffffff7f000000000000000000000000000000000000000000000000000000000000000016146103ec576040517f08c379a000000000000000000000000000000000000000000000000000000000815260206004820152602e60248201527f4f6e6c792074686520706f6c69637920636f6e7472616374206d61792063616c60448201527f6c2074686973206d6574686f642e00000000000000000000000000000000000060648201526084015b60405180910390fd5b600080825160208401855af43d806000803e81801561040a57816000f35b816000fd5b5050505050565b6000306104417ff86c915dad5894faca0dfa067c58fdf4307406d255ed0a65db394f82b77f53d45490565b73ffffffffffffffffffffffffffffffffffffffff16146104e4576040517f08c379a000000000000000000000000000000000000000000000000000000000815260206004820152602660248201527f54686973206d6574686f642063616e6e6f742062652063616c6c6564206f6e2060448201527f636c6f6e6573000000000000000000000000000000000000000000000000000060648201526084016103e3565b60006104ef30611478565b6040517fc4d66de800000000000000000000000000000000000000000000000000000000815230600482015290915073ffffffffffffffffffffffffffffffffffffffff82169063c4d66de890602401600060405180830381600087803b15801561055957600080fd5b505af115801561056d573d6000803e3d6000fd5b5092949350505050565b60007f000000000000000000000000000000000000000000000000000000000000000073ffffffffffffffffffffffffffffffffffffffff168273ffffffffffffffffffffffffffffffffffffffff1614806105ed575060005473ffffffffffffffffffffffffffffffffffffffff8381169116145b610679576040517f08c379a000000000000000000000000000000000000000000000000000000000815260206004820152603c60248201527f4f6e6c792074686520706f6c696379206f7220696e7465726661636520636f6e60448201527f74726163742063616e207365742074686520696e746572666163652e0000000060648201526084016103e3565b6040517f455243313832305f4143434550545f4d41474943000000000000000000000000602082015260340160405160208183030381529060405280519060200120905092915050565b3373ffffffffffffffffffffffffffffffffffffffff7f00000000000000000000000000000000000000000000000000000000000000001614610788576040517f08c379a000000000000000000000000000000000000000000000000000000000815260206004820152602e60248201527f4f6e6c792074686520706f6c69637920636f6e7472616374206d61792063616c60448201527f6c2074686973206d6574686f642e00000000000000000000000000000000000060648201526084016103e3565b600080547fffffffffffffffffffffffff00000000000000000000000000000000000000001673ffffffffffffffffffffffffffffffffffffffff92909216919091179055565b3373ffffffffffffffffffffffffffffffffffffffff7f00000000000000000000000000000000000000000000000000000000000000001614610894576040517f08c379a000000000000000000000000000000000000000000000000000000000815260206004820152602e60248201527f4f6e6c792074686520706f6c69637920636f6e7472616374206d61792063616c60448201527f6c2074686973206d6574686f642e00000000000000000000000000000000000060648201526084016103e3565b61089d816114e1565b50565b6108c97fe4ee44a5d338a8b2452cc9552ec014656668eaacb55683101b7e1c2b167e5225611625565b73ffffffffffffffffffffffffffffffffffffffff163373ffffffffffffffffffffffffffffffffffffffff1614610983576040517f08c379a000000000000000000000000000000000000000000000000000000000815260206004820152602c60248201527f4d75737420626520746865206d6f6e657461727920706f6c69637920636f6e7460448201527f7261637420746f2063616c6c000000000000000000000000000000000000000060648201526084016103e3565b73ffffffffffffffffffffffffffffffffffffffff811660009081526003602052604081208054916109b483611ef6565b919050555050565b3373ffffffffffffffffffffffffffffffffffffffff7f00000000000000000000000000000000000000000000000000000000000000001614610a81576040517f08c379a000000000000000000000000000000000000000000000000000000000815260206004820152602e60248201527f4f6e6c792074686520706f6c69637920636f6e7472616374206d61792063616c60448201527f6c2074686973206d6574686f642e00000000000000000000000000000000000060648201526084016103e3565b60018054906000610a9183611ef6565b919050555060005b8151811015610b3f57610ac4828281518110610ab757610ab7611f2f565b60200260200101516114e1565b818181518110610ad657610ad6611f2f565b602002602001015173ffffffffffffffffffffffffffffffffffffffff167f026e3fa01f70928e1ebf30f5828821f508b9f69a1ab33e901e1e637a25a1c154600154604051610b2791815260200190565b60405180910390a2610b3881611ef6565b9050610a99565b5050565b6000828152600260205260408120805483908110610b6357610b63611f2f565b60009182526020909120015473ffffffffffffffffffffffffffffffffffffffff169392505050565b6000610bb67ff86c915dad5894faca0dfa067c58fdf4307406d255ed0a65db394f82b77f53d45490565b73ffffffffffffffffffffffffffffffffffffffff1614610c59576040517f08c379a000000000000000000000000000000000000000000000000000000000815260206004820152602860248201527f43616e206f6e6c792062652063616c6c656420647572696e6720696e6974696160448201527f6c697a6174696f6e00000000000000000000000000000000000000000000000060648201526084016103e3565b610c6281611706565b8073ffffffffffffffffffffffffffffffffffffffff1663542b1c5d6040518163ffffffff1660e01b815260040160206040518083038186803b158015610ca857600080fd5b505afa158015610cbc573d6000803e3d6000fd5b505050506040513d601f19601f82011682018060405250810190610ce09190611f5e565b60048190555060008173ffffffffffffffffffffffffffffffffffffffff16634baa69016040518163ffffffff1660e01b815260040160206040518083038186803b158015610d2e57600080fd5b505afa158015610d42573d6000803e3d6000fd5b505050506040513d601f19601f82011682018060405250810190610d669190611f5e565b905060008273ffffffffffffffffffffffffffffffffffffffff166313176a406040518163ffffffff1660e01b815260040160206040518083038186803b158015610db057600080fd5b505afa158015610dc4573d6000803e3d6000fd5b505050506040513d601f19601f82011682018060405250810190610de89190611f5e565b905060005b82811015610eb3576040517fbf1a9c5f0000000000000000000000000000000000000000000000000000000081526004810183905260248101829052610ea39073ffffffffffffffffffffffffffffffffffffffff86169063bf1a9c5f9060440160206040518083038186803b158015610e6657600080fd5b505afa158015610e7a573d6000803e3d6000fd5b505050506040513d601f19601f82011682018060405250810190610e9e9190611f77565b6114e1565b610eac81611ef6565b9050610ded565b50505050565b3373ffffffffffffffffffffffffffffffffffffffff7f00000000000000000000000000000000000000000000000000000000000000001614610f7e576040517f08c379a000000000000000000000000000000000000000000000000000000000815260206004820152602e60248201527f4f6e6c792074686520706f6c69637920636f6e7472616374206d61792063616c60448201527f6c2074686973206d6574686f642e00000000000000000000000000000000000060648201526084016103e3565b60018054600090815260026020908152604080832073ffffffffffffffffffffffffffffffffffffffff861684529384019091529020548061101c576040517f08c379a000000000000000000000000000000000000000000000000000000000815260206004820152601860248201527f4e6f646520616c7265616479206e6f742074727573746564000000000000000060448201526064016103e3565b815460009061102d90600190611f94565b73ffffffffffffffffffffffffffffffffffffffff85166000908152600180860160205260408220829055919250906110669084611f94565b905081811461112457600084600001838154811061108657611086611f2f565b600091825260209091200154855473ffffffffffffffffffffffffffffffffffffffff909116915081908690849081106110c2576110c2611f2f565b600091825260208083209190910180547fffffffffffffffffffffffff00000000000000000000000000000000000000001673ffffffffffffffffffffffffffffffffffffffff94851617905592909116815260018601909152604090208390555b835484908061113557611135611fab565b60008281526020902081017fffffffffffffffffffffffffffffffffffffffffffffffffffffffffffffffff90810180547fffffffffffffffffffffffff000000000000000000000000000000000000000016905501905560015460405173ffffffffffffffffffffffffffffffffffffffff8716917fb622cec33bd2c8f2ec3cac63bfc522d7260a0c9893b20ab166a8ee8e7dc99cf4916111d991815260200190565b60405180910390a25050505050565b3360009081526003602052604090205461125e576040517f08c379a000000000000000000000000000000000000000000000000000000000815260206004820152601460248201527f4e6f207265776172647320746f2072656465656d00000000000000000000000060448201526064016103e3565b336000908152600360205260409020546004548082029082906112819083611fda565b146112f65760006004547fffffffffffffffffffffffffffffffffffffffffffffffffffffffffffffffff6112b69190611fda565b9050806004546112c69190612015565b336000908152600360205260408120805492945083929091906112ea908490611f94565b90915550611307915050565b336000908152600360205260408120555b6113307fe10ab6c94f1da69921a0ca1c1b96b4fc339699153931c9bfd565e91f44c19b0b611625565b6040517fa9059cbb0000000000000000000000000000000000000000000000000000000081523360048201526024810183905273ffffffffffffffffffffffffffffffffffffffff919091169063a9059cbb90604401602060405180830381600087803b1580156113a057600080fd5b505af11580156113b4573d6000803e3d6000fd5b505050506040513d601f19601f820116820180604052508101906113d89190612052565b61143e576040517f08c379a000000000000000000000000000000000000000000000000000000000815260206004820152600f60248201527f5472616e73666572204661696c6564000000000000000000000000000000000060448201526064016103e3565b60405181815233907f2df39b0aeb21e17a5e4fc9ec49bde17de637939388a64ae2fde4955b2c308b6c906020015b60405180910390a25050565b6000808260601b90506040517f3d602d80600a3d3981f3363d3d373d3d3d363d7300000000000000000000000081528160148201527f5af43d82803e903d91602b57fd5bf3000000000000000000000000000000000060288201526037816000f0949350505050565b60018054600090815260026020908152604080832073ffffffffffffffffffffffffffffffffffffffff861684529384019091529020541561157f576040517f08c379a000000000000000000000000000000000000000000000000000000000815260206004820152601760248201527f4e6f646520697320616c7265616479207472757374656400000000000000000060448201526064016103e3565b805461158c906001612074565b73ffffffffffffffffffffffffffffffffffffffff831660008181526001808501602090815260408084209590955585548083018755868452922090910180547fffffffffffffffffffffffff0000000000000000000000000000000000000000168317905554915190917f026e3fa01f70928e1ebf30f5828821f508b9f69a1ab33e901e1e637a25a1c1549161146c91815260200190565b6040517faabbb8ca00000000000000000000000000000000000000000000000000000000815273ffffffffffffffffffffffffffffffffffffffff7f000000000000000000000000000000000000000000000000000000000000000016600482015260248101829052600090731820a4b7618bde71dce8cdc73aab6c95905fad249063aabbb8ca9060440160206040518083038186803b1580156116c857600080fd5b505afa1580156116dc573d6000803e3d6000fd5b505050506040513d601f19601f820116820180604052508101906117009190611f77565b92915050565b60006117307ff86c915dad5894faca0dfa067c58fdf4307406d255ed0a65db394f82b77f53d45490565b73ffffffffffffffffffffffffffffffffffffffff16146117d3576040517f08c379a000000000000000000000000000000000000000000000000000000000815260206004820152602860248201527f43616e206f6e6c792062652063616c6c656420647572696e6720696e6974696160448201527f6c697a6174696f6e00000000000000000000000000000000000000000000000060648201526084016103e3565b6117dc81611891565b6040517f5df8122f00000000000000000000000000000000000000000000000000000000815230600482015273ffffffffffffffffffffffffffffffffffffffff7f0000000000000000000000000000000000000000000000000000000000000000166024820152731820a4b7618bde71dce8cdc73aab6c95905fad2490635df8122f90604401600060405180830381600087803b15801561187d57600080fd5b505af115801561040f573d6000803e3d6000fd5b60006118bb7ff86c915dad5894faca0dfa067c58fdf4307406d255ed0a65db394f82b77f53d45490565b73ffffffffffffffffffffffffffffffffffffffff161461195e576040517f08c379a000000000000000000000000000000000000000000000000000000000815260206004820152602860248201527f43616e206f6e6c792062652063616c6c656420647572696e6720696e6974696160448201527f6c697a6174696f6e00000000000000000000000000000000000000000000000060648201526084016103e3565b61089d81600061198c7ff86c915dad5894faca0dfa067c58fdf4307406d255ed0a65db394f82b77f53d45490565b73ffffffffffffffffffffffffffffffffffffffff1614611a2f576040517f08c379a000000000000000000000000000000000000000000000000000000000815260206004820152602860248201527f43616e206f6e6c792062652063616c6c656420647572696e6720696e6974696160448201527f6c697a6174696f6e00000000000000000000000000000000000000000000000060648201526084016103e3565b60008173ffffffffffffffffffffffffffffffffffffffff16635c60da1b6040518163ffffffff1660e01b815260040160206040518083038186803b158015611a7757600080fd5b505afa158015611a8b573d6000803e3d6000fd5b505050506040513d601f19601f82011682018060405250810190611aaf9190611f77565b905073ffffffffffffffffffffffffffffffffffffffff8116611b54576040517f08c379a000000000000000000000000000000000000000000000000000000000815260206004820152602c60248201527f696e697469616c697a6174696f6e206661696c7572653a206e6f7468696e672060448201527f746f20696d706c656d656e74000000000000000000000000000000000000000060648201526084016103e3565b610b3f818073ffffffffffffffffffffffffffffffffffffffff16611b977ff86c915dad5894faca0dfa067c58fdf4307406d255ed0a65db394f82b77f53d45490565b73ffffffffffffffffffffffffffffffffffffffff161415611c15576040517f08c379a000000000000000000000000000000000000000000000000000000000815260206004820152601f60248201527f496d706c656d656e746174696f6e20616c7265616479206d61746368696e670060448201526064016103e3565b7ff86c915dad5894faca0dfa067c58fdf4307406d255ed0a65db394f82b77f53d455565b73ffffffffffffffffffffffffffffffffffffffff8116811461089d57600080fd5b7f4e487b7100000000000000000000000000000000000000000000000000000000600052604160045260246000fd5b604051601f82017fffffffffffffffffffffffffffffffffffffffffffffffffffffffffffffffe016810167ffffffffffffffff81118282101715611cd157611cd1611c5b565b604052919050565b60008060408385031215611cec57600080fd5b8235611cf781611c39565b915060208381013567ffffffffffffffff80821115611d1557600080fd5b818601915086601f830112611d2957600080fd5b813581811115611d3b57611d3b611c5b565b611d6b847fffffffffffffffffffffffffffffffffffffffffffffffffffffffffffffffe0601f84011601611c8a565b91508082528784828501011115611d8157600080fd5b80848401858401376000848284010152508093505050509250929050565b600060208284031215611db157600080fd5b8135611dbc81611c39565b9392505050565b60008060408385031215611dd657600080fd5b823591506020830135611de881611c39565b809150509250929050565b60006020808385031215611e0657600080fd5b823567ffffffffffffffff80821115611e1e57600080fd5b818501915085601f830112611e3257600080fd5b813581811115611e4457611e44611c5b565b8060051b9150611e55848301611c8a565b8181529183018401918481019088841115611e6f57600080fd5b938501935b83851015611e995784359250611e8983611c39565b8282529385019390850190611e74565b98975050505050505050565b60008060408385031215611eb857600080fd5b50508035926020909101359150565b7f4e487b7100000000000000000000000000000000000000000000000000000000600052601160045260246000fd5b60007fffffffffffffffffffffffffffffffffffffffffffffffffffffffffffffffff821415611f2857611f28611ec7565b5060010190565b7f4e487b7100000000000000000000000000000000000000000000000000000000600052603260045260246000fd5b600060208284031215611f7057600080fd5b5051919050565b600060208284031215611f8957600080fd5b8151611dbc81611c39565b600082821015611fa657611fa6611ec7565b500390565b7f4e487b7100000000000000000000000000000000000000000000000000000000600052603160045260246000fd5b600082612010577f4e487b7100000000000000000000000000000000000000000000000000000000600052601260045260246000fd5b500490565b6000817fffffffffffffffffffffffffffffffffffffffffffffffffffffffffffffffff048311821515161561204d5761204d611ec7565b500290565b60006020828403121561206457600080fd5b81518015158114611dbc57600080fd5b6000821982111561208757612087611ec7565b50019056fea164736f6c6343000809000af86c915dad5894faca0dfa067c58fdf4307406d255ed0a65db394f82b77f53d4026e3fa01f70928e1ebf30f5828821f508b9f69a1ab33e901e1e637a25a1c154",
  "linkReferences": {},
  "deployedLinkReferences": {}
}