{
  "_format": "hh-sol-artifact-1",
  "contractName": "TrustedNodes",
  "sourceName": "contracts/governance/monetary/TrustedNodes.sol",
  "abi": [
    {
      "inputs": [
        {
          "internalType": "contract Policy",
          "name": "_policy",
          "type": "address"
        },
        {
          "internalType": "address[]",
          "name": "_initial",
          "type": "address[]"
        },
        {
          "internalType": "uint256",
          "name": "_voteReward",
          "type": "uint256"
        }
      ],
      "stateMutability": "nonpayable",
      "type": "constructor"
    },
    {
      "anonymous": false,
      "inputs": [
        {
          "indexed": true,
          "internalType": "address",
          "name": "node",
          "type": "address"
        }
      ],
      "name": "TrustedNodeAdded",
      "type": "event"
    },
    {
      "anonymous": false,
      "inputs": [
        {
          "indexed": true,
          "internalType": "address",
          "name": "node",
          "type": "address"
        }
      ],
      "name": "TrustedNodeRemoved",
      "type": "event"
    },
    {
      "anonymous": false,
      "inputs": [
        {
          "indexed": true,
          "internalType": "address",
          "name": "trustee",
          "type": "address"
        },
        {
          "indexed": false,
          "internalType": "uint256",
          "name": "amount",
          "type": "uint256"
        }
      ],
      "name": "VotingRewardRedeemed",
      "type": "event"
    },
    {
      "inputs": [
        {
          "internalType": "bytes32",
          "name": "",
          "type": "bytes32"
        },
        {
          "internalType": "address",
          "name": "_addr",
          "type": "address"
        }
      ],
      "name": "canImplementInterfaceForAddress",
      "outputs": [
        {
          "internalType": "bytes32",
          "name": "",
          "type": "bytes32"
        }
      ],
      "stateMutability": "view",
      "type": "function"
    },
    {
      "inputs": [],
      "name": "clone",
      "outputs": [
        {
          "internalType": "address",
          "name": "",
          "type": "address"
        }
      ],
      "stateMutability": "nonpayable",
      "type": "function"
    },
    {
      "inputs": [],
      "name": "cohort",
      "outputs": [
        {
          "internalType": "uint256",
          "name": "",
          "type": "uint256"
        }
      ],
      "stateMutability": "view",
      "type": "function"
    },
    {
      "inputs": [
        {
          "internalType": "address",
          "name": "_node",
          "type": "address"
        }
      ],
      "name": "distrust",
      "outputs": [],
      "stateMutability": "nonpayable",
      "type": "function"
    },
    {
      "inputs": [],
      "name": "implementation",
      "outputs": [
        {
          "internalType": "address",
          "name": "_impl",
          "type": "address"
        }
      ],
      "stateMutability": "view",
      "type": "function"
    },
    {
      "inputs": [
        {
          "internalType": "address",
          "name": "_self",
          "type": "address"
        }
      ],
      "name": "initialize",
      "outputs": [],
      "stateMutability": "nonpayable",
      "type": "function"
    },
    {
      "inputs": [
        {
          "internalType": "address",
          "name": "_node",
          "type": "address"
        }
      ],
      "name": "isTrusted",
      "outputs": [
        {
          "internalType": "bool",
          "name": "",
          "type": "bool"
        }
      ],
      "stateMutability": "view",
      "type": "function"
    },
    {
      "inputs": [
        {
          "internalType": "address[]",
          "name": "_newCohort",
          "type": "address[]"
        }
      ],
      "name": "newCohort",
      "outputs": [],
      "stateMutability": "nonpayable",
      "type": "function"
    },
    {
      "inputs": [],
      "name": "numTrustees",
      "outputs": [
        {
          "internalType": "uint256",
          "name": "",
          "type": "uint256"
        }
      ],
      "stateMutability": "view",
      "type": "function"
    },
    {
      "inputs": [],
      "name": "policy",
      "outputs": [
        {
          "internalType": "contract Policy",
          "name": "",
          "type": "address"
        }
      ],
      "stateMutability": "view",
      "type": "function"
    },
    {
      "inputs": [
        {
          "internalType": "address",
          "name": "_delegate",
          "type": "address"
        },
        {
          "internalType": "bytes",
          "name": "_data",
          "type": "bytes"
        }
      ],
      "name": "policyCommand",
      "outputs": [],
      "stateMutability": "nonpayable",
      "type": "function"
    },
    {
      "inputs": [
        {
          "internalType": "address",
          "name": "_who",
          "type": "address"
        }
      ],
      "name": "recordVote",
      "outputs": [],
      "stateMutability": "nonpayable",
      "type": "function"
    },
    {
      "inputs": [],
      "name": "redeemVoteRewards",
      "outputs": [],
      "stateMutability": "nonpayable",
      "type": "function"
    },
    {
      "inputs": [
        {
          "internalType": "address",
          "name": "_addr",
          "type": "address"
        }
      ],
      "name": "setExpectedInterfaceSet",
      "outputs": [],
      "stateMutability": "nonpayable",
      "type": "function"
    },
    {
      "inputs": [
        {
          "internalType": "address",
          "name": "_node",
          "type": "address"
        }
      ],
      "name": "trust",
      "outputs": [],
      "stateMutability": "nonpayable",
      "type": "function"
    },
    {
      "inputs": [
        {
          "internalType": "uint256",
          "name": "",
          "type": "uint256"
        },
        {
          "internalType": "uint256",
          "name": "",
          "type": "uint256"
        }
      ],
      "name": "trustedNodes",
      "outputs": [
        {
          "internalType": "address",
          "name": "",
          "type": "address"
        }
      ],
      "stateMutability": "view",
      "type": "function"
    },
    {
      "inputs": [
        {
          "internalType": "uint256",
          "name": "",
          "type": "uint256"
        },
        {
          "internalType": "address",
          "name": "",
          "type": "address"
        }
      ],
      "name": "trusteeNumber",
      "outputs": [
        {
          "internalType": "uint256",
          "name": "",
          "type": "uint256"
        }
      ],
      "stateMutability": "view",
      "type": "function"
    },
    {
      "inputs": [],
      "name": "voteReward",
      "outputs": [
        {
          "internalType": "uint256",
          "name": "",
          "type": "uint256"
        }
      ],
      "stateMutability": "view",
      "type": "function"
    },
    {
      "inputs": [
        {
          "internalType": "address",
          "name": "",
          "type": "address"
        }
      ],
      "name": "votingRecord",
      "outputs": [
        {
          "internalType": "uint256",
          "name": "",
          "type": "uint256"
        }
      ],
      "stateMutability": "view",
      "type": "function"
    }
  ],
  "bytecode": "0x60a06040523480156200001157600080fd5b50604051620024ef380380620024ef8339810160408190526200003491620002ca565b8280620000413062000127565b6001600160a01b03908116608052604051635df8122f60e01b81523060048201529082166024820152731820a4b7618bde71dce8cdc73aab6c95905fad2490635df8122f90604401600060405180830381600087803b158015620000a457600080fd5b505af1158015620000b9573d6000803e3d6000fd5b505050600583905550620000d090506000620001b9565b60005b82518110156200011d576200010a838281518110620000f657620000f6620003be565b6020026020010151620001b960201b60201c565b6200011581620003d4565b9050620000d3565b50505050620003fe565b6001600160a01b03811662000149600080516020620024cf8339815191525490565b6001600160a01b03161415620001a65760405162461bcd60e51b815260206004820152601f60248201527f496d706c656d656e746174696f6e20616c7265616479206d61746368696e670060448201526064015b60405180910390fd5b600080516020620024cf83398151915255565b60015460009081526003602090815260408083206001600160a01b0385168452909152902054156200022e5760405162461bcd60e51b815260206004820152601760248201527f4e6f646520697320616c7265616479207472757374656400000000000000000060448201526064016200019d565b60018054600090815260026020818152604080842054600383528185206001600160a01b03909716808652968352818520558454845291815290822080549384018155825290200180546001600160a01b0319169091179055565b6001600160a01b03811681146200029f57600080fd5b50565b634e487b7160e01b600052604160045260246000fd5b8051620002c58162000289565b919050565b600080600060608486031215620002e057600080fd5b8351620002ed8162000289565b602085810151919450906001600160401b03808211156200030d57600080fd5b818701915087601f8301126200032257600080fd5b815181811115620003375762000337620002a2565b8060051b604051601f19603f830116810181811085821117156200035f576200035f620002a2565b60405291825284820192508381018501918a8311156200037e57600080fd5b938501935b82851015620003a7576200039785620002b8565b8452938501939285019262000383565b809750505050505050604084015190509250925092565b634e487b7160e01b600052603260045260246000fd5b6000600019821415620003f757634e487b7160e01b600052601160045260246000fd5b5060010190565b60805161207d620004526000396000818161015b0152818161036c015281816105ad0152818161070d0152818161081901528181610a6a01528181610f0101528181611691015261184e015261207d6000f3fe608060405234801561001057600080fd5b50600436106101515760003560e01c8063542b1c5d116100cd578063be886c1311610081578063cfc0a7fb11610066578063cfc0a7fb14610326578063f0c06aa514610339578063f82efbe91461034c57600080fd5b8063be886c13146102e8578063c4d66de81461031357600080fd5b806392c1ff44116100b257806392c1ff441461026c57806396d648791461027f578063bb4a2075146102d557600080fd5b8063542b1c5d1461023c5780635c60da1b1461024557600080fd5b806313176a401161012457806339634e0c1161010957806339634e0c1461020e5780634637d827146102215780634baa69011461023457600080fd5b806313176a40146101f2578063249cb3fa146101fb57600080fd5b80630505c8c91461015657806309d7f23b146101a757806309ed4607146101bc5780630c211d07146101c4575b600080fd5b61017d7f000000000000000000000000000000000000000000000000000000000000000081565b60405173ffffffffffffffffffffffffffffffffffffffff90911681526020015b60405180910390f35b6101ba6101b5366004611d10565b610354565b005b61017d610448565b6101e46101d2366004611dd6565b60046020526000908152604090205481565b60405190815260200161019e565b6101e460015481565b6101e4610209366004611dfa565b6105a9565b6101ba61021c366004611dd6565b6106f5565b6101ba61022f366004611dd6565b610801565b6101e4610913565b6101e460055481565b7ff86c915dad5894faca0dfa067c58fdf4307406d255ed0a65db394f82b77f53d45461017d565b6101ba61027a366004611dd6565b610936565b6102c561028d366004611dd6565b600154600090815260036020908152604080832073ffffffffffffffffffffffffffffffffffffffff90941683529290522054151590565b604051901515815260200161019e565b6101ba6102e3366004611e2a565b610a52565b6101e46102f6366004611dfa565b600360209081526000928352604080842090915290825290205481565b6101ba610321366004611dd6565b610b78565b61017d610334366004611edc565b610ea4565b6101ba610347366004611dd6565b610ee9565b6101ba6112b9565b3373ffffffffffffffffffffffffffffffffffffffff7f0000000000000000000000000000000000000000000000000000000000000000161461041e576040517f08c379a000000000000000000000000000000000000000000000000000000000815260206004820152602e60248201527f4f6e6c792074686520706f6c69637920636f6e7472616374206d61792063616c60448201527f6c2074686973206d6574686f642e00000000000000000000000000000000000060648201526084015b60405180910390fd5b600080825160208401855af43d806000803e81801561043c57816000f35b816000fd5b5050505050565b6000306104737ff86c915dad5894faca0dfa067c58fdf4307406d255ed0a65db394f82b77f53d45490565b73ffffffffffffffffffffffffffffffffffffffff1614610516576040517f08c379a000000000000000000000000000000000000000000000000000000000815260206004820152602660248201527f54686973206d6574686f642063616e6e6f742062652063616c6c6564206f6e2060448201527f636c6f6e657300000000000000000000000000000000000000000000000000006064820152608401610415565b6000610521306114d1565b6040517fc4d66de800000000000000000000000000000000000000000000000000000000815230600482015290915073ffffffffffffffffffffffffffffffffffffffff82169063c4d66de890602401600060405180830381600087803b15801561058b57600080fd5b505af115801561059f573d6000803e3d6000fd5b5092949350505050565b60007f000000000000000000000000000000000000000000000000000000000000000073ffffffffffffffffffffffffffffffffffffffff168273ffffffffffffffffffffffffffffffffffffffff16148061061f575060005473ffffffffffffffffffffffffffffffffffffffff8381169116145b6106ab576040517f08c379a000000000000000000000000000000000000000000000000000000000815260206004820152603c60248201527f4f6e6c792074686520706f6c696379206f7220696e7465726661636520636f6e60448201527f74726163742063616e207365742074686520696e746572666163652e000000006064820152608401610415565b6040517f455243313832305f4143434550545f4d41474943000000000000000000000000602082015260340160405160208183030381529060405280519060200120905092915050565b3373ffffffffffffffffffffffffffffffffffffffff7f000000000000000000000000000000000000000000000000000000000000000016146107ba576040517f08c379a000000000000000000000000000000000000000000000000000000000815260206004820152602e60248201527f4f6e6c792074686520706f6c69637920636f6e7472616374206d61792063616c60448201527f6c2074686973206d6574686f642e0000000000000000000000000000000000006064820152608401610415565b600080547fffffffffffffffffffffffff00000000000000000000000000000000000000001673ffffffffffffffffffffffffffffffffffffffff92909216919091179055565b3373ffffffffffffffffffffffffffffffffffffffff7f000000000000000000000000000000000000000000000000000000000000000016146108c6576040517f08c379a000000000000000000000000000000000000000000000000000000000815260206004820152602e60248201527f4f6e6c792074686520706f6c69637920636f6e7472616374206d61792063616c60448201527f6c2074686973206d6574686f642e0000000000000000000000000000000000006064820152608401610415565b6108cf8161153a565b60405173ffffffffffffffffffffffffffffffffffffffff8216907fff4a290f0500d113133708d378eb9a151c32d91cb8f5778cfda6328d89cfc4b890600090a250565b60018054600090815260026020526040812054909161093191611f2d565b905090565b61095f7fe4ee44a5d338a8b2452cc9552ec014656668eaacb55683101b7e1c2b167e5225611654565b73ffffffffffffffffffffffffffffffffffffffff163373ffffffffffffffffffffffffffffffffffffffff1614610a19576040517f08c379a000000000000000000000000000000000000000000000000000000000815260206004820152602c60248201527f4d75737420626520746865206d6f6e657461727920706f6c69637920636f6e7460448201527f7261637420746f2063616c6c00000000000000000000000000000000000000006064820152608401610415565b73ffffffffffffffffffffffffffffffffffffffff81166000908152600460205260408120805491610a4a83611f44565b919050555050565b3373ffffffffffffffffffffffffffffffffffffffff7f00000000000000000000000000000000000000000000000000000000000000001614610b17576040517f08c379a000000000000000000000000000000000000000000000000000000000815260206004820152602e60248201527f4f6e6c792074686520706f6c69637920636f6e7472616374206d61792063616c60448201527f6c2074686973206d6574686f642e0000000000000000000000000000000000006064820152608401610415565b60018054906000610b2783611f44565b9190505550610b36600061153a565b60005b8151811015610b7457610b64828281518110610b5757610b57611f7d565b602002602001015161153a565b610b6d81611f44565b9050610b39565b5050565b6000610ba27ff86c915dad5894faca0dfa067c58fdf4307406d255ed0a65db394f82b77f53d45490565b73ffffffffffffffffffffffffffffffffffffffff1614610c45576040517f08c379a000000000000000000000000000000000000000000000000000000000815260206004820152602860248201527f43616e206f6e6c792062652063616c6c656420647572696e6720696e6974696160448201527f6c697a6174696f6e0000000000000000000000000000000000000000000000006064820152608401610415565b610c4e81611735565b8073ffffffffffffffffffffffffffffffffffffffff1663542b1c5d6040518163ffffffff1660e01b815260040160206040518083038186803b158015610c9457600080fd5b505afa158015610ca8573d6000803e3d6000fd5b505050506040513d601f19601f82011682018060405250810190610ccc9190611fac565b60058190555060008173ffffffffffffffffffffffffffffffffffffffff16634baa69016040518163ffffffff1660e01b815260040160206040518083038186803b158015610d1a57600080fd5b505afa158015610d2e573d6000803e3d6000fd5b505050506040513d601f19601f82011682018060405250810190610d529190611fac565b905060008273ffffffffffffffffffffffffffffffffffffffff166313176a406040518163ffffffff1660e01b815260040160206040518083038186803b158015610d9c57600080fd5b505afa158015610db0573d6000803e3d6000fd5b505050506040513d601f19601f82011682018060405250810190610dd49190611fac565b905060005b828111610e9e576040517fcfc0a7fb0000000000000000000000000000000000000000000000000000000081526004810183905260248101829052610e8e9073ffffffffffffffffffffffffffffffffffffffff86169063cfc0a7fb9060440160206040518083038186803b158015610e5157600080fd5b505afa158015610e65573d6000803e3d6000fd5b505050506040513d601f19601f82011682018060405250810190610e899190611fc5565b61153a565b610e9781611f44565b9050610dd9565b50505050565b60026020528160005260406000208181548110610ec057600080fd5b60009182526020909120015473ffffffffffffffffffffffffffffffffffffffff169150829050565b3373ffffffffffffffffffffffffffffffffffffffff7f00000000000000000000000000000000000000000000000000000000000000001614610fae576040517f08c379a000000000000000000000000000000000000000000000000000000000815260206004820152602e60248201527f4f6e6c792074686520706f6c69637920636f6e7472616374206d61792063616c60448201527f6c2074686973206d6574686f642e0000000000000000000000000000000000006064820152608401610415565b600154600090815260036020908152604080832073ffffffffffffffffffffffffffffffffffffffff85168452909152902054611047576040517f08c379a000000000000000000000000000000000000000000000000000000000815260206004820152601860248201527f4e6f646520616c7265616479206e6f74207472757374656400000000000000006044820152606401610415565b60018054600081815260036020908152604080832073ffffffffffffffffffffffffffffffffffffffff871684528252808320549383526002909152812054919290916110949190611f2d565b600154600090815260036020908152604080832073ffffffffffffffffffffffffffffffffffffffff8816845290915281205590508181146111a95760015460009081526002602052604081208054839081106110f3576110f3611f7d565b6000918252602080832090910154600154835260029091526040909120805473ffffffffffffffffffffffffffffffffffffffff909216925082918590811061113e5761113e611f7d565b600091825260208083209190910180547fffffffffffffffffffffffff00000000000000000000000000000000000000001673ffffffffffffffffffffffffffffffffffffffff94851617905560015482526003815260408083209490931682529290925290208290555b60015460009081526002602052604090208054829081106111cc576111cc611f7d565b6000918252602080832090910180547fffffffffffffffffffffffff00000000000000000000000000000000000000001690556001548252600290526040902080548061121b5761121b611fe2565b60008281526020812082017fffffffffffffffffffffffffffffffffffffffffffffffffffffffffffffffff90810180547fffffffffffffffffffffffff000000000000000000000000000000000000000016905590910190915560405173ffffffffffffffffffffffffffffffffffffffff8516917f6d1de2fb0c63996bae7ba6277c720c0560ba42874ea34c1ebe8e1423b9b4742191a2505050565b3360009081526004602052604090205461132f576040517f08c379a000000000000000000000000000000000000000000000000000000000815260206004820152601460248201527f4e6f207265776172647320746f2072656465656d0000000000000000000000006044820152606401610415565b3360009081526004602052604081205460055490919061134f9083612011565b33600090815260046020526040812055905061138a7fe10ab6c94f1da69921a0ca1c1b96b4fc339699153931c9bfd565e91f44c19b0b611654565b6040517fa9059cbb0000000000000000000000000000000000000000000000000000000081523360048201526024810183905273ffffffffffffffffffffffffffffffffffffffff919091169063a9059cbb90604401602060405180830381600087803b1580156113fa57600080fd5b505af115801561140e573d6000803e3d6000fd5b505050506040513d601f19601f82011682018060405250810190611432919061204e565b611498576040517f08c379a000000000000000000000000000000000000000000000000000000000815260206004820152600f60248201527f5472616e73666572204661696c656400000000000000000000000000000000006044820152606401610415565b60405181815233907f19d01a3328a08837767600e6c5e801fd2877def9ffccfb328e38f1a8d67178169060200160405180910390a25050565b6000808260601b90506040517f3d602d80600a3d3981f3363d3d373d3d3d363d7300000000000000000000000081528160148201527f5af43d82803e903d91602b57fd5bf3000000000000000000000000000000000060288201526037816000f0949350505050565b600154600090815260036020908152604080832073ffffffffffffffffffffffffffffffffffffffff85168452909152902054156115d4576040517f08c379a000000000000000000000000000000000000000000000000000000000815260206004820152601760248201527f4e6f646520697320616c726561647920747275737465640000000000000000006044820152606401610415565b600180546000908152600260208181526040808420546003835281852073ffffffffffffffffffffffffffffffffffffffff909716808652968352818520558454845291815290822080549384018155825290200180547fffffffffffffffffffffffff0000000000000000000000000000000000000000169091179055565b6040517faabbb8ca00000000000000000000000000000000000000000000000000000000815273ffffffffffffffffffffffffffffffffffffffff7f000000000000000000000000000000000000000000000000000000000000000016600482015260248101829052600090731820a4b7618bde71dce8cdc73aab6c95905fad249063aabbb8ca9060440160206040518083038186803b1580156116f757600080fd5b505afa15801561170b573d6000803e3d6000fd5b505050506040513d601f19601f8201168201806040525081019061172f9190611fc5565b92915050565b600061175f7ff86c915dad5894faca0dfa067c58fdf4307406d255ed0a65db394f82b77f53d45490565b73ffffffffffffffffffffffffffffffffffffffff1614611802576040517f08c379a000000000000000000000000000000000000000000000000000000000815260206004820152602860248201527f43616e206f6e6c792062652063616c6c656420647572696e6720696e6974696160448201527f6c697a6174696f6e0000000000000000000000000000000000000000000000006064820152608401610415565b61180b816118c0565b6040517f5df8122f00000000000000000000000000000000000000000000000000000000815230600482015273ffffffffffffffffffffffffffffffffffffffff7f0000000000000000000000000000000000000000000000000000000000000000166024820152731820a4b7618bde71dce8cdc73aab6c95905fad2490635df8122f90604401600060405180830381600087803b1580156118ac57600080fd5b505af1158015610441573d6000803e3d6000fd5b60006118ea7ff86c915dad5894faca0dfa067c58fdf4307406d255ed0a65db394f82b77f53d45490565b73ffffffffffffffffffffffffffffffffffffffff161461198d576040517f08c379a000000000000000000000000000000000000000000000000000000000815260206004820152602860248201527f43616e206f6e6c792062652063616c6c656420647572696e6720696e6974696160448201527f6c697a6174696f6e0000000000000000000000000000000000000000000000006064820152608401610415565b61199681611999565b50565b60006119c37ff86c915dad5894faca0dfa067c58fdf4307406d255ed0a65db394f82b77f53d45490565b73ffffffffffffffffffffffffffffffffffffffff1614611a66576040517f08c379a000000000000000000000000000000000000000000000000000000000815260206004820152602860248201527f43616e206f6e6c792062652063616c6c656420647572696e6720696e6974696160448201527f6c697a6174696f6e0000000000000000000000000000000000000000000000006064820152608401610415565b60008173ffffffffffffffffffffffffffffffffffffffff16635c60da1b6040518163ffffffff1660e01b815260040160206040518083038186803b158015611aae57600080fd5b505afa158015611ac2573d6000803e3d6000fd5b505050506040513d601f19601f82011682018060405250810190611ae69190611fc5565b905073ffffffffffffffffffffffffffffffffffffffff8116611b8b576040517f08c379a000000000000000000000000000000000000000000000000000000000815260206004820152602c60248201527f696e697469616c697a6174696f6e206661696c7572653a206e6f7468696e672060448201527f746f20696d706c656d656e7400000000000000000000000000000000000000006064820152608401610415565b610b74818073ffffffffffffffffffffffffffffffffffffffff16611bce7ff86c915dad5894faca0dfa067c58fdf4307406d255ed0a65db394f82b77f53d45490565b73ffffffffffffffffffffffffffffffffffffffff161415611c4c576040517f08c379a000000000000000000000000000000000000000000000000000000000815260206004820152601f60248201527f496d706c656d656e746174696f6e20616c7265616479206d61746368696e67006044820152606401610415565b7ff86c915dad5894faca0dfa067c58fdf4307406d255ed0a65db394f82b77f53d455565b73ffffffffffffffffffffffffffffffffffffffff8116811461199657600080fd5b7f4e487b7100000000000000000000000000000000000000000000000000000000600052604160045260246000fd5b604051601f82017fffffffffffffffffffffffffffffffffffffffffffffffffffffffffffffffe016810167ffffffffffffffff81118282101715611d0857611d08611c92565b604052919050565b60008060408385031215611d2357600080fd5b8235611d2e81611c70565b915060208381013567ffffffffffffffff80821115611d4c57600080fd5b818601915086601f830112611d6057600080fd5b813581811115611d7257611d72611c92565b611da2847fffffffffffffffffffffffffffffffffffffffffffffffffffffffffffffffe0601f84011601611cc1565b91508082528784828501011115611db857600080fd5b80848401858401376000848284010152508093505050509250929050565b600060208284031215611de857600080fd5b8135611df381611c70565b9392505050565b60008060408385031215611e0d57600080fd5b823591506020830135611e1f81611c70565b809150509250929050565b60006020808385031215611e3d57600080fd5b823567ffffffffffffffff80821115611e5557600080fd5b818501915085601f830112611e6957600080fd5b813581811115611e7b57611e7b611c92565b8060051b9150611e8c848301611cc1565b8181529183018401918481019088841115611ea657600080fd5b938501935b83851015611ed05784359250611ec083611c70565b8282529385019390850190611eab565b98975050505050505050565b60008060408385031215611eef57600080fd5b50508035926020909101359150565b7f4e487b7100000000000000000000000000000000000000000000000000000000600052601160045260246000fd5b600082821015611f3f57611f3f611efe565b500390565b60007fffffffffffffffffffffffffffffffffffffffffffffffffffffffffffffffff821415611f7657611f76611efe565b5060010190565b7f4e487b7100000000000000000000000000000000000000000000000000000000600052603260045260246000fd5b600060208284031215611fbe57600080fd5b5051919050565b600060208284031215611fd757600080fd5b8151611df381611c70565b7f4e487b7100000000000000000000000000000000000000000000000000000000600052603160045260246000fd5b6000817fffffffffffffffffffffffffffffffffffffffffffffffffffffffffffffffff048311821515161561204957612049611efe565b500290565b60006020828403121561206057600080fd5b81518015158114611df357600080fdfea164736f6c6343000809000af86c915dad5894faca0dfa067c58fdf4307406d255ed0a65db394f82b77f53d4",
  "linkReferences": {},
  "deployedLinkReferences": {}
}