{
  "_format": "hh-sol-artifact-1",
  "contractName": "VDFVerifier",
  "sourceName": "contracts/VDF/VDFVerifier.sol",
  "abi": [
    {
      "inputs": [
        {
          "internalType": "contract Policy",
          "name": "_policy",
          "type": "address"
        }
      ],
      "stateMutability": "nonpayable",
      "type": "constructor"
    },
    {
      "anonymous": false,
      "inputs": [
        {
          "indexed": false,
          "internalType": "uint256",
          "name": "x",
          "type": "uint256"
        },
        {
          "indexed": false,
          "internalType": "uint256",
          "name": "t",
          "type": "uint256"
        },
        {
          "indexed": false,
          "internalType": "bytes",
          "name": "y",
          "type": "bytes"
        }
      ],
      "name": "SuccessfulVerification",
      "type": "event"
    },
    {
      "inputs": [],
      "name": "GENERATION_START",
      "outputs": [
        {
          "internalType": "uint256",
          "name": "",
          "type": "uint256"
        }
      ],
      "stateMutability": "view",
      "type": "function"
    },
    {
      "inputs": [],
      "name": "MIN_BYTES",
      "outputs": [
        {
          "internalType": "uint256",
          "name": "",
          "type": "uint256"
        }
      ],
      "stateMutability": "view",
      "type": "function"
    },
    {
      "inputs": [],
      "name": "MIN_GENERATION_DURATION",
      "outputs": [
        {
          "internalType": "uint256",
          "name": "",
          "type": "uint256"
        }
      ],
      "stateMutability": "view",
      "type": "function"
    },
    {
      "inputs": [],
      "name": "N",
      "outputs": [
        {
          "internalType": "bytes",
          "name": "",
          "type": "bytes"
        }
      ],
      "stateMutability": "view",
      "type": "function"
    },
    {
      "inputs": [
        {
          "internalType": "bytes32",
          "name": "",
          "type": "bytes32"
        },
        {
          "internalType": "address",
          "name": "_addr",
          "type": "address"
        }
      ],
      "name": "canImplementInterfaceForAddress",
      "outputs": [
        {
          "internalType": "bytes32",
          "name": "",
          "type": "bytes32"
        }
      ],
      "stateMutability": "view",
      "type": "function"
    },
    {
      "inputs": [],
      "name": "clone",
      "outputs": [
        {
          "internalType": "address",
          "name": "",
          "type": "address"
        }
      ],
      "stateMutability": "nonpayable",
      "type": "function"
    },
    {
      "inputs": [],
      "name": "implementation",
      "outputs": [
        {
          "internalType": "address",
          "name": "_impl",
          "type": "address"
        }
      ],
      "stateMutability": "view",
      "type": "function"
    },
    {
      "inputs": [
        {
          "internalType": "address",
          "name": "_self",
          "type": "address"
        }
      ],
      "name": "initialize",
      "outputs": [],
      "stateMutability": "nonpayable",
      "type": "function"
    },
    {
      "inputs": [
        {
          "internalType": "uint256",
          "name": "_n",
          "type": "uint256"
        },
        {
          "internalType": "uint256",
          "name": "_k",
          "type": "uint256"
        }
      ],
      "name": "isProbablePrime",
      "outputs": [
        {
          "internalType": "bool",
          "name": "",
          "type": "bool"
        }
      ],
      "stateMutability": "view",
      "type": "function"
    },
    {
      "inputs": [
        {
          "internalType": "uint256",
          "name": "_x",
          "type": "uint256"
        },
        {
          "internalType": "uint256",
          "name": "_t",
          "type": "uint256"
        },
        {
          "internalType": "bytes",
          "name": "_ybytes",
          "type": "bytes"
        }
      ],
      "name": "isVerified",
      "outputs": [
        {
          "internalType": "bool",
          "name": "",
          "type": "bool"
        }
      ],
      "stateMutability": "view",
      "type": "function"
    },
    {
      "inputs": [],
      "name": "policy",
      "outputs": [
        {
          "internalType": "contract Policy",
          "name": "",
          "type": "address"
        }
      ],
      "stateMutability": "view",
      "type": "function"
    },
    {
      "inputs": [
        {
          "internalType": "address",
          "name": "_delegate",
          "type": "address"
        },
        {
          "internalType": "bytes",
          "name": "_data",
          "type": "bytes"
        }
      ],
      "name": "policyCommand",
      "outputs": [],
      "stateMutability": "nonpayable",
      "type": "function"
    },
    {
      "inputs": [
        {
          "internalType": "address",
          "name": "_addr",
          "type": "address"
        }
      ],
      "name": "setExpectedInterfaceSet",
      "outputs": [],
      "stateMutability": "nonpayable",
      "type": "function"
    },
    {
      "inputs": [
        {
          "internalType": "uint256",
          "name": "_x",
          "type": "uint256"
        },
        {
          "internalType": "uint256",
          "name": "_t",
          "type": "uint256"
        },
        {
          "internalType": "bytes",
          "name": "_ybytes",
          "type": "bytes"
        }
      ],
      "name": "start",
      "outputs": [],
      "stateMutability": "nonpayable",
      "type": "function"
    },
    {
      "inputs": [
        {
          "internalType": "bytes",
          "name": "_ubytes",
          "type": "bytes"
        }
      ],
      "name": "update",
      "outputs": [],
      "stateMutability": "nonpayable",
      "type": "function"
    },
    {
      "inputs": [
        {
          "internalType": "bytes32",
          "name": "",
          "type": "bytes32"
        }
      ],
      "name": "verified",
      "outputs": [
        {
          "internalType": "bytes32",
          "name": "",
          "type": "bytes32"
        }
      ],
      "stateMutability": "view",
      "type": "function"
    }
  ],
  "bytecode": "0x60a06040523480156200001157600080fd5b50604051620031c2380380620031c28339810160408190526200003491620001d7565b8080620000413062000149565b6001600160a01b038116620000c35760405162461bcd60e51b815260206004820152603860248201527f556e7265636f76657261626c653a20646f206e6f74207365742074686520706f60448201527f6c69637920617320746865207a65726f2061646472657373000000000000000060648201526084015b60405180910390fd5b6001600160a01b0381166080819052604051635df8122f60e01b81523060048201526024810191909152731820a4b7618bde71dce8cdc73aab6c95905fad2490635df8122f90604401600060405180830381600087803b1580156200012757600080fd5b505af11580156200013c573d6000803e3d6000fd5b5050505050505062000209565b6001600160a01b0381166200016b600080516020620031a28339815191525490565b6001600160a01b03161415620001c45760405162461bcd60e51b815260206004820152601f60248201527f496d706c656d656e746174696f6e20616c7265616479206d61746368696e67006044820152606401620000ba565b600080516020620031a283398151915255565b600060208284031215620001ea57600080fd5b81516001600160a01b03811681146200020257600080fd5b9392505050565b608051612f61620002416000396000818161010a015281816102a4015281816104e5015281816106240152610ee80152612f616000f3fe608060405234801561001057600080fd5b50600436106101005760003560e01c80638cb1705611610097578063c9e525df11610066578063c9e525df1461022e578063c9e909bb14610243578063df1bba0114610266578063e3b932db1461027957600080fd5b80638cb17056146101df578063c43ed2c8146101e8578063c4d66de8146101fb578063c59e43e51461020e57600080fd5b80633067309c116100d35780633067309c1461019457806339634e0c1461019c57806353729937146101af5780635c60da1b146101b857600080fd5b80630505c8c91461010557806309d7f23b1461015657806309ed46071461016b578063249cb3fa14610173575b600080fd5b61012c7f000000000000000000000000000000000000000000000000000000000000000081565b60405173ffffffffffffffffffffffffffffffffffffffff90911681526020015b60405180910390f35b61016961016436600461294c565b61028c565b005b61012c610380565b610186610181366004612a2e565b6104e1565b60405190815260200161014d565b610186604081565b6101696101aa366004612a5e565b61060c565b6101866103e881565b7ff86c915dad5894faca0dfa067c58fdf4307406d255ed0a65db394f82b77f53d45461012c565b61018661069081565b6101696101f6366004612ac4565b610718565b610169610209366004612a5e565b610dcf565b61018661021c366004612b06565b60026020526000908152604090205481565b610236610f5a565b60405161014d9190612b99565b610256610251366004612bac565b610f79565b604051901515815260200161014d565b610169610274366004612bac565b611041565b610256610287366004612bff565b611474565b3373ffffffffffffffffffffffffffffffffffffffff7f00000000000000000000000000000000000000000000000000000000000000001614610356576040517f08c379a000000000000000000000000000000000000000000000000000000000815260206004820152602d60248201527f4f6e6c792074686520706f6c69637920636f6e7472616374206d61792063616c60448201527f6c2074686973206d6574686f640000000000000000000000000000000000000060648201526084015b60405180910390fd5b600080825160208401855af43d806000803e81801561037457816000f35b816000fd5b5050505050565b6000306103ab7ff86c915dad5894faca0dfa067c58fdf4307406d255ed0a65db394f82b77f53d45490565b73ffffffffffffffffffffffffffffffffffffffff161461044e576040517f08c379a000000000000000000000000000000000000000000000000000000000815260206004820152602660248201527f54686973206d6574686f642063616e6e6f742062652063616c6c6564206f6e2060448201527f636c6f6e65730000000000000000000000000000000000000000000000000000606482015260840161034d565b6000610459306116b6565b6040517fc4d66de800000000000000000000000000000000000000000000000000000000815230600482015290915073ffffffffffffffffffffffffffffffffffffffff82169063c4d66de890602401600060405180830381600087803b1580156104c357600080fd5b505af11580156104d7573d6000803e3d6000fd5b5092949350505050565b60007f000000000000000000000000000000000000000000000000000000000000000073ffffffffffffffffffffffffffffffffffffffff168273ffffffffffffffffffffffffffffffffffffffff161480610557575060005473ffffffffffffffffffffffffffffffffffffffff8381169116145b6105e3576040517f08c379a000000000000000000000000000000000000000000000000000000000815260206004820152603b60248201527f4f6e6c792074686520706f6c696379206f7220696e7465726661636520636f6e60448201527f74726163742063616e207365742074686520696e746572666163650000000000606482015260840161034d565b507fa2ef4600d742022d532d4747cb3547474667d6f13804902513b2ec01c848f4b45b92915050565b3373ffffffffffffffffffffffffffffffffffffffff7f000000000000000000000000000000000000000000000000000000000000000016146106d1576040517f08c379a000000000000000000000000000000000000000000000000000000000815260206004820152602d60248201527f4f6e6c792074686520706f6c69637920636f6e7472616374206d61792063616c60448201527f6c2074686973206d6574686f6400000000000000000000000000000000000000606482015260840161034d565b600080547fffffffffffffffffffffffff00000000000000000000000000000000000000001673ffffffffffffffffffffffffffffffffffffffff92909216919091179055565b336000908152600160205260409020805461078f576040517f08c379a000000000000000000000000000000000000000000000000000000000815260206004820181905260248201527f70726f6365737320686173206e6f7420796574206265656e2073746172746564604482015260640161034d565b60006107b56040518061012001604052806101008152602001612e55610100913961171f565b905060006107c3600161192e565b905060006107d1600261192e565b9050600061081487878080601f01602080910402602001604051908101604052809392919081815260200183838082843760009201919091525061171f92505050565b90506000610823828487611996565b905061082f82856119bf565b600114610898576040517f08c379a000000000000000000000000000000000000000000000000000000000815260206004820152601860248201527f75206d7573742062652067726561746572207468616e20310000000000000000604482015260640161034d565b6108a282866119bf565b7fffffffffffffffffffffffffffffffffffffffffffffffffffffffffffffffff1461092a576040517f08c379a000000000000000000000000000000000000000000000000000000000815260206004820152601560248201527f75206d757374206265206c657373207468616e204e0000000000000000000000604482015260640161034d565b61093481856119bf565b60011461099d576040517f08c379a000000000000000000000000000000000000000000000000000000000815260206004820152601a60248201527f752a75206d7573742062652067726561746572207468616e2031000000000000604482015260640161034d565b60006109ab86515160051b90565b87546003890154919250906000906109f8906109c78786611ac7565b846040516020016109da93929190612c21565b6040516020818303038152906040528051906020012060001c61192e565b905081610a0481612c7d565b6040805160058d0180546020818102840185018552830181815294975060009550610a7794610a709484928491840182828015610a6057602002820191906000526020600020905b815481526020019060010190808311610a4c575b505050505081525050848c611996565b868b611c27565b90506000610aeb610a8987858d611996565b6040805160068f0180546020818102840185018552830181815292939192849290918491840182828015610adc57602002820191906000526020600020905b815481526020019060010190808311610ac8575b5050505050815250508c611c27565b90508a600101548414610b3c5781518051839160058e0191610b1491839160209091019061287a565b50508151805183925060068e0191610b319183916020019061287a565b505050838b55610dc0565b610b51610b49600461192e565b83908c611996565b9150610b5d82826119bf565b15610be9576040517f08c379a0000000000000000000000000000000000000000000000000000000008152602060048201526024808201527f566572696669636174696f6e206661696c656420696e20746865206c6173742060448201527f7374657000000000000000000000000000000000000000000000000000000000606482015260840161034d565b6040805160048d01805460208181028401850185528301818152610c57948a949392849291849190840182828015610c4057602002820191906000526020600020905b815481526020019060010190808311610c2c575b505050505081525050611ac790919063ffffffff16565b80519060200120600260008d600101548e60020154604051602001610c86929190918252602082015260400190565b604051602081830303815290604052805190602001208152602001908152602001600020819055507fdba80e12e70e9b8a32866d25c4af4d2ac3ba612929454b812ad0ab6561ff0e598b600201548c60010154610d488e60040160405180602001604052908160008201805480602002602001604051908101604052809291908181526020018280548015610d3a57602002820191906000526020600020905b815481526020019060010190808311610d26575b505050505081525050611c51565b604051610d5793929190612cb6565b60405180910390a133600090815260016020819052604082208281559081018290556002810182905560038101829055906004820181610d9782826128c5565b5050600582016000610da982826128c5565b5050600682016000610dbb82826128c5565b505050505b50505050505050505050505050565b6000610df97ff86c915dad5894faca0dfa067c58fdf4307406d255ed0a65db394f82b77f53d45490565b73ffffffffffffffffffffffffffffffffffffffff1614610e9c576040517f08c379a000000000000000000000000000000000000000000000000000000000815260206004820152602860248201527f43616e206f6e6c792062652063616c6c656420647572696e6720696e6974696160448201527f6c697a6174696f6e000000000000000000000000000000000000000000000000606482015260840161034d565b610ea581611da6565b6040517f5df8122f00000000000000000000000000000000000000000000000000000000815230600482015273ffffffffffffffffffffffffffffffffffffffff7f0000000000000000000000000000000000000000000000000000000000000000166024820152731820a4b7618bde71dce8cdc73aab6c95905fad2490635df8122f90604401600060405180830381600087803b158015610f4657600080fd5b505af1158015610379573d6000803e3d6000fd5b6040518061012001604052806101008152602001612e55610100913981565b600080610fbb84848080601f01602080910402602001604051908101604052809392919081815260200183838082843760009201919091525061171f92505050565b905060006040518061012001604052806101008152602001612e556101009139519050610fe88282611ac7565b8051906020012060026000888a60405160200161100f929190918252602082015260400190565b604051602081830303815290604052805190602001208152602001908152602001600020541492505050949350505050565b6040805160208082018690528183018790528251808303840181526060909201835281519181019190912060009081526002909152205415611105576040517f08c379a000000000000000000000000000000000000000000000000000000000815260206004820152603160248201527f74686973205f782c205f7420636f6d62696e6174696f6e2068617320616c726560448201527f616479206265656e207665726966696564000000000000000000000000000000606482015260840161034d565b6002831015611170576040517f08c379a000000000000000000000000000000000000000000000000000000000815260206004820152601460248201527f74206d757374206265206174206c656173742032000000000000000000000000604482015260640161034d565b600184116111da576040517f08c379a000000000000000000000000000000000000000000000000000000000815260206004820152601e60248201527f54686520636f6d6d69746d656e7420287829206d757374206265203e20310000604482015260640161034d565b60006112006040518061012001604052806101008152602001612e55610100913961171f565b9050600061120d8661192e565b9050600061125085858080601f01602080910402602001604051908101604052809392919081815260200183838082843760009201919091525061171f92505050565b9050600061125e8384611fa5565b9050604061126b83612003565b10156112f9576040517f08c379a000000000000000000000000000000000000000000000000000000000815260206004820152602d60248201527f5468652073656372657420287929206d757374206265206174206c656173742060448201527f3634206279746573206c6f6e6700000000000000000000000000000000000000606482015260840161034d565b61130382856119bf565b7fffffffffffffffffffffffffffffffffffffffffffffffffffffffffffffffff1461138b576040517f08c379a000000000000000000000000000000000000000000000000000000000815260206004820152601560248201527f79206d757374206265206c657373207468616e204e0000000000000000000000604482015260640161034d565b336000908152600160208181526040909220818155908101899055600281018a9055835180519192859260048501926113c892849291019061287a565b50508251805184925060058401916113e59183916020019061287a565b50508351805185925060068401916114029183916020019061287a565b509050508861141d61141687515160051b90565b8590611ac7565b60405160200161142e929190612cd5565b604080517fffffffffffffffffffffffffffffffffffffffffffffffffffffffffffffffe081840301815291905280516020909101206003909101555050505050505050565b600082600214806114855750826003145b806114905750826005145b1561149d57506001610606565b82600114806114ad575060018316155b156114ba57506000610606565b6000806114c8600386612cfb565b905060006114d7600187612cfb565b905080608081901b6114f657608090811c906114f39085612d12565b93505b60c081901b61151257604090811c9061150f9085612d12565b93505b60e081901b61152e57602090811c9061152b9085612d12565b93505b60f081901b61154a57601090811c906115479085612d12565b93505b60f881901b61156657600890811c906115639085612d12565b93505b60fc81901b61158257600490811c9061157f9085612d12565b93505b60fe81901b61159e57600290811c9061159b9085612d12565b93505b60ff81901b6115ba57600190811c906115b79085612d12565b93505b60006115c7600143612cfb565b40905060005b878110156116a7576040805160208082018590528183018490528251808303840181526060909201909252805191012060006116098783612d59565b611614906002612d12565b9050600061162382878e6120ef565b9050806001141580156116365750868114155b156116935760005b89811015611676578c8061165457611654612d2a565b82830991508782141561166657611676565b61166f81612c7d565b905061163e565b898114156116915760009a5050505050505050505050610606565b505b505050806116a090612c7d565b90506115cd565b50600198975050505050505050565b6000808260601b90506040517f3d602d80600a3d3981f3363d3d373d3d3d363d7300000000000000000000000081528160148201527f5af43d82803e903d91602b57fd5bf3000000000000000000000000000000000060288201526037816000f0949350505050565b60408051602081019091526060815281518061175257505060408051600060208201908152818301909252908152919050565b6000600561176183601f612d12565b901c9050600060405180602001604052808367ffffffffffffffff81111561178b5761178b61291d565b6040519080825280602002602001820160405280156117b4578160200160208202803683370190505b5090529050601f831660008161185c5750602086015180611857576040517f08c379a000000000000000000000000000000000000000000000000000000000815260206004820152603360248201527f486967682d776f7264206d75737420626520736574207768656e20696e70757460448201527f20697320627974657333322d616c69676e656400000000000000000000000000606482015260840161034d565b611903565b611867826020612cfb565b6020880151909250600883021c905080611903576040517f08c379a000000000000000000000000000000000000000000000000000000000815260206004820152603360248201527f486967682d776f7264206d75737420626520736574207768656e20696e70757460448201527f20697320627974657333322d616c69676e656400000000000000000000000000606482015260840161034d565b84826020018451018660208a01600488600302600f01fa61192357600080fd5b509095945050505050565b604080516020810190915260608152811561199157604080516001602082018181526060830190935290918291816020016020820280368337505050905280518051919250839160009061198457611984612d94565b6020026020010181815250505b919050565b6040805160208101909152606081528351835183516119b6929190612133565b81529392505050565b81515181515160009190808211156119dc57600192505050610606565b81811115611a0e577fffffffffffffffffffffffffffffffffffffffffffffffffffffffffffffffff92505050610606565b60008060005b875151811015611ab9578751805182908110611a3257611a32612d94565b6020026020010151925086600001518181518110611a5257611a52612d94565b6020026020010151915081831115611a7257600195505050505050610606565b82821115611aa7577fffffffffffffffffffffffffffffffffffffffffffffffffffffffffffffffff95505050505050610606565b80611ab181612c7d565b915050611a14565b506000979650505050505050565b815151606090601f831615611b38576040517f08c379a000000000000000000000000000000000000000000000000000000000815260206004820152601d60248201527f53697a65206d757374206265206d756c7469706c65206f662030783230000000604482015260640161034d565b600581901b80841015611ba7576040517f08c379a000000000000000000000000000000000000000000000000000000000815260206004820152601d60248201527f4e756d62657220746f6f206c6172676520746f20726570726573656e74000000604482015260640161034d565b6000611bb38286612cfb565b905060008567ffffffffffffffff811115611bd057611bd061291d565b6040519080825280601f01601f191660200182016040528015611bfa576020820181803683370190505b509050828260200182018460208a5101600488600302600f01fa611c1d57600080fd5b9695505050505050565b604080516020810190915260608152611c49611c438585611fa5565b83612202565b949350505050565b80515160609080611c72575050604080516000815260208101909152919050565b60008360000151600081518110611c8b57611c8b612d94565b602002602001015190506000608082901c6000801b1415611cbb5760809190911b90611cb8601082612d12565b90505b60c082901c611cd95760409190911b90611cd6600882612d12565b90505b60e082901c611cf75760209190911b90611cf4600482612d12565b90505b60f082901c611d155760109190911b90611d12600282612d12565b90505b60f882901c611d2c57611d29600182612d12565b90505b6000611d3c82600586901b612cfb565b905060008167ffffffffffffffff811115611d5957611d5961291d565b6040519080825280601f01601f191660200182016040528015611d83576020820181803683370190505b509050816020820183856020018a5101600489600302600f01fa611c1d57600080fd5b6000611dd07ff86c915dad5894faca0dfa067c58fdf4307406d255ed0a65db394f82b77f53d45490565b73ffffffffffffffffffffffffffffffffffffffff1614611e73576040517f08c379a000000000000000000000000000000000000000000000000000000000815260206004820152602860248201527f43616e206f6e6c792062652063616c6c656420647572696e6720696e6974696160448201527f6c697a6174696f6e000000000000000000000000000000000000000000000000606482015260840161034d565b60008173ffffffffffffffffffffffffffffffffffffffff16635c60da1b6040518163ffffffff1660e01b815260040160206040518083038186803b158015611ebb57600080fd5b505afa158015611ecf573d6000803e3d6000fd5b505050506040513d601f19601f82011682018060405250810190611ef39190612dc3565b905073ffffffffffffffffffffffffffffffffffffffff8116611f98576040517f08c379a000000000000000000000000000000000000000000000000000000000815260206004820152602c60248201527f696e697469616c697a6174696f6e206661696c7572653a206e6f7468696e672060448201527f746f20696d706c656d656e740000000000000000000000000000000000000000606482015260840161034d565b611fa18161222a565b5050565b604080516020810190915260608152611fc08383600161230b565b9050611fcc83836119bf565b15611ff3576000611fdf8484600061230b565b82518151919250611fef916123e1565b8252505b611ffc8161250a565b9392505050565b60008061201283515160051b90565b9050806120225750600092915050565b6000836000015160008151811061203b5761203b612d94565b602002602001015190506000608082901c6000801b141561206b5760809190911b90612068601082612d12565b90505b60c082901c6120895760409190911b90612086600882612d12565b90505b60e082901c6120a75760209190911b906120a4600482612d12565b90505b60f082901c6120c55760109190911b906120c2600282612d12565b90505b60f882901c6120dc576120d9600182612d12565b90505b6120e68184612cfb565b95945050505050565b600060405160208152602080820152602060408201528460608201528360808201528260a082015260208160c08360055afa61212a57600080fd5b51949350505050565b6060835160051b835160051b835160051b60405183815282602082015281604082015283606082018560208b0160046101c2fa846060019450838583018560208b0160046101c2fa9484019416828286018160208a0160046101c2fa94830194168260608301868460056105465a03fa16806121ae57600080fd5b5081935080606001925060005b808401511581861116156121d1576020016121bb565b80156121e1579384900393928301925b506020830394508360051c8552818160600101604052505050509392505050565b604080516020810190915260608152600061221d600161192e565b9050611c49848285611996565b8073ffffffffffffffffffffffffffffffffffffffff166122697ff86c915dad5894faca0dfa067c58fdf4307406d255ed0a65db394f82b77f53d45490565b73ffffffffffffffffffffffffffffffffffffffff1614156122e7576040517f08c379a000000000000000000000000000000000000000000000000000000000815260206004820152601f60248201527f496d706c656d656e746174696f6e20616c7265616479206d61746368696e6700604482015260640161034d565b7ff86c915dad5894faca0dfa067c58fdf4307406d255ed0a65db394f82b77f53d455565b6040805160208101909152606081526000612326600261192e565b905060608361233e5761233986866126a9565b612348565b6123488686612724565b80515190935060009061235f9060061b6001612d12565b6040805160018082528183019092529192506020820181803683370190505091508082527ff00000000000000000000000000000000000000000000000000000000000000060208301526123bf6040518060200160405280606081525090565b6123c88361171f565b90506123d5858583611996565b98975050505050505050565b60606000604051845160051b845160051b8187018187018385016020810160005b8581101561245457845184518103998a038085528a10991198909817977fffffffffffffffffffffffffffffffffffffffffffffffffffffffffffffffe0948501949384019390920191602001612402565b508492505b858310156124a357835197880380835297909711967fffffffffffffffffffffffffffffffffffffffffffffffffffffffffffffffe0938401936020939093019290910190612459565b602094505b848201516124bb576020850194506124a8565b7fffffffffffffffffffffffffffffffffffffffffffffffffffffffffffffffe09094019384156124f0579584019594849003945b60059590951c865250505060409190915250949350505050565b6040805160208101909152606080825282515160009060fe908290819060051b6104008111156125bc576040517f08c379a000000000000000000000000000000000000000000000000000000000815260206004820152602260248201527f4c656e677468206d757374206265206c657373207468616e203831393220626960448201527f7473000000000000000000000000000000000000000000000000000000000000606482015260840161034d565b87518101915060006125cf602083612de0565b90505b6000811261262957825195508015600181146125f457602084035194506125f9565b600094505b5092841b60029590951c85811783529492612615602084612cfb565b9250612622602082612de0565b90506125d2565b5060208201915081511560008211161561266757602091909101907fffffffffffffffffffffffffffffffffffffffffffffffffffffffffffffffe0015b60051c7fffffffffffffffffffffffffffffffffffffffffffffffffffffffffffffffe090910190815260408051602081019091529081529695505050505050565b60408051602081019091526060815260006126c484846119bf565b905080600114156126e457835183516126dd91906123e1565b825261271d565b807fffffffffffffffffffffffffffffffffffffffffffffffffffffffffffffffff141561271d578251845161271a91906123e1565b82525b5092915050565b60408051602081019091526060815282515182515181612748578392505050610606565b80612757578492505050610606565b808210612773578451845161276c919061278c565b8352612784565b83518551612781919061278c565b83525b505092915050565b60606040516000845160051b845160051b81870181870183602087010160005b848110156127ff57835183519081018881018085529111971196909617957fffffffffffffffffffffffffffffffffffffffffffffffffffffffffffffffe09384019392830192909101906020016127ac565b508391505b8482101561284a578251860180825295909510947fffffffffffffffffffffffffffffffffffffffffffffffffffffffffffffffe0928301926020929092019101612804565b858152505050508160051b60200383019350818160051c0184525050506020815160051b01810160405292915050565b8280548282559060005260206000209081019282156128b5579160200282015b828111156128b557825182559160200191906001019061289a565b506128c19291506128e6565b5090565b50805460008255906000526020600020908101906128e391906128e6565b50565b5b808211156128c157600081556001016128e7565b73ffffffffffffffffffffffffffffffffffffffff811681146128e357600080fd5b7f4e487b7100000000000000000000000000000000000000000000000000000000600052604160045260246000fd5b6000806040838503121561295f57600080fd5b823561296a816128fb565b9150602083013567ffffffffffffffff8082111561298757600080fd5b818501915085601f83011261299b57600080fd5b8135818111156129ad576129ad61291d565b604051601f82017fffffffffffffffffffffffffffffffffffffffffffffffffffffffffffffffe0908116603f011681019083821181831017156129f3576129f361291d565b81604052828152886020848701011115612a0c57600080fd5b8260208601602083013760006020848301015280955050505050509250929050565b60008060408385031215612a4157600080fd5b823591506020830135612a53816128fb565b809150509250929050565b600060208284031215612a7057600080fd5b8135611ffc816128fb565b60008083601f840112612a8d57600080fd5b50813567ffffffffffffffff811115612aa557600080fd5b602083019150836020828501011115612abd57600080fd5b9250929050565b60008060208385031215612ad757600080fd5b823567ffffffffffffffff811115612aee57600080fd5b612afa85828601612a7b565b90969095509350505050565b600060208284031215612b1857600080fd5b5035919050565b60005b83811015612b3a578181015183820152602001612b22565b83811115612b49576000848401525b50505050565b60008151808452612b67816020860160208601612b1f565b601f017fffffffffffffffffffffffffffffffffffffffffffffffffffffffffffffffe0169290920160200192915050565b602081526000611ffc6020830184612b4f565b60008060008060608587031215612bc257600080fd5b8435935060208501359250604085013567ffffffffffffffff811115612be757600080fd5b612bf387828801612a7b565b95989497509550505050565b60008060408385031215612c1257600080fd5b50508035926020909101359150565b83815260008351612c39816020850160208801612b1f565b60209201918201929092526040019392505050565b7f4e487b7100000000000000000000000000000000000000000000000000000000600052601160045260246000fd5b60007fffffffffffffffffffffffffffffffffffffffffffffffffffffffffffffffff821415612caf57612caf612c4e565b5060010190565b8381528260208201526060604082015260006120e66060830184612b4f565b82815260008251612ced816020850160208701612b1f565b919091016020019392505050565b600082821015612d0d57612d0d612c4e565b500390565b60008219821115612d2557612d25612c4e565b500190565b7f4e487b7100000000000000000000000000000000000000000000000000000000600052601260045260246000fd5b600082612d8f577f4e487b7100000000000000000000000000000000000000000000000000000000600052601260045260246000fd5b500690565b7f4e487b7100000000000000000000000000000000000000000000000000000000600052603260045260246000fd5b600060208284031215612dd557600080fd5b8151611ffc816128fb565b6000808312837f800000000000000000000000000000000000000000000000000000000000000001831281151615612e1a57612e1a612c4e565b837f7fffffffffffffffffffffffffffffffffffffffffffffffffffffffffffffff018313811615612e4e57612e4e612c4e565b5050039056fec7970ceedcc3b0754490201a7aa613cd73911081c790f5f1a8726f463550bb5b7ff0db8e1ea1189ec72f93d1650011bd721aeeacc2acde32a04107f0648c2813a31f5b0b7765ff8b44b4b6ffc93384b646eb09c7cf5e8592d40ea33c80039f35b4f14a04b51f7bfd781be4d1673164ba8eb991c2c4d730bbbe35f592bdef524af7e8daefd26c66fc02c479af89d64d373f442709439de66ceb955f3ea37d5159f6135809f85334b5cb1813addc80cd05609f10ac6a95ad65872c909525bdad32bc729592642920f24c61dc5b3c3b7923e56b16a4d9d373d8721f24a3fc0f1b3131f55615172866bccc30f95054c824e733a5eb6817f7bc16399d48c6361cc7e5a164736f6c6343000809000af86c915dad5894faca0dfa067c58fdf4307406d255ed0a65db394f82b77f53d4",
  "linkReferences": {},
  "deployedLinkReferences": {}
}