{
  "_format": "hh-sol-artifact-1",
  "contractName": "VDFVerifier",
  "sourceName": "contracts/VDF/VDFVerifier.sol",
  "abi": [
    {
      "inputs": [
        {
          "internalType": "contract Policy",
          "name": "_policy",
          "type": "address"
        }
      ],
      "stateMutability": "nonpayable",
      "type": "constructor"
    },
    {
      "anonymous": false,
      "inputs": [
        {
          "indexed": false,
          "internalType": "uint256",
          "name": "x",
          "type": "uint256"
        },
        {
          "indexed": false,
          "internalType": "uint256",
          "name": "t",
          "type": "uint256"
        },
        {
          "indexed": false,
          "internalType": "bytes",
          "name": "y",
          "type": "bytes"
        }
      ],
      "name": "SuccessfulVerification",
      "type": "event"
    },
    {
      "inputs": [],
      "name": "MIN_BYTES",
      "outputs": [
        {
          "internalType": "uint8",
          "name": "",
          "type": "uint8"
        }
      ],
      "stateMutability": "view",
      "type": "function"
    },
    {
      "inputs": [],
      "name": "N",
      "outputs": [
        {
          "internalType": "bytes",
          "name": "",
          "type": "bytes"
        }
      ],
      "stateMutability": "view",
      "type": "function"
    },
    {
      "inputs": [
        {
          "internalType": "bytes32",
          "name": "",
          "type": "bytes32"
        },
        {
          "internalType": "address",
          "name": "_addr",
          "type": "address"
        }
      ],
      "name": "canImplementInterfaceForAddress",
      "outputs": [
        {
          "internalType": "bytes32",
          "name": "",
          "type": "bytes32"
        }
      ],
      "stateMutability": "view",
      "type": "function"
    },
    {
      "inputs": [],
      "name": "clone",
      "outputs": [
        {
          "internalType": "address",
          "name": "",
          "type": "address"
        }
      ],
      "stateMutability": "nonpayable",
      "type": "function"
    },
    {
      "inputs": [],
      "name": "implementation",
      "outputs": [
        {
          "internalType": "address",
          "name": "_impl",
          "type": "address"
        }
      ],
      "stateMutability": "view",
      "type": "function"
    },
    {
      "inputs": [
        {
          "internalType": "address",
          "name": "_self",
          "type": "address"
        }
      ],
      "name": "initialize",
      "outputs": [],
      "stateMutability": "nonpayable",
      "type": "function"
    },
    {
      "inputs": [
        {
          "internalType": "uint256",
          "name": "_n",
          "type": "uint256"
        },
        {
          "internalType": "uint256",
          "name": "_k",
          "type": "uint256"
        }
      ],
      "name": "isProbablePrime",
      "outputs": [
        {
          "internalType": "bool",
          "name": "",
          "type": "bool"
        }
      ],
      "stateMutability": "view",
      "type": "function"
    },
    {
      "inputs": [
        {
          "internalType": "uint256",
          "name": "_x",
          "type": "uint256"
        },
        {
          "internalType": "uint256",
          "name": "_t",
          "type": "uint256"
        },
        {
          "internalType": "bytes",
          "name": "_ybytes",
          "type": "bytes"
        }
      ],
      "name": "isVerified",
      "outputs": [
        {
          "internalType": "bool",
          "name": "",
          "type": "bool"
        }
      ],
      "stateMutability": "view",
      "type": "function"
    },
    {
      "inputs": [],
      "name": "policy",
      "outputs": [
        {
          "internalType": "contract Policy",
          "name": "",
          "type": "address"
        }
      ],
      "stateMutability": "view",
      "type": "function"
    },
    {
      "inputs": [
        {
          "internalType": "address",
          "name": "_delegate",
          "type": "address"
        },
        {
          "internalType": "bytes",
          "name": "_data",
          "type": "bytes"
        }
      ],
      "name": "policyCommand",
      "outputs": [],
      "stateMutability": "nonpayable",
      "type": "function"
    },
    {
      "inputs": [
        {
          "internalType": "address",
          "name": "_addr",
          "type": "address"
        }
      ],
      "name": "setExpectedInterfaceSet",
      "outputs": [],
      "stateMutability": "nonpayable",
      "type": "function"
    },
    {
      "inputs": [
        {
          "internalType": "uint256",
          "name": "_x",
          "type": "uint256"
        },
        {
          "internalType": "uint256",
          "name": "_t",
          "type": "uint256"
        },
        {
          "internalType": "bytes",
          "name": "_ybytes",
          "type": "bytes"
        }
      ],
      "name": "start",
      "outputs": [],
      "stateMutability": "nonpayable",
      "type": "function"
    },
    {
      "inputs": [
        {
          "internalType": "bytes",
          "name": "_ubytes",
          "type": "bytes"
        }
      ],
      "name": "update",
      "outputs": [],
      "stateMutability": "nonpayable",
      "type": "function"
    },
    {
      "inputs": [
        {
          "internalType": "bytes32",
          "name": "",
          "type": "bytes32"
        }
      ],
      "name": "verified",
      "outputs": [
        {
          "internalType": "bytes32",
          "name": "",
          "type": "bytes32"
        }
      ],
      "stateMutability": "view",
      "type": "function"
    }
  ],
  "bytecode": "0x60a06040523480156200001157600080fd5b50604051620032d8380380620032d88339810160408190526200003491620001d7565b8080620000413062000149565b6001600160a01b038116620000c35760405162461bcd60e51b815260206004820152603860248201527f556e7265636f76657261626c653a20646f206e6f74207365742074686520706f60448201527f6c69637920617320746865207a65726f2061646472657373000000000000000060648201526084015b60405180910390fd5b6001600160a01b0381166080819052604051635df8122f60e01b81523060048201526024810191909152731820a4b7618bde71dce8cdc73aab6c95905fad2490635df8122f90604401600060405180830381600087803b1580156200012757600080fd5b505af11580156200013c573d6000803e3d6000fd5b5050505050505062000209565b6001600160a01b0381166200016b600080516020620032b88339815191525490565b6001600160a01b03161415620001c45760405162461bcd60e51b815260206004820152601f60248201527f496d706c656d656e746174696f6e20616c7265616479206d61746368696e67006044820152606401620000ba565b600080516020620032b883398151915255565b600060208284031215620001ea57600080fd5b81516001600160a01b03811681146200020257600080fd5b9392505050565b608051613078620002406000396000818160f40152818161028e015281816104cf015281816106300152610f2001526130786000f3fe608060405234801561001057600080fd5b50600436106100ea5760003560e01c8063c43ed2c81161008c578063c9e525df11610066578063c9e525df14610218578063c9e909bb1461022d578063df1bba0114610250578063e3b932db1461026357600080fd5b8063c43ed2c8146101d2578063c4d66de8146101e5578063c59e43e5146101f857600080fd5b8063249cb3fa116100c8578063249cb3fa1461015d5780633067309c1461017e57806339634e0c146101985780635c60da1b146101ab57600080fd5b80630505c8c9146100ef57806309d7f23b1461014057806309ed460714610155575b600080fd5b6101167f000000000000000000000000000000000000000000000000000000000000000081565b60405173ffffffffffffffffffffffffffffffffffffffff90911681526020015b60405180910390f35b61015361014e3660046129df565b610276565b005b61011661036a565b61017061016b366004612ac1565b6104cb565b604051908152602001610137565b610186604081565b60405160ff9091168152602001610137565b6101536101a6366004612af1565b610618565b7ff86c915dad5894faca0dfa067c58fdf4307406d255ed0a65db394f82b77f53d454610116565b6101536101e0366004612b57565b610724565b6101536101f3366004612af1565b610e07565b610170610206366004612b99565b60026020526000908152604090205481565b610220610f92565b6040516101379190612c2c565b61024061023b366004612c3f565b610fb1565b6040519015158152602001610137565b61015361025e366004612c3f565b611079565b610240610271366004612c92565b6114a9565b3373ffffffffffffffffffffffffffffffffffffffff7f00000000000000000000000000000000000000000000000000000000000000001614610340576040517f08c379a000000000000000000000000000000000000000000000000000000000815260206004820152602e60248201527f4f6e6c792074686520706f6c69637920636f6e7472616374206d61792063616c60448201527f6c2074686973206d6574686f642e00000000000000000000000000000000000060648201526084015b60405180910390fd5b600080825160208401855af43d806000803e81801561035e57816000f35b816000fd5b5050505050565b6000306103957ff86c915dad5894faca0dfa067c58fdf4307406d255ed0a65db394f82b77f53d45490565b73ffffffffffffffffffffffffffffffffffffffff1614610438576040517f08c379a000000000000000000000000000000000000000000000000000000000815260206004820152602660248201527f54686973206d6574686f642063616e6e6f742062652063616c6c6564206f6e2060448201527f636c6f6e657300000000000000000000000000000000000000000000000000006064820152608401610337565b6000610443306116eb565b6040517fc4d66de800000000000000000000000000000000000000000000000000000000815230600482015290915073ffffffffffffffffffffffffffffffffffffffff82169063c4d66de890602401600060405180830381600087803b1580156104ad57600080fd5b505af11580156104c1573d6000803e3d6000fd5b5092949350505050565b60007f000000000000000000000000000000000000000000000000000000000000000073ffffffffffffffffffffffffffffffffffffffff168273ffffffffffffffffffffffffffffffffffffffff161480610541575060005473ffffffffffffffffffffffffffffffffffffffff8381169116145b6105cd576040517f08c379a000000000000000000000000000000000000000000000000000000000815260206004820152603c60248201527f4f6e6c792074686520706f6c696379206f7220696e7465726661636520636f6e60448201527f74726163742063616e207365742074686520696e746572666163652e000000006064820152608401610337565b6040517f455243313832305f4143434550545f4d4147494300000000000000000000000060208201526034016040516020818303038152906040528051906020012090505b92915050565b3373ffffffffffffffffffffffffffffffffffffffff7f000000000000000000000000000000000000000000000000000000000000000016146106dd576040517f08c379a000000000000000000000000000000000000000000000000000000000815260206004820152602e60248201527f4f6e6c792074686520706f6c69637920636f6e7472616374206d61792063616c60448201527f6c2074686973206d6574686f642e0000000000000000000000000000000000006064820152608401610337565b600080547fffffffffffffffffffffffff00000000000000000000000000000000000000001673ffffffffffffffffffffffffffffffffffffffff92909216919091179055565b336000908152600160205260409020805461079b576040517f08c379a000000000000000000000000000000000000000000000000000000000815260206004820181905260248201527f70726f6365737320686173206e6f7420796574206265656e20737461727465646044820152606401610337565b60006107c16040518061012001604052806101008152602001612f6c6101009139611754565b905060006107cf60016119de565b905060006107dd60026119de565b9050600061082087878080601f01602080910402602001604051908101604052809392919081815260200183838082843760009201919091525061175492505050565b9050600061082f828487611a46565b9050600061083c83611a6f565b905060208111806108615750806020148015610861575061085d8386611a80565b6001145b6108c7576040517f08c379a000000000000000000000000000000000000000000000000000000000815260206004820152601860248201527f75206d7573742062652067726561746572207468616e203100000000000000006044820152606401610337565b6108d18387611a80565b7fffffffffffffffffffffffffffffffffffffffffffffffffffffffffffffffff14610959576040517f08c379a000000000000000000000000000000000000000000000000000000000815260206004820152601560248201527f75206d757374206265206c657373207468616e204e00000000000000000000006044820152606401610337565b6109638286611a80565b6001146109cc576040517f08c379a000000000000000000000000000000000000000000000000000000000815260206004820152601a60248201527f752a75206d7573742062652067726561746572207468616e20310000000000006044820152606401610337565b60006109d787611a6f565b885460038a015491925090600090610a24906109f38886611b88565b84604051602001610a0693929190612cb4565b6040516020818303038152906040528051906020012060001c6119de565b905081610a3081612d10565b6040805160058e0180546020818102840185018552830181815294975060009550610aa394610a9c9484928491840182828015610a8c57602002820191906000526020600020905b815481526020019060010190808311610a78575b505050505081525050848d611a46565b878c611d70565b90506000610b22610ab588858e611a46565b8d60060160405180602001604052908160008201805480602002602001604051908101604052809291908181526020018280548015610b1357602002820191906000526020600020905b815481526020019060010190808311610aff575b5050505050815250508d611d70565b90508b600101548414610b735781518051839160058f0191610b4b91839160209091019061290d565b50508151805183925060068f0191610b689183916020019061290d565b505050838c55610df7565b610b88610b8060046119de565b83908d611a46565b9150610b948282611a80565b15610c20576040517f08c379a0000000000000000000000000000000000000000000000000000000008152602060048201526024808201527f566572696669636174696f6e206661696c656420696e20746865206c6173742060448201527f73746570000000000000000000000000000000000000000000000000000000006064820152608401610337565b6040805160048e01805460208181028401850185528301818152610c8e948a949392849291849190840182828015610c7757602002820191906000526020600020905b815481526020019060010190808311610c63575b505050505081525050611b8890919063ffffffff16565b80519060200120600260008e600101548f60020154604051602001610cbd929190918252602082015260400190565b604051602081830303815290604052805190602001208152602001908152602001600020819055507fdba80e12e70e9b8a32866d25c4af4d2ac3ba612929454b812ad0ab6561ff0e598c600201548d60010154610d7f8f60040160405180602001604052908160008201805480602002602001604051908101604052809291908181526020018280548015610d7157602002820191906000526020600020905b815481526020019060010190808311610d5d575b505050505081525050611d9a565b604051610d8e93929190612d49565b60405180910390a133600090815260016020819052604082208281559081018290556002810182905560038101829055906004820181610dce8282612958565b5050600582016000610de08282612958565b5050600682016000610df28282612958565b505050505b5050505050505050505050505050565b6000610e317ff86c915dad5894faca0dfa067c58fdf4307406d255ed0a65db394f82b77f53d45490565b73ffffffffffffffffffffffffffffffffffffffff1614610ed4576040517f08c379a000000000000000000000000000000000000000000000000000000000815260206004820152602860248201527f43616e206f6e6c792062652063616c6c656420647572696e6720696e6974696160448201527f6c697a6174696f6e0000000000000000000000000000000000000000000000006064820152608401610337565b610edd81611ee5565b6040517f5df8122f00000000000000000000000000000000000000000000000000000000815230600482015273ffffffffffffffffffffffffffffffffffffffff7f0000000000000000000000000000000000000000000000000000000000000000166024820152731820a4b7618bde71dce8cdc73aab6c95905fad2490635df8122f90604401600060405180830381600087803b158015610f7e57600080fd5b505af1158015610363573d6000803e3d6000fd5b6040518061012001604052806101008152602001612f6c610100913981565b600080610ff384848080601f01602080910402602001604051908101604052809392919081815260200183838082843760009201919091525061175492505050565b905060006040518061012001604052806101008152602001612f6c61010091395190506110208282611b88565b8051906020012060026000888a604051602001611047929190918252602082015260400190565b604051602081830303815290604052805190602001208152602001908152602001600020541492505050949350505050565b604080516020808201869052818301879052825180830384018152606090920183528151918101919091206000908152600290915220541561113d576040517f08c379a000000000000000000000000000000000000000000000000000000000815260206004820152603160248201527f74686973205f782c205f7420636f6d62696e6174696f6e2068617320616c726560448201527f616479206265656e2076657269666965640000000000000000000000000000006064820152608401610337565b60028310156111a8576040517f08c379a000000000000000000000000000000000000000000000000000000000815260206004820152601460248201527f74206d757374206265206174206c6561737420320000000000000000000000006044820152606401610337565b60018411611212576040517f08c379a000000000000000000000000000000000000000000000000000000000815260206004820152601e60248201527f54686520636f6d6d69746d656e7420287829206d757374206265203e203100006044820152606401610337565b60006112386040518061012001604052806101008152602001612f6c6101009139611754565b90506000611245866119de565b9050600061128885858080601f01602080910402602001604051908101604052809392919081815260200183838082843760009201919091525061175492505050565b9050600061129683846120e4565b905060406112a383612144565b1015611331576040517f08c379a000000000000000000000000000000000000000000000000000000000815260206004820152602c60248201527f5468652073656372657420287929206d757374206265206174206c656173742060448201527f35313220626974206c6f6e6700000000000000000000000000000000000000006064820152608401610337565b61133b8285611a80565b7fffffffffffffffffffffffffffffffffffffffffffffffffffffffffffffffff146113c3576040517f08c379a000000000000000000000000000000000000000000000000000000000815260206004820152601560248201527f79206d757374206265206c657373207468616e204e00000000000000000000006044820152606401610337565b336000908152600160208181526040909220818155908101899055600281018a90558351805191928592600485019261140092849291019061290d565b505082518051849250600584019161141d9183916020019061290d565b505083518051859250600684019161143a9183916020019061290d565b509050508861145261144b87611a6f565b8590611b88565b604051602001611463929190612d71565b604080517fffffffffffffffffffffffffffffffffffffffffffffffffffffffffffffffe081840301815291905280516020909101206003909101555050505050505050565b600082600214806114ba5750826003145b806114c55750826005145b156114d257506001610612565b82600114806114e2575060018316155b156114ef57506000610612565b6000806114fd600386612d97565b9050600061150c600187612d97565b905080608081901b61152b57608090811c906115289085612dae565b93505b60c081901b61154757604090811c906115449085612dae565b93505b60e081901b61156357602090811c906115609085612dae565b93505b60f081901b61157f57601090811c9061157c9085612dae565b93505b60f881901b61159b57600890811c906115989085612dae565b93505b60fc81901b6115b757600490811c906115b49085612dae565b93505b60fe81901b6115d357600290811c906115d09085612dae565b93505b60ff81901b6115ef57600190811c906115ec9085612dae565b93505b60006115fc600143612d97565b40905060005b878110156116dc5760408051602080820185905281830184905282518083038401815260609092019092528051910120600061163e8783612df5565b611649906002612dae565b9050600061165882878e612156565b90508060011415801561166b5750868114155b156116c85760005b898110156116ab578c8061168957611689612dc6565b82830991508782141561169b576116ab565b6116a481612d10565b9050611673565b898114156116c65760009a5050505050505050505050610612565b505b505050806116d590612d10565b9050611602565b50600198975050505050505050565b6000808260601b90506040517f3d602d80600a3d3981f3363d3d373d3d3d363d7300000000000000000000000081528160148201527f5af43d82803e903d91602b57fd5bf3000000000000000000000000000000000060288201526037816000f0949350505050565b60408051602081019091526060815281518061178757505060408051600060208201908152818301909252908152919050565b60006020611796600184612d97565b6117a09190612e09565b6117ab906001612dae565b9050600060405180602001604052808367ffffffffffffffff8111156117d3576117d36129b0565b6040519080825280602002602001820160405280156117fc578160200160208202803683370190505b5090529050600061180e602085612df5565b90506000816118b357506020860151806118aa576040517f08c379a000000000000000000000000000000000000000000000000000000000815260206004820152603060248201527f486967682d776f7264206d7573742062652073657420666f722032353662697460448201527f2d616c69676e6564206e756d62657273000000000000000000000000000000006064820152608401610337565b60209150611957565b506020868101519082900360080281901c9060f81c80611955576040517f08c379a000000000000000000000000000000000000000000000000000000000815260206004820152603460248201527f486967682d62797465206d7573742062652073657420666f72206e6f6e2d323560448201527f366269742d616c69676e6564206e756d626572730000000000000000000000006064820152608401610337565b505b80836000015160008151811061196f5761196f612e1d565b602090810291909101015260015b848110156119d25760208301880151915081846000015182815181106119a5576119a5612e1d565b6020026020010181815250506020836119be9190612dae565b9250806119ca81612d10565b91505061197d565b50919695505050505050565b6040805160208101909152606081528115611a41576040805160016020820181815260608301909352909182918160200160208202803683375050509052805180519192508391600090611a3457611a34612e1d565b6020026020010181815250505b919050565b604080516020810190915260608152835183518351611a6692919061219a565b81529392505050565b805151600090610612906020612e4c565b8151518151516000919080821115611a9d57600192505050610612565b81811115611acf577fffffffffffffffffffffffffffffffffffffffffffffffffffffffffffffffff92505050610612565b60008060005b875151811015611b7a578751805182908110611af357611af3612e1d565b6020026020010151925086600001518181518110611b1357611b13612e1d565b6020026020010151915081831115611b3357600195505050505050610612565b82821115611b68577fffffffffffffffffffffffffffffffffffffffffffffffffffffffffffffffff95505050505050610612565b80611b7281612d10565b915050611ad5565b506000979650505050505050565b815151606090611b99816020612e4c565b831015611c02576040517f08c379a000000000000000000000000000000000000000000000000000000000815260206004820152601d60248201527f4e756d62657220746f6f206c6172676520746f20726570726573656e740000006044820152606401610337565b601f831615611c6d576040517f08c379a000000000000000000000000000000000000000000000000000000000815260206004820152601d60248201527f53697a65206d757374206265206d756c7469706c65206f6620307832300000006044820152606401610337565b60005b81611c7c602086612e09565b611c869190612d97565b811015611cc557604051611ca1908490600090602001612e89565b60405160208183030381529060405292508080611cbd90612d10565b915050611c70565b5060005b81811015611d6857600085600001518281518110611ce957611ce9612e1d565b602002602001015190508381604051602001611d0791815260200190565b604080517fffffffffffffffffffffffffffffffffffffffffffffffffffffffffffffffe081840301815290829052611d439291602001612eab565b6040516020818303038152906040529350508080611d6090612d10565b915050611cc9565b505092915050565b604080516020810190915260608152611d92611d8c85856120e4565b8361225e565b949350505050565b80515160609080611dab5750919050565b60008360000151600081518110611dc457611dc4612e1d565b6020026020010151905060005b8115801590611e0057507fff000000000000000000000000000000000000000000000000000000000000008216155b15611e1e5760089190911b90611e17600182612dae565b9050611dd1565b6040805160208101849052016040805191905260208290038152935060015b83811015611edc57600086600001518281518110611e5d57611e5d612e1d565b602002602001015190508581604051602001611e7b91815260200190565b604080517fffffffffffffffffffffffffffffffffffffffffffffffffffffffffffffffe081840301815290829052611eb79291602001612eab565b6040516020818303038152906040529550508080611ed490612d10565b915050611e3d565b50505050919050565b6000611f0f7ff86c915dad5894faca0dfa067c58fdf4307406d255ed0a65db394f82b77f53d45490565b73ffffffffffffffffffffffffffffffffffffffff1614611fb2576040517f08c379a000000000000000000000000000000000000000000000000000000000815260206004820152602860248201527f43616e206f6e6c792062652063616c6c656420647572696e6720696e6974696160448201527f6c697a6174696f6e0000000000000000000000000000000000000000000000006064820152608401610337565b60008173ffffffffffffffffffffffffffffffffffffffff16635c60da1b6040518163ffffffff1660e01b815260040160206040518083038186803b158015611ffa57600080fd5b505afa15801561200e573d6000803e3d6000fd5b505050506040513d601f19601f820116820180604052508101906120329190612eda565b905073ffffffffffffffffffffffffffffffffffffffff81166120d7576040517f08c379a000000000000000000000000000000000000000000000000000000000815260206004820152602c60248201527f696e697469616c697a6174696f6e206661696c7572653a206e6f7468696e672060448201527f746f20696d706c656d656e7400000000000000000000000000000000000000006064820152608401610337565b6120e081612286565b5050565b6040805160208101909152606081526120ff83836001612367565b905061210b8383611a80565b1561213257600061211e84846000612367565b8251815191925061212e91612438565b8252505b61213d816002612528565b9392505050565b600061214f82611d9a565b5192915050565b600060405160208152602080820152602060408201528460608201528360808201528260a082015260208160c08360055afa61219157600080fd5b51949350505050565b6060835160051b835160051b835160051b60405183815282602082015281604082015283606082018560208b0160046101c2fa846060019450838583018560208b0160046101c2fa9484019416828286018160208a0160046101c2fa94830194168260608301868460056105465a03fa168061221557600080fd5b508193508060600192505b82511560008511161561223e57602083019250602084039350612220565b6020830394508360051c8552818160600101604052505050509392505050565b604080516020810190915260608152600061227960016119de565b9050611d92848285611a46565b8073ffffffffffffffffffffffffffffffffffffffff166122c57ff86c915dad5894faca0dfa067c58fdf4307406d255ed0a65db394f82b77f53d45490565b73ffffffffffffffffffffffffffffffffffffffff161415612343576040517f08c379a000000000000000000000000000000000000000000000000000000000815260206004820152601f60248201527f496d706c656d656e746174696f6e20616c7265616479206d61746368696e67006044820152606401610337565b7ff86c915dad5894faca0dfa067c58fdf4307406d255ed0a65db394f82b77f53d455565b604080516020810190915260608152600061238260026119de565b905060608361239a57612395868661274b565b6123a4565b6123a486866127c6565b8051519093506000906123b8906020612e4c565b6123c3906002612e4c565b6123ce906020612dae565b60408051818152606081018252919250602082018180368337019050509150808252600160208301526020810182016040526124166040518060200160405280606081525090565b61241f83611754565b905061242c858583611a46565b98975050505050505050565b60606000604051845160051b845160051b808203828801828801925083850160208101855b80156124e95783518582116001811461247e579981038085528110996124b8565b875182039a8b03808652828c119b109a909a17997fffffffffffffffffffffffffffffffffffffffffffffffffffffffffffffffe0909701965b50507fffffffffffffffffffffffffffffffffffffffffffffffffffffffffffffffe093840193928301920161245d565b506020820191505b815161250e576020870196506020860395506020820191506124f1565b60059590951c865250505060409190915250949350505050565b604080516020810190915260608152606060008061254885610100612d97565b9050600080600088600001515160206125619190612e4c565b9050876002146125cd576040517f08c379a000000000000000000000000000000000000000000000000000000000815260206004820152601560248201527f4d6179206f6e6c792073686966742062792030783200000000000000000000006044820152606401610337565b61040081111561265f576040517f08c379a000000000000000000000000000000000000000000000000000000000815260206004820152602260248201527f4c656e677468206d757374206265206c657373207468616e203831393220626960448201527f74730000000000000000000000000000000000000000000000000000000000006064820152608401610337565b8851810191506000612672602083612ef7565b90505b600081126126c95782519550801560018114612697576020840351945061269c565b600094505b5092841b94881c858117835294926126b5602084612d97565b92506126c2602082612ef7565b9050612675565b5060208201915081511560008211161561270757602091909101907fffffffffffffffffffffffffffffffffffffffffffffffffffffffffffffffe0015b60051c7fffffffffffffffffffffffffffffffffffffffffffffffffffffffffffffffe0909101908152604080516020810190915290815294505050505092915050565b60408051602081019091526060815260006127668484611a80565b90508060011415612786578351835161277f9190612438565b82526127bf565b807fffffffffffffffffffffffffffffffffffffffffffffffffffffffffffffffff14156127bf57825184516127bc9190612438565b82525b5092915050565b604080516020810190915260608152825151825151816127ea578392505050610612565b806127f9578492505050610612565b808210612815578451845161280e919061282d565b8352611d68565b83518551612823919061282d565b8352505092915050565b60606040516000845160051b845160051b818701818701836020870101845b80156128dc5783518587038211600181146128715781890180855298909810976128ab565b84518281018a81018087529111991198909817977fffffffffffffffffffffffffffffffffffffffffffffffffffffffffffffffe0909401935b50507fffffffffffffffffffffffffffffffffffffffffffffffffffffffffffffffe093840193918201910161284c565b50858152505050508160051b60200383019350818160051c0184525050506020815160051b01810160405292915050565b828054828255906000526020600020908101928215612948579160200282015b8281111561294857825182559160200191906001019061292d565b50612954929150612979565b5090565b50805460008255906000526020600020908101906129769190612979565b50565b5b80821115612954576000815560010161297a565b73ffffffffffffffffffffffffffffffffffffffff8116811461297657600080fd5b7f4e487b7100000000000000000000000000000000000000000000000000000000600052604160045260246000fd5b600080604083850312156129f257600080fd5b82356129fd8161298e565b9150602083013567ffffffffffffffff80821115612a1a57600080fd5b818501915085601f830112612a2e57600080fd5b813581811115612a4057612a406129b0565b604051601f82017fffffffffffffffffffffffffffffffffffffffffffffffffffffffffffffffe0908116603f01168101908382118183101715612a8657612a866129b0565b81604052828152886020848701011115612a9f57600080fd5b8260208601602083013760006020848301015280955050505050509250929050565b60008060408385031215612ad457600080fd5b823591506020830135612ae68161298e565b809150509250929050565b600060208284031215612b0357600080fd5b813561213d8161298e565b60008083601f840112612b2057600080fd5b50813567ffffffffffffffff811115612b3857600080fd5b602083019150836020828501011115612b5057600080fd5b9250929050565b60008060208385031215612b6a57600080fd5b823567ffffffffffffffff811115612b8157600080fd5b612b8d85828601612b0e565b90969095509350505050565b600060208284031215612bab57600080fd5b5035919050565b60005b83811015612bcd578181015183820152602001612bb5565b83811115612bdc576000848401525b50505050565b60008151808452612bfa816020860160208601612bb2565b601f017fffffffffffffffffffffffffffffffffffffffffffffffffffffffffffffffe0169290920160200192915050565b60208152600061213d6020830184612be2565b60008060008060608587031215612c5557600080fd5b8435935060208501359250604085013567ffffffffffffffff811115612c7a57600080fd5b612c8687828801612b0e565b95989497509550505050565b60008060408385031215612ca557600080fd5b50508035926020909101359150565b83815260008351612ccc816020850160208801612bb2565b60209201918201929092526040019392505050565b7f4e487b7100000000000000000000000000000000000000000000000000000000600052601160045260246000fd5b60007fffffffffffffffffffffffffffffffffffffffffffffffffffffffffffffffff821415612d4257612d42612ce1565b5060010190565b838152826020820152606060408201526000612d686060830184612be2565b95945050505050565b82815260008251612d89816020850160208701612bb2565b919091016020019392505050565b600082821015612da957612da9612ce1565b500390565b60008219821115612dc157612dc1612ce1565b500190565b7f4e487b7100000000000000000000000000000000000000000000000000000000600052601260045260246000fd5b600082612e0457612e04612dc6565b500690565b600082612e1857612e18612dc6565b500490565b7f4e487b7100000000000000000000000000000000000000000000000000000000600052603260045260246000fd5b6000817fffffffffffffffffffffffffffffffffffffffffffffffffffffffffffffffff0483118215151615612e8457612e84612ce1565b500290565b60008351612e9b818460208801612bb2565b9190910191825250602001919050565b60008351612ebd818460208801612bb2565b835190830190612ed1818360208801612bb2565b01949350505050565b600060208284031215612eec57600080fd5b815161213d8161298e565b6000808312837f800000000000000000000000000000000000000000000000000000000000000001831281151615612f3157612f31612ce1565b837f7fffffffffffffffffffffffffffffffffffffffffffffffffffffffffffffff018313811615612f6557612f65612ce1565b5050039056fec7970ceedcc3b0754490201a7aa613cd73911081c790f5f1a8726f463550bb5b7ff0db8e1ea1189ec72f93d1650011bd721aeeacc2acde32a04107f0648c2813a31f5b0b7765ff8b44b4b6ffc93384b646eb09c7cf5e8592d40ea33c80039f35b4f14a04b51f7bfd781be4d1673164ba8eb991c2c4d730bbbe35f592bdef524af7e8daefd26c66fc02c479af89d64d373f442709439de66ceb955f3ea37d5159f6135809f85334b5cb1813addc80cd05609f10ac6a95ad65872c909525bdad32bc729592642920f24c61dc5b3c3b7923e56b16a4d9d373d8721f24a3fc0f1b3131f55615172866bccc30f95054c824e733a5eb6817f7bc16399d48c6361cc7e5a164736f6c6343000809000af86c915dad5894faca0dfa067c58fdf4307406d255ed0a65db394f82b77f53d4",
  "linkReferences": {},
  "deployedLinkReferences": {}
}